{
  "_format": "hh-sol-artifact-1",
  "contractName": "ChallengeCostFormulas",
  "sourceName": "contracts/Formulas.sol",
  "abi": [
    {
      "inputs": [
        {
          "internalType": "uint256",
          "name": "x",
          "type": "uint256"
        },
        {
          "internalType": "uint256",
          "name": "y",
          "type": "uint256"
        }
      ],
      "name": "PRBMath_MulDiv18_Overflow",
      "type": "error"
    },
    {
      "inputs": [
        {
          "internalType": "uint256",
          "name": "x",
          "type": "uint256"
        },
        {
          "internalType": "uint256",
          "name": "y",
          "type": "uint256"
        },
        {
          "internalType": "uint256",
          "name": "denominator",
          "type": "uint256"
        }
      ],
      "name": "PRBMath_MulDiv_Overflow",
      "type": "error"
    },
    {
      "inputs": [
        {
          "internalType": "UD60x18",
          "name": "x",
          "type": "uint256"
        }
      ],
      "name": "PRBMath_UD60x18_Exp2_InputTooBig",
      "type": "error"
    },
    {
      "inputs": [
        {
          "internalType": "UD60x18",
          "name": "x",
          "type": "uint256"
        }
      ],
      "name": "PRBMath_UD60x18_Exp_InputTooBig",
      "type": "error"
    },
    {
      "inputs": [
        {
          "internalType": "uint256",
          "name": "_difficultyWeight",
          "type": "uint256"
        },
        {
          "internalType": "uint256",
          "name": "_qualityScore",
          "type": "uint256"
        },
        {
          "internalType": "uint256",
          "name": "_bounty",
          "type": "uint256"
        },
        {
          "internalType": "uint256",
          "name": "_n_i",
          "type": "uint256"
        }
      ],
      "name": "calculateCost",
      "outputs": [
        {
          "internalType": "uint256",
          "name": "",
          "type": "uint256"
        }
      ],
      "stateMutability": "pure",
      "type": "function"
    }
  ],
  "bytecode": "0x60808060405234601957610df8908161001f823930815050f35b600080fdfe6080604052600436101561001257600080fd5b60003560e01c63a76cdbc41461002757600080fd5b6080366003190112610051576020610049606435604435602435600435610056565b604051908152f35b600080fd5b92919092670de0b6b3a7640000830292808404670de0b6b3a7640000149015171561012c57662386f26fc10000840293808504662386f26fc10000149015171561012c576100a390610a5b565b80662386f26fc10000019384662386f26fc100001161012c576100c590610afe565b0191662386f26fc10000830180941161012c5760009180610142575b5050662386f26fc1000091010180911161012c57662386f26fc1000081106101205766b1a2bc2ec5000081116101145790565b5066b1a2bc2ec5000090565b50662386f26fc1000090565b634e487b7160e01b600052601160045260246000fd5b61015161015791939293610caa565b92610afe565b680736ea4425c11ac6308111610a48576714057b7ef767814f670de0b6b3a7640000910204680a688906bd8affffff8111610a3557662386f26fc10000939261023161023c93670de0b6b3a76400006102379460401b049050600160bf1b67ff00000000000000821661090c575b670de0b6b3a76400009066ff00000000000083166107fc575b65ff000000000083166106f4575b64ff0000000083166105f4575b63ff00000083166104fc575b62ff0000831661040c575b61ff008316610324575b60ff8316610244575b029060401c60bf031c610d72565b90610c24565b610b91565b9091386100e1565b60808316610311575b604083166102fe575b602083166102eb575b601083166102d8575b600883166102c5575b600483166102b2575b6002831661029f575b600183161561022357680100000000000000010260401c610223565b680100000000000000010260401c610283565b680100000000000000030260401c61027a565b680100000000000000060260401c610271565b6801000000000000000b0260401c610268565b680100000000000000160260401c61025f565b6801000000000000002c0260401c610256565b680100000000000000590260401c61024d565b61800083166103f9575b61400083166103e6575b61200083166103d3575b61100083166103c0575b61080083166103ad575b610400831661039a575b6102008316610387575b61010083161561021a57680100000000000000b10260401c61021a565b680100000000000001630260401c61036a565b680100000000000002c60260401c610360565b6801000000000000058c0260401c610356565b68010000000000000b170260401c61034c565b6801000000000000162e0260401c610342565b68010000000000002c5d0260401c610338565b680100000000000058b90260401c61032e565b6280000083166104e9575b6240000083166104d6575b6220000083166104c3575b6210000083166104b0575b62080000831661049d575b62040000831661048a575b620200008316610477575b62010000831615610210576801000000000000b1720260401c610210565b680100000000000162e40260401c610459565b6801000000000002c5c80260401c61044e565b68010000000000058b910260401c610443565b680100000000000b17210260401c610438565b68010000000000162e430260401c61042d565b680100000000002c5c860260401c610422565b6801000000000058b90c0260401c610417565b638000000083166105e1575b634000000083166105ce575b632000000083166105bb575b631000000083166105a8575b63080000008316610595575b63040000008316610582575b6302000000831661056f575b63010000008316156102055768010000000000b172180260401c610205565b6801000000000162e4300260401c610550565b68010000000002c5c8600260401c610544565b680100000000058b90c00260401c610538565b6801000000000b17217f0260401c61052c565b680100000000162e42ff0260401c610520565b6801000000002c5c85fe0260401c610514565b68010000000058b90bfc0260401c610508565b64800000000083166106e1575b64400000000083166106ce575b64200000000083166106bb575b64100000000083166106a8575b6408000000008316610695575b6404000000008316610682575b640200000000831661066f575b6401000000008316156101f957680100000000b17217f80260401c6101f9565b68010000000162e42ff10260401c61064f565b680100000002c5c85fe30260401c610642565b6801000000058b90bfce0260401c610635565b68010000000b17217fbb0260401c610628565b6801000000162e42fff00260401c61061b565b68010000002c5c8601cc0260401c61060e565b680100000058b90c0b490260401c610601565b6580000000000083166107e9575b6540000000000083166107d6575b6520000000000083166107c3575b6510000000000083166107b0575b65080000000000831661079d575b65040000000000831661078a575b650200000000008316610777575b650100000000008316156101ec576801000000b1721835510260401c6101ec565b680100000162e430e5a20260401c610756565b6801000002c5c863b73f0260401c610748565b68010000058b90cf1e6e0260401c61073a565b680100000b1721bcfc9a0260401c61072c565b68010000162e43f4f8310260401c61071e565b680100002c5c89d5ec6d0260401c610710565b6801000058b91b5bc9ae0260401c610702565b668000000000000083166108f9575b664000000000000083166108e6575b662000000000000083166108d3575b661000000000000083166108c0575b660800000000000083166108ad575b6604000000000000831661089a575b66020000000000008316610887575b66010000000000008316156101de5768010000b17255775c040260401c6101de565b6801000162e525ee05470260401c610865565b68010002c5cc37da94920260401c610856565b680100058ba01fb9f96d0260401c610847565b6801000b175effdc76ba0260401c610838565b680100162f3904051fa10260401c610829565b6801002c605e2e8cec500260401c61081a565b68010058c86da1c09ea20260401c61080b565b6780000000000000008216610a22575b670de0b6b3a7640000906740000000000000008316610a0f575b67200000000000000083166109fc575b67100000000000000083166109e9575b67080000000000000083166109d6575b67040000000000000083166109c3575b67020000000000000083166109b0575b670100000000000000831661099d575b90506101c5565b680100b1afa5abcbed610260401c610996565b68010163da9fb33356d80260401c610986565b680102c9a3e778060ee70260401c610976565b6801059b0d31585743ae0260401c610966565b68010b5586cf9890f62a0260401c610956565b6801172b83c7d517adce0260401c610946565b6801306fe0a31b7152df0260401c610936565b5068016a09e667f3bcc909607f1b61091c565b63b3b6ba1f60e01b825260045260249150fd5b630d7b1d6560e11b825260045260249150fd5b9060001982670853a0d2313c00000982670853a0d2313c00000290818082109103908082039114610aee57670de0b6b3a7640000811015610acd57670de0b6b3a7640000600080516020610da38339815191529394670853a0d2313c00000990828211900360ee1b910360121c170290565b83635173648d60e01b600052670853a0d2313c000060045260245260446000fd5b50670de0b6b3a764000090049150565b9060001982670b1a2bc2ec5000000982670b1a2bc2ec5000000290818082109103908082039114610aee57670de0b6b3a7640000811015610b7057670de0b6b3a7640000600080516020610da38339815191529394670b1a2bc2ec5000000990828211900360ee1b910360121c170290565b83635173648d60e01b600052670b1a2bc2ec50000060045260245260446000fd5b90600019670429d069189e00008309670429d069189e0000830290818082109103908082039114610aee57670de0b6b3a7640000811015610c0357670de0b6b3a7640000670429d069189e0000600080516020610da383398151915294950990828211900360ee1b910360121c170290565b83635173648d60e01b600052600452670429d069189e000060245260446000fd5b90919060001983820983820291828083109203918083039214610c9957670de0b6b3a7640000821015610c8057600080516020610da38339815191529394670de0b6b3a7640000910990828211900360ee1b910360121c170290565b8490635173648d60e01b60005260045260245260446000fd5b5050670de0b6b3a764000090049150565b906000600019670de0b6b3a76400008409670de0b6b3a7640000840291828083109203918083039214610d60576801a055690d9db80000821015610d3357506801a055690d9db80000670de0b6b3a76400007ffa73f08a061f664794241034db7d8dfedbcac827e83c51f6b7907b7021c89a0794950990828211900360ed1b910360131c170290565b630c740aef60e31b81526004859052670de0b6b3a76400006024526801a055690d9db80000604452606490fd5b50506801a055690d9db8000090049150565b8015610d8c576ec097ce7bc90715b34b9f10000000000490565b634e487b7160e01b600052601260045260246000fdfeaccb18165bd6fe31ae1cf318dc5b51eee0e1ba569b88cd74c1773b91fac10669a2646970667358221220362a25fd55080acc523fed42100979b378847037e9e9848c744171b96980fd9064736f6c634300081a0033",
  "linkReferences": {},
  "deployedLinkReferences": {}
}