{
  "_format": "hh-sol-artifact-1",
  "contractName": "MeetingManager",
  "sourceName": "contracts/MeetingManager.sol",
  "abi": [
    {
      "inputs": [],
      "stateMutability": "nonpayable",
      "type": "constructor"
    },
    {
      "inputs": [],
      "name": "AccessControlBadConfirmation",
      "type": "error"
    },
    {
      "inputs": [
        {
          "internalType": "address",
          "name": "account",
          "type": "address"
        },
        {
          "internalType": "bytes32",
          "name": "neededRole",
          "type": "bytes32"
        }
      ],
      "name": "AccessControlUnauthorizedAccount",
      "type": "error"
    },
    {
      "anonymous": false,
      "inputs": [
        {
          "indexed": true,
          "internalType": "bytes32",
          "name": "id",
          "type": "bytes32"
        },
        {
          "indexed": false,
          "internalType": "uint256",
          "name": "ended_at",
          "type": "uint256"
        }
      ],
      "name": "MeetingCancelled",
      "type": "event"
    },
    {
      "anonymous": false,
      "inputs": [
        {
          "indexed": true,
          "internalType": "bytes32",
          "name": "id",
          "type": "bytes32"
        },
        {
          "indexed": false,
          "internalType": "uint256",
          "name": "ended_at",
          "type": "uint256"
        }
      ],
      "name": "MeetingCompleted",
      "type": "event"
    },
    {
      "anonymous": false,
      "inputs": [
        {
          "indexed": true,
          "internalType": "bytes32",
          "name": "id",
          "type": "bytes32"
        },
        {
          "indexed": false,
          "internalType": "bytes32",
          "name": "application_id",
          "type": "bytes32"
        },
        {
          "indexed": false,
          "internalType": "address",
          "name": "recruiter",
          "type": "address"
        },
        {
          "indexed": false,
          "internalType": "string",
          "name": "txid",
          "type": "string"
        },
        {
          "indexed": false,
          "internalType": "uint256",
          "name": "created_at",
          "type": "uint256"
        }
      ],
      "name": "MeetingScheduled",
      "type": "event"
    },
    {
      "anonymous": false,
      "inputs": [
        {
          "indexed": true,
          "internalType": "bytes32",
          "name": "role",
          "type": "bytes32"
        },
        {
          "indexed": true,
          "internalType": "bytes32",
          "name": "previousAdminRole",
          "type": "bytes32"
        },
        {
          "indexed": true,
          "internalType": "bytes32",
          "name": "newAdminRole",
          "type": "bytes32"
        }
      ],
      "name": "RoleAdminChanged",
      "type": "event"
    },
    {
      "anonymous": false,
      "inputs": [
        {
          "indexed": true,
          "internalType": "bytes32",
          "name": "role",
          "type": "bytes32"
        },
        {
          "indexed": true,
          "internalType": "address",
          "name": "account",
          "type": "address"
        },
        {
          "indexed": true,
          "internalType": "address",
          "name": "sender",
          "type": "address"
        }
      ],
      "name": "RoleGranted",
      "type": "event"
    },
    {
      "anonymous": false,
      "inputs": [
        {
          "indexed": true,
          "internalType": "bytes32",
          "name": "role",
          "type": "bytes32"
        },
        {
          "indexed": true,
          "internalType": "address",
          "name": "account",
          "type": "address"
        },
        {
          "indexed": true,
          "internalType": "address",
          "name": "sender",
          "type": "address"
        }
      ],
      "name": "RoleRevoked",
      "type": "event"
    },
    {
      "inputs": [],
      "name": "DEFAULT_ADMIN_ROLE",
      "outputs": [
        {
          "internalType": "bytes32",
          "name": "",
          "type": "bytes32"
        }
      ],
      "stateMutability": "view",
      "type": "function"
    },
    {
      "inputs": [
        {
          "internalType": "bytes32",
          "name": "id",
          "type": "bytes32"
        }
      ],
      "name": "cancelMeeting",
      "outputs": [],
      "stateMutability": "nonpayable",
      "type": "function"
    },
    {
      "inputs": [
        {
          "internalType": "bytes32",
          "name": "_application_id",
          "type": "bytes32"
        }
      ],
      "name": "checkApplicationHasAMeeting",
      "outputs": [
        {
          "internalType": "bool",
          "name": "",
          "type": "bool"
        }
      ],
      "stateMutability": "view",
      "type": "function"
    },
    {
      "inputs": [
        {
          "internalType": "bytes32",
          "name": "id",
          "type": "bytes32"
        }
      ],
      "name": "completeMeeting",
      "outputs": [],
      "stateMutability": "nonpayable",
      "type": "function"
    },
    {
      "inputs": [
        {
          "internalType": "bytes32",
          "name": "_application_id",
          "type": "bytes32"
        }
      ],
      "name": "getMeetingByApplication",
      "outputs": [
        {
          "components": [
            {
              "internalType": "bytes32",
              "name": "id",
              "type": "bytes32"
            },
            {
              "internalType": "bytes32",
              "name": "application_id",
              "type": "bytes32"
            },
            {
              "internalType": "string",
              "name": "txid",
              "type": "string"
            },
            {
              "internalType": "enum SystemEnums.MeetingStatus",
              "name": "status",
              "type": "uint8"
            },
            {
              "internalType": "uint256",
              "name": "created_at",
              "type": "uint256"
            },
            {
              "internalType": "uint256",
              "name": "ended_at",
              "type": "uint256"
            }
          ],
          "internalType": "struct MeetingManager.Meeting",
          "name": "",
          "type": "tuple"
        }
      ],
      "stateMutability": "view",
      "type": "function"
    },
    {
      "inputs": [
        {
          "internalType": "bytes32",
          "name": "id",
          "type": "bytes32"
        }
      ],
      "name": "getMeetingById",
      "outputs": [
        {
          "components": [
            {
              "internalType": "bytes32",
              "name": "id",
              "type": "bytes32"
            },
            {
              "internalType": "bytes32",
              "name": "application_id",
              "type": "bytes32"
            },
            {
              "internalType": "string",
              "name": "txid",
              "type": "string"
            },
            {
              "internalType": "enum SystemEnums.MeetingStatus",
              "name": "status",
              "type": "uint8"
            },
            {
              "internalType": "uint256",
              "name": "created_at",
              "type": "uint256"
            },
            {
              "internalType": "uint256",
              "name": "ended_at",
              "type": "uint256"
            }
          ],
          "internalType": "struct MeetingManager.Meeting",
          "name": "",
          "type": "tuple"
        }
      ],
      "stateMutability": "view",
      "type": "function"
    },
    {
      "inputs": [
        {
          "internalType": "bytes32",
          "name": "id",
          "type": "bytes32"
        }
      ],
      "name": "getMeetingTxIdById",
      "outputs": [
        {
          "internalType": "string",
          "name": "",
          "type": "string"
        }
      ],
      "stateMutability": "view",
      "type": "function"
    },
    {
      "inputs": [
        {
          "internalType": "address",
          "name": "_recruiter",
          "type": "address"
        }
      ],
      "name": "getMeetingsByRecruiter",
      "outputs": [
        {
          "components": [
            {
              "internalType": "bytes32",
              "name": "id",
              "type": "bytes32"
            },
            {
              "internalType": "bytes32",
              "name": "application_id",
              "type": "bytes32"
            },
            {
              "internalType": "string",
              "name": "txid",
              "type": "string"
            },
            {
              "internalType": "enum SystemEnums.MeetingStatus",
              "name": "status",
              "type": "uint8"
            },
            {
              "internalType": "uint256",
              "name": "created_at",
              "type": "uint256"
            },
            {
              "internalType": "uint256",
              "name": "ended_at",
              "type": "uint256"
            }
          ],
          "internalType": "struct MeetingManager.Meeting[]",
          "name": "",
          "type": "tuple[]"
        }
      ],
      "stateMutability": "view",
      "type": "function"
    },
    {
      "inputs": [
        {
          "internalType": "bytes32",
          "name": "role",
          "type": "bytes32"
        }
      ],
      "name": "getRoleAdmin",
      "outputs": [
        {
          "internalType": "bytes32",
          "name": "",
          "type": "bytes32"
        }
      ],
      "stateMutability": "view",
      "type": "function"
    },
    {
      "inputs": [
        {
          "internalType": "bytes32",
          "name": "role",
          "type": "bytes32"
        },
        {
          "internalType": "address",
          "name": "account",
          "type": "address"
        }
      ],
      "name": "grantRole",
      "outputs": [],
      "stateMutability": "nonpayable",
      "type": "function"
    },
    {
      "inputs": [
        {
          "internalType": "bytes32",
          "name": "role",
          "type": "bytes32"
        },
        {
          "internalType": "address",
          "name": "account",
          "type": "address"
        }
      ],
      "name": "hasRole",
      "outputs": [
        {
          "internalType": "bool",
          "name": "",
          "type": "bool"
        }
      ],
      "stateMutability": "view",
      "type": "function"
    },
    {
      "inputs": [
        {
          "internalType": "bytes32",
          "name": "role",
          "type": "bytes32"
        },
        {
          "internalType": "address",
          "name": "callerConfirmation",
          "type": "address"
        }
      ],
      "name": "renounceRole",
      "outputs": [],
      "stateMutability": "nonpayable",
      "type": "function"
    },
    {
      "inputs": [
        {
          "internalType": "bytes32",
          "name": "role",
          "type": "bytes32"
        },
        {
          "internalType": "address",
          "name": "account",
          "type": "address"
        }
      ],
      "name": "revokeRole",
      "outputs": [],
      "stateMutability": "nonpayable",
      "type": "function"
    },
    {
      "inputs": [
        {
          "internalType": "bytes32",
          "name": "_application_id",
          "type": "bytes32"
        },
        {
          "internalType": "string",
          "name": "_txid",
          "type": "string"
        }
      ],
      "name": "scheduleMeeting",
      "outputs": [],
      "stateMutability": "nonpayable",
      "type": "function"
    },
    {
      "inputs": [
        {
          "internalType": "address",
          "name": "addr",
          "type": "address"
        }
      ],
      "name": "setRecruiterSubscriptionAddress",
      "outputs": [],
      "stateMutability": "nonpayable",
      "type": "function"
    },
    {
      "inputs": [
        {
          "internalType": "bytes4",
          "name": "interfaceId",
          "type": "bytes4"
        }
      ],
      "name": "supportsInterface",
      "outputs": [
        {
          "internalType": "bool",
          "name": "",
          "type": "bool"
        }
      ],
      "stateMutability": "view",
      "type": "function"
    }
  ],
  "bytecode": "0x608060405234601f57600f336024565b506040516112f790816100b28239f35b600080fd5b6001600160a01b03811660009081526000805160206113a9833981519152602052604090205460ff1660ab576001600160a01b031660008181526000805160206113a983398151915260205260408120805460ff191660011790553391907f2f8788117e7eff1d82e926ec794901d17c78024a50270940304540a733656f0d8180a4600190565b5060009056fe608080604052600436101561001357600080fd5b60003560e01c90816301ffc9a714610da3575080630213e83414610c505780630e41ed0614610c0d5780631cc2ab0614610bd1578063248a9ca314610b9c5780632f2ff15d14610b5c57806336568abe14610b165780636502d48814610a495780636e12a83414610887578063790a37f0146107e157806391d14854146107945780639e74157a14610763578063a217fddf14610747578063aed2f27c146102b5578063c7da33721461011b5763d547741f146100cf57600080fd5b34610116576040366003190112610116576101146004356100ee610e8a565b9061010f61010a82600052600060205260016040600020015490565b611179565b61123f565b005b600080fd5b3461011657602036600319011261011657600654600435906001600160a01b031680151580610243575b61014f9150610f22565b33600052600560205260406000208160005260205261017560ff60406000205416610f78565b80600052600160205260ff60036040600020015416600381101561022d5761019d9015610fcf565b6103e842024281046103e814421517156102175760207f3750c47fd65e801340db5ae8535647d85854d019d64df81d10c6125b84e0518691836000526001825260016040600020600381018260ff19825416179055826005820155015460005260038252604060002060ff198154169055604051908152a2005b634e487b7160e01b600052601160045260246000fd5b634e487b7160e01b600052602160045260246000fd5b506020602491604051928380926321cf7ecb60e21b82523360048301525afa80156102a95761014f9160009161027a575b50610145565b61029c915060203d6020116102a2575b6102948183610ee8565b810190610f0a565b83610274565b503d61028a565b6040513d6000823e3d90fd5b346101165760403660031901126101165760243567ffffffffffffffff811161011657366023820112156101165767ffffffffffffffff81600401351161011657366024826004013583010111610116576006546001600160a01b0316801515806106f1575b6103259150610f22565b600435600052600360205260ff6040600020541661069d57426103e84202046103e814421517156102175760405160208101903360601b82526103e84202603482015260348152610377605482610ee8565b5190206040519161038783610eb6565b818352602083019260043584526000936040516103b26020601f19601f876004013501160182610ee8565b6004840135808252602485016020830137856020856004013583010152604083019081526060830186815260808401916103e84202835260a0850193888552878952600160205260408920955186555160018601555180519067ffffffffffffffff8211610689578190610429600288015461101b565b601f8111610636575b50602090601f83116001146105cd578a926105c2575b50508160011b916000199060031b1c19161760028501555b60038401905160038110156105ae5790600593929160ff8019835416911617905551600484015551910155600435835260026020528160408420556004358352600360205260408320600160ff198254161790553383526004602052604083208054906801000000000000000082101561059a5760018201808255821015610586577f45915e3155202d100fda696faea7f74d01debcf5596a6a2d9f0cd047646c841092918491865260208620015533845260056020526040842083855260205260408420600160ff1982541617905560a060405180926004358252336020830152608060408301528060040135608083015280600401356024820184840137600401358181018301879052426103e8026060830152601f01601f19168101030190a280f35b634e487b7160e01b85526032600452602485fd5b634e487b7160e01b85526041600452602485fd5b634e487b7160e01b88526021600452602488fd5b015190508980610448565b600288018b52818b209250601f1984168b5b81811061061e5750908460019594939210610605575b505050811b016002850155610460565b015160001960f88460031b161c191690558980806105f5565b929360206001819287860151815501950193016105df565b909150600287018a5260208a20601f840160051c8101916020851061067f575b90601f859493920160051c01905b8181106106715750610432565b8b8155849350600101610664565b9091508190610656565b634e487b7160e01b89526041600452602489fd5b60405162461bcd60e51b815260206004820152602660248201527f54686973206170706c69636174696f6e20616c7265616479206861732061206d604482015265656574696e6760d01b6064820152608490fd5b506020602491604051928380926321cf7ecb60e21b82523360048301525afa80156102a95761032591600091610728575b5061031b565b610741915060203d6020116102a2576102948183610ee8565b83610722565b3461011657600036600319011261011657602060405160008152f35b34610116576020366003190112610116576004356000526003602052602060ff604060002054166040519015158152f35b34610116576040366003190112610116576107ad610e8a565b600435600052600060205260406000209060018060a01b0316600052602052602060ff604060002054166040519015158152f35b34610116576020366003190112610116576107fa6110f9565b5060043560005260026020526040600020546000526001602052610883604060002060056040519161082b83610eb6565b805483526001810154602084015261084560028201611055565b604084015261085e60ff6003830154166060850161112b565b60048101546080840152015460a0820152604051918291602083526020830190610e37565b0390f35b34610116576020366003190112610116576001600160a01b036108a8610ea0565b16600052600460205260406000206040518082602082945493848152019060005260206000209260005b818110610a305750506108e792500382610ee8565b8051906108f382611137565b916109016040519384610ee8565b808352610910601f1991611137565b0160005b818110610a1957505060005b81518110156109b157806109366001928461114f565b5160005281602052604060002060056040519161095283610eb6565b8054835284810154602084015261096b60028201611055565b604084015261098460ff6003830154166060850161112b565b60048101546080840152015460a082015261099f828661114f565b526109aa818561114f565b5001610920565b826040518091602082016020835281518091526040830190602060408260051b8601019301916000905b8282106109ea57505050500390f35b91936001919395506020610a098192603f198a82030186528851610e37565b96019201920185949391926109db565b602090610a246110f9565b82828701015201610914565b84548352600194850194869450602090930192016108d2565b3461011657602036600319011261011657610a62610ea0565b3360009081527fad3228b676f7d3cd4284a5443f17f1962b36e491b30a40b2405849e597ba5fb5602052604090205460ff1615610afc576001600160a01b03168015610ac5576bffffffffffffffffffffffff60a01b6006541617600655600080f35b60405162461bcd60e51b815260206004820152600f60248201526e496e76616c6964206164647265737360881b6044820152606490fd5b63e2517d3f60e01b60005233600452600060245260446000fd5b3461011657604036600319011261011657610b2f610e8a565b336001600160a01b03821603610b4b576101149060043561123f565b63334bd91960e11b60005260046000fd5b3461011657604036600319011261011657610114600435610b7b610e8a565b90610b9761010a82600052600060205260016040600020015490565b6111b4565b34610116576020366003190112610116576020610bc9600435600052600060205260016040600020015490565b604051908152f35b3461011657602036600319011261011657610bea6110f9565b506004356000526001602052610883604060002060056040519161082b83610eb6565b34610116576020366003190112610116576004356000526001602052610883610c3c6002604060002001611055565b604051918291602083526020830190610df6565b3461011657602036600319011261011657600654600435906001600160a01b031680151580610d4d575b610c849150610f22565b336000526005602052604060002081600052602052610caa60ff60406000205416610f78565b80600052600160205260ff60036040600020015416600381101561022d57610cd29015610fcf565b6103e842024281046103e814421517156102175760207f16ff2d67f69482b0d125a7608b82704c452e8b071777f43d480f5151a8a18a809183600052600182526001604060002060038101600260ff19825416179055826005820155015460005260038252604060002060ff198154169055604051908152a2005b506020602491604051928380926321cf7ecb60e21b82523360048301525afa80156102a957610c8491600091610d84575b50610c7a565b610d9d915060203d6020116102a2576102948183610ee8565b83610d7e565b34610116576020366003190112610116576004359063ffffffff60e01b821680920361011657602091637965db0b60e01b8114908115610de5575b5015158152f35b6301ffc9a760e01b14905083610dde565b919082519283825260005b848110610e22575050826000602080949584010152601f8019910116010190565b80602080928401015182828601015201610e01565b908151815260208201516020820152610e5f604083015160c0604084015260c0830190610df6565b916060810151600381101561022d5760a0918291606085015260808101516080850152015191015290565b602435906001600160a01b038216820361011657565b600435906001600160a01b038216820361011657565b60c0810190811067ffffffffffffffff821117610ed257604052565b634e487b7160e01b600052604160045260246000fd5b90601f8019910116810190811067ffffffffffffffff821117610ed257604052565b90816020910312610116575180151581036101165790565b15610f2957565b60405162461bcd60e51b815260206004820152602160248201527f5265637275697465722068617320696e73756666696369656e742062756467656044820152601d60fa1b6064820152608490fd5b15610f7f57565b60405162461bcd60e51b815260206004820152602260248201527f52656372756974657220646f65736e2774206f776e2074686973206d656574696044820152616e6760f01b6064820152608490fd5b15610fd657565b60405162461bcd60e51b815260206004820152601e60248201527f54686973206d656574696e67206973206e6f7420696e2070656e64696e6700006044820152606490fd5b90600182811c9216801561104b575b602083101461103557565b634e487b7160e01b600052602260045260246000fd5b91607f169161102a565b90604051918260008254926110698461101b565b80845293600181169081156110d75750600114611090575b5061108e92500383610ee8565b565b90506000929192526020600020906000915b8183106110bb57505090602061108e9282010138611081565b60209193508060019154838589010152019101909184926110a2565b90506020925061108e94915060ff191682840152151560051b82010138611081565b6040519061110682610eb6565b600060a083828152826020820152606060408201528260608201528260808201520152565b600382101561022d5752565b67ffffffffffffffff8111610ed25760051b60200190565b80518210156111635760209160051b010190565b634e487b7160e01b600052603260045260246000fd5b60008181526020818152604080832033845290915290205460ff161561119c5750565b63e2517d3f60e01b6000523360045260245260446000fd5b6000818152602081815260408083206001600160a01b038616845290915290205460ff16611238576000818152602081815260408083206001600160a01b0395909516808452949091528120805460ff19166001179055339291907f2f8788117e7eff1d82e926ec794901d17c78024a50270940304540a733656f0d9080a4600190565b5050600090565b6000818152602081815260408083206001600160a01b038616845290915290205460ff1615611238576000818152602081815260408083206001600160a01b0395909516808452949091528120805460ff19169055339291907ff6391f5c32d9c69d2a47ea670b442974b53935d1edc7fd64eb21e047a839171b9080a460019056fea26469706673582212205498823e536fb3f8010e8620e137257c13384fbd999fecd040114013a9cdddfd64736f6c634300081a0033ad3228b676f7d3cd4284a5443f17f1962b36e491b30a40b2405849e597ba5fb5",
  "linkReferences": {},
  "deployedLinkReferences": {}
}