{
  "_format": "hh-sol-artifact-1",
  "contractName": "ReputationFormulas",
  "sourceName": "contracts/Formulas.sol",
  "abi": [
    {
      "inputs": [
        {
          "internalType": "uint256",
          "name": "x",
          "type": "uint256"
        },
        {
          "internalType": "uint256",
          "name": "y",
          "type": "uint256"
        }
      ],
      "name": "PRBMath_MulDiv18_Overflow",
      "type": "error"
    },
    {
      "inputs": [
        {
          "internalType": "uint256",
          "name": "x",
          "type": "uint256"
        },
        {
          "internalType": "uint256",
          "name": "y",
          "type": "uint256"
        },
        {
          "internalType": "uint256",
          "name": "denominator",
          "type": "uint256"
        }
      ],
      "name": "PRBMath_MulDiv_Overflow",
      "type": "error"
    },
    {
      "inputs": [
        {
          "internalType": "uint256",
          "name": "finalScore",
          "type": "uint256"
        },
        {
          "internalType": "uint256",
          "name": "threshold",
          "type": "uint256"
        },
        {
          "internalType": "uint256",
          "name": "scalingConstant",
          "type": "uint256"
        },
        {
          "internalType": "enum SystemEnums.DifficultyLevel",
          "name": "difficulty",
          "type": "SystemEnums.DifficultyLevel"
        },
        {
          "internalType": "uint256",
          "name": "rewardConstant",
          "type": "uint256"
        },
        {
          "internalType": "uint256",
          "name": "penaltyConstant",
          "type": "uint256"
        }
      ],
      "name": "computeDeltaBasedOnScore",
      "outputs": [
        {
          "internalType": "int256",
          "name": "",
          "type": "int256"
        }
      ],
      "stateMutability": "pure",
      "type": "function"
    },
    {
      "inputs": [
        {
          "internalType": "uint256",
          "name": "deviation",
          "type": "uint256"
        },
        {
          "internalType": "uint256",
          "name": "threshold",
          "type": "uint256"
        },
        {
          "internalType": "uint256",
          "name": "scalingConstant",
          "type": "uint256"
        },
        {
          "internalType": "uint256",
          "name": "rewardConstant",
          "type": "uint256"
        },
        {
          "internalType": "uint256",
          "name": "penaltyConstant",
          "type": "uint256"
        }
      ],
      "name": "computeDeltaScoreBasedOnDeviation",
      "outputs": [
        {
          "internalType": "int256",
          "name": "",
          "type": "int256"
        }
      ],
      "stateMutability": "pure",
      "type": "function"
    }
  ],
  "bytecode": "0x60808060405234601957610599908161001f823930815050f35b600080fdfe6080604052600436101561001257600080fd5b60003560e01c80630b4182181461006457637cb11b0d1461003257600080fd5b60a036600319011261005f5760206100576084356064356044356024356004356102cd565b604051908152f35b600080fd5b60c036600319011261005f57606435600381101561005f5761005760209160a43590608435906044356024356004356100bf565b600160ff1b81146100a95760000390565b634e487b7160e01b600052601160045260246000fd5b9193929092670de0b6b3a7640000830292808404670de0b6b3a764000014901517156100a957670de0b6b3a7640000840293808504670de0b6b3a764000014901517156100a95760405163d0fc464160e01b81529160038110156102b757600483015260208260248173__$48601fc9adbcb559808749f77bbebf5782$__5af49182156102ab5760009261024a575b50670de0b6b3a7640000810290808204670de0b6b3a764000014901517156100a957670de0b6b3a7640000860295808704670de0b6b3a764000014901517156100a957838311806101e857505050906101a6916103f2565b670de0b6b3a76400000391670de0b6b3a764000083116100a9576101e5926101da6101df92670de0b6b3a7640000946104cb565b6104cb565b04610098565b90565b91955093929015610240578082039182116100a95768056bc75e2d63100000039368056bc75e2d6310000085116100a9576101da61023c94610236670de0b6b3a7640000976101da956103f2565b946104cb565b0490565b5050505050600090565b909160203d6020116102a4575b601f8101601f1916830167ffffffffffffffff8111848210176102905760209184916040528101031261028d575051903861014e565b80fd5b634e487b7160e01b83526041600452602483fd5b503d610257565b6040513d6000823e3d90fd5b634e487b7160e01b600052602160045260246000fd5b93929193670de0b6b3a7640000810290808204670de0b6b3a764000014901517156100a957670de0b6b3a7640000820291808304670de0b6b3a764000014901517156100a957670de0b6b3a7640000830292808404670de0b6b3a764000014901517156100a957670de0b6b3a7640000840293808504670de0b6b3a764000014901517156100a9578181118061039857506103699293506103f2565b670de0b6b3a764000003670de0b6b3a764000081116100a9576101da61023c92670de0b6b3a7640000946104cb565b909250156103e9578082039182116100a95768056bc75e2d63100000039268056bc75e2d6310000084116100a9576101da670de0b6b3a7640000936103e36101e5966101df956103f2565b926104cb565b50505050600090565b600019670de0b6b3a7640000820991670de0b6b3a76400008202918280851094039380850394146104a8578184101561048557670de0b6b3a764000082910960018219018216809204600281600302188082026002030280820260020302808202600203028082026002030280820260020302809102600203029360018380600003040190848311900302920304170290565b630c740aef60e31b600052600452670de0b6b3a764000060245260445260646000fd5b50915081156104b5570490565b634e487b7160e01b600052601260045260246000fd5b9091906000198382098382029182808310920391808303921461055257670de0b6b3a7640000821015610539577faccb18165bd6fe31ae1cf318dc5b51eee0e1ba569b88cd74c1773b91fac106699394670de0b6b3a7640000910990828211900360ee1b910360121c170290565b8490635173648d60e01b60005260045260245260446000fd5b5050670de0b6b3a76400009004915056fea264697066735822122047b4ae4180af2e14d7939f9577460b4e9a79271bb57e970945ac2f37443fe0f364736f6c634300081a0033",
  "linkReferences": {
    "contracts/Constants.sol": {
      "Weights": [
        {
          "length": 20,
          "start": 329
        }
      ]
    }
  },
  "deployedLinkReferences": {
    "contracts/Constants.sol": {
      "Weights": [
        {
          "length": 20,
          "start": 298
        }
      ]
    }
  }
}