{
  "_format": "hh-sol-artifact-1",
  "contractName": "Weights",
  "sourceName": "contracts/Constants.sol",
  "abi": [
    {
      "inputs": [
        {
          "internalType": "enum SystemEnums.DifficultyLevel",
          "name": "level",
          "type": "SystemEnums.DifficultyLevel"
        }
      ],
      "name": "getDifficultyCostWeight",
      "outputs": [
        {
          "internalType": "uint256",
          "name": "",
          "type": "uint256"
        }
      ],
      "stateMutability": "pure",
      "type": "function"
    },
    {
      "inputs": [
        {
          "internalType": "enum SystemEnums.DifficultyLevel",
          "name": "level",
          "type": "SystemEnums.DifficultyLevel"
        }
      ],
      "name": "getDifficultyWeight",
      "outputs": [
        {
          "internalType": "uint256",
          "name": "",
          "type": "uint256"
        }
      ],
      "stateMutability": "pure",
      "type": "function"
    }
  ],
  "bytecode": "0x60808060405234601957610197908161001f823930815050f35b600080fdfe6080604052600436101561001257600080fd5b60003560e01c806351773c0c146100625763d0fc46411461003257600080fd5b602036600319011261005d57600435600381101561005d5761005560209161011e565b604051908152f35b600080fd5b602036600319011261005d57600435600381101561005d576100556020916003811015610108578061009b5750670de0b6b3a764000090565b600181036100b057506714d1120d7b16000090565b6002036100c357671bc16d674ec8000090565b60405162461bcd60e51b815260206004820152601860248201527f496e76616c696420646966666963756c7479206c6576656c00000000000000006044820152606490fd5b634e487b7160e01b600052602160045260246000fd5b600381101561010857806101395750670de0b6b3a764000090565b6001810361014e57506710a741a46278000090565b6002036100c35767136dcc951d8c00009056fea2646970667358221220a667a412917c79a37ef8a7aedd60105e2adc2e01a4b38c92264982ec47872d3d64736f6c634300081a0033",
  "linkReferences": {},
  "deployedLinkReferences": {}
}