{
  "_format": "hh-sol-artifact-1",
  "contractName": "RewardTokenFormulas",
  "sourceName": "contracts/Formulas.sol",
  "abi": [
    {
      "inputs": [
        {
          "internalType": "uint256",
          "name": "x",
          "type": "uint256"
        },
        {
          "internalType": "uint256",
          "name": "y",
          "type": "uint256"
        }
      ],
      "name": "PRBMath_MulDiv18_Overflow",
      "type": "error"
    },
    {
      "inputs": [
        {
          "internalType": "uint256",
          "name": "x",
          "type": "uint256"
        },
        {
          "internalType": "uint256",
          "name": "y",
          "type": "uint256"
        },
        {
          "internalType": "uint256",
          "name": "denominator",
          "type": "uint256"
        }
      ],
      "name": "PRBMath_MulDiv_Overflow",
      "type": "error"
    },
    {
      "inputs": [
        {
          "internalType": "UD60x18",
          "name": "x",
          "type": "uint256"
        }
      ],
      "name": "PRBMath_UD60x18_Exp2_InputTooBig",
      "type": "error"
    },
    {
      "inputs": [
        {
          "internalType": "UD60x18",
          "name": "x",
          "type": "uint256"
        }
      ],
      "name": "PRBMath_UD60x18_Exp_InputTooBig",
      "type": "error"
    },
    {
      "inputs": [
        {
          "internalType": "UD60x18",
          "name": "x",
          "type": "uint256"
        }
      ],
      "name": "PRBMath_UD60x18_Log_InputTooSmall",
      "type": "error"
    },
    {
      "inputs": [
        {
          "internalType": "uint256",
          "name": "weight",
          "type": "uint256"
        },
        {
          "internalType": "uint256",
          "name": "total_weight",
          "type": "uint256"
        },
        {
          "internalType": "uint256",
          "name": "total_reward",
          "type": "uint256"
        }
      ],
      "name": "calculateReward",
      "outputs": [
        {
          "internalType": "uint256",
          "name": "",
          "type": "uint256"
        }
      ],
      "stateMutability": "pure",
      "type": "function"
    },
    {
      "inputs": [
        {
          "internalType": "uint256",
          "name": "di_raw",
          "type": "uint256"
        },
        {
          "internalType": "uint256",
          "name": "ri_raw",
          "type": "uint256"
        }
      ],
      "name": "calculateWeightForModerator",
      "outputs": [
        {
          "internalType": "uint256",
          "name": "",
          "type": "uint256"
        }
      ],
      "stateMutability": "pure",
      "type": "function"
    }
  ],
  "bytecode": "0x60808060405234601957610e47908161001f823930815050f35b600080fdfe6080604052600436101561001257600080fd5b60003560e01c80632679cf38146100665763a8e62b971461003257600080fd5b6060366003190112610061576020610059604435610054602435600435610257565b6103cf565b604051908152f35b600080fd5b604036600319011261006157600435602435670de0b6b3a7640000810290808204670de0b6b3a7640000149015171561012357670de0b6b3a7640000820291808304670de0b6b3a76400001490151715610123576100c66100cc91610139565b9161031a565b90680736ea4425c11ac630821161010e5761005990610108610103670de0b6b3a76400006714057b7ef767814f602096020461056f565b610227565b906103cf565b50630d7b1d6560e11b60005260045260246000fd5b634e487b7160e01b600052601160045260246000fd5b600090801590811561014d57505050600090565b9091670de0b6b3a764000082146102185715610171575050670de0b6b3a764000090565b600091670de0b6b3a76400008211156101a757506101a4915067058d15e17628000061005461019f92610467565b61056f565b90565b6102045761019f67058d15e1762800006100546101d4936ec097ce7bc90715b34b9f100000000004610467565b9081156101f057506ec097ce7bc90715b34b9f10000000000490565b634e487b7160e01b81526012600452602490fd5b634e487b7160e01b82526012600452602482fd5b505050670de0b6b3a764000090565b8015610241576ec097ce7bc90715b34b9f10000000000490565b634e487b7160e01b600052601260045260246000fd5b600019670de0b6b3a7640000820991670de0b6b3a764000082029182808510940393808503941461030d57818410156102ea57670de0b6b3a764000082910960018219018216809204600281600302188082026002030280820260020302808202600203028082026002030280820260020302809102600203029360018380600003040190848311900302920304170290565b630c740aef60e31b600052600452670de0b6b3a764000060245260445260646000fd5b5091508115610241570490565b9060001982670b1a2bc2ec5000000982670b1a2bc2ec50000002908180821091039080820391146103bf57670de0b6b3a764000081101561039e57670de0b6b3a76400007faccb18165bd6fe31ae1cf318dc5b51eee0e1ba569b88cd74c1773b91fac106699394670b1a2bc2ec5000000990828211900360ee1b910360121c170290565b83635173648d60e01b600052670b1a2bc2ec50000060045260245260446000fd5b50670de0b6b3a764000090049150565b9091906000198382098382029182808310920391808303921461045657670de0b6b3a764000082101561043d577faccb18165bd6fe31ae1cf318dc5b51eee0e1ba569b88cd74c1773b91fac106699394670de0b6b3a7640000910990828211900360ee1b910360121c170290565b8490635173648d60e01b60005260045260245260446000fd5b5050670de0b6b3a764000090049150565b670de0b6b3a7640000811061055b57670de0b6b3a764000081046fffffffffffffffffffffffffffffffff811160071b90811c67ffffffffffffffff811160061b90811c63ffffffff811160051b90811c61ffff811160041b90811c9060ff821160031b91821c92600f841160021b93841c94600160038711811b96871c11961717171717171790670de0b6b3a76400008202911c670de0b6b3a76400008114610557576706f05b59d3b2000090815b61052057505090565b80670de0b6b3a764000091020490671bc16d674ec80000821015610549575b60011c9081610517565b809192019160011c9061053f565b5090565b63036d32ef60e41b60005260045260246000fd5b680a688906bd8affffff8111610dfd57670de0b6b3a76400009060401b04600160bf1b67ff000000000000008216610cd4575b670de0b6b3a76400009066ff0000000000008316610bc4575b65ff00000000008316610abc575b64ff0000000083166109bc575b63ff00000083166108c4575b62ff000083166107d4575b61ff0083166106ec575b60ff831661060c575b029060401c60bf031c90565b608083166106d9575b604083166106c6575b602083166106b3575b601083166106a0575b6008831661068d575b6004831661067a575b60028316610667575b600183161561060057680100000000000000010260401c610600565b680100000000000000010260401c61064b565b680100000000000000030260401c610642565b680100000000000000060260401c610639565b6801000000000000000b0260401c610630565b680100000000000000160260401c610627565b6801000000000000002c0260401c61061e565b680100000000000000590260401c610615565b61800083166107c1575b61400083166107ae575b612000831661079b575b6110008316610788575b6108008316610775575b6104008316610762575b610200831661074f575b6101008316156105f757680100000000000000b10260401c6105f7565b680100000000000001630260401c610732565b680100000000000002c60260401c610728565b6801000000000000058c0260401c61071e565b68010000000000000b170260401c610714565b6801000000000000162e0260401c61070a565b68010000000000002c5d0260401c610700565b680100000000000058b90260401c6106f6565b6280000083166108b1575b62400000831661089e575b62200000831661088b575b621000008316610878575b620800008316610865575b620400008316610852575b62020000831661083f575b620100008316156105ed576801000000000000b1720260401c6105ed565b680100000000000162e40260401c610821565b6801000000000002c5c80260401c610816565b68010000000000058b910260401c61080b565b680100000000000b17210260401c610800565b68010000000000162e430260401c6107f5565b680100000000002c5c860260401c6107ea565b6801000000000058b90c0260401c6107df565b638000000083166109a9575b63400000008316610996575b63200000008316610983575b63100000008316610970575b6308000000831661095d575b6304000000831661094a575b63020000008316610937575b63010000008316156105e25768010000000000b172180260401c6105e2565b6801000000000162e4300260401c610918565b68010000000002c5c8600260401c61090c565b680100000000058b90c00260401c610900565b6801000000000b17217f0260401c6108f4565b680100000000162e42ff0260401c6108e8565b6801000000002c5c85fe0260401c6108dc565b68010000000058b90bfc0260401c6108d0565b6480000000008316610aa9575b6440000000008316610a96575b6420000000008316610a83575b6410000000008316610a70575b6408000000008316610a5d575b6404000000008316610a4a575b6402000000008316610a37575b6401000000008316156105d657680100000000b17217f80260401c6105d6565b68010000000162e42ff10260401c610a17565b680100000002c5c85fe30260401c610a0a565b6801000000058b90bfce0260401c6109fd565b68010000000b17217fbb0260401c6109f0565b6801000000162e42fff00260401c6109e3565b68010000002c5c8601cc0260401c6109d6565b680100000058b90c0b490260401c6109c9565b658000000000008316610bb1575b654000000000008316610b9e575b652000000000008316610b8b575b651000000000008316610b78575b650800000000008316610b65575b650400000000008316610b52575b650200000000008316610b3f575b650100000000008316156105c9576801000000b1721835510260401c6105c9565b680100000162e430e5a20260401c610b1e565b6801000002c5c863b73f0260401c610b10565b68010000058b90cf1e6e0260401c610b02565b680100000b1721bcfc9a0260401c610af4565b68010000162e43f4f8310260401c610ae6565b680100002c5c89d5ec6d0260401c610ad8565b6801000058b91b5bc9ae0260401c610aca565b66800000000000008316610cc1575b66400000000000008316610cae575b66200000000000008316610c9b575b66100000000000008316610c88575b66080000000000008316610c75575b66040000000000008316610c62575b66020000000000008316610c4f575b66010000000000008316156105bb5768010000b17255775c040260401c6105bb565b6801000162e525ee05470260401c610c2d565b68010002c5cc37da94920260401c610c1e565b680100058ba01fb9f96d0260401c610c0f565b6801000b175effdc76ba0260401c610c00565b680100162f3904051fa10260401c610bf1565b6801002c605e2e8cec500260401c610be2565b68010058c86da1c09ea20260401c610bd3565b6780000000000000008216610dea575b670de0b6b3a7640000906740000000000000008316610dd7575b6720000000000000008316610dc4575b6710000000000000008316610db1575b6708000000000000008316610d9e575b6704000000000000008316610d8b575b6702000000000000008316610d78575b6701000000000000008316610d65575b90506105a2565b680100b1afa5abcbed610260401c610d5e565b68010163da9fb33356d80260401c610d4e565b680102c9a3e778060ee70260401c610d3e565b6801059b0d31585743ae0260401c610d2e565b68010b5586cf9890f62a0260401c610d1e565b6801172b83c7d517adce0260401c610d0e565b6801306fe0a31b7152df0260401c610cfe565b5068016a09e667f3bcc909607f1b610ce4565b63b3b6ba1f60e01b60005260045260246000fdfea26469706673582212208773f3e295af83f22fb6e96a2e953814dffb665642e14c0d1f3ff774dc61dc4164736f6c634300081a0033",
  "linkReferences": {},
  "deployedLinkReferences": {}
}