{
  "_format": "hh-sol-artifact-1",
  "contractName": "RoleManager",
  "sourceName": "contracts/RoleManager.sol",
  "abi": [
    {
      "inputs": [],
      "stateMutability": "nonpayable",
      "type": "constructor"
    },
    {
      "inputs": [],
      "name": "AccessControlBadConfirmation",
      "type": "error"
    },
    {
      "inputs": [
        {
          "internalType": "address",
          "name": "account",
          "type": "address"
        },
        {
          "internalType": "bytes32",
          "name": "neededRole",
          "type": "bytes32"
        }
      ],
      "name": "AccessControlUnauthorizedAccount",
      "type": "error"
    },
    {
      "anonymous": false,
      "inputs": [
        {
          "indexed": true,
          "internalType": "bytes32",
          "name": "role",
          "type": "bytes32"
        },
        {
          "indexed": true,
          "internalType": "enum SystemEnums.Domain",
          "name": "domain",
          "type": "uint8"
        },
        {
          "indexed": true,
          "internalType": "address",
          "name": "account",
          "type": "address"
        },
        {
          "indexed": false,
          "internalType": "int256",
          "name": "reputation",
          "type": "int256"
        }
      ],
      "name": "DomainRoleGranted",
      "type": "event"
    },
    {
      "anonymous": false,
      "inputs": [
        {
          "indexed": true,
          "internalType": "bytes32",
          "name": "role",
          "type": "bytes32"
        },
        {
          "indexed": true,
          "internalType": "enum SystemEnums.Domain",
          "name": "domain",
          "type": "uint8"
        },
        {
          "indexed": false,
          "internalType": "int256",
          "name": "oldRequirement",
          "type": "int256"
        },
        {
          "indexed": false,
          "internalType": "int256",
          "name": "newRequirement",
          "type": "int256"
        }
      ],
      "name": "DomainRoleRequirementUpdated",
      "type": "event"
    },
    {
      "anonymous": false,
      "inputs": [
        {
          "indexed": true,
          "internalType": "address",
          "name": "old_manager",
          "type": "address"
        },
        {
          "indexed": true,
          "internalType": "address",
          "name": "new_manager",
          "type": "address"
        }
      ],
      "name": "ReputationManagerUpdated",
      "type": "event"
    },
    {
      "anonymous": false,
      "inputs": [
        {
          "indexed": true,
          "internalType": "bytes32",
          "name": "role",
          "type": "bytes32"
        },
        {
          "indexed": true,
          "internalType": "bytes32",
          "name": "previousAdminRole",
          "type": "bytes32"
        },
        {
          "indexed": true,
          "internalType": "bytes32",
          "name": "newAdminRole",
          "type": "bytes32"
        }
      ],
      "name": "RoleAdminChanged",
      "type": "event"
    },
    {
      "anonymous": false,
      "inputs": [
        {
          "indexed": true,
          "internalType": "bytes32",
          "name": "role",
          "type": "bytes32"
        },
        {
          "indexed": true,
          "internalType": "address",
          "name": "account",
          "type": "address"
        },
        {
          "indexed": true,
          "internalType": "address",
          "name": "sender",
          "type": "address"
        }
      ],
      "name": "RoleGranted",
      "type": "event"
    },
    {
      "anonymous": false,
      "inputs": [
        {
          "indexed": true,
          "internalType": "bytes32",
          "name": "role",
          "type": "bytes32"
        },
        {
          "indexed": true,
          "internalType": "address",
          "name": "account",
          "type": "address"
        },
        {
          "indexed": false,
          "internalType": "int256",
          "name": "reputation",
          "type": "int256"
        }
      ],
      "name": "RoleGrantedWithReputation",
      "type": "event"
    },
    {
      "anonymous": false,
      "inputs": [
        {
          "indexed": true,
          "internalType": "bytes32",
          "name": "role",
          "type": "bytes32"
        },
        {
          "indexed": false,
          "internalType": "int256",
          "name": "oldRequirement",
          "type": "int256"
        },
        {
          "indexed": false,
          "internalType": "int256",
          "name": "newRequirement",
          "type": "int256"
        }
      ],
      "name": "RoleRequirementUpdated",
      "type": "event"
    },
    {
      "anonymous": false,
      "inputs": [
        {
          "indexed": true,
          "internalType": "bytes32",
          "name": "role",
          "type": "bytes32"
        },
        {
          "indexed": true,
          "internalType": "address",
          "name": "account",
          "type": "address"
        },
        {
          "indexed": true,
          "internalType": "address",
          "name": "sender",
          "type": "address"
        }
      ],
      "name": "RoleRevoked",
      "type": "event"
    },
    {
      "anonymous": false,
      "inputs": [
        {
          "indexed": true,
          "internalType": "bytes32",
          "name": "role",
          "type": "bytes32"
        },
        {
          "indexed": true,
          "internalType": "address",
          "name": "account",
          "type": "address"
        },
        {
          "indexed": false,
          "internalType": "int256",
          "name": "reputation",
          "type": "int256"
        }
      ],
      "name": "RoleRevokedDueToReputation",
      "type": "event"
    },
    {
      "inputs": [],
      "name": "CONTRIBUTOR_ROLE",
      "outputs": [
        {
          "internalType": "bytes32",
          "name": "",
          "type": "bytes32"
        }
      ],
      "stateMutability": "view",
      "type": "function"
    },
    {
      "inputs": [],
      "name": "DEFAULT_ADMIN_ROLE",
      "outputs": [
        {
          "internalType": "bytes32",
          "name": "",
          "type": "bytes32"
        }
      ],
      "stateMutability": "view",
      "type": "function"
    },
    {
      "inputs": [],
      "name": "EVALUATOR_ROLE",
      "outputs": [
        {
          "internalType": "bytes32",
          "name": "",
          "type": "bytes32"
        }
      ],
      "stateMutability": "view",
      "type": "function"
    },
    {
      "inputs": [],
      "name": "MODERATOR_ROLE",
      "outputs": [
        {
          "internalType": "bytes32",
          "name": "",
          "type": "bytes32"
        }
      ],
      "stateMutability": "view",
      "type": "function"
    },
    {
      "inputs": [
        {
          "internalType": "bytes32",
          "name": "role",
          "type": "bytes32"
        },
        {
          "internalType": "enum SystemEnums.Domain",
          "name": "domain",
          "type": "uint8"
        },
        {
          "internalType": "address",
          "name": "account",
          "type": "address"
        }
      ],
      "name": "canGrantRole",
      "outputs": [
        {
          "internalType": "bool",
          "name": "can_grant",
          "type": "bool"
        },
        {
          "internalType": "int256",
          "name": "current_reputation",
          "type": "int256"
        },
        {
          "internalType": "int256",
          "name": "required_reputation",
          "type": "int256"
        }
      ],
      "stateMutability": "view",
      "type": "function"
    },
    {
      "inputs": [
        {
          "internalType": "address",
          "name": "account",
          "type": "address"
        },
        {
          "internalType": "bytes32",
          "name": "role",
          "type": "bytes32"
        },
        {
          "internalType": "enum SystemEnums.Domain",
          "name": "domain",
          "type": "uint8"
        }
      ],
      "name": "checkAndGrantRole",
      "outputs": [
        {
          "internalType": "bool",
          "name": "granted",
          "type": "bool"
        }
      ],
      "stateMutability": "nonpayable",
      "type": "function"
    },
    {
      "inputs": [
        {
          "internalType": "address",
          "name": "account",
          "type": "address"
        },
        {
          "internalType": "bytes32",
          "name": "role",
          "type": "bytes32"
        },
        {
          "internalType": "enum SystemEnums.Domain",
          "name": "domain",
          "type": "uint8"
        }
      ],
      "name": "checkAndRevokeRole",
      "outputs": [],
      "stateMutability": "nonpayable",
      "type": "function"
    },
    {
      "inputs": [
        {
          "internalType": "bytes32",
          "name": "role",
          "type": "bytes32"
        },
        {
          "internalType": "enum SystemEnums.Domain",
          "name": "domain",
          "type": "uint8"
        },
        {
          "internalType": "address",
          "name": "account",
          "type": "address"
        }
      ],
      "name": "emergencyGrantRole",
      "outputs": [],
      "stateMutability": "nonpayable",
      "type": "function"
    },
    {
      "inputs": [
        {
          "internalType": "enum SystemEnums.Domain",
          "name": "domain",
          "type": "uint8"
        }
      ],
      "name": "getAllRoleRequirements",
      "outputs": [
        {
          "internalType": "int256",
          "name": "contributor_requirement",
          "type": "int256"
        },
        {
          "internalType": "int256",
          "name": "evaluator_requirement",
          "type": "int256"
        },
        {
          "internalType": "int256",
          "name": "moderator_requirement",
          "type": "int256"
        }
      ],
      "stateMutability": "view",
      "type": "function"
    },
    {
      "inputs": [
        {
          "internalType": "bytes32",
          "name": "role",
          "type": "bytes32"
        }
      ],
      "name": "getRoleAdmin",
      "outputs": [
        {
          "internalType": "bytes32",
          "name": "",
          "type": "bytes32"
        }
      ],
      "stateMutability": "view",
      "type": "function"
    },
    {
      "inputs": [
        {
          "internalType": "bytes32",
          "name": "role",
          "type": "bytes32"
        },
        {
          "internalType": "enum SystemEnums.Domain",
          "name": "domain",
          "type": "uint8"
        }
      ],
      "name": "getRoleRequirement",
      "outputs": [
        {
          "internalType": "int256",
          "name": "requirement",
          "type": "int256"
        }
      ],
      "stateMutability": "view",
      "type": "function"
    },
    {
      "inputs": [
        {
          "internalType": "address",
          "name": "account",
          "type": "address"
        },
        {
          "internalType": "enum SystemEnums.Domain",
          "name": "domain",
          "type": "uint8"
        }
      ],
      "name": "getUserDomainStatus",
      "outputs": [
        {
          "internalType": "int256",
          "name": "reputation",
          "type": "int256"
        },
        {
          "internalType": "bool",
          "name": "can_be_contributor",
          "type": "bool"
        },
        {
          "internalType": "bool",
          "name": "can_be_evaluator",
          "type": "bool"
        },
        {
          "internalType": "bool",
          "name": "can_be_moderator",
          "type": "bool"
        },
        {
          "internalType": "bool",
          "name": "is_contributor",
          "type": "bool"
        },
        {
          "internalType": "bool",
          "name": "is_evaluator",
          "type": "bool"
        },
        {
          "internalType": "bool",
          "name": "is_moderator",
          "type": "bool"
        }
      ],
      "stateMutability": "view",
      "type": "function"
    },
    {
      "inputs": [
        {
          "internalType": "bytes32",
          "name": "role",
          "type": "bytes32"
        },
        {
          "internalType": "address",
          "name": "account",
          "type": "address"
        }
      ],
      "name": "grantRole",
      "outputs": [],
      "stateMutability": "nonpayable",
      "type": "function"
    },
    {
      "inputs": [
        {
          "internalType": "bytes32",
          "name": "role",
          "type": "bytes32"
        },
        {
          "internalType": "address",
          "name": "account",
          "type": "address"
        }
      ],
      "name": "hasRole",
      "outputs": [
        {
          "internalType": "bool",
          "name": "",
          "type": "bool"
        }
      ],
      "stateMutability": "view",
      "type": "function"
    },
    {
      "inputs": [
        {
          "internalType": "address",
          "name": "account",
          "type": "address"
        }
      ],
      "name": "isAdmin",
      "outputs": [
        {
          "internalType": "bool",
          "name": "",
          "type": "bool"
        }
      ],
      "stateMutability": "view",
      "type": "function"
    },
    {
      "inputs": [
        {
          "internalType": "address",
          "name": "account",
          "type": "address"
        },
        {
          "internalType": "enum SystemEnums.Domain",
          "name": "domain",
          "type": "uint8"
        }
      ],
      "name": "isContributor",
      "outputs": [
        {
          "internalType": "bool",
          "name": "",
          "type": "bool"
        }
      ],
      "stateMutability": "view",
      "type": "function"
    },
    {
      "inputs": [
        {
          "internalType": "address",
          "name": "account",
          "type": "address"
        },
        {
          "internalType": "enum SystemEnums.Domain",
          "name": "domain",
          "type": "uint8"
        }
      ],
      "name": "isEvaluator",
      "outputs": [
        {
          "internalType": "bool",
          "name": "",
          "type": "bool"
        }
      ],
      "stateMutability": "view",
      "type": "function"
    },
    {
      "inputs": [
        {
          "internalType": "address",
          "name": "account",
          "type": "address"
        },
        {
          "internalType": "enum SystemEnums.Domain",
          "name": "domain",
          "type": "uint8"
        }
      ],
      "name": "isModerator",
      "outputs": [
        {
          "internalType": "bool",
          "name": "",
          "type": "bool"
        }
      ],
      "stateMutability": "view",
      "type": "function"
    },
    {
      "inputs": [
        {
          "internalType": "bytes32",
          "name": "role",
          "type": "bytes32"
        },
        {
          "internalType": "address",
          "name": "callerConfirmation",
          "type": "address"
        }
      ],
      "name": "renounceRole",
      "outputs": [],
      "stateMutability": "nonpayable",
      "type": "function"
    },
    {
      "inputs": [],
      "name": "reputation_manager",
      "outputs": [
        {
          "internalType": "contract IReputationManager",
          "name": "",
          "type": "address"
        }
      ],
      "stateMutability": "view",
      "type": "function"
    },
    {
      "inputs": [
        {
          "internalType": "bytes32",
          "name": "role",
          "type": "bytes32"
        },
        {
          "internalType": "enum SystemEnums.Domain",
          "name": "domain",
          "type": "uint8"
        }
      ],
      "name": "requestRole",
      "outputs": [],
      "stateMutability": "nonpayable",
      "type": "function"
    },
    {
      "inputs": [
        {
          "internalType": "bytes32",
          "name": "role",
          "type": "bytes32"
        },
        {
          "internalType": "address",
          "name": "account",
          "type": "address"
        }
      ],
      "name": "revokeRole",
      "outputs": [],
      "stateMutability": "nonpayable",
      "type": "function"
    },
    {
      "inputs": [
        {
          "internalType": "bytes32",
          "name": "",
          "type": "bytes32"
        },
        {
          "internalType": "enum SystemEnums.Domain",
          "name": "",
          "type": "uint8"
        }
      ],
      "name": "role_domain_reputation_requirements",
      "outputs": [
        {
          "internalType": "int256",
          "name": "",
          "type": "int256"
        }
      ],
      "stateMutability": "view",
      "type": "function"
    },
    {
      "inputs": [
        {
          "internalType": "address",
          "name": "_reputation_manager",
          "type": "address"
        }
      ],
      "name": "setReputationManagerAddress",
      "outputs": [],
      "stateMutability": "nonpayable",
      "type": "function"
    },
    {
      "inputs": [
        {
          "internalType": "address",
          "name": "account",
          "type": "address"
        },
        {
          "internalType": "bytes32",
          "name": "role",
          "type": "bytes32"
        },
        {
          "internalType": "enum SystemEnums.Domain",
          "name": "domain",
          "type": "uint8"
        }
      ],
      "name": "shouldRevokeRole",
      "outputs": [
        {
          "internalType": "bool",
          "name": "should_revoke",
          "type": "bool"
        }
      ],
      "stateMutability": "view",
      "type": "function"
    },
    {
      "inputs": [
        {
          "internalType": "bytes4",
          "name": "interfaceId",
          "type": "bytes4"
        }
      ],
      "name": "supportsInterface",
      "outputs": [
        {
          "internalType": "bool",
          "name": "",
          "type": "bool"
        }
      ],
      "stateMutability": "view",
      "type": "function"
    },
    {
      "inputs": [
        {
          "internalType": "bytes32",
          "name": "role",
          "type": "bytes32"
        },
        {
          "internalType": "enum SystemEnums.Domain",
          "name": "domain",
          "type": "uint8"
        },
        {
          "internalType": "int256",
          "name": "_new_requirement",
          "type": "int256"
        }
      ],
      "name": "updateRoleRequirement",
      "outputs": [],
      "stateMutability": "nonpayable",
      "type": "function"
    }
  ],
  "bytecode": "0x6080604052346100de5760005b600e8110156100c5578060c86100be600193604060007fe2889e7308860b3fe8df0daa86fccfea4d71e43776719a57be28cf90b6db81e9815260026020526032610058848484206100e3565b557f4848aa3d2c0568bab3ca9720f91818ee0957e95426fa0627cc4809e2e5ed8be081526002602052606461008f848484206100e3565b557f71f3d55856e4058ed06ee057d79ada615f65cdf5f9ee88181b914225088f834f81526002602052206100e3565b550161000c565b6100ce33610111565b5060405161152290816101a08239f35b600080fd5b90600e8110156100fb57600052602052604060002090565b634e487b7160e01b600052602160045260246000fd5b6001600160a01b03811660009081526000805160206116c2833981519152602052604090205460ff16610199576001600160a01b031660008181526000805160206116c283398151915260205260408120805460ff191660011790553391907f2f8788117e7eff1d82e926ec794901d17c78024a50270940304540a733656f0d8180a4600190565b5060009056fe608080604052600436101561001357600080fd5b60003560e01c90816301ffc9a714610c94575080630b05da3814610c6b57806316c806c614610ba8578063248a9ca314610b7357806324d7806c14610b115780632f2ff15d14610ad657806330d0ea3114610aad57806336568abe14610a675780633a83c66114610a355780633e126ebe14610759578063470ff5dd14610a055780635537630c1461098c57806368fd4ccd146107875780636ece14b114610759578063797669c9146107305780638a913fd114610712578063915bc5c81461063157806391d14854146105e457806393f7ea81146105c65780639601b48b146105945780639c83eefe1461049a578063a217fddf1461047e578063b669a8ad1461042e578063c361e8cf14610375578063d547741f1461032e578063e635491c146101765763eafb79e21461014857600080fd5b346101715760003660031901126101715760206040516000805160206114ad8339815191528152f35b600080fd5b346101715761018436610d79565b6001546001600160a01b03169161019c831515610ddf565b6000805160206114ad83398151915281148015610317575b8015610300575b6101c490610e86565b60206040518094630cf571c160e11b825281806101e5873360048401610e63565b03915afa9283156102f4576000936102bd575b50806000526002602052610210826040600020610dc7565b5483126102785761022a336102258484611460565b6112a2565b50600e821015610262576040519283527f5923c210a5458f4a3c05964fb8002137ef7657fc2950c4e4ba5b7d72b9fc17f660203394a4005b634e487b7160e01b600052602160045260246000fd5b60405162461bcd60e51b815260206004820152601d60248201527f496e73756666696369656e742072657075746174696f6e2073636f72650000006044820152606490fd5b90926020823d6020116102ec575b816102d860209383610e2b565b810103126102e957505191836101f8565b80fd5b3d91506102cb565b6040513d6000823e3d90fd5b506000805160206114cd83398151915281146101bb565b5060008051602061148d83398151915281146101b4565b346101715760403660031901126101715761037360043561034d610cfd565b9061036e61036982600052600060205260016040600020015490565b611267565b61132d565b005b346101715760203660031901126101715761038e610ce7565b610396611214565b6001600160a01b031680156103e957600180546001600160a01b0319811683179091556001600160a01b03167f2b6c121197ae3f65cdc980fcd16585027e5bdb688bd312fc044da5c0eb5ebb94600080a3005b60405162461bcd60e51b815260206004820152601a60248201527f496e76616c69642072657075746174696f6e206d616e616765720000000000006044820152606490fd5b3461017157602061047461044c61044436610d98565b9190916113ee565b600052600060205260406000209060018060a01b031660005260205260ff6040600020541690565b6040519015158152f35b3461017157600036600319011261017157602060405160008152f35b3461017157602036600319011261017157600435600e811015610171576000805160206114ad83398151915260005260026020526060906104fb817fd1a218b4c0e25e08850b7d5ebfa950641867cddd37c1d08e62803a94a8b5e943610dc7565b5460008051602061148d833981519152600052600260205290610580610541827f55a70f5a6fe08ecb6334559b4af3437347c745d84a90e117f662047173535d7b610dc7565b546000805160206114cd8339815191526000526002602052917fb1ef985877d50d34e95c2aaf1c996731c63181754cd1cb73eef00b96d479196e610dc7565b549060405192835260208301526040820152f35b346101715760206104746105a736610d46565b6001549092906105c1906001600160a01b03161515610ddf565b611162565b3461017157602061047461044c6105dc36610d98565b919091611427565b34610171576040366003190112610171576105fd610cfd565b600435600052600060205260406000209060018060a01b0316600052602052602060ff604060002054166040519015158152f35b3461017157606036600319011261017157602435600435600e821015610171577ffce0894225a257b672c8e2929d8f5716bec8014a4c35fe0bde014be142e756e8604060443561067f611214565b6000805160206114ad833981519152841480156106fb575b80156106e4575b6106a790610e86565b8360005260026020526106bd8583600020610dc7565b5490846000526002602052806106d68785600020610dc7565b5582519182526020820152a3005b506000805160206114cd833981519152841461069e565b5060008051602061148d8339815191528414610697565b3461017157602061047461044c61072836610d98565b9190916113af565b346101715760003660031901126101715760206040516000805160206114cd8339815191528152f35b3461017157602061077e61076c36610d79565b90600052600283526040600020610dc7565b54604051908152f35b346101715761079536610d98565b6001546001600160a01b031691906107ae831515610ddf565b60206040518094630cf571c160e11b825281806107cf868860048401610e63565b03915afa9182156102f457600092610952575b6000805160206114ad833981519152600052600260205260e09350610827827fd1a218b4c0e25e08850b7d5ebfa950641867cddd37c1d08e62803a94a8b5e943610dc7565b5460008051602061148d83398151915260005260026020528312159161086d817f55a70f5a6fe08ecb6334559b4af3437347c745d84a90e117f662047173535d7b610dc7565b546000805160206114cd83398151915260005260026020528412156108b2827fb1ef985877d50d34e95c2aaf1c996731c63181754cd1cb73eef00b96d479196e610dc7565b54851215906108c0836113af565b936108d36108cd856113ee565b94611427565b6000958652602086815260408088206001600160a01b0394909416808952938252808820549688528782528088208489528252808820549288528782528088209388529281529582902054825198895295880196909652860152606085015260ff90811615156080850152918216151560a084015216151560c0820152f35b91926020813d602011610984575b8161096d60209383610e2b565b810103126109805760e0935051916107e2565b8380fd5b3d9150610960565b34610171576103736102256109a036610d13565b92916109aa611214565b6000805160206114ad833981519152811480156109ee575b80156109d7575b6109d290610e86565b611460565b506000805160206114cd83398151915281146109c9565b5060008051602061148d83398151915281146109c2565b3461017157610373610a1636610d46565b600154909290610a30906001600160a01b03161515610ddf565b611047565b34610171576020610474610a4836610d46565b600154909290610a62906001600160a01b03161515610ddf565b610ec1565b3461017157604036600319011261017157610a80610cfd565b336001600160a01b03821603610a9c576103739060043561132d565b63334bd91960e11b60005260046000fd5b3461017157600036600319011261017157602060405160008051602061148d8339815191528152f35b3461017157604036600319011261017157610373600435610af5610cfd565b9061022561036982600052600060205260016040600020015490565b3461017157602036600319011261017157610b2a610ce7565b6001600160a01b031660009081527fad3228b676f7d3cd4284a5443f17f1962b36e491b30a40b2405849e597ba5fb5602090815260409182902054915160ff9092161515825290f35b34610171576020366003190112610171576020610ba0600435600052600060205260016040600020015490565b604051908152f35b34610171576020610bf2610bbb36610d13565b9080949160018060a01b036001541690610bd6821515610ddf565b604051809681948293630cf571c160e11b845260048401610e63565b03915afa9182156102f457600092610c36575b50606092610c1f9160005260026020526040600020610dc7565b546040519181811215835260208301526040820152f35b90916020823d602011610c63575b81610c5160209383610e2b565b810103126102e9575051906060610c05565b3d9150610c44565b34610171576000366003190112610171576001546040516001600160a01b039091168152602090f35b34610171576020366003190112610171576004359063ffffffff60e01b821680920361017157602091637965db0b60e01b8114908115610cd6575b5015158152f35b6301ffc9a760e01b14905083610ccf565b600435906001600160a01b038216820361017157565b602435906001600160a01b038216820361017157565b60609060031901126101715760043590602435600e81101561017157906044356001600160a01b03811681036101715790565b6060906003190112610171576004356001600160a01b0381168103610171579060243590604435600e8110156101715790565b60409060031901126101715760043590602435600e8110156101715790565b6040906003190112610171576004356001600160a01b03811681036101715790602435600e8110156101715790565b90600e81101561026257600052602052604060002090565b15610de657565b60405162461bcd60e51b815260206004820152601a60248201527f52657075746174696f6e206d616e61676572206e6f74207365740000000000006044820152606490fd5b90601f8019910116810190811067ffffffffffffffff821117610e4d57604052565b634e487b7160e01b600052604160045260246000fd5b6001600160a01b03909116815260408101929190600e8210156102625760200152565b15610e8d57565b60405162461bcd60e51b815260206004820152600c60248201526b496e76616c696420726f6c6560a01b6044820152606490fd5b9190610ecd8282611460565b92836000526000602052604060002060018060a01b03821660005260205260ff6040600020541661103e576000805160206114ad83398151915282148015611027575b8015611010575b610f2090610e86565b600154604051630cf571c160e11b8152949060209086906001600160a01b03168180610f50898860048401610e63565b03915afa9485156102f457600095610fdc575b50826000526002602052610f7b846040600020610dc7565b54851215610f8d575050505050600090565b81610f97916112a2565b50600e831015610262576040519384526001600160a01b0316927f5923c210a5458f4a3c05964fb8002137ef7657fc2950c4e4ba5b7d72b9fc17f690602090a4600190565b90946020823d602011611008575b81610ff760209383610e2b565b810103126102e95750519338610f63565b3d9150610fea565b506000805160206114cd8339815191528214610f17565b5060008051602061148d8339815191528214610f10565b50505050600090565b6110518383611460565b6000818152602081815260408083206001600160a01b038616845290915290205460ff16156110dd57600154604051630cf571c160e11b8152949060209086906001600160a01b031681806110aa868960048401610e63565b03915afa9485156102f45760009561112c575b506110d5908460005260026020526040600020610dc7565b5484126110e3575b50505050565b816111117f68f017765e3d04b5e5a3babd5b094ebfb68cc89a8d1f56247a0a05ca50223c059360209361132d565b506040519485526001600160a01b031693a3388080806110dd565b90946020823d60201161115a575b8161114760209383610e2b565b810103126102e9575051936110d56110bd565b3d915061113a565b90916111728261044c8386611460565b1561120c576020816111a69360018060a01b036001541690604051809681948293630cf571c160e11b845260048401610e63565b03915afa9182156102f4576000926111d6575b506111d1919260005260026020526040600020610dc7565b541390565b91506020823d602011611204575b816111f160209383610e2b565b81010312610171576111d19151916111b9565b3d91506111e4565b505050600090565b3360009081527fad3228b676f7d3cd4284a5443f17f1962b36e491b30a40b2405849e597ba5fb5602052604090205460ff161561124d57565b63e2517d3f60e01b60005233600452600060245260446000fd5b60008181526020818152604080832033845290915290205460ff161561128a5750565b63e2517d3f60e01b6000523360045260245260446000fd5b6000818152602081815260408083206001600160a01b038616845290915290205460ff16611326576000818152602081815260408083206001600160a01b0395909516808452949091528120805460ff19166001179055339291907f2f8788117e7eff1d82e926ec794901d17c78024a50270940304540a733656f0d9080a4600190565b5050600090565b6000818152602081815260408083206001600160a01b038616845290915290205460ff1615611326576000818152602081815260408083206001600160a01b0395909516808452949091528120805460ff19169055339291907ff6391f5c32d9c69d2a47ea670b442974b53935d1edc7fd64eb21e047a839171b9080a4600190565b60405160208101916000805160206114ad8339815191528352600e8110156102625760f81b6040820152602181526113e8604182610e2b565b51902090565b604051602081019160008051602061148d8339815191528352600e8110156102625760f81b6040820152602181526113e8604182610e2b565b60405160208101916000805160206114cd8339815191528352600e8110156102625760f81b6040820152602181526113e8604182610e2b565b906040519060208201928352600e8110156102625760f81b6040820152602181526113e8604182610e2b56fe4848aa3d2c0568bab3ca9720f91818ee0957e95426fa0627cc4809e2e5ed8be0e2889e7308860b3fe8df0daa86fccfea4d71e43776719a57be28cf90b6db81e971f3d55856e4058ed06ee057d79ada615f65cdf5f9ee88181b914225088f834fa264697066735822122011728868cbe23a500302c605066d1487890b5256d66050f7e0297103d462f0a064736f6c634300081a0033ad3228b676f7d3cd4284a5443f17f1962b36e491b30a40b2405849e597ba5fb5",
  "linkReferences": {},
  "deployedLinkReferences": {}
}