{
  "_format": "hh-sol-artifact-1",
  "contractName": "RecruitmentFeeFormulas",
  "sourceName": "contracts/Formulas.sol",
  "abi": [
    {
      "inputs": [
        {
          "internalType": "uint256",
          "name": "x",
          "type": "uint256"
        },
        {
          "internalType": "uint256",
          "name": "y",
          "type": "uint256"
        }
      ],
      "name": "PRBMath_MulDiv18_Overflow",
      "type": "error"
    },
    {
      "inputs": [
        {
          "internalType": "UD60x18",
          "name": "x",
          "type": "uint256"
        }
      ],
      "name": "PRBMath_UD60x18_Log_InputTooSmall",
      "type": "error"
    },
    {
      "inputs": [
        {
          "internalType": "uint256",
          "name": "reputation",
          "type": "uint256"
        }
      ],
      "name": "calculateRecruitmentFee",
      "outputs": [
        {
          "internalType": "uint256",
          "name": "",
          "type": "uint256"
        }
      ],
      "stateMutability": "pure",
      "type": "function"
    }
  ],
  "bytecode": "0x60808060405234601957610374908161001f823930815050f35b600080fdfe6080604052600436101561001257600080fd5b60003560e01c638db2a9ba1461002757600080fd5b60203660031901126100d757600435670de0b6b3a7640000810290808204670de0b6b3a764000014901517156100c157670de0b6b3a76400000180670de0b6b3a7640000116100c1576714057b7ef767814f670de0b6b3a764000061008e610095936100dc565b02046101e4565b670de0b6b3a76400000180670de0b6b3a7640000116100c1576100b9602091610299565b604051908152f35b634e487b7160e01b600052601160045260246000fd5b600080fd5b670de0b6b3a764000081106101d057670de0b6b3a764000081046fffffffffffffffffffffffffffffffff811160071b90811c67ffffffffffffffff811160061b90811c63ffffffff811160051b90811c61ffff811160041b90811c9060ff821160031b91821c92600f841160021b93841c94600160038711811b96871c11961717171717171790670de0b6b3a76400008202911c670de0b6b3a764000081146101cc576706f05b59d3b2000090815b61019557505090565b80670de0b6b3a764000091020490671bc16d674ec800008210156101be575b60011c908161018c565b809192019160011c906101b4565b5090565b63036d32ef60e41b60005260045260246000fd5b90600019826702c68af0bb14000009826702c68af0bb140000029081808210910390808203911461028957670de0b6b3a764000081101561026857670de0b6b3a76400007faccb18165bd6fe31ae1cf318dc5b51eee0e1ba569b88cd74c1773b91fac1066993946702c68af0bb1400000990828211900360ee1b910360121c170290565b83635173648d60e01b6000526702c68af0bb14000060045260245260446000fd5b50670de0b6b3a764000090049150565b906000198267016345785d8a0000098267016345785d8a0000029081808210910390808203911461028957670de0b6b3a764000081101561031d57670de0b6b3a76400007faccb18165bd6fe31ae1cf318dc5b51eee0e1ba569b88cd74c1773b91fac10669939467016345785d8a00000990828211900360ee1b910360121c170290565b83635173648d60e01b60005267016345785d8a000060045260245260446000fdfea26469706673582212204b9928839a7b336b22e7e7723300a1966566190e65dec52ae063b7769a5f24e164736f6c634300081a0033",
  "linkReferences": {},
  "deployedLinkReferences": {}
}