{
  "_format": "hh-sol-artifact-1",
  "contractName": "ChallengeManager",
  "sourceName": "contracts/ChallengeManager.sol",
  "abi": [
    {
      "anonymous": false,
      "inputs": [
        {
          "indexed": true,
          "internalType": "address",
          "name": "contributor",
          "type": "address"
        },
        {
          "indexed": false,
          "internalType": "string",
          "name": "title_url",
          "type": "string"
        },
        {
          "indexed": false,
          "internalType": "string",
          "name": "description_url",
          "type": "string"
        },
        {
          "indexed": false,
          "internalType": "enum ChallengeManager.Domain",
          "name": "category",
          "type": "uint8"
        },
        {
          "indexed": false,
          "internalType": "uint256",
          "name": "contribute_at",
          "type": "uint256"
        }
      ],
      "name": "ChallengeContributed",
      "type": "event"
    },
    {
      "anonymous": false,
      "inputs": [
        {
          "indexed": true,
          "internalType": "uint256",
          "name": "challengeId",
          "type": "uint256"
        },
        {
          "indexed": false,
          "internalType": "enum ChallengeManager.ChallengeStatus",
          "name": "status",
          "type": "uint8"
        },
        {
          "indexed": false,
          "internalType": "uint256",
          "name": "averagePercent",
          "type": "uint256"
        }
      ],
      "name": "ChallengeFinalized",
      "type": "event"
    },
    {
      "anonymous": false,
      "inputs": [
        {
          "indexed": true,
          "internalType": "address",
          "name": "user",
          "type": "address"
        },
        {
          "indexed": false,
          "internalType": "uint256",
          "name": "challengeId",
          "type": "uint256"
        },
        {
          "indexed": false,
          "internalType": "uint256",
          "name": "joinedAt",
          "type": "uint256"
        }
      ],
      "name": "ChallengeJoinedByUser",
      "type": "event"
    },
    {
      "anonymous": false,
      "inputs": [
        {
          "indexed": true,
          "internalType": "uint256",
          "name": "challenge_id",
          "type": "uint256"
        },
        {
          "indexed": true,
          "internalType": "address",
          "name": "moderator",
          "type": "address"
        }
      ],
      "name": "ReviewPoolJoined",
      "type": "event"
    },
    {
      "anonymous": false,
      "inputs": [
        {
          "indexed": true,
          "internalType": "address",
          "name": "user",
          "type": "address"
        },
        {
          "indexed": false,
          "internalType": "uint256",
          "name": "challengeId",
          "type": "uint256"
        },
        {
          "indexed": false,
          "internalType": "string",
          "name": "solutionUrl",
          "type": "string"
        },
        {
          "indexed": false,
          "internalType": "uint256",
          "name": "submittedAt",
          "type": "uint256"
        }
      ],
      "name": "SolutionSubmitted",
      "type": "event"
    },
    {
      "inputs": [],
      "name": "MAX_DIFFICULTY_LEVEL",
      "outputs": [
        {
          "internalType": "uint256",
          "name": "",
          "type": "uint256"
        }
      ],
      "stateMutability": "view",
      "type": "function"
    },
    {
      "inputs": [],
      "name": "MAX_DOMAIN",
      "outputs": [
        {
          "internalType": "uint256",
          "name": "",
          "type": "uint256"
        }
      ],
      "stateMutability": "view",
      "type": "function"
    },
    {
      "inputs": [],
      "name": "NUMBER_OF_QUALITY_FACTORS",
      "outputs": [
        {
          "internalType": "uint256",
          "name": "",
          "type": "uint256"
        }
      ],
      "stateMutability": "view",
      "type": "function"
    },
    {
      "inputs": [],
      "name": "REVIEW_QUORUM",
      "outputs": [
        {
          "internalType": "uint256",
          "name": "",
          "type": "uint256"
        }
      ],
      "stateMutability": "view",
      "type": "function"
    },
    {
      "inputs": [],
      "name": "REVIEW_THRESHOLD",
      "outputs": [
        {
          "internalType": "uint256",
          "name": "",
          "type": "uint256"
        }
      ],
      "stateMutability": "view",
      "type": "function"
    },
    {
      "inputs": [],
      "name": "approved_challenges",
      "outputs": [
        {
          "internalType": "uint256",
          "name": "",
          "type": "uint256"
        }
      ],
      "stateMutability": "view",
      "type": "function"
    },
    {
      "inputs": [
        {
          "internalType": "string",
          "name": "_title_url",
          "type": "string"
        },
        {
          "internalType": "string",
          "name": "_description_url",
          "type": "string"
        },
        {
          "internalType": "enum ChallengeManager.Domain",
          "name": "_category",
          "type": "uint8"
        },
        {
          "internalType": "uint256",
          "name": "_contribute_at",
          "type": "uint256"
        }
      ],
      "name": "contributeChallenge",
      "outputs": [],
      "stateMutability": "nonpayable",
      "type": "function"
    },
    {
      "inputs": [],
      "name": "getApprovedChallenges",
      "outputs": [
        {
          "components": [
            {
              "internalType": "uint256",
              "name": "id",
              "type": "uint256"
            },
            {
              "internalType": "address",
              "name": "contributor",
              "type": "address"
            },
            {
              "internalType": "string",
              "name": "title_url",
              "type": "string"
            },
            {
              "internalType": "string",
              "name": "description_url",
              "type": "string"
            },
            {
              "internalType": "enum ChallengeManager.Domain",
              "name": "category",
              "type": "uint8"
            },
            {
              "internalType": "uint256",
              "name": "contribute_at",
              "type": "uint256"
            },
            {
              "internalType": "enum ChallengeManager.ChallengeStatus",
              "name": "status",
              "type": "uint8"
            },
            {
              "internalType": "uint256",
              "name": "quality_score",
              "type": "uint256"
            },
            {
              "internalType": "enum ChallengeManager.DifficultyLevel",
              "name": "difficulty_level",
              "type": "uint8"
            },
            {
              "internalType": "uint256",
              "name": "solve_time",
              "type": "uint256"
            }
          ],
          "internalType": "struct ChallengeManager.Challenge[]",
          "name": "",
          "type": "tuple[]"
        }
      ],
      "stateMutability": "view",
      "type": "function"
    },
    {
      "inputs": [
        {
          "internalType": "uint256",
          "name": "_challenge_id",
          "type": "uint256"
        }
      ],
      "name": "getChallengeById",
      "outputs": [
        {
          "components": [
            {
              "internalType": "uint256",
              "name": "id",
              "type": "uint256"
            },
            {
              "internalType": "address",
              "name": "contributor",
              "type": "address"
            },
            {
              "internalType": "string",
              "name": "title_url",
              "type": "string"
            },
            {
              "internalType": "string",
              "name": "description_url",
              "type": "string"
            },
            {
              "internalType": "enum ChallengeManager.Domain",
              "name": "category",
              "type": "uint8"
            },
            {
              "internalType": "uint256",
              "name": "contribute_at",
              "type": "uint256"
            },
            {
              "internalType": "enum ChallengeManager.ChallengeStatus",
              "name": "status",
              "type": "uint8"
            },
            {
              "internalType": "uint256",
              "name": "quality_score",
              "type": "uint256"
            },
            {
              "internalType": "enum ChallengeManager.DifficultyLevel",
              "name": "difficulty_level",
              "type": "uint8"
            },
            {
              "internalType": "uint256",
              "name": "solve_time",
              "type": "uint256"
            }
          ],
          "internalType": "struct ChallengeManager.Challenge",
          "name": "",
          "type": "tuple"
        }
      ],
      "stateMutability": "view",
      "type": "function"
    },
    {
      "inputs": [
        {
          "internalType": "uint256",
          "name": "_challenge_id",
          "type": "uint256"
        }
      ],
      "name": "getChallengeFinalizedStatus",
      "outputs": [
        {
          "internalType": "bool",
          "name": "",
          "type": "bool"
        }
      ],
      "stateMutability": "view",
      "type": "function"
    },
    {
      "inputs": [
        {
          "internalType": "address",
          "name": "_contributor_address",
          "type": "address"
        }
      ],
      "name": "getChallengesByContributor",
      "outputs": [
        {
          "components": [
            {
              "internalType": "uint256",
              "name": "id",
              "type": "uint256"
            },
            {
              "internalType": "address",
              "name": "contributor",
              "type": "address"
            },
            {
              "internalType": "string",
              "name": "title_url",
              "type": "string"
            },
            {
              "internalType": "string",
              "name": "description_url",
              "type": "string"
            },
            {
              "internalType": "enum ChallengeManager.Domain",
              "name": "category",
              "type": "uint8"
            },
            {
              "internalType": "uint256",
              "name": "contribute_at",
              "type": "uint256"
            },
            {
              "internalType": "enum ChallengeManager.ChallengeStatus",
              "name": "status",
              "type": "uint8"
            },
            {
              "internalType": "uint256",
              "name": "quality_score",
              "type": "uint256"
            },
            {
              "internalType": "enum ChallengeManager.DifficultyLevel",
              "name": "difficulty_level",
              "type": "uint8"
            },
            {
              "internalType": "uint256",
              "name": "solve_time",
              "type": "uint256"
            }
          ],
          "internalType": "struct ChallengeManager.Challenge[]",
          "name": "",
          "type": "tuple[]"
        }
      ],
      "stateMutability": "view",
      "type": "function"
    },
    {
      "inputs": [
        {
          "internalType": "address",
          "name": "_moderator_address",
          "type": "address"
        }
      ],
      "name": "getChallengesByModerator",
      "outputs": [
        {
          "components": [
            {
              "internalType": "uint256",
              "name": "id",
              "type": "uint256"
            },
            {
              "internalType": "address",
              "name": "contributor",
              "type": "address"
            },
            {
              "internalType": "string",
              "name": "title_url",
              "type": "string"
            },
            {
              "internalType": "string",
              "name": "description_url",
              "type": "string"
            },
            {
              "internalType": "enum ChallengeManager.Domain",
              "name": "category",
              "type": "uint8"
            },
            {
              "internalType": "uint256",
              "name": "contribute_at",
              "type": "uint256"
            },
            {
              "internalType": "enum ChallengeManager.ChallengeStatus",
              "name": "status",
              "type": "uint8"
            },
            {
              "internalType": "uint256",
              "name": "quality_score",
              "type": "uint256"
            },
            {
              "internalType": "enum ChallengeManager.DifficultyLevel",
              "name": "difficulty_level",
              "type": "uint8"
            },
            {
              "internalType": "uint256",
              "name": "solve_time",
              "type": "uint256"
            }
          ],
          "internalType": "struct ChallengeManager.Challenge[]",
          "name": "",
          "type": "tuple[]"
        }
      ],
      "stateMutability": "view",
      "type": "function"
    },
    {
      "inputs": [
        {
          "internalType": "uint256",
          "name": "_challenge_id",
          "type": "uint256"
        },
        {
          "internalType": "address",
          "name": "_moderator_address",
          "type": "address"
        }
      ],
      "name": "getJoinReviewPoolStatus",
      "outputs": [
        {
          "internalType": "bool",
          "name": "",
          "type": "bool"
        }
      ],
      "stateMutability": "view",
      "type": "function"
    },
    {
      "inputs": [
        {
          "internalType": "address",
          "name": "_user_address",
          "type": "address"
        },
        {
          "internalType": "address",
          "name": "_solution_address",
          "type": "address"
        }
      ],
      "name": "getJoinedChallengesByUserForPreview",
      "outputs": [
        {
          "components": [
            {
              "internalType": "uint256",
              "name": "challenge_id",
              "type": "uint256"
            },
            {
              "internalType": "string",
              "name": "title_url",
              "type": "string"
            },
            {
              "internalType": "string",
              "name": "description_url",
              "type": "string"
            },
            {
              "internalType": "enum ChallengeManager.Domain",
              "name": "domain",
              "type": "uint8"
            },
            {
              "internalType": "enum SolutionProgress",
              "name": "progress",
              "type": "uint8"
            },
            {
              "internalType": "uint256",
              "name": "joined_at",
              "type": "uint256"
            },
            {
              "internalType": "uint256",
              "name": "score",
              "type": "uint256"
            }
          ],
          "internalType": "struct ChallengeManager.JoinedChallengesPreview[]",
          "name": "",
          "type": "tuple[]"
        }
      ],
      "stateMutability": "view",
      "type": "function"
    },
    {
      "inputs": [
        {
          "internalType": "uint256",
          "name": "challenge_id",
          "type": "uint256"
        },
        {
          "internalType": "address",
          "name": "_moderator_address",
          "type": "address"
        }
      ],
      "name": "getModeratorReviewOfChallenge",
      "outputs": [
        {
          "components": [
            {
              "internalType": "address",
              "name": "moderator",
              "type": "address"
            },
            {
              "internalType": "uint256",
              "name": "challenge_id",
              "type": "uint256"
            },
            {
              "internalType": "uint256",
              "name": "review_time",
              "type": "uint256"
            },
            {
              "internalType": "enum ChallengeManager.QualityFactorAnswer",
              "name": "relevance",
              "type": "uint8"
            },
            {
              "internalType": "enum ChallengeManager.QualityFactorAnswer",
              "name": "technical_correctness",
              "type": "uint8"
            },
            {
              "internalType": "enum ChallengeManager.QualityFactorAnswer",
              "name": "completeness",
              "type": "uint8"
            },
            {
              "internalType": "enum ChallengeManager.QualityFactorAnswer",
              "name": "clarity",
              "type": "uint8"
            },
            {
              "internalType": "enum ChallengeManager.QualityFactorAnswer",
              "name": "originality",
              "type": "uint8"
            },
            {
              "internalType": "enum ChallengeManager.QualityFactorAnswer",
              "name": "unbiased",
              "type": "uint8"
            },
            {
              "internalType": "enum ChallengeManager.QualityFactorAnswer",
              "name": "plagiarism_free",
              "type": "uint8"
            },
            {
              "internalType": "enum ChallengeManager.DifficultyLevel",
              "name": "suggested_difficulty",
              "type": "uint8"
            },
            {
              "internalType": "enum ChallengeManager.Domain",
              "name": "suggested_category",
              "type": "uint8"
            },
            {
              "internalType": "uint256",
              "name": "suggested_solve_time",
              "type": "uint256"
            }
          ],
          "internalType": "struct ChallengeManager.ModeratorReview",
          "name": "",
          "type": "tuple"
        }
      ],
      "stateMutability": "view",
      "type": "function"
    },
    {
      "inputs": [],
      "name": "getPendingChallenges",
      "outputs": [
        {
          "components": [
            {
              "internalType": "uint256",
              "name": "id",
              "type": "uint256"
            },
            {
              "internalType": "address",
              "name": "contributor",
              "type": "address"
            },
            {
              "internalType": "string",
              "name": "title_url",
              "type": "string"
            },
            {
              "internalType": "string",
              "name": "description_url",
              "type": "string"
            },
            {
              "internalType": "enum ChallengeManager.Domain",
              "name": "category",
              "type": "uint8"
            },
            {
              "internalType": "uint256",
              "name": "contribute_at",
              "type": "uint256"
            },
            {
              "internalType": "enum ChallengeManager.ChallengeStatus",
              "name": "status",
              "type": "uint8"
            },
            {
              "internalType": "uint256",
              "name": "quality_score",
              "type": "uint256"
            },
            {
              "internalType": "enum ChallengeManager.DifficultyLevel",
              "name": "difficulty_level",
              "type": "uint8"
            },
            {
              "internalType": "uint256",
              "name": "solve_time",
              "type": "uint256"
            }
          ],
          "internalType": "struct ChallengeManager.Challenge[]",
          "name": "",
          "type": "tuple[]"
        }
      ],
      "stateMutability": "view",
      "type": "function"
    },
    {
      "inputs": [
        {
          "internalType": "uint256",
          "name": "_challenge_id",
          "type": "uint256"
        }
      ],
      "name": "getReviewPoolSize",
      "outputs": [
        {
          "internalType": "uint256",
          "name": "",
          "type": "uint256"
        }
      ],
      "stateMutability": "view",
      "type": "function"
    },
    {
      "inputs": [],
      "name": "getReviewQuorum",
      "outputs": [
        {
          "internalType": "uint256",
          "name": "",
          "type": "uint256"
        }
      ],
      "stateMutability": "pure",
      "type": "function"
    },
    {
      "inputs": [
        {
          "internalType": "uint256",
          "name": "_challenge_id",
          "type": "uint256"
        }
      ],
      "name": "joinReviewPool",
      "outputs": [],
      "stateMutability": "nonpayable",
      "type": "function"
    },
    {
      "inputs": [],
      "name": "pending_challenges",
      "outputs": [
        {
          "internalType": "uint256",
          "name": "",
          "type": "uint256"
        }
      ],
      "stateMutability": "view",
      "type": "function"
    },
    {
      "inputs": [
        {
          "internalType": "address",
          "name": "_contributor",
          "type": "address"
        },
        {
          "internalType": "string",
          "name": "_title_url",
          "type": "string"
        },
        {
          "internalType": "string",
          "name": "_description_url",
          "type": "string"
        },
        {
          "internalType": "enum ChallengeManager.Domain",
          "name": "_category",
          "type": "uint8"
        },
        {
          "internalType": "uint256",
          "name": "_contribute_at",
          "type": "uint256"
        },
        {
          "internalType": "enum ChallengeManager.ChallengeStatus",
          "name": "_status",
          "type": "uint8"
        },
        {
          "internalType": "uint256",
          "name": "_quality_score",
          "type": "uint256"
        },
        {
          "internalType": "enum ChallengeManager.DifficultyLevel",
          "name": "_difficulty_level",
          "type": "uint8"
        },
        {
          "internalType": "uint256",
          "name": "_solve_time",
          "type": "uint256"
        }
      ],
      "name": "seedChallenge",
      "outputs": [],
      "stateMutability": "nonpayable",
      "type": "function"
    },
    {
      "inputs": [
        {
          "internalType": "uint256",
          "name": "_challenge_id",
          "type": "uint256"
        },
        {
          "internalType": "enum ChallengeManager.QualityFactorAnswer",
          "name": "_relevance",
          "type": "uint8"
        },
        {
          "internalType": "enum ChallengeManager.QualityFactorAnswer",
          "name": "_technical_correctness",
          "type": "uint8"
        },
        {
          "internalType": "enum ChallengeManager.QualityFactorAnswer",
          "name": "_completeness",
          "type": "uint8"
        },
        {
          "internalType": "enum ChallengeManager.QualityFactorAnswer",
          "name": "_clarity",
          "type": "uint8"
        },
        {
          "internalType": "enum ChallengeManager.QualityFactorAnswer",
          "name": "_originality",
          "type": "uint8"
        },
        {
          "internalType": "enum ChallengeManager.QualityFactorAnswer",
          "name": "_unbiased",
          "type": "uint8"
        },
        {
          "internalType": "enum ChallengeManager.QualityFactorAnswer",
          "name": "_plagiarism_free",
          "type": "uint8"
        },
        {
          "internalType": "enum ChallengeManager.DifficultyLevel",
          "name": "_suggested_difficulty",
          "type": "uint8"
        },
        {
          "internalType": "enum ChallengeManager.Domain",
          "name": "_suggested_category",
          "type": "uint8"
        },
        {
          "internalType": "uint256",
          "name": "_suggested_solve_time",
          "type": "uint256"
        }
      ],
      "name": "submitModeratorReview",
      "outputs": [],
      "stateMutability": "nonpayable",
      "type": "function"
    },
    {
      "inputs": [],
      "name": "total_challenges",
      "outputs": [
        {
          "internalType": "uint256",
          "name": "",
          "type": "uint256"
        }
      ],
      "stateMutability": "view",
      "type": "function"
    },
    {
      "inputs": [
        {
          "internalType": "address",
          "name": "_user_address",
          "type": "address"
        },
        {
          "internalType": "uint256",
          "name": "_challenge_id",
          "type": "uint256"
        },
        {
          "internalType": "address",
          "name": "_solution_address",
          "type": "address"
        }
      ],
      "name": "userJoinChallenge",
      "outputs": [],
      "stateMutability": "nonpayable",
      "type": "function"
    }
  ],
  "bytecode": "0x6080604052600060065560006007556000600855348015601e57600080fd5b50615aae8061002e6000396000f3fe608060405234801561001057600080fd5b50600436106101585760003560e01c80638a87a7a0116100c3578063c80191b81161007c578063c80191b8146103c9578063cd6e5661146103f9578063dd0e12ca14610429578063e94a783014610447578063e9d04f7114610477578063f83eb2751461049557610158565b80638a87a7a0146102f357806392376e131461030f578063955b67241461033f578063a22b6a861461035d578063a821a0671461037b578063be21f20c146103ab57610158565b80635a14c944116101155780635a14c944146102335780635d880de91461024f5780635d9db5c41461026d578063616e2e56146102895780636bf8eaf2146102b95780638758aabb146102d757610158565b80630f3356031461015d5780632b3669961461018d57806345637d8f146101ab57806349a25e6d146101c75780634c7b5a8e146101e55780635057494a14610203575b600080fd5b61017760048036038101906101729190613fd0565b6104b3565b6040516101849190614240565b60405180910390f35b6101956107cc565b6040516101a2919061426b565b60405180910390f35b6101c560048036038101906101c0919061435a565b6107d2565b005b6101cf610c76565b6040516101dc919061426b565b60405180910390f35b6101ed610c7b565b6040516101fa919061426b565b60405180910390f35b61021d60048036038101906102189190614466565b610c81565b60405161022a919061470e565b60405180910390f35b61024d60048036038101906102489190614730565b61105f565b005b61025761136f565b604051610264919061426b565b60405180910390f35b6102876004803603810190610282919061475d565b611374565b005b6102a3600480360381019061029e9190614466565b6117f8565b6040516102b0919061470e565b60405180910390f35b6102c1611bd6565b6040516102ce919061426b565b60405180910390f35b6102f160048036038101906102ec9190614829565b611bdb565b005b61030d6004803603810190610308919061491d565b612434565b005b61032960048036038101906103249190614730565b61262f565b6040516103369190614a51565b60405180910390f35b6103476128d2565b604051610354919061426b565b60405180910390f35b6103656128d7565b604051610372919061426b565b60405180910390f35b61039560048036038101906103909190614730565b6128dd565b6040516103a29190614a8e565b60405180910390f35b6103b361290a565b6040516103c0919061470e565b60405180910390f35b6103e360048036038101906103de9190613fd0565b612c9a565b6040516103f09190614a8e565b60405180910390f35b610413600480360381019061040e9190614aa9565b612d05565b6040516104209190614c96565b60405180910390f35b61043161309e565b60405161043e919061470e565b60405180910390f35b610461600480360381019061045c9190614730565b61342e565b60405161046e919061426b565b60405180910390f35b61047f613451565b60405161048c919061426b565b60405180910390f35b61049d613456565b6040516104aa919061426b565b60405180910390f35b6104bb613d08565b6104de6040518060600160405280602b815260200161595a602b9139838561345f565b6001600084815260200190815260200160002060030160008373ffffffffffffffffffffffffffffffffffffffff1673ffffffffffffffffffffffffffffffffffffffff168152602001908152602001600020604051806101a00160405290816000820160009054906101000a900473ffffffffffffffffffffffffffffffffffffffff1673ffffffffffffffffffffffffffffffffffffffff1673ffffffffffffffffffffffffffffffffffffffff16815260200160018201548152602001600282015481526020016003820160009054906101000a900460ff1660018111156105cc576105cb61402e565b5b60018111156105de576105dd61402e565b5b81526020016003820160019054906101000a900460ff1660018111156106075761060661402e565b5b60018111156106195761061861402e565b5b81526020016003820160029054906101000a900460ff1660018111156106425761064161402e565b5b60018111156106545761065361402e565b5b81526020016003820160039054906101000a900460ff16600181111561067d5761067c61402e565b5b600181111561068f5761068e61402e565b5b81526020016003820160049054906101000a900460ff1660018111156106b8576106b761402e565b5b60018111156106ca576106c961402e565b5b81526020016003820160059054906101000a900460ff1660018111156106f3576106f261402e565b5b60018111156107055761070461402e565b5b81526020016003820160069054906101000a900460ff16600181111561072e5761072d61402e565b5b60018111156107405761073f61402e565b5b81526020016003820160079054906101000a900460ff1660028111156107695761076861402e565b5b600281111561077b5761077a61402e565b5b81526020016003820160089054906101000a900460ff16600d8111156107a4576107a361402e565b5b600d8111156107b6576107b561402e565b5b8152602001600482015481525050905092915050565b60075481565b6000600660008154809291906107e790614ce7565b9190505590506040518061014001604052808281526020018d73ffffffffffffffffffffffffffffffffffffffff1681526020018c8c8080601f016020809104026020016040519081016040528093929190818152602001838380828437600081840152601f19601f8201169050808301925050505050505081526020018a8a8080601f016020809104026020016040519081016040528093929190818152602001838380828437600081840152601f19601f82011690508083019250505050505050815260200188600d8111156108c2576108c161402e565b5b81526020018781526020018660028111156108e0576108df61402e565b5b81526020018581526020018460028111156108fe576108fd61402e565b5b8152602001838152506000808381526020019081526020016000206000820151816000015560208201518160010160006101000a81548173ffffffffffffffffffffffffffffffffffffffff021916908373ffffffffffffffffffffffffffffffffffffffff160217905550604082015181600201908161097f9190614f6a565b5060608201518160030190816109959190614f6a565b5060808201518160040160006101000a81548160ff0219169083600d8111156109c1576109c061402e565b5b021790555060a0820151816005015560c08201518160060160006101000a81548160ff021916908360028111156109fb576109fa61402e565b5b021790555060e082015181600701556101008201518160080160006101000a81548160ff02191690836002811115610a3657610a3561402e565b5b02179055506101208201518160090155905050600260008d73ffffffffffffffffffffffffffffffffffffffff1673ffffffffffffffffffffffffffffffffffffffff16815260200190815260200160002081908060018154018082558091505060019003906000526020600020016000909190919091505560006002811115610ac357610ac261402e565b5b856002811115610ad657610ad561402e565b5b03610af85760076000815480929190610aee90614ce7565b9190505550610b3e565b60016002811115610b0c57610b0b61402e565b5b856002811115610b1f57610b1e61402e565b5b03610b3d5760086000815480929190610b3790614ce7565b91905055505b5b610b6260405180606001604052806026815260200161593460269139828e896134fe565b610be56040518060400160405280601781526020017f2d205469746c652075726c20202020202020203a2025730000000000000000008152508c8c8080601f016020809104026020016040519081016040528093929190818152602001838380828437600081840152601f19601f820116905080830192505050505050506135a0565b610c686040518060400160405280601781526020017f2d204465736372697074696f6e2075726c20203a2025730000000000000000008152508a8a8080601f016020809104026020016040519081016040528093929190818152602001838380828437600081840152601f19601f820116905080830192505050505050506135a0565b505050505050505050505050565b600e81565b60065481565b60606000600360008473ffffffffffffffffffffffffffffffffffffffff1673ffffffffffffffffffffffffffffffffffffffff168152602001908152602001600020805480602002602001604051908101604052809291908181526020018280548015610d0e57602002820191906000526020600020905b815481526020019060010190808311610cfa575b505050505090506000815167ffffffffffffffff811115610d3257610d31614d2f565b5b604051908082528060200260200182016040528015610d6b57816020015b610d58613e28565b815260200190600190039081610d505790505b50905060005b825181101561103057600080848381518110610d9057610d8f61503c565b5b6020026020010151815260200190815260200160002060405180610140016040529081600082015481526020016001820160009054906101000a900473ffffffffffffffffffffffffffffffffffffffff1673ffffffffffffffffffffffffffffffffffffffff1673ffffffffffffffffffffffffffffffffffffffff168152602001600282018054610e2290614d8d565b80601f0160208091040260200160405190810160405280929190818152602001828054610e4e90614d8d565b8015610e9b5780601f10610e7057610100808354040283529160200191610e9b565b820191906000526020600020905b815481529060010190602001808311610e7e57829003601f168201915b50505050508152602001600382018054610eb490614d8d565b80601f0160208091040260200160405190810160405280929190818152602001828054610ee090614d8d565b8015610f2d5780601f10610f0257610100808354040283529160200191610f2d565b820191906000526020600020905b815481529060010190602001808311610f1057829003601f168201915b505050505081526020016004820160009054906101000a900460ff16600d811115610f5b57610f5a61402e565b5b600d811115610f6d57610f6c61402e565b5b8152602001600582015481526020016006820160009054906101000a900460ff166002811115610fa057610f9f61402e565b5b6002811115610fb257610fb161402e565b5b8152602001600782015481526020016008820160009054906101000a900460ff166002811115610fe557610fe461402e565b5b6002811115610ff757610ff661402e565b5b81526020016009820154815250508282815181106110185761101761503c565b5b60200260200101819052508080600101915050610d71565b506110556040518060600160405280602b81526020016158a7602b913985845161345f565b8092505050919050565b806001600082815260200190815260200160002060010160009054906101000a900460ff16156110c4576040517f08c379a00000000000000000000000000000000000000000000000000000000081526004016110bb906150c8565b60405180910390fd5b6003600160008481526020019081526020016000206000018054905010611120576040517f08c379a000000000000000000000000000000000000000000000000000000000815260040161111790615134565b60405180910390fd5b600015156001600084815260200190815260200160002060040160003373ffffffffffffffffffffffffffffffffffffffff1673ffffffffffffffffffffffffffffffffffffffff16815260200190815260200160002060009054906101000a900460ff161515146111c7576040517f08c379a00000000000000000000000000000000000000000000000000000000081526004016111be906151c6565b60405180910390fd5b600360003373ffffffffffffffffffffffffffffffffffffffff1673ffffffffffffffffffffffffffffffffffffffff168152602001908152602001600020829080600181540180825580915050600190039060005260206000200160009091909190915055600060016000848152602001908152602001600020905080600001339080600181540180825580915050600190039060005260206000200160009091909190916101000a81548173ffffffffffffffffffffffffffffffffffffffff021916908373ffffffffffffffffffffffffffffffffffffffff16021790555060018160040160003373ffffffffffffffffffffffffffffffffffffffff1673ffffffffffffffffffffffffffffffffffffffff16815260200190815260200160002060006101000a81548160ff0219169083151502179055503373ffffffffffffffffffffffffffffffffffffffff16837f07fe5c562bb72cc8709dc10987f69acf04ba0d45c871d6c281e32df878063dcd60405160405180910390a361136a604051806060016040528060318152602001615a4860319139338561345f565b505050565b600381565b60006006600081548092919061138990614ce7565b9190505590506040518061014001604052808281526020013373ffffffffffffffffffffffffffffffffffffffff16815260200188888080601f016020809104026020016040519081016040528093929190818152602001838380828437600081840152601f19601f82011690508083019250505050505050815260200186868080601f016020809104026020016040519081016040528093929190818152602001838380828437600081840152601f19601f82011690508083019250505050505050815260200184600d8111156114645761146361402e565b5b8152602001838152602001600060028111156114835761148261402e565b5b815260200160008152602001600060028111156114a3576114a261402e565b5b815260200160008152506000808381526020019081526020016000206000820151816000015560208201518160010160006101000a81548173ffffffffffffffffffffffffffffffffffffffff021916908373ffffffffffffffffffffffffffffffffffffffff16021790555060408201518160020190816115259190614f6a565b50606082015181600301908161153b9190614f6a565b5060808201518160040160006101000a81548160ff0219169083600d8111156115675761156661402e565b5b021790555060a0820151816005015560c08201518160060160006101000a81548160ff021916908360028111156115a1576115a061402e565b5b021790555060e082015181600701556101008201518160080160006101000a81548160ff021916908360028111156115dc576115db61402e565b5b02179055506101208201518160090155905050600260003373ffffffffffffffffffffffffffffffffffffffff1673ffffffffffffffffffffffffffffffffffffffff1681526020019081526020016000208190806001815401808255809150506001900390600052602060002001600090919091909150556007600081548092919061166890614ce7565b91905055506116916040518060600160405280602b815260200161584f602b91398233856134fe565b6117146040518060400160405280601781526020017f2d205469746c652075726c20202020202020203a20257300000000000000000081525088888080601f016020809104026020016040519081016040528093929190818152602001838380828437600081840152601f19601f820116905080830192505050505050506135a0565b6117976040518060400160405280601781526020017f2d204465736372697074696f6e2075726c20203a20257300000000000000000081525086868080601f016020809104026020016040519081016040528093929190818152602001838380828437600081840152601f19601f820116905080830192505050505050506135a0565b3373ffffffffffffffffffffffffffffffffffffffff167f42672180e30fb0e2e6ae998046a0806bf23368de710977e1a63920574c378a1c8888888888886040516117e796959493929190615231565b60405180910390a250505050505050565b60606000600260008473ffffffffffffffffffffffffffffffffffffffff1673ffffffffffffffffffffffffffffffffffffffff16815260200190815260200160002080548060200260200160405190810160405280929190818152602001828054801561188557602002820191906000526020600020905b815481526020019060010190808311611871575b505050505090506000815167ffffffffffffffff8111156118a9576118a8614d2f565b5b6040519080825280602002602001820160405280156118e257816020015b6118cf613e28565b8152602001906001900390816118c75790505b50905060005b8251811015611ba7576000808483815181106119075761190661503c565b5b6020026020010151815260200190815260200160002060405180610140016040529081600082015481526020016001820160009054906101000a900473ffffffffffffffffffffffffffffffffffffffff1673ffffffffffffffffffffffffffffffffffffffff1673ffffffffffffffffffffffffffffffffffffffff16815260200160028201805461199990614d8d565b80601f01602080910402602001604051908101604052809291908181526020018280546119c590614d8d565b8015611a125780601f106119e757610100808354040283529160200191611a12565b820191906000526020600020905b8154815290600101906020018083116119f557829003601f168201915b50505050508152602001600382018054611a2b90614d8d565b80601f0160208091040260200160405190810160405280929190818152602001828054611a5790614d8d565b8015611aa45780601f10611a7957610100808354040283529160200191611aa4565b820191906000526020600020905b815481529060010190602001808311611a8757829003601f168201915b505050505081526020016004820160009054906101000a900460ff16600d811115611ad257611ad161402e565b5b600d811115611ae457611ae361402e565b5b8152602001600582015481526020016006820160009054906101000a900460ff166002811115611b1757611b1661402e565b5b6002811115611b2957611b2861402e565b5b8152602001600782015481526020016008820160009054906101000a900460ff166002811115611b5c57611b5b61402e565b5b6002811115611b6e57611b6d61402e565b5b8152602001600982015481525050828281518110611b8f57611b8e61503c565b5b602002602001018190525080806001019150506118e8565b50611bcc6040518060600160405280602d8152602001615a1b602d913985845161345f565b8092505050919050565b605081565b8a6001600082815260200190815260200160002060010160009054906101000a900460ff1615611c40576040517f08c379a0000000000000000000000000000000000000000000000000000000008152600401611c37906150c8565b60405180910390fd5b60011515600160008e815260200190815260200160002060040160003373ffffffffffffffffffffffffffffffffffffffff1673ffffffffffffffffffffffffffffffffffffffff16815260200190815260200160002060009054906101000a900460ff16151514611ce7576040517f08c379a0000000000000000000000000000000000000000000000000000000008152600401611cde906152fa565b60405180910390fd5b6000600160008e8152602001908152602001600020905060008160030160003373ffffffffffffffffffffffffffffffffffffffff1673ffffffffffffffffffffffffffffffffffffffff1681526020019081526020016000206002015403611d6557806002016000815480929190611d5f90614ce7565b91905055505b604051806101a001604052803373ffffffffffffffffffffffffffffffffffffffff1681526020018e81526020014281526020018d6001811115611dac57611dab61402e565b5b81526020018c6001811115611dc457611dc361402e565b5b81526020018b6001811115611ddc57611ddb61402e565b5b81526020018a6001811115611df457611df361402e565b5b8152602001896001811115611e0c57611e0b61402e565b5b8152602001886001811115611e2457611e2361402e565b5b8152602001876001811115611e3c57611e3b61402e565b5b8152602001866002811115611e5457611e5361402e565b5b815260200185600d811115611e6c57611e6b61402e565b5b8152602001848152508160030160003373ffffffffffffffffffffffffffffffffffffffff1673ffffffffffffffffffffffffffffffffffffffff16815260200190815260200160002060008201518160000160006101000a81548173ffffffffffffffffffffffffffffffffffffffff021916908373ffffffffffffffffffffffffffffffffffffffff160217905550602082015181600101556040820151816002015560608201518160030160006101000a81548160ff02191690836001811115611f3c57611f3b61402e565b5b021790555060808201518160030160016101000a81548160ff02191690836001811115611f6c57611f6b61402e565b5b021790555060a08201518160030160026101000a81548160ff02191690836001811115611f9c57611f9b61402e565b5b021790555060c08201518160030160036101000a81548160ff02191690836001811115611fcc57611fcb61402e565b5b021790555060e08201518160030160046101000a81548160ff02191690836001811115611ffc57611ffb61402e565b5b02179055506101008201518160030160056101000a81548160ff0219169083600181111561202d5761202c61402e565b5b02179055506101208201518160030160066101000a81548160ff0219169083600181111561205e5761205d61402e565b5b02179055506101408201518160030160076101000a81548160ff0219169083600281111561208f5761208e61402e565b5b02179055506101608201518160030160086101000a81548160ff0219169083600d8111156120c0576120bf61402e565b5b021790555061018082015181600401559050506120f66040518060600160405280602d815260200161587a602d9139338f61345f565b6121476040518060400160405280600f81526020017f2d2052656c6576616e63653a20257300000000000000000000000000000000008152508d60018111156121425761214161402e565b5b61363c565b6121986040518060400160405280601b81526020017f2d20546563686e6963616c20636f72726563746e6573733a20257300000000008152508c60018111156121935761219261402e565b5b61363c565b6121e96040518060400160405280601281526020017f2d20436f6d706c6574656e6573733a20257300000000000000000000000000008152508b60018111156121e4576121e361402e565b5b61363c565b61223a6040518060400160405280600d81526020017f2d20436c61726974793a202573000000000000000000000000000000000000008152508a60018111156122355761223461402e565b5b61363c565b61228b6040518060400160405280601181526020017f2d204f726967696e616c6974793a2025730000000000000000000000000000008152508960018111156122865761228561402e565b5b61363c565b6122dc6040518060400160405280600e81526020017f2d20556e6269617365643a2025730000000000000000000000000000000000008152508860018111156122d7576122d661402e565b5b61363c565b61232d6040518060400160405280601581526020017f2d20506c616769617269736d20667265653a20257300000000000000000000008152508760018111156123285761232761402e565b5b61363c565b61237e6040518060400160405280601a81526020017f2d2053756767657374656420646966666963756c74793a2025730000000000008152508660028111156123795761237861402e565b5b61363c565b6123cf6040518060400160405280601881526020017f2d205375676765737465642063617465676f72793a202573000000000000000081525085600d8111156123ca576123c961402e565b5b61363c565b61240e6040518060400160405280601a81526020017f2d2053756767657374656420736f6c76652074696d653a2025730000000000008152508461363c565b6003816002015410612425576124248d826136d8565b5b50505050505050505050505050565b600654821061244257600080fd5b60008190508073ffffffffffffffffffffffffffffffffffffffff1663846900cf85856040518363ffffffff1660e01b8152600401612482929190615329565b602060405180830381865afa15801561249f573d6000803e3d6000fd5b505050506040513d601f19601f820116820180604052508101906124c3919061537e565b156124cd57600080fd5b60006103e8426124dd91906153ab565b90508173ffffffffffffffffffffffffffffffffffffffff16637d2c111f8686846040518463ffffffff1660e01b815260040161251c939291906153ed565b600060405180830381600087803b15801561253657600080fd5b505af115801561254a573d6000803e3d6000fd5b50505050600560008673ffffffffffffffffffffffffffffffffffffffff1673ffffffffffffffffffffffffffffffffffffffff1681526020019081526020016000208490806001815401808255809150506001900390600052602060002001600090919091909150556125d86040518060600160405280602181526020016159b660219139868684613ae5565b8473ffffffffffffffffffffffffffffffffffffffff167fc9e3de16af1f601c85f1f98f6bc173cd0a8b0fcd25dcd67893470617830fa5f98583604051612620929190615424565b60405180910390a25050505050565b612637613e28565b61265a6040518060600160405280602181526020016159d760219139338461345f565b60008083815260200190815260200160002060405180610140016040529081600082015481526020016001820160009054906101000a900473ffffffffffffffffffffffffffffffffffffffff1673ffffffffffffffffffffffffffffffffffffffff1673ffffffffffffffffffffffffffffffffffffffff1681526020016002820180546126e890614d8d565b80601f016020809104026020016040519081016040528092919081815260200182805461271490614d8d565b80156127615780601f1061273657610100808354040283529160200191612761565b820191906000526020600020905b81548152906001019060200180831161274457829003601f168201915b5050505050815260200160038201805461277a90614d8d565b80601f01602080910402602001604051908101604052809291908181526020018280546127a690614d8d565b80156127f35780601f106127c8576101008083540402835291602001916127f3565b820191906000526020600020905b8154815290600101906020018083116127d657829003601f168201915b505050505081526020016004820160009054906101000a900460ff16600d8111156128215761282061402e565b5b600d8111156128335761283261402e565b5b8152602001600582015481526020016006820160009054906101000a900460ff1660028111156128665761286561402e565b5b60028111156128785761287761402e565b5b8152602001600782015481526020016008820160009054906101000a900460ff1660028111156128ab576128aa61402e565b5b60028111156128bd576128bc61402e565b5b81526020016009820154815250509050919050565b600781565b60085481565b60006001600083815260200190815260200160002060010160009054906101000a900460ff169050919050565b6060600060075467ffffffffffffffff81111561292a57612929614d2f565b5b60405190808252806020026020018201604052801561296357816020015b612950613e28565b8152602001906001900390816129485790505b5090506000805b600654811015612c6d57600060028111156129885761298761402e565b5b60008083815260200190815260200160002060060160009054906101000a900460ff1660028111156129bd576129bc61402e565b5b03612c605760008082815260200190815260200160002060405180610140016040529081600082015481526020016001820160009054906101000a900473ffffffffffffffffffffffffffffffffffffffff1673ffffffffffffffffffffffffffffffffffffffff1673ffffffffffffffffffffffffffffffffffffffff168152602001600282018054612a5090614d8d565b80601f0160208091040260200160405190810160405280929190818152602001828054612a7c90614d8d565b8015612ac95780601f10612a9e57610100808354040283529160200191612ac9565b820191906000526020600020905b815481529060010190602001808311612aac57829003601f168201915b50505050508152602001600382018054612ae290614d8d565b80601f0160208091040260200160405190810160405280929190818152602001828054612b0e90614d8d565b8015612b5b5780601f10612b3057610100808354040283529160200191612b5b565b820191906000526020600020905b815481529060010190602001808311612b3e57829003601f168201915b505050505081526020016004820160009054906101000a900460ff16600d811115612b8957612b8861402e565b5b600d811115612b9b57612b9a61402e565b5b8152602001600582015481526020016006820160009054906101000a900460ff166002811115612bce57612bcd61402e565b5b6002811115612be057612bdf61402e565b5b8152602001600782015481526020016008820160009054906101000a900460ff166002811115612c1357612c1261402e565b5b6002811115612c2557612c2461402e565b5b8152602001600982015481525050838381518110612c4657612c4561503c565b5b60200260200101819052508180612c5c90614ce7565b9250505b808060010191505061296a565b50612c926040518060600160405280603181526020016159856031913933845161345f565b819250505090565b60006001600084815260200190815260200160002060040160008373ffffffffffffffffffffffffffffffffffffffff1673ffffffffffffffffffffffffffffffffffffffff16815260200190815260200160002060009054906101000a900460ff16905092915050565b60606000600560008573ffffffffffffffffffffffffffffffffffffffff1673ffffffffffffffffffffffffffffffffffffffff168152602001908152602001600020805480602002602001604051908101604052809291908181526020018280548015612d9257602002820191906000526020600020905b815481526020019060010190808311612d7e575b5050505050905060008390506000825167ffffffffffffffff811115612dbb57612dba614d2f565b5b604051908082528060200260200182016040528015612df457816020015b612de1613ec7565b815260200190600190039081612dd95790505b50905060005b835181101561306f576000848281518110612e1857612e1761503c565b5b602002602001015190506000806000838152602001908152602001600020905060008060008773ffffffffffffffffffffffffffffffffffffffff1663419fd69e8d876040518363ffffffff1660e01b8152600401612e78929190615329565b606060405180830381865afa158015612e95573d6000803e3d6000fd5b505050506040513d601f19601f82011682018060405250810190612eb99190615487565b9250925092506040518060e00160405280868152602001856002018054612edf90614d8d565b80601f0160208091040260200160405190810160405280929190818152602001828054612f0b90614d8d565b8015612f585780601f10612f2d57610100808354040283529160200191612f58565b820191906000526020600020905b815481529060010190602001808311612f3b57829003601f168201915b50505050508152602001856003018054612f7190614d8d565b80601f0160208091040260200160405190810160405280929190818152602001828054612f9d90614d8d565b8015612fea5780601f10612fbf57610100808354040283529160200191612fea565b820191906000526020600020905b815481529060010190602001808311612fcd57829003601f168201915b505050505081526020018560040160009054906101000a900460ff16600d8111156130185761301761402e565b5b81526020018360038111156130305761302f61402e565b5b8152602001848152602001828152508787815181106130525761305161503c565b5b602002602001018190525050505050508080600101915050612dfa565b506130926040518060600160405280603081526020016159046030913987613b87565b80935050505092915050565b6060600060085467ffffffffffffffff8111156130be576130bd614d2f565b5b6040519080825280602002602001820160405280156130f757816020015b6130e4613e28565b8152602001906001900390816130dc5790505b5090506000805b600654811015613401576001600281111561311c5761311b61402e565b5b60008083815260200190815260200160002060060160009054906101000a900460ff1660028111156131515761315061402e565b5b036133f45760008082815260200190815260200160002060405180610140016040529081600082015481526020016001820160009054906101000a900473ffffffffffffffffffffffffffffffffffffffff1673ffffffffffffffffffffffffffffffffffffffff1673ffffffffffffffffffffffffffffffffffffffff1681526020016002820180546131e490614d8d565b80601f016020809104026020016040519081016040528092919081815260200182805461321090614d8d565b801561325d5780601f106132325761010080835404028352916020019161325d565b820191906000526020600020905b81548152906001019060200180831161324057829003601f168201915b5050505050815260200160038201805461327690614d8d565b80601f01602080910402602001604051908101604052809291908181526020018280546132a290614d8d565b80156132ef5780601f106132c4576101008083540402835291602001916132ef565b820191906000526020600020905b8154815290600101906020018083116132d257829003601f168201915b505050505081526020016004820160009054906101000a900460ff16600d81111561331d5761331c61402e565b5b600d81111561332f5761332e61402e565b5b8152602001600582015481526020016006820160009054906101000a900460ff1660028111156133625761336161402e565b5b60028111156133745761337361402e565b5b8152602001600782015481526020016008820160009054906101000a900460ff1660028111156133a7576133a661402e565b5b60028111156133b9576133b861402e565b5b81526020016009820154815250508383815181106133da576133d961503c565b5b602002602001018190525081806133f090614ce7565b9250505b80806001019150506130fe565b506134266040518060600160405280603281526020016158d26032913933845161345f565b819250505090565b600060016000838152602001908152602001600020600001805490509050919050565b600381565b60006003905090565b6134f983838360405160240161347793929190615513565b6040516020818303038152906040527f0d26b925000000000000000000000000000000000000000000000000000000007bffffffffffffffffffffffffffffffffffffffffffffffffffffffff19166020820180517bffffffffffffffffffffffffffffffffffffffffffffffffffffffff8381831617835250505050613c23565b505050565b61359a848484846040516024016135189493929190615551565b6040516020818303038152906040527f4f04fdc6000000000000000000000000000000000000000000000000000000007bffffffffffffffffffffffffffffffffffffffffffffffffffffffff19166020820180517bffffffffffffffffffffffffffffffffffffffffffffffffffffffff8381831617835250505050613c23565b50505050565b61363882826040516024016135b692919061559d565b6040516020818303038152906040527f4b5c4277000000000000000000000000000000000000000000000000000000007bffffffffffffffffffffffffffffffffffffffffffffffffffffffff19166020820180517bffffffffffffffffffffffffffffffffffffffffffffffffffffffff8381831617835250505050613c23565b5050565b6136d482826040516024016136529291906155d4565b6040516020818303038152906040527fb60e72cc000000000000000000000000000000000000000000000000000000007bffffffffffffffffffffffffffffffffffffffffffffffffffffffff19166020820180517bffffffffffffffffffffffffffffffffffffffffffffffffffffffff8381831617835250505050613c23565b5050565b8060010160009054906101000a900460ff161561372a576040517f08c379a000000000000000000000000000000000000000000000000000000000815260040161372190615650565b60405180910390fd5b6000805b826000018054905081101561391557600083600301600085600001848154811061375b5761375a61503c565b5b9060005260206000200160009054906101000a900473ffffffffffffffffffffffffffffffffffffffff1673ffffffffffffffffffffffffffffffffffffffff1673ffffffffffffffffffffffffffffffffffffffff16815260200190815260200160002090508060030160069054906101000a900460ff1660018111156137e6576137e561402e565b5b8160030160059054906101000a900460ff16600181111561380a5761380961402e565b5b8260030160049054906101000a900460ff16600181111561382e5761382d61402e565b5b8360030160039054906101000a900460ff1660018111156138525761385161402e565b5b8460030160029054906101000a900460ff1660018111156138765761387561402e565b5b8560030160019054906101000a900460ff16600181111561389a5761389961402e565b5b8660030160009054906101000a900460ff1660018111156138be576138bd61402e565b5b6138c89190615670565b6138d29190615670565b6138dc9190615670565b6138e69190615670565b6138f09190615670565b6138fa9190615670565b836139059190615670565b925050808060010191505061372e565b5060008260020154600761392991906153ab565b60648361393691906153ab565b61394091906156d3565b90506139656040518060600160405280602381526020016159f8602391398583613c3d565b605081106139e057600160008086815260200190815260200160002060060160006101000a81548160ff021916908360028111156139a6576139a561402e565b5b0217905550600760008154809291906139be90615704565b9190505550600860008154809291906139d690614ce7565b9190505550613a37565b600260008086815260200190815260200160002060060160006101000a81548160ff02191690836002811115613a1957613a1861402e565b5b021790555060076000815480929190613a3190615704565b91905055505b806000808681526020019081526020016000206007018190555060018360010160006101000a81548160ff021916908315150217905550837f1a20d608d2289bdfc4581c5a0722f4636bd21c1610f2485c20a4b20fd1f57a5360008087815260200190815260200160002060060160009054906101000a900460ff1660008088815260200190815260200160002060070154604051613ad792919061573c565b60405180910390a250505050565b613b8184848484604051602401613aff9493929190615765565b6040516020818303038152906040527ff8f51b1e000000000000000000000000000000000000000000000000000000007bffffffffffffffffffffffffffffffffffffffffffffffffffffffff19166020820180517bffffffffffffffffffffffffffffffffffffffffffffffffffffffff8381831617835250505050613c23565b50505050565b613c1f8282604051602401613b9d9291906157b1565b6040516020818303038152906040527f319af333000000000000000000000000000000000000000000000000000000007bffffffffffffffffffffffffffffffffffffffffffffffffffffffff19166020820180517bffffffffffffffffffffffffffffffffffffffffffffffffffffffff8381831617835250505050613c23565b5050565b613c3a81613c32613cdc613cfd565b63ffffffff16565b50565b613cd7838383604051602401613c55939291906157e1565b6040516020818303038152906040527fca47c4eb000000000000000000000000000000000000000000000000000000007bffffffffffffffffffffffffffffffffffffffffffffffffffffffff19166020820180517bffffffffffffffffffffffffffffffffffffffffffffffffffffffff8381831617835250505050613c23565b505050565b60006a636f6e736f6c652e6c6f679050600080835160208501845afa505050565b613f28819050919050565b604051806101a00160405280600073ffffffffffffffffffffffffffffffffffffffff168152602001600081526020016000815260200160006001811115613d5357613d5261402e565b5b815260200160006001811115613d6c57613d6b61402e565b5b815260200160006001811115613d8557613d8461402e565b5b815260200160006001811115613d9e57613d9d61402e565b5b815260200160006001811115613db757613db661402e565b5b815260200160006001811115613dd057613dcf61402e565b5b815260200160006001811115613de957613de861402e565b5b815260200160006002811115613e0257613e0161402e565b5b81526020016000600d811115613e1b57613e1a61402e565b5b8152602001600081525090565b60405180610140016040528060008152602001600073ffffffffffffffffffffffffffffffffffffffff16815260200160608152602001606081526020016000600d811115613e7a57613e7961402e565b5b81526020016000815260200160006002811115613e9a57613e9961402e565b5b81526020016000815260200160006002811115613eba57613eb961402e565b5b8152602001600081525090565b6040518060e001604052806000815260200160608152602001606081526020016000600d811115613efb57613efa61402e565b5b815260200160006003811115613f1457613f1361402e565b5b815260200160008152602001600081525090565b613f3061581f565b565b600080fd5b600080fd5b6000819050919050565b613f4f81613f3c565b8114613f5a57600080fd5b50565b600081359050613f6c81613f46565b92915050565b600073ffffffffffffffffffffffffffffffffffffffff82169050919050565b6000613f9d82613f72565b9050919050565b613fad81613f92565b8114613fb857600080fd5b50565b600081359050613fca81613fa4565b92915050565b60008060408385031215613fe757613fe6613f32565b5b6000613ff585828601613f5d565b925050602061400685828601613fbb565b9150509250929050565b61401981613f92565b82525050565b61402881613f3c565b82525050565b7f4e487b7100000000000000000000000000000000000000000000000000000000600052602160045260246000fd5b6002811061406e5761406d61402e565b5b50565b600081905061407f8261405d565b919050565b600061408f82614071565b9050919050565b61409f81614084565b82525050565b600381106140b6576140b561402e565b5b50565b60008190506140c7826140a5565b919050565b60006140d7826140b9565b9050919050565b6140e7816140cc565b82525050565b600e81106140fe576140fd61402e565b5b50565b600081905061410f826140ed565b919050565b600061411f82614101565b9050919050565b61412f81614114565b82525050565b6101a08201600082015161414c6000850182614010565b50602082015161415f602085018261401f565b506040820151614172604085018261401f565b5060608201516141856060850182614096565b5060808201516141986080850182614096565b5060a08201516141ab60a0850182614096565b5060c08201516141be60c0850182614096565b5060e08201516141d160e0850182614096565b506101008201516141e6610100850182614096565b506101208201516141fb610120850182614096565b506101408201516142106101408501826140de565b50610160820151614225610160850182614126565b5061018082015161423a61018085018261401f565b50505050565b60006101a0820190506142566000830184614135565b92915050565b61426581613f3c565b82525050565b6000602082019050614280600083018461425c565b92915050565b600080fd5b600080fd5b600080fd5b60008083601f8401126142ab576142aa614286565b5b8235905067ffffffffffffffff8111156142c8576142c761428b565b5b6020830191508360018202830111156142e4576142e3614290565b5b9250929050565b600e81106142f857600080fd5b50565b60008135905061430a816142eb565b92915050565b6003811061431d57600080fd5b50565b60008135905061432f81614310565b92915050565b6003811061434257600080fd5b50565b60008135905061435481614335565b92915050565b60008060008060008060008060008060006101208c8e0312156143805761437f613f32565b5b600061438e8e828f01613fbb565b9b505060208c013567ffffffffffffffff8111156143af576143ae613f37565b5b6143bb8e828f01614295565b9a509a505060408c013567ffffffffffffffff8111156143de576143dd613f37565b5b6143ea8e828f01614295565b985098505060606143fd8e828f016142fb565b965050608061440e8e828f01613f5d565b95505060a061441f8e828f01614320565b94505060c06144308e828f01613f5d565b93505060e06144418e828f01614345565b9250506101006144538e828f01613f5d565b9150509295989b509295989b9093969950565b60006020828403121561447c5761447b613f32565b5b600061448a84828501613fbb565b91505092915050565b600081519050919050565b600082825260208201905092915050565b6000819050602082019050919050565b600081519050919050565b600082825260208201905092915050565b60005b838110156144f95780820151818401526020810190506144de565b60008484015250505050565b6000601f19601f8301169050919050565b6000614521826144bf565b61452b81856144ca565b935061453b8185602086016144db565b61454481614505565b840191505092915050565b600381106145605761455f61402e565b5b50565b60008190506145718261454f565b919050565b600061458182614563565b9050919050565b61459181614576565b82525050565b6000610140830160008301516145b0600086018261401f565b5060208301516145c36020860182614010565b50604083015184820360408601526145db8282614516565b915050606083015184820360608601526145f58282614516565b915050608083015161460a6080860182614126565b5060a083015161461d60a086018261401f565b5060c083015161463060c0860182614588565b5060e083015161464360e086018261401f565b506101008301516146586101008601826140de565b5061012083015161466d61012086018261401f565b508091505092915050565b60006146848383614597565b905092915050565b6000602082019050919050565b60006146a482614493565b6146ae818561449e565b9350836020820285016146c0856144af565b8060005b858110156146fc57848403895281516146dd8582614678565b94506146e88361468c565b925060208a019950506001810190506146c4565b50829750879550505050505092915050565b600060208201905081810360008301526147288184614699565b905092915050565b60006020828403121561474657614745613f32565b5b600061475484828501613f5d565b91505092915050565b6000806000806000806080878903121561477a57614779613f32565b5b600087013567ffffffffffffffff81111561479857614797613f37565b5b6147a489828a01614295565b9650965050602087013567ffffffffffffffff8111156147c7576147c6613f37565b5b6147d389828a01614295565b945094505060406147e689828a016142fb565b92505060606147f789828a01613f5d565b9150509295509295509295565b6002811061481157600080fd5b50565b60008135905061482381614804565b92915050565b60008060008060008060008060008060006101608c8e03121561484f5761484e613f32565b5b600061485d8e828f01613f5d565b9b5050602061486e8e828f01614814565b9a5050604061487f8e828f01614814565b99505060606148908e828f01614814565b98505060806148a18e828f01614814565b97505060a06148b28e828f01614814565b96505060c06148c38e828f01614814565b95505060e06148d48e828f01614814565b9450506101006148e68e828f01614345565b9350506101206148f88e828f016142fb565b92505061014061490a8e828f01613f5d565b9150509295989b509295989b9093969950565b60008060006060848603121561493657614935613f32565b5b600061494486828701613fbb565b935050602061495586828701613f5d565b925050604061496686828701613fbb565b9150509250925092565b600061014083016000830151614989600086018261401f565b50602083015161499c6020860182614010565b50604083015184820360408601526149b48282614516565b915050606083015184820360608601526149ce8282614516565b91505060808301516149e36080860182614126565b5060a08301516149f660a086018261401f565b5060c0830151614a0960c0860182614588565b5060e0830151614a1c60e086018261401f565b50610100830151614a316101008601826140de565b50610120830151614a4661012086018261401f565b508091505092915050565b60006020820190508181036000830152614a6b8184614970565b905092915050565b60008115159050919050565b614a8881614a73565b82525050565b6000602082019050614aa36000830184614a7f565b92915050565b60008060408385031215614ac057614abf613f32565b5b6000614ace85828601613fbb565b9250506020614adf85828601613fbb565b9150509250929050565b600081519050919050565b600082825260208201905092915050565b6000819050602082019050919050565b60048110614b2657614b2561402e565b5b50565b6000819050614b3782614b15565b919050565b6000614b4782614b29565b9050919050565b614b5781614b3c565b82525050565b600060e083016000830151614b75600086018261401f565b5060208301518482036020860152614b8d8282614516565b91505060408301518482036040860152614ba78282614516565b9150506060830151614bbc6060860182614126565b506080830151614bcf6080860182614b4e565b5060a0830151614be260a086018261401f565b5060c0830151614bf560c086018261401f565b508091505092915050565b6000614c0c8383614b5d565b905092915050565b6000602082019050919050565b6000614c2c82614ae9565b614c368185614af4565b935083602082028501614c4885614b05565b8060005b85811015614c845784840389528151614c658582614c00565b9450614c7083614c14565b925060208a01995050600181019050614c4c565b50829750879550505050505092915050565b60006020820190508181036000830152614cb08184614c21565b905092915050565b7f4e487b7100000000000000000000000000000000000000000000000000000000600052601160045260246000fd5b6000614cf282613f3c565b91507fffffffffffffffffffffffffffffffffffffffffffffffffffffffffffffffff8203614d2457614d23614cb8565b5b600182019050919050565b7f4e487b7100000000000000000000000000000000000000000000000000000000600052604160045260246000fd5b7f4e487b7100000000000000000000000000000000000000000000000000000000600052602260045260246000fd5b60006002820490506001821680614da557607f821691505b602082108103614db857614db7614d5e565b5b50919050565b60008190508160005260206000209050919050565b60006020601f8301049050919050565b600082821b905092915050565b600060088302614e207fffffffffffffffffffffffffffffffffffffffffffffffffffffffffffffffff82614de3565b614e2a8683614de3565b95508019841693508086168417925050509392505050565b6000819050919050565b6000614e67614e62614e5d84613f3c565b614e42565b613f3c565b9050919050565b6000819050919050565b614e8183614e4c565b614e95614e8d82614e6e565b848454614df0565b825550505050565b600090565b614eaa614e9d565b614eb5818484614e78565b505050565b5b81811015614ed957614ece600082614ea2565b600181019050614ebb565b5050565b601f821115614f1e57614eef81614dbe565b614ef884614dd3565b81016020851015614f07578190505b614f1b614f1385614dd3565b830182614eba565b50505b505050565b600082821c905092915050565b6000614f4160001984600802614f23565b1980831691505092915050565b6000614f5a8383614f30565b9150826002028217905092915050565b614f73826144bf565b67ffffffffffffffff811115614f8c57614f8b614d2f565b5b614f968254614d8d565b614fa1828285614edd565b600060209050601f831160018114614fd45760008415614fc2578287015190505b614fcc8582614f4e565b865550615034565b601f198416614fe286614dbe565b60005b8281101561500a57848901518255600182019150602085019450602081019050614fe5565b868310156150275784890151615023601f891682614f30565b8355505b6001600288020188555050505b505050505050565b7f4e487b7100000000000000000000000000000000000000000000000000000000600052603260045260246000fd5b600082825260208201905092915050565b7f4368616c6c656e676520616c72656164792066696e616c697365640000000000600082015250565b60006150b2601b8361506b565b91506150bd8261507c565b602082019050919050565b600060208201905081810360008301526150e1816150a5565b9050919050565b7f4d6178206d6f64657261746f7273207265616368656400000000000000000000600082015250565b600061511e60168361506b565b9150615129826150e8565b602082019050919050565b6000602082019050818103600083015261514d81615111565b9050919050565b7f596f75206861766520616c7265616479206a6f696e656420746869732072657660008201527f69657720706f6f6c2e0000000000000000000000000000000000000000000000602082015250565b60006151b060298361506b565b91506151bb82615154565b604082019050919050565b600060208201905081810360008301526151df816151a3565b9050919050565b82818337600083830152505050565b6000615201838561506b565b935061520e8385846151e6565b61521783614505565b840190509392505050565b61522b81614114565b82525050565b6000608082019050818103600083015261524c81888a6151f5565b905081810360208301526152618186886151f5565b90506152706040830185615222565b61527d606083018461425c565b979650505050505050565b7f596f752068617665206e6f74206a6f696e65642074686973207265766965772060008201527f706f6f6c2e000000000000000000000000000000000000000000000000000000602082015250565b60006152e460258361506b565b91506152ef82615288565b604082019050919050565b60006020820190508181036000830152615313816152d7565b9050919050565b61532381613f92565b82525050565b600060408201905061533e600083018561531a565b61534b602083018461425c565b9392505050565b61535b81614a73565b811461536657600080fd5b50565b60008151905061537881615352565b92915050565b60006020828403121561539457615393613f32565b5b60006153a284828501615369565b91505092915050565b60006153b682613f3c565b91506153c183613f3c565b92508282026153cf81613f3c565b915082820484148315176153e6576153e5614cb8565b5b5092915050565b6000606082019050615402600083018661531a565b61540f602083018561425c565b61541c604083018461425c565b949350505050565b6000604082019050615439600083018561425c565b615446602083018461425c565b9392505050565b60008151905061545c81613f46565b92915050565b6004811061546f57600080fd5b50565b60008151905061548181615462565b92915050565b6000806000606084860312156154a05761549f613f32565b5b60006154ae8682870161544d565b93505060206154bf86828701615472565b92505060406154d08682870161544d565b9150509250925092565b60006154e5826144bf565b6154ef818561506b565b93506154ff8185602086016144db565b61550881614505565b840191505092915050565b6000606082019050818103600083015261552d81866154da565b905061553c602083018561531a565b615549604083018461425c565b949350505050565b6000608082019050818103600083015261556b81876154da565b905061557a602083018661425c565b615587604083018561531a565b615594606083018461425c565b95945050505050565b600060408201905081810360008301526155b781856154da565b905081810360208301526155cb81846154da565b90509392505050565b600060408201905081810360008301526155ee81856154da565b90506155fd602083018461425c565b9392505050565b7f4368616c6c656e676520616c72656164792066696e616c697a65640000000000600082015250565b600061563a601b8361506b565b915061564582615604565b602082019050919050565b600060208201905081810360008301526156698161562d565b9050919050565b600061567b82613f3c565b915061568683613f3c565b925082820190508082111561569e5761569d614cb8565b5b92915050565b7f4e487b7100000000000000000000000000000000000000000000000000000000600052601260045260246000fd5b60006156de82613f3c565b91506156e983613f3c565b9250826156f9576156f86156a4565b5b828204905092915050565b600061570f82613f3c565b91506000820361572257615721614cb8565b5b600182039050919050565b61573681614576565b82525050565b6000604082019050615751600083018561572d565b61575e602083018461425c565b9392505050565b6000608082019050818103600083015261577f81876154da565b905061578e602083018661531a565b61579b604083018561425c565b6157a8606083018461425c565b95945050505050565b600060408201905081810360008301526157cb81856154da565b90506157da602083018461531a565b9392505050565b600060608201905081810360008301526157fb81866154da565b905061580a602083018561425c565b615817604083018461425c565b949350505050565b7f4e487b7100000000000000000000000000000000000000000000000000000000600052605160045260246000fdfe4368616c6c656e67652023257320636f6e747269627574656420627920257320617420257320776974683a4d6f64657261746f7220257320757064617465642072657669657720666f72206368616c6c656e67652023257355736572202573206861642066657463686564202573206d6f64657261746564206368616c6c656e676573536d61727420636f6e74726163742025732068616420666574636820257320617070726f766564206368616c6c656e676573557365722025732068616420666574636865642070726576696577206f66206a6f696e6564206368616c6c656e6765734368616c6c656e6765202325732073656564656420627920257320617420257320776974683a5573657220257320686164206665746368656420726576696577206f66206368616c6c656e676520232573536d61727420636f6e7472616374202573206861642066657463682025732070656e64696e67206368616c6c656e67657355736572202573206a6f696e6564206368616c6c656e676520257320617420257355736572202573206861642066657463686564206368616c6c656e676520232573417665726167652073636f726520666f72206368616c6c656e6765202325733a2025735573657220257320686164206665746368656420257320636f6e7472696275746564206368616c6c656e6765734d6f64657261746f72202573206a6f696e65642072657669657720706f6f6c20666f72206368616c6c656e676520232573a2646970667358221220988b85ca2c95172ba48f0cb37dc4e0938cb4317a8ad8da5e4db3fd4e2286d4c564736f6c634300081c0033",
  "linkReferences": {},
  "deployedLinkReferences": {}
}