{
  "_format": "hh-sol-artifact-1",
  "contractName": "ChallengeManager",
  "sourceName": "contracts/ChallengeManager.sol",
  "abi": [
    {
      "anonymous": false,
      "inputs": [
        {
          "indexed": true,
          "internalType": "address",
          "name": "contributor",
          "type": "address"
        },
        {
          "indexed": false,
          "internalType": "string",
          "name": "title_url",
          "type": "string"
        },
        {
          "indexed": false,
          "internalType": "string",
          "name": "description_url",
          "type": "string"
        },
        {
          "indexed": false,
          "internalType": "enum SystemEnums.Domain",
          "name": "category",
          "type": "uint8"
        },
        {
          "indexed": false,
          "internalType": "uint256",
          "name": "contribute_at",
          "type": "uint256"
        }
      ],
      "name": "ChallengeContributed",
      "type": "event"
    },
    {
      "anonymous": false,
      "inputs": [
        {
          "indexed": true,
          "internalType": "uint256",
          "name": "challengeId",
          "type": "uint256"
        },
        {
          "indexed": false,
          "internalType": "enum SystemEnums.ChallengeStatus",
          "name": "status",
          "type": "uint8"
        },
        {
          "indexed": false,
          "internalType": "uint256",
          "name": "averagePercent",
          "type": "uint256"
        }
      ],
      "name": "ChallengeFinalized",
      "type": "event"
    },
    {
      "anonymous": false,
      "inputs": [
        {
          "indexed": true,
          "internalType": "address",
          "name": "user",
          "type": "address"
        },
        {
          "indexed": false,
          "internalType": "uint256",
          "name": "challengeId",
          "type": "uint256"
        },
        {
          "indexed": false,
          "internalType": "uint256",
          "name": "joinedAt",
          "type": "uint256"
        }
      ],
      "name": "ChallengeJoinedByUser",
      "type": "event"
    },
    {
      "anonymous": false,
      "inputs": [
        {
          "indexed": true,
          "internalType": "uint256",
          "name": "challenge_id",
          "type": "uint256"
        },
        {
          "indexed": true,
          "internalType": "address",
          "name": "moderator",
          "type": "address"
        }
      ],
      "name": "ReviewPoolJoined",
      "type": "event"
    },
    {
      "inputs": [
        {
          "internalType": "string",
          "name": "_title_url",
          "type": "string"
        },
        {
          "internalType": "string",
          "name": "_description_url",
          "type": "string"
        },
        {
          "internalType": "enum SystemEnums.Domain",
          "name": "_category",
          "type": "uint8"
        }
      ],
      "name": "contributeChallenge",
      "outputs": [],
      "stateMutability": "nonpayable",
      "type": "function"
    },
    {
      "inputs": [],
      "name": "getApprovedChallenges",
      "outputs": [
        {
          "components": [
            {
              "internalType": "uint256",
              "name": "id",
              "type": "uint256"
            },
            {
              "internalType": "address",
              "name": "contributor",
              "type": "address"
            },
            {
              "internalType": "string",
              "name": "title_url",
              "type": "string"
            },
            {
              "internalType": "string",
              "name": "description_url",
              "type": "string"
            },
            {
              "internalType": "enum SystemEnums.Domain",
              "name": "category",
              "type": "uint8"
            },
            {
              "internalType": "uint256",
              "name": "contribute_at",
              "type": "uint256"
            },
            {
              "internalType": "enum SystemEnums.ChallengeStatus",
              "name": "status",
              "type": "uint8"
            },
            {
              "internalType": "uint256",
              "name": "quality_score",
              "type": "uint256"
            },
            {
              "internalType": "enum SystemEnums.DifficultyLevel",
              "name": "difficulty_level",
              "type": "uint8"
            },
            {
              "internalType": "uint256",
              "name": "solve_time",
              "type": "uint256"
            },
            {
              "internalType": "uint256",
              "name": "completed",
              "type": "uint256"
            }
          ],
          "internalType": "struct ChallengeManager.Challenge[]",
          "name": "",
          "type": "tuple[]"
        }
      ],
      "stateMutability": "view",
      "type": "function"
    },
    {
      "inputs": [
        {
          "internalType": "uint256",
          "name": "_challenge_id",
          "type": "uint256"
        }
      ],
      "name": "getChallengeById",
      "outputs": [
        {
          "components": [
            {
              "internalType": "uint256",
              "name": "id",
              "type": "uint256"
            },
            {
              "internalType": "address",
              "name": "contributor",
              "type": "address"
            },
            {
              "internalType": "string",
              "name": "title_url",
              "type": "string"
            },
            {
              "internalType": "string",
              "name": "description_url",
              "type": "string"
            },
            {
              "internalType": "enum SystemEnums.Domain",
              "name": "category",
              "type": "uint8"
            },
            {
              "internalType": "uint256",
              "name": "contribute_at",
              "type": "uint256"
            },
            {
              "internalType": "enum SystemEnums.ChallengeStatus",
              "name": "status",
              "type": "uint8"
            },
            {
              "internalType": "uint256",
              "name": "quality_score",
              "type": "uint256"
            },
            {
              "internalType": "enum SystemEnums.DifficultyLevel",
              "name": "difficulty_level",
              "type": "uint8"
            },
            {
              "internalType": "uint256",
              "name": "solve_time",
              "type": "uint256"
            },
            {
              "internalType": "uint256",
              "name": "completed",
              "type": "uint256"
            }
          ],
          "internalType": "struct ChallengeManager.Challenge",
          "name": "",
          "type": "tuple"
        }
      ],
      "stateMutability": "view",
      "type": "function"
    },
    {
      "inputs": [
        {
          "internalType": "uint256",
          "name": "_challenge_id",
          "type": "uint256"
        }
      ],
      "name": "getChallengeDifficultyById",
      "outputs": [
        {
          "internalType": "enum SystemEnums.DifficultyLevel",
          "name": "",
          "type": "uint8"
        }
      ],
      "stateMutability": "view",
      "type": "function"
    },
    {
      "inputs": [
        {
          "internalType": "uint256",
          "name": "_challenge_id",
          "type": "uint256"
        }
      ],
      "name": "getChallengeDomainById",
      "outputs": [
        {
          "internalType": "enum SystemEnums.Domain",
          "name": "",
          "type": "uint8"
        }
      ],
      "stateMutability": "view",
      "type": "function"
    },
    {
      "inputs": [
        {
          "internalType": "uint256",
          "name": "_challenge_id",
          "type": "uint256"
        }
      ],
      "name": "getChallengeFinalizedStatus",
      "outputs": [
        {
          "internalType": "bool",
          "name": "",
          "type": "bool"
        }
      ],
      "stateMutability": "view",
      "type": "function"
    },
    {
      "inputs": [
        {
          "internalType": "uint256",
          "name": "_challenge_id",
          "type": "uint256"
        }
      ],
      "name": "getChallengeTitleById",
      "outputs": [
        {
          "internalType": "string",
          "name": "",
          "type": "string"
        }
      ],
      "stateMutability": "view",
      "type": "function"
    },
    {
      "inputs": [
        {
          "internalType": "address",
          "name": "_contributor_address",
          "type": "address"
        }
      ],
      "name": "getChallengesByContributor",
      "outputs": [
        {
          "components": [
            {
              "internalType": "uint256",
              "name": "id",
              "type": "uint256"
            },
            {
              "internalType": "address",
              "name": "contributor",
              "type": "address"
            },
            {
              "internalType": "string",
              "name": "title_url",
              "type": "string"
            },
            {
              "internalType": "string",
              "name": "description_url",
              "type": "string"
            },
            {
              "internalType": "enum SystemEnums.Domain",
              "name": "category",
              "type": "uint8"
            },
            {
              "internalType": "uint256",
              "name": "contribute_at",
              "type": "uint256"
            },
            {
              "internalType": "enum SystemEnums.ChallengeStatus",
              "name": "status",
              "type": "uint8"
            },
            {
              "internalType": "uint256",
              "name": "quality_score",
              "type": "uint256"
            },
            {
              "internalType": "enum SystemEnums.DifficultyLevel",
              "name": "difficulty_level",
              "type": "uint8"
            },
            {
              "internalType": "uint256",
              "name": "solve_time",
              "type": "uint256"
            },
            {
              "internalType": "uint256",
              "name": "completed",
              "type": "uint256"
            }
          ],
          "internalType": "struct ChallengeManager.Challenge[]",
          "name": "",
          "type": "tuple[]"
        }
      ],
      "stateMutability": "view",
      "type": "function"
    },
    {
      "inputs": [
        {
          "internalType": "address",
          "name": "_moderator_address",
          "type": "address"
        }
      ],
      "name": "getChallengesByModerator",
      "outputs": [
        {
          "components": [
            {
              "internalType": "uint256",
              "name": "id",
              "type": "uint256"
            },
            {
              "internalType": "address",
              "name": "contributor",
              "type": "address"
            },
            {
              "internalType": "string",
              "name": "title_url",
              "type": "string"
            },
            {
              "internalType": "string",
              "name": "description_url",
              "type": "string"
            },
            {
              "internalType": "enum SystemEnums.Domain",
              "name": "category",
              "type": "uint8"
            },
            {
              "internalType": "uint256",
              "name": "contribute_at",
              "type": "uint256"
            },
            {
              "internalType": "enum SystemEnums.ChallengeStatus",
              "name": "status",
              "type": "uint8"
            },
            {
              "internalType": "uint256",
              "name": "quality_score",
              "type": "uint256"
            },
            {
              "internalType": "enum SystemEnums.DifficultyLevel",
              "name": "difficulty_level",
              "type": "uint8"
            },
            {
              "internalType": "uint256",
              "name": "solve_time",
              "type": "uint256"
            },
            {
              "internalType": "uint256",
              "name": "completed",
              "type": "uint256"
            }
          ],
          "internalType": "struct ChallengeManager.Challenge[]",
          "name": "",
          "type": "tuple[]"
        }
      ],
      "stateMutability": "view",
      "type": "function"
    },
    {
      "inputs": [
        {
          "internalType": "uint256",
          "name": "_challenge_id",
          "type": "uint256"
        },
        {
          "internalType": "address",
          "name": "_moderator_address",
          "type": "address"
        }
      ],
      "name": "getJoinReviewPoolStatus",
      "outputs": [
        {
          "internalType": "bool",
          "name": "",
          "type": "bool"
        }
      ],
      "stateMutability": "view",
      "type": "function"
    },
    {
      "inputs": [
        {
          "internalType": "address",
          "name": "_user_address",
          "type": "address"
        }
      ],
      "name": "getJoinedChallengesByUserForPreview",
      "outputs": [
        {
          "components": [
            {
              "internalType": "uint256",
              "name": "challenge_id",
              "type": "uint256"
            },
            {
              "internalType": "string",
              "name": "title_url",
              "type": "string"
            },
            {
              "internalType": "string",
              "name": "description_url",
              "type": "string"
            },
            {
              "internalType": "enum SystemEnums.Domain",
              "name": "domain",
              "type": "uint8"
            },
            {
              "internalType": "enum SystemEnums.SolutionProgress",
              "name": "progress",
              "type": "uint8"
            },
            {
              "internalType": "uint256",
              "name": "joined_at",
              "type": "uint256"
            },
            {
              "internalType": "uint256",
              "name": "score",
              "type": "uint256"
            }
          ],
          "internalType": "struct ChallengeManager.JoinedChallengesPreview[]",
          "name": "",
          "type": "tuple[]"
        }
      ],
      "stateMutability": "view",
      "type": "function"
    },
    {
      "inputs": [
        {
          "internalType": "uint256",
          "name": "challenge_id",
          "type": "uint256"
        },
        {
          "internalType": "address",
          "name": "_moderator_address",
          "type": "address"
        }
      ],
      "name": "getModeratorReviewOfChallenge",
      "outputs": [
        {
          "components": [
            {
              "internalType": "address",
              "name": "moderator",
              "type": "address"
            },
            {
              "internalType": "uint256",
              "name": "challenge_id",
              "type": "uint256"
            },
            {
              "internalType": "uint256",
              "name": "review_time",
              "type": "uint256"
            },
            {
              "internalType": "enum SystemEnums.QualityFactorAnswer",
              "name": "relevance",
              "type": "uint8"
            },
            {
              "internalType": "enum SystemEnums.QualityFactorAnswer",
              "name": "technical_correctness",
              "type": "uint8"
            },
            {
              "internalType": "enum SystemEnums.QualityFactorAnswer",
              "name": "completeness",
              "type": "uint8"
            },
            {
              "internalType": "enum SystemEnums.QualityFactorAnswer",
              "name": "clarity",
              "type": "uint8"
            },
            {
              "internalType": "enum SystemEnums.QualityFactorAnswer",
              "name": "originality",
              "type": "uint8"
            },
            {
              "internalType": "enum SystemEnums.QualityFactorAnswer",
              "name": "unbiased",
              "type": "uint8"
            },
            {
              "internalType": "enum SystemEnums.QualityFactorAnswer",
              "name": "plagiarism_free",
              "type": "uint8"
            },
            {
              "internalType": "enum SystemEnums.DifficultyLevel",
              "name": "suggested_difficulty",
              "type": "uint8"
            },
            {
              "internalType": "enum SystemEnums.Domain",
              "name": "suggested_category",
              "type": "uint8"
            },
            {
              "internalType": "uint256",
              "name": "suggested_solve_time",
              "type": "uint256"
            },
            {
              "internalType": "uint256",
              "name": "review_score",
              "type": "uint256"
            }
          ],
          "internalType": "struct ChallengeManager.ModeratorReview",
          "name": "",
          "type": "tuple"
        }
      ],
      "stateMutability": "view",
      "type": "function"
    },
    {
      "inputs": [],
      "name": "getPendingChallenges",
      "outputs": [
        {
          "components": [
            {
              "internalType": "uint256",
              "name": "id",
              "type": "uint256"
            },
            {
              "internalType": "address",
              "name": "contributor",
              "type": "address"
            },
            {
              "internalType": "string",
              "name": "title_url",
              "type": "string"
            },
            {
              "internalType": "string",
              "name": "description_url",
              "type": "string"
            },
            {
              "internalType": "enum SystemEnums.Domain",
              "name": "category",
              "type": "uint8"
            },
            {
              "internalType": "uint256",
              "name": "contribute_at",
              "type": "uint256"
            },
            {
              "internalType": "enum SystemEnums.ChallengeStatus",
              "name": "status",
              "type": "uint8"
            },
            {
              "internalType": "uint256",
              "name": "quality_score",
              "type": "uint256"
            },
            {
              "internalType": "enum SystemEnums.DifficultyLevel",
              "name": "difficulty_level",
              "type": "uint8"
            },
            {
              "internalType": "uint256",
              "name": "solve_time",
              "type": "uint256"
            },
            {
              "internalType": "uint256",
              "name": "completed",
              "type": "uint256"
            }
          ],
          "internalType": "struct ChallengeManager.Challenge[]",
          "name": "",
          "type": "tuple[]"
        }
      ],
      "stateMutability": "view",
      "type": "function"
    },
    {
      "inputs": [
        {
          "internalType": "uint256",
          "name": "_challenge_id",
          "type": "uint256"
        }
      ],
      "name": "getReviewPoolSize",
      "outputs": [
        {
          "internalType": "uint256",
          "name": "",
          "type": "uint256"
        }
      ],
      "stateMutability": "view",
      "type": "function"
    },
    {
      "inputs": [],
      "name": "getReviewQuorum",
      "outputs": [
        {
          "internalType": "uint256",
          "name": "",
          "type": "uint256"
        }
      ],
      "stateMutability": "pure",
      "type": "function"
    },
    {
      "inputs": [
        {
          "internalType": "uint256",
          "name": "_challenge_id",
          "type": "uint256"
        }
      ],
      "name": "joinReviewPool",
      "outputs": [],
      "stateMutability": "nonpayable",
      "type": "function"
    },
    {
      "inputs": [
        {
          "internalType": "address",
          "name": "_contributor",
          "type": "address"
        },
        {
          "internalType": "string",
          "name": "_title_url",
          "type": "string"
        },
        {
          "internalType": "string",
          "name": "_description_url",
          "type": "string"
        },
        {
          "internalType": "enum SystemEnums.Domain",
          "name": "_category",
          "type": "uint8"
        },
        {
          "internalType": "uint256",
          "name": "_contribute_at",
          "type": "uint256"
        },
        {
          "internalType": "enum SystemEnums.ChallengeStatus",
          "name": "_status",
          "type": "uint8"
        },
        {
          "internalType": "uint256",
          "name": "_quality_score",
          "type": "uint256"
        },
        {
          "internalType": "enum SystemEnums.DifficultyLevel",
          "name": "_difficulty_level",
          "type": "uint8"
        },
        {
          "internalType": "uint256",
          "name": "_solve_time",
          "type": "uint256"
        }
      ],
      "name": "seedChallenge",
      "outputs": [],
      "stateMutability": "nonpayable",
      "type": "function"
    },
    {
      "inputs": [
        {
          "internalType": "address",
          "name": "_address",
          "type": "address"
        }
      ],
      "name": "setReputationManagerAddress",
      "outputs": [],
      "stateMutability": "nonpayable",
      "type": "function"
    },
    {
      "inputs": [
        {
          "internalType": "address",
          "name": "_address",
          "type": "address"
        }
      ],
      "name": "setSolutionManagerAddress",
      "outputs": [],
      "stateMutability": "nonpayable",
      "type": "function"
    },
    {
      "inputs": [
        {
          "internalType": "uint256",
          "name": "_challenge_id",
          "type": "uint256"
        },
        {
          "internalType": "enum SystemEnums.QualityFactorAnswer",
          "name": "_relevance",
          "type": "uint8"
        },
        {
          "internalType": "enum SystemEnums.QualityFactorAnswer",
          "name": "_technical_correctness",
          "type": "uint8"
        },
        {
          "internalType": "enum SystemEnums.QualityFactorAnswer",
          "name": "_completeness",
          "type": "uint8"
        },
        {
          "internalType": "enum SystemEnums.QualityFactorAnswer",
          "name": "_clarity",
          "type": "uint8"
        },
        {
          "internalType": "enum SystemEnums.QualityFactorAnswer",
          "name": "_originality",
          "type": "uint8"
        },
        {
          "internalType": "enum SystemEnums.QualityFactorAnswer",
          "name": "_unbiased",
          "type": "uint8"
        },
        {
          "internalType": "enum SystemEnums.QualityFactorAnswer",
          "name": "_plagiarism_free",
          "type": "uint8"
        },
        {
          "internalType": "enum SystemEnums.DifficultyLevel",
          "name": "_suggested_difficulty",
          "type": "uint8"
        },
        {
          "internalType": "enum SystemEnums.Domain",
          "name": "_suggested_category",
          "type": "uint8"
        },
        {
          "internalType": "uint256",
          "name": "_suggested_solve_time",
          "type": "uint256"
        }
      ],
      "name": "submitModeratorReview",
      "outputs": [],
      "stateMutability": "nonpayable",
      "type": "function"
    },
    {
      "inputs": [],
      "name": "total_challenges",
      "outputs": [
        {
          "internalType": "uint256",
          "name": "",
          "type": "uint256"
        }
      ],
      "stateMutability": "view",
      "type": "function"
    },
    {
      "inputs": [
        {
          "internalType": "uint256",
          "name": "_challenge_id",
          "type": "uint256"
        }
      ],
      "name": "userCompleteChallenge",
      "outputs": [],
      "stateMutability": "nonpayable",
      "type": "function"
    },
    {
      "inputs": [
        {
          "internalType": "uint256",
          "name": "_challenge_id",
          "type": "uint256"
        },
        {
          "internalType": "string",
          "name": "_solution_base_txid",
          "type": "string"
        }
      ],
      "name": "userJoinChallenge",
      "outputs": [],
      "stateMutability": "nonpayable",
      "type": "function"
    }
  ],
  "bytecode": "0x60808060405234601a576000600d556133d590816100208239f35b600080fdfe608080604052600436101561001357600080fd5b600090813560e01c9081630939b81414612b67575080630f3356031461289d5780632b27d9211461253857806333ce96de146124fd57806345637d8f14611fef5780634c7b5a8e14611fd15780635057494a14611e065780635a14c94414611c0d5780635cf2249f14611bb5578063616e2e56146119e85780638758aabb14610ec857806392376e1314610d8e578063a821a06714610d5d578063be21f20c14610bee578063c361e8cf14610b96578063c80191b814610b48578063d2552064146108fb578063dd0e12ca14610740578063e2e682531461070b578063e94a7830146106e1578063f55dd32b1461069c578063f83eb275146106805763f8983b661461011e57600080fd5b3461067d57606036600319011261067d576004356001600160401b03811161067b5761014e903690600401612c48565b906024356001600160401b0381116106775761016e903690600401612c48565b9091600e604435101561067357600d5461018781612f44565b600d55426103e84202046103e8144215171561065f576040516101a981612dd0565b81815260208101903382526101bf368886612f69565b604082019081526101d1368789612f69565b60608301526101e560443560808401612e19565b426103e80260a083015260c0820189905260e082018990526101008201899052610120820189905261014082018990528389526020899052604089208251815592516001840180546001600160a01b0319166001600160a01b0392909216919091179055518051906001600160401b03821161058657819061026a6002860154612e66565b601f811161060e575b50602090601f83116001146105a5578b9261059a575b50508160011b916000199060031b1c19161760028301555b60608101518051906001600160401b0382116105865781906102c66003860154612e66565b601f8111610535575b50602090601f83116001146104cc578b926104c1575b50508160011b916000199060031b1c19161760038301555b6080810151600e8110156104ad5761048a959361047c93600a6101407f42672180e30fb0e2e6ae998046a0806bf23368de710977e1a63920574c378a1c9a98956104389560ff8019600487015416911617600485015560a0810151600585015561037760c082015161036e81612b9c565b60068601612faf565b60e081015160078501556008840161010082015161039481612b9c565b61039d81612b9c565b60ff8019835416911617905561012081015160098501550151910155338a5260026020526103ce8160408c20613044565b808a5260056020526103df8161301f565b6040516103ed606082612dec565b602b81527f4368616c6c656e67652023257320636f6e74726962757465642062792025732060208201526a30ba1012b9903bb4ba341d60a91b60408201526103e842029133916132f2565b610454610443613067565b61044e368a85612f69565b9061334c565b61046a61045f6130a2565b61044e368688612f69565b60405196608088526080880191613217565b918583036020870152613217565b9161049a60408201604435612bfa565b6103e8420260608201528033930390a280f35b634e487b7160e01b89526021600452602489fd5b0151905038806102e5565b600386018c52818c209250601f1984168c5b81811061051d5750908460019594939210610504575b505050811b0160038301556102fd565b015160001960f88460031b161c191690553880806104f4565b929360206001819287860151815501950193016104de565b909150600385018b5260208b20601f840160051c81016020851061057f575b90849392915b8d601f840160051c83018210610572575050506102cf565b815585945060010161055a565b5080610554565b634e487b7160e01b8a52604160045260248afd5b015190503880610289565b600286018c52818c209250601f1984168c5b8181106105f657509084600195949392106105dd575b505050811b0160028301556102a1565b015160001960f88460031b161c191690553880806105cd565b929360206001819287860151815501950193016105b7565b909150600285018b5260208b20601f840160051c810160208510610658575b90849392915b8d601f840160051c8301821061064b57505050610273565b8155859450600101610633565b508061062d565b634e487b7160e01b86526011600452602486fd5b8480fd5b8380fd5b505b80fd5b503461067d578060031936011261067d57602060405160038152f35b503461067d57602036600319011261067d576106c9600260406106dd936004358152806020522001612ea0565b604051918291602083526020830190612c07565b0390f35b503461067d57602036600319011261067d5760406020916004358152600183522054604051908152f35b503461067d57602036600319011261067d5760ff60046040602093823581528085522001541661073e6040518092612bfa565bf35b503461067d578060031936011261067d5760085461075d81613130565b9082600854905b8281106107dd576106dd846107d18782519050604051610785606082612dec565b603281527f536d61727420636f6e74726163742025732068616420666574636820257320616020820152717070726f766564206368616c6c656e67657360701b60408201523390613238565b60405191829182612d23565b818110156108e7577ff3f7a9fe364faab93b216da50a3214154f22a0a2b415b23a84c8169e8b636ee3810154600386901b1c855260208590526040808620905160019291600a9061082d83612dd0565b80548352848060a01b038582015416602084015261084d60028201612ea0565b604084015261085e60038201612ea0565b606084015261087760ff60048301541660808501612e19565b600581015460a084015260ff60068201541661089281612b9c565b60c0840152600781015460e084015260ff6008820154166108b281612b9c565b610100840152600981015461012084015201546101408201526108d58287612e3c565b526108e08186612e3c565b5001610764565b634e487b7160e01b85526032600452602485fd5b503461067d57604036600319011261067d576004356024356001600160401b038111610aef5761092f903690600401612c48565b600d5483101561067757600b5460405163846900cf60e01b8152336004820152602481018590526001600160a01b039091169190602081604481865afa908115610b3d578691610afe575b50610673576103e84202924284046103e8144215171561065f5790829186933b15610677576109d69284928360405180968195829463d82ff2e960e01b84523360048501528c6024850152608060448501526084840191613217565b89606483015203925af18015610af357610ada575b50503383526004602052610a028260408520613044565b600080610a71610a91604051610a19606082612dec565b602181527f55736572202573206a6f696e6564206368616c6c656e676520257320617420256020820152607360f81b6040820152604051928391637c7a8d8f60e11b60208401526080602484015260a4830190612c07565b33604483015287606483015286608483015203601f198101835282612dec565b6020815191016a636f6e736f6c652e6c6f675afa5060405191825260208201527fc9e3de16af1f601c85f1f98f6bc173cd0a8b0fcd25dcd67893470617830fa5f960403392a280f35b81610ae491612dec565b610aef5782386109eb565b8280fd5b6040513d84823e3d90fd5b90506020813d602011610b35575b81610b1960209383612dec565b81010312610b3157518015158103610b31573861097a565b8580fd5b3d9150610b0c565b6040513d88823e3d90fd5b503461067d57604036600319011261067d5760046040610b66612bbc565b9282358152600160205220019060018060a01b0316600052602052602060ff604060002054166040519015158152f35b503461067d57602036600319011261067d576001600160a01b03610bb8612bd7565b16610bc48115156131cc565b806001600160601b0360a01b600a541617600a556001600160601b0360a01b600954161760095580f35b503461067d578060031936011261067d57600654610c0b81613130565b91805b828110610c77576106dd846107d18151604051610c2c606082612dec565b603181527f536d61727420636f6e7472616374202573206861642066657463682025732070602082015270656e64696e67206368616c6c656e67657360781b60408201523390613238565b80610c83600192612fc7565b90549060031b1c83528260205260408320600a60405191610ca383612dd0565b80548352848060a01b0385820154166020840152610cc360028201612ea0565b6040840152610cd460038201612ea0565b6060840152610ced60ff60048301541660808501612e19565b600581015460a084015260ff600682015416610d0881612b9c565b60c0840152600781015460e084015260ff600882015416610d2881612b9c565b61010084015260098101546101208401520154610140820152610d4b8287612e3c565b52610d568186612e3c565b5001610c0e565b503461067d57602036600319011261067d5760ff600160406020936004358152828552200154166040519015158152f35b503461067d57602036600319011261067d5760406106dd91600435610db16130dd565b50610dfd818451610dc3606082612dec565b602181527f55736572202573206861642066657463686564206368616c6c656e67652023256020820152607360f81b868201523390613238565b81528060205220600a60405191610e1383612dd0565b8054835260018101546001600160a01b03166020840152610e3660028201612ea0565b6040840152610e4760038201612ea0565b6060840152610e6060ff60048301541660808501612e19565b600581015460a084015260ff600682015416610e7b81612b9c565b60c0840152600781015460e084015260ff600882015416610e9b81612b9c565b61010084015260098101546101208401520154610140820152604051918291602083526020830190612c75565b503461067d5761016036600319011261067d576002602435101561067d576002604435101561067d576002606435101561067d576002608435101561067d57600260a435101561067d5760c435600281101561067b57600260e435101561067b57600361010435101561067b57600e61012435101561067b5760043582526001602052610f5f60ff60016040852001541615613180565b60043582526001602052604082209060018060a01b033316835260048201602052600160ff6040852054161515036119955733835260038201602052604083206002015415611980575b610ff0610fe782610fe2610fd9610fd0610fc760443560243561320a565b6064359061320a565b6084359061320a565b60a4359061320a565b61320a565b60e4359061320a565b9060648202918083046064149015171561196c576040519061101182612d83565b33825260208201926004358452604083014281526007606085019261103860243585612e0d565b611083608087019561104c60443588612e0d565b61105b60643560a08a01612e0d565b61106a60843560c08a01612e0d565b61107960a43560e08a01612e0d565b6101008801612e0d565b61109360e4356101208801612e0d565b61109f61010435612b9c565b610104356101408701526110ba610124356101608801612e19565b61014435610180870152046101a08501523387526003860160205260408720845181546001600160a01b0319166001600160a01b0391909116178155945160018601555160028086019190915590519190821015611958576003840154905160028110156119445760a084015160028110156119305760c08501519260028410156104ad5760e086015190600282101561191c57610100870151916002831015611908576101208801519460028610156118f4576101408901519661117e88612b9c565b61118788612b9c565b6101608a0151600e8110156118e0576101a099979466ff000000000000948f60059d9b999567ff00000000000000999563ff00000060ff60401b65ff00000000009764ff00000000955060401b169d60ff60401b199962ff00008e19988d199661ff008c19958a199360ff891992169062ffffff191617169160081b1617169160101b1617169160181b1617169160201b1617169160281b1617169160301b16179160381b161717600385015561018081015160048501550151910155600360028201541015611255575080f35b600181019060ff82541661189b576004358352826020526040832090839084859260018060a01b036009541693600486019460ff8654168554905b81841061179c5750505050811561178857049060609386806113146113306040516112bb8a82612dec565b602381527f417665726167652073636f726520666f72206368616c6c656e6765202325733a60208201526220257360e81b604082015260405192839163ca47c4eb60e01b60208401528b60248401526084830190612c07565b600435604483015288606483015203601f198101835282612dec565b6020815191016a636f6e736f6c652e6c6f675afa50605083106117745760068101805460ff19166001179055600435808852600760205261137090612ffa565b6007810192835560043587526005602052865b600654808210156117685761139782612fc7565b60043591549060031b1c146113af5750600101611383565b60009792939495969719810190811161175457906113df6113d26113f893612fc7565b90549060031b1c91612fc7565b90919082549060031b91821b91600019901b1916179055565b6006548015611740576000190161140e81612fc7565b8154906000199060031b1b191690556006555b600160ff198254161790558560ff600683015416918454926040519061144681612b9c565b81528360208201527f1a20d608d2289bdfc4581c5a0722f4636bd21c1610f2485c20a4b20fd1f57a53604060043592a2600a546001600160a01b0316611491575b5050505050505080f35b818061151a6115306040516114a68c82612dec565b603c81527f457865637574696e672072657075746174696f6e2075706461746520666f722060208201527f636f6e7472696275746f72206f66206368616c6c656e676520232573000000006040820152604051928391632d839cb360e21b6020840152604060248401526064830190612c07565b600435604483015203601f198101835282612dec565b6020815191016a636f6e736f6c652e6c6f675afa5060018060a01b03600954169260018060a01b0360018301541660ff6008818a54169401541691853b156106735761159c9560c49386926040519889978896630164ac6560e41b885260048801526024870190612bfa565b604485015260506064850152600a60848501526115b881612b9c565b60a48401525af18015610b3d5761172a575b50908491825b81548110156117185761164a6115e68284612fe2565b905460405160039290921b1c6001600160a01b0316906116068982612dec565b602c81527f457865637574696e672072657075746174696f6e2075706461746520666f722060208201526b6d6f64657261746f7220257360a01b60408201526132a3565b6116548183612fe2565b9054600391821b1c6001600160a01b0390811660008181529285016020526040909220600954885487546005909301549294919093169260ff169190833b156117145788809460c4936116c2976040519889978896631bb0c13760e21b885260048801526024870190612bfa565b60448501526064840152603c6084840152600a60a48401525af19081156117095785916116f4575b50506001016115d0565b816116fe91612dec565b6106775783386116ea565b6040513d87823e3d90fd5b8880fd5b50505050505038808080808581611487565b856117389196929396612dec565b9390386115ca565b634e487b7160e01b88526031600452602488fd5b634e487b7160e01b89526011600452602489fd5b50509091929394611421565b60068101805460ff19166002179055611370565b634e487b7160e01b87526012600452602487fd5b90919294936117ab8688612fe2565b9054600391821b1c6001600160a01b0316808d529088016020526040808d209051630cf571c160e11b8152600481019290925291906117ed6024820185612bfa565b602081604481895afa908115611890578d9161185b575b50600101918260011161184757600501549082820291808304841490151715611847579161183761183d9260019461320a565b9661320a565b9501929190611290565b634e487b7160e01b8d52601160045260248dfd5b90506020813d8211611888575b8161187560209383612dec565b81010312611884575138611804565b8c80fd5b3d9150611868565b6040513d8f823e3d90fd5b60405162461bcd60e51b815260206004820152601b60248201527f4368616c6c656e676520616c72656164792066696e616c697a656400000000006044820152606490fd5b634e487b7160e01b8e52602160045260248efd5b634e487b7160e01b8c52602160045260248cfd5b634e487b7160e01b8b52602160045260248bfd5b634e487b7160e01b8a52602160045260248afd5b634e487b7160e01b88526021600452602488fd5b634e487b7160e01b87526021600452602487fd5b634e487b7160e01b86526021600452602486fd5b634e487b7160e01b84526011600452602484fd5b6002820161198e8154612f44565b9055610fa9565b60405162461bcd60e51b815260206004820152602560248201527f596f752068617665206e6f74206a6f696e6564207468697320726576696577206044820152643837b7b61760d91b6064820152608490fd5b503461067d57602036600319011261067d57611a02612bd7565b60018060a01b0381168252600260205260408220916040518084602082965493848152019084526020842092845b818110611b9c575050611a4592500384612dec565b611a4f8351613130565b90805b8451811015611b3c5780611a6860019287612e3c565b5183528260205260408320600a60405191611a8283612dd0565b80548352848060a01b0385820154166020840152611aa260028201612ea0565b6040840152611ab360038201612ea0565b6060840152611acc60ff60048301541660808501612e19565b600581015460a084015260ff600682015416611ae781612b9c565b60c0840152600781015460e084015260ff600882015416611b0781612b9c565b61010084015260098101546101208401520154610140820152611b2a8286612e3c565b52611b358185612e3c565b5001611a52565b506107d191926106dd94519150604051611b57606082612dec565b602d81527f5573657220257320686164206665746368656420257320636f6e74726962757460208201526c6564206368616c6c656e67657360981b6040820152613238565b8454835260019485019488945060209093019201611a30565b503461067d57602036600319011261067d576001600160a01b03611bd7612bd7565b16611be38115156131cc565b806001600160601b0360a01b600c541617600c556001600160601b0360a01b600b541617600b5580f35b503461067d57602036600319011261067d57600435908181526001602052611c3f60ff60016040842001541615613180565b81815260016020526040812091600383541015611dc857338252600483016020819052604083205460ff16611d71573383526003602052611c838260408520613044565b835493600160401b851015611d5d5784611ca6916001611d5a9697018155612fe2565b81546001600160a01b0360039290921b91821b1916339182901b1790915580855260209190915260408420805460ff19166001179055817f07fe5c562bb72cc8709dc10987f69acf04ba0d45c871d6c281e32df878063dcd8580a3604051611d0f606082612dec565b603181527f4d6f64657261746f72202573206a6f696e65642072657669657720706f6f6c20602082015270666f72206368616c6c656e67652023257360781b60408201523390613238565b80f35b634e487b7160e01b84526041600452602484fd5b60405162461bcd60e51b815260206004820152602960248201527f596f75206861766520616c7265616479206a6f696e656420746869732072657660448201526834b2bb903837b7b61760b91b6064820152608490fd5b60405162461bcd60e51b815260206004820152601660248201527513585e081b5bd9195c985d1bdc9cc81c995858da195960521b6044820152606490fd5b503461067d57602036600319011261067d57611e20612bd7565b60018060a01b0381168252600360205260408220916040518084602082965493848152019084526020842092845b818110611fb8575050611e6392500384612dec565b611e6d8351613130565b90805b8451811015611f5a5780611e8660019287612e3c565b5183528260205260408320600a60405191611ea083612dd0565b80548352848060a01b0385820154166020840152611ec060028201612ea0565b6040840152611ed160038201612ea0565b6060840152611eea60ff60048301541660808501612e19565b600581015460a084015260ff600682015416611f0581612b9c565b60c0840152600781015460e084015260ff600882015416611f2581612b9c565b61010084015260098101546101208401520154610140820152611f488286612e3c565b52611f538185612e3c565b5001611e70565b506107d191926106dd94519150604051611f75606082612dec565b602b81527f55736572202573206861642066657463686564202573206d6f6465726174656460208201526a206368616c6c656e67657360a81b6040820152613238565b8454835260019485019488945060209093019201611e4e565b503461067d578060031936011261067d576020600d54604051908152f35b503461067d5761012036600319011261067d5761200a612bd7565b906024356001600160401b03811161067b5761202a903690600401612c48565b926044356001600160401b0381116106775761204a903690600401612c48565b92909160643590600e821015610b3157600360a4351015610b315760e43560038110156124f957600d549261207e84612f44565b600d556040519061208e82612dd0565b8482526001600160a01b03841660208301908152926120d26120b1368d8a612f69565b92604085019384526120c4368c8c612f69565b606086015260808501612e19565b60843560a08401526120e560a435612b9c565b60a43560c084015260c43560e08401526120fe81612b9c565b6101008301526101043561012083015261014082018990528489526020899052604089208251815592516001840180546001600160a01b0319166001600160a01b0392909216919091179055518051906001600160401b03821161058657819061216b6002860154612e66565b601f81116124a8575b50602090601f831160011461243f578b92612434575b50508160011b916000199060031b1c19161760028301555b60608101518051906001600160401b0382116105865781906121c76003860154612e66565b601f81116123e3575b50602090601f831160011461237a578b9261236f575b50508160011b916000199060031b1c19161760038301555b6080810151600e8110156104ad5784899a946122b861233c9760408d61044e98611d5a9f61014061044e9f9e9a61232c9a600a935060ff8019600487015416911617600485015560a0810151600585015561226060c082015161036e81612b9c565b60e081015160078501556008840161010082015161227d81612b9c565b61228681612b9c565b60ff801983541691161790556101208101516009850155015191015560018060a01b0385168152600260205220613044565b6122c360a435612b9c565b60a43561234457818c5260056020526122db8261301f565b604051916122ea606084612dec565b602683527f4368616c6c656e67652023257320736565646564206279202573206174202573602084015265103bb4ba341d60d11b6040840152608435926132f2565b612334613067565b923691612f69565b6123346130a2565b61234f60a435612b9c565b600160a435036122db57818c52600760205261236a82612ffa565b6122db565b0151905038806121e6565b600386018c52818c209250601f1984168c5b8181106123cb57509084600195949392106123b2575b505050811b0160038301556121fe565b015160001960f88460031b161c191690553880806123a2565b9293602060018192878601518155019501930161238c565b909150600385018b5260208b20601f840160051c81016020851061242d575b90849392915b8d601f840160051c83018210612420575050506121d0565b8155859450600101612408565b5080612402565b01519050388061218a565b600286018c52818c209250601f1984168c5b8181106124905750908460019594939210612477575b505050811b0160028301556121a2565b015160001960f88460031b161c19169055388080612467565b92936020600181928786015181550195019301612451565b909150600285018b5260208b20601f840160051c8101602085106124f2575b90849392915b8d601f840160051c830182106124e557505050612174565b81558594506001016124cd565b50806124c7565b8680fd5b503461067d57602036600319011261067d57600435600d5481101561067b57815280602052600a60408220016125338154612f44565b905580f35b503461067d57602036600319011261067d57612552612bd7565b6001600160a01b038116825260046020908152604080842090518154808252918552828520909392840191855b8181106128875750505082612595910383612dec565b8151926125a184612e25565b936125af6040519586612dec565b8085526125be601f1991612e25565b01815b81811061283e575050600b546001600160a01b031691815b8451811015612709576125ec8186612e3c565b518084526020849052604080852090516320cfeb4f60e11b81526001600160a01b038516600482015260248101839052906060826044818a5afa918215610b3d578691879188946126b7575b5080612671600360ff600461267f9501541692604051986126588a612db5565b895261266660028201612ea0565b60208a015201612ea0565b604087015260608601612e19565b600481101561194457608084015260a083015260c0820152600191906126a58289612e3c565b526126b08188612e3c565b50016125d9565b92509250506060813d8211612701575b816126d460609383612dec565b81010312610b3157805160208201519160048310156126fd57604001519290919061267f612638565b8780fd5b3d91506126c7565b509084612768606093604051612720606082612dec565b603081527f557365722025732068616420666574636865642070726576696577206f66206a60208201526f6f696e6564206368616c6c656e67657360801b60408201526132a3565b60405191602083019060208452825180925260408401602060408460051b870101940195825b84841061279b5786860387f35b9091929394603f19878203018452875190815181526127de6127cc602084015160e0602085015260e0840190612c07565b60408401518382036040850152612c07565b916127ef8582015186840190612bfa565b6080810151600481101561282a57608083015260a0808201519083015260c0908101519101526020978801979095946001019301919061278e565b634e487b7160e01b85526021600452602485fd5b60209060409594955161285081612db5565b848152606083820152606060408201528460608201528460808201528460a08201528460c0820152828289010152019392936125c1565b825484526020909301926001928301920161257f565b503461067d57604036600319011261067d576004356128ba612bbc565b90826040516128c881612d83565b8181528160208201528160408201528160608201528160808201528160a08201528160c08201528160e082015281610100820152816101208201528161014082015281610160820152816101808201526101a0015260405161292b606082612dec565b602b8152602081017f5573657220257320686164206665746368656420726576696577206f6620636890528183604083016a616c6c656e67652023257360a81b905261297692613238565b825260016020526040822060030190600160a01b60019003168252602052604090206040516129a481612d83565b81546001600160a01b03168152600182015460208201908152600283015460408301908152600384015491939190606084016129e360ff841682612e0d565b608085018360081c60ff166129f89082612e0d565b60a086018460101c60ff16612a0d9082612e0d565b60c087018560181c60ff16612a229082612e0d565b60e08801918660201c60ff16612a389084612e0d565b6101008901938760281c60ff16612a4f9086612e0d565b6101208a01958860301c60ff16612a669088612e0d565b8860381c60ff16976101408c0198612a7d81612b9c565b89526101608c019960401c60ff16612a95908b612e19565b60048b01549a6101808d019b8c52600501549b6101a081019c8d526040519d8e91600160a01b6001900390511682525190602001525160408d01525160608c01612ade91612bed565b5160808b01612aec91612bed565b5160a08a01612afa91612bed565b5160c08901612b0891612bed565b5160e08801612b1691612bed565b516101008701612b2591612bed565b516101208601612b3491612bed565b51612b3e81612b9c565b610140850152516101608401612b5391612bfa565b51610180830152516101a08201526101c090f35b90503461067b57602036600319011261067b5760ff60086040602094600435815280865220015416612b9881612b9c565b8152f35b60031115612ba657565b634e487b7160e01b600052602160045260246000fd5b602435906001600160a01b0382168203612bd257565b600080fd5b600435906001600160a01b0382168203612bd257565b906002821015612ba65752565b90600e821015612ba65752565b919082519283825260005b848110612c33575050826000602080949584010152601f8019910116010190565b80602080928401015182828601015201612c12565b9181601f84011215612bd2578235916001600160401b038311612bd25760208381860195010111612bd257565b908151815260018060a01b03602083015116602082015261014080612cc0612cae60408601516101606040870152610160860190612c07565b60608601518582036060870152612c07565b93612cd360808201516080860190612bfa565b60a081015160a085015260c0810151612ceb81612b9c565b60c085015260e081015160e0850152610100810151612d0981612b9c565b610100850152610120810151610120850152015191015290565b602081016020825282518091526040820191602060408360051b8301019401926000915b838310612d5657505050505090565b9091929394602080612d74600193603f198682030187528951612c75565b97019301930191939290612d47565b6101c081019081106001600160401b03821117612d9f57604052565b634e487b7160e01b600052604160045260246000fd5b60e081019081106001600160401b03821117612d9f57604052565b61016081019081106001600160401b03821117612d9f57604052565b90601f801991011681019081106001600160401b03821117612d9f57604052565b6002821015612ba65752565b600e821015612ba65752565b6001600160401b038111612d9f5760051b60200190565b8051821015612e505760209160051b010190565b634e487b7160e01b600052603260045260246000fd5b90600182811c92168015612e96575b6020831014612e8057565b634e487b7160e01b600052602260045260246000fd5b91607f1691612e75565b9060405191826000825492612eb484612e66565b8084529360018116908115612f225750600114612edb575b50612ed992500383612dec565b565b90506000929192526020600020906000915b818310612f06575050906020612ed99282010138612ecc565b6020919350806001915483858901015201910190918492612eed565b905060209250612ed994915060ff191682840152151560051b82010138612ecc565b6000198114612f535760010190565b634e487b7160e01b600052601160045260246000fd5b9291926001600160401b038211612d9f5760405191612f92601f8201601f191660200184612dec565b829481845281830111612bd2578281602093846000960137010152565b90612fb981612b9c565b60ff80198354169116179055565b600654811015612e5057600660005260206000200190600090565b8054821015612e505760005260206000200190600090565b60085490600160401b821015612d9f576113df826001612ed994016008556008612fe2565b60065490600160401b821015612d9f576113df826001612ed994016006556006612fe2565b90815491600160401b831015612d9f57826113df916001612ed995018155612fe2565b60405190613076604083612dec565b601782527f2d205469746c652075726c20202020202020203a2025730000000000000000006020830152565b604051906130b1604083612dec565b601782527f2d204465736372697074696f6e2075726c20203a2025730000000000000000006020830152565b604051906130ea82612dd0565b600061014083828152826020820152606060408201526060808201528260808201528260a08201528260c08201528260e082015282610100820152826101208201520152565b9061313a82612e25565b6131476040519182612dec565b8281528092613158601f1991612e25565b019060005b82811061316957505050565b6020906131746130dd565b8282850101520161315d565b1561318757565b60405162461bcd60e51b815260206004820152601b60248201527f4368616c6c656e676520616c72656164792066696e616c6973656400000000006044820152606490fd5b156131d357565b60405162461bcd60e51b815260206004820152600f60248201526e496e76616c6964206164647265737360881b6044820152606490fd5b91908201809211612f5357565b908060209392818452848401376000828201840152601f01601f1916010190565b61328c61326991600094938594604051948593630d26b92560e01b6020860152606060248601526084850190612c07565b6001600160a01b039092166044840152606483015203601f198101835282612dec565b6020815191016a636f6e736f6c652e6c6f675afa50565b6132d361328c60009392849360405193849263319af33360e01b6020850152604060248501526064840190612c07565b6001600160a01b0391909116604483015203601f198101835282612dec565b61328c906133239260009586956040519586946327827ee360e11b60208701526080602487015260a4860190612c07565b60448501939093526001600160a01b03166064840152608483015203601f198101835282612dec565b61337f61328c600093926133918594604051948593634b5c427760e01b6020860152604060248601526064850190612c07565b83810360231901604485015290612c07565b03601f198101835282612dec56fea264697066735822122093a1c505bfdad673fb9771bb70f3e85bb8c306b87698a4099e0297bbed591c4a64736f6c634300081c0033",
  "linkReferences": {},
  "deployedLinkReferences": {}
}