{
  "_format": "hh-sol-artifact-1",
  "contractName": "ChallengeManager",
  "sourceName": "contracts/ChallengeManager.sol",
  "abi": [
    {
      "anonymous": false,
      "inputs": [
        {
          "indexed": true,
          "internalType": "address",
          "name": "contributor",
          "type": "address"
        },
        {
          "indexed": false,
          "internalType": "string",
          "name": "titleUrl",
          "type": "string"
        },
        {
          "indexed": false,
          "internalType": "string",
          "name": "descriptionUrl",
          "type": "string"
        },
        {
          "indexed": false,
          "internalType": "uint256",
          "name": "category",
          "type": "uint256"
        },
        {
          "indexed": false,
          "internalType": "uint256",
          "name": "contributeAt",
          "type": "uint256"
        }
      ],
      "name": "ChallengeContributed",
      "type": "event"
    },
    {
      "inputs": [
        {
          "internalType": "uint256",
          "name": "",
          "type": "uint256"
        }
      ],
      "name": "challenges",
      "outputs": [
        {
          "internalType": "address",
          "name": "contributor",
          "type": "address"
        },
        {
          "internalType": "string",
          "name": "titleUrl",
          "type": "string"
        },
        {
          "internalType": "string",
          "name": "descriptionUrl",
          "type": "string"
        },
        {
          "internalType": "uint256",
          "name": "category",
          "type": "uint256"
        },
        {
          "internalType": "uint256",
          "name": "contributeAt",
          "type": "uint256"
        },
        {
          "internalType": "enum ChallengeManager.ChallengeStatus",
          "name": "status",
          "type": "uint8"
        }
      ],
      "stateMutability": "view",
      "type": "function"
    },
    {
      "inputs": [
        {
          "internalType": "string",
          "name": "titleUrl",
          "type": "string"
        },
        {
          "internalType": "string",
          "name": "descriptionUrl",
          "type": "string"
        },
        {
          "internalType": "uint256",
          "name": "category",
          "type": "uint256"
        },
        {
          "internalType": "uint256",
          "name": "contributeAt",
          "type": "uint256"
        }
      ],
      "name": "contributeChallenge",
      "outputs": [],
      "stateMutability": "nonpayable",
      "type": "function"
    },
    {
      "inputs": [
        {
          "internalType": "address",
          "name": "",
          "type": "address"
        },
        {
          "internalType": "uint256",
          "name": "",
          "type": "uint256"
        }
      ],
      "name": "contributorToChallenges",
      "outputs": [
        {
          "internalType": "uint256",
          "name": "",
          "type": "uint256"
        }
      ],
      "stateMutability": "view",
      "type": "function"
    },
    {
      "inputs": [
        {
          "internalType": "address",
          "name": "contributor_address",
          "type": "address"
        }
      ],
      "name": "getChallengesByContributor",
      "outputs": [
        {
          "components": [
            {
              "internalType": "address",
              "name": "contributor",
              "type": "address"
            },
            {
              "internalType": "string",
              "name": "titleUrl",
              "type": "string"
            },
            {
              "internalType": "string",
              "name": "descriptionUrl",
              "type": "string"
            },
            {
              "internalType": "uint256",
              "name": "category",
              "type": "uint256"
            },
            {
              "internalType": "uint256",
              "name": "contributeAt",
              "type": "uint256"
            },
            {
              "internalType": "enum ChallengeManager.ChallengeStatus",
              "name": "status",
              "type": "uint8"
            }
          ],
          "internalType": "struct ChallengeManager.Challenge[]",
          "name": "",
          "type": "tuple[]"
        }
      ],
      "stateMutability": "view",
      "type": "function"
    },
    {
      "inputs": [],
      "name": "getPendingChallenges",
      "outputs": [
        {
          "components": [
            {
              "internalType": "address",
              "name": "contributor",
              "type": "address"
            },
            {
              "internalType": "string",
              "name": "titleUrl",
              "type": "string"
            },
            {
              "internalType": "string",
              "name": "descriptionUrl",
              "type": "string"
            },
            {
              "internalType": "uint256",
              "name": "category",
              "type": "uint256"
            },
            {
              "internalType": "uint256",
              "name": "contributeAt",
              "type": "uint256"
            },
            {
              "internalType": "enum ChallengeManager.ChallengeStatus",
              "name": "status",
              "type": "uint8"
            }
          ],
          "internalType": "struct ChallengeManager.Challenge[]",
          "name": "",
          "type": "tuple[]"
        }
      ],
      "stateMutability": "view",
      "type": "function"
    },
    {
      "inputs": [],
      "name": "pendingChallenges",
      "outputs": [
        {
          "internalType": "uint256",
          "name": "",
          "type": "uint256"
        }
      ],
      "stateMutability": "view",
      "type": "function"
    },
    {
      "inputs": [],
      "name": "totalChallenges",
      "outputs": [
        {
          "internalType": "uint256",
          "name": "",
          "type": "uint256"
        }
      ],
      "stateMutability": "view",
      "type": "function"
    }
  ],
  "bytecode": "0x608060405260006001556000600255348015601957600080fd5b50611bb9806100296000396000f3fe608060405234801561001057600080fd5b506004361061007d5760003560e01c8063b8c072e31161005b578063b8c072e314610117578063be21f20c14610135578063d17defcb14610153578063f9fbadc6146101715761007d565b8063616e2e56146100825780638f1d3776146100b2578063a4bee171146100e7575b600080fd5b61009c6004803603810190610097919061104c565b61018d565b6040516100a991906112fa565b60405180910390f35b6100cc60048036038101906100c79190611348565b6104e0565b6040516100de969594939291906113ec565b60405180910390f35b61010160048036038101906100fc919061145b565b610659565b60405161010e919061149b565b60405180910390f35b61011f61068a565b60405161012c919061149b565b60405180910390f35b61013d610690565b60405161014a91906112fa565b60405180910390f35b61015b610985565b604051610168919061149b565b60405180910390f35b61018b6004803603810190610186919061151b565b61098b565b005b60606000600360008473ffffffffffffffffffffffffffffffffffffffff1673ffffffffffffffffffffffffffffffffffffffff16815260200190815260200160002080548060200260200160405190810160405280929190818152602001828054801561021a57602002820191906000526020600020905b815481526020019060010190808311610206575b505050505090506000815167ffffffffffffffff81111561023e5761023d6115c2565b5b60405190808252806020026020018201604052801561027757816020015b610264610f7c565b81526020019060019003908161025c5790505b50905060005b82518110156104b15760008084838151811061029c5761029b6115f1565b5b602002602001015181526020019081526020016000206040518060c00160405290816000820160009054906101000a900473ffffffffffffffffffffffffffffffffffffffff1673ffffffffffffffffffffffffffffffffffffffff1673ffffffffffffffffffffffffffffffffffffffff1681526020016001820180546103239061164f565b80601f016020809104026020016040519081016040528092919081815260200182805461034f9061164f565b801561039c5780601f106103715761010080835404028352916020019161039c565b820191906000526020600020905b81548152906001019060200180831161037f57829003601f168201915b505050505081526020016002820180546103b59061164f565b80601f01602080910402602001604051908101604052809291908181526020018280546103e19061164f565b801561042e5780601f106104035761010080835404028352916020019161042e565b820191906000526020600020905b81548152906001019060200180831161041157829003601f168201915b5050505050815260200160038201548152602001600482015481526020016005820160009054906101000a900460ff1660028111156104705761046f61115d565b5b60028111156104825761048161115d565b5b81525050828281518110610499576104986115f1565b5b6020026020010181905250808060010191505061027d565b506104d66040518060600160405280602d8152602001611b57602d9139858451610d59565b8092505050919050565b60006020528060005260406000206000915090508060000160009054906101000a900473ffffffffffffffffffffffffffffffffffffffff16908060010180546105299061164f565b80601f01602080910402602001604051908101604052809291908181526020018280546105559061164f565b80156105a25780601f10610577576101008083540402835291602001916105a2565b820191906000526020600020905b81548152906001019060200180831161058557829003601f168201915b5050505050908060020180546105b79061164f565b80601f01602080910402602001604051908101604052809291908181526020018280546105e39061164f565b80156106305780601f1061060557610100808354040283529160200191610630565b820191906000526020600020905b81548152906001019060200180831161061357829003601f168201915b5050505050908060030154908060040154908060050160009054906101000a900460ff16905086565b6003602052816000526040600020818154811061067557600080fd5b90600052602060002001600091509150505481565b60025481565b6060600060025467ffffffffffffffff8111156106b0576106af6115c2565b5b6040519080825280602002602001820160405280156106e957816020015b6106d6610f7c565b8152602001906001900390816106ce5790505b50905060005b600154811015610959576000600281111561070d5761070c61115d565b5b60008083815260200190815260200160002060050160009054906101000a900460ff1660028111156107425761074161115d565b5b0361094c576000808281526020019081526020016000206040518060c00160405290816000820160009054906101000a900473ffffffffffffffffffffffffffffffffffffffff1673ffffffffffffffffffffffffffffffffffffffff1673ffffffffffffffffffffffffffffffffffffffff1681526020016001820180546107ca9061164f565b80601f01602080910402602001604051908101604052809291908181526020018280546107f69061164f565b80156108435780601f1061081857610100808354040283529160200191610843565b820191906000526020600020905b81548152906001019060200180831161082657829003601f168201915b5050505050815260200160028201805461085c9061164f565b80601f01602080910402602001604051908101604052809291908181526020018280546108889061164f565b80156108d55780601f106108aa576101008083540402835291602001916108d5565b820191906000526020600020905b8154815290600101906020018083116108b857829003601f168201915b5050505050815260200160038201548152602001600482015481526020016005820160009054906101000a900460ff1660028111156109175761091661115d565b5b60028111156109295761092861115d565b5b815250508282815181106109405761093f6115f1565b5b60200260200101819052505b80806001019150506106ef565b5061097e604051806060016040528060338152602001611b2460339139338351610d59565b8091505090565b60015481565b6000600160008154809291906109a0906116af565b9190505590506040518060c001604052803373ffffffffffffffffffffffffffffffffffffffff16815260200188888080601f016020809104026020016040519081016040528093929190818152602001838380828437600081840152601f19601f82011690508083019250505050505050815260200186868080601f016020809104026020016040519081016040528093929190818152602001838380828437600081840152601f19601f82011690508083019250505050505050815260200184815260200183815260200160006002811115610a8157610a8061115d565b5b81525060008083815260200190815260200160002060008201518160000160006101000a81548173ffffffffffffffffffffffffffffffffffffffff021916908373ffffffffffffffffffffffffffffffffffffffff1602179055506020820151816001019081610af291906118a3565b506040820151816002019081610b0891906118a3565b50606082015181600301556080820151816004015560a08201518160050160006101000a81548160ff02191690836002811115610b4857610b4761115d565b5b0217905550905050600360003373ffffffffffffffffffffffffffffffffffffffff1673ffffffffffffffffffffffffffffffffffffffff16815260200190815260200160002081908060018154018082558091505060019003906000526020600020016000909190919091505560026000815480929190610bc9906116af565b9190505550610bf26040518060600160405280602b8152602001611af9602b9139828433610df8565b610c756040518060400160405280601781526020017f2d205469746c652075726c20202020202020203a20257300000000000000000081525088888080601f016020809104026020016040519081016040528093929190818152602001838380828437600081840152601f19601f82011690508083019250505050505050610e9a565b610cf86040518060400160405280601781526020017f2d204465736372697074696f6e2075726c20203a20257300000000000000000081525086868080601f016020809104026020016040519081016040528093929190818152602001838380828437600081840152601f19601f82011690508083019250505050505050610e9a565b3373ffffffffffffffffffffffffffffffffffffffff167ff402918aaa23d43b2a547ed2ec26d57815a485e947d42cb8594fba3c799b8dcf888888888888604051610d48969594939291906119b1565b60405180910390a250505050505050565b610df3838383604051602401610d7193929190611a08565b6040516020818303038152906040527f0d26b925000000000000000000000000000000000000000000000000000000007bffffffffffffffffffffffffffffffffffffffffffffffffffffffff19166020820180517bffffffffffffffffffffffffffffffffffffffffffffffffffffffff8381831617835250505050610f36565b505050565b610e9484848484604051602401610e129493929190611a46565b6040516020818303038152906040527fe21de278000000000000000000000000000000000000000000000000000000007bffffffffffffffffffffffffffffffffffffffffffffffffffffffff19166020820180517bffffffffffffffffffffffffffffffffffffffffffffffffffffffff8381831617835250505050610f36565b50505050565b610f328282604051602401610eb0929190611a92565b6040516020818303038152906040527f4b5c4277000000000000000000000000000000000000000000000000000000007bffffffffffffffffffffffffffffffffffffffffffffffffffffffff19166020820180517bffffffffffffffffffffffffffffffffffffffffffffffffffffffff8381831617835250505050610f36565b5050565b610f4d81610f45610f50610f71565b63ffffffff16565b50565b60006a636f6e736f6c652e6c6f679050600080835160208501845afa505050565b610fda819050919050565b6040518060c00160405280600073ffffffffffffffffffffffffffffffffffffffff1681526020016060815260200160608152602001600081526020016000815260200160006002811115610fd457610fd361115d565b5b81525090565b610fe2611ac9565b565b600080fd5b600080fd5b600073ffffffffffffffffffffffffffffffffffffffff82169050919050565b600061101982610fee565b9050919050565b6110298161100e565b811461103457600080fd5b50565b60008135905061104681611020565b92915050565b60006020828403121561106257611061610fe4565b5b600061107084828501611037565b91505092915050565b600081519050919050565b600082825260208201905092915050565b6000819050602082019050919050565b6110ae8161100e565b82525050565b600081519050919050565b600082825260208201905092915050565b60005b838110156110ee5780820151818401526020810190506110d3565b60008484015250505050565b6000601f19601f8301169050919050565b6000611116826110b4565b61112081856110bf565b93506111308185602086016110d0565b611139816110fa565b840191505092915050565b6000819050919050565b61115781611144565b82525050565b7f4e487b7100000000000000000000000000000000000000000000000000000000600052602160045260246000fd5b6003811061119d5761119c61115d565b5b50565b60008190506111ae8261118c565b919050565b60006111be826111a0565b9050919050565b6111ce816111b3565b82525050565b600060c0830160008301516111ec60008601826110a5565b5060208301518482036020860152611204828261110b565b9150506040830151848203604086015261121e828261110b565b9150506060830151611233606086018261114e565b506080830151611246608086018261114e565b5060a083015161125960a08601826111c5565b508091505092915050565b600061127083836111d4565b905092915050565b6000602082019050919050565b600061129082611079565b61129a8185611084565b9350836020820285016112ac85611095565b8060005b858110156112e857848403895281516112c98582611264565b94506112d483611278565b925060208a019950506001810190506112b0565b50829750879550505050505092915050565b600060208201905081810360008301526113148184611285565b905092915050565b61132581611144565b811461133057600080fd5b50565b6000813590506113428161131c565b92915050565b60006020828403121561135e5761135d610fe4565b5b600061136c84828501611333565b91505092915050565b61137e8161100e565b82525050565b600082825260208201905092915050565b60006113a0826110b4565b6113aa8185611384565b93506113ba8185602086016110d0565b6113c3816110fa565b840191505092915050565b6113d781611144565b82525050565b6113e6816111b3565b82525050565b600060c0820190506114016000830189611375565b81810360208301526114138188611395565b905081810360408301526114278187611395565b905061143660608301866113ce565b61144360808301856113ce565b61145060a08301846113dd565b979650505050505050565b6000806040838503121561147257611471610fe4565b5b600061148085828601611037565b925050602061149185828601611333565b9150509250929050565b60006020820190506114b060008301846113ce565b92915050565b600080fd5b600080fd5b600080fd5b60008083601f8401126114db576114da6114b6565b5b8235905067ffffffffffffffff8111156114f8576114f76114bb565b5b602083019150836001820283011115611514576115136114c0565b5b9250929050565b6000806000806000806080878903121561153857611537610fe4565b5b600087013567ffffffffffffffff81111561155657611555610fe9565b5b61156289828a016114c5565b9650965050602087013567ffffffffffffffff81111561158557611584610fe9565b5b61159189828a016114c5565b945094505060406115a489828a01611333565b92505060606115b589828a01611333565b9150509295509295509295565b7f4e487b7100000000000000000000000000000000000000000000000000000000600052604160045260246000fd5b7f4e487b7100000000000000000000000000000000000000000000000000000000600052603260045260246000fd5b7f4e487b7100000000000000000000000000000000000000000000000000000000600052602260045260246000fd5b6000600282049050600182168061166757607f821691505b60208210810361167a57611679611620565b5b50919050565b7f4e487b7100000000000000000000000000000000000000000000000000000000600052601160045260246000fd5b60006116ba82611144565b91507fffffffffffffffffffffffffffffffffffffffffffffffffffffffffffffffff82036116ec576116eb611680565b5b600182019050919050565b60008190508160005260206000209050919050565b60006020601f8301049050919050565b600082821b905092915050565b6000600883026117597fffffffffffffffffffffffffffffffffffffffffffffffffffffffffffffffff8261171c565b611763868361171c565b95508019841693508086168417925050509392505050565b6000819050919050565b60006117a061179b61179684611144565b61177b565b611144565b9050919050565b6000819050919050565b6117ba83611785565b6117ce6117c6826117a7565b848454611729565b825550505050565b600090565b6117e36117d6565b6117ee8184846117b1565b505050565b5b81811015611812576118076000826117db565b6001810190506117f4565b5050565b601f82111561185757611828816116f7565b6118318461170c565b81016020851015611840578190505b61185461184c8561170c565b8301826117f3565b50505b505050565b600082821c905092915050565b600061187a6000198460080261185c565b1980831691505092915050565b60006118938383611869565b9150826002028217905092915050565b6118ac826110b4565b67ffffffffffffffff8111156118c5576118c46115c2565b5b6118cf825461164f565b6118da828285611816565b600060209050601f83116001811461190d57600084156118fb578287015190505b6119058582611887565b86555061196d565b601f19841661191b866116f7565b60005b828110156119435784890151825560018201915060208501945060208101905061191e565b86831015611960578489015161195c601f891682611869565b8355505b6001600288020188555050505b505050505050565b82818337600083830152505050565b60006119908385611384565b935061199d838584611975565b6119a6836110fa565b840190509392505050565b600060808201905081810360008301526119cc81888a611984565b905081810360208301526119e1818688611984565b90506119f060408301856113ce565b6119fd60608301846113ce565b979650505050505050565b60006060820190508181036000830152611a228186611395565b9050611a316020830185611375565b611a3e60408301846113ce565b949350505050565b60006080820190508181036000830152611a608187611395565b9050611a6f60208301866113ce565b611a7c60408301856113ce565b611a896060830184611375565b95945050505050565b60006040820190508181036000830152611aac8185611395565b90508181036020830152611ac08184611395565b90509392505050565b7f4e487b7100000000000000000000000000000000000000000000000000000000600052605160045260246000fdfe4368616c6c656e67652023257320636f6e747269627574656420627920257320617420257320776974683a55736572202573206861642066657463682025732070656e64696e6720636f6e7472696275746564206368616c6c656e6765735573657220257320686164206665746368656420257320636f6e7472696275746564206368616c6c656e676573a264697066735822122075e0aebe3fe0c70f4bf3dad6b2c4814b0901caa668aef13ac17ec7ab097b5f7364736f6c634300081c0033",
  "linkReferences": {},
  "deployedLinkReferences": {}
}