{
  "_format": "hh-sol-artifact-1",
  "contractName": "ChallengeCostManager",
  "sourceName": "contracts/ChallengeCostManager.sol",
  "abi": [
    {
      "inputs": [],
      "stateMutability": "nonpayable",
      "type": "constructor"
    },
    {
      "inputs": [],
      "name": "AccessControlBadConfirmation",
      "type": "error"
    },
    {
      "inputs": [
        {
          "internalType": "address",
          "name": "account",
          "type": "address"
        },
        {
          "internalType": "bytes32",
          "name": "neededRole",
          "type": "bytes32"
        }
      ],
      "name": "AccessControlUnauthorizedAccount",
      "type": "error"
    },
    {
      "anonymous": false,
      "inputs": [
        {
          "indexed": true,
          "internalType": "bytes32",
          "name": "role",
          "type": "bytes32"
        },
        {
          "indexed": true,
          "internalType": "bytes32",
          "name": "previousAdminRole",
          "type": "bytes32"
        },
        {
          "indexed": true,
          "internalType": "bytes32",
          "name": "newAdminRole",
          "type": "bytes32"
        }
      ],
      "name": "RoleAdminChanged",
      "type": "event"
    },
    {
      "anonymous": false,
      "inputs": [
        {
          "indexed": true,
          "internalType": "bytes32",
          "name": "role",
          "type": "bytes32"
        },
        {
          "indexed": true,
          "internalType": "address",
          "name": "account",
          "type": "address"
        },
        {
          "indexed": true,
          "internalType": "address",
          "name": "sender",
          "type": "address"
        }
      ],
      "name": "RoleGranted",
      "type": "event"
    },
    {
      "anonymous": false,
      "inputs": [
        {
          "indexed": true,
          "internalType": "bytes32",
          "name": "role",
          "type": "bytes32"
        },
        {
          "indexed": true,
          "internalType": "address",
          "name": "account",
          "type": "address"
        },
        {
          "indexed": true,
          "internalType": "address",
          "name": "sender",
          "type": "address"
        }
      ],
      "name": "RoleRevoked",
      "type": "event"
    },
    {
      "anonymous": false,
      "inputs": [
        {
          "indexed": true,
          "internalType": "uint256",
          "name": "challenge_id",
          "type": "uint256"
        },
        {
          "indexed": true,
          "internalType": "address",
          "name": "talent",
          "type": "address"
        },
        {
          "indexed": false,
          "internalType": "uint256",
          "name": "amount",
          "type": "uint256"
        }
      ],
      "name": "TalentPaymentAdded",
      "type": "event"
    },
    {
      "inputs": [],
      "name": "CHALLENGE_MANAGER_ROLE",
      "outputs": [
        {
          "internalType": "bytes32",
          "name": "",
          "type": "bytes32"
        }
      ],
      "stateMutability": "view",
      "type": "function"
    },
    {
      "inputs": [],
      "name": "DEFAULT_ADMIN_ROLE",
      "outputs": [
        {
          "internalType": "bytes32",
          "name": "",
          "type": "bytes32"
        }
      ],
      "stateMutability": "view",
      "type": "function"
    },
    {
      "inputs": [
        {
          "internalType": "uint256",
          "name": "_challenge_id",
          "type": "uint256"
        },
        {
          "internalType": "address",
          "name": "_talent",
          "type": "address"
        }
      ],
      "name": "addTalentPayment",
      "outputs": [],
      "stateMutability": "payable",
      "type": "function"
    },
    {
      "inputs": [
        {
          "internalType": "uint256",
          "name": "_challenge_id",
          "type": "uint256"
        }
      ],
      "name": "getCost",
      "outputs": [
        {
          "internalType": "uint256",
          "name": "",
          "type": "uint256"
        }
      ],
      "stateMutability": "view",
      "type": "function"
    },
    {
      "inputs": [
        {
          "internalType": "bytes32",
          "name": "role",
          "type": "bytes32"
        }
      ],
      "name": "getRoleAdmin",
      "outputs": [
        {
          "internalType": "bytes32",
          "name": "",
          "type": "bytes32"
        }
      ],
      "stateMutability": "view",
      "type": "function"
    },
    {
      "inputs": [
        {
          "internalType": "uint256",
          "name": "_challenge_id",
          "type": "uint256"
        },
        {
          "internalType": "address",
          "name": "_talent",
          "type": "address"
        }
      ],
      "name": "getTalentPayment",
      "outputs": [
        {
          "internalType": "uint256",
          "name": "",
          "type": "uint256"
        }
      ],
      "stateMutability": "view",
      "type": "function"
    },
    {
      "inputs": [
        {
          "internalType": "uint256",
          "name": "_challenge_id",
          "type": "uint256"
        }
      ],
      "name": "getTalents",
      "outputs": [
        {
          "internalType": "address[]",
          "name": "",
          "type": "address[]"
        }
      ],
      "stateMutability": "view",
      "type": "function"
    },
    {
      "inputs": [
        {
          "internalType": "uint256",
          "name": "_challenge_id",
          "type": "uint256"
        }
      ],
      "name": "getTotalRevenue",
      "outputs": [
        {
          "internalType": "uint256",
          "name": "",
          "type": "uint256"
        }
      ],
      "stateMutability": "view",
      "type": "function"
    },
    {
      "inputs": [
        {
          "internalType": "address",
          "name": "account",
          "type": "address"
        }
      ],
      "name": "grantChallengeManagerRole",
      "outputs": [],
      "stateMutability": "nonpayable",
      "type": "function"
    },
    {
      "inputs": [
        {
          "internalType": "bytes32",
          "name": "role",
          "type": "bytes32"
        },
        {
          "internalType": "address",
          "name": "account",
          "type": "address"
        }
      ],
      "name": "grantRole",
      "outputs": [],
      "stateMutability": "nonpayable",
      "type": "function"
    },
    {
      "inputs": [
        {
          "internalType": "bytes32",
          "name": "role",
          "type": "bytes32"
        },
        {
          "internalType": "address",
          "name": "account",
          "type": "address"
        }
      ],
      "name": "hasRole",
      "outputs": [
        {
          "internalType": "bool",
          "name": "",
          "type": "bool"
        }
      ],
      "stateMutability": "view",
      "type": "function"
    },
    {
      "inputs": [
        {
          "internalType": "bytes32",
          "name": "role",
          "type": "bytes32"
        },
        {
          "internalType": "address",
          "name": "callerConfirmation",
          "type": "address"
        }
      ],
      "name": "renounceRole",
      "outputs": [],
      "stateMutability": "nonpayable",
      "type": "function"
    },
    {
      "inputs": [
        {
          "internalType": "address",
          "name": "account",
          "type": "address"
        }
      ],
      "name": "revokeChallengeManagerRole",
      "outputs": [],
      "stateMutability": "nonpayable",
      "type": "function"
    },
    {
      "inputs": [
        {
          "internalType": "bytes32",
          "name": "role",
          "type": "bytes32"
        },
        {
          "internalType": "address",
          "name": "account",
          "type": "address"
        }
      ],
      "name": "revokeRole",
      "outputs": [],
      "stateMutability": "nonpayable",
      "type": "function"
    },
    {
      "inputs": [
        {
          "internalType": "address",
          "name": "_address",
          "type": "address"
        }
      ],
      "name": "setChallengeManagerAddress",
      "outputs": [],
      "stateMutability": "nonpayable",
      "type": "function"
    },
    {
      "inputs": [
        {
          "internalType": "address",
          "name": "_address",
          "type": "address"
        }
      ],
      "name": "setModerationEscrowAddress",
      "outputs": [],
      "stateMutability": "nonpayable",
      "type": "function"
    },
    {
      "inputs": [
        {
          "internalType": "bytes4",
          "name": "interfaceId",
          "type": "bytes4"
        }
      ],
      "name": "supportsInterface",
      "outputs": [
        {
          "internalType": "bool",
          "name": "",
          "type": "bool"
        }
      ],
      "stateMutability": "view",
      "type": "function"
    }
  ],
  "bytecode": "0x608060405234601f57600f336024565b5060405161111490816100b28239f35b600080fd5b6001600160a01b03811660009081526000805160206111c6833981519152602052604090205460ff1660ab576001600160a01b031660008181526000805160206111c683398151915260205260408120805460ff191660011790553391907f2f8788117e7eff1d82e926ec794901d17c78024a50270940304540a733656f0d8180a4600190565b5060009056fe608080604052600436101561001357600080fd5b60003560e01c90816301ffc9a714610cce57508063248a9ca314610c995780632dd4183e14610c705780632f2ff15d14610c3057806336568abe14610bea5780635a4dd47d1461080b57806364ae0ce8146107c057806391d14854146107735780639ce0c1081461074a578063a217fddf1461072e578063b79362cd1461068e578063d25fa7f214610662578063d4b36012146105a1578063d547741f1461055c578063d9f75d2c146101aa578063e11762031461017f5763ee01d8e6146100da57600080fd5b3461017a57602036600319011261017a576100f3610d37565b6100fb610dcf565b6001600160a01b0316801561013657806001600160601b0360a01b60045416176004556001600160601b0360a01b6002541617600255600080f35b606460405162461bcd60e51b815260206004820152602060248201527f496e76616c6964204368616c6c656e67654d616e6167657220616464726573736044820152fd5b600080fd5b3461017a57602036600319011261017a576101a861019b610d37565b6101a3610dcf565b610e5d565b005b604036600319011261017a576004356101c1610d21565b3360009081526000805160206110bf833981519152602052604090205460ff16156105355734156104e2576001600160a01b03169081156104a4576002546001600160a01b0316610213811515610d6f565b81600052600160205260016040600020018360005260205260406000205461044757602060249160405192838092632b5cfbdf60e01b82528660048301525afa90811561043b576000916103f9575b5060009081908190819034906001600160a01b03165af13d156103f4573d67ffffffffffffffff811161038357604051906102a7601f8201601f191660200183610d4d565b8152600060203d92013e5b156103af57806000526001602052600160406000200182600052602052604060002034905580600052600160205260406000208054903482018092116103995755806000526001602052600260406000200180549068010000000000000000821015610383576001820180825582101561036d57600052602060002001826001600160601b0360a01b8254161790557f535c8311217b51cfe1ca72eb7ecf2e292dd13718defd6751b365d40f32a5011a6020604051348152a3005b634e487b7160e01b600052603260045260246000fd5b634e487b7160e01b600052604160045260246000fd5b634e487b7160e01b600052601160045260246000fd5b60405162461bcd60e51b815260206004820152601e60248201527f5472616e7366657220746f20636f6e7472696275746f72206661696c656400006044820152606490fd5b6102b2565b90506020813d602011610433575b8161041460209383610d4d565b8101031261017a576000808061042a8194610dbb565b93505050610262565b3d9150610407565b6040513d6000823e3d90fd5b60405162461bcd60e51b815260206004820152602f60248201527f54616c656e742068617320616c7265616479206265656e207061696420666f7260448201526e2074686973206368616c6c656e676560881b6064820152608490fd5b60405162461bcd60e51b8152602060048201526016602482015275496e76616c69642074616c656e74206164647265737360501b6044820152606490fd5b60405162461bcd60e51b815260206004820152602560248201527f5061796d656e7420616d6f756e74206d75737420626520677265617465722074604482015264068616e20360dc1b6064820152608490fd5b63e2517d3f60e01b6000523360045260008051602061109f83398151915260245260446000fd5b3461017a57604036600319011261017a576101a860043561057b610d21565b9061059c61059782600052600060205260016040600020015490565b610e22565b61101c565b3461017a57602036600319011261017a57600435600052600160205260026040600020016040518060208354918281520190819360005260206000209060005b81811061064357505050816105f7910382610d4d565b6040519182916020830190602084525180915260408301919060005b818110610621575050500390f35b82516001600160a01b0316845285945060209384019390920191600101610613565b82546001600160a01b03168452602090930192600192830192016105e1565b3461017a57602036600319011261017a5760043560005260016020526020604060002054604051908152f35b3461017a57602036600319011261017a576106a7610d37565b6106af610dcf565b6001600160a01b031680156106ea57806001600160601b0360a01b60055416176005556001600160601b0360a01b6003541617600355600080f35b606460405162461bcd60e51b815260206004820152602060248201527f496e76616c6964204d6f6465726174696f6e457363726f7720616464726573736044820152fd5b3461017a57600036600319011261017a57602060405160008152f35b3461017a57602036600319011261017a576101a8610766610d37565b61076e610dcf565b610f86565b3461017a57604036600319011261017a5761078c610d21565b600435600052600060205260406000209060018060a01b0316600052602052602060ff604060002054166040519015158152f35b3461017a57604036600319011261017a576107d9610d21565b600435600052600160205260016040600020019060018060a01b03166000526020526020604060002054604051908152f35b3461017a57602036600319011261017a57600254600435906001600160a01b0316610837811515610d6f565b6003546001600160a01b031615610ba55760206024916040519283809263024e6e0560e21b82528660048301525afa90811561043b57600091610b66575b5060405163145dcf0360e21b815291906003811015610b5057600483015260208260248173__$48601fc9adbcb559808749f77bbebf5782$__5af491821561043b57600092610b1c575b5060035460405163ee8c4bbf60e01b81526004810183905290602090829060249082906001600160a01b03165afa90811561043b57600091610aea575b5060025460405163d014c48160e01b815260048101849052926001600160a01b0390911690602084602481855afa93841561043b57600094610ab5575b5060009060246040518094819362477f2b60e31b835260048301525afa90811561043b576000916109f3575b505191604051936329db36f160e21b8552600485015260248401526044830152606482015260208160848173__$66ada33c45d08e284f01bb9585b31020f9$__5af4801561043b576000906109c0575b602090604051908152f35b506020813d6020116109eb575b816109da60209383610d4d565b8101031261017a57602090516109b5565b3d91506109cd565b3d8083833e610a028183610d4d565b810190602081830312610ab15780519067ffffffffffffffff8211610aad57019181601f84011215610a965782519267ffffffffffffffff8411610a99578360051b9160405194610a566020850187610d4d565b8552602080860193830101938411610a965750602001905b828210610a7e5750505084610965565b60208091610a8b84610dbb565b815201910190610a6e565b80fd5b634e487b7160e01b82526041600452602482fd5b8380fd5b8280fd5b9093506020813d602011610ae2575b81610ad160209383610d4d565b8101031261017a5751926000610939565b3d9150610ac4565b90506020813d602011610b14575b81610b0560209383610d4d565b8101031261017a5751836108fc565b3d9150610af8565b9091506020813d602011610b48575b81610b3860209383610d4d565b8101031261017a575190826108bf565b3d9150610b2b565b634e487b7160e01b600052602160045260246000fd5b6020813d602011610b9d575b81610b7f60209383610d4d565b81010312610b995751906003821015610a96575082610875565b5080fd5b3d9150610b72565b60405162461bcd60e51b815260206004820152601860248201527f4d6f6465726174696f6e457363726f77206e6f742073657400000000000000006044820152606490fd5b3461017a57604036600319011261017a57610c03610d21565b336001600160a01b03821603610c1f576101a89060043561101c565b63334bd91960e11b60005260046000fd5b3461017a57604036600319011261017a576101a8600435610c4f610d21565b90610c6b61059782600052600060205260016040600020015490565b610efb565b3461017a57600036600319011261017a57602060405160008051602061109f8339815191528152f35b3461017a57602036600319011261017a576020610cc6600435600052600060205260016040600020015490565b604051908152f35b3461017a57602036600319011261017a576004359063ffffffff60e01b821680920361017a57602091637965db0b60e01b8114908115610d10575b5015158152f35b6301ffc9a760e01b14905083610d09565b602435906001600160a01b038216820361017a57565b600435906001600160a01b038216820361017a57565b90601f8019910116810190811067ffffffffffffffff82111761038357604052565b15610d7657565b60405162461bcd60e51b815260206004820152601860248201527f4368616c6c656e67654d616e61676572206e6f742073657400000000000000006044820152606490fd5b51906001600160a01b038216820361017a57565b3360009081527fad3228b676f7d3cd4284a5443f17f1962b36e491b30a40b2405849e597ba5fb5602052604090205460ff1615610e0857565b63e2517d3f60e01b60005233600452600060245260446000fd5b60008181526020818152604080832033845290915290205460ff1615610e455750565b63e2517d3f60e01b6000523360045260245260446000fd5b6001600160a01b03811660009081526000805160206110bf833981519152602052604090205460ff16610ef5576001600160a01b031660008181526000805160206110bf83398151915260205260408120805460ff1916600117905533919060008051602061109f833981519152907f2f8788117e7eff1d82e926ec794901d17c78024a50270940304540a733656f0d9080a4600190565b50600090565b6000818152602081815260408083206001600160a01b038616845290915290205460ff16610f7f576000818152602081815260408083206001600160a01b0395909516808452949091528120805460ff19166001179055339291907f2f8788117e7eff1d82e926ec794901d17c78024a50270940304540a733656f0d9080a4600190565b5050600090565b6001600160a01b03811660009081526000805160206110bf833981519152602052604090205460ff1615610ef5576001600160a01b031660008181526000805160206110bf83398151915260205260408120805460ff1916905533919060008051602061109f833981519152907ff6391f5c32d9c69d2a47ea670b442974b53935d1edc7fd64eb21e047a839171b9080a4600190565b6000818152602081815260408083206001600160a01b038616845290915290205460ff1615610f7f576000818152602081815260408083206001600160a01b0395909516808452949091528120805460ff19169055339291907ff6391f5c32d9c69d2a47ea670b442974b53935d1edc7fd64eb21e047a839171b9080a460019056fedf00d3af90ab30df537a66d1500cb39094b378b2e2f0cb96f486cb799624db519b171f6d2bd3797f3e503ef7470f8c0decd863054fdfa00c8bd800c00d3c325da264697066735822122072d865bd5cc1bacd4d64496a397f9ac7bd1b79b0cd1957d42b49679ebc0bfb9164736f6c634300081c0033ad3228b676f7d3cd4284a5443f17f1962b36e491b30a40b2405849e597ba5fb5",
  "linkReferences": {
    "contracts/Constants.sol": {
      "Weights": [
        {
          "length": 20,
          "start": 2381
        }
      ]
    },
    "contracts/Formulas.sol": {
      "ChallengeCostFormulas": [
        {
          "length": 20,
          "start": 2628
        }
      ]
    }
  },
  "deployedLinkReferences": {
    "contracts/Constants.sol": {
      "Weights": [
        {
          "length": 20,
          "start": 2203
        }
      ]
    },
    "contracts/Formulas.sol": {
      "ChallengeCostFormulas": [
        {
          "length": 20,
          "start": 2450
        }
      ]
    }
  }
}