{
  "_format": "hh-sol-artifact-1",
  "contractName": "ChallengeManager",
  "sourceName": "contracts/ChallengeManager.sol",
  "abi": [
    {
      "anonymous": false,
      "inputs": [
        {
          "indexed": true,
          "internalType": "address",
          "name": "contributor",
          "type": "address"
        },
        {
          "indexed": false,
          "internalType": "string",
          "name": "titleUrl",
          "type": "string"
        },
        {
          "indexed": false,
          "internalType": "string",
          "name": "descriptionUrl",
          "type": "string"
        },
        {
          "indexed": false,
          "internalType": "string",
          "name": "category",
          "type": "string"
        },
        {
          "indexed": false,
          "internalType": "string",
          "name": "contributeAt",
          "type": "string"
        }
      ],
      "name": "ChallengeContributed",
      "type": "event"
    },
    {
      "inputs": [
        {
          "internalType": "uint256",
          "name": "",
          "type": "uint256"
        }
      ],
      "name": "challenges",
      "outputs": [
        {
          "internalType": "address",
          "name": "contributor",
          "type": "address"
        },
        {
          "internalType": "string",
          "name": "titleUrl",
          "type": "string"
        },
        {
          "internalType": "string",
          "name": "descriptionUrl",
          "type": "string"
        },
        {
          "internalType": "string",
          "name": "category",
          "type": "string"
        },
        {
          "internalType": "string",
          "name": "contributeAt",
          "type": "string"
        },
        {
          "internalType": "bool",
          "name": "isApproved",
          "type": "bool"
        }
      ],
      "stateMutability": "view",
      "type": "function"
    },
    {
      "inputs": [
        {
          "internalType": "string",
          "name": "titleUrl",
          "type": "string"
        },
        {
          "internalType": "string",
          "name": "descriptionUrl",
          "type": "string"
        },
        {
          "internalType": "string",
          "name": "category",
          "type": "string"
        },
        {
          "internalType": "string",
          "name": "contributeAt",
          "type": "string"
        }
      ],
      "name": "contributeChallenge",
      "outputs": [],
      "stateMutability": "nonpayable",
      "type": "function"
    },
    {
      "inputs": [
        {
          "internalType": "address",
          "name": "",
          "type": "address"
        },
        {
          "internalType": "uint256",
          "name": "",
          "type": "uint256"
        }
      ],
      "name": "contributorToChallenges",
      "outputs": [
        {
          "internalType": "uint256",
          "name": "",
          "type": "uint256"
        }
      ],
      "stateMutability": "view",
      "type": "function"
    },
    {
      "inputs": [
        {
          "internalType": "address",
          "name": "contributor_address",
          "type": "address"
        }
      ],
      "name": "getChallengesByContributor",
      "outputs": [
        {
          "components": [
            {
              "internalType": "address",
              "name": "contributor",
              "type": "address"
            },
            {
              "internalType": "string",
              "name": "titleUrl",
              "type": "string"
            },
            {
              "internalType": "string",
              "name": "descriptionUrl",
              "type": "string"
            },
            {
              "internalType": "string",
              "name": "category",
              "type": "string"
            },
            {
              "internalType": "string",
              "name": "contributeAt",
              "type": "string"
            },
            {
              "internalType": "bool",
              "name": "isApproved",
              "type": "bool"
            }
          ],
          "internalType": "struct ChallengeManager.Challenge[]",
          "name": "",
          "type": "tuple[]"
        }
      ],
      "stateMutability": "view",
      "type": "function"
    },
    {
      "inputs": [],
      "name": "totalChallenges",
      "outputs": [
        {
          "internalType": "uint256",
          "name": "",
          "type": "uint256"
        }
      ],
      "stateMutability": "view",
      "type": "function"
    }
  ],
  "bytecode": "0x60806040526000600155348015601457600080fd5b50611c71806100246000396000f3fe608060405234801561001057600080fd5b50600436106100575760003560e01c8063616e2e561461005c5780638f1d37761461008c578063a4bee171146100c1578063c69661df146100f1578063d17defcb1461010d575b600080fd5b61007660048036038101906100719190611126565b61012b565b604051610083919061136d565b60405180910390f35b6100a660048036038101906100a191906113c5565b61056e565b6040516100b89695949392919061145a565b60405180910390f35b6100db60048036038101906100d691906114d7565b6107f7565b6040516100e89190611526565b60405180910390f35b61010b600480360381019061010691906115a6565b610828565b005b610115610da7565b6040516101229190611526565b60405180910390f35b60606000600260008473ffffffffffffffffffffffffffffffffffffffff1673ffffffffffffffffffffffffffffffffffffffff1681526020019081526020016000208054806020026020016040519081016040528092919081815260200182805480156101b857602002820191906000526020600020905b8154815260200190600101908083116101a4575b505050505090506000815167ffffffffffffffff8111156101dc576101db61168f565b5b60405190808252806020026020018201604052801561021557816020015b610202611066565b8152602001906001900390816101fa5790505b50905060005b825181101561053f5760008084838151811061023a576102396116be565b5b602002602001015181526020019081526020016000206040518060c00160405290816000820160009054906101000a900473ffffffffffffffffffffffffffffffffffffffff1673ffffffffffffffffffffffffffffffffffffffff1673ffffffffffffffffffffffffffffffffffffffff1681526020016001820180546102c19061171c565b80601f01602080910402602001604051908101604052809291908181526020018280546102ed9061171c565b801561033a5780601f1061030f5761010080835404028352916020019161033a565b820191906000526020600020905b81548152906001019060200180831161031d57829003601f168201915b505050505081526020016002820180546103539061171c565b80601f016020809104026020016040519081016040528092919081815260200182805461037f9061171c565b80156103cc5780601f106103a1576101008083540402835291602001916103cc565b820191906000526020600020905b8154815290600101906020018083116103af57829003601f168201915b505050505081526020016003820180546103e59061171c565b80601f01602080910402602001604051908101604052809291908181526020018280546104119061171c565b801561045e5780601f106104335761010080835404028352916020019161045e565b820191906000526020600020905b81548152906001019060200180831161044157829003601f168201915b505050505081526020016004820180546104779061171c565b80601f01602080910402602001604051908101604052809291908181526020018280546104a39061171c565b80156104f05780601f106104c5576101008083540402835291602001916104f0565b820191906000526020600020905b8154815290600101906020018083116104d357829003601f168201915b505050505081526020016005820160009054906101000a900460ff161515151581525050828281518110610527576105266116be565b5b6020026020010181905250808060010191505061021b565b506105646040518060600160405280602b8152602001611c11602b9139858451610dad565b8092505050919050565b60006020528060005260406000206000915090508060000160009054906101000a900473ffffffffffffffffffffffffffffffffffffffff16908060010180546105b79061171c565b80601f01602080910402602001604051908101604052809291908181526020018280546105e39061171c565b80156106305780601f1061060557610100808354040283529160200191610630565b820191906000526020600020905b81548152906001019060200180831161061357829003601f168201915b5050505050908060020180546106459061171c565b80601f01602080910402602001604051908101604052809291908181526020018280546106719061171c565b80156106be5780601f10610693576101008083540402835291602001916106be565b820191906000526020600020905b8154815290600101906020018083116106a157829003601f168201915b5050505050908060030180546106d39061171c565b80601f01602080910402602001604051908101604052809291908181526020018280546106ff9061171c565b801561074c5780601f106107215761010080835404028352916020019161074c565b820191906000526020600020905b81548152906001019060200180831161072f57829003601f168201915b5050505050908060040180546107619061171c565b80601f016020809104026020016040519081016040528092919081815260200182805461078d9061171c565b80156107da5780601f106107af576101008083540402835291602001916107da565b820191906000526020600020905b8154815290600101906020018083116107bd57829003601f168201915b5050505050908060050160009054906101000a900460ff16905086565b6002602052816000526040600020818154811061081357600080fd5b90600052602060002001600091509150505481565b6108666040518060400160405280601181526020017f5072657061726520746f20706173733a20000000000000000000000000000000815250610e4c565b6108e96040518060400160405280601781526020017f2d205469746c652075726c20202020202020203a20257300000000000000000081525089898080601f016020809104026020016040519081016040528093929190818152602001838380828437600081840152601f19601f82011690508083019250505050505050610ee5565b61096c6040518060400160405280601781526020017f2d204465736372697074696f6e2075726c20203a20257300000000000000000081525087878080601f016020809104026020016040519081016040528093929190818152602001838380828437600081840152601f19601f82011690508083019250505050505050610ee5565b6000600160008154809291906109819061177c565b9190505590506040518060c001604052803373ffffffffffffffffffffffffffffffffffffffff1681526020018a8a8080601f016020809104026020016040519081016040528093929190818152602001838380828437600081840152601f19601f82011690508083019250505050505050815260200188888080601f016020809104026020016040519081016040528093929190818152602001838380828437600081840152601f19601f82011690508083019250505050505050815260200186868080601f016020809104026020016040519081016040528093929190818152602001838380828437600081840152601f19601f82011690508083019250505050505050815260200184848080601f016020809104026020016040519081016040528093929190818152602001838380828437600081840152601f19601f8201169050808301925050505050505081526020016000151581525060008083815260200190815260200160002060008201518160000160006101000a81548173ffffffffffffffffffffffffffffffffffffffff021916908373ffffffffffffffffffffffffffffffffffffffff1602179055506020820151816001019081610b4b9190611970565b506040820151816002019081610b619190611970565b506060820151816003019081610b779190611970565b506080820151816004019081610b8d9190611970565b5060a08201518160050160006101000a81548160ff021916908315150217905550905050600260003373ffffffffffffffffffffffffffffffffffffffff1673ffffffffffffffffffffffffffffffffffffffff168152602001908152602001600020819080600181540180825580915050600190039060005260206000200160009091909190915055610c3a604051806060016040528060258152602001611bec602591398233610f81565b610cbd6040518060400160405280601781526020017f2d205469746c652075726c20202020202020203a2025730000000000000000008152508a8a8080601f016020809104026020016040519081016040528093929190818152602001838380828437600081840152601f19601f82011690508083019250505050505050610ee5565b610d406040518060400160405280601781526020017f2d204465736372697074696f6e2075726c20203a20257300000000000000000081525088888080601f016020809104026020016040519081016040528093929190818152602001838380828437600081840152601f19601f82011690508083019250505050505050610ee5565b3373ffffffffffffffffffffffffffffffffffffffff167f67752ffa06a2c659d7c34770a5a08f56fabebf759881e14142eaa046bab2f8c58a8a8a8a8a8a8a8a604051610d94989796959493929190611a7e565b60405180910390a2505050505050505050565b60015481565b610e47838383604051602401610dc593929190611ae7565b6040516020818303038152906040527f0d26b925000000000000000000000000000000000000000000000000000000007bffffffffffffffffffffffffffffffffffffffffffffffffffffffff19166020820180517bffffffffffffffffffffffffffffffffffffffffffffffffffffffff8381831617835250505050611020565b505050565b610ee281604051602401610e609190611b25565b6040516020818303038152906040527f41304fac000000000000000000000000000000000000000000000000000000007bffffffffffffffffffffffffffffffffffffffffffffffffffffffff19166020820180517bffffffffffffffffffffffffffffffffffffffffffffffffffffffff8381831617835250505050611020565b50565b610f7d8282604051602401610efb929190611b47565b6040516020818303038152906040527f4b5c4277000000000000000000000000000000000000000000000000000000007bffffffffffffffffffffffffffffffffffffffffffffffffffffffff19166020820180517bffffffffffffffffffffffffffffffffffffffffffffffffffffffff8381831617835250505050611020565b5050565b61101b838383604051602401610f9993929190611b7e565b6040516020818303038152906040527f1c7ec448000000000000000000000000000000000000000000000000000000007bffffffffffffffffffffffffffffffffffffffffffffffffffffffff19166020820180517bffffffffffffffffffffffffffffffffffffffffffffffffffffffff8381831617835250505050611020565b505050565b6110378161102f61103a61105b565b63ffffffff16565b50565b60006a636f6e736f6c652e6c6f679050600080835160208501845afa505050565b6110b4819050919050565b6040518060c00160405280600073ffffffffffffffffffffffffffffffffffffffff168152602001606081526020016060815260200160608152602001606081526020016000151581525090565b6110bc611bbc565b565b600080fd5b600080fd5b600073ffffffffffffffffffffffffffffffffffffffff82169050919050565b60006110f3826110c8565b9050919050565b611103816110e8565b811461110e57600080fd5b50565b600081359050611120816110fa565b92915050565b60006020828403121561113c5761113b6110be565b5b600061114a84828501611111565b91505092915050565b600081519050919050565b600082825260208201905092915050565b6000819050602082019050919050565b611188816110e8565b82525050565b600081519050919050565b600082825260208201905092915050565b60005b838110156111c85780820151818401526020810190506111ad565b60008484015250505050565b6000601f19601f8301169050919050565b60006111f08261118e565b6111fa8185611199565b935061120a8185602086016111aa565b611213816111d4565b840191505092915050565b60008115159050919050565b6112338161121e565b82525050565b600060c083016000830151611251600086018261117f565b506020830151848203602086015261126982826111e5565b9150506040830151848203604086015261128382826111e5565b9150506060830151848203606086015261129d82826111e5565b915050608083015184820360808601526112b782826111e5565b91505060a08301516112cc60a086018261122a565b508091505092915050565b60006112e38383611239565b905092915050565b6000602082019050919050565b600061130382611153565b61130d818561115e565b93508360208202850161131f8561116f565b8060005b8581101561135b578484038952815161133c85826112d7565b9450611347836112eb565b925060208a01995050600181019050611323565b50829750879550505050505092915050565b6000602082019050818103600083015261138781846112f8565b905092915050565b6000819050919050565b6113a28161138f565b81146113ad57600080fd5b50565b6000813590506113bf81611399565b92915050565b6000602082840312156113db576113da6110be565b5b60006113e9848285016113b0565b91505092915050565b6113fb816110e8565b82525050565b600082825260208201905092915050565b600061141d8261118e565b6114278185611401565b93506114378185602086016111aa565b611440816111d4565b840191505092915050565b6114548161121e565b82525050565b600060c08201905061146f60008301896113f2565b81810360208301526114818188611412565b905081810360408301526114958187611412565b905081810360608301526114a98186611412565b905081810360808301526114bd8185611412565b90506114cc60a083018461144b565b979650505050505050565b600080604083850312156114ee576114ed6110be565b5b60006114fc85828601611111565b925050602061150d858286016113b0565b9150509250929050565b6115208161138f565b82525050565b600060208201905061153b6000830184611517565b92915050565b600080fd5b600080fd5b600080fd5b60008083601f84011261156657611565611541565b5b8235905067ffffffffffffffff81111561158357611582611546565b5b60208301915083600182028301111561159f5761159e61154b565b5b9250929050565b6000806000806000806000806080898b0312156115c6576115c56110be565b5b600089013567ffffffffffffffff8111156115e4576115e36110c3565b5b6115f08b828c01611550565b9850985050602089013567ffffffffffffffff811115611613576116126110c3565b5b61161f8b828c01611550565b9650965050604089013567ffffffffffffffff811115611642576116416110c3565b5b61164e8b828c01611550565b9450945050606089013567ffffffffffffffff811115611671576116706110c3565b5b61167d8b828c01611550565b92509250509295985092959890939650565b7f4e487b7100000000000000000000000000000000000000000000000000000000600052604160045260246000fd5b7f4e487b7100000000000000000000000000000000000000000000000000000000600052603260045260246000fd5b7f4e487b7100000000000000000000000000000000000000000000000000000000600052602260045260246000fd5b6000600282049050600182168061173457607f821691505b602082108103611747576117466116ed565b5b50919050565b7f4e487b7100000000000000000000000000000000000000000000000000000000600052601160045260246000fd5b60006117878261138f565b91507fffffffffffffffffffffffffffffffffffffffffffffffffffffffffffffffff82036117b9576117b861174d565b5b600182019050919050565b60008190508160005260206000209050919050565b60006020601f8301049050919050565b600082821b905092915050565b6000600883026118267fffffffffffffffffffffffffffffffffffffffffffffffffffffffffffffffff826117e9565b61183086836117e9565b95508019841693508086168417925050509392505050565b6000819050919050565b600061186d6118686118638461138f565b611848565b61138f565b9050919050565b6000819050919050565b61188783611852565b61189b61189382611874565b8484546117f6565b825550505050565b600090565b6118b06118a3565b6118bb81848461187e565b505050565b5b818110156118df576118d46000826118a8565b6001810190506118c1565b5050565b601f821115611924576118f5816117c4565b6118fe846117d9565b8101602085101561190d578190505b611921611919856117d9565b8301826118c0565b50505b505050565b600082821c905092915050565b600061194760001984600802611929565b1980831691505092915050565b60006119608383611936565b9150826002028217905092915050565b6119798261118e565b67ffffffffffffffff8111156119925761199161168f565b5b61199c825461171c565b6119a78282856118e3565b600060209050601f8311600181146119da57600084156119c8578287015190505b6119d28582611954565b865550611a3a565b601f1984166119e8866117c4565b60005b82811015611a10578489015182556001820191506020850194506020810190506119eb565b86831015611a2d5784890151611a29601f891682611936565b8355505b6001600288020188555050505b505050505050565b82818337600083830152505050565b6000611a5d8385611401565b9350611a6a838584611a42565b611a73836111d4565b840190509392505050565b60006080820190508181036000830152611a99818a8c611a51565b90508181036020830152611aae81888a611a51565b90508181036040830152611ac3818688611a51565b90508181036060830152611ad8818486611a51565b90509998505050505050505050565b60006060820190508181036000830152611b018186611412565b9050611b1060208301856113f2565b611b1d6040830184611517565b949350505050565b60006020820190508181036000830152611b3f8184611412565b905092915050565b60006040820190508181036000830152611b618185611412565b90508181036020830152611b758184611412565b90509392505050565b60006060820190508181036000830152611b988186611412565b9050611ba76020830185611517565b611bb460408301846113f2565b949350505050565b7f4e487b7100000000000000000000000000000000000000000000000000000000600052605160045260246000fdfe4368616c6c656e67652023257320636f6e747269627574656420627920257320776974683a557365722025732068616420666574636820257320636f6e7472696275746564206368616c6c656e676573a2646970667358221220369d48fdc4b981c8fd9c6503e5055b242d0668bf23254612df9a71c0595ed0de64736f6c634300081c0033",
  "linkReferences": {},
  "deployedLinkReferences": {}
}