{
  "_format": "hh-sol-artifact-1",
  "contractName": "ChallengeCostManager",
  "sourceName": "contracts/ChallengeCostManager.sol",
  "abi": [
    {
      "inputs": [],
      "stateMutability": "nonpayable",
      "type": "constructor"
    },
    {
      "inputs": [],
      "name": "AccessControlBadConfirmation",
      "type": "error"
    },
    {
      "inputs": [
        {
          "internalType": "address",
          "name": "account",
          "type": "address"
        },
        {
          "internalType": "bytes32",
          "name": "neededRole",
          "type": "bytes32"
        }
      ],
      "name": "AccessControlUnauthorizedAccount",
      "type": "error"
    },
    {
      "anonymous": false,
      "inputs": [
        {
          "indexed": true,
          "internalType": "bytes32",
          "name": "role",
          "type": "bytes32"
        },
        {
          "indexed": true,
          "internalType": "bytes32",
          "name": "previousAdminRole",
          "type": "bytes32"
        },
        {
          "indexed": true,
          "internalType": "bytes32",
          "name": "newAdminRole",
          "type": "bytes32"
        }
      ],
      "name": "RoleAdminChanged",
      "type": "event"
    },
    {
      "anonymous": false,
      "inputs": [
        {
          "indexed": true,
          "internalType": "bytes32",
          "name": "role",
          "type": "bytes32"
        },
        {
          "indexed": true,
          "internalType": "address",
          "name": "account",
          "type": "address"
        },
        {
          "indexed": true,
          "internalType": "address",
          "name": "sender",
          "type": "address"
        }
      ],
      "name": "RoleGranted",
      "type": "event"
    },
    {
      "anonymous": false,
      "inputs": [
        {
          "indexed": true,
          "internalType": "bytes32",
          "name": "role",
          "type": "bytes32"
        },
        {
          "indexed": true,
          "internalType": "address",
          "name": "account",
          "type": "address"
        },
        {
          "indexed": true,
          "internalType": "address",
          "name": "sender",
          "type": "address"
        }
      ],
      "name": "RoleRevoked",
      "type": "event"
    },
    {
      "anonymous": false,
      "inputs": [
        {
          "indexed": true,
          "internalType": "bytes32",
          "name": "challenge_id",
          "type": "bytes32"
        },
        {
          "indexed": true,
          "internalType": "address",
          "name": "talent",
          "type": "address"
        },
        {
          "indexed": false,
          "internalType": "uint256",
          "name": "amount",
          "type": "uint256"
        }
      ],
      "name": "TalentPaymentAdded",
      "type": "event"
    },
    {
      "inputs": [],
      "name": "CHALLENGE_MANAGER_ROLE",
      "outputs": [
        {
          "internalType": "bytes32",
          "name": "",
          "type": "bytes32"
        }
      ],
      "stateMutability": "view",
      "type": "function"
    },
    {
      "inputs": [],
      "name": "DEFAULT_ADMIN_ROLE",
      "outputs": [
        {
          "internalType": "bytes32",
          "name": "",
          "type": "bytes32"
        }
      ],
      "stateMutability": "view",
      "type": "function"
    },
    {
      "inputs": [
        {
          "internalType": "bytes32",
          "name": "_challenge_id",
          "type": "bytes32"
        },
        {
          "internalType": "address",
          "name": "_talent",
          "type": "address"
        }
      ],
      "name": "addTalentPayment",
      "outputs": [],
      "stateMutability": "payable",
      "type": "function"
    },
    {
      "inputs": [
        {
          "internalType": "bytes32",
          "name": "_challenge_id",
          "type": "bytes32"
        }
      ],
      "name": "getCost",
      "outputs": [
        {
          "internalType": "uint256",
          "name": "",
          "type": "uint256"
        }
      ],
      "stateMutability": "view",
      "type": "function"
    },
    {
      "inputs": [
        {
          "internalType": "bytes32",
          "name": "role",
          "type": "bytes32"
        }
      ],
      "name": "getRoleAdmin",
      "outputs": [
        {
          "internalType": "bytes32",
          "name": "",
          "type": "bytes32"
        }
      ],
      "stateMutability": "view",
      "type": "function"
    },
    {
      "inputs": [
        {
          "internalType": "bytes32",
          "name": "_challenge_id",
          "type": "bytes32"
        },
        {
          "internalType": "address",
          "name": "_talent",
          "type": "address"
        }
      ],
      "name": "getTalentPayment",
      "outputs": [
        {
          "internalType": "uint256",
          "name": "",
          "type": "uint256"
        }
      ],
      "stateMutability": "view",
      "type": "function"
    },
    {
      "inputs": [
        {
          "internalType": "bytes32",
          "name": "_challenge_id",
          "type": "bytes32"
        }
      ],
      "name": "getTalents",
      "outputs": [
        {
          "internalType": "address[]",
          "name": "",
          "type": "address[]"
        }
      ],
      "stateMutability": "view",
      "type": "function"
    },
    {
      "inputs": [
        {
          "internalType": "bytes32",
          "name": "_challenge_id",
          "type": "bytes32"
        }
      ],
      "name": "getTotalRevenue",
      "outputs": [
        {
          "internalType": "uint256",
          "name": "",
          "type": "uint256"
        }
      ],
      "stateMutability": "view",
      "type": "function"
    },
    {
      "inputs": [
        {
          "internalType": "address",
          "name": "account",
          "type": "address"
        }
      ],
      "name": "grantChallengeManagerRole",
      "outputs": [],
      "stateMutability": "nonpayable",
      "type": "function"
    },
    {
      "inputs": [
        {
          "internalType": "bytes32",
          "name": "role",
          "type": "bytes32"
        },
        {
          "internalType": "address",
          "name": "account",
          "type": "address"
        }
      ],
      "name": "grantRole",
      "outputs": [],
      "stateMutability": "nonpayable",
      "type": "function"
    },
    {
      "inputs": [
        {
          "internalType": "bytes32",
          "name": "role",
          "type": "bytes32"
        },
        {
          "internalType": "address",
          "name": "account",
          "type": "address"
        }
      ],
      "name": "hasRole",
      "outputs": [
        {
          "internalType": "bool",
          "name": "",
          "type": "bool"
        }
      ],
      "stateMutability": "view",
      "type": "function"
    },
    {
      "inputs": [
        {
          "internalType": "bytes32",
          "name": "role",
          "type": "bytes32"
        },
        {
          "internalType": "address",
          "name": "callerConfirmation",
          "type": "address"
        }
      ],
      "name": "renounceRole",
      "outputs": [],
      "stateMutability": "nonpayable",
      "type": "function"
    },
    {
      "inputs": [
        {
          "internalType": "address",
          "name": "account",
          "type": "address"
        }
      ],
      "name": "revokeChallengeManagerRole",
      "outputs": [],
      "stateMutability": "nonpayable",
      "type": "function"
    },
    {
      "inputs": [
        {
          "internalType": "bytes32",
          "name": "role",
          "type": "bytes32"
        },
        {
          "internalType": "address",
          "name": "account",
          "type": "address"
        }
      ],
      "name": "revokeRole",
      "outputs": [],
      "stateMutability": "nonpayable",
      "type": "function"
    },
    {
      "inputs": [
        {
          "internalType": "address",
          "name": "_address",
          "type": "address"
        }
      ],
      "name": "setChallengeManagerAddress",
      "outputs": [],
      "stateMutability": "nonpayable",
      "type": "function"
    },
    {
      "inputs": [
        {
          "internalType": "address",
          "name": "_address",
          "type": "address"
        }
      ],
      "name": "setModerationEscrowAddress",
      "outputs": [],
      "stateMutability": "nonpayable",
      "type": "function"
    },
    {
      "inputs": [
        {
          "internalType": "bytes4",
          "name": "interfaceId",
          "type": "bytes4"
        }
      ],
      "name": "supportsInterface",
      "outputs": [
        {
          "internalType": "bool",
          "name": "",
          "type": "bool"
        }
      ],
      "stateMutability": "view",
      "type": "function"
    }
  ],
  "bytecode": "0x608060405234601f57600f336024565b5060405161111590816100b28239f35b600080fd5b6001600160a01b03811660009081526000805160206111c7833981519152602052604090205460ff1660ab576001600160a01b031660008181526000805160206111c783398151915260205260408120805460ff191660011790553391907f2f8788117e7eff1d82e926ec794901d17c78024a50270940304540a733656f0d8180a4600190565b5060009056fe608080604052600436101561001357600080fd5b60003560e01c90816301ffc9a714610ccf5750806312e4044914610c0e578063238a479e14610bc3578063248a9ca314610b8e5780632dd4183e14610b655780632f2ff15d14610b2557806336568abe14610adf57806391d1485414610a925780639ce0c10814610a69578063a217fddf14610a4d578063afda415f14610a21578063b353034c14610641578063b79362cd146105a1578063bc4e5a5b146101ef578063d547741f146101aa578063e11762031461017f5763ee01d8e6146100da57600080fd5b3461017a57602036600319011261017a576100f3610d38565b6100fb610dd0565b6001600160a01b0316801561013657806001600160601b0360a01b60045416176004556001600160601b0360a01b6002541617600255600080f35b606460405162461bcd60e51b815260206004820152602060248201527f496e76616c6964204368616c6c656e67654d616e6167657220616464726573736044820152fd5b600080fd5b3461017a57602036600319011261017a576101a861019b610d38565b6101a3610dd0565b610e5e565b005b3461017a57604036600319011261017a576101a86004356101c9610d22565b906101ea6101e582600052600060205260016040600020015490565b610e23565b61101d565b604036600319011261017a57600435610206610d22565b3360009081526000805160206110c0833981519152602052604090205460ff161561057a573415610527576001600160a01b03169081156104e9576002546001600160a01b0316610258811515610d70565b81600052600160205260016040600020018360005260205260406000205461048c576020602491604051928380926308c2c0bd60e41b82528660048301525afa9081156104805760009161043e575b5060009081908190819034906001600160a01b03165af13d15610439573d67ffffffffffffffff81116103c857604051906102ec601f8201601f191660200183610d4e565b8152600060203d92013e5b156103f457806000526001602052600160406000200182600052602052604060002034905580600052600160205260406000208054903482018092116103de57558060005260016020526002604060002001805490680100000000000000008210156103c857600182018082558210156103b257600052602060002001826001600160601b0360a01b8254161790557f571386504887c031500e6ab89b3c879a94e928954fa9d276132bb0a752e6d0616020604051348152a3005b634e487b7160e01b600052603260045260246000fd5b634e487b7160e01b600052604160045260246000fd5b634e487b7160e01b600052601160045260246000fd5b60405162461bcd60e51b815260206004820152601e60248201527f5472616e7366657220746f20636f6e7472696275746f72206661696c656400006044820152606490fd5b6102f7565b90506020813d602011610478575b8161045960209383610d4e565b8101031261017a576000808061046f8194610dbc565b935050506102a7565b3d915061044c565b6040513d6000823e3d90fd5b60405162461bcd60e51b815260206004820152602f60248201527f54616c656e742068617320616c7265616479206265656e207061696420666f7260448201526e2074686973206368616c6c656e676560881b6064820152608490fd5b60405162461bcd60e51b8152602060048201526016602482015275496e76616c69642074616c656e74206164647265737360501b6044820152606490fd5b60405162461bcd60e51b815260206004820152602560248201527f5061796d656e7420616d6f756e74206d75737420626520677265617465722074604482015264068616e20360dc1b6064820152608490fd5b63e2517d3f60e01b600052336004526000805160206110a083398151915260245260446000fd5b3461017a57602036600319011261017a576105ba610d38565b6105c2610dd0565b6001600160a01b031680156105fd57806001600160601b0360a01b60055416176005556001600160601b0360a01b6003541617600355600080f35b606460405162461bcd60e51b815260206004820152602060248201527f496e76616c6964204d6f6465726174696f6e457363726f7720616464726573736044820152fd5b3461017a57602036600319011261017a57600254600435906001600160a01b031661066d811515610d70565b6003546001600160a01b0316156109dc57602060249160405192838092631293980360e11b82528660048301525afa9081156104805760009161099d575b5060405163145dcf0360e21b81529190600381101561098757600483015260208260248173__$48601fc9adbcb559808749f77bbebf5782$__5af491821561048057600092610953575b50600354604051630905ce5760e21b81526004810183905290602090829060249082906001600160a01b03165afa90811561048057600091610921575b5060025460405163072a844760e21b815260048101849052926001600160a01b0390911690602084602481855afa938415610480576000946108ec575b50600090602460405180948193631a04c37d60e11b835260048301525afa9081156104805760009161082a575b505191604051936329db36f160e21b8552600485015260248401526044830152606482015260208160848173__$66ada33c45d08e284f01bb9585b31020f9$__5af48015610480576000906107f7575b602090604051908152f35b506020813d602011610822575b8161081160209383610d4e565b8101031261017a57602090516107ec565b3d9150610804565b3d8083833e6108398183610d4e565b8101906020818303126108e85780519067ffffffffffffffff82116108e457019181601f840112156108cd5782519267ffffffffffffffff84116108d0578360051b916040519461088d6020850187610d4e565b85526020808601938301019384116108cd5750602001905b8282106108b5575050508461079c565b602080916108c284610dbc565b8152019101906108a5565b80fd5b634e487b7160e01b82526041600452602482fd5b8380fd5b8280fd5b9093506020813d602011610919575b8161090860209383610d4e565b8101031261017a575192600061076f565b3d91506108fb565b90506020813d60201161094b575b8161093c60209383610d4e565b8101031261017a575183610732565b3d915061092f565b9091506020813d60201161097f575b8161096f60209383610d4e565b8101031261017a575190826106f5565b3d9150610962565b634e487b7160e01b600052602160045260246000fd5b6020813d6020116109d4575b816109b660209383610d4e565b810103126109d057519060038210156108cd5750826106ab565b5080fd5b3d91506109a9565b60405162461bcd60e51b815260206004820152601860248201527f4d6f6465726174696f6e457363726f77206e6f742073657400000000000000006044820152606490fd5b3461017a57602036600319011261017a5760043560005260016020526020604060002054604051908152f35b3461017a57600036600319011261017a57602060405160008152f35b3461017a57602036600319011261017a576101a8610a85610d38565b610a8d610dd0565b610f87565b3461017a57604036600319011261017a57610aab610d22565b600435600052600060205260406000209060018060a01b0316600052602052602060ff604060002054166040519015158152f35b3461017a57604036600319011261017a57610af8610d22565b336001600160a01b03821603610b14576101a89060043561101d565b63334bd91960e11b60005260046000fd5b3461017a57604036600319011261017a576101a8600435610b44610d22565b90610b606101e582600052600060205260016040600020015490565b610efc565b3461017a57600036600319011261017a5760206040516000805160206110a08339815191528152f35b3461017a57602036600319011261017a576020610bbb600435600052600060205260016040600020015490565b604051908152f35b3461017a57604036600319011261017a57610bdc610d22565b600435600052600160205260016040600020019060018060a01b03166000526020526020604060002054604051908152f35b3461017a57602036600319011261017a57600435600052600160205260026040600020016040518060208354918281520190819360005260206000209060005b818110610cb05750505081610c64910382610d4e565b6040519182916020830190602084525180915260408301919060005b818110610c8e575050500390f35b82516001600160a01b0316845285945060209384019390920191600101610c80565b82546001600160a01b0316845260209093019260019283019201610c4e565b3461017a57602036600319011261017a576004359063ffffffff60e01b821680920361017a57602091637965db0b60e01b8114908115610d11575b5015158152f35b6301ffc9a760e01b14905083610d0a565b602435906001600160a01b038216820361017a57565b600435906001600160a01b038216820361017a57565b90601f8019910116810190811067ffffffffffffffff8211176103c857604052565b15610d7757565b60405162461bcd60e51b815260206004820152601860248201527f4368616c6c656e67654d616e61676572206e6f742073657400000000000000006044820152606490fd5b51906001600160a01b038216820361017a57565b3360009081527fad3228b676f7d3cd4284a5443f17f1962b36e491b30a40b2405849e597ba5fb5602052604090205460ff1615610e0957565b63e2517d3f60e01b60005233600452600060245260446000fd5b60008181526020818152604080832033845290915290205460ff1615610e465750565b63e2517d3f60e01b6000523360045260245260446000fd5b6001600160a01b03811660009081526000805160206110c0833981519152602052604090205460ff16610ef6576001600160a01b031660008181526000805160206110c083398151915260205260408120805460ff191660011790553391906000805160206110a0833981519152907f2f8788117e7eff1d82e926ec794901d17c78024a50270940304540a733656f0d9080a4600190565b50600090565b6000818152602081815260408083206001600160a01b038616845290915290205460ff16610f80576000818152602081815260408083206001600160a01b0395909516808452949091528120805460ff19166001179055339291907f2f8788117e7eff1d82e926ec794901d17c78024a50270940304540a733656f0d9080a4600190565b5050600090565b6001600160a01b03811660009081526000805160206110c0833981519152602052604090205460ff1615610ef6576001600160a01b031660008181526000805160206110c083398151915260205260408120805460ff191690553391906000805160206110a0833981519152907ff6391f5c32d9c69d2a47ea670b442974b53935d1edc7fd64eb21e047a839171b9080a4600190565b6000818152602081815260408083206001600160a01b038616845290915290205460ff1615610f80576000818152602081815260408083206001600160a01b0395909516808452949091528120805460ff19169055339291907ff6391f5c32d9c69d2a47ea670b442974b53935d1edc7fd64eb21e047a839171b9080a460019056fedf00d3af90ab30df537a66d1500cb39094b378b2e2f0cb96f486cb799624db519b171f6d2bd3797f3e503ef7470f8c0decd863054fdfa00c8bd800c00d3c325da26469706673582212205e9dfe41ceca8afc145c6ba9f53f4d9aeb3e25a93b3dc5b968b9f39042bd111364736f6c634300081a0033ad3228b676f7d3cd4284a5443f17f1962b36e491b30a40b2405849e597ba5fb5",
  "linkReferences": {
    "contracts/Constants.sol": {
      "Weights": [
        {
          "length": 20,
          "start": 1923
        }
      ]
    },
    "contracts/Formulas.sol": {
      "ChallengeCostFormulas": [
        {
          "length": 20,
          "start": 2171
        }
      ]
    }
  },
  "deployedLinkReferences": {
    "contracts/Constants.sol": {
      "Weights": [
        {
          "length": 20,
          "start": 1745
        }
      ]
    },
    "contracts/Formulas.sol": {
      "ChallengeCostFormulas": [
        {
          "length": 20,
          "start": 1993
        }
      ]
    }
  }
}