{
  "_format": "hh-sol-artifact-1",
  "contractName": "ChallengeManager",
  "sourceName": "contracts/ChallengeManager.sol",
  "abi": [
    {
      "anonymous": false,
      "inputs": [
        {
          "indexed": true,
          "internalType": "address",
          "name": "contributor",
          "type": "address"
        },
        {
          "indexed": false,
          "internalType": "string",
          "name": "titleUrl",
          "type": "string"
        },
        {
          "indexed": false,
          "internalType": "string",
          "name": "descriptionUrl",
          "type": "string"
        },
        {
          "indexed": false,
          "internalType": "uint256",
          "name": "category",
          "type": "uint256"
        },
        {
          "indexed": false,
          "internalType": "string",
          "name": "contributeAt",
          "type": "string"
        }
      ],
      "name": "ChallengeContributed",
      "type": "event"
    },
    {
      "inputs": [
        {
          "internalType": "uint256",
          "name": "",
          "type": "uint256"
        }
      ],
      "name": "challenges",
      "outputs": [
        {
          "internalType": "address",
          "name": "contributor",
          "type": "address"
        },
        {
          "internalType": "string",
          "name": "titleUrl",
          "type": "string"
        },
        {
          "internalType": "string",
          "name": "descriptionUrl",
          "type": "string"
        },
        {
          "internalType": "uint256",
          "name": "category",
          "type": "uint256"
        },
        {
          "internalType": "string",
          "name": "contributeAt",
          "type": "string"
        },
        {
          "internalType": "enum ChallengeManager.ChallengeStatus",
          "name": "status",
          "type": "uint8"
        }
      ],
      "stateMutability": "view",
      "type": "function"
    },
    {
      "inputs": [
        {
          "internalType": "string",
          "name": "titleUrl",
          "type": "string"
        },
        {
          "internalType": "string",
          "name": "descriptionUrl",
          "type": "string"
        },
        {
          "internalType": "uint256",
          "name": "category",
          "type": "uint256"
        },
        {
          "internalType": "string",
          "name": "contributeAt",
          "type": "string"
        }
      ],
      "name": "contributeChallenge",
      "outputs": [],
      "stateMutability": "nonpayable",
      "type": "function"
    },
    {
      "inputs": [
        {
          "internalType": "address",
          "name": "",
          "type": "address"
        },
        {
          "internalType": "uint256",
          "name": "",
          "type": "uint256"
        }
      ],
      "name": "contributorToChallenges",
      "outputs": [
        {
          "internalType": "uint256",
          "name": "",
          "type": "uint256"
        }
      ],
      "stateMutability": "view",
      "type": "function"
    },
    {
      "inputs": [
        {
          "internalType": "address",
          "name": "contributor_address",
          "type": "address"
        }
      ],
      "name": "getChallengesByContributor",
      "outputs": [
        {
          "components": [
            {
              "internalType": "address",
              "name": "contributor",
              "type": "address"
            },
            {
              "internalType": "string",
              "name": "titleUrl",
              "type": "string"
            },
            {
              "internalType": "string",
              "name": "descriptionUrl",
              "type": "string"
            },
            {
              "internalType": "uint256",
              "name": "category",
              "type": "uint256"
            },
            {
              "internalType": "string",
              "name": "contributeAt",
              "type": "string"
            },
            {
              "internalType": "enum ChallengeManager.ChallengeStatus",
              "name": "status",
              "type": "uint8"
            }
          ],
          "internalType": "struct ChallengeManager.Challenge[]",
          "name": "",
          "type": "tuple[]"
        }
      ],
      "stateMutability": "view",
      "type": "function"
    },
    {
      "inputs": [],
      "name": "getPendingChallenges",
      "outputs": [
        {
          "components": [
            {
              "internalType": "address",
              "name": "contributor",
              "type": "address"
            },
            {
              "internalType": "string",
              "name": "titleUrl",
              "type": "string"
            },
            {
              "internalType": "string",
              "name": "descriptionUrl",
              "type": "string"
            },
            {
              "internalType": "uint256",
              "name": "category",
              "type": "uint256"
            },
            {
              "internalType": "string",
              "name": "contributeAt",
              "type": "string"
            },
            {
              "internalType": "enum ChallengeManager.ChallengeStatus",
              "name": "status",
              "type": "uint8"
            }
          ],
          "internalType": "struct ChallengeManager.Challenge[]",
          "name": "",
          "type": "tuple[]"
        }
      ],
      "stateMutability": "view",
      "type": "function"
    },
    {
      "inputs": [],
      "name": "pendingChallenges",
      "outputs": [
        {
          "internalType": "uint256",
          "name": "",
          "type": "uint256"
        }
      ],
      "stateMutability": "view",
      "type": "function"
    },
    {
      "inputs": [],
      "name": "totalChallenges",
      "outputs": [
        {
          "internalType": "uint256",
          "name": "",
          "type": "uint256"
        }
      ],
      "stateMutability": "view",
      "type": "function"
    }
  ],
  "bytecode": "0x608060405260006001556000600255348015601957600080fd5b50611d6c806100296000396000f3fe608060405234801561001057600080fd5b506004361061007d5760003560e01c8063a4bee1711161005b578063a4bee17114610103578063b8c072e314610133578063be21f20c14610151578063d17defcb1461016f5761007d565b8063616e2e56146100825780638f1d3776146100b2578063a337c7ab146100e7575b600080fd5b61009c6004803603810190610097919061120f565b61018d565b6040516100a991906114c4565b60405180910390f35b6100cc60048036038101906100c79190611512565b610568565b6040516100de969594939291906115b6565b60405180910390f35b61010160048036038101906100fc9190611691565b610769565b005b61011d6004803603810190610118919061175a565b610b89565b60405161012a919061179a565b60405180910390f35b61013b610bba565b604051610148919061179a565b60405180910390f35b610159610bc0565b60405161016691906114c4565b60405180910390f35b610177610f19565b604051610184919061179a565b60405180910390f35b60606000600360008473ffffffffffffffffffffffffffffffffffffffff1673ffffffffffffffffffffffffffffffffffffffff16815260200190815260200160002080548060200260200160405190810160405280929190818152602001828054801561021a57602002820191906000526020600020905b815481526020019060010190808311610206575b505050505090506000815167ffffffffffffffff81111561023e5761023d6117b5565b5b60405190808252806020026020018201604052801561027757816020015b61026461113f565b81526020019060019003908161025c5790505b50905060005b82518110156105395760008084838151811061029c5761029b6117e4565b5b602002602001015181526020019081526020016000206040518060c00160405290816000820160009054906101000a900473ffffffffffffffffffffffffffffffffffffffff1673ffffffffffffffffffffffffffffffffffffffff1673ffffffffffffffffffffffffffffffffffffffff16815260200160018201805461032390611842565b80601f016020809104026020016040519081016040528092919081815260200182805461034f90611842565b801561039c5780601f106103715761010080835404028352916020019161039c565b820191906000526020600020905b81548152906001019060200180831161037f57829003601f168201915b505050505081526020016002820180546103b590611842565b80601f01602080910402602001604051908101604052809291908181526020018280546103e190611842565b801561042e5780601f106104035761010080835404028352916020019161042e565b820191906000526020600020905b81548152906001019060200180831161041157829003601f168201915b505050505081526020016003820154815260200160048201805461045190611842565b80601f016020809104026020016040519081016040528092919081815260200182805461047d90611842565b80156104ca5780601f1061049f576101008083540402835291602001916104ca565b820191906000526020600020905b8154815290600101906020018083116104ad57829003601f168201915b505050505081526020016005820160009054906101000a900460ff1660028111156104f8576104f7611320565b5b600281111561050a57610509611320565b5b81525050828281518110610521576105206117e4565b5b6020026020010181905250808060010191505061027d565b5061055e6040518060600160405280602b8152602001611d0c602b9139858451610f1f565b8092505050919050565b60006020528060005260406000206000915090508060000160009054906101000a900473ffffffffffffffffffffffffffffffffffffffff16908060010180546105b190611842565b80601f01602080910402602001604051908101604052809291908181526020018280546105dd90611842565b801561062a5780601f106105ff5761010080835404028352916020019161062a565b820191906000526020600020905b81548152906001019060200180831161060d57829003601f168201915b50505050509080600201805461063f90611842565b80601f016020809104026020016040519081016040528092919081815260200182805461066b90611842565b80156106b85780601f1061068d576101008083540402835291602001916106b8565b820191906000526020600020905b81548152906001019060200180831161069b57829003601f168201915b5050505050908060030154908060040180546106d390611842565b80601f01602080910402602001604051908101604052809291908181526020018280546106ff90611842565b801561074c5780601f106107215761010080835404028352916020019161074c565b820191906000526020600020905b81548152906001019060200180831161072f57829003601f168201915b5050505050908060050160009054906101000a900460ff16905086565b60006001600081548092919061077e906118a2565b9190505590506040518060c001604052803373ffffffffffffffffffffffffffffffffffffffff16815260200189898080601f016020809104026020016040519081016040528093929190818152602001838380828437600081840152601f19601f82011690508083019250505050505050815260200187878080601f016020809104026020016040519081016040528093929190818152602001838380828437600081840152601f19601f82011690508083019250505050505050815260200185815260200184848080601f016020809104026020016040519081016040528093929190818152602001838380828437600081840152601f19601f820116905080830192505050505050508152602001600060028111156108a3576108a2611320565b5b81525060008083815260200190815260200160002060008201518160000160006101000a81548173ffffffffffffffffffffffffffffffffffffffff021916908373ffffffffffffffffffffffffffffffffffffffff16021790555060208201518160010190816109149190611a96565b50604082015181600201908161092a9190611a96565b5060608201518160030155608082015181600401908161094a9190611a96565b5060a08201518160050160006101000a81548160ff0219169083600281111561097657610975611320565b5b0217905550905050600360003373ffffffffffffffffffffffffffffffffffffffff1673ffffffffffffffffffffffffffffffffffffffff168152602001908152602001600020819080600181540180825580915050600190039060005260206000200160009091909190915055600260008154809291906109f7906118a2565b9190505550610a1f604051806060016040528060258152602001611ce7602591398233610fbe565b610aa26040518060400160405280601781526020017f2d205469746c652075726c20202020202020203a20257300000000000000000081525089898080601f016020809104026020016040519081016040528093929190818152602001838380828437600081840152601f19601f8201169050808301925050505050505061105d565b610b256040518060400160405280601781526020017f2d204465736372697074696f6e2075726c20203a20257300000000000000000081525087878080601f016020809104026020016040519081016040528093929190818152602001838380828437600081840152601f19601f8201169050808301925050505050505061105d565b3373ffffffffffffffffffffffffffffffffffffffff167fc70c48ddc39665f6d9e35e71fc85bc2cca33afbf6a041d4b59b30cfdf0e6d69589898989898989604051610b779796959493929190611ba4565b60405180910390a25050505050505050565b60036020528160005260406000208181548110610ba557600080fd5b90600052602060002001600091509150505481565b60025481565b6060600060025467ffffffffffffffff811115610be057610bdf6117b5565b5b604051908082528060200260200182016040528015610c1957816020015b610c0661113f565b815260200190600190039081610bfe5790505b50905060005b600154811015610f115760006002811115610c3d57610c3c611320565b5b60008083815260200190815260200160002060050160009054906101000a900460ff166002811115610c7257610c71611320565b5b03610f04576000808281526020019081526020016000206040518060c00160405290816000820160009054906101000a900473ffffffffffffffffffffffffffffffffffffffff1673ffffffffffffffffffffffffffffffffffffffff1673ffffffffffffffffffffffffffffffffffffffff168152602001600182018054610cfa90611842565b80601f0160208091040260200160405190810160405280929190818152602001828054610d2690611842565b8015610d735780601f10610d4857610100808354040283529160200191610d73565b820191906000526020600020905b815481529060010190602001808311610d5657829003601f168201915b50505050508152602001600282018054610d8c90611842565b80601f0160208091040260200160405190810160405280929190818152602001828054610db890611842565b8015610e055780601f10610dda57610100808354040283529160200191610e05565b820191906000526020600020905b815481529060010190602001808311610de857829003601f168201915b5050505050815260200160038201548152602001600482018054610e2890611842565b80601f0160208091040260200160405190810160405280929190818152602001828054610e5490611842565b8015610ea15780601f10610e7657610100808354040283529160200191610ea1565b820191906000526020600020905b815481529060010190602001808311610e8457829003601f168201915b505050505081526020016005820160009054906101000a900460ff166002811115610ecf57610ece611320565b5b6002811115610ee157610ee0611320565b5b81525050828281518110610ef857610ef76117e4565b5b60200260200101819052505b8080600101915050610c1f565b508091505090565b60015481565b610fb9838383604051602401610f3793929190611c04565b6040516020818303038152906040527f0d26b925000000000000000000000000000000000000000000000000000000007bffffffffffffffffffffffffffffffffffffffffffffffffffffffff19166020820180517bffffffffffffffffffffffffffffffffffffffffffffffffffffffff83818316178352505050506110f9565b505050565b611058838383604051602401610fd693929190611c42565b6040516020818303038152906040527f1c7ec448000000000000000000000000000000000000000000000000000000007bffffffffffffffffffffffffffffffffffffffffffffffffffffffff19166020820180517bffffffffffffffffffffffffffffffffffffffffffffffffffffffff83818316178352505050506110f9565b505050565b6110f58282604051602401611073929190611c80565b6040516020818303038152906040527f4b5c4277000000000000000000000000000000000000000000000000000000007bffffffffffffffffffffffffffffffffffffffffffffffffffffffff19166020820180517bffffffffffffffffffffffffffffffffffffffffffffffffffffffff83818316178352505050506110f9565b5050565b61111081611108611113611134565b63ffffffff16565b50565b60006a636f6e736f6c652e6c6f679050600080835160208501845afa505050565b61119d819050919050565b6040518060c00160405280600073ffffffffffffffffffffffffffffffffffffffff168152602001606081526020016060815260200160008152602001606081526020016000600281111561119757611196611320565b5b81525090565b6111a5611cb7565b565b600080fd5b600080fd5b600073ffffffffffffffffffffffffffffffffffffffff82169050919050565b60006111dc826111b1565b9050919050565b6111ec816111d1565b81146111f757600080fd5b50565b600081359050611209816111e3565b92915050565b600060208284031215611225576112246111a7565b5b6000611233848285016111fa565b91505092915050565b600081519050919050565b600082825260208201905092915050565b6000819050602082019050919050565b611271816111d1565b82525050565b600081519050919050565b600082825260208201905092915050565b60005b838110156112b1578082015181840152602081019050611296565b60008484015250505050565b6000601f19601f8301169050919050565b60006112d982611277565b6112e38185611282565b93506112f3818560208601611293565b6112fc816112bd565b840191505092915050565b6000819050919050565b61131a81611307565b82525050565b7f4e487b7100000000000000000000000000000000000000000000000000000000600052602160045260246000fd5b600381106113605761135f611320565b5b50565b60008190506113718261134f565b919050565b600061138182611363565b9050919050565b61139181611376565b82525050565b600060c0830160008301516113af6000860182611268565b50602083015184820360208601526113c782826112ce565b915050604083015184820360408601526113e182826112ce565b91505060608301516113f66060860182611311565b506080830151848203608086015261140e82826112ce565b91505060a083015161142360a0860182611388565b508091505092915050565b600061143a8383611397565b905092915050565b6000602082019050919050565b600061145a8261123c565b6114648185611247565b93508360208202850161147685611258565b8060005b858110156114b25784840389528151611493858261142e565b945061149e83611442565b925060208a0199505060018101905061147a565b50829750879550505050505092915050565b600060208201905081810360008301526114de818461144f565b905092915050565b6114ef81611307565b81146114fa57600080fd5b50565b60008135905061150c816114e6565b92915050565b600060208284031215611528576115276111a7565b5b6000611536848285016114fd565b91505092915050565b611548816111d1565b82525050565b600082825260208201905092915050565b600061156a82611277565b611574818561154e565b9350611584818560208601611293565b61158d816112bd565b840191505092915050565b6115a181611307565b82525050565b6115b081611376565b82525050565b600060c0820190506115cb600083018961153f565b81810360208301526115dd818861155f565b905081810360408301526115f1818761155f565b90506116006060830186611598565b8181036080830152611612818561155f565b905061162160a08301846115a7565b979650505050505050565b600080fd5b600080fd5b600080fd5b60008083601f8401126116515761165061162c565b5b8235905067ffffffffffffffff81111561166e5761166d611631565b5b60208301915083600182028301111561168a57611689611636565b5b9250929050565b60008060008060008060006080888a0312156116b0576116af6111a7565b5b600088013567ffffffffffffffff8111156116ce576116cd6111ac565b5b6116da8a828b0161163b565b9750975050602088013567ffffffffffffffff8111156116fd576116fc6111ac565b5b6117098a828b0161163b565b9550955050604061171c8a828b016114fd565b935050606088013567ffffffffffffffff81111561173d5761173c6111ac565b5b6117498a828b0161163b565b925092505092959891949750929550565b60008060408385031215611771576117706111a7565b5b600061177f858286016111fa565b9250506020611790858286016114fd565b9150509250929050565b60006020820190506117af6000830184611598565b92915050565b7f4e487b7100000000000000000000000000000000000000000000000000000000600052604160045260246000fd5b7f4e487b7100000000000000000000000000000000000000000000000000000000600052603260045260246000fd5b7f4e487b7100000000000000000000000000000000000000000000000000000000600052602260045260246000fd5b6000600282049050600182168061185a57607f821691505b60208210810361186d5761186c611813565b5b50919050565b7f4e487b7100000000000000000000000000000000000000000000000000000000600052601160045260246000fd5b60006118ad82611307565b91507fffffffffffffffffffffffffffffffffffffffffffffffffffffffffffffffff82036118df576118de611873565b5b600182019050919050565b60008190508160005260206000209050919050565b60006020601f8301049050919050565b600082821b905092915050565b60006008830261194c7fffffffffffffffffffffffffffffffffffffffffffffffffffffffffffffffff8261190f565b611956868361190f565b95508019841693508086168417925050509392505050565b6000819050919050565b600061199361198e61198984611307565b61196e565b611307565b9050919050565b6000819050919050565b6119ad83611978565b6119c16119b98261199a565b84845461191c565b825550505050565b600090565b6119d66119c9565b6119e18184846119a4565b505050565b5b81811015611a05576119fa6000826119ce565b6001810190506119e7565b5050565b601f821115611a4a57611a1b816118ea565b611a24846118ff565b81016020851015611a33578190505b611a47611a3f856118ff565b8301826119e6565b50505b505050565b600082821c905092915050565b6000611a6d60001984600802611a4f565b1980831691505092915050565b6000611a868383611a5c565b9150826002028217905092915050565b611a9f82611277565b67ffffffffffffffff811115611ab857611ab76117b5565b5b611ac28254611842565b611acd828285611a09565b600060209050601f831160018114611b005760008415611aee578287015190505b611af88582611a7a565b865550611b60565b601f198416611b0e866118ea565b60005b82811015611b3657848901518255600182019150602085019450602081019050611b11565b86831015611b535784890151611b4f601f891682611a5c565b8355505b6001600288020188555050505b505050505050565b82818337600083830152505050565b6000611b83838561154e565b9350611b90838584611b68565b611b99836112bd565b840190509392505050565b60006080820190508181036000830152611bbf81898b611b77565b90508181036020830152611bd4818789611b77565b9050611be36040830186611598565b8181036060830152611bf6818486611b77565b905098975050505050505050565b60006060820190508181036000830152611c1e818661155f565b9050611c2d602083018561153f565b611c3a6040830184611598565b949350505050565b60006060820190508181036000830152611c5c818661155f565b9050611c6b6020830185611598565b611c78604083018461153f565b949350505050565b60006040820190508181036000830152611c9a818561155f565b90508181036020830152611cae818461155f565b90509392505050565b7f4e487b7100000000000000000000000000000000000000000000000000000000600052605160045260246000fdfe4368616c6c656e67652023257320636f6e747269627574656420627920257320776974683a557365722025732068616420666574636820257320636f6e7472696275746564206368616c6c656e676573a2646970667358221220b0035f3a697ac7ca4eb620fb6f8c512726684b701dab750a5f8d0ae88dd4e5d364736f6c634300081c0033",
  "linkReferences": {},
  "deployedLinkReferences": {}
}