{
  "_format": "hh-sol-artifact-1",
  "contractName": "ChallengeManager",
  "sourceName": "contracts/ChallengeManager.sol",
  "abi": [
    {
      "anonymous": false,
      "inputs": [
        {
          "indexed": true,
          "internalType": "address",
          "name": "contributor",
          "type": "address"
        },
        {
          "indexed": false,
          "internalType": "string",
          "name": "title_url",
          "type": "string"
        },
        {
          "indexed": false,
          "internalType": "string",
          "name": "description_url",
          "type": "string"
        },
        {
          "indexed": false,
          "internalType": "enum ChallengeManager.Domain",
          "name": "category",
          "type": "uint8"
        },
        {
          "indexed": false,
          "internalType": "uint256",
          "name": "contribute_at",
          "type": "uint256"
        }
      ],
      "name": "ChallengeContributed",
      "type": "event"
    },
    {
      "anonymous": false,
      "inputs": [
        {
          "indexed": true,
          "internalType": "uint256",
          "name": "challengeId",
          "type": "uint256"
        },
        {
          "indexed": false,
          "internalType": "enum ChallengeManager.ChallengeStatus",
          "name": "status",
          "type": "uint8"
        },
        {
          "indexed": false,
          "internalType": "uint256",
          "name": "averagePercent",
          "type": "uint256"
        }
      ],
      "name": "ChallengeFinalized",
      "type": "event"
    },
    {
      "anonymous": false,
      "inputs": [
        {
          "indexed": true,
          "internalType": "address",
          "name": "user",
          "type": "address"
        },
        {
          "indexed": false,
          "internalType": "uint256",
          "name": "challengeId",
          "type": "uint256"
        },
        {
          "indexed": false,
          "internalType": "uint256",
          "name": "joinedAt",
          "type": "uint256"
        }
      ],
      "name": "ChallengeJoinedByUser",
      "type": "event"
    },
    {
      "anonymous": false,
      "inputs": [
        {
          "indexed": true,
          "internalType": "uint256",
          "name": "challenge_id",
          "type": "uint256"
        },
        {
          "indexed": true,
          "internalType": "address",
          "name": "moderator",
          "type": "address"
        }
      ],
      "name": "ReviewPoolJoined",
      "type": "event"
    },
    {
      "inputs": [],
      "name": "MAX_DIFFICULTY_LEVEL",
      "outputs": [
        {
          "internalType": "uint256",
          "name": "",
          "type": "uint256"
        }
      ],
      "stateMutability": "view",
      "type": "function"
    },
    {
      "inputs": [],
      "name": "MAX_DOMAIN",
      "outputs": [
        {
          "internalType": "uint256",
          "name": "",
          "type": "uint256"
        }
      ],
      "stateMutability": "view",
      "type": "function"
    },
    {
      "inputs": [],
      "name": "NUMBER_OF_QUALITY_FACTORS",
      "outputs": [
        {
          "internalType": "uint256",
          "name": "",
          "type": "uint256"
        }
      ],
      "stateMutability": "view",
      "type": "function"
    },
    {
      "inputs": [],
      "name": "REVIEW_QUORUM",
      "outputs": [
        {
          "internalType": "uint256",
          "name": "",
          "type": "uint256"
        }
      ],
      "stateMutability": "view",
      "type": "function"
    },
    {
      "inputs": [],
      "name": "REVIEW_THRESHOLD",
      "outputs": [
        {
          "internalType": "uint256",
          "name": "",
          "type": "uint256"
        }
      ],
      "stateMutability": "view",
      "type": "function"
    },
    {
      "inputs": [],
      "name": "approved_challenges",
      "outputs": [
        {
          "internalType": "uint256",
          "name": "",
          "type": "uint256"
        }
      ],
      "stateMutability": "view",
      "type": "function"
    },
    {
      "inputs": [
        {
          "internalType": "string",
          "name": "_title_url",
          "type": "string"
        },
        {
          "internalType": "string",
          "name": "_description_url",
          "type": "string"
        },
        {
          "internalType": "enum ChallengeManager.Domain",
          "name": "_category",
          "type": "uint8"
        },
        {
          "internalType": "uint256",
          "name": "_contribute_at",
          "type": "uint256"
        }
      ],
      "name": "contributeChallenge",
      "outputs": [],
      "stateMutability": "nonpayable",
      "type": "function"
    },
    {
      "inputs": [],
      "name": "getApprovedChallenges",
      "outputs": [
        {
          "components": [
            {
              "internalType": "uint256",
              "name": "id",
              "type": "uint256"
            },
            {
              "internalType": "address",
              "name": "contributor",
              "type": "address"
            },
            {
              "internalType": "string",
              "name": "title_url",
              "type": "string"
            },
            {
              "internalType": "string",
              "name": "description_url",
              "type": "string"
            },
            {
              "internalType": "enum ChallengeManager.Domain",
              "name": "category",
              "type": "uint8"
            },
            {
              "internalType": "uint256",
              "name": "contribute_at",
              "type": "uint256"
            },
            {
              "internalType": "enum ChallengeManager.ChallengeStatus",
              "name": "status",
              "type": "uint8"
            },
            {
              "internalType": "uint256",
              "name": "quality_score",
              "type": "uint256"
            },
            {
              "internalType": "enum ChallengeManager.DifficultyLevel",
              "name": "difficulty_level",
              "type": "uint8"
            },
            {
              "internalType": "uint256",
              "name": "solve_time",
              "type": "uint256"
            }
          ],
          "internalType": "struct ChallengeManager.Challenge[]",
          "name": "",
          "type": "tuple[]"
        }
      ],
      "stateMutability": "view",
      "type": "function"
    },
    {
      "inputs": [
        {
          "internalType": "uint256",
          "name": "_challenge_id",
          "type": "uint256"
        }
      ],
      "name": "getChallengeById",
      "outputs": [
        {
          "components": [
            {
              "internalType": "uint256",
              "name": "id",
              "type": "uint256"
            },
            {
              "internalType": "address",
              "name": "contributor",
              "type": "address"
            },
            {
              "internalType": "string",
              "name": "title_url",
              "type": "string"
            },
            {
              "internalType": "string",
              "name": "description_url",
              "type": "string"
            },
            {
              "internalType": "enum ChallengeManager.Domain",
              "name": "category",
              "type": "uint8"
            },
            {
              "internalType": "uint256",
              "name": "contribute_at",
              "type": "uint256"
            },
            {
              "internalType": "enum ChallengeManager.ChallengeStatus",
              "name": "status",
              "type": "uint8"
            },
            {
              "internalType": "uint256",
              "name": "quality_score",
              "type": "uint256"
            },
            {
              "internalType": "enum ChallengeManager.DifficultyLevel",
              "name": "difficulty_level",
              "type": "uint8"
            },
            {
              "internalType": "uint256",
              "name": "solve_time",
              "type": "uint256"
            }
          ],
          "internalType": "struct ChallengeManager.Challenge",
          "name": "",
          "type": "tuple"
        }
      ],
      "stateMutability": "view",
      "type": "function"
    },
    {
      "inputs": [
        {
          "internalType": "uint256",
          "name": "_challenge_id",
          "type": "uint256"
        }
      ],
      "name": "getChallengeFinalizedStatus",
      "outputs": [
        {
          "internalType": "bool",
          "name": "",
          "type": "bool"
        }
      ],
      "stateMutability": "view",
      "type": "function"
    },
    {
      "inputs": [
        {
          "internalType": "address",
          "name": "_contributor_address",
          "type": "address"
        }
      ],
      "name": "getChallengesByContributor",
      "outputs": [
        {
          "components": [
            {
              "internalType": "uint256",
              "name": "id",
              "type": "uint256"
            },
            {
              "internalType": "address",
              "name": "contributor",
              "type": "address"
            },
            {
              "internalType": "string",
              "name": "title_url",
              "type": "string"
            },
            {
              "internalType": "string",
              "name": "description_url",
              "type": "string"
            },
            {
              "internalType": "enum ChallengeManager.Domain",
              "name": "category",
              "type": "uint8"
            },
            {
              "internalType": "uint256",
              "name": "contribute_at",
              "type": "uint256"
            },
            {
              "internalType": "enum ChallengeManager.ChallengeStatus",
              "name": "status",
              "type": "uint8"
            },
            {
              "internalType": "uint256",
              "name": "quality_score",
              "type": "uint256"
            },
            {
              "internalType": "enum ChallengeManager.DifficultyLevel",
              "name": "difficulty_level",
              "type": "uint8"
            },
            {
              "internalType": "uint256",
              "name": "solve_time",
              "type": "uint256"
            }
          ],
          "internalType": "struct ChallengeManager.Challenge[]",
          "name": "",
          "type": "tuple[]"
        }
      ],
      "stateMutability": "view",
      "type": "function"
    },
    {
      "inputs": [
        {
          "internalType": "address",
          "name": "_moderator_address",
          "type": "address"
        }
      ],
      "name": "getChallengesByModerator",
      "outputs": [
        {
          "components": [
            {
              "internalType": "uint256",
              "name": "id",
              "type": "uint256"
            },
            {
              "internalType": "address",
              "name": "contributor",
              "type": "address"
            },
            {
              "internalType": "string",
              "name": "title_url",
              "type": "string"
            },
            {
              "internalType": "string",
              "name": "description_url",
              "type": "string"
            },
            {
              "internalType": "enum ChallengeManager.Domain",
              "name": "category",
              "type": "uint8"
            },
            {
              "internalType": "uint256",
              "name": "contribute_at",
              "type": "uint256"
            },
            {
              "internalType": "enum ChallengeManager.ChallengeStatus",
              "name": "status",
              "type": "uint8"
            },
            {
              "internalType": "uint256",
              "name": "quality_score",
              "type": "uint256"
            },
            {
              "internalType": "enum ChallengeManager.DifficultyLevel",
              "name": "difficulty_level",
              "type": "uint8"
            },
            {
              "internalType": "uint256",
              "name": "solve_time",
              "type": "uint256"
            }
          ],
          "internalType": "struct ChallengeManager.Challenge[]",
          "name": "",
          "type": "tuple[]"
        }
      ],
      "stateMutability": "view",
      "type": "function"
    },
    {
      "inputs": [
        {
          "internalType": "uint256",
          "name": "_challenge_id",
          "type": "uint256"
        },
        {
          "internalType": "address",
          "name": "_moderator_address",
          "type": "address"
        }
      ],
      "name": "getJoinReviewPoolStatus",
      "outputs": [
        {
          "internalType": "bool",
          "name": "",
          "type": "bool"
        }
      ],
      "stateMutability": "view",
      "type": "function"
    },
    {
      "inputs": [
        {
          "internalType": "address",
          "name": "_user_address",
          "type": "address"
        }
      ],
      "name": "getJoinedChallengesByUser",
      "outputs": [
        {
          "components": [
            {
              "internalType": "uint256",
              "name": "id",
              "type": "uint256"
            },
            {
              "internalType": "address",
              "name": "contributor",
              "type": "address"
            },
            {
              "internalType": "string",
              "name": "title_url",
              "type": "string"
            },
            {
              "internalType": "string",
              "name": "description_url",
              "type": "string"
            },
            {
              "internalType": "enum ChallengeManager.Domain",
              "name": "category",
              "type": "uint8"
            },
            {
              "internalType": "uint256",
              "name": "contribute_at",
              "type": "uint256"
            },
            {
              "internalType": "enum ChallengeManager.ChallengeStatus",
              "name": "status",
              "type": "uint8"
            },
            {
              "internalType": "uint256",
              "name": "quality_score",
              "type": "uint256"
            },
            {
              "internalType": "enum ChallengeManager.DifficultyLevel",
              "name": "difficulty_level",
              "type": "uint8"
            },
            {
              "internalType": "uint256",
              "name": "solve_time",
              "type": "uint256"
            }
          ],
          "internalType": "struct ChallengeManager.Challenge[]",
          "name": "",
          "type": "tuple[]"
        }
      ],
      "stateMutability": "view",
      "type": "function"
    },
    {
      "inputs": [
        {
          "internalType": "uint256",
          "name": "challenge_id",
          "type": "uint256"
        },
        {
          "internalType": "address",
          "name": "_moderator_address",
          "type": "address"
        }
      ],
      "name": "getModeratorReviewOfChallenge",
      "outputs": [
        {
          "components": [
            {
              "internalType": "address",
              "name": "moderator",
              "type": "address"
            },
            {
              "internalType": "uint256",
              "name": "challenge_id",
              "type": "uint256"
            },
            {
              "internalType": "uint256",
              "name": "review_time",
              "type": "uint256"
            },
            {
              "internalType": "enum ChallengeManager.QualityFactorAnswer",
              "name": "relevance",
              "type": "uint8"
            },
            {
              "internalType": "enum ChallengeManager.QualityFactorAnswer",
              "name": "technical_correctness",
              "type": "uint8"
            },
            {
              "internalType": "enum ChallengeManager.QualityFactorAnswer",
              "name": "completeness",
              "type": "uint8"
            },
            {
              "internalType": "enum ChallengeManager.QualityFactorAnswer",
              "name": "clarity",
              "type": "uint8"
            },
            {
              "internalType": "enum ChallengeManager.QualityFactorAnswer",
              "name": "originality",
              "type": "uint8"
            },
            {
              "internalType": "enum ChallengeManager.QualityFactorAnswer",
              "name": "unbiased",
              "type": "uint8"
            },
            {
              "internalType": "enum ChallengeManager.QualityFactorAnswer",
              "name": "plagiarism_free",
              "type": "uint8"
            },
            {
              "internalType": "enum ChallengeManager.DifficultyLevel",
              "name": "suggested_difficulty",
              "type": "uint8"
            },
            {
              "internalType": "enum ChallengeManager.Domain",
              "name": "suggested_category",
              "type": "uint8"
            },
            {
              "internalType": "uint256",
              "name": "suggested_solve_time",
              "type": "uint256"
            }
          ],
          "internalType": "struct ChallengeManager.ModeratorReview",
          "name": "",
          "type": "tuple"
        }
      ],
      "stateMutability": "view",
      "type": "function"
    },
    {
      "inputs": [],
      "name": "getPendingChallenges",
      "outputs": [
        {
          "components": [
            {
              "internalType": "uint256",
              "name": "id",
              "type": "uint256"
            },
            {
              "internalType": "address",
              "name": "contributor",
              "type": "address"
            },
            {
              "internalType": "string",
              "name": "title_url",
              "type": "string"
            },
            {
              "internalType": "string",
              "name": "description_url",
              "type": "string"
            },
            {
              "internalType": "enum ChallengeManager.Domain",
              "name": "category",
              "type": "uint8"
            },
            {
              "internalType": "uint256",
              "name": "contribute_at",
              "type": "uint256"
            },
            {
              "internalType": "enum ChallengeManager.ChallengeStatus",
              "name": "status",
              "type": "uint8"
            },
            {
              "internalType": "uint256",
              "name": "quality_score",
              "type": "uint256"
            },
            {
              "internalType": "enum ChallengeManager.DifficultyLevel",
              "name": "difficulty_level",
              "type": "uint8"
            },
            {
              "internalType": "uint256",
              "name": "solve_time",
              "type": "uint256"
            }
          ],
          "internalType": "struct ChallengeManager.Challenge[]",
          "name": "",
          "type": "tuple[]"
        }
      ],
      "stateMutability": "view",
      "type": "function"
    },
    {
      "inputs": [
        {
          "internalType": "uint256",
          "name": "_challenge_id",
          "type": "uint256"
        }
      ],
      "name": "getReviewPoolSize",
      "outputs": [
        {
          "internalType": "uint256",
          "name": "",
          "type": "uint256"
        }
      ],
      "stateMutability": "view",
      "type": "function"
    },
    {
      "inputs": [],
      "name": "getReviewQuorum",
      "outputs": [
        {
          "internalType": "uint256",
          "name": "",
          "type": "uint256"
        }
      ],
      "stateMutability": "pure",
      "type": "function"
    },
    {
      "inputs": [
        {
          "internalType": "address",
          "name": "_user_address",
          "type": "address"
        },
        {
          "internalType": "uint256",
          "name": "_challenge_id",
          "type": "uint256"
        }
      ],
      "name": "getUserHasJoinedChallenge",
      "outputs": [
        {
          "internalType": "bool",
          "name": "",
          "type": "bool"
        }
      ],
      "stateMutability": "view",
      "type": "function"
    },
    {
      "inputs": [
        {
          "internalType": "uint256",
          "name": "_challenge_id",
          "type": "uint256"
        }
      ],
      "name": "joinReviewPool",
      "outputs": [],
      "stateMutability": "nonpayable",
      "type": "function"
    },
    {
      "inputs": [],
      "name": "pending_challenges",
      "outputs": [
        {
          "internalType": "uint256",
          "name": "",
          "type": "uint256"
        }
      ],
      "stateMutability": "view",
      "type": "function"
    },
    {
      "inputs": [
        {
          "internalType": "address",
          "name": "_contributor",
          "type": "address"
        },
        {
          "internalType": "string",
          "name": "_title_url",
          "type": "string"
        },
        {
          "internalType": "string",
          "name": "_description_url",
          "type": "string"
        },
        {
          "internalType": "enum ChallengeManager.Domain",
          "name": "_category",
          "type": "uint8"
        },
        {
          "internalType": "uint256",
          "name": "_contribute_at",
          "type": "uint256"
        },
        {
          "internalType": "enum ChallengeManager.ChallengeStatus",
          "name": "_status",
          "type": "uint8"
        },
        {
          "internalType": "uint256",
          "name": "_quality_score",
          "type": "uint256"
        },
        {
          "internalType": "enum ChallengeManager.DifficultyLevel",
          "name": "_difficulty_level",
          "type": "uint8"
        },
        {
          "internalType": "uint256",
          "name": "_solve_time",
          "type": "uint256"
        }
      ],
      "name": "seedChallenge",
      "outputs": [],
      "stateMutability": "nonpayable",
      "type": "function"
    },
    {
      "inputs": [
        {
          "internalType": "uint256",
          "name": "_challenge_id",
          "type": "uint256"
        },
        {
          "internalType": "enum ChallengeManager.QualityFactorAnswer",
          "name": "_relevance",
          "type": "uint8"
        },
        {
          "internalType": "enum ChallengeManager.QualityFactorAnswer",
          "name": "_technical_correctness",
          "type": "uint8"
        },
        {
          "internalType": "enum ChallengeManager.QualityFactorAnswer",
          "name": "_completeness",
          "type": "uint8"
        },
        {
          "internalType": "enum ChallengeManager.QualityFactorAnswer",
          "name": "_clarity",
          "type": "uint8"
        },
        {
          "internalType": "enum ChallengeManager.QualityFactorAnswer",
          "name": "_originality",
          "type": "uint8"
        },
        {
          "internalType": "enum ChallengeManager.QualityFactorAnswer",
          "name": "_unbiased",
          "type": "uint8"
        },
        {
          "internalType": "enum ChallengeManager.QualityFactorAnswer",
          "name": "_plagiarism_free",
          "type": "uint8"
        },
        {
          "internalType": "enum ChallengeManager.DifficultyLevel",
          "name": "_suggested_difficulty",
          "type": "uint8"
        },
        {
          "internalType": "enum ChallengeManager.Domain",
          "name": "_suggested_category",
          "type": "uint8"
        },
        {
          "internalType": "uint256",
          "name": "_suggested_solve_time",
          "type": "uint256"
        }
      ],
      "name": "submitModeratorReview",
      "outputs": [],
      "stateMutability": "nonpayable",
      "type": "function"
    },
    {
      "inputs": [],
      "name": "total_challenges",
      "outputs": [
        {
          "internalType": "uint256",
          "name": "",
          "type": "uint256"
        }
      ],
      "stateMutability": "view",
      "type": "function"
    },
    {
      "inputs": [
        {
          "internalType": "address",
          "name": "_user_address",
          "type": "address"
        },
        {
          "internalType": "uint256",
          "name": "_challenge_id",
          "type": "uint256"
        }
      ],
      "name": "userJoinChallenge",
      "outputs": [],
      "stateMutability": "nonpayable",
      "type": "function"
    }
  ],
  "bytecode": "0x6080604052600060075560006008556000600955348015601e57600080fd5b506156c88061002e6000396000f3fe608060405234801561001057600080fd5b50600436106101735760003560e01c80636bf8eaf2116100de578063be21f20c11610097578063dd0e12ca11610071578063dd0e12ca14610474578063e94a783014610492578063e9d04f71146104c2578063f83eb275146104e057610173565b8063be21f20c146103f6578063c80191b814610414578063dc2ee85c1461044457610173565b80636bf8eaf2146103205780638758aabb1461033e57806392376e131461035a578063955b67241461038a578063a22b6a86146103a8578063a821a067146103c657610173565b80634c7b5a8e116101305780634c7b5a8e1461024c5780635057494a1461026a5780635a14c9441461029a5780635d880de9146102b65780635d9db5c4146102d4578063616e2e56146102f057610173565b80630f3356031461017857806315d2fe3a146101a85780631bc3e684146101d85780632b366996146101f457806345637d8f1461021257806349a25e6d1461022e575b600080fd5b610192600480360381019061018d9190613f21565b6104fe565b60405161019f9190614191565b60405180910390f35b6101c260048036038101906101bd91906141ad565b610817565b6040516101cf9190614208565b60405180910390f35b6101f260048036038101906101ed91906141ad565b610882565b005b6101fc610a91565b6040516102099190614232565b60405180910390f35b61022c60048036038101906102279190614321565b610a97565b005b610236610f3b565b6040516102439190614232565b60405180910390f35b610254610f40565b6040516102619190614232565b60405180910390f35b610284600480360381019061027f919061442d565b610f46565b60405161029191906146d5565b60405180910390f35b6102b460048036038101906102af91906146f7565b611324565b005b6102be611634565b6040516102cb9190614232565b60405180910390f35b6102ee60048036038101906102e99190614724565b611639565b005b61030a6004803603810190610305919061442d565b611abd565b60405161031791906146d5565b60405180910390f35b610328611e9b565b6040516103359190614232565b60405180910390f35b610358600480360381019061035391906147f0565b611ea0565b005b610374600480360381019061036f91906146f7565b6126f9565b60405161038191906149c5565b60405180910390f35b61039261299c565b60405161039f9190614232565b60405180910390f35b6103b06129a1565b6040516103bd9190614232565b60405180910390f35b6103e060048036038101906103db91906146f7565b6129a7565b6040516103ed9190614208565b60405180910390f35b6103fe6129d4565b60405161040b91906146d5565b60405180910390f35b61042e60048036038101906104299190613f21565b612d64565b60405161043b9190614208565b60405180910390f35b61045e6004803603810190610459919061442d565b612dcf565b60405161046b91906146d5565b60405180910390f35b61047c61318e565b60405161048991906146d5565b60405180910390f35b6104ac60048036038101906104a791906146f7565b61351e565b6040516104b99190614232565b60405180910390f35b6104ca613541565b6040516104d79190614232565b60405180910390f35b6104e8613546565b6040516104f59190614232565b60405180910390f35b610506613cba565b6105296040518060600160405280602b8152602001615595602b9139838561354f565b6001600084815260200190815260200160002060030160008373ffffffffffffffffffffffffffffffffffffffff1673ffffffffffffffffffffffffffffffffffffffff168152602001908152602001600020604051806101a00160405290816000820160009054906101000a900473ffffffffffffffffffffffffffffffffffffffff1673ffffffffffffffffffffffffffffffffffffffff1673ffffffffffffffffffffffffffffffffffffffff16815260200160018201548152602001600282015481526020016003820160009054906101000a900460ff16600181111561061757610616613f7f565b5b600181111561062957610628613f7f565b5b81526020016003820160019054906101000a900460ff16600181111561065257610651613f7f565b5b600181111561066457610663613f7f565b5b81526020016003820160029054906101000a900460ff16600181111561068d5761068c613f7f565b5b600181111561069f5761069e613f7f565b5b81526020016003820160039054906101000a900460ff1660018111156106c8576106c7613f7f565b5b60018111156106da576106d9613f7f565b5b81526020016003820160049054906101000a900460ff16600181111561070357610702613f7f565b5b600181111561071557610714613f7f565b5b81526020016003820160059054906101000a900460ff16600181111561073e5761073d613f7f565b5b60018111156107505761074f613f7f565b5b81526020016003820160069054906101000a900460ff16600181111561077957610778613f7f565b5b600181111561078b5761078a613f7f565b5b81526020016003820160079054906101000a900460ff1660028111156107b4576107b3613f7f565b5b60028111156107c6576107c5613f7f565b5b81526020016003820160089054906101000a900460ff16600d8111156107ef576107ee613f7f565b5b600d81111561080157610800613f7f565b5b8152602001600482015481525050905092915050565b6000600660008473ffffffffffffffffffffffffffffffffffffffff1673ffffffffffffffffffffffffffffffffffffffff168152602001908152602001600020600083815260200190815260200160002060000160009054906101000a900460ff16905092915050565b60075481106108c6576040517f08c379a00000000000000000000000000000000000000000000000000000000081526004016108bd90614a44565b60405180910390fd5b6000600660008473ffffffffffffffffffffffffffffffffffffffff1673ffffffffffffffffffffffffffffffffffffffff168152602001908152602001600020600083815260200190815260200160002090508060000160009054906101000a900460ff161561096c576040517f08c379a000000000000000000000000000000000000000000000000000000000815260040161096390614ad6565b60405180910390fd5b60018160000160006101000a81548160ff021916908315150217905550428160010181905550600560008473ffffffffffffffffffffffffffffffffffffffff1673ffffffffffffffffffffffffffffffffffffffff168152602001908152602001600020829080600181540180825580915050600190039060005260206000200160009091909190915055610a386040518060400160405280601f81526020017f5573657220257320686173206a6f696e6564206368616c6c656e676520257300815250848461354f565b8273ffffffffffffffffffffffffffffffffffffffff167fc9e3de16af1f601c85f1f98f6bc173cd0a8b0fcd25dcd67893470617830fa5f9838360010154604051610a84929190614af6565b60405180910390a2505050565b60085481565b600060076000815480929190610aac90614b4e565b9190505590506040518061014001604052808281526020018d73ffffffffffffffffffffffffffffffffffffffff1681526020018c8c8080601f016020809104026020016040519081016040528093929190818152602001838380828437600081840152601f19601f8201169050808301925050505050505081526020018a8a8080601f016020809104026020016040519081016040528093929190818152602001838380828437600081840152601f19601f82011690508083019250505050505050815260200188600d811115610b8757610b86613f7f565b5b8152602001878152602001866002811115610ba557610ba4613f7f565b5b8152602001858152602001846002811115610bc357610bc2613f7f565b5b8152602001838152506000808381526020019081526020016000206000820151816000015560208201518160010160006101000a81548173ffffffffffffffffffffffffffffffffffffffff021916908373ffffffffffffffffffffffffffffffffffffffff1602179055506040820151816002019081610c449190614dd1565b506060820151816003019081610c5a9190614dd1565b5060808201518160040160006101000a81548160ff0219169083600d811115610c8657610c85613f7f565b5b021790555060a0820151816005015560c08201518160060160006101000a81548160ff02191690836002811115610cc057610cbf613f7f565b5b021790555060e082015181600701556101008201518160080160006101000a81548160ff02191690836002811115610cfb57610cfa613f7f565b5b02179055506101208201518160090155905050600260008d73ffffffffffffffffffffffffffffffffffffffff1673ffffffffffffffffffffffffffffffffffffffff16815260200190815260200160002081908060018154018082558091505060019003906000526020600020016000909190919091505560006002811115610d8857610d87613f7f565b5b856002811115610d9b57610d9a613f7f565b5b03610dbd5760086000815480929190610db390614b4e565b9190505550610e03565b60016002811115610dd157610dd0613f7f565b5b856002811115610de457610de3613f7f565b5b03610e025760096000815480929190610dfc90614b4e565b91905055505b5b610e2760405180606001604052806026815260200161556f60269139828e896135ee565b610eaa6040518060400160405280601781526020017f2d205469746c652075726c20202020202020203a2025730000000000000000008152508c8c8080601f016020809104026020016040519081016040528093929190818152602001838380828437600081840152601f19601f82011690508083019250505050505050613690565b610f2d6040518060400160405280601781526020017f2d204465736372697074696f6e2075726c20203a2025730000000000000000008152508a8a8080601f016020809104026020016040519081016040528093929190818152602001838380828437600081840152601f19601f82011690508083019250505050505050613690565b505050505050505050505050565b600e81565b60075481565b60606000600360008473ffffffffffffffffffffffffffffffffffffffff1673ffffffffffffffffffffffffffffffffffffffff168152602001908152602001600020805480602002602001604051908101604052809291908181526020018280548015610fd357602002820191906000526020600020905b815481526020019060010190808311610fbf575b505050505090506000815167ffffffffffffffff811115610ff757610ff6614b96565b5b60405190808252806020026020018201604052801561103057816020015b61101d613dda565b8152602001906001900390816110155790505b50905060005b82518110156112f55760008084838151811061105557611054614ea3565b5b6020026020010151815260200190815260200160002060405180610140016040529081600082015481526020016001820160009054906101000a900473ffffffffffffffffffffffffffffffffffffffff1673ffffffffffffffffffffffffffffffffffffffff1673ffffffffffffffffffffffffffffffffffffffff1681526020016002820180546110e790614bf4565b80601f016020809104026020016040519081016040528092919081815260200182805461111390614bf4565b80156111605780601f1061113557610100808354040283529160200191611160565b820191906000526020600020905b81548152906001019060200180831161114357829003601f168201915b5050505050815260200160038201805461117990614bf4565b80601f01602080910402602001604051908101604052809291908181526020018280546111a590614bf4565b80156111f25780601f106111c7576101008083540402835291602001916111f2565b820191906000526020600020905b8154815290600101906020018083116111d557829003601f168201915b505050505081526020016004820160009054906101000a900460ff16600d8111156112205761121f613f7f565b5b600d81111561123257611231613f7f565b5b8152602001600582015481526020016006820160009054906101000a900460ff16600281111561126557611264613f7f565b5b600281111561127757611276613f7f565b5b8152602001600782015481526020016008820160009054906101000a900460ff1660028111156112aa576112a9613f7f565b5b60028111156112bc576112bb613f7f565b5b81526020016009820154815250508282815181106112dd576112dc614ea3565b5b60200260200101819052508080600101915050611036565b5061131a6040518060600160405280602b8152602001615512602b913985845161354f565b8092505050919050565b806001600082815260200190815260200160002060010160009054906101000a900460ff1615611389576040517f08c379a000000000000000000000000000000000000000000000000000000000815260040161138090614f1e565b60405180910390fd5b60036001600084815260200190815260200160002060000180549050106113e5576040517f08c379a00000000000000000000000000000000000000000000000000000000081526004016113dc90614f8a565b60405180910390fd5b600015156001600084815260200190815260200160002060040160003373ffffffffffffffffffffffffffffffffffffffff1673ffffffffffffffffffffffffffffffffffffffff16815260200190815260200160002060009054906101000a900460ff1615151461148c576040517f08c379a00000000000000000000000000000000000000000000000000000000081526004016114839061501c565b60405180910390fd5b600360003373ffffffffffffffffffffffffffffffffffffffff1673ffffffffffffffffffffffffffffffffffffffff168152602001908152602001600020829080600181540180825580915050600190039060005260206000200160009091909190915055600060016000848152602001908152602001600020905080600001339080600181540180825580915050600190039060005260206000200160009091909190916101000a81548173ffffffffffffffffffffffffffffffffffffffff021916908373ffffffffffffffffffffffffffffffffffffffff16021790555060018160040160003373ffffffffffffffffffffffffffffffffffffffff1673ffffffffffffffffffffffffffffffffffffffff16815260200190815260200160002060006101000a81548160ff0219169083151502179055503373ffffffffffffffffffffffffffffffffffffffff16837f07fe5c562bb72cc8709dc10987f69acf04ba0d45c871d6c281e32df878063dcd60405160405180910390a361162f60405180606001604052806031815260200161566260319139338561354f565b505050565b600381565b60006007600081548092919061164e90614b4e565b9190505590506040518061014001604052808281526020013373ffffffffffffffffffffffffffffffffffffffff16815260200188888080601f016020809104026020016040519081016040528093929190818152602001838380828437600081840152601f19601f82011690508083019250505050505050815260200186868080601f016020809104026020016040519081016040528093929190818152602001838380828437600081840152601f19601f82011690508083019250505050505050815260200184600d81111561172957611728613f7f565b5b81526020018381526020016000600281111561174857611747613f7f565b5b8152602001600081526020016000600281111561176857611767613f7f565b5b815260200160008152506000808381526020019081526020016000206000820151816000015560208201518160010160006101000a81548173ffffffffffffffffffffffffffffffffffffffff021916908373ffffffffffffffffffffffffffffffffffffffff16021790555060408201518160020190816117ea9190614dd1565b5060608201518160030190816118009190614dd1565b5060808201518160040160006101000a81548160ff0219169083600d81111561182c5761182b613f7f565b5b021790555060a0820151816005015560c08201518160060160006101000a81548160ff0219169083600281111561186657611865613f7f565b5b021790555060e082015181600701556101008201518160080160006101000a81548160ff021916908360028111156118a1576118a0613f7f565b5b02179055506101208201518160090155905050600260003373ffffffffffffffffffffffffffffffffffffffff1673ffffffffffffffffffffffffffffffffffffffff1681526020019081526020016000208190806001815401808255809150506001900390600052602060002001600090919091909150556008600081548092919061192d90614b4e565b91905055506119566040518060600160405280602b81526020016154ba602b91398233856135ee565b6119d96040518060400160405280601781526020017f2d205469746c652075726c20202020202020203a20257300000000000000000081525088888080601f016020809104026020016040519081016040528093929190818152602001838380828437600081840152601f19601f82011690508083019250505050505050613690565b611a5c6040518060400160405280601781526020017f2d204465736372697074696f6e2075726c20203a20257300000000000000000081525086868080601f016020809104026020016040519081016040528093929190818152602001838380828437600081840152601f19601f82011690508083019250505050505050613690565b3373ffffffffffffffffffffffffffffffffffffffff167f42672180e30fb0e2e6ae998046a0806bf23368de710977e1a63920574c378a1c888888888888604051611aac96959493929190615087565b60405180910390a250505050505050565b60606000600260008473ffffffffffffffffffffffffffffffffffffffff1673ffffffffffffffffffffffffffffffffffffffff168152602001908152602001600020805480602002602001604051908101604052809291908181526020018280548015611b4a57602002820191906000526020600020905b815481526020019060010190808311611b36575b505050505090506000815167ffffffffffffffff811115611b6e57611b6d614b96565b5b604051908082528060200260200182016040528015611ba757816020015b611b94613dda565b815260200190600190039081611b8c5790505b50905060005b8251811015611e6c57600080848381518110611bcc57611bcb614ea3565b5b6020026020010151815260200190815260200160002060405180610140016040529081600082015481526020016001820160009054906101000a900473ffffffffffffffffffffffffffffffffffffffff1673ffffffffffffffffffffffffffffffffffffffff1673ffffffffffffffffffffffffffffffffffffffff168152602001600282018054611c5e90614bf4565b80601f0160208091040260200160405190810160405280929190818152602001828054611c8a90614bf4565b8015611cd75780601f10611cac57610100808354040283529160200191611cd7565b820191906000526020600020905b815481529060010190602001808311611cba57829003601f168201915b50505050508152602001600382018054611cf090614bf4565b80601f0160208091040260200160405190810160405280929190818152602001828054611d1c90614bf4565b8015611d695780601f10611d3e57610100808354040283529160200191611d69565b820191906000526020600020905b815481529060010190602001808311611d4c57829003601f168201915b505050505081526020016004820160009054906101000a900460ff16600d811115611d9757611d96613f7f565b5b600d811115611da957611da8613f7f565b5b8152602001600582015481526020016006820160009054906101000a900460ff166002811115611ddc57611ddb613f7f565b5b6002811115611dee57611ded613f7f565b5b8152602001600782015481526020016008820160009054906101000a900460ff166002811115611e2157611e20613f7f565b5b6002811115611e3357611e32613f7f565b5b8152602001600982015481525050828281518110611e5457611e53614ea3565b5b60200260200101819052508080600101915050611bad565b50611e916040518060600160405280602d8152602001615635602d913985845161354f565b8092505050919050565b605081565b8a6001600082815260200190815260200160002060010160009054906101000a900460ff1615611f05576040517f08c379a0000000000000000000000000000000000000000000000000000000008152600401611efc90614f1e565b60405180910390fd5b60011515600160008e815260200190815260200160002060040160003373ffffffffffffffffffffffffffffffffffffffff1673ffffffffffffffffffffffffffffffffffffffff16815260200190815260200160002060009054906101000a900460ff16151514611fac576040517f08c379a0000000000000000000000000000000000000000000000000000000008152600401611fa390615150565b60405180910390fd5b6000600160008e8152602001908152602001600020905060008160030160003373ffffffffffffffffffffffffffffffffffffffff1673ffffffffffffffffffffffffffffffffffffffff168152602001908152602001600020600201540361202a5780600201600081548092919061202490614b4e565b91905055505b604051806101a001604052803373ffffffffffffffffffffffffffffffffffffffff1681526020018e81526020014281526020018d600181111561207157612070613f7f565b5b81526020018c600181111561208957612088613f7f565b5b81526020018b60018111156120a1576120a0613f7f565b5b81526020018a60018111156120b9576120b8613f7f565b5b81526020018960018111156120d1576120d0613f7f565b5b81526020018860018111156120e9576120e8613f7f565b5b815260200187600181111561210157612100613f7f565b5b815260200186600281111561211957612118613f7f565b5b815260200185600d81111561213157612130613f7f565b5b8152602001848152508160030160003373ffffffffffffffffffffffffffffffffffffffff1673ffffffffffffffffffffffffffffffffffffffff16815260200190815260200160002060008201518160000160006101000a81548173ffffffffffffffffffffffffffffffffffffffff021916908373ffffffffffffffffffffffffffffffffffffffff160217905550602082015181600101556040820151816002015560608201518160030160006101000a81548160ff0219169083600181111561220157612200613f7f565b5b021790555060808201518160030160016101000a81548160ff0219169083600181111561223157612230613f7f565b5b021790555060a08201518160030160026101000a81548160ff0219169083600181111561226157612260613f7f565b5b021790555060c08201518160030160036101000a81548160ff0219169083600181111561229157612290613f7f565b5b021790555060e08201518160030160046101000a81548160ff021916908360018111156122c1576122c0613f7f565b5b02179055506101008201518160030160056101000a81548160ff021916908360018111156122f2576122f1613f7f565b5b02179055506101208201518160030160066101000a81548160ff0219169083600181111561232357612322613f7f565b5b02179055506101408201518160030160076101000a81548160ff0219169083600281111561235457612353613f7f565b5b02179055506101608201518160030160086101000a81548160ff0219169083600d81111561238557612384613f7f565b5b021790555061018082015181600401559050506123bb6040518060600160405280602d81526020016154e5602d9139338f61354f565b61240c6040518060400160405280600f81526020017f2d2052656c6576616e63653a20257300000000000000000000000000000000008152508d600181111561240757612406613f7f565b5b61372c565b61245d6040518060400160405280601b81526020017f2d20546563686e6963616c20636f72726563746e6573733a20257300000000008152508c600181111561245857612457613f7f565b5b61372c565b6124ae6040518060400160405280601281526020017f2d20436f6d706c6574656e6573733a20257300000000000000000000000000008152508b60018111156124a9576124a8613f7f565b5b61372c565b6124ff6040518060400160405280600d81526020017f2d20436c61726974793a202573000000000000000000000000000000000000008152508a60018111156124fa576124f9613f7f565b5b61372c565b6125506040518060400160405280601181526020017f2d204f726967696e616c6974793a20257300000000000000000000000000000081525089600181111561254b5761254a613f7f565b5b61372c565b6125a16040518060400160405280600e81526020017f2d20556e6269617365643a20257300000000000000000000000000000000000081525088600181111561259c5761259b613f7f565b5b61372c565b6125f26040518060400160405280601581526020017f2d20506c616769617269736d20667265653a20257300000000000000000000008152508760018111156125ed576125ec613f7f565b5b61372c565b6126436040518060400160405280601a81526020017f2d2053756767657374656420646966666963756c74793a20257300000000000081525086600281111561263e5761263d613f7f565b5b61372c565b6126946040518060400160405280601881526020017f2d205375676765737465642063617465676f72793a202573000000000000000081525085600d81111561268f5761268e613f7f565b5b61372c565b6126d36040518060400160405280601a81526020017f2d2053756767657374656420736f6c76652074696d653a2025730000000000008152508461372c565b60038160020154106126ea576126e98d826137c8565b5b50505050505050505050505050565b612701613dda565b6127246040518060600160405280602181526020016155f160219139338461354f565b60008083815260200190815260200160002060405180610140016040529081600082015481526020016001820160009054906101000a900473ffffffffffffffffffffffffffffffffffffffff1673ffffffffffffffffffffffffffffffffffffffff1673ffffffffffffffffffffffffffffffffffffffff1681526020016002820180546127b290614bf4565b80601f01602080910402602001604051908101604052809291908181526020018280546127de90614bf4565b801561282b5780601f106128005761010080835404028352916020019161282b565b820191906000526020600020905b81548152906001019060200180831161280e57829003601f168201915b5050505050815260200160038201805461284490614bf4565b80601f016020809104026020016040519081016040528092919081815260200182805461287090614bf4565b80156128bd5780601f10612892576101008083540402835291602001916128bd565b820191906000526020600020905b8154815290600101906020018083116128a057829003601f168201915b505050505081526020016004820160009054906101000a900460ff16600d8111156128eb576128ea613f7f565b5b600d8111156128fd576128fc613f7f565b5b8152602001600582015481526020016006820160009054906101000a900460ff1660028111156129305761292f613f7f565b5b600281111561294257612941613f7f565b5b8152602001600782015481526020016008820160009054906101000a900460ff16600281111561297557612974613f7f565b5b600281111561298757612986613f7f565b5b81526020016009820154815250509050919050565b600781565b60095481565b60006001600083815260200190815260200160002060010160009054906101000a900460ff169050919050565b6060600060085467ffffffffffffffff8111156129f4576129f3614b96565b5b604051908082528060200260200182016040528015612a2d57816020015b612a1a613dda565b815260200190600190039081612a125790505b5090506000805b600754811015612d375760006002811115612a5257612a51613f7f565b5b60008083815260200190815260200160002060060160009054906101000a900460ff166002811115612a8757612a86613f7f565b5b03612d2a5760008082815260200190815260200160002060405180610140016040529081600082015481526020016001820160009054906101000a900473ffffffffffffffffffffffffffffffffffffffff1673ffffffffffffffffffffffffffffffffffffffff1673ffffffffffffffffffffffffffffffffffffffff168152602001600282018054612b1a90614bf4565b80601f0160208091040260200160405190810160405280929190818152602001828054612b4690614bf4565b8015612b935780601f10612b6857610100808354040283529160200191612b93565b820191906000526020600020905b815481529060010190602001808311612b7657829003601f168201915b50505050508152602001600382018054612bac90614bf4565b80601f0160208091040260200160405190810160405280929190818152602001828054612bd890614bf4565b8015612c255780601f10612bfa57610100808354040283529160200191612c25565b820191906000526020600020905b815481529060010190602001808311612c0857829003601f168201915b505050505081526020016004820160009054906101000a900460ff16600d811115612c5357612c52613f7f565b5b600d811115612c6557612c64613f7f565b5b8152602001600582015481526020016006820160009054906101000a900460ff166002811115612c9857612c97613f7f565b5b6002811115612caa57612ca9613f7f565b5b8152602001600782015481526020016008820160009054906101000a900460ff166002811115612cdd57612cdc613f7f565b5b6002811115612cef57612cee613f7f565b5b8152602001600982015481525050838381518110612d1057612d0f614ea3565b5b60200260200101819052508180612d2690614b4e565b9250505b8080600101915050612a34565b50612d5c6040518060600160405280603181526020016155c06031913933845161354f565b819250505090565b60006001600084815260200190815260200160002060040160008373ffffffffffffffffffffffffffffffffffffffff1673ffffffffffffffffffffffffffffffffffffffff16815260200190815260200160002060009054906101000a900460ff16905092915050565b60606000600560008473ffffffffffffffffffffffffffffffffffffffff1673ffffffffffffffffffffffffffffffffffffffff168152602001908152602001600020805480602002602001604051908101604052809291908181526020018280548015612e5c57602002820191906000526020600020905b815481526020019060010190808311612e48575b5050505050905060008151905060008167ffffffffffffffff811115612e8557612e84614b96565b5b604051908082528060200260200182016040528015612ebe57816020015b612eab613dda565b815260200190600190039081612ea35790505b50905060005b8281101561318257600080858381518110612ee257612ee1614ea3565b5b6020026020010151815260200190815260200160002060405180610140016040529081600082015481526020016001820160009054906101000a900473ffffffffffffffffffffffffffffffffffffffff1673ffffffffffffffffffffffffffffffffffffffff1673ffffffffffffffffffffffffffffffffffffffff168152602001600282018054612f7490614bf4565b80601f0160208091040260200160405190810160405280929190818152602001828054612fa090614bf4565b8015612fed5780601f10612fc257610100808354040283529160200191612fed565b820191906000526020600020905b815481529060010190602001808311612fd057829003601f168201915b5050505050815260200160038201805461300690614bf4565b80601f016020809104026020016040519081016040528092919081815260200182805461303290614bf4565b801561307f5780601f106130545761010080835404028352916020019161307f565b820191906000526020600020905b81548152906001019060200180831161306257829003601f168201915b505050505081526020016004820160009054906101000a900460ff16600d8111156130ad576130ac613f7f565b5b600d8111156130bf576130be613f7f565b5b8152602001600582015481526020016006820160009054906101000a900460ff1660028111156130f2576130f1613f7f565b5b600281111561310457613103613f7f565b5b8152602001600782015481526020016008820160009054906101000a900460ff16600281111561313757613136613f7f565b5b600281111561314957613148613f7f565b5b815260200160098201548152505082828151811061316a57613169614ea3565b5b60200260200101819052508080600101915050612ec4565b50809350505050919050565b6060600060095467ffffffffffffffff8111156131ae576131ad614b96565b5b6040519080825280602002602001820160405280156131e757816020015b6131d4613dda565b8152602001906001900390816131cc5790505b5090506000805b6007548110156134f1576001600281111561320c5761320b613f7f565b5b60008083815260200190815260200160002060060160009054906101000a900460ff16600281111561324157613240613f7f565b5b036134e45760008082815260200190815260200160002060405180610140016040529081600082015481526020016001820160009054906101000a900473ffffffffffffffffffffffffffffffffffffffff1673ffffffffffffffffffffffffffffffffffffffff1673ffffffffffffffffffffffffffffffffffffffff1681526020016002820180546132d490614bf4565b80601f016020809104026020016040519081016040528092919081815260200182805461330090614bf4565b801561334d5780601f106133225761010080835404028352916020019161334d565b820191906000526020600020905b81548152906001019060200180831161333057829003601f168201915b5050505050815260200160038201805461336690614bf4565b80601f016020809104026020016040519081016040528092919081815260200182805461339290614bf4565b80156133df5780601f106133b4576101008083540402835291602001916133df565b820191906000526020600020905b8154815290600101906020018083116133c257829003601f168201915b505050505081526020016004820160009054906101000a900460ff16600d81111561340d5761340c613f7f565b5b600d81111561341f5761341e613f7f565b5b8152602001600582015481526020016006820160009054906101000a900460ff16600281111561345257613451613f7f565b5b600281111561346457613463613f7f565b5b8152602001600782015481526020016008820160009054906101000a900460ff16600281111561349757613496613f7f565b5b60028111156134a9576134a8613f7f565b5b81526020016009820154815250508383815181106134ca576134c9614ea3565b5b602002602001018190525081806134e090614b4e565b9250505b80806001019150506131ee565b5061351660405180606001604052806032815260200161553d6032913933845161354f565b819250505090565b600060016000838152602001908152602001600020600001805490509050919050565b600381565b60006003905090565b6135e9838383604051602401613567939291906151b8565b6040516020818303038152906040527f0d26b925000000000000000000000000000000000000000000000000000000007bffffffffffffffffffffffffffffffffffffffffffffffffffffffff19166020820180517bffffffffffffffffffffffffffffffffffffffffffffffffffffffff8381831617835250505050613bd5565b505050565b61368a8484848460405160240161360894939291906151f6565b6040516020818303038152906040527f4f04fdc6000000000000000000000000000000000000000000000000000000007bffffffffffffffffffffffffffffffffffffffffffffffffffffffff19166020820180517bffffffffffffffffffffffffffffffffffffffffffffffffffffffff8381831617835250505050613bd5565b50505050565b61372882826040516024016136a6929190615242565b6040516020818303038152906040527f4b5c4277000000000000000000000000000000000000000000000000000000007bffffffffffffffffffffffffffffffffffffffffffffffffffffffff19166020820180517bffffffffffffffffffffffffffffffffffffffffffffffffffffffff8381831617835250505050613bd5565b5050565b6137c48282604051602401613742929190615279565b6040516020818303038152906040527fb60e72cc000000000000000000000000000000000000000000000000000000007bffffffffffffffffffffffffffffffffffffffffffffffffffffffff19166020820180517bffffffffffffffffffffffffffffffffffffffffffffffffffffffff8381831617835250505050613bd5565b5050565b8060010160009054906101000a900460ff161561381a576040517f08c379a0000000000000000000000000000000000000000000000000000000008152600401613811906152f5565b60405180910390fd5b6000805b8260000180549050811015613a0557600083600301600085600001848154811061384b5761384a614ea3565b5b9060005260206000200160009054906101000a900473ffffffffffffffffffffffffffffffffffffffff1673ffffffffffffffffffffffffffffffffffffffff1673ffffffffffffffffffffffffffffffffffffffff16815260200190815260200160002090508060030160069054906101000a900460ff1660018111156138d6576138d5613f7f565b5b8160030160059054906101000a900460ff1660018111156138fa576138f9613f7f565b5b8260030160049054906101000a900460ff16600181111561391e5761391d613f7f565b5b8360030160039054906101000a900460ff16600181111561394257613941613f7f565b5b8460030160029054906101000a900460ff16600181111561396657613965613f7f565b5b8560030160019054906101000a900460ff16600181111561398a57613989613f7f565b5b8660030160009054906101000a900460ff1660018111156139ae576139ad613f7f565b5b6139b89190615315565b6139c29190615315565b6139cc9190615315565b6139d69190615315565b6139e09190615315565b6139ea9190615315565b836139f59190615315565b925050808060010191505061381e565b50600082600201546007613a199190615349565b606483613a269190615349565b613a3091906153ba565b9050613a55604051806060016040528060238152602001615612602391398583613bef565b60508110613ad057600160008086815260200190815260200160002060060160006101000a81548160ff02191690836002811115613a9657613a95613f7f565b5b021790555060086000815480929190613aae906153eb565b919050555060096000815480929190613ac690614b4e565b9190505550613b27565b600260008086815260200190815260200160002060060160006101000a81548160ff02191690836002811115613b0957613b08613f7f565b5b021790555060086000815480929190613b21906153eb565b91905055505b806000808681526020019081526020016000206007018190555060018360010160006101000a81548160ff021916908315150217905550837f1a20d608d2289bdfc4581c5a0722f4636bd21c1610f2485c20a4b20fd1f57a5360008087815260200190815260200160002060060160009054906101000a900460ff1660008088815260200190815260200160002060070154604051613bc7929190615423565b60405180910390a250505050565b613bec81613be4613c8e613caf565b63ffffffff16565b50565b613c89838383604051602401613c079392919061544c565b6040516020818303038152906040527fca47c4eb000000000000000000000000000000000000000000000000000000007bffffffffffffffffffffffffffffffffffffffffffffffffffffffff19166020820180517bffffffffffffffffffffffffffffffffffffffffffffffffffffffff8381831617835250505050613bd5565b505050565b60006a636f6e736f6c652e6c6f679050600080835160208501845afa505050565b613e79819050919050565b604051806101a00160405280600073ffffffffffffffffffffffffffffffffffffffff168152602001600081526020016000815260200160006001811115613d0557613d04613f7f565b5b815260200160006001811115613d1e57613d1d613f7f565b5b815260200160006001811115613d3757613d36613f7f565b5b815260200160006001811115613d5057613d4f613f7f565b5b815260200160006001811115613d6957613d68613f7f565b5b815260200160006001811115613d8257613d81613f7f565b5b815260200160006001811115613d9b57613d9a613f7f565b5b815260200160006002811115613db457613db3613f7f565b5b81526020016000600d811115613dcd57613dcc613f7f565b5b8152602001600081525090565b60405180610140016040528060008152602001600073ffffffffffffffffffffffffffffffffffffffff16815260200160608152602001606081526020016000600d811115613e2c57613e2b613f7f565b5b81526020016000815260200160006002811115613e4c57613e4b613f7f565b5b81526020016000815260200160006002811115613e6c57613e6b613f7f565b5b8152602001600081525090565b613e8161548a565b565b600080fd5b600080fd5b6000819050919050565b613ea081613e8d565b8114613eab57600080fd5b50565b600081359050613ebd81613e97565b92915050565b600073ffffffffffffffffffffffffffffffffffffffff82169050919050565b6000613eee82613ec3565b9050919050565b613efe81613ee3565b8114613f0957600080fd5b50565b600081359050613f1b81613ef5565b92915050565b60008060408385031215613f3857613f37613e83565b5b6000613f4685828601613eae565b9250506020613f5785828601613f0c565b9150509250929050565b613f6a81613ee3565b82525050565b613f7981613e8d565b82525050565b7f4e487b7100000000000000000000000000000000000000000000000000000000600052602160045260246000fd5b60028110613fbf57613fbe613f7f565b5b50565b6000819050613fd082613fae565b919050565b6000613fe082613fc2565b9050919050565b613ff081613fd5565b82525050565b6003811061400757614006613f7f565b5b50565b600081905061401882613ff6565b919050565b60006140288261400a565b9050919050565b6140388161401d565b82525050565b600e811061404f5761404e613f7f565b5b50565b60008190506140608261403e565b919050565b600061407082614052565b9050919050565b61408081614065565b82525050565b6101a08201600082015161409d6000850182613f61565b5060208201516140b06020850182613f70565b5060408201516140c36040850182613f70565b5060608201516140d66060850182613fe7565b5060808201516140e96080850182613fe7565b5060a08201516140fc60a0850182613fe7565b5060c082015161410f60c0850182613fe7565b5060e082015161412260e0850182613fe7565b50610100820151614137610100850182613fe7565b5061012082015161414c610120850182613fe7565b5061014082015161416161014085018261402f565b50610160820151614176610160850182614077565b5061018082015161418b610180850182613f70565b50505050565b60006101a0820190506141a76000830184614086565b92915050565b600080604083850312156141c4576141c3613e83565b5b60006141d285828601613f0c565b92505060206141e385828601613eae565b9150509250929050565b60008115159050919050565b614202816141ed565b82525050565b600060208201905061421d60008301846141f9565b92915050565b61422c81613e8d565b82525050565b60006020820190506142476000830184614223565b92915050565b600080fd5b600080fd5b600080fd5b60008083601f8401126142725761427161424d565b5b8235905067ffffffffffffffff81111561428f5761428e614252565b5b6020830191508360018202830111156142ab576142aa614257565b5b9250929050565b600e81106142bf57600080fd5b50565b6000813590506142d1816142b2565b92915050565b600381106142e457600080fd5b50565b6000813590506142f6816142d7565b92915050565b6003811061430957600080fd5b50565b60008135905061431b816142fc565b92915050565b60008060008060008060008060008060006101208c8e03121561434757614346613e83565b5b60006143558e828f01613f0c565b9b505060208c013567ffffffffffffffff81111561437657614375613e88565b5b6143828e828f0161425c565b9a509a505060408c013567ffffffffffffffff8111156143a5576143a4613e88565b5b6143b18e828f0161425c565b985098505060606143c48e828f016142c2565b96505060806143d58e828f01613eae565b95505060a06143e68e828f016142e7565b94505060c06143f78e828f01613eae565b93505060e06144088e828f0161430c565b92505061010061441a8e828f01613eae565b9150509295989b509295989b9093969950565b60006020828403121561444357614442613e83565b5b600061445184828501613f0c565b91505092915050565b600081519050919050565b600082825260208201905092915050565b6000819050602082019050919050565b600081519050919050565b600082825260208201905092915050565b60005b838110156144c05780820151818401526020810190506144a5565b60008484015250505050565b6000601f19601f8301169050919050565b60006144e882614486565b6144f28185614491565b93506145028185602086016144a2565b61450b816144cc565b840191505092915050565b6003811061452757614526613f7f565b5b50565b600081905061453882614516565b919050565b60006145488261452a565b9050919050565b6145588161453d565b82525050565b6000610140830160008301516145776000860182613f70565b50602083015161458a6020860182613f61565b50604083015184820360408601526145a282826144dd565b915050606083015184820360608601526145bc82826144dd565b91505060808301516145d16080860182614077565b5060a08301516145e460a0860182613f70565b5060c08301516145f760c086018261454f565b5060e083015161460a60e0860182613f70565b5061010083015161461f61010086018261402f565b50610120830151614634610120860182613f70565b508091505092915050565b600061464b838361455e565b905092915050565b6000602082019050919050565b600061466b8261445a565b6146758185614465565b93508360208202850161468785614476565b8060005b858110156146c357848403895281516146a4858261463f565b94506146af83614653565b925060208a0199505060018101905061468b565b50829750879550505050505092915050565b600060208201905081810360008301526146ef8184614660565b905092915050565b60006020828403121561470d5761470c613e83565b5b600061471b84828501613eae565b91505092915050565b6000806000806000806080878903121561474157614740613e83565b5b600087013567ffffffffffffffff81111561475f5761475e613e88565b5b61476b89828a0161425c565b9650965050602087013567ffffffffffffffff81111561478e5761478d613e88565b5b61479a89828a0161425c565b945094505060406147ad89828a016142c2565b92505060606147be89828a01613eae565b9150509295509295509295565b600281106147d857600080fd5b50565b6000813590506147ea816147cb565b92915050565b60008060008060008060008060008060006101608c8e03121561481657614815613e83565b5b60006148248e828f01613eae565b9b505060206148358e828f016147db565b9a505060406148468e828f016147db565b99505060606148578e828f016147db565b98505060806148688e828f016147db565b97505060a06148798e828f016147db565b96505060c061488a8e828f016147db565b95505060e061489b8e828f016147db565b9450506101006148ad8e828f0161430c565b9350506101206148bf8e828f016142c2565b9250506101406148d18e828f01613eae565b9150509295989b509295989b9093969950565b6000610140830160008301516148fd6000860182613f70565b5060208301516149106020860182613f61565b506040830151848203604086015261492882826144dd565b9150506060830151848203606086015261494282826144dd565b91505060808301516149576080860182614077565b5060a083015161496a60a0860182613f70565b5060c083015161497d60c086018261454f565b5060e083015161499060e0860182613f70565b506101008301516149a561010086018261402f565b506101208301516149ba610120860182613f70565b508091505092915050565b600060208201905081810360008301526149df81846148e4565b905092915050565b600082825260208201905092915050565b7f4368616c6c656e676520646f6573206e6f742065786973740000000000000000600082015250565b6000614a2e6018836149e7565b9150614a39826149f8565b602082019050919050565b60006020820190508181036000830152614a5d81614a21565b9050919050565b7f5573657220616c7265616479206a6f696e65642074686973206368616c6c656e60008201527f6765000000000000000000000000000000000000000000000000000000000000602082015250565b6000614ac06022836149e7565b9150614acb82614a64565b604082019050919050565b60006020820190508181036000830152614aef81614ab3565b9050919050565b6000604082019050614b0b6000830185614223565b614b186020830184614223565b9392505050565b7f4e487b7100000000000000000000000000000000000000000000000000000000600052601160045260246000fd5b6000614b5982613e8d565b91507fffffffffffffffffffffffffffffffffffffffffffffffffffffffffffffffff8203614b8b57614b8a614b1f565b5b600182019050919050565b7f4e487b7100000000000000000000000000000000000000000000000000000000600052604160045260246000fd5b7f4e487b7100000000000000000000000000000000000000000000000000000000600052602260045260246000fd5b60006002820490506001821680614c0c57607f821691505b602082108103614c1f57614c1e614bc5565b5b50919050565b60008190508160005260206000209050919050565b60006020601f8301049050919050565b600082821b905092915050565b600060088302614c877fffffffffffffffffffffffffffffffffffffffffffffffffffffffffffffffff82614c4a565b614c918683614c4a565b95508019841693508086168417925050509392505050565b6000819050919050565b6000614cce614cc9614cc484613e8d565b614ca9565b613e8d565b9050919050565b6000819050919050565b614ce883614cb3565b614cfc614cf482614cd5565b848454614c57565b825550505050565b600090565b614d11614d04565b614d1c818484614cdf565b505050565b5b81811015614d4057614d35600082614d09565b600181019050614d22565b5050565b601f821115614d8557614d5681614c25565b614d5f84614c3a565b81016020851015614d6e578190505b614d82614d7a85614c3a565b830182614d21565b50505b505050565b600082821c905092915050565b6000614da860001984600802614d8a565b1980831691505092915050565b6000614dc18383614d97565b9150826002028217905092915050565b614dda82614486565b67ffffffffffffffff811115614df357614df2614b96565b5b614dfd8254614bf4565b614e08828285614d44565b600060209050601f831160018114614e3b5760008415614e29578287015190505b614e338582614db5565b865550614e9b565b601f198416614e4986614c25565b60005b82811015614e7157848901518255600182019150602085019450602081019050614e4c565b86831015614e8e5784890151614e8a601f891682614d97565b8355505b6001600288020188555050505b505050505050565b7f4e487b7100000000000000000000000000000000000000000000000000000000600052603260045260246000fd5b7f4368616c6c656e676520616c72656164792066696e616c697365640000000000600082015250565b6000614f08601b836149e7565b9150614f1382614ed2565b602082019050919050565b60006020820190508181036000830152614f3781614efb565b9050919050565b7f4d6178206d6f64657261746f7273207265616368656400000000000000000000600082015250565b6000614f746016836149e7565b9150614f7f82614f3e565b602082019050919050565b60006020820190508181036000830152614fa381614f67565b9050919050565b7f596f75206861766520616c7265616479206a6f696e656420746869732072657660008201527f69657720706f6f6c2e0000000000000000000000000000000000000000000000602082015250565b60006150066029836149e7565b915061501182614faa565b604082019050919050565b6000602082019050818103600083015261503581614ff9565b9050919050565b82818337600083830152505050565b600061505783856149e7565b935061506483858461503c565b61506d836144cc565b840190509392505050565b61508181614065565b82525050565b600060808201905081810360008301526150a281888a61504b565b905081810360208301526150b781868861504b565b90506150c66040830185615078565b6150d36060830184614223565b979650505050505050565b7f596f752068617665206e6f74206a6f696e65642074686973207265766965772060008201527f706f6f6c2e000000000000000000000000000000000000000000000000000000602082015250565b600061513a6025836149e7565b9150615145826150de565b604082019050919050565b600060208201905081810360008301526151698161512d565b9050919050565b600061517b82614486565b61518581856149e7565b93506151958185602086016144a2565b61519e816144cc565b840191505092915050565b6151b281613ee3565b82525050565b600060608201905081810360008301526151d28186615170565b90506151e160208301856151a9565b6151ee6040830184614223565b949350505050565b600060808201905081810360008301526152108187615170565b905061521f6020830186614223565b61522c60408301856151a9565b6152396060830184614223565b95945050505050565b6000604082019050818103600083015261525c8185615170565b905081810360208301526152708184615170565b90509392505050565b600060408201905081810360008301526152938185615170565b90506152a26020830184614223565b9392505050565b7f4368616c6c656e676520616c72656164792066696e616c697a65640000000000600082015250565b60006152df601b836149e7565b91506152ea826152a9565b602082019050919050565b6000602082019050818103600083015261530e816152d2565b9050919050565b600061532082613e8d565b915061532b83613e8d565b925082820190508082111561534357615342614b1f565b5b92915050565b600061535482613e8d565b915061535f83613e8d565b925082820261536d81613e8d565b9150828204841483151761538457615383614b1f565b5b5092915050565b7f4e487b7100000000000000000000000000000000000000000000000000000000600052601260045260246000fd5b60006153c582613e8d565b91506153d083613e8d565b9250826153e0576153df61538b565b5b828204905092915050565b60006153f682613e8d565b91506000820361540957615408614b1f565b5b600182039050919050565b61541d8161453d565b82525050565b60006040820190506154386000830185615414565b6154456020830184614223565b9392505050565b600060608201905081810360008301526154668186615170565b90506154756020830185614223565b6154826040830184614223565b949350505050565b7f4e487b7100000000000000000000000000000000000000000000000000000000600052605160045260246000fdfe4368616c6c656e67652023257320636f6e747269627574656420627920257320617420257320776974683a4d6f64657261746f7220257320757064617465642072657669657720666f72206368616c6c656e67652023257355736572202573206861642066657463686564202573206d6f64657261746564206368616c6c656e676573536d61727420636f6e74726163742025732068616420666574636820257320617070726f766564206368616c6c656e6765734368616c6c656e6765202325732073656564656420627920257320617420257320776974683a5573657220257320686164206665746368656420726576696577206f66206368616c6c656e676520232573536d61727420636f6e7472616374202573206861642066657463682025732070656e64696e67206368616c6c656e67657355736572202573206861642066657463686564206368616c6c656e676520232573417665726167652073636f726520666f72206368616c6c656e6765202325733a2025735573657220257320686164206665746368656420257320636f6e7472696275746564206368616c6c656e6765734d6f64657261746f72202573206a6f696e65642072657669657720706f6f6c20666f72206368616c6c656e676520232573a26469706673582212206b3e06143b2df35421b6c18ab6c5131805306d5026952c27040757f4742f57cd64736f6c634300081c0033",
  "linkReferences": {},
  "deployedLinkReferences": {}
}