{
  "_format": "hh-sol-artifact-1",
  "contractName": "ChallengeManager",
  "sourceName": "contracts/ChallengeManager.sol",
  "abi": [
    {
      "anonymous": false,
      "inputs": [
        {
          "indexed": true,
          "internalType": "address",
          "name": "contributor",
          "type": "address"
        },
        {
          "indexed": false,
          "internalType": "string",
          "name": "title_url",
          "type": "string"
        },
        {
          "indexed": false,
          "internalType": "string",
          "name": "description_url",
          "type": "string"
        },
        {
          "indexed": false,
          "internalType": "enum SystemEnums.Domain",
          "name": "category",
          "type": "uint8"
        },
        {
          "indexed": false,
          "internalType": "uint256",
          "name": "contribute_at",
          "type": "uint256"
        }
      ],
      "name": "ChallengeContributed",
      "type": "event"
    },
    {
      "anonymous": false,
      "inputs": [
        {
          "indexed": true,
          "internalType": "uint256",
          "name": "challengeId",
          "type": "uint256"
        },
        {
          "indexed": false,
          "internalType": "enum SystemEnums.ChallengeStatus",
          "name": "status",
          "type": "uint8"
        },
        {
          "indexed": false,
          "internalType": "uint256",
          "name": "averagePercent",
          "type": "uint256"
        }
      ],
      "name": "ChallengeFinalized",
      "type": "event"
    },
    {
      "anonymous": false,
      "inputs": [
        {
          "indexed": true,
          "internalType": "address",
          "name": "user",
          "type": "address"
        },
        {
          "indexed": false,
          "internalType": "uint256",
          "name": "challengeId",
          "type": "uint256"
        },
        {
          "indexed": false,
          "internalType": "uint256",
          "name": "joinedAt",
          "type": "uint256"
        }
      ],
      "name": "ChallengeJoinedByUser",
      "type": "event"
    },
    {
      "anonymous": false,
      "inputs": [
        {
          "indexed": true,
          "internalType": "uint256",
          "name": "challenge_id",
          "type": "uint256"
        },
        {
          "indexed": true,
          "internalType": "address",
          "name": "moderator",
          "type": "address"
        }
      ],
      "name": "ReviewPoolJoined",
      "type": "event"
    },
    {
      "inputs": [],
      "name": "approved_challenges",
      "outputs": [
        {
          "internalType": "uint256",
          "name": "",
          "type": "uint256"
        }
      ],
      "stateMutability": "view",
      "type": "function"
    },
    {
      "inputs": [
        {
          "internalType": "string",
          "name": "_title_url",
          "type": "string"
        },
        {
          "internalType": "string",
          "name": "_description_url",
          "type": "string"
        },
        {
          "internalType": "enum SystemEnums.Domain",
          "name": "_category",
          "type": "uint8"
        },
        {
          "internalType": "uint256",
          "name": "_contribute_at",
          "type": "uint256"
        }
      ],
      "name": "contributeChallenge",
      "outputs": [],
      "stateMutability": "nonpayable",
      "type": "function"
    },
    {
      "inputs": [],
      "name": "getApprovedChallenges",
      "outputs": [
        {
          "components": [
            {
              "internalType": "uint256",
              "name": "id",
              "type": "uint256"
            },
            {
              "internalType": "address",
              "name": "contributor",
              "type": "address"
            },
            {
              "internalType": "string",
              "name": "title_url",
              "type": "string"
            },
            {
              "internalType": "string",
              "name": "description_url",
              "type": "string"
            },
            {
              "internalType": "enum SystemEnums.Domain",
              "name": "category",
              "type": "uint8"
            },
            {
              "internalType": "uint256",
              "name": "contribute_at",
              "type": "uint256"
            },
            {
              "internalType": "enum SystemEnums.ChallengeStatus",
              "name": "status",
              "type": "uint8"
            },
            {
              "internalType": "uint256",
              "name": "quality_score",
              "type": "uint256"
            },
            {
              "internalType": "enum SystemEnums.DifficultyLevel",
              "name": "difficulty_level",
              "type": "uint8"
            },
            {
              "internalType": "uint256",
              "name": "solve_time",
              "type": "uint256"
            },
            {
              "internalType": "uint256",
              "name": "completed",
              "type": "uint256"
            }
          ],
          "internalType": "struct ChallengeManager.Challenge[]",
          "name": "",
          "type": "tuple[]"
        }
      ],
      "stateMutability": "view",
      "type": "function"
    },
    {
      "inputs": [
        {
          "internalType": "uint256",
          "name": "_challenge_id",
          "type": "uint256"
        }
      ],
      "name": "getChallengeById",
      "outputs": [
        {
          "components": [
            {
              "internalType": "uint256",
              "name": "id",
              "type": "uint256"
            },
            {
              "internalType": "address",
              "name": "contributor",
              "type": "address"
            },
            {
              "internalType": "string",
              "name": "title_url",
              "type": "string"
            },
            {
              "internalType": "string",
              "name": "description_url",
              "type": "string"
            },
            {
              "internalType": "enum SystemEnums.Domain",
              "name": "category",
              "type": "uint8"
            },
            {
              "internalType": "uint256",
              "name": "contribute_at",
              "type": "uint256"
            },
            {
              "internalType": "enum SystemEnums.ChallengeStatus",
              "name": "status",
              "type": "uint8"
            },
            {
              "internalType": "uint256",
              "name": "quality_score",
              "type": "uint256"
            },
            {
              "internalType": "enum SystemEnums.DifficultyLevel",
              "name": "difficulty_level",
              "type": "uint8"
            },
            {
              "internalType": "uint256",
              "name": "solve_time",
              "type": "uint256"
            },
            {
              "internalType": "uint256",
              "name": "completed",
              "type": "uint256"
            }
          ],
          "internalType": "struct ChallengeManager.Challenge",
          "name": "",
          "type": "tuple"
        }
      ],
      "stateMutability": "view",
      "type": "function"
    },
    {
      "inputs": [
        {
          "internalType": "uint256",
          "name": "_challenge_id",
          "type": "uint256"
        }
      ],
      "name": "getChallengeDifficultyById",
      "outputs": [
        {
          "internalType": "enum SystemEnums.DifficultyLevel",
          "name": "",
          "type": "uint8"
        }
      ],
      "stateMutability": "view",
      "type": "function"
    },
    {
      "inputs": [
        {
          "internalType": "uint256",
          "name": "_challenge_id",
          "type": "uint256"
        }
      ],
      "name": "getChallengeDomainById",
      "outputs": [
        {
          "internalType": "enum SystemEnums.Domain",
          "name": "",
          "type": "uint8"
        }
      ],
      "stateMutability": "view",
      "type": "function"
    },
    {
      "inputs": [
        {
          "internalType": "uint256",
          "name": "_challenge_id",
          "type": "uint256"
        }
      ],
      "name": "getChallengeFinalizedStatus",
      "outputs": [
        {
          "internalType": "bool",
          "name": "",
          "type": "bool"
        }
      ],
      "stateMutability": "view",
      "type": "function"
    },
    {
      "inputs": [
        {
          "internalType": "uint256",
          "name": "_challenge_id",
          "type": "uint256"
        }
      ],
      "name": "getChallengeTitleById",
      "outputs": [
        {
          "internalType": "string",
          "name": "",
          "type": "string"
        }
      ],
      "stateMutability": "view",
      "type": "function"
    },
    {
      "inputs": [
        {
          "internalType": "address",
          "name": "_contributor_address",
          "type": "address"
        }
      ],
      "name": "getChallengesByContributor",
      "outputs": [
        {
          "components": [
            {
              "internalType": "uint256",
              "name": "id",
              "type": "uint256"
            },
            {
              "internalType": "address",
              "name": "contributor",
              "type": "address"
            },
            {
              "internalType": "string",
              "name": "title_url",
              "type": "string"
            },
            {
              "internalType": "string",
              "name": "description_url",
              "type": "string"
            },
            {
              "internalType": "enum SystemEnums.Domain",
              "name": "category",
              "type": "uint8"
            },
            {
              "internalType": "uint256",
              "name": "contribute_at",
              "type": "uint256"
            },
            {
              "internalType": "enum SystemEnums.ChallengeStatus",
              "name": "status",
              "type": "uint8"
            },
            {
              "internalType": "uint256",
              "name": "quality_score",
              "type": "uint256"
            },
            {
              "internalType": "enum SystemEnums.DifficultyLevel",
              "name": "difficulty_level",
              "type": "uint8"
            },
            {
              "internalType": "uint256",
              "name": "solve_time",
              "type": "uint256"
            },
            {
              "internalType": "uint256",
              "name": "completed",
              "type": "uint256"
            }
          ],
          "internalType": "struct ChallengeManager.Challenge[]",
          "name": "",
          "type": "tuple[]"
        }
      ],
      "stateMutability": "view",
      "type": "function"
    },
    {
      "inputs": [
        {
          "internalType": "address",
          "name": "_moderator_address",
          "type": "address"
        }
      ],
      "name": "getChallengesByModerator",
      "outputs": [
        {
          "components": [
            {
              "internalType": "uint256",
              "name": "id",
              "type": "uint256"
            },
            {
              "internalType": "address",
              "name": "contributor",
              "type": "address"
            },
            {
              "internalType": "string",
              "name": "title_url",
              "type": "string"
            },
            {
              "internalType": "string",
              "name": "description_url",
              "type": "string"
            },
            {
              "internalType": "enum SystemEnums.Domain",
              "name": "category",
              "type": "uint8"
            },
            {
              "internalType": "uint256",
              "name": "contribute_at",
              "type": "uint256"
            },
            {
              "internalType": "enum SystemEnums.ChallengeStatus",
              "name": "status",
              "type": "uint8"
            },
            {
              "internalType": "uint256",
              "name": "quality_score",
              "type": "uint256"
            },
            {
              "internalType": "enum SystemEnums.DifficultyLevel",
              "name": "difficulty_level",
              "type": "uint8"
            },
            {
              "internalType": "uint256",
              "name": "solve_time",
              "type": "uint256"
            },
            {
              "internalType": "uint256",
              "name": "completed",
              "type": "uint256"
            }
          ],
          "internalType": "struct ChallengeManager.Challenge[]",
          "name": "",
          "type": "tuple[]"
        }
      ],
      "stateMutability": "view",
      "type": "function"
    },
    {
      "inputs": [
        {
          "internalType": "uint256",
          "name": "_challenge_id",
          "type": "uint256"
        },
        {
          "internalType": "address",
          "name": "_moderator_address",
          "type": "address"
        }
      ],
      "name": "getJoinReviewPoolStatus",
      "outputs": [
        {
          "internalType": "bool",
          "name": "",
          "type": "bool"
        }
      ],
      "stateMutability": "view",
      "type": "function"
    },
    {
      "inputs": [
        {
          "internalType": "address",
          "name": "_user_address",
          "type": "address"
        }
      ],
      "name": "getJoinedChallengesByUserForPreview",
      "outputs": [
        {
          "components": [
            {
              "internalType": "uint256",
              "name": "challenge_id",
              "type": "uint256"
            },
            {
              "internalType": "string",
              "name": "title_url",
              "type": "string"
            },
            {
              "internalType": "string",
              "name": "description_url",
              "type": "string"
            },
            {
              "internalType": "enum SystemEnums.Domain",
              "name": "domain",
              "type": "uint8"
            },
            {
              "internalType": "enum SystemEnums.SolutionProgress",
              "name": "progress",
              "type": "uint8"
            },
            {
              "internalType": "uint256",
              "name": "joined_at",
              "type": "uint256"
            },
            {
              "internalType": "uint256",
              "name": "score",
              "type": "uint256"
            }
          ],
          "internalType": "struct ChallengeManager.JoinedChallengesPreview[]",
          "name": "",
          "type": "tuple[]"
        }
      ],
      "stateMutability": "view",
      "type": "function"
    },
    {
      "inputs": [
        {
          "internalType": "uint256",
          "name": "challenge_id",
          "type": "uint256"
        },
        {
          "internalType": "address",
          "name": "_moderator_address",
          "type": "address"
        }
      ],
      "name": "getModeratorReviewOfChallenge",
      "outputs": [
        {
          "components": [
            {
              "internalType": "address",
              "name": "moderator",
              "type": "address"
            },
            {
              "internalType": "uint256",
              "name": "challenge_id",
              "type": "uint256"
            },
            {
              "internalType": "uint256",
              "name": "review_time",
              "type": "uint256"
            },
            {
              "internalType": "enum SystemEnums.QualityFactorAnswer",
              "name": "relevance",
              "type": "uint8"
            },
            {
              "internalType": "enum SystemEnums.QualityFactorAnswer",
              "name": "technical_correctness",
              "type": "uint8"
            },
            {
              "internalType": "enum SystemEnums.QualityFactorAnswer",
              "name": "completeness",
              "type": "uint8"
            },
            {
              "internalType": "enum SystemEnums.QualityFactorAnswer",
              "name": "clarity",
              "type": "uint8"
            },
            {
              "internalType": "enum SystemEnums.QualityFactorAnswer",
              "name": "originality",
              "type": "uint8"
            },
            {
              "internalType": "enum SystemEnums.QualityFactorAnswer",
              "name": "unbiased",
              "type": "uint8"
            },
            {
              "internalType": "enum SystemEnums.QualityFactorAnswer",
              "name": "plagiarism_free",
              "type": "uint8"
            },
            {
              "internalType": "enum SystemEnums.DifficultyLevel",
              "name": "suggested_difficulty",
              "type": "uint8"
            },
            {
              "internalType": "enum SystemEnums.Domain",
              "name": "suggested_category",
              "type": "uint8"
            },
            {
              "internalType": "uint256",
              "name": "suggested_solve_time",
              "type": "uint256"
            },
            {
              "internalType": "uint256",
              "name": "review_score",
              "type": "uint256"
            }
          ],
          "internalType": "struct ChallengeManager.ModeratorReview",
          "name": "",
          "type": "tuple"
        }
      ],
      "stateMutability": "view",
      "type": "function"
    },
    {
      "inputs": [],
      "name": "getPendingChallenges",
      "outputs": [
        {
          "components": [
            {
              "internalType": "uint256",
              "name": "id",
              "type": "uint256"
            },
            {
              "internalType": "address",
              "name": "contributor",
              "type": "address"
            },
            {
              "internalType": "string",
              "name": "title_url",
              "type": "string"
            },
            {
              "internalType": "string",
              "name": "description_url",
              "type": "string"
            },
            {
              "internalType": "enum SystemEnums.Domain",
              "name": "category",
              "type": "uint8"
            },
            {
              "internalType": "uint256",
              "name": "contribute_at",
              "type": "uint256"
            },
            {
              "internalType": "enum SystemEnums.ChallengeStatus",
              "name": "status",
              "type": "uint8"
            },
            {
              "internalType": "uint256",
              "name": "quality_score",
              "type": "uint256"
            },
            {
              "internalType": "enum SystemEnums.DifficultyLevel",
              "name": "difficulty_level",
              "type": "uint8"
            },
            {
              "internalType": "uint256",
              "name": "solve_time",
              "type": "uint256"
            },
            {
              "internalType": "uint256",
              "name": "completed",
              "type": "uint256"
            }
          ],
          "internalType": "struct ChallengeManager.Challenge[]",
          "name": "",
          "type": "tuple[]"
        }
      ],
      "stateMutability": "view",
      "type": "function"
    },
    {
      "inputs": [
        {
          "internalType": "uint256",
          "name": "_challenge_id",
          "type": "uint256"
        }
      ],
      "name": "getReviewPoolSize",
      "outputs": [
        {
          "internalType": "uint256",
          "name": "",
          "type": "uint256"
        }
      ],
      "stateMutability": "view",
      "type": "function"
    },
    {
      "inputs": [],
      "name": "getReviewQuorum",
      "outputs": [
        {
          "internalType": "uint256",
          "name": "",
          "type": "uint256"
        }
      ],
      "stateMutability": "pure",
      "type": "function"
    },
    {
      "inputs": [
        {
          "internalType": "uint256",
          "name": "_challenge_id",
          "type": "uint256"
        }
      ],
      "name": "joinReviewPool",
      "outputs": [],
      "stateMutability": "nonpayable",
      "type": "function"
    },
    {
      "inputs": [],
      "name": "pending_challenges",
      "outputs": [
        {
          "internalType": "uint256",
          "name": "",
          "type": "uint256"
        }
      ],
      "stateMutability": "view",
      "type": "function"
    },
    {
      "inputs": [
        {
          "internalType": "address",
          "name": "_contributor",
          "type": "address"
        },
        {
          "internalType": "string",
          "name": "_title_url",
          "type": "string"
        },
        {
          "internalType": "string",
          "name": "_description_url",
          "type": "string"
        },
        {
          "internalType": "enum SystemEnums.Domain",
          "name": "_category",
          "type": "uint8"
        },
        {
          "internalType": "uint256",
          "name": "_contribute_at",
          "type": "uint256"
        },
        {
          "internalType": "enum SystemEnums.ChallengeStatus",
          "name": "_status",
          "type": "uint8"
        },
        {
          "internalType": "uint256",
          "name": "_quality_score",
          "type": "uint256"
        },
        {
          "internalType": "enum SystemEnums.DifficultyLevel",
          "name": "_difficulty_level",
          "type": "uint8"
        },
        {
          "internalType": "uint256",
          "name": "_solve_time",
          "type": "uint256"
        }
      ],
      "name": "seedChallenge",
      "outputs": [],
      "stateMutability": "nonpayable",
      "type": "function"
    },
    {
      "inputs": [
        {
          "internalType": "address",
          "name": "_address",
          "type": "address"
        }
      ],
      "name": "setReputationManagerAddress",
      "outputs": [],
      "stateMutability": "nonpayable",
      "type": "function"
    },
    {
      "inputs": [
        {
          "internalType": "address",
          "name": "_address",
          "type": "address"
        }
      ],
      "name": "setSolutionManagerAddress",
      "outputs": [],
      "stateMutability": "nonpayable",
      "type": "function"
    },
    {
      "inputs": [
        {
          "internalType": "uint256",
          "name": "_challenge_id",
          "type": "uint256"
        },
        {
          "internalType": "enum SystemEnums.QualityFactorAnswer",
          "name": "_relevance",
          "type": "uint8"
        },
        {
          "internalType": "enum SystemEnums.QualityFactorAnswer",
          "name": "_technical_correctness",
          "type": "uint8"
        },
        {
          "internalType": "enum SystemEnums.QualityFactorAnswer",
          "name": "_completeness",
          "type": "uint8"
        },
        {
          "internalType": "enum SystemEnums.QualityFactorAnswer",
          "name": "_clarity",
          "type": "uint8"
        },
        {
          "internalType": "enum SystemEnums.QualityFactorAnswer",
          "name": "_originality",
          "type": "uint8"
        },
        {
          "internalType": "enum SystemEnums.QualityFactorAnswer",
          "name": "_unbiased",
          "type": "uint8"
        },
        {
          "internalType": "enum SystemEnums.QualityFactorAnswer",
          "name": "_plagiarism_free",
          "type": "uint8"
        },
        {
          "internalType": "enum SystemEnums.DifficultyLevel",
          "name": "_suggested_difficulty",
          "type": "uint8"
        },
        {
          "internalType": "enum SystemEnums.Domain",
          "name": "_suggested_category",
          "type": "uint8"
        },
        {
          "internalType": "uint256",
          "name": "_suggested_solve_time",
          "type": "uint256"
        }
      ],
      "name": "submitModeratorReview",
      "outputs": [],
      "stateMutability": "nonpayable",
      "type": "function"
    },
    {
      "inputs": [],
      "name": "total_challenges",
      "outputs": [
        {
          "internalType": "uint256",
          "name": "",
          "type": "uint256"
        }
      ],
      "stateMutability": "view",
      "type": "function"
    },
    {
      "inputs": [
        {
          "internalType": "uint256",
          "name": "_challenge_id",
          "type": "uint256"
        }
      ],
      "name": "userCompleteChallenge",
      "outputs": [],
      "stateMutability": "nonpayable",
      "type": "function"
    },
    {
      "inputs": [
        {
          "internalType": "uint256",
          "name": "_challenge_id",
          "type": "uint256"
        },
        {
          "internalType": "string",
          "name": "_solution_base_txid",
          "type": "string"
        }
      ],
      "name": "userJoinChallenge",
      "outputs": [],
      "stateMutability": "nonpayable",
      "type": "function"
    }
  ],
  "bytecode": "0x6080806040523460245760006009556000600a556000600b556133ec908161002a8239f35b600080fdfe608080604052600436101561001357600080fd5b600090813560e01c9081630939b81414612b78575080630f335603146128ae5780632b27d921146125465780632b3669961461252857806333ce96de146124f757806345637d8f14611fee5780634c7b5a8e14611fd05780635057494a14611e055780635a14c94414611bf85780635cf2249f14611ba05780635d9db5c414611673578063616e2e56146114a65780638758aabb146109df57806392376e13146108a5578063a22b6a8614610887578063a821a06714610856578063be21f20c146106c4578063c361e8cf1461066c578063c80191b81461061e578063d25520641461039e578063dd0e12ca146101f6578063e2e68253146101c1578063e94a783014610197578063f55dd32b146101525763f83eb2751461013457600080fd5b3461014f578060031936011261014f57602060405160038152f35b80fd5b503461014f57602036600319011261014f5761017f60026040610193936004358152806020522001612efd565b604051918291602083526020830190612c18565b0390f35b503461014f57602036600319011261014f5760406020916004358152600183522054604051908152f35b503461014f57602036600319011261014f5760ff6004604060209382358152808552200154166101f46040518092612c0b565bf35b503461014f578060031936011261014f57610212600b5461313a565b60095482805b82811061029157610193846102858782519050604051610239606082612dfd565b603281527f536d61727420636f6e74726163742025732068616420666574636820257320616020820152717070726f766564206368616c6c656e67657360701b60408201523390613242565b60405191829182612d34565b80855284602052600160ff6006604088200154166102ae81612bad565b146102bc575b600101610218565b906103966001918387528660205260408720600a604051916102dd83612de1565b80548352858060a01b03868201541660208401526102fd60028201612efd565b604084015261030e60038201612efd565b606084015261032760ff60048301541660808501612e2a565b600581015460a084015260ff60068201541661034281612bad565b60c0840152600781015460e084015260ff60088201541661036281612bad565b610100840152600981015461012084015201546101408201526103858288612e99565b526103908187612e99565b50612fa1565b9190506102b4565b503461014f57604036600319011261014f576004356024356001600160401b0381116105a9576103d2903690600401612c59565b6009548310156105b8576008546103f3906001600160a01b03161515612e36565b60075460405163846900cf60e01b8152336004820152602481018590526001600160a01b039091169190602081604481865afa9081156106135786916105d4575b506105d0576103e84202924284046103e814421517156105bc5790829186933b156105b8576104909284928360405180968195829463d82ff2e960e01b84523360048501528c6024850152608060448501526084840191613214565b89606483015203925af180156105ad57610594575b505033835260046020526104bc826040852061303c565b60008061052b61054b6040516104d3606082612dfd565b602181527f55736572202573206a6f696e6564206368616c6c656e676520257320617420256020820152607360f81b6040820152604051928391637c7a8d8f60e11b60208401526080602484015260a4830190612c18565b33604483015287606483015286608483015203601f198101835282612dfd565b6020815191016a636f6e736f6c652e6c6f675afa5060405191825260208201527fc9e3de16af1f601c85f1f98f6bc173cd0a8b0fcd25dcd67893470617830fa5f960403392a280f35b8161059e91612dfd565b6105a95782386104a5565b8280fd5b6040513d84823e3d90fd5b8380fd5b634e487b7160e01b86526011600452602486fd5b8480fd5b90506020813d60201161060b575b816105ef60209383612dfd565b81010312610607575180151581036106075738610434565b8580fd5b3d91506105e2565b6040513d88823e3d90fd5b503461014f57604036600319011261014f576004604061063c612bcd565b9282358152600160205220019060018060a01b0316600052602052602060ff604060002054166040519015158152f35b503461014f57602036600319011261014f576001600160a01b0361068e612be8565b1661069a8115156131d6565b806001600160601b0360a01b60065416176006556001600160601b0360a01b600554161760055580f35b503461014f578060031936011261014f576106e0600a5461313a565b600954909180805b83811061075157610193856102858151604051610706606082612dfd565b603181527f536d61727420636f6e7472616374202573206861642066657463682025732070602082015270656e64696e67206368616c6c656e67657360781b60408201523390613242565b8083528260205260ff60066040852001541661076c81612bad565b1561077a575b6001016106e8565b9061084e6001918385528460205260408520600a6040519161079b83612de1565b80548352858060a01b03868201541660208401526107bb60028201612efd565b60408401526107cc60038201612efd565b60608401526107e560ff60048301541660808501612e2a565b600581015460a084015260ff60068201541661080081612bad565b60c0840152600781015460e084015260ff60088201541661082081612bad565b610100840152600981015461012084015201546101408201526108438289612e99565b526103908188612e99565b919050610772565b503461014f57602036600319011261014f5760ff600160406020936004358152828552200154166040519015158152f35b503461014f578060031936011261014f576020600b54604051908152f35b503461014f57602036600319011261014f576040610193916004356108c86130e7565b506109148184516108da606082612dfd565b602181527f55736572202573206861642066657463686564206368616c6c656e67652023256020820152607360f81b868201523390613242565b81528060205220600a6040519161092a83612de1565b8054835260018101546001600160a01b0316602084015261094d60028201612efd565b604084015261095e60038201612efd565b606084015261097760ff60048301541660808501612e2a565b600581015460a084015260ff60068201541661099281612bad565b60c0840152600781015460e084015260ff6008820154166109b281612bad565b61010084015260098101546101208401520154610140820152604051918291602083526020830190612c86565b503461014f5761016036600319011261014f576002602435101561014f576002604435101561014f576002606435101561014f576002608435101561014f57600260a435101561014f57600260c435101561014f57600260e435101561014f57600361010435101561014f57600e61012435101561014f5760043581526001602052610a7560ff6001604084200154161561318a565b600435815260016020526004604082200160018060a01b0333168252602052600160ff604083205416151503611453576004358152600160209081526040808320338452600381019092528220600201541561143e575b610b16610b0d610b04610afb610af2610ae9604435602435613235565b60643590613235565b60843590613235565b60a43590613235565b60c43590613235565b60e43590613235565b60648102908082046064149015171561142a57604051610b3581612d94565b338152602081019160043583526040820142815260076060840192610b5c60243585612e1e565b610b6b60443560808701612e1e565b610b7a60643560a08701612e1e565b610b8960843560c08701612e1e565b610b9860a43560e08701612e1e565b610ba860c4356101008701612e1e565b610bb860e4356101208701612e1e565b610bc461010435612bad565b61010435610140860152610bdf610124356101608701612e2a565b61014435610180860152046101a08401523386526003850160205260408620835181546001600160a01b0319166001600160a01b03919091161781559351600185015551600280850191909155905190811015611416576003830154608083015160028110156114025760a084015160028110156113ee5760c08501519260028410156113da5760e08601519060028210156113c6576101008701519160028310156113b25761012088015194600286101561139e5761014089015196610ca588612bad565b610cae88612bad565b6101608a0151600e81101561138a576101a099979466ff000000000000948f60059d9b999567ff00000000000000999563ff00000060ff60401b65ff00000000009764ff00000000955060401b169d60ff60401b199962ff00008e19988d199661ff008c19958a199360ff891992169062ffffff191617169160081b1617169160101b1617169160181b1617169160201b1617169160281b1617169160301b16179160381b161717600385015561018081015160048501550151910155600360028201541015610d7c575080f35b600181019060ff8254166113455760055481548491829182916001600160a01b0316905b80831061122c5750505081156112185704916060928480610e23610e3f604051610dca8982612dfd565b602381527f417665726167652073636f726520666f72206368616c6c656e6765202325733a60208201526220257360e81b604082015260405192839163ca47c4eb60e01b60208401528a60248401526084830190612c18565b600435604483015286606483015203601f198101835282612dfd565b6020815191016a636f6e736f6c652e6c6f675afa50605081106111ea5760043585528460205260066040862001600160ff19825416179055610e82600a546133a9565b600a55610e90600b54612fa1565b600b555b6004358552846020526007604086200155600160ff1982541617905560043583528260205260ff600660408520015416600435845283602052600760408520015460405191610ee281612bad565b825260208201527f1a20d608d2289bdfc4581c5a0722f4636bd21c1610f2485c20a4b20fd1f57a53604060043592a26006546001600160a01b0316610f2657505080f35b60043583528260205260408320908380610fbd610fd3604051610f498882612dfd565b603c81527f457865637574696e672072657075746174696f6e2075706461746520666f722060208201527f636f6e7472696275746f72206f66206368616c6c656e676520232573000000006040820152604051928391632d839cb360e21b6020840152604060248401526064830190612c18565b600435604483015203601f198101835282612dfd565b6020815191016a636f6e736f6c652e6c6f675afa5060018060a01b03600554169060018060a01b036001840154169185600485019460ff86541690600781019560ff600888549301541691853b156105d05761104f9560c49386926040519889978896630164ac6560e41b885260048801526024870190612c0b565b604485015260506064850152600a608485015261106b81612bad565b60a48401525af18015610613576111d4575b50908491825b81548110156111cb576110fd6110998284613024565b905460405160039290921b1c6001600160a01b0316906110b98982612dfd565b602c81527f457865637574696e672072657075746174696f6e2075706461746520666f722060208201526b6d6f64657261746f7220257360a01b60408201526132ad565b6111078183613024565b9054600391821b1c6001600160a01b039081166000818152928501602052604090922060058054895488549290930154919493169260ff9290921691833b156111c75788809460c493611175976040519889978896631bb0c13760e21b885260048801526024870190612c0b565b60448501526064840152603c6084840152600a60a48401525af19081156111bc5785916111a7575b5050600101611083565b816111b191612dfd565b6105b857833861119d565b6040513d87823e3d90fd5b8880fd5b50505050505080f35b856111e29196929396612dfd565b93903861107d565b60043585528460205260066040862001600260ff19825416179055611210600a546133a9565b600a55610e94565b634e487b7160e01b85526012600452602485fd5b9091939261123a8587613024565b9054600391821b1c6001600160a01b039081168a5290870160209081526040808b208054600480358e52938d9052828d208401549251630cf571c160e11b81529416928401929092529092919061129890602483019060ff16612c0b565b602081604481885afa90811561133a578a91611305575b5060010191826001116112f1576005015490828202918083048414901517156112f157916112e26112e892600194613235565b95613235565b94019190610da0565b634e487b7160e01b8a52601160045260248afd5b90506020813d8211611332575b8161131f60209383612dfd565b8101031261132e5751386112af565b8980fd5b3d9150611312565b6040513d8c823e3d90fd5b60405162461bcd60e51b815260206004820152601b60248201527f4368616c6c656e676520616c72656164792066696e616c697a656400000000006044820152606490fd5b634e487b7160e01b8e52602160045260248efd5b634e487b7160e01b8c52602160045260248cfd5b634e487b7160e01b8b52602160045260248bfd5b634e487b7160e01b8a52602160045260248afd5b634e487b7160e01b89526021600452602489fd5b634e487b7160e01b88526021600452602488fd5b634e487b7160e01b87526021600452602487fd5b634e487b7160e01b85526021600452602485fd5b634e487b7160e01b83526011600452602483fd5b6002810161144c8154612fa1565b9055610acc565b60405162461bcd60e51b815260206004820152602560248201527f596f752068617665206e6f74206a6f696e6564207468697320726576696577206044820152643837b7b61760d91b6064820152608490fd5b503461014f57602036600319011261014f576114c0612be8565b60018060a01b0381168252600260205260408220916040518084602082965493848152019084526020842092845b81811061165a57505061150392500384612dfd565b61150d835161313a565b90805b84518110156115fa578061152660019287612e99565b5183528260205260408320600a6040519161154083612de1565b80548352848060a01b038582015416602084015261156060028201612efd565b604084015261157160038201612efd565b606084015261158a60ff60048301541660808501612e2a565b600581015460a084015260ff6006820154166115a581612bad565b60c0840152600781015460e084015260ff6008820154166115c581612bad565b610100840152600981015461012084015201546101408201526115e88286612e99565b526115f38185612e99565b5001611510565b50610285919261019394519150604051611615606082612dfd565b602d81527f5573657220257320686164206665746368656420257320636f6e74726962757460208201526c6564206368616c6c656e67657360981b6040820152613242565b84548352600194850194889450602090930192016114ee565b503461014f57608036600319011261014f576004356001600160401b038111611b9c576116a4903690600401612c59565b906024356001600160401b0381116105b8576116c4903690600401612c59565b9091600e60443510156105d0576009546116dd81612fa1565b600955426103e84202046103e814421517156105bc576040516116ff81612de1565b8181526020810190338252611715368886612fc6565b60408201908152611727368789612fc6565b606083015261173b60443560808401612e2a565b60643560a083015260c0820189905260e082018990526101008201899052610120820189905261014082018990528389526020899052604089208251815592516001840180546001600160a01b0319166001600160a01b0392909216919091179055518051906001600160401b038211611ac35781906117be6002860154612ec3565b601f8111611b4b575b50602090601f8311600114611ae2578b92611ad7575b50508160011b916000199060031b1c19161760028301555b60608101518051906001600160401b038211611ac357819061181a6003860154612ec3565b601f8111611a72575b50602090601f8311600114611a09578b926119fe575b50508160011b916000199060031b1c19161760038301555b6080810151600e8110156113da576119db95936119cd93600a6101407f42672180e30fb0e2e6ae998046a0806bf23368de710977e1a63920574c378a1c9a98956119899560ff8019600487015416911617600485015560a081015160058501556118cb60c08201516118c281612bad565b6006860161300c565b60e08101516007850155600884016101008201516118e881612bad565b6118f181612bad565b60ff8019835416911617905561012081015160098501550151910155338a5260026020526119228160408c2061303c565b61192d600a54612fa1565b600a5560405161193e606082612dfd565b602b81527f4368616c6c656e67652023257320636f6e74726962757465642062792025732060208201526a30ba1012b9903bb4ba341d60a91b60408201526103e842029133916132fc565b6119a5611994613071565b61199f368a85612fc6565b90613356565b6119bb6119b06130ac565b61199f368688612fc6565b60405196608088526080880191613214565b918583036020870152613214565b916119eb60408201604435612c0b565b6103e8420260608201528033930390a280f35b015190503880611839565b600386018c52818c209250601f1984168c5b818110611a5a5750908460019594939210611a41575b505050811b016003830155611851565b015160001960f88460031b161c19169055388080611a31565b92936020600181928786015181550195019301611a1b565b909150600385018b5260208b20601f840160051c810160208510611abc575b90849392915b8d601f840160051c83018210611aaf57505050611823565b8155859450600101611a97565b5080611a91565b634e487b7160e01b8a52604160045260248afd5b0151905038806117dd565b600286018c52818c209250601f1984168c5b818110611b335750908460019594939210611b1a575b505050811b0160028301556117f5565b015160001960f88460031b161c19169055388080611b0a565b92936020600181928786015181550195019301611af4565b909150600285018b5260208b20601f840160051c810160208510611b95575b90849392915b8d601f840160051c83018210611b88575050506117c7565b8155859450600101611b70565b5080611b6a565b5080fd5b503461014f57602036600319011261014f576001600160a01b03611bc2612be8565b16611bce8115156131d6565b806001600160601b0360a01b60085416176008556001600160601b0360a01b600754161760075580f35b503461014f57602036600319011261014f576004358082526001602052611c2960ff6001604085200154161561318a565b8082526001602052600360408320541015611dc75780825260016020908152604080842033855260040190915282205460ff16611d70573382526003602052611c75816040842061303c565b8082526001602052604082208054600160401b811015611d5c57611d599291611ca682600160049401835582613024565b81546001600160a01b0360039290921b91821b1916339182901b17909155808652910160205260408420805460ff19166001179055817f07fe5c562bb72cc8709dc10987f69acf04ba0d45c871d6c281e32df878063dcd8580a3604051611d0e606082612dfd565b603181527f4d6f64657261746f72202573206a6f696e65642072657669657720706f6f6c20602082015270666f72206368616c6c656e67652023257360781b60408201523390613242565b80f35b634e487b7160e01b84526041600452602484fd5b60405162461bcd60e51b815260206004820152602960248201527f596f75206861766520616c7265616479206a6f696e656420746869732072657660448201526834b2bb903837b7b61760b91b6064820152608490fd5b60405162461bcd60e51b815260206004820152601660248201527513585e081b5bd9195c985d1bdc9cc81c995858da195960521b6044820152606490fd5b503461014f57602036600319011261014f57611e1f612be8565b60018060a01b0381168252600360205260408220916040518084602082965493848152019084526020842092845b818110611fb7575050611e6292500384612dfd565b611e6c835161313a565b90805b8451811015611f595780611e8560019287612e99565b5183528260205260408320600a60405191611e9f83612de1565b80548352848060a01b0385820154166020840152611ebf60028201612efd565b6040840152611ed060038201612efd565b6060840152611ee960ff60048301541660808501612e2a565b600581015460a084015260ff600682015416611f0481612bad565b60c0840152600781015460e084015260ff600882015416611f2481612bad565b61010084015260098101546101208401520154610140820152611f478286612e99565b52611f528185612e99565b5001611e6f565b50610285919261019394519150604051611f74606082612dfd565b602b81527f55736572202573206861642066657463686564202573206d6f6465726174656460208201526a206368616c6c656e67657360a81b6040820152613242565b8454835260019485019488945060209093019201611e4d565b503461014f578060031936011261014f576020600954604051908152f35b503461014f5761012036600319011261014f57612009612be8565b906024356001600160401b038111611b9c57612029903690600401612c59565b926044356001600160401b0381116105b857612049903690600401612c59565b92909160643590600e82101561060757600360a43510156106075760e43560038110156124f3576009549261207d84612fa1565b6009556040519061208d82612de1565b8482526001600160a01b03841660208301908152926120d16120b0368d8a612fc6565b92604085019384526120c3368c8c612fc6565b606086015260808501612e2a565b60843560a08401526120e460a435612bad565b60a43560c084015260c43560e08401526120fd81612bad565b6101008301526101043561012083015261014082018990528489526020899052604089208251815592516001840180546001600160a01b0319166001600160a01b0392909216919091179055518051906001600160401b038211611ac357819061216a6002860154612ec3565b601f81116124a2575b50602090601f8311600114612439578b9261242e575b50508160011b916000199060031b1c19161760028301555b60608101518051906001600160401b038211611ac35781906121c66003860154612ec3565b601f81116123dd575b50602090601f8311600114612374578b92612369575b50508160011b916000199060031b1c19161760038301555b6080810151600e8110156113da5784899a946122b76123399760408d61199f98611d599f61014061199f9f9e9a6123299a600a935060ff8019600487015416911617600485015560a0810151600585015561225f60c08201516118c281612bad565b60e081015160078501556008840161010082015161227c81612bad565b61228581612bad565b60ff801983541691161790556101208101516009850155015191015560018060a01b038516815260026020522061303c565b6122c260a435612bad565b60a435612341576122d4600a54612fa1565b600a555b604051916122e7606084612dfd565b602683527f4368616c6c656e67652023257320736565646564206279202573206174202573602084015265103bb4ba341d60d11b6040840152608435926132fc565b612331613071565b923691612fc6565b6123316130ac565b61234c60a435612bad565b600160a435036122d857612361600b54612fa1565b600b556122d8565b0151905038806121e5565b600386018c52818c209250601f1984168c5b8181106123c557509084600195949392106123ac575b505050811b0160038301556121fd565b015160001960f88460031b161c1916905538808061239c565b92936020600181928786015181550195019301612386565b909150600385018b5260208b20601f840160051c810160208510612427575b90849392915b8d601f840160051c8301821061241a575050506121cf565b8155859450600101612402565b50806123fc565b015190503880612189565b600286018c52818c209250601f1984168c5b81811061248a5750908460019594939210612471575b505050811b0160028301556121a1565b015160001960f88460031b161c19169055388080612461565b9293602060018192878601518155019501930161244b565b909150600285018b5260208b20601f840160051c8101602085106124ec575b90849392915b8d601f840160051c830182106124df57505050612173565b81558594506001016124c7565b50806124c1565b8680fd5b503461014f57602036600319011261014f57600435815280602052600a60408220016125238154612fa1565b905580f35b503461014f578060031936011261014f576020600a54604051908152f35b503461014f57602036600319011261014f57612560612be8565b600854612577906001600160a01b03161515612e36565b6001600160a01b038116825260046020908152604080842090518154808252918552828520909392840191855b81811061289857505050826125ba910383612dfd565b8151926125c684612e82565b936125d46040519586612dfd565b8085526125e3601f1991612e82565b01815b81811061284f5750506007546001600160a01b031691815b845181101561272e576126118186612e99565b518084526020849052604080852090516320cfeb4f60e11b81526001600160a01b038516600482015260248101839052906060826044818a5afa918215610613578691879188946126dc575b5080612696600360ff60046126a495015416926040519861267d8a612dc6565b895261268b60028201612efd565b60208a015201612efd565b604087015260608601612e2a565b600481101561140257608084015260a083015260c0820152600191906126ca8289612e99565b526126d58188612e99565b50016125fe565b92509250506060813d8211612726575b816126f960609383612dfd565b8101031261060757805160208201519160048310156127225760400151929091906126a461265d565b8780fd5b3d91506126ec565b50908461278d606093604051612745606082612dfd565b603081527f557365722025732068616420666574636865642070726576696577206f66206a60208201526f6f696e6564206368616c6c656e67657360801b60408201526132ad565b60405191602083019060208452825180925260408401602060408460051b870101940195825b8484106127c05786860387f35b9091929394603f19878203018452875190815181526128036127f1602084015160e0602085015260e0840190612c18565b60408401518382036040850152612c18565b916128148582015186840190612c0b565b6080810151600481101561141657608083015260a0808201519083015260c090810151910152602097880197909594600101930191906127b3565b60209060409594955161286181612dc6565b848152606083820152606060408201528460608201528460808201528460a08201528460c0820152828289010152019392936125e6565b82548452602090930192600192830192016125a4565b503461014f57604036600319011261014f576004356128cb612bcd565b90826040516128d981612d94565b8181528160208201528160408201528160608201528160808201528160a08201528160c08201528160e082015281610100820152816101208201528161014082015281610160820152816101808201526101a0015260405161293c606082612dfd565b602b8152602081017f5573657220257320686164206665746368656420726576696577206f6620636890528183604083016a616c6c656e67652023257360a81b905261298792613242565b825260016020526040822060030190600160a01b60019003168252602052604090206040516129b581612d94565b81546001600160a01b03168152600182015460208201908152600283015460408301908152600384015491939190606084016129f460ff841682612e1e565b608085018360081c60ff16612a099082612e1e565b60a086018460101c60ff16612a1e9082612e1e565b60c087018560181c60ff16612a339082612e1e565b60e08801918660201c60ff16612a499084612e1e565b6101008901938760281c60ff16612a609086612e1e565b6101208a01958860301c60ff16612a779088612e1e565b8860381c60ff16976101408c0198612a8e81612bad565b89526101608c019960401c60ff16612aa6908b612e2a565b60048b01549a6101808d019b8c52600501549b6101a081019c8d526040519d8e91600160a01b6001900390511682525190602001525160408d01525160608c01612aef91612bfe565b5160808b01612afd91612bfe565b5160a08a01612b0b91612bfe565b5160c08901612b1991612bfe565b5160e08801612b2791612bfe565b516101008701612b3691612bfe565b516101208601612b4591612bfe565b51612b4f81612bad565b610140850152516101608401612b6491612c0b565b51610180830152516101a08201526101c090f35b905034611b9c576020366003190112611b9c5760ff60086040602094600435815280865220015416612ba981612bad565b8152f35b60031115612bb757565b634e487b7160e01b600052602160045260246000fd5b602435906001600160a01b0382168203612be357565b600080fd5b600435906001600160a01b0382168203612be357565b906002821015612bb75752565b90600e821015612bb75752565b919082519283825260005b848110612c44575050826000602080949584010152601f8019910116010190565b80602080928401015182828601015201612c23565b9181601f84011215612be3578235916001600160401b038311612be35760208381860195010111612be357565b908151815260018060a01b03602083015116602082015261014080612cd1612cbf60408601516101606040870152610160860190612c18565b60608601518582036060870152612c18565b93612ce460808201516080860190612c0b565b60a081015160a085015260c0810151612cfc81612bad565b60c085015260e081015160e0850152610100810151612d1a81612bad565b610100850152610120810151610120850152015191015290565b602081016020825282518091526040820191602060408360051b8301019401926000915b838310612d6757505050505090565b9091929394602080612d85600193603f198682030187528951612c86565b97019301930191939290612d58565b6101c081019081106001600160401b03821117612db057604052565b634e487b7160e01b600052604160045260246000fd5b60e081019081106001600160401b03821117612db057604052565b61016081019081106001600160401b03821117612db057604052565b90601f801991011681019081106001600160401b03821117612db057604052565b6002821015612bb75752565b600e821015612bb75752565b15612e3d57565b60405162461bcd60e51b815260206004820152601760248201527f536f6c7574696f6e4d616e61676572206e6f74207365740000000000000000006044820152606490fd5b6001600160401b038111612db05760051b60200190565b8051821015612ead5760209160051b010190565b634e487b7160e01b600052603260045260246000fd5b90600182811c92168015612ef3575b6020831014612edd57565b634e487b7160e01b600052602260045260246000fd5b91607f1691612ed2565b9060405191826000825492612f1184612ec3565b8084529360018116908115612f7f5750600114612f38575b50612f3692500383612dfd565b565b90506000929192526020600020906000915b818310612f63575050906020612f369282010138612f29565b6020919350806001915483858901015201910190918492612f4a565b905060209250612f3694915060ff191682840152151560051b82010138612f29565b6000198114612fb05760010190565b634e487b7160e01b600052601160045260246000fd5b9291926001600160401b038211612db05760405191612fef601f8201601f191660200184612dfd565b829481845281830111612be3578281602093846000960137010152565b9061301681612bad565b60ff80198354169116179055565b8054821015612ead5760005260206000200190600090565b8054600160401b811015612db05761305991600182018155613024565b819291549060031b91821b91600019901b1916179055565b60405190613080604083612dfd565b601782527f2d205469746c652075726c20202020202020203a2025730000000000000000006020830152565b604051906130bb604083612dfd565b601782527f2d204465736372697074696f6e2075726c20203a2025730000000000000000006020830152565b604051906130f482612de1565b600061014083828152826020820152606060408201526060808201528260808201528260a08201528260c08201528260e082015282610100820152826101208201520152565b9061314482612e82565b6131516040519182612dfd565b8281528092613162601f1991612e82565b019060005b82811061317357505050565b60209061317e6130e7565b82828501015201613167565b1561319157565b60405162461bcd60e51b815260206004820152601b60248201527f4368616c6c656e676520616c72656164792066696e616c6973656400000000006044820152606490fd5b156131dd57565b60405162461bcd60e51b815260206004820152600f60248201526e496e76616c6964206164647265737360881b6044820152606490fd5b908060209392818452848401376000828201840152601f01601f1916010190565b91908201809211612fb057565b61329661327391600094938594604051948593630d26b92560e01b6020860152606060248601526084850190612c18565b6001600160a01b039092166044840152606483015203601f198101835282612dfd565b6020815191016a636f6e736f6c652e6c6f675afa50565b6132dd61329660009392849360405193849263319af33360e01b6020850152604060248501526064840190612c18565b6001600160a01b0391909116604483015203601f198101835282612dfd565b6132969061332d9260009586956040519586946327827ee360e11b60208701526080602487015260a4860190612c18565b60448501939093526001600160a01b03166064840152608483015203601f198101835282612dfd565b6133896132966000939261339b8594604051948593634b5c427760e01b6020860152604060248601526064850190612c18565b83810360231901604485015290612c18565b03601f198101835282612dfd565b8015612fb057600019019056fea26469706673582212202161d49bf325ab7a0a65e5edcb72047a9204b776458792d54eb0db67c34e298864736f6c634300081c0033",
  "linkReferences": {},
  "deployedLinkReferences": {}
}