{
  "_format": "hh-sol-artifact-1",
  "contractName": "ChallengeManager",
  "sourceName": "contracts/ChallengeManager.sol",
  "abi": [
    {
      "anonymous": false,
      "inputs": [
        {
          "indexed": true,
          "internalType": "address",
          "name": "contributor",
          "type": "address"
        },
        {
          "indexed": false,
          "internalType": "string",
          "name": "title_url",
          "type": "string"
        },
        {
          "indexed": false,
          "internalType": "string",
          "name": "description_url",
          "type": "string"
        },
        {
          "indexed": false,
          "internalType": "enum ChallengeManager.Domain",
          "name": "category",
          "type": "uint8"
        },
        {
          "indexed": false,
          "internalType": "uint256",
          "name": "contribute_at",
          "type": "uint256"
        }
      ],
      "name": "ChallengeContributed",
      "type": "event"
    },
    {
      "anonymous": false,
      "inputs": [
        {
          "indexed": true,
          "internalType": "uint256",
          "name": "challengeId",
          "type": "uint256"
        },
        {
          "indexed": false,
          "internalType": "enum ChallengeManager.ChallengeStatus",
          "name": "status",
          "type": "uint8"
        },
        {
          "indexed": false,
          "internalType": "uint256",
          "name": "averagePercent",
          "type": "uint256"
        }
      ],
      "name": "ChallengeFinalized",
      "type": "event"
    },
    {
      "anonymous": false,
      "inputs": [
        {
          "indexed": true,
          "internalType": "uint256",
          "name": "challenge_id",
          "type": "uint256"
        },
        {
          "indexed": true,
          "internalType": "address",
          "name": "moderator",
          "type": "address"
        }
      ],
      "name": "ReviewPoolJoined",
      "type": "event"
    },
    {
      "inputs": [],
      "name": "NUMBER_OF_QUALITY_FACTORS",
      "outputs": [
        {
          "internalType": "uint256",
          "name": "",
          "type": "uint256"
        }
      ],
      "stateMutability": "view",
      "type": "function"
    },
    {
      "inputs": [],
      "name": "REVIEW_QUORUM",
      "outputs": [
        {
          "internalType": "uint256",
          "name": "",
          "type": "uint256"
        }
      ],
      "stateMutability": "view",
      "type": "function"
    },
    {
      "inputs": [],
      "name": "REVIEW_THRESHOLD",
      "outputs": [
        {
          "internalType": "uint256",
          "name": "",
          "type": "uint256"
        }
      ],
      "stateMutability": "view",
      "type": "function"
    },
    {
      "inputs": [
        {
          "internalType": "string",
          "name": "_title_url",
          "type": "string"
        },
        {
          "internalType": "string",
          "name": "_description_url",
          "type": "string"
        },
        {
          "internalType": "enum ChallengeManager.Domain",
          "name": "_category",
          "type": "uint8"
        },
        {
          "internalType": "uint256",
          "name": "_contribute_at",
          "type": "uint256"
        }
      ],
      "name": "contributeChallenge",
      "outputs": [],
      "stateMutability": "nonpayable",
      "type": "function"
    },
    {
      "inputs": [
        {
          "internalType": "uint256",
          "name": "_challenge_id",
          "type": "uint256"
        }
      ],
      "name": "getChallengeById",
      "outputs": [
        {
          "components": [
            {
              "internalType": "uint256",
              "name": "id",
              "type": "uint256"
            },
            {
              "internalType": "address",
              "name": "contributor",
              "type": "address"
            },
            {
              "internalType": "string",
              "name": "title_url",
              "type": "string"
            },
            {
              "internalType": "string",
              "name": "description_url",
              "type": "string"
            },
            {
              "internalType": "enum ChallengeManager.Domain",
              "name": "category",
              "type": "uint8"
            },
            {
              "internalType": "uint256",
              "name": "contribute_at",
              "type": "uint256"
            },
            {
              "internalType": "enum ChallengeManager.ChallengeStatus",
              "name": "status",
              "type": "uint8"
            },
            {
              "internalType": "uint256",
              "name": "quality_score",
              "type": "uint256"
            },
            {
              "internalType": "enum ChallengeManager.DifficultyLevel",
              "name": "difficulty_level",
              "type": "uint8"
            },
            {
              "internalType": "uint256",
              "name": "solve_time",
              "type": "uint256"
            }
          ],
          "internalType": "struct ChallengeManager.Challenge",
          "name": "",
          "type": "tuple"
        }
      ],
      "stateMutability": "view",
      "type": "function"
    },
    {
      "inputs": [
        {
          "internalType": "uint256",
          "name": "_challenge_id",
          "type": "uint256"
        }
      ],
      "name": "getChallengeFinalizedStatus",
      "outputs": [
        {
          "internalType": "bool",
          "name": "",
          "type": "bool"
        }
      ],
      "stateMutability": "view",
      "type": "function"
    },
    {
      "inputs": [
        {
          "internalType": "address",
          "name": "_contributor_address",
          "type": "address"
        }
      ],
      "name": "getChallengesByContributor",
      "outputs": [
        {
          "components": [
            {
              "internalType": "uint256",
              "name": "id",
              "type": "uint256"
            },
            {
              "internalType": "address",
              "name": "contributor",
              "type": "address"
            },
            {
              "internalType": "string",
              "name": "title_url",
              "type": "string"
            },
            {
              "internalType": "string",
              "name": "description_url",
              "type": "string"
            },
            {
              "internalType": "enum ChallengeManager.Domain",
              "name": "category",
              "type": "uint8"
            },
            {
              "internalType": "uint256",
              "name": "contribute_at",
              "type": "uint256"
            },
            {
              "internalType": "enum ChallengeManager.ChallengeStatus",
              "name": "status",
              "type": "uint8"
            },
            {
              "internalType": "uint256",
              "name": "quality_score",
              "type": "uint256"
            },
            {
              "internalType": "enum ChallengeManager.DifficultyLevel",
              "name": "difficulty_level",
              "type": "uint8"
            },
            {
              "internalType": "uint256",
              "name": "solve_time",
              "type": "uint256"
            }
          ],
          "internalType": "struct ChallengeManager.Challenge[]",
          "name": "",
          "type": "tuple[]"
        }
      ],
      "stateMutability": "view",
      "type": "function"
    },
    {
      "inputs": [
        {
          "internalType": "address",
          "name": "_moderator_address",
          "type": "address"
        }
      ],
      "name": "getChallengesByModerator",
      "outputs": [
        {
          "components": [
            {
              "internalType": "uint256",
              "name": "id",
              "type": "uint256"
            },
            {
              "internalType": "address",
              "name": "contributor",
              "type": "address"
            },
            {
              "internalType": "string",
              "name": "title_url",
              "type": "string"
            },
            {
              "internalType": "string",
              "name": "description_url",
              "type": "string"
            },
            {
              "internalType": "enum ChallengeManager.Domain",
              "name": "category",
              "type": "uint8"
            },
            {
              "internalType": "uint256",
              "name": "contribute_at",
              "type": "uint256"
            },
            {
              "internalType": "enum ChallengeManager.ChallengeStatus",
              "name": "status",
              "type": "uint8"
            },
            {
              "internalType": "uint256",
              "name": "quality_score",
              "type": "uint256"
            },
            {
              "internalType": "enum ChallengeManager.DifficultyLevel",
              "name": "difficulty_level",
              "type": "uint8"
            },
            {
              "internalType": "uint256",
              "name": "solve_time",
              "type": "uint256"
            }
          ],
          "internalType": "struct ChallengeManager.Challenge[]",
          "name": "",
          "type": "tuple[]"
        }
      ],
      "stateMutability": "view",
      "type": "function"
    },
    {
      "inputs": [
        {
          "internalType": "uint256",
          "name": "_challenge_id",
          "type": "uint256"
        },
        {
          "internalType": "address",
          "name": "_moderator_address",
          "type": "address"
        }
      ],
      "name": "getJoinReviewPoolStatus",
      "outputs": [
        {
          "internalType": "bool",
          "name": "",
          "type": "bool"
        }
      ],
      "stateMutability": "view",
      "type": "function"
    },
    {
      "inputs": [
        {
          "internalType": "uint256",
          "name": "challenge_id",
          "type": "uint256"
        },
        {
          "internalType": "address",
          "name": "_moderator_address",
          "type": "address"
        }
      ],
      "name": "getModeratorReviewOfChallenge",
      "outputs": [
        {
          "components": [
            {
              "internalType": "address",
              "name": "moderator",
              "type": "address"
            },
            {
              "internalType": "uint256",
              "name": "challenge_id",
              "type": "uint256"
            },
            {
              "internalType": "uint256",
              "name": "review_time",
              "type": "uint256"
            },
            {
              "internalType": "enum ChallengeManager.QualityFactorAnswer",
              "name": "relevance",
              "type": "uint8"
            },
            {
              "internalType": "enum ChallengeManager.QualityFactorAnswer",
              "name": "technical_correctness",
              "type": "uint8"
            },
            {
              "internalType": "enum ChallengeManager.QualityFactorAnswer",
              "name": "completeness",
              "type": "uint8"
            },
            {
              "internalType": "enum ChallengeManager.QualityFactorAnswer",
              "name": "clarity",
              "type": "uint8"
            },
            {
              "internalType": "enum ChallengeManager.QualityFactorAnswer",
              "name": "originality",
              "type": "uint8"
            },
            {
              "internalType": "enum ChallengeManager.QualityFactorAnswer",
              "name": "unbiased",
              "type": "uint8"
            },
            {
              "internalType": "enum ChallengeManager.QualityFactorAnswer",
              "name": "plagiarism_free",
              "type": "uint8"
            },
            {
              "internalType": "enum ChallengeManager.DifficultyLevel",
              "name": "suggested_difficulty",
              "type": "uint8"
            },
            {
              "internalType": "enum ChallengeManager.Domain",
              "name": "suggested_category",
              "type": "uint8"
            },
            {
              "internalType": "uint256",
              "name": "suggested_solve_time",
              "type": "uint256"
            }
          ],
          "internalType": "struct ChallengeManager.ModeratorReview",
          "name": "",
          "type": "tuple"
        }
      ],
      "stateMutability": "view",
      "type": "function"
    },
    {
      "inputs": [],
      "name": "getPendingChallenges",
      "outputs": [
        {
          "components": [
            {
              "internalType": "uint256",
              "name": "id",
              "type": "uint256"
            },
            {
              "internalType": "address",
              "name": "contributor",
              "type": "address"
            },
            {
              "internalType": "string",
              "name": "title_url",
              "type": "string"
            },
            {
              "internalType": "string",
              "name": "description_url",
              "type": "string"
            },
            {
              "internalType": "enum ChallengeManager.Domain",
              "name": "category",
              "type": "uint8"
            },
            {
              "internalType": "uint256",
              "name": "contribute_at",
              "type": "uint256"
            },
            {
              "internalType": "enum ChallengeManager.ChallengeStatus",
              "name": "status",
              "type": "uint8"
            },
            {
              "internalType": "uint256",
              "name": "quality_score",
              "type": "uint256"
            },
            {
              "internalType": "enum ChallengeManager.DifficultyLevel",
              "name": "difficulty_level",
              "type": "uint8"
            },
            {
              "internalType": "uint256",
              "name": "solve_time",
              "type": "uint256"
            }
          ],
          "internalType": "struct ChallengeManager.Challenge[]",
          "name": "",
          "type": "tuple[]"
        }
      ],
      "stateMutability": "view",
      "type": "function"
    },
    {
      "inputs": [
        {
          "internalType": "uint256",
          "name": "_challenge_id",
          "type": "uint256"
        }
      ],
      "name": "getReviewPoolSize",
      "outputs": [
        {
          "internalType": "uint256",
          "name": "",
          "type": "uint256"
        }
      ],
      "stateMutability": "view",
      "type": "function"
    },
    {
      "inputs": [],
      "name": "getReviewQuorum",
      "outputs": [
        {
          "internalType": "uint256",
          "name": "",
          "type": "uint256"
        }
      ],
      "stateMutability": "pure",
      "type": "function"
    },
    {
      "inputs": [
        {
          "internalType": "uint256",
          "name": "_challenge_id",
          "type": "uint256"
        }
      ],
      "name": "joinReviewPool",
      "outputs": [],
      "stateMutability": "nonpayable",
      "type": "function"
    },
    {
      "inputs": [],
      "name": "pending_challenges",
      "outputs": [
        {
          "internalType": "uint256",
          "name": "",
          "type": "uint256"
        }
      ],
      "stateMutability": "view",
      "type": "function"
    },
    {
      "inputs": [
        {
          "internalType": "uint256",
          "name": "_challenge_id",
          "type": "uint256"
        },
        {
          "internalType": "enum ChallengeManager.QualityFactorAnswer",
          "name": "_relevance",
          "type": "uint8"
        },
        {
          "internalType": "enum ChallengeManager.QualityFactorAnswer",
          "name": "_technical_correctness",
          "type": "uint8"
        },
        {
          "internalType": "enum ChallengeManager.QualityFactorAnswer",
          "name": "_completeness",
          "type": "uint8"
        },
        {
          "internalType": "enum ChallengeManager.QualityFactorAnswer",
          "name": "_clarity",
          "type": "uint8"
        },
        {
          "internalType": "enum ChallengeManager.QualityFactorAnswer",
          "name": "_originality",
          "type": "uint8"
        },
        {
          "internalType": "enum ChallengeManager.QualityFactorAnswer",
          "name": "_unbiased",
          "type": "uint8"
        },
        {
          "internalType": "enum ChallengeManager.QualityFactorAnswer",
          "name": "_plagiarism_free",
          "type": "uint8"
        },
        {
          "internalType": "enum ChallengeManager.DifficultyLevel",
          "name": "_suggested_difficulty",
          "type": "uint8"
        },
        {
          "internalType": "enum ChallengeManager.Domain",
          "name": "_suggested_category",
          "type": "uint8"
        },
        {
          "internalType": "uint256",
          "name": "_suggested_solve_time",
          "type": "uint256"
        }
      ],
      "name": "submitModeratorReview",
      "outputs": [],
      "stateMutability": "nonpayable",
      "type": "function"
    },
    {
      "inputs": [],
      "name": "total_challenges",
      "outputs": [
        {
          "internalType": "uint256",
          "name": "",
          "type": "uint256"
        }
      ],
      "stateMutability": "view",
      "type": "function"
    }
  ],
  "bytecode": "0x608060405260006004556000600555348015601957600080fd5b506143bd806100296000396000f3fe608060405234801561001057600080fd5b506004361061010b5760003560e01c80636bf8eaf2116100a2578063a821a06711610071578063a821a067146102ba578063be21f20c146102ea578063c80191b814610308578063e94a783014610338578063f83eb275146103685761010b565b80636bf8eaf2146102325780638758aabb1461025057806392376e131461026c578063955b67241461029c5761010b565b80635a14c944116100de5780635a14c944146101ac5780635d880de9146101c85780635d9db5c4146101e6578063616e2e56146102025761010b565b80630f335603146101105780632b366996146101405780634c7b5a8e1461015e5780635057494a1461017c575b600080fd5b61012a60048036038101906101259190612f04565b610386565b6040516101379190613174565b60405180910390f35b61014861069f565b604051610155919061319f565b60405180910390f35b6101666106a5565b604051610173919061319f565b60405180910390f35b610196600480360381019061019191906131ba565b6106ab565b6040516101a39190613462565b60405180910390f35b6101c660048036038101906101c19190613484565b610a89565b005b6101d0610d99565b6040516101dd919061319f565b60405180910390f35b61020060048036038101906101fb919061353b565b610d9e565b005b61021c600480360381019061021791906131ba565b611222565b6040516102299190613462565b60405180910390f35b61023a611600565b604051610247919061319f565b60405180910390f35b61026a6004803603810190610265919061362c565b611605565b005b61028660048036038101906102819190613484565b611e5e565b6040516102939190613801565b60405180910390f35b6102a4612101565b6040516102b1919061319f565b60405180910390f35b6102d460048036038101906102cf9190613484565b612106565b6040516102e1919061383e565b60405180910390f35b6102f2612133565b6040516102ff9190613462565b60405180910390f35b610322600480360381019061031d9190612f04565b6124b3565b60405161032f919061383e565b60405180910390f35b610352600480360381019061034d9190613484565b61251e565b60405161035f919061319f565b60405180910390f35b610370612541565b60405161037d919061319f565b60405180910390f35b61038e612c9d565b6103b16040518060600160405280602b8152602001614288602b9139838561254a565b6001600084815260200190815260200160002060030160008373ffffffffffffffffffffffffffffffffffffffff1673ffffffffffffffffffffffffffffffffffffffff168152602001908152602001600020604051806101a00160405290816000820160009054906101000a900473ffffffffffffffffffffffffffffffffffffffff1673ffffffffffffffffffffffffffffffffffffffff1673ffffffffffffffffffffffffffffffffffffffff16815260200160018201548152602001600282015481526020016003820160009054906101000a900460ff16600181111561049f5761049e612f62565b5b60018111156104b1576104b0612f62565b5b81526020016003820160019054906101000a900460ff1660018111156104da576104d9612f62565b5b60018111156104ec576104eb612f62565b5b81526020016003820160029054906101000a900460ff16600181111561051557610514612f62565b5b600181111561052757610526612f62565b5b81526020016003820160039054906101000a900460ff1660018111156105505761054f612f62565b5b600181111561056257610561612f62565b5b81526020016003820160049054906101000a900460ff16600181111561058b5761058a612f62565b5b600181111561059d5761059c612f62565b5b81526020016003820160059054906101000a900460ff1660018111156105c6576105c5612f62565b5b60018111156105d8576105d7612f62565b5b81526020016003820160069054906101000a900460ff16600181111561060157610600612f62565b5b600181111561061357610612612f62565b5b81526020016003820160079054906101000a900460ff16600281111561063c5761063b612f62565b5b600281111561064e5761064d612f62565b5b81526020016003820160089054906101000a900460ff16600d81111561067757610676612f62565b5b600d81111561068957610688612f62565b5b8152602001600482015481525050905092915050565b60055481565b60045481565b60606000600360008473ffffffffffffffffffffffffffffffffffffffff1673ffffffffffffffffffffffffffffffffffffffff16815260200190815260200160002080548060200260200160405190810160405280929190818152602001828054801561073857602002820191906000526020600020905b815481526020019060010190808311610724575b505050505090506000815167ffffffffffffffff81111561075c5761075b613859565b5b60405190808252806020026020018201604052801561079557816020015b610782612dbd565b81526020019060019003908161077a5790505b50905060005b8251811015610a5a576000808483815181106107ba576107b9613888565b5b6020026020010151815260200190815260200160002060405180610140016040529081600082015481526020016001820160009054906101000a900473ffffffffffffffffffffffffffffffffffffffff1673ffffffffffffffffffffffffffffffffffffffff1673ffffffffffffffffffffffffffffffffffffffff16815260200160028201805461084c906138e6565b80601f0160208091040260200160405190810160405280929190818152602001828054610878906138e6565b80156108c55780601f1061089a576101008083540402835291602001916108c5565b820191906000526020600020905b8154815290600101906020018083116108a857829003601f168201915b505050505081526020016003820180546108de906138e6565b80601f016020809104026020016040519081016040528092919081815260200182805461090a906138e6565b80156109575780601f1061092c57610100808354040283529160200191610957565b820191906000526020600020905b81548152906001019060200180831161093a57829003601f168201915b505050505081526020016004820160009054906101000a900460ff16600d81111561098557610984612f62565b5b600d81111561099757610996612f62565b5b8152602001600582015481526020016006820160009054906101000a900460ff1660028111156109ca576109c9612f62565b5b60028111156109dc576109db612f62565b5b8152602001600782015481526020016008820160009054906101000a900460ff166002811115610a0f57610a0e612f62565b5b6002811115610a2157610a20612f62565b5b8152602001600982015481525050828281518110610a4257610a41613888565b5b6020026020010181905250808060010191505061079b565b50610a7f6040518060600160405280602b815260200161425d602b913985845161254a565b8092505050919050565b806001600082815260200190815260200160002060010160009054906101000a900460ff1615610aee576040517f08c379a0000000000000000000000000000000000000000000000000000000008152600401610ae590613974565b60405180910390fd5b6003600160008481526020019081526020016000206000018054905010610b4a576040517f08c379a0000000000000000000000000000000000000000000000000000000008152600401610b41906139e0565b60405180910390fd5b600015156001600084815260200190815260200160002060040160003373ffffffffffffffffffffffffffffffffffffffff1673ffffffffffffffffffffffffffffffffffffffff16815260200190815260200160002060009054906101000a900460ff16151514610bf1576040517f08c379a0000000000000000000000000000000000000000000000000000000008152600401610be890613a72565b60405180910390fd5b600360003373ffffffffffffffffffffffffffffffffffffffff1673ffffffffffffffffffffffffffffffffffffffff168152602001908152602001600020829080600181540180825580915050600190039060005260206000200160009091909190915055600060016000848152602001908152602001600020905080600001339080600181540180825580915050600190039060005260206000200160009091909190916101000a81548173ffffffffffffffffffffffffffffffffffffffff021916908373ffffffffffffffffffffffffffffffffffffffff16021790555060018160040160003373ffffffffffffffffffffffffffffffffffffffff1673ffffffffffffffffffffffffffffffffffffffff16815260200190815260200160002060006101000a81548160ff0219169083151502179055503373ffffffffffffffffffffffffffffffffffffffff16837f07fe5c562bb72cc8709dc10987f69acf04ba0d45c871d6c281e32df878063dcd60405160405180910390a3610d9460405180606001604052806031815260200161435760319139338561254a565b505050565b600381565b600060046000815480929190610db390613ac1565b9190505590506040518061014001604052808281526020013373ffffffffffffffffffffffffffffffffffffffff16815260200188888080601f016020809104026020016040519081016040528093929190818152602001838380828437600081840152601f19601f82011690508083019250505050505050815260200186868080601f016020809104026020016040519081016040528093929190818152602001838380828437600081840152601f19601f82011690508083019250505050505050815260200184600d811115610e8e57610e8d612f62565b5b815260200183815260200160006002811115610ead57610eac612f62565b5b81526020016000815260200160006002811115610ecd57610ecc612f62565b5b815260200160008152506000808381526020019081526020016000206000820151816000015560208201518160010160006101000a81548173ffffffffffffffffffffffffffffffffffffffff021916908373ffffffffffffffffffffffffffffffffffffffff1602179055506040820151816002019081610f4f9190613cb5565b506060820151816003019081610f659190613cb5565b5060808201518160040160006101000a81548160ff0219169083600d811115610f9157610f90612f62565b5b021790555060a0820151816005015560c08201518160060160006101000a81548160ff02191690836002811115610fcb57610fca612f62565b5b021790555060e082015181600701556101008201518160080160006101000a81548160ff0219169083600281111561100657611005612f62565b5b02179055506101208201518160090155905050600260003373ffffffffffffffffffffffffffffffffffffffff1673ffffffffffffffffffffffffffffffffffffffff1681526020019081526020016000208190806001815401808255809150506001900390600052602060002001600090919091909150556005600081548092919061109290613ac1565b91905055506110bb6040518060600160405280602b8152602001614205602b91398233856125e9565b61113e6040518060400160405280601781526020017f2d205469746c652075726c20202020202020203a20257300000000000000000081525088888080601f016020809104026020016040519081016040528093929190818152602001838380828437600081840152601f19601f8201169050808301925050505050505061268b565b6111c16040518060400160405280601781526020017f2d204465736372697074696f6e2075726c20203a20257300000000000000000081525086868080601f016020809104026020016040519081016040528093929190818152602001838380828437600081840152601f19601f8201169050808301925050505050505061268b565b3373ffffffffffffffffffffffffffffffffffffffff167f42672180e30fb0e2e6ae998046a0806bf23368de710977e1a63920574c378a1c88888888888860405161121196959493929190613dd2565b60405180910390a250505050505050565b60606000600260008473ffffffffffffffffffffffffffffffffffffffff1673ffffffffffffffffffffffffffffffffffffffff1681526020019081526020016000208054806020026020016040519081016040528092919081815260200182805480156112af57602002820191906000526020600020905b81548152602001906001019080831161129b575b505050505090506000815167ffffffffffffffff8111156112d3576112d2613859565b5b60405190808252806020026020018201604052801561130c57816020015b6112f9612dbd565b8152602001906001900390816112f15790505b50905060005b82518110156115d15760008084838151811061133157611330613888565b5b6020026020010151815260200190815260200160002060405180610140016040529081600082015481526020016001820160009054906101000a900473ffffffffffffffffffffffffffffffffffffffff1673ffffffffffffffffffffffffffffffffffffffff1673ffffffffffffffffffffffffffffffffffffffff1681526020016002820180546113c3906138e6565b80601f01602080910402602001604051908101604052809291908181526020018280546113ef906138e6565b801561143c5780601f106114115761010080835404028352916020019161143c565b820191906000526020600020905b81548152906001019060200180831161141f57829003601f168201915b50505050508152602001600382018054611455906138e6565b80601f0160208091040260200160405190810160405280929190818152602001828054611481906138e6565b80156114ce5780601f106114a3576101008083540402835291602001916114ce565b820191906000526020600020905b8154815290600101906020018083116114b157829003601f168201915b505050505081526020016004820160009054906101000a900460ff16600d8111156114fc576114fb612f62565b5b600d81111561150e5761150d612f62565b5b8152602001600582015481526020016006820160009054906101000a900460ff16600281111561154157611540612f62565b5b600281111561155357611552612f62565b5b8152602001600782015481526020016008820160009054906101000a900460ff16600281111561158657611585612f62565b5b600281111561159857611597612f62565b5b81526020016009820154815250508282815181106115b9576115b8613888565b5b60200260200101819052508080600101915050611312565b506115f66040518060600160405280602d815260200161432a602d913985845161254a565b8092505050919050565b605081565b8a6001600082815260200190815260200160002060010160009054906101000a900460ff161561166a576040517f08c379a000000000000000000000000000000000000000000000000000000000815260040161166190613974565b60405180910390fd5b60011515600160008e815260200190815260200160002060040160003373ffffffffffffffffffffffffffffffffffffffff1673ffffffffffffffffffffffffffffffffffffffff16815260200190815260200160002060009054906101000a900460ff16151514611711576040517f08c379a000000000000000000000000000000000000000000000000000000000815260040161170890613e9b565b60405180910390fd5b6000600160008e8152602001908152602001600020905060008160030160003373ffffffffffffffffffffffffffffffffffffffff1673ffffffffffffffffffffffffffffffffffffffff168152602001908152602001600020600201540361178f5780600201600081548092919061178990613ac1565b91905055505b604051806101a001604052803373ffffffffffffffffffffffffffffffffffffffff1681526020018e81526020014281526020018d60018111156117d6576117d5612f62565b5b81526020018c60018111156117ee576117ed612f62565b5b81526020018b600181111561180657611805612f62565b5b81526020018a600181111561181e5761181d612f62565b5b815260200189600181111561183657611835612f62565b5b815260200188600181111561184e5761184d612f62565b5b815260200187600181111561186657611865612f62565b5b815260200186600281111561187e5761187d612f62565b5b815260200185600d81111561189657611895612f62565b5b8152602001848152508160030160003373ffffffffffffffffffffffffffffffffffffffff1673ffffffffffffffffffffffffffffffffffffffff16815260200190815260200160002060008201518160000160006101000a81548173ffffffffffffffffffffffffffffffffffffffff021916908373ffffffffffffffffffffffffffffffffffffffff160217905550602082015181600101556040820151816002015560608201518160030160006101000a81548160ff0219169083600181111561196657611965612f62565b5b021790555060808201518160030160016101000a81548160ff0219169083600181111561199657611995612f62565b5b021790555060a08201518160030160026101000a81548160ff021916908360018111156119c6576119c5612f62565b5b021790555060c08201518160030160036101000a81548160ff021916908360018111156119f6576119f5612f62565b5b021790555060e08201518160030160046101000a81548160ff02191690836001811115611a2657611a25612f62565b5b02179055506101008201518160030160056101000a81548160ff02191690836001811115611a5757611a56612f62565b5b02179055506101208201518160030160066101000a81548160ff02191690836001811115611a8857611a87612f62565b5b02179055506101408201518160030160076101000a81548160ff02191690836002811115611ab957611ab8612f62565b5b02179055506101608201518160030160086101000a81548160ff0219169083600d811115611aea57611ae9612f62565b5b02179055506101808201518160040155905050611b206040518060600160405280602d8152602001614230602d9139338f61254a565b611b716040518060400160405280600f81526020017f2d2052656c6576616e63653a20257300000000000000000000000000000000008152508d6001811115611b6c57611b6b612f62565b5b612727565b611bc26040518060400160405280601b81526020017f2d20546563686e6963616c20636f72726563746e6573733a20257300000000008152508c6001811115611bbd57611bbc612f62565b5b612727565b611c136040518060400160405280601281526020017f2d20436f6d706c6574656e6573733a20257300000000000000000000000000008152508b6001811115611c0e57611c0d612f62565b5b612727565b611c646040518060400160405280600d81526020017f2d20436c61726974793a202573000000000000000000000000000000000000008152508a6001811115611c5f57611c5e612f62565b5b612727565b611cb56040518060400160405280601181526020017f2d204f726967696e616c6974793a202573000000000000000000000000000000815250896001811115611cb057611caf612f62565b5b612727565b611d066040518060400160405280600e81526020017f2d20556e6269617365643a202573000000000000000000000000000000000000815250886001811115611d0157611d00612f62565b5b612727565b611d576040518060400160405280601581526020017f2d20506c616769617269736d20667265653a2025730000000000000000000000815250876001811115611d5257611d51612f62565b5b612727565b611da86040518060400160405280601a81526020017f2d2053756767657374656420646966666963756c74793a202573000000000000815250866002811115611da357611da2612f62565b5b612727565b611df96040518060400160405280601881526020017f2d205375676765737465642063617465676f72793a202573000000000000000081525085600d811115611df457611df3612f62565b5b612727565b611e386040518060400160405280601a81526020017f2d2053756767657374656420736f6c76652074696d653a20257300000000000081525084612727565b6003816002015410611e4f57611e4e8d826127c3565b5b50505050505050505050505050565b611e66612dbd565b611e896040518060600160405280602181526020016142e660219139338461254a565b60008083815260200190815260200160002060405180610140016040529081600082015481526020016001820160009054906101000a900473ffffffffffffffffffffffffffffffffffffffff1673ffffffffffffffffffffffffffffffffffffffff1673ffffffffffffffffffffffffffffffffffffffff168152602001600282018054611f17906138e6565b80601f0160208091040260200160405190810160405280929190818152602001828054611f43906138e6565b8015611f905780601f10611f6557610100808354040283529160200191611f90565b820191906000526020600020905b815481529060010190602001808311611f7357829003601f168201915b50505050508152602001600382018054611fa9906138e6565b80601f0160208091040260200160405190810160405280929190818152602001828054611fd5906138e6565b80156120225780601f10611ff757610100808354040283529160200191612022565b820191906000526020600020905b81548152906001019060200180831161200557829003601f168201915b505050505081526020016004820160009054906101000a900460ff16600d8111156120505761204f612f62565b5b600d81111561206257612061612f62565b5b8152602001600582015481526020016006820160009054906101000a900460ff16600281111561209557612094612f62565b5b60028111156120a7576120a6612f62565b5b8152602001600782015481526020016008820160009054906101000a900460ff1660028111156120da576120d9612f62565b5b60028111156120ec576120eb612f62565b5b81526020016009820154815250509050919050565b600781565b60006001600083815260200190815260200160002060010160009054906101000a900460ff169050919050565b6060600060055467ffffffffffffffff81111561215357612152613859565b5b60405190808252806020026020018201604052801561218c57816020015b612179612dbd565b8152602001906001900390816121715790505b50905060005b60045481101561248757600060028111156121b0576121af612f62565b5b60008083815260200190815260200160002060060160009054906101000a900460ff1660028111156121e5576121e4612f62565b5b0361247a5760008082815260200190815260200160002060405180610140016040529081600082015481526020016001820160009054906101000a900473ffffffffffffffffffffffffffffffffffffffff1673ffffffffffffffffffffffffffffffffffffffff1673ffffffffffffffffffffffffffffffffffffffff168152602001600282018054612278906138e6565b80601f01602080910402602001604051908101604052809291908181526020018280546122a4906138e6565b80156122f15780601f106122c6576101008083540402835291602001916122f1565b820191906000526020600020905b8154815290600101906020018083116122d457829003601f168201915b5050505050815260200160038201805461230a906138e6565b80601f0160208091040260200160405190810160405280929190818152602001828054612336906138e6565b80156123835780601f1061235857610100808354040283529160200191612383565b820191906000526020600020905b81548152906001019060200180831161236657829003601f168201915b505050505081526020016004820160009054906101000a900460ff16600d8111156123b1576123b0612f62565b5b600d8111156123c3576123c2612f62565b5b8152602001600582015481526020016006820160009054906101000a900460ff1660028111156123f6576123f5612f62565b5b600281111561240857612407612f62565b5b8152602001600782015481526020016008820160009054906101000a900460ff16600281111561243b5761243a612f62565b5b600281111561244d5761244c612f62565b5b815260200160098201548152505082828151811061246e5761246d613888565b5b60200260200101819052505b8080600101915050612192565b506124ac6040518060600160405280603381526020016142b36033913933835161254a565b8091505090565b60006001600084815260200190815260200160002060040160008373ffffffffffffffffffffffffffffffffffffffff1673ffffffffffffffffffffffffffffffffffffffff16815260200190815260200160002060009054906101000a900460ff16905092915050565b600060016000838152602001908152602001600020600001805490509050919050565b60006003905090565b6125e483838360405160240161256293929190613f03565b6040516020818303038152906040527f0d26b925000000000000000000000000000000000000000000000000000000007bffffffffffffffffffffffffffffffffffffffffffffffffffffffff19166020820180517bffffffffffffffffffffffffffffffffffffffffffffffffffffffff8381831617835250505050612bb8565b505050565b612685848484846040516024016126039493929190613f41565b6040516020818303038152906040527f4f04fdc6000000000000000000000000000000000000000000000000000000007bffffffffffffffffffffffffffffffffffffffffffffffffffffffff19166020820180517bffffffffffffffffffffffffffffffffffffffffffffffffffffffff8381831617835250505050612bb8565b50505050565b61272382826040516024016126a1929190613f8d565b6040516020818303038152906040527f4b5c4277000000000000000000000000000000000000000000000000000000007bffffffffffffffffffffffffffffffffffffffffffffffffffffffff19166020820180517bffffffffffffffffffffffffffffffffffffffffffffffffffffffff8381831617835250505050612bb8565b5050565b6127bf828260405160240161273d929190613fc4565b6040516020818303038152906040527fb60e72cc000000000000000000000000000000000000000000000000000000007bffffffffffffffffffffffffffffffffffffffffffffffffffffffff19166020820180517bffffffffffffffffffffffffffffffffffffffffffffffffffffffff8381831617835250505050612bb8565b5050565b8060010160009054906101000a900460ff1615612815576040517f08c379a000000000000000000000000000000000000000000000000000000000815260040161280c90614040565b60405180910390fd5b6000805b8260000180549050811015612a0057600083600301600085600001848154811061284657612845613888565b5b9060005260206000200160009054906101000a900473ffffffffffffffffffffffffffffffffffffffff1673ffffffffffffffffffffffffffffffffffffffff1673ffffffffffffffffffffffffffffffffffffffff16815260200190815260200160002090508060030160069054906101000a900460ff1660018111156128d1576128d0612f62565b5b8160030160059054906101000a900460ff1660018111156128f5576128f4612f62565b5b8260030160049054906101000a900460ff16600181111561291957612918612f62565b5b8360030160039054906101000a900460ff16600181111561293d5761293c612f62565b5b8460030160029054906101000a900460ff16600181111561296157612960612f62565b5b8560030160019054906101000a900460ff16600181111561298557612984612f62565b5b8660030160009054906101000a900460ff1660018111156129a9576129a8612f62565b5b6129b39190614060565b6129bd9190614060565b6129c79190614060565b6129d19190614060565b6129db9190614060565b6129e59190614060565b836129f09190614060565b9250508080600101915050612819565b50600082600201546007612a149190614094565b606483612a219190614094565b612a2b9190614105565b9050612a50604051806060016040528060238152602001614307602391398583612bd2565b60508110612ab357600160008086815260200190815260200160002060060160006101000a81548160ff02191690836002811115612a9157612a90612f62565b5b021790555060056000815480929190612aa990614136565b9190505550612b0a565b600260008086815260200190815260200160002060060160006101000a81548160ff02191690836002811115612aec57612aeb612f62565b5b021790555060056000815480929190612b0490614136565b91905055505b806000808681526020019081526020016000206007018190555060018360010160006101000a81548160ff021916908315150217905550837f1a20d608d2289bdfc4581c5a0722f4636bd21c1610f2485c20a4b20fd1f57a5360008087815260200190815260200160002060060160009054906101000a900460ff1660008088815260200190815260200160002060070154604051612baa92919061416e565b60405180910390a250505050565b612bcf81612bc7612c71612c92565b63ffffffff16565b50565b612c6c838383604051602401612bea93929190614197565b6040516020818303038152906040527fca47c4eb000000000000000000000000000000000000000000000000000000007bffffffffffffffffffffffffffffffffffffffffffffffffffffffff19166020820180517bffffffffffffffffffffffffffffffffffffffffffffffffffffffff8381831617835250505050612bb8565b505050565b60006a636f6e736f6c652e6c6f679050600080835160208501845afa505050565b612e5c819050919050565b604051806101a00160405280600073ffffffffffffffffffffffffffffffffffffffff168152602001600081526020016000815260200160006001811115612ce857612ce7612f62565b5b815260200160006001811115612d0157612d00612f62565b5b815260200160006001811115612d1a57612d19612f62565b5b815260200160006001811115612d3357612d32612f62565b5b815260200160006001811115612d4c57612d4b612f62565b5b815260200160006001811115612d6557612d64612f62565b5b815260200160006001811115612d7e57612d7d612f62565b5b815260200160006002811115612d9757612d96612f62565b5b81526020016000600d811115612db057612daf612f62565b5b8152602001600081525090565b60405180610140016040528060008152602001600073ffffffffffffffffffffffffffffffffffffffff16815260200160608152602001606081526020016000600d811115612e0f57612e0e612f62565b5b81526020016000815260200160006002811115612e2f57612e2e612f62565b5b81526020016000815260200160006002811115612e4f57612e4e612f62565b5b8152602001600081525090565b612e646141d5565b565b600080fd5b600080fd5b6000819050919050565b612e8381612e70565b8114612e8e57600080fd5b50565b600081359050612ea081612e7a565b92915050565b600073ffffffffffffffffffffffffffffffffffffffff82169050919050565b6000612ed182612ea6565b9050919050565b612ee181612ec6565b8114612eec57600080fd5b50565b600081359050612efe81612ed8565b92915050565b60008060408385031215612f1b57612f1a612e66565b5b6000612f2985828601612e91565b9250506020612f3a85828601612eef565b9150509250929050565b612f4d81612ec6565b82525050565b612f5c81612e70565b82525050565b7f4e487b7100000000000000000000000000000000000000000000000000000000600052602160045260246000fd5b60028110612fa257612fa1612f62565b5b50565b6000819050612fb382612f91565b919050565b6000612fc382612fa5565b9050919050565b612fd381612fb8565b82525050565b60038110612fea57612fe9612f62565b5b50565b6000819050612ffb82612fd9565b919050565b600061300b82612fed565b9050919050565b61301b81613000565b82525050565b600e811061303257613031612f62565b5b50565b600081905061304382613021565b919050565b600061305382613035565b9050919050565b61306381613048565b82525050565b6101a0820160008201516130806000850182612f44565b5060208201516130936020850182612f53565b5060408201516130a66040850182612f53565b5060608201516130b96060850182612fca565b5060808201516130cc6080850182612fca565b5060a08201516130df60a0850182612fca565b5060c08201516130f260c0850182612fca565b5060e082015161310560e0850182612fca565b5061010082015161311a610100850182612fca565b5061012082015161312f610120850182612fca565b50610140820151613144610140850182613012565b5061016082015161315961016085018261305a565b5061018082015161316e610180850182612f53565b50505050565b60006101a08201905061318a6000830184613069565b92915050565b61319981612e70565b82525050565b60006020820190506131b46000830184613190565b92915050565b6000602082840312156131d0576131cf612e66565b5b60006131de84828501612eef565b91505092915050565b600081519050919050565b600082825260208201905092915050565b6000819050602082019050919050565b600081519050919050565b600082825260208201905092915050565b60005b8381101561324d578082015181840152602081019050613232565b60008484015250505050565b6000601f19601f8301169050919050565b600061327582613213565b61327f818561321e565b935061328f81856020860161322f565b61329881613259565b840191505092915050565b600381106132b4576132b3612f62565b5b50565b60008190506132c5826132a3565b919050565b60006132d5826132b7565b9050919050565b6132e5816132ca565b82525050565b6000610140830160008301516133046000860182612f53565b5060208301516133176020860182612f44565b506040830151848203604086015261332f828261326a565b91505060608301518482036060860152613349828261326a565b915050608083015161335e608086018261305a565b5060a083015161337160a0860182612f53565b5060c083015161338460c08601826132dc565b5060e083015161339760e0860182612f53565b506101008301516133ac610100860182613012565b506101208301516133c1610120860182612f53565b508091505092915050565b60006133d883836132eb565b905092915050565b6000602082019050919050565b60006133f8826131e7565b61340281856131f2565b93508360208202850161341485613203565b8060005b85811015613450578484038952815161343185826133cc565b945061343c836133e0565b925060208a01995050600181019050613418565b50829750879550505050505092915050565b6000602082019050818103600083015261347c81846133ed565b905092915050565b60006020828403121561349a57613499612e66565b5b60006134a884828501612e91565b91505092915050565b600080fd5b600080fd5b600080fd5b60008083601f8401126134d6576134d56134b1565b5b8235905067ffffffffffffffff8111156134f3576134f26134b6565b5b60208301915083600182028301111561350f5761350e6134bb565b5b9250929050565b600e811061352357600080fd5b50565b60008135905061353581613516565b92915050565b6000806000806000806080878903121561355857613557612e66565b5b600087013567ffffffffffffffff81111561357657613575612e6b565b5b61358289828a016134c0565b9650965050602087013567ffffffffffffffff8111156135a5576135a4612e6b565b5b6135b189828a016134c0565b945094505060406135c489828a01613526565b92505060606135d589828a01612e91565b9150509295509295509295565b600281106135ef57600080fd5b50565b600081359050613601816135e2565b92915050565b6003811061361457600080fd5b50565b60008135905061362681613607565b92915050565b60008060008060008060008060008060006101608c8e03121561365257613651612e66565b5b60006136608e828f01612e91565b9b505060206136718e828f016135f2565b9a505060406136828e828f016135f2565b99505060606136938e828f016135f2565b98505060806136a48e828f016135f2565b97505060a06136b58e828f016135f2565b96505060c06136c68e828f016135f2565b95505060e06136d78e828f016135f2565b9450506101006136e98e828f01613617565b9350506101206136fb8e828f01613526565b92505061014061370d8e828f01612e91565b9150509295989b509295989b9093969950565b6000610140830160008301516137396000860182612f53565b50602083015161374c6020860182612f44565b5060408301518482036040860152613764828261326a565b9150506060830151848203606086015261377e828261326a565b9150506080830151613793608086018261305a565b5060a08301516137a660a0860182612f53565b5060c08301516137b960c08601826132dc565b5060e08301516137cc60e0860182612f53565b506101008301516137e1610100860182613012565b506101208301516137f6610120860182612f53565b508091505092915050565b6000602082019050818103600083015261381b8184613720565b905092915050565b60008115159050919050565b61383881613823565b82525050565b6000602082019050613853600083018461382f565b92915050565b7f4e487b7100000000000000000000000000000000000000000000000000000000600052604160045260246000fd5b7f4e487b7100000000000000000000000000000000000000000000000000000000600052603260045260246000fd5b7f4e487b7100000000000000000000000000000000000000000000000000000000600052602260045260246000fd5b600060028204905060018216806138fe57607f821691505b602082108103613911576139106138b7565b5b50919050565b600082825260208201905092915050565b7f4368616c6c656e676520616c72656164792066696e616c697365640000000000600082015250565b600061395e601b83613917565b915061396982613928565b602082019050919050565b6000602082019050818103600083015261398d81613951565b9050919050565b7f4d6178206d6f64657261746f7273207265616368656400000000000000000000600082015250565b60006139ca601683613917565b91506139d582613994565b602082019050919050565b600060208201905081810360008301526139f9816139bd565b9050919050565b7f596f75206861766520616c7265616479206a6f696e656420746869732072657660008201527f69657720706f6f6c2e0000000000000000000000000000000000000000000000602082015250565b6000613a5c602983613917565b9150613a6782613a00565b604082019050919050565b60006020820190508181036000830152613a8b81613a4f565b9050919050565b7f4e487b7100000000000000000000000000000000000000000000000000000000600052601160045260246000fd5b6000613acc82612e70565b91507fffffffffffffffffffffffffffffffffffffffffffffffffffffffffffffffff8203613afe57613afd613a92565b5b600182019050919050565b60008190508160005260206000209050919050565b60006020601f8301049050919050565b600082821b905092915050565b600060088302613b6b7fffffffffffffffffffffffffffffffffffffffffffffffffffffffffffffffff82613b2e565b613b758683613b2e565b95508019841693508086168417925050509392505050565b6000819050919050565b6000613bb2613bad613ba884612e70565b613b8d565b612e70565b9050919050565b6000819050919050565b613bcc83613b97565b613be0613bd882613bb9565b848454613b3b565b825550505050565b600090565b613bf5613be8565b613c00818484613bc3565b505050565b5b81811015613c2457613c19600082613bed565b600181019050613c06565b5050565b601f821115613c6957613c3a81613b09565b613c4384613b1e565b81016020851015613c52578190505b613c66613c5e85613b1e565b830182613c05565b50505b505050565b600082821c905092915050565b6000613c8c60001984600802613c6e565b1980831691505092915050565b6000613ca58383613c7b565b9150826002028217905092915050565b613cbe82613213565b67ffffffffffffffff811115613cd757613cd6613859565b5b613ce182546138e6565b613cec828285613c28565b600060209050601f831160018114613d1f5760008415613d0d578287015190505b613d178582613c99565b865550613d7f565b601f198416613d2d86613b09565b60005b82811015613d5557848901518255600182019150602085019450602081019050613d30565b86831015613d725784890151613d6e601f891682613c7b565b8355505b6001600288020188555050505b505050505050565b82818337600083830152505050565b6000613da28385613917565b9350613daf838584613d87565b613db883613259565b840190509392505050565b613dcc81613048565b82525050565b60006080820190508181036000830152613ded81888a613d96565b90508181036020830152613e02818688613d96565b9050613e116040830185613dc3565b613e1e6060830184613190565b979650505050505050565b7f596f752068617665206e6f74206a6f696e65642074686973207265766965772060008201527f706f6f6c2e000000000000000000000000000000000000000000000000000000602082015250565b6000613e85602583613917565b9150613e9082613e29565b604082019050919050565b60006020820190508181036000830152613eb481613e78565b9050919050565b6000613ec682613213565b613ed08185613917565b9350613ee081856020860161322f565b613ee981613259565b840191505092915050565b613efd81612ec6565b82525050565b60006060820190508181036000830152613f1d8186613ebb565b9050613f2c6020830185613ef4565b613f396040830184613190565b949350505050565b60006080820190508181036000830152613f5b8187613ebb565b9050613f6a6020830186613190565b613f776040830185613ef4565b613f846060830184613190565b95945050505050565b60006040820190508181036000830152613fa78185613ebb565b90508181036020830152613fbb8184613ebb565b90509392505050565b60006040820190508181036000830152613fde8185613ebb565b9050613fed6020830184613190565b9392505050565b7f4368616c6c656e676520616c72656164792066696e616c697a65640000000000600082015250565b600061402a601b83613917565b915061403582613ff4565b602082019050919050565b600060208201905081810360008301526140598161401d565b9050919050565b600061406b82612e70565b915061407683612e70565b925082820190508082111561408e5761408d613a92565b5b92915050565b600061409f82612e70565b91506140aa83612e70565b92508282026140b881612e70565b915082820484148315176140cf576140ce613a92565b5b5092915050565b7f4e487b7100000000000000000000000000000000000000000000000000000000600052601260045260246000fd5b600061411082612e70565b915061411b83612e70565b92508261412b5761412a6140d6565b5b828204905092915050565b600061414182612e70565b91506000820361415457614153613a92565b5b600182039050919050565b614168816132ca565b82525050565b6000604082019050614183600083018561415f565b6141906020830184613190565b9392505050565b600060608201905081810360008301526141b18186613ebb565b90506141c06020830185613190565b6141cd6040830184613190565b949350505050565b7f4e487b7100000000000000000000000000000000000000000000000000000000600052605160045260246000fdfe4368616c6c656e67652023257320636f6e747269627574656420627920257320617420257320776974683a4d6f64657261746f7220257320757064617465642072657669657720666f72206368616c6c656e67652023257355736572202573206861642066657463686564202573206d6f64657261746564206368616c6c656e6765735573657220257320686164206665746368656420726576696577206f66206368616c6c656e67652023257355736572202573206861642066657463682025732070656e64696e6720636f6e7472696275746564206368616c6c656e67657355736572202573206861642066657463686564206368616c6c656e676520232573417665726167652073636f726520666f72206368616c6c656e6765202325733a2025735573657220257320686164206665746368656420257320636f6e7472696275746564206368616c6c656e6765734d6f64657261746f72202573206a6f696e65642072657669657720706f6f6c20666f72206368616c6c656e676520232573a26469706673582212207c5116bb9916aff14fd1a123bdf2b775e2b1741e336e0cebc1f831bcd7d8265764736f6c634300081c0033",
  "linkReferences": {},
  "deployedLinkReferences": {}
}