{
  "_format": "hh-sol-artifact-1",
  "contractName": "ChallengeManager",
  "sourceName": "contracts/ChallengeManager.sol",
  "abi": [
    {
      "anonymous": false,
      "inputs": [
        {
          "indexed": true,
          "internalType": "address",
          "name": "contributor",
          "type": "address"
        },
        {
          "indexed": false,
          "internalType": "string",
          "name": "title_url",
          "type": "string"
        },
        {
          "indexed": false,
          "internalType": "string",
          "name": "description_url",
          "type": "string"
        },
        {
          "indexed": false,
          "internalType": "enum ChallengeManager.Domain",
          "name": "category",
          "type": "uint8"
        },
        {
          "indexed": false,
          "internalType": "uint256",
          "name": "contribute_at",
          "type": "uint256"
        }
      ],
      "name": "ChallengeContributed",
      "type": "event"
    },
    {
      "anonymous": false,
      "inputs": [
        {
          "indexed": true,
          "internalType": "uint256",
          "name": "challengeId",
          "type": "uint256"
        },
        {
          "indexed": false,
          "internalType": "enum ChallengeManager.ChallengeStatus",
          "name": "status",
          "type": "uint8"
        },
        {
          "indexed": false,
          "internalType": "uint256",
          "name": "averagePercent",
          "type": "uint256"
        }
      ],
      "name": "ChallengeFinalized",
      "type": "event"
    },
    {
      "anonymous": false,
      "inputs": [
        {
          "indexed": true,
          "internalType": "uint256",
          "name": "challenge_id",
          "type": "uint256"
        },
        {
          "indexed": true,
          "internalType": "address",
          "name": "moderator",
          "type": "address"
        }
      ],
      "name": "ReviewPoolJoined",
      "type": "event"
    },
    {
      "inputs": [],
      "name": "NUMBER_OF_QUALITY_FACTORS",
      "outputs": [
        {
          "internalType": "uint256",
          "name": "",
          "type": "uint256"
        }
      ],
      "stateMutability": "view",
      "type": "function"
    },
    {
      "inputs": [],
      "name": "REVIEW_QUORUM",
      "outputs": [
        {
          "internalType": "uint256",
          "name": "",
          "type": "uint256"
        }
      ],
      "stateMutability": "view",
      "type": "function"
    },
    {
      "inputs": [],
      "name": "REVIEW_THRESHOLD",
      "outputs": [
        {
          "internalType": "uint256",
          "name": "",
          "type": "uint256"
        }
      ],
      "stateMutability": "view",
      "type": "function"
    },
    {
      "inputs": [
        {
          "internalType": "string",
          "name": "_title_url",
          "type": "string"
        },
        {
          "internalType": "string",
          "name": "_description_url",
          "type": "string"
        },
        {
          "internalType": "enum ChallengeManager.Domain",
          "name": "_category",
          "type": "uint8"
        },
        {
          "internalType": "uint256",
          "name": "_contribute_at",
          "type": "uint256"
        }
      ],
      "name": "contributeChallenge",
      "outputs": [],
      "stateMutability": "nonpayable",
      "type": "function"
    },
    {
      "inputs": [
        {
          "internalType": "uint256",
          "name": "_challenge_id",
          "type": "uint256"
        }
      ],
      "name": "getChallengeById",
      "outputs": [
        {
          "components": [
            {
              "internalType": "uint256",
              "name": "id",
              "type": "uint256"
            },
            {
              "internalType": "address",
              "name": "contributor",
              "type": "address"
            },
            {
              "internalType": "string",
              "name": "title_url",
              "type": "string"
            },
            {
              "internalType": "string",
              "name": "description_url",
              "type": "string"
            },
            {
              "internalType": "enum ChallengeManager.Domain",
              "name": "category",
              "type": "uint8"
            },
            {
              "internalType": "uint256",
              "name": "contribute_at",
              "type": "uint256"
            },
            {
              "internalType": "enum ChallengeManager.ChallengeStatus",
              "name": "status",
              "type": "uint8"
            },
            {
              "internalType": "uint256",
              "name": "quality_score",
              "type": "uint256"
            },
            {
              "internalType": "enum ChallengeManager.DifficultyLevel",
              "name": "difficulty_level",
              "type": "uint8"
            },
            {
              "internalType": "uint256",
              "name": "solve_time",
              "type": "uint256"
            }
          ],
          "internalType": "struct ChallengeManager.Challenge",
          "name": "",
          "type": "tuple"
        }
      ],
      "stateMutability": "view",
      "type": "function"
    },
    {
      "inputs": [
        {
          "internalType": "address",
          "name": "_contributor_address",
          "type": "address"
        }
      ],
      "name": "getChallengesByContributor",
      "outputs": [
        {
          "components": [
            {
              "internalType": "uint256",
              "name": "id",
              "type": "uint256"
            },
            {
              "internalType": "address",
              "name": "contributor",
              "type": "address"
            },
            {
              "internalType": "string",
              "name": "title_url",
              "type": "string"
            },
            {
              "internalType": "string",
              "name": "description_url",
              "type": "string"
            },
            {
              "internalType": "enum ChallengeManager.Domain",
              "name": "category",
              "type": "uint8"
            },
            {
              "internalType": "uint256",
              "name": "contribute_at",
              "type": "uint256"
            },
            {
              "internalType": "enum ChallengeManager.ChallengeStatus",
              "name": "status",
              "type": "uint8"
            },
            {
              "internalType": "uint256",
              "name": "quality_score",
              "type": "uint256"
            },
            {
              "internalType": "enum ChallengeManager.DifficultyLevel",
              "name": "difficulty_level",
              "type": "uint8"
            },
            {
              "internalType": "uint256",
              "name": "solve_time",
              "type": "uint256"
            }
          ],
          "internalType": "struct ChallengeManager.Challenge[]",
          "name": "",
          "type": "tuple[]"
        }
      ],
      "stateMutability": "view",
      "type": "function"
    },
    {
      "inputs": [
        {
          "internalType": "address",
          "name": "_moderator_address",
          "type": "address"
        }
      ],
      "name": "getChallengesByModerator",
      "outputs": [
        {
          "components": [
            {
              "internalType": "uint256",
              "name": "id",
              "type": "uint256"
            },
            {
              "internalType": "address",
              "name": "contributor",
              "type": "address"
            },
            {
              "internalType": "string",
              "name": "title_url",
              "type": "string"
            },
            {
              "internalType": "string",
              "name": "description_url",
              "type": "string"
            },
            {
              "internalType": "enum ChallengeManager.Domain",
              "name": "category",
              "type": "uint8"
            },
            {
              "internalType": "uint256",
              "name": "contribute_at",
              "type": "uint256"
            },
            {
              "internalType": "enum ChallengeManager.ChallengeStatus",
              "name": "status",
              "type": "uint8"
            },
            {
              "internalType": "uint256",
              "name": "quality_score",
              "type": "uint256"
            },
            {
              "internalType": "enum ChallengeManager.DifficultyLevel",
              "name": "difficulty_level",
              "type": "uint8"
            },
            {
              "internalType": "uint256",
              "name": "solve_time",
              "type": "uint256"
            }
          ],
          "internalType": "struct ChallengeManager.Challenge[]",
          "name": "",
          "type": "tuple[]"
        }
      ],
      "stateMutability": "view",
      "type": "function"
    },
    {
      "inputs": [
        {
          "internalType": "uint256",
          "name": "_challenge_id",
          "type": "uint256"
        },
        {
          "internalType": "address",
          "name": "_moderator_address",
          "type": "address"
        }
      ],
      "name": "getJoinReviewPoolStatus",
      "outputs": [
        {
          "internalType": "bool",
          "name": "",
          "type": "bool"
        }
      ],
      "stateMutability": "view",
      "type": "function"
    },
    {
      "inputs": [
        {
          "internalType": "uint256",
          "name": "challenge_id",
          "type": "uint256"
        },
        {
          "internalType": "address",
          "name": "_moderator_address",
          "type": "address"
        }
      ],
      "name": "getModeratorReviewOfChallenge",
      "outputs": [
        {
          "components": [
            {
              "internalType": "address",
              "name": "moderator",
              "type": "address"
            },
            {
              "internalType": "uint256",
              "name": "challenge_id",
              "type": "uint256"
            },
            {
              "internalType": "uint256",
              "name": "review_time",
              "type": "uint256"
            },
            {
              "internalType": "enum ChallengeManager.QualityFactorAnswer",
              "name": "relevance",
              "type": "uint8"
            },
            {
              "internalType": "enum ChallengeManager.QualityFactorAnswer",
              "name": "technical_correctness",
              "type": "uint8"
            },
            {
              "internalType": "enum ChallengeManager.QualityFactorAnswer",
              "name": "completeness",
              "type": "uint8"
            },
            {
              "internalType": "enum ChallengeManager.QualityFactorAnswer",
              "name": "clarity",
              "type": "uint8"
            },
            {
              "internalType": "enum ChallengeManager.QualityFactorAnswer",
              "name": "originality",
              "type": "uint8"
            },
            {
              "internalType": "enum ChallengeManager.QualityFactorAnswer",
              "name": "unbiased",
              "type": "uint8"
            },
            {
              "internalType": "enum ChallengeManager.QualityFactorAnswer",
              "name": "plagiarism_free",
              "type": "uint8"
            },
            {
              "internalType": "enum ChallengeManager.DifficultyLevel",
              "name": "suggested_difficulty",
              "type": "uint8"
            },
            {
              "internalType": "enum ChallengeManager.Domain",
              "name": "suggested_category",
              "type": "uint8"
            },
            {
              "internalType": "uint256",
              "name": "suggested_solve_time",
              "type": "uint256"
            }
          ],
          "internalType": "struct ChallengeManager.ModeratorReview",
          "name": "",
          "type": "tuple"
        }
      ],
      "stateMutability": "view",
      "type": "function"
    },
    {
      "inputs": [],
      "name": "getPendingChallenges",
      "outputs": [
        {
          "components": [
            {
              "internalType": "uint256",
              "name": "id",
              "type": "uint256"
            },
            {
              "internalType": "address",
              "name": "contributor",
              "type": "address"
            },
            {
              "internalType": "string",
              "name": "title_url",
              "type": "string"
            },
            {
              "internalType": "string",
              "name": "description_url",
              "type": "string"
            },
            {
              "internalType": "enum ChallengeManager.Domain",
              "name": "category",
              "type": "uint8"
            },
            {
              "internalType": "uint256",
              "name": "contribute_at",
              "type": "uint256"
            },
            {
              "internalType": "enum ChallengeManager.ChallengeStatus",
              "name": "status",
              "type": "uint8"
            },
            {
              "internalType": "uint256",
              "name": "quality_score",
              "type": "uint256"
            },
            {
              "internalType": "enum ChallengeManager.DifficultyLevel",
              "name": "difficulty_level",
              "type": "uint8"
            },
            {
              "internalType": "uint256",
              "name": "solve_time",
              "type": "uint256"
            }
          ],
          "internalType": "struct ChallengeManager.Challenge[]",
          "name": "",
          "type": "tuple[]"
        }
      ],
      "stateMutability": "view",
      "type": "function"
    },
    {
      "inputs": [
        {
          "internalType": "uint256",
          "name": "_challenge_id",
          "type": "uint256"
        }
      ],
      "name": "joinReviewPool",
      "outputs": [],
      "stateMutability": "nonpayable",
      "type": "function"
    },
    {
      "inputs": [],
      "name": "pending_challenges",
      "outputs": [
        {
          "internalType": "uint256",
          "name": "",
          "type": "uint256"
        }
      ],
      "stateMutability": "view",
      "type": "function"
    },
    {
      "inputs": [
        {
          "internalType": "uint256",
          "name": "_challenge_id",
          "type": "uint256"
        },
        {
          "internalType": "enum ChallengeManager.QualityFactorAnswer",
          "name": "_relevance",
          "type": "uint8"
        },
        {
          "internalType": "enum ChallengeManager.QualityFactorAnswer",
          "name": "_technical_correctness",
          "type": "uint8"
        },
        {
          "internalType": "enum ChallengeManager.QualityFactorAnswer",
          "name": "_completeness",
          "type": "uint8"
        },
        {
          "internalType": "enum ChallengeManager.QualityFactorAnswer",
          "name": "_clarity",
          "type": "uint8"
        },
        {
          "internalType": "enum ChallengeManager.QualityFactorAnswer",
          "name": "_originality",
          "type": "uint8"
        },
        {
          "internalType": "enum ChallengeManager.QualityFactorAnswer",
          "name": "_unbiased",
          "type": "uint8"
        },
        {
          "internalType": "enum ChallengeManager.QualityFactorAnswer",
          "name": "_plagiarism_free",
          "type": "uint8"
        },
        {
          "internalType": "enum ChallengeManager.DifficultyLevel",
          "name": "_suggested_difficulty",
          "type": "uint8"
        },
        {
          "internalType": "enum ChallengeManager.Domain",
          "name": "_suggested_category",
          "type": "uint8"
        },
        {
          "internalType": "uint256",
          "name": "_suggested_solve_time",
          "type": "uint256"
        }
      ],
      "name": "submitModeratorReview",
      "outputs": [],
      "stateMutability": "nonpayable",
      "type": "function"
    },
    {
      "inputs": [],
      "name": "total_challenges",
      "outputs": [
        {
          "internalType": "uint256",
          "name": "",
          "type": "uint256"
        }
      ],
      "stateMutability": "view",
      "type": "function"
    }
  ],
  "bytecode": "0x608060405260006004556000600555348015601957600080fd5b506142c5806100296000396000f3fe608060405234801561001057600080fd5b50600436106100ea5760003560e01c8063616e2e561161008c57806392376e131161006657806392376e131461024b578063955b67241461027b578063be21f20c14610299578063c80191b8146102b7576100ea565b8063616e2e56146101e15780636bf8eaf2146102115780638758aabb1461022f576100ea565b80635057494a116100c85780635057494a1461015b5780635a14c9441461018b5780635d880de9146101a75780635d9db5c4146101c5576100ea565b80630f335603146100ef5780632b3669961461011f5780634c7b5a8e1461013d575b600080fd5b61010960048036038101906101049190612e0c565b6102e7565b604051610116919061307c565b60405180910390f35b610127610600565b60405161013491906130a7565b60405180910390f35b610145610606565b60405161015291906130a7565b60405180910390f35b610175600480360381019061017091906130c2565b61060c565b604051610182919061336a565b60405180910390f35b6101a560048036038101906101a0919061338c565b6109ea565b005b6101af610cfa565b6040516101bc91906130a7565b60405180910390f35b6101df60048036038101906101da9190613443565b610cff565b005b6101fb60048036038101906101f691906130c2565b611183565b604051610208919061336a565b60405180910390f35b610219611561565b60405161022691906130a7565b60405180910390f35b61024960048036038101906102449190613534565b611566565b005b6102656004803603810190610260919061338c565b611dbf565b6040516102729190613709565b60405180910390f35b610283612062565b60405161029091906130a7565b60405180910390f35b6102a1612067565b6040516102ae919061336a565b60405180910390f35b6102d160048036038101906102cc9190612e0c565b6123e7565b6040516102de9190613746565b60405180910390f35b6102ef612ba5565b6103126040518060600160405280602b8152602001614190602b91398385612452565b6001600084815260200190815260200160002060030160008373ffffffffffffffffffffffffffffffffffffffff1673ffffffffffffffffffffffffffffffffffffffff168152602001908152602001600020604051806101a00160405290816000820160009054906101000a900473ffffffffffffffffffffffffffffffffffffffff1673ffffffffffffffffffffffffffffffffffffffff1673ffffffffffffffffffffffffffffffffffffffff16815260200160018201548152602001600282015481526020016003820160009054906101000a900460ff166001811115610400576103ff612e6a565b5b600181111561041257610411612e6a565b5b81526020016003820160019054906101000a900460ff16600181111561043b5761043a612e6a565b5b600181111561044d5761044c612e6a565b5b81526020016003820160029054906101000a900460ff16600181111561047657610475612e6a565b5b600181111561048857610487612e6a565b5b81526020016003820160039054906101000a900460ff1660018111156104b1576104b0612e6a565b5b60018111156104c3576104c2612e6a565b5b81526020016003820160049054906101000a900460ff1660018111156104ec576104eb612e6a565b5b60018111156104fe576104fd612e6a565b5b81526020016003820160059054906101000a900460ff16600181111561052757610526612e6a565b5b600181111561053957610538612e6a565b5b81526020016003820160069054906101000a900460ff16600181111561056257610561612e6a565b5b600181111561057457610573612e6a565b5b81526020016003820160079054906101000a900460ff16600281111561059d5761059c612e6a565b5b60028111156105af576105ae612e6a565b5b81526020016003820160089054906101000a900460ff16600d8111156105d8576105d7612e6a565b5b600d8111156105ea576105e9612e6a565b5b8152602001600482015481525050905092915050565b60055481565b60045481565b60606000600360008473ffffffffffffffffffffffffffffffffffffffff1673ffffffffffffffffffffffffffffffffffffffff16815260200190815260200160002080548060200260200160405190810160405280929190818152602001828054801561069957602002820191906000526020600020905b815481526020019060010190808311610685575b505050505090506000815167ffffffffffffffff8111156106bd576106bc613761565b5b6040519080825280602002602001820160405280156106f657816020015b6106e3612cc5565b8152602001906001900390816106db5790505b50905060005b82518110156109bb5760008084838151811061071b5761071a613790565b5b6020026020010151815260200190815260200160002060405180610140016040529081600082015481526020016001820160009054906101000a900473ffffffffffffffffffffffffffffffffffffffff1673ffffffffffffffffffffffffffffffffffffffff1673ffffffffffffffffffffffffffffffffffffffff1681526020016002820180546107ad906137ee565b80601f01602080910402602001604051908101604052809291908181526020018280546107d9906137ee565b80156108265780601f106107fb57610100808354040283529160200191610826565b820191906000526020600020905b81548152906001019060200180831161080957829003601f168201915b5050505050815260200160038201805461083f906137ee565b80601f016020809104026020016040519081016040528092919081815260200182805461086b906137ee565b80156108b85780601f1061088d576101008083540402835291602001916108b8565b820191906000526020600020905b81548152906001019060200180831161089b57829003601f168201915b505050505081526020016004820160009054906101000a900460ff16600d8111156108e6576108e5612e6a565b5b600d8111156108f8576108f7612e6a565b5b8152602001600582015481526020016006820160009054906101000a900460ff16600281111561092b5761092a612e6a565b5b600281111561093d5761093c612e6a565b5b8152602001600782015481526020016008820160009054906101000a900460ff1660028111156109705761096f612e6a565b5b600281111561098257610981612e6a565b5b81526020016009820154815250508282815181106109a3576109a2613790565b5b602002602001018190525080806001019150506106fc565b506109e06040518060600160405280602b8152602001614165602b9139858451612452565b8092505050919050565b806001600082815260200190815260200160002060010160009054906101000a900460ff1615610a4f576040517f08c379a0000000000000000000000000000000000000000000000000000000008152600401610a469061387c565b60405180910390fd5b6002600160008481526020019081526020016000206000018054905010610aab576040517f08c379a0000000000000000000000000000000000000000000000000000000008152600401610aa2906138e8565b60405180910390fd5b600015156001600084815260200190815260200160002060040160003373ffffffffffffffffffffffffffffffffffffffff1673ffffffffffffffffffffffffffffffffffffffff16815260200190815260200160002060009054906101000a900460ff16151514610b52576040517f08c379a0000000000000000000000000000000000000000000000000000000008152600401610b499061397a565b60405180910390fd5b600360003373ffffffffffffffffffffffffffffffffffffffff1673ffffffffffffffffffffffffffffffffffffffff168152602001908152602001600020829080600181540180825580915050600190039060005260206000200160009091909190915055600060016000848152602001908152602001600020905080600001339080600181540180825580915050600190039060005260206000200160009091909190916101000a81548173ffffffffffffffffffffffffffffffffffffffff021916908373ffffffffffffffffffffffffffffffffffffffff16021790555060018160040160003373ffffffffffffffffffffffffffffffffffffffff1673ffffffffffffffffffffffffffffffffffffffff16815260200190815260200160002060006101000a81548160ff0219169083151502179055503373ffffffffffffffffffffffffffffffffffffffff16837f07fe5c562bb72cc8709dc10987f69acf04ba0d45c871d6c281e32df878063dcd60405160405180910390a3610cf560405180606001604052806031815260200161425f603191393385612452565b505050565b600281565b600060046000815480929190610d14906139c9565b9190505590506040518061014001604052808281526020013373ffffffffffffffffffffffffffffffffffffffff16815260200188888080601f016020809104026020016040519081016040528093929190818152602001838380828437600081840152601f19601f82011690508083019250505050505050815260200186868080601f016020809104026020016040519081016040528093929190818152602001838380828437600081840152601f19601f82011690508083019250505050505050815260200184600d811115610def57610dee612e6a565b5b815260200183815260200160006002811115610e0e57610e0d612e6a565b5b81526020016000815260200160006002811115610e2e57610e2d612e6a565b5b815260200160008152506000808381526020019081526020016000206000820151816000015560208201518160010160006101000a81548173ffffffffffffffffffffffffffffffffffffffff021916908373ffffffffffffffffffffffffffffffffffffffff1602179055506040820151816002019081610eb09190613bbd565b506060820151816003019081610ec69190613bbd565b5060808201518160040160006101000a81548160ff0219169083600d811115610ef257610ef1612e6a565b5b021790555060a0820151816005015560c08201518160060160006101000a81548160ff02191690836002811115610f2c57610f2b612e6a565b5b021790555060e082015181600701556101008201518160080160006101000a81548160ff02191690836002811115610f6757610f66612e6a565b5b02179055506101208201518160090155905050600260003373ffffffffffffffffffffffffffffffffffffffff1673ffffffffffffffffffffffffffffffffffffffff16815260200190815260200160002081908060018154018082558091505060019003906000526020600020016000909190919091505560056000815480929190610ff3906139c9565b919050555061101c6040518060600160405280602b815260200161410d602b91398233856124f1565b61109f6040518060400160405280601781526020017f2d205469746c652075726c20202020202020203a20257300000000000000000081525088888080601f016020809104026020016040519081016040528093929190818152602001838380828437600081840152601f19601f82011690508083019250505050505050612593565b6111226040518060400160405280601781526020017f2d204465736372697074696f6e2075726c20203a20257300000000000000000081525086868080601f016020809104026020016040519081016040528093929190818152602001838380828437600081840152601f19601f82011690508083019250505050505050612593565b3373ffffffffffffffffffffffffffffffffffffffff167f42672180e30fb0e2e6ae998046a0806bf23368de710977e1a63920574c378a1c88888888888860405161117296959493929190613cda565b60405180910390a250505050505050565b60606000600260008473ffffffffffffffffffffffffffffffffffffffff1673ffffffffffffffffffffffffffffffffffffffff16815260200190815260200160002080548060200260200160405190810160405280929190818152602001828054801561121057602002820191906000526020600020905b8154815260200190600101908083116111fc575b505050505090506000815167ffffffffffffffff81111561123457611233613761565b5b60405190808252806020026020018201604052801561126d57816020015b61125a612cc5565b8152602001906001900390816112525790505b50905060005b82518110156115325760008084838151811061129257611291613790565b5b6020026020010151815260200190815260200160002060405180610140016040529081600082015481526020016001820160009054906101000a900473ffffffffffffffffffffffffffffffffffffffff1673ffffffffffffffffffffffffffffffffffffffff1673ffffffffffffffffffffffffffffffffffffffff168152602001600282018054611324906137ee565b80601f0160208091040260200160405190810160405280929190818152602001828054611350906137ee565b801561139d5780601f106113725761010080835404028352916020019161139d565b820191906000526020600020905b81548152906001019060200180831161138057829003601f168201915b505050505081526020016003820180546113b6906137ee565b80601f01602080910402602001604051908101604052809291908181526020018280546113e2906137ee565b801561142f5780601f106114045761010080835404028352916020019161142f565b820191906000526020600020905b81548152906001019060200180831161141257829003601f168201915b505050505081526020016004820160009054906101000a900460ff16600d81111561145d5761145c612e6a565b5b600d81111561146f5761146e612e6a565b5b8152602001600582015481526020016006820160009054906101000a900460ff1660028111156114a2576114a1612e6a565b5b60028111156114b4576114b3612e6a565b5b8152602001600782015481526020016008820160009054906101000a900460ff1660028111156114e7576114e6612e6a565b5b60028111156114f9576114f8612e6a565b5b815260200160098201548152505082828151811061151a57611519613790565b5b60200260200101819052508080600101915050611273565b506115576040518060600160405280602d8152602001614232602d9139858451612452565b8092505050919050565b605081565b8a6001600082815260200190815260200160002060010160009054906101000a900460ff16156115cb576040517f08c379a00000000000000000000000000000000000000000000000000000000081526004016115c29061387c565b60405180910390fd5b60011515600160008e815260200190815260200160002060040160003373ffffffffffffffffffffffffffffffffffffffff1673ffffffffffffffffffffffffffffffffffffffff16815260200190815260200160002060009054906101000a900460ff16151514611672576040517f08c379a000000000000000000000000000000000000000000000000000000000815260040161166990613da3565b60405180910390fd5b6000600160008e8152602001908152602001600020905060008160030160003373ffffffffffffffffffffffffffffffffffffffff1673ffffffffffffffffffffffffffffffffffffffff16815260200190815260200160002060020154036116f0578060020160008154809291906116ea906139c9565b91905055505b604051806101a001604052803373ffffffffffffffffffffffffffffffffffffffff1681526020018e81526020014281526020018d600181111561173757611736612e6a565b5b81526020018c600181111561174f5761174e612e6a565b5b81526020018b600181111561176757611766612e6a565b5b81526020018a600181111561177f5761177e612e6a565b5b815260200189600181111561179757611796612e6a565b5b81526020018860018111156117af576117ae612e6a565b5b81526020018760018111156117c7576117c6612e6a565b5b81526020018660028111156117df576117de612e6a565b5b815260200185600d8111156117f7576117f6612e6a565b5b8152602001848152508160030160003373ffffffffffffffffffffffffffffffffffffffff1673ffffffffffffffffffffffffffffffffffffffff16815260200190815260200160002060008201518160000160006101000a81548173ffffffffffffffffffffffffffffffffffffffff021916908373ffffffffffffffffffffffffffffffffffffffff160217905550602082015181600101556040820151816002015560608201518160030160006101000a81548160ff021916908360018111156118c7576118c6612e6a565b5b021790555060808201518160030160016101000a81548160ff021916908360018111156118f7576118f6612e6a565b5b021790555060a08201518160030160026101000a81548160ff0219169083600181111561192757611926612e6a565b5b021790555060c08201518160030160036101000a81548160ff0219169083600181111561195757611956612e6a565b5b021790555060e08201518160030160046101000a81548160ff0219169083600181111561198757611986612e6a565b5b02179055506101008201518160030160056101000a81548160ff021916908360018111156119b8576119b7612e6a565b5b02179055506101208201518160030160066101000a81548160ff021916908360018111156119e9576119e8612e6a565b5b02179055506101408201518160030160076101000a81548160ff02191690836002811115611a1a57611a19612e6a565b5b02179055506101608201518160030160086101000a81548160ff0219169083600d811115611a4b57611a4a612e6a565b5b02179055506101808201518160040155905050611a816040518060600160405280602d8152602001614138602d9139338f612452565b611ad26040518060400160405280600f81526020017f2d2052656c6576616e63653a20257300000000000000000000000000000000008152508d6001811115611acd57611acc612e6a565b5b61262f565b611b236040518060400160405280601b81526020017f2d20546563686e6963616c20636f72726563746e6573733a20257300000000008152508c6001811115611b1e57611b1d612e6a565b5b61262f565b611b746040518060400160405280601281526020017f2d20436f6d706c6574656e6573733a20257300000000000000000000000000008152508b6001811115611b6f57611b6e612e6a565b5b61262f565b611bc56040518060400160405280600d81526020017f2d20436c61726974793a202573000000000000000000000000000000000000008152508a6001811115611bc057611bbf612e6a565b5b61262f565b611c166040518060400160405280601181526020017f2d204f726967696e616c6974793a202573000000000000000000000000000000815250896001811115611c1157611c10612e6a565b5b61262f565b611c676040518060400160405280600e81526020017f2d20556e6269617365643a202573000000000000000000000000000000000000815250886001811115611c6257611c61612e6a565b5b61262f565b611cb86040518060400160405280601581526020017f2d20506c616769617269736d20667265653a2025730000000000000000000000815250876001811115611cb357611cb2612e6a565b5b61262f565b611d096040518060400160405280601a81526020017f2d2053756767657374656420646966666963756c74793a202573000000000000815250866002811115611d0457611d03612e6a565b5b61262f565b611d5a6040518060400160405280601881526020017f2d205375676765737465642063617465676f72793a202573000000000000000081525085600d811115611d5557611d54612e6a565b5b61262f565b611d996040518060400160405280601a81526020017f2d2053756767657374656420736f6c76652074696d653a2025730000000000008152508461262f565b6002816002015410611db057611daf8d826126cb565b5b50505050505050505050505050565b611dc7612cc5565b611dea6040518060600160405280602181526020016141ee602191393384612452565b60008083815260200190815260200160002060405180610140016040529081600082015481526020016001820160009054906101000a900473ffffffffffffffffffffffffffffffffffffffff1673ffffffffffffffffffffffffffffffffffffffff1673ffffffffffffffffffffffffffffffffffffffff168152602001600282018054611e78906137ee565b80601f0160208091040260200160405190810160405280929190818152602001828054611ea4906137ee565b8015611ef15780601f10611ec657610100808354040283529160200191611ef1565b820191906000526020600020905b815481529060010190602001808311611ed457829003601f168201915b50505050508152602001600382018054611f0a906137ee565b80601f0160208091040260200160405190810160405280929190818152602001828054611f36906137ee565b8015611f835780601f10611f5857610100808354040283529160200191611f83565b820191906000526020600020905b815481529060010190602001808311611f6657829003601f168201915b505050505081526020016004820160009054906101000a900460ff16600d811115611fb157611fb0612e6a565b5b600d811115611fc357611fc2612e6a565b5b8152602001600582015481526020016006820160009054906101000a900460ff166002811115611ff657611ff5612e6a565b5b600281111561200857612007612e6a565b5b8152602001600782015481526020016008820160009054906101000a900460ff16600281111561203b5761203a612e6a565b5b600281111561204d5761204c612e6a565b5b81526020016009820154815250509050919050565b600781565b6060600060055467ffffffffffffffff81111561208757612086613761565b5b6040519080825280602002602001820160405280156120c057816020015b6120ad612cc5565b8152602001906001900390816120a55790505b50905060005b6004548110156123bb57600060028111156120e4576120e3612e6a565b5b60008083815260200190815260200160002060060160009054906101000a900460ff16600281111561211957612118612e6a565b5b036123ae5760008082815260200190815260200160002060405180610140016040529081600082015481526020016001820160009054906101000a900473ffffffffffffffffffffffffffffffffffffffff1673ffffffffffffffffffffffffffffffffffffffff1673ffffffffffffffffffffffffffffffffffffffff1681526020016002820180546121ac906137ee565b80601f01602080910402602001604051908101604052809291908181526020018280546121d8906137ee565b80156122255780601f106121fa57610100808354040283529160200191612225565b820191906000526020600020905b81548152906001019060200180831161220857829003601f168201915b5050505050815260200160038201805461223e906137ee565b80601f016020809104026020016040519081016040528092919081815260200182805461226a906137ee565b80156122b75780601f1061228c576101008083540402835291602001916122b7565b820191906000526020600020905b81548152906001019060200180831161229a57829003601f168201915b505050505081526020016004820160009054906101000a900460ff16600d8111156122e5576122e4612e6a565b5b600d8111156122f7576122f6612e6a565b5b8152602001600582015481526020016006820160009054906101000a900460ff16600281111561232a57612329612e6a565b5b600281111561233c5761233b612e6a565b5b8152602001600782015481526020016008820160009054906101000a900460ff16600281111561236f5761236e612e6a565b5b600281111561238157612380612e6a565b5b81526020016009820154815250508282815181106123a2576123a1613790565b5b60200260200101819052505b80806001019150506120c6565b506123e06040518060600160405280603381526020016141bb60339139338351612452565b8091505090565b60006001600084815260200190815260200160002060040160008373ffffffffffffffffffffffffffffffffffffffff1673ffffffffffffffffffffffffffffffffffffffff16815260200190815260200160002060009054906101000a900460ff16905092915050565b6124ec83838360405160240161246a93929190613e0b565b6040516020818303038152906040527f0d26b925000000000000000000000000000000000000000000000000000000007bffffffffffffffffffffffffffffffffffffffffffffffffffffffff19166020820180517bffffffffffffffffffffffffffffffffffffffffffffffffffffffff8381831617835250505050612ac0565b505050565b61258d8484848460405160240161250b9493929190613e49565b6040516020818303038152906040527f4f04fdc6000000000000000000000000000000000000000000000000000000007bffffffffffffffffffffffffffffffffffffffffffffffffffffffff19166020820180517bffffffffffffffffffffffffffffffffffffffffffffffffffffffff8381831617835250505050612ac0565b50505050565b61262b82826040516024016125a9929190613e95565b6040516020818303038152906040527f4b5c4277000000000000000000000000000000000000000000000000000000007bffffffffffffffffffffffffffffffffffffffffffffffffffffffff19166020820180517bffffffffffffffffffffffffffffffffffffffffffffffffffffffff8381831617835250505050612ac0565b5050565b6126c78282604051602401612645929190613ecc565b6040516020818303038152906040527fb60e72cc000000000000000000000000000000000000000000000000000000007bffffffffffffffffffffffffffffffffffffffffffffffffffffffff19166020820180517bffffffffffffffffffffffffffffffffffffffffffffffffffffffff8381831617835250505050612ac0565b5050565b8060010160009054906101000a900460ff161561271d576040517f08c379a000000000000000000000000000000000000000000000000000000000815260040161271490613f48565b60405180910390fd5b6000805b826000018054905081101561290857600083600301600085600001848154811061274e5761274d613790565b5b9060005260206000200160009054906101000a900473ffffffffffffffffffffffffffffffffffffffff1673ffffffffffffffffffffffffffffffffffffffff1673ffffffffffffffffffffffffffffffffffffffff16815260200190815260200160002090508060030160069054906101000a900460ff1660018111156127d9576127d8612e6a565b5b8160030160059054906101000a900460ff1660018111156127fd576127fc612e6a565b5b8260030160049054906101000a900460ff16600181111561282157612820612e6a565b5b8360030160039054906101000a900460ff16600181111561284557612844612e6a565b5b8460030160029054906101000a900460ff16600181111561286957612868612e6a565b5b8560030160019054906101000a900460ff16600181111561288d5761288c612e6a565b5b8660030160009054906101000a900460ff1660018111156128b1576128b0612e6a565b5b6128bb9190613f68565b6128c59190613f68565b6128cf9190613f68565b6128d99190613f68565b6128e39190613f68565b6128ed9190613f68565b836128f89190613f68565b9250508080600101915050612721565b5060008260020154600761291c9190613f9c565b6064836129299190613f9c565b612933919061400d565b905061295860405180606001604052806023815260200161420f602391398583612ada565b605081106129bb57600160008086815260200190815260200160002060060160006101000a81548160ff0219169083600281111561299957612998612e6a565b5b0217905550600560008154809291906129b19061403e565b9190505550612a12565b600260008086815260200190815260200160002060060160006101000a81548160ff021916908360028111156129f4576129f3612e6a565b5b021790555060056000815480929190612a0c9061403e565b91905055505b806000808681526020019081526020016000206007018190555060018360010160006101000a81548160ff021916908315150217905550837f1a20d608d2289bdfc4581c5a0722f4636bd21c1610f2485c20a4b20fd1f57a5360008087815260200190815260200160002060060160009054906101000a900460ff1660008088815260200190815260200160002060070154604051612ab2929190614076565b60405180910390a250505050565b612ad781612acf612b79612b9a565b63ffffffff16565b50565b612b74838383604051602401612af29392919061409f565b6040516020818303038152906040527fca47c4eb000000000000000000000000000000000000000000000000000000007bffffffffffffffffffffffffffffffffffffffffffffffffffffffff19166020820180517bffffffffffffffffffffffffffffffffffffffffffffffffffffffff8381831617835250505050612ac0565b505050565b60006a636f6e736f6c652e6c6f679050600080835160208501845afa505050565b612d64819050919050565b604051806101a00160405280600073ffffffffffffffffffffffffffffffffffffffff168152602001600081526020016000815260200160006001811115612bf057612bef612e6a565b5b815260200160006001811115612c0957612c08612e6a565b5b815260200160006001811115612c2257612c21612e6a565b5b815260200160006001811115612c3b57612c3a612e6a565b5b815260200160006001811115612c5457612c53612e6a565b5b815260200160006001811115612c6d57612c6c612e6a565b5b815260200160006001811115612c8657612c85612e6a565b5b815260200160006002811115612c9f57612c9e612e6a565b5b81526020016000600d811115612cb857612cb7612e6a565b5b8152602001600081525090565b60405180610140016040528060008152602001600073ffffffffffffffffffffffffffffffffffffffff16815260200160608152602001606081526020016000600d811115612d1757612d16612e6a565b5b81526020016000815260200160006002811115612d3757612d36612e6a565b5b81526020016000815260200160006002811115612d5757612d56612e6a565b5b8152602001600081525090565b612d6c6140dd565b565b600080fd5b600080fd5b6000819050919050565b612d8b81612d78565b8114612d9657600080fd5b50565b600081359050612da881612d82565b92915050565b600073ffffffffffffffffffffffffffffffffffffffff82169050919050565b6000612dd982612dae565b9050919050565b612de981612dce565b8114612df457600080fd5b50565b600081359050612e0681612de0565b92915050565b60008060408385031215612e2357612e22612d6e565b5b6000612e3185828601612d99565b9250506020612e4285828601612df7565b9150509250929050565b612e5581612dce565b82525050565b612e6481612d78565b82525050565b7f4e487b7100000000000000000000000000000000000000000000000000000000600052602160045260246000fd5b60028110612eaa57612ea9612e6a565b5b50565b6000819050612ebb82612e99565b919050565b6000612ecb82612ead565b9050919050565b612edb81612ec0565b82525050565b60038110612ef257612ef1612e6a565b5b50565b6000819050612f0382612ee1565b919050565b6000612f1382612ef5565b9050919050565b612f2381612f08565b82525050565b600e8110612f3a57612f39612e6a565b5b50565b6000819050612f4b82612f29565b919050565b6000612f5b82612f3d565b9050919050565b612f6b81612f50565b82525050565b6101a082016000820151612f886000850182612e4c565b506020820151612f9b6020850182612e5b565b506040820151612fae6040850182612e5b565b506060820151612fc16060850182612ed2565b506080820151612fd46080850182612ed2565b5060a0820151612fe760a0850182612ed2565b5060c0820151612ffa60c0850182612ed2565b5060e082015161300d60e0850182612ed2565b50610100820151613022610100850182612ed2565b50610120820151613037610120850182612ed2565b5061014082015161304c610140850182612f1a565b50610160820151613061610160850182612f62565b50610180820151613076610180850182612e5b565b50505050565b60006101a0820190506130926000830184612f71565b92915050565b6130a181612d78565b82525050565b60006020820190506130bc6000830184613098565b92915050565b6000602082840312156130d8576130d7612d6e565b5b60006130e684828501612df7565b91505092915050565b600081519050919050565b600082825260208201905092915050565b6000819050602082019050919050565b600081519050919050565b600082825260208201905092915050565b60005b8381101561315557808201518184015260208101905061313a565b60008484015250505050565b6000601f19601f8301169050919050565b600061317d8261311b565b6131878185613126565b9350613197818560208601613137565b6131a081613161565b840191505092915050565b600381106131bc576131bb612e6a565b5b50565b60008190506131cd826131ab565b919050565b60006131dd826131bf565b9050919050565b6131ed816131d2565b82525050565b60006101408301600083015161320c6000860182612e5b565b50602083015161321f6020860182612e4c565b50604083015184820360408601526132378282613172565b915050606083015184820360608601526132518282613172565b91505060808301516132666080860182612f62565b5060a083015161327960a0860182612e5b565b5060c083015161328c60c08601826131e4565b5060e083015161329f60e0860182612e5b565b506101008301516132b4610100860182612f1a565b506101208301516132c9610120860182612e5b565b508091505092915050565b60006132e083836131f3565b905092915050565b6000602082019050919050565b6000613300826130ef565b61330a81856130fa565b93508360208202850161331c8561310b565b8060005b85811015613358578484038952815161333985826132d4565b9450613344836132e8565b925060208a01995050600181019050613320565b50829750879550505050505092915050565b6000602082019050818103600083015261338481846132f5565b905092915050565b6000602082840312156133a2576133a1612d6e565b5b60006133b084828501612d99565b91505092915050565b600080fd5b600080fd5b600080fd5b60008083601f8401126133de576133dd6133b9565b5b8235905067ffffffffffffffff8111156133fb576133fa6133be565b5b602083019150836001820283011115613417576134166133c3565b5b9250929050565b600e811061342b57600080fd5b50565b60008135905061343d8161341e565b92915050565b600080600080600080608087890312156134605761345f612d6e565b5b600087013567ffffffffffffffff81111561347e5761347d612d73565b5b61348a89828a016133c8565b9650965050602087013567ffffffffffffffff8111156134ad576134ac612d73565b5b6134b989828a016133c8565b945094505060406134cc89828a0161342e565b92505060606134dd89828a01612d99565b9150509295509295509295565b600281106134f757600080fd5b50565b600081359050613509816134ea565b92915050565b6003811061351c57600080fd5b50565b60008135905061352e8161350f565b92915050565b60008060008060008060008060008060006101608c8e03121561355a57613559612d6e565b5b60006135688e828f01612d99565b9b505060206135798e828f016134fa565b9a5050604061358a8e828f016134fa565b995050606061359b8e828f016134fa565b98505060806135ac8e828f016134fa565b97505060a06135bd8e828f016134fa565b96505060c06135ce8e828f016134fa565b95505060e06135df8e828f016134fa565b9450506101006135f18e828f0161351f565b9350506101206136038e828f0161342e565b9250506101406136158e828f01612d99565b9150509295989b509295989b9093969950565b6000610140830160008301516136416000860182612e5b565b5060208301516136546020860182612e4c565b506040830151848203604086015261366c8282613172565b915050606083015184820360608601526136868282613172565b915050608083015161369b6080860182612f62565b5060a08301516136ae60a0860182612e5b565b5060c08301516136c160c08601826131e4565b5060e08301516136d460e0860182612e5b565b506101008301516136e9610100860182612f1a565b506101208301516136fe610120860182612e5b565b508091505092915050565b600060208201905081810360008301526137238184613628565b905092915050565b60008115159050919050565b6137408161372b565b82525050565b600060208201905061375b6000830184613737565b92915050565b7f4e487b7100000000000000000000000000000000000000000000000000000000600052604160045260246000fd5b7f4e487b7100000000000000000000000000000000000000000000000000000000600052603260045260246000fd5b7f4e487b7100000000000000000000000000000000000000000000000000000000600052602260045260246000fd5b6000600282049050600182168061380657607f821691505b602082108103613819576138186137bf565b5b50919050565b600082825260208201905092915050565b7f4368616c6c656e676520616c72656164792066696e616c697365640000000000600082015250565b6000613866601b8361381f565b915061387182613830565b602082019050919050565b6000602082019050818103600083015261389581613859565b9050919050565b7f4d6178206d6f64657261746f7273207265616368656400000000000000000000600082015250565b60006138d260168361381f565b91506138dd8261389c565b602082019050919050565b60006020820190508181036000830152613901816138c5565b9050919050565b7f596f75206861766520616c7265616479206a6f696e656420746869732072657660008201527f69657720706f6f6c2e0000000000000000000000000000000000000000000000602082015250565b600061396460298361381f565b915061396f82613908565b604082019050919050565b6000602082019050818103600083015261399381613957565b9050919050565b7f4e487b7100000000000000000000000000000000000000000000000000000000600052601160045260246000fd5b60006139d482612d78565b91507fffffffffffffffffffffffffffffffffffffffffffffffffffffffffffffffff8203613a0657613a0561399a565b5b600182019050919050565b60008190508160005260206000209050919050565b60006020601f8301049050919050565b600082821b905092915050565b600060088302613a737fffffffffffffffffffffffffffffffffffffffffffffffffffffffffffffffff82613a36565b613a7d8683613a36565b95508019841693508086168417925050509392505050565b6000819050919050565b6000613aba613ab5613ab084612d78565b613a95565b612d78565b9050919050565b6000819050919050565b613ad483613a9f565b613ae8613ae082613ac1565b848454613a43565b825550505050565b600090565b613afd613af0565b613b08818484613acb565b505050565b5b81811015613b2c57613b21600082613af5565b600181019050613b0e565b5050565b601f821115613b7157613b4281613a11565b613b4b84613a26565b81016020851015613b5a578190505b613b6e613b6685613a26565b830182613b0d565b50505b505050565b600082821c905092915050565b6000613b9460001984600802613b76565b1980831691505092915050565b6000613bad8383613b83565b9150826002028217905092915050565b613bc68261311b565b67ffffffffffffffff811115613bdf57613bde613761565b5b613be982546137ee565b613bf4828285613b30565b600060209050601f831160018114613c275760008415613c15578287015190505b613c1f8582613ba1565b865550613c87565b601f198416613c3586613a11565b60005b82811015613c5d57848901518255600182019150602085019450602081019050613c38565b86831015613c7a5784890151613c76601f891682613b83565b8355505b6001600288020188555050505b505050505050565b82818337600083830152505050565b6000613caa838561381f565b9350613cb7838584613c8f565b613cc083613161565b840190509392505050565b613cd481612f50565b82525050565b60006080820190508181036000830152613cf581888a613c9e565b90508181036020830152613d0a818688613c9e565b9050613d196040830185613ccb565b613d266060830184613098565b979650505050505050565b7f596f752068617665206e6f74206a6f696e65642074686973207265766965772060008201527f706f6f6c2e000000000000000000000000000000000000000000000000000000602082015250565b6000613d8d60258361381f565b9150613d9882613d31565b604082019050919050565b60006020820190508181036000830152613dbc81613d80565b9050919050565b6000613dce8261311b565b613dd8818561381f565b9350613de8818560208601613137565b613df181613161565b840191505092915050565b613e0581612dce565b82525050565b60006060820190508181036000830152613e258186613dc3565b9050613e346020830185613dfc565b613e416040830184613098565b949350505050565b60006080820190508181036000830152613e638187613dc3565b9050613e726020830186613098565b613e7f6040830185613dfc565b613e8c6060830184613098565b95945050505050565b60006040820190508181036000830152613eaf8185613dc3565b90508181036020830152613ec38184613dc3565b90509392505050565b60006040820190508181036000830152613ee68185613dc3565b9050613ef56020830184613098565b9392505050565b7f4368616c6c656e676520616c72656164792066696e616c697a65640000000000600082015250565b6000613f32601b8361381f565b9150613f3d82613efc565b602082019050919050565b60006020820190508181036000830152613f6181613f25565b9050919050565b6000613f7382612d78565b9150613f7e83612d78565b9250828201905080821115613f9657613f9561399a565b5b92915050565b6000613fa782612d78565b9150613fb283612d78565b9250828202613fc081612d78565b91508282048414831517613fd757613fd661399a565b5b5092915050565b7f4e487b7100000000000000000000000000000000000000000000000000000000600052601260045260246000fd5b600061401882612d78565b915061402383612d78565b92508261403357614032613fde565b5b828204905092915050565b600061404982612d78565b91506000820361405c5761405b61399a565b5b600182039050919050565b614070816131d2565b82525050565b600060408201905061408b6000830185614067565b6140986020830184613098565b9392505050565b600060608201905081810360008301526140b98186613dc3565b90506140c86020830185613098565b6140d56040830184613098565b949350505050565b7f4e487b7100000000000000000000000000000000000000000000000000000000600052605160045260246000fdfe4368616c6c656e67652023257320636f6e747269627574656420627920257320617420257320776974683a4d6f64657261746f7220257320757064617465642072657669657720666f72206368616c6c656e67652023257355736572202573206861642066657463686564202573206d6f64657261746564206368616c6c656e6765735573657220257320686164206665746368656420726576696577206f66206368616c6c656e67652023257355736572202573206861642066657463682025732070656e64696e6720636f6e7472696275746564206368616c6c656e67657355736572202573206861642066657463686564206368616c6c656e676520232573417665726167652073636f726520666f72206368616c6c656e6765202325733a2025735573657220257320686164206665746368656420257320636f6e7472696275746564206368616c6c656e6765734d6f64657261746f72202573206a6f696e65642072657669657720706f6f6c20666f72206368616c6c656e676520232573a26469706673582212202167b66b482b2972338a44adfce42459f671fd118b1fa254498b45097d5f0b5464736f6c634300081c0033",
  "linkReferences": {},
  "deployedLinkReferences": {}
}