{
  "_format": "hh-sol-artifact-1",
  "contractName": "ChallengeManager",
  "sourceName": "contracts/ChallengeManager.sol",
  "abi": [
    {
      "anonymous": false,
      "inputs": [
        {
          "indexed": true,
          "internalType": "address",
          "name": "contributor",
          "type": "address"
        },
        {
          "indexed": false,
          "internalType": "string",
          "name": "titleUrl",
          "type": "string"
        },
        {
          "indexed": false,
          "internalType": "string",
          "name": "descriptionUrl",
          "type": "string"
        },
        {
          "indexed": false,
          "internalType": "string",
          "name": "category",
          "type": "string"
        },
        {
          "indexed": false,
          "internalType": "string",
          "name": "contributeAt",
          "type": "string"
        }
      ],
      "name": "ChallengeContributed",
      "type": "event"
    },
    {
      "inputs": [
        {
          "internalType": "uint256",
          "name": "",
          "type": "uint256"
        }
      ],
      "name": "challenges",
      "outputs": [
        {
          "internalType": "address",
          "name": "contributor",
          "type": "address"
        },
        {
          "internalType": "string",
          "name": "titleUrl",
          "type": "string"
        },
        {
          "internalType": "string",
          "name": "descriptionUrl",
          "type": "string"
        },
        {
          "internalType": "string",
          "name": "category",
          "type": "string"
        },
        {
          "internalType": "string",
          "name": "contributeAt",
          "type": "string"
        },
        {
          "internalType": "enum ChallengeManager.ChallengeStatus",
          "name": "status",
          "type": "uint8"
        }
      ],
      "stateMutability": "view",
      "type": "function"
    },
    {
      "inputs": [
        {
          "internalType": "string",
          "name": "titleUrl",
          "type": "string"
        },
        {
          "internalType": "string",
          "name": "descriptionUrl",
          "type": "string"
        },
        {
          "internalType": "string",
          "name": "category",
          "type": "string"
        },
        {
          "internalType": "string",
          "name": "contributeAt",
          "type": "string"
        }
      ],
      "name": "contributeChallenge",
      "outputs": [],
      "stateMutability": "nonpayable",
      "type": "function"
    },
    {
      "inputs": [
        {
          "internalType": "address",
          "name": "",
          "type": "address"
        },
        {
          "internalType": "uint256",
          "name": "",
          "type": "uint256"
        }
      ],
      "name": "contributorToChallenges",
      "outputs": [
        {
          "internalType": "uint256",
          "name": "",
          "type": "uint256"
        }
      ],
      "stateMutability": "view",
      "type": "function"
    },
    {
      "inputs": [
        {
          "internalType": "address",
          "name": "contributor_address",
          "type": "address"
        }
      ],
      "name": "getChallengesByContributor",
      "outputs": [
        {
          "components": [
            {
              "internalType": "address",
              "name": "contributor",
              "type": "address"
            },
            {
              "internalType": "string",
              "name": "titleUrl",
              "type": "string"
            },
            {
              "internalType": "string",
              "name": "descriptionUrl",
              "type": "string"
            },
            {
              "internalType": "string",
              "name": "category",
              "type": "string"
            },
            {
              "internalType": "string",
              "name": "contributeAt",
              "type": "string"
            },
            {
              "internalType": "enum ChallengeManager.ChallengeStatus",
              "name": "status",
              "type": "uint8"
            }
          ],
          "internalType": "struct ChallengeManager.Challenge[]",
          "name": "",
          "type": "tuple[]"
        }
      ],
      "stateMutability": "view",
      "type": "function"
    },
    {
      "inputs": [],
      "name": "getPendingChallenges",
      "outputs": [
        {
          "components": [
            {
              "internalType": "address",
              "name": "contributor",
              "type": "address"
            },
            {
              "internalType": "string",
              "name": "titleUrl",
              "type": "string"
            },
            {
              "internalType": "string",
              "name": "descriptionUrl",
              "type": "string"
            },
            {
              "internalType": "string",
              "name": "category",
              "type": "string"
            },
            {
              "internalType": "string",
              "name": "contributeAt",
              "type": "string"
            },
            {
              "internalType": "enum ChallengeManager.ChallengeStatus",
              "name": "status",
              "type": "uint8"
            }
          ],
          "internalType": "struct ChallengeManager.Challenge[]",
          "name": "",
          "type": "tuple[]"
        }
      ],
      "stateMutability": "view",
      "type": "function"
    },
    {
      "inputs": [],
      "name": "pendingChallenges",
      "outputs": [
        {
          "internalType": "uint256",
          "name": "",
          "type": "uint256"
        }
      ],
      "stateMutability": "view",
      "type": "function"
    },
    {
      "inputs": [],
      "name": "totalChallenges",
      "outputs": [
        {
          "internalType": "uint256",
          "name": "",
          "type": "uint256"
        }
      ],
      "stateMutability": "view",
      "type": "function"
    }
  ],
  "bytecode": "0x608060405260006001556000600255348015601957600080fd5b50611f7f806100296000396000f3fe608060405234801561001057600080fd5b506004361061007d5760003560e01c8063b8c072e31161005b578063b8c072e314610117578063be21f20c14610135578063c69661df14610153578063d17defcb1461016f5761007d565b8063616e2e56146100825780638f1d3776146100b2578063a4bee171146100e7575b600080fd5b61009c600480360381019061009791906113fa565b61018d565b6040516100a9919061169d565b60405180910390f35b6100cc60048036038101906100c791906116f5565b6105f0565b6040516100de9695949392919061178a565b60405180910390f35b61010160048036038101906100fc9190611807565b610879565b60405161010e9190611856565b60405180910390f35b61011f6108aa565b60405161012c9190611856565b60405180910390f35b61013d6108b0565b60405161014a919061169d565b60405180910390f35b61016d600480360381019061016891906118d6565b610c91565b005b610177611104565b6040516101849190611856565b60405180910390f35b60606000600360008473ffffffffffffffffffffffffffffffffffffffff1673ffffffffffffffffffffffffffffffffffffffff16815260200190815260200160002080548060200260200160405190810160405280929190818152602001828054801561021a57602002820191906000526020600020905b815481526020019060010190808311610206575b505050505090506000815167ffffffffffffffff81111561023e5761023d6119bf565b5b60405190808252806020026020018201604052801561027757816020015b61026461132a565b81526020019060019003908161025c5790505b50905060005b82518110156105c15760008084838151811061029c5761029b6119ee565b5b602002602001015181526020019081526020016000206040518060c00160405290816000820160009054906101000a900473ffffffffffffffffffffffffffffffffffffffff1673ffffffffffffffffffffffffffffffffffffffff1673ffffffffffffffffffffffffffffffffffffffff16815260200160018201805461032390611a4c565b80601f016020809104026020016040519081016040528092919081815260200182805461034f90611a4c565b801561039c5780601f106103715761010080835404028352916020019161039c565b820191906000526020600020905b81548152906001019060200180831161037f57829003601f168201915b505050505081526020016002820180546103b590611a4c565b80601f01602080910402602001604051908101604052809291908181526020018280546103e190611a4c565b801561042e5780601f106104035761010080835404028352916020019161042e565b820191906000526020600020905b81548152906001019060200180831161041157829003601f168201915b5050505050815260200160038201805461044790611a4c565b80601f016020809104026020016040519081016040528092919081815260200182805461047390611a4c565b80156104c05780601f10610495576101008083540402835291602001916104c0565b820191906000526020600020905b8154815290600101906020018083116104a357829003601f168201915b505050505081526020016004820180546104d990611a4c565b80601f016020809104026020016040519081016040528092919081815260200182805461050590611a4c565b80156105525780601f1061052757610100808354040283529160200191610552565b820191906000526020600020905b81548152906001019060200180831161053557829003601f168201915b505050505081526020016005820160009054906101000a900460ff1660028111156105805761057f6114f2565b5b6002811115610592576105916114f2565b5b815250508282815181106105a9576105a86119ee565b5b6020026020010181905250808060010191505061027d565b506105e66040518060600160405280602b8152602001611f1f602b913985845161110a565b8092505050919050565b60006020528060005260406000206000915090508060000160009054906101000a900473ffffffffffffffffffffffffffffffffffffffff169080600101805461063990611a4c565b80601f016020809104026020016040519081016040528092919081815260200182805461066590611a4c565b80156106b25780601f10610687576101008083540402835291602001916106b2565b820191906000526020600020905b81548152906001019060200180831161069557829003601f168201915b5050505050908060020180546106c790611a4c565b80601f01602080910402602001604051908101604052809291908181526020018280546106f390611a4c565b80156107405780601f1061071557610100808354040283529160200191610740565b820191906000526020600020905b81548152906001019060200180831161072357829003601f168201915b50505050509080600301805461075590611a4c565b80601f016020809104026020016040519081016040528092919081815260200182805461078190611a4c565b80156107ce5780601f106107a3576101008083540402835291602001916107ce565b820191906000526020600020905b8154815290600101906020018083116107b157829003601f168201915b5050505050908060040180546107e390611a4c565b80601f016020809104026020016040519081016040528092919081815260200182805461080f90611a4c565b801561085c5780601f106108315761010080835404028352916020019161085c565b820191906000526020600020905b81548152906001019060200180831161083f57829003601f168201915b5050505050908060050160009054906101000a900460ff16905086565b6003602052816000526040600020818154811061089557600080fd5b90600052602060002001600091509150505481565b60025481565b6060600060025467ffffffffffffffff8111156108d0576108cf6119bf565b5b60405190808252806020026020018201604052801561090957816020015b6108f661132a565b8152602001906001900390816108ee5790505b50905060005b600154811015610c89576000600281111561092d5761092c6114f2565b5b60008083815260200190815260200160002060050160009054906101000a900460ff166002811115610962576109616114f2565b5b03610c7c576000808281526020019081526020016000206040518060c00160405290816000820160009054906101000a900473ffffffffffffffffffffffffffffffffffffffff1673ffffffffffffffffffffffffffffffffffffffff1673ffffffffffffffffffffffffffffffffffffffff1681526020016001820180546109ea90611a4c565b80601f0160208091040260200160405190810160405280929190818152602001828054610a1690611a4c565b8015610a635780601f10610a3857610100808354040283529160200191610a63565b820191906000526020600020905b815481529060010190602001808311610a4657829003601f168201915b50505050508152602001600282018054610a7c90611a4c565b80601f0160208091040260200160405190810160405280929190818152602001828054610aa890611a4c565b8015610af55780601f10610aca57610100808354040283529160200191610af5565b820191906000526020600020905b815481529060010190602001808311610ad857829003601f168201915b50505050508152602001600382018054610b0e90611a4c565b80601f0160208091040260200160405190810160405280929190818152602001828054610b3a90611a4c565b8015610b875780601f10610b5c57610100808354040283529160200191610b87565b820191906000526020600020905b815481529060010190602001808311610b6a57829003601f168201915b50505050508152602001600482018054610ba090611a4c565b80601f0160208091040260200160405190810160405280929190818152602001828054610bcc90611a4c565b8015610c195780601f10610bee57610100808354040283529160200191610c19565b820191906000526020600020905b815481529060010190602001808311610bfc57829003601f168201915b505050505081526020016005820160009054906101000a900460ff166002811115610c4757610c466114f2565b5b6002811115610c5957610c586114f2565b5b81525050828281518110610c7057610c6f6119ee565b5b60200260200101819052505b808060010191505061090f565b508091505090565b600060016000815480929190610ca690611aac565b9190505590506040518060c001604052803373ffffffffffffffffffffffffffffffffffffffff1681526020018a8a8080601f016020809104026020016040519081016040528093929190818152602001838380828437600081840152601f19601f82011690508083019250505050505050815260200188888080601f016020809104026020016040519081016040528093929190818152602001838380828437600081840152601f19601f82011690508083019250505050505050815260200186868080601f016020809104026020016040519081016040528093929190818152602001838380828437600081840152601f19601f82011690508083019250505050505050815260200184848080601f016020809104026020016040519081016040528093929190818152602001838380828437600081840152601f19601f82011690508083019250505050505050815260200160006002811115610e0f57610e0e6114f2565b5b81525060008083815260200190815260200160002060008201518160000160006101000a81548173ffffffffffffffffffffffffffffffffffffffff021916908373ffffffffffffffffffffffffffffffffffffffff1602179055506020820151816001019081610e809190611ca0565b506040820151816002019081610e969190611ca0565b506060820151816003019081610eac9190611ca0565b506080820151816004019081610ec29190611ca0565b5060a08201518160050160006101000a81548160ff02191690836002811115610eee57610eed6114f2565b5b0217905550905050600360003373ffffffffffffffffffffffffffffffffffffffff1673ffffffffffffffffffffffffffffffffffffffff16815260200190815260200160002081908060018154018082558091505060019003906000526020600020016000909190919091505560026000815480929190610f6f90611aac565b9190505550610f97604051806060016040528060258152602001611efa6025913982336111a9565b61101a6040518060400160405280601781526020017f2d205469746c652075726c20202020202020203a2025730000000000000000008152508a8a8080601f016020809104026020016040519081016040528093929190818152602001838380828437600081840152601f19601f82011690508083019250505050505050611248565b61109d6040518060400160405280601781526020017f2d204465736372697074696f6e2075726c20203a20257300000000000000000081525088888080601f016020809104026020016040519081016040528093929190818152602001838380828437600081840152601f19601f82011690508083019250505050505050611248565b3373ffffffffffffffffffffffffffffffffffffffff167f67752ffa06a2c659d7c34770a5a08f56fabebf759881e14142eaa046bab2f8c58a8a8a8a8a8a8a8a6040516110f1989796959493929190611dae565b60405180910390a2505050505050505050565b60015481565b6111a483838360405160240161112293929190611e17565b6040516020818303038152906040527f0d26b925000000000000000000000000000000000000000000000000000000007bffffffffffffffffffffffffffffffffffffffffffffffffffffffff19166020820180517bffffffffffffffffffffffffffffffffffffffffffffffffffffffff83818316178352505050506112e4565b505050565b6112438383836040516024016111c193929190611e55565b6040516020818303038152906040527f1c7ec448000000000000000000000000000000000000000000000000000000007bffffffffffffffffffffffffffffffffffffffffffffffffffffffff19166020820180517bffffffffffffffffffffffffffffffffffffffffffffffffffffffff83818316178352505050506112e4565b505050565b6112e0828260405160240161125e929190611e93565b6040516020818303038152906040527f4b5c4277000000000000000000000000000000000000000000000000000000007bffffffffffffffffffffffffffffffffffffffffffffffffffffffff19166020820180517bffffffffffffffffffffffffffffffffffffffffffffffffffffffff83818316178352505050506112e4565b5050565b6112fb816112f36112fe61131f565b63ffffffff16565b50565b60006a636f6e736f6c652e6c6f679050600080835160208501845afa505050565b611388819050919050565b6040518060c00160405280600073ffffffffffffffffffffffffffffffffffffffff1681526020016060815260200160608152602001606081526020016060815260200160006002811115611382576113816114f2565b5b81525090565b611390611eca565b565b600080fd5b600080fd5b600073ffffffffffffffffffffffffffffffffffffffff82169050919050565b60006113c78261139c565b9050919050565b6113d7816113bc565b81146113e257600080fd5b50565b6000813590506113f4816113ce565b92915050565b6000602082840312156114105761140f611392565b5b600061141e848285016113e5565b91505092915050565b600081519050919050565b600082825260208201905092915050565b6000819050602082019050919050565b61145c816113bc565b82525050565b600081519050919050565b600082825260208201905092915050565b60005b8381101561149c578082015181840152602081019050611481565b60008484015250505050565b6000601f19601f8301169050919050565b60006114c482611462565b6114ce818561146d565b93506114de81856020860161147e565b6114e7816114a8565b840191505092915050565b7f4e487b7100000000000000000000000000000000000000000000000000000000600052602160045260246000fd5b60038110611532576115316114f2565b5b50565b600081905061154382611521565b919050565b600061155382611535565b9050919050565b61156381611548565b82525050565b600060c0830160008301516115816000860182611453565b506020830151848203602086015261159982826114b9565b915050604083015184820360408601526115b382826114b9565b915050606083015184820360608601526115cd82826114b9565b915050608083015184820360808601526115e782826114b9565b91505060a08301516115fc60a086018261155a565b508091505092915050565b60006116138383611569565b905092915050565b6000602082019050919050565b600061163382611427565b61163d8185611432565b93508360208202850161164f85611443565b8060005b8581101561168b578484038952815161166c8582611607565b94506116778361161b565b925060208a01995050600181019050611653565b50829750879550505050505092915050565b600060208201905081810360008301526116b78184611628565b905092915050565b6000819050919050565b6116d2816116bf565b81146116dd57600080fd5b50565b6000813590506116ef816116c9565b92915050565b60006020828403121561170b5761170a611392565b5b6000611719848285016116e0565b91505092915050565b61172b816113bc565b82525050565b600082825260208201905092915050565b600061174d82611462565b6117578185611731565b935061176781856020860161147e565b611770816114a8565b840191505092915050565b61178481611548565b82525050565b600060c08201905061179f6000830189611722565b81810360208301526117b18188611742565b905081810360408301526117c58187611742565b905081810360608301526117d98186611742565b905081810360808301526117ed8185611742565b90506117fc60a083018461177b565b979650505050505050565b6000806040838503121561181e5761181d611392565b5b600061182c858286016113e5565b925050602061183d858286016116e0565b9150509250929050565b611850816116bf565b82525050565b600060208201905061186b6000830184611847565b92915050565b600080fd5b600080fd5b600080fd5b60008083601f84011261189657611895611871565b5b8235905067ffffffffffffffff8111156118b3576118b2611876565b5b6020830191508360018202830111156118cf576118ce61187b565b5b9250929050565b6000806000806000806000806080898b0312156118f6576118f5611392565b5b600089013567ffffffffffffffff81111561191457611913611397565b5b6119208b828c01611880565b9850985050602089013567ffffffffffffffff81111561194357611942611397565b5b61194f8b828c01611880565b9650965050604089013567ffffffffffffffff81111561197257611971611397565b5b61197e8b828c01611880565b9450945050606089013567ffffffffffffffff8111156119a1576119a0611397565b5b6119ad8b828c01611880565b92509250509295985092959890939650565b7f4e487b7100000000000000000000000000000000000000000000000000000000600052604160045260246000fd5b7f4e487b7100000000000000000000000000000000000000000000000000000000600052603260045260246000fd5b7f4e487b7100000000000000000000000000000000000000000000000000000000600052602260045260246000fd5b60006002820490506001821680611a6457607f821691505b602082108103611a7757611a76611a1d565b5b50919050565b7f4e487b7100000000000000000000000000000000000000000000000000000000600052601160045260246000fd5b6000611ab7826116bf565b91507fffffffffffffffffffffffffffffffffffffffffffffffffffffffffffffffff8203611ae957611ae8611a7d565b5b600182019050919050565b60008190508160005260206000209050919050565b60006020601f8301049050919050565b600082821b905092915050565b600060088302611b567fffffffffffffffffffffffffffffffffffffffffffffffffffffffffffffffff82611b19565b611b608683611b19565b95508019841693508086168417925050509392505050565b6000819050919050565b6000611b9d611b98611b93846116bf565b611b78565b6116bf565b9050919050565b6000819050919050565b611bb783611b82565b611bcb611bc382611ba4565b848454611b26565b825550505050565b600090565b611be0611bd3565b611beb818484611bae565b505050565b5b81811015611c0f57611c04600082611bd8565b600181019050611bf1565b5050565b601f821115611c5457611c2581611af4565b611c2e84611b09565b81016020851015611c3d578190505b611c51611c4985611b09565b830182611bf0565b50505b505050565b600082821c905092915050565b6000611c7760001984600802611c59565b1980831691505092915050565b6000611c908383611c66565b9150826002028217905092915050565b611ca982611462565b67ffffffffffffffff811115611cc257611cc16119bf565b5b611ccc8254611a4c565b611cd7828285611c13565b600060209050601f831160018114611d0a5760008415611cf8578287015190505b611d028582611c84565b865550611d6a565b601f198416611d1886611af4565b60005b82811015611d4057848901518255600182019150602085019450602081019050611d1b565b86831015611d5d5784890151611d59601f891682611c66565b8355505b6001600288020188555050505b505050505050565b82818337600083830152505050565b6000611d8d8385611731565b9350611d9a838584611d72565b611da3836114a8565b840190509392505050565b60006080820190508181036000830152611dc9818a8c611d81565b90508181036020830152611dde81888a611d81565b90508181036040830152611df3818688611d81565b90508181036060830152611e08818486611d81565b90509998505050505050505050565b60006060820190508181036000830152611e318186611742565b9050611e406020830185611722565b611e4d6040830184611847565b949350505050565b60006060820190508181036000830152611e6f8186611742565b9050611e7e6020830185611847565b611e8b6040830184611722565b949350505050565b60006040820190508181036000830152611ead8185611742565b90508181036020830152611ec18184611742565b90509392505050565b7f4e487b7100000000000000000000000000000000000000000000000000000000600052605160045260246000fdfe4368616c6c656e67652023257320636f6e747269627574656420627920257320776974683a557365722025732068616420666574636820257320636f6e7472696275746564206368616c6c656e676573a2646970667358221220fc994ac4f1fe16390366b188c52b73d3252efc1f461151b9d441d97cdaf3074464736f6c634300081c0033",
  "linkReferences": {},
  "deployedLinkReferences": {}
}