{
  "_format": "hh-sol-artifact-1",
  "contractName": "ChallengeManager",
  "sourceName": "contracts/ChallengeManager.sol",
  "abi": [
    {
      "inputs": [],
      "stateMutability": "nonpayable",
      "type": "constructor"
    },
    {
      "inputs": [],
      "name": "AccessControlBadConfirmation",
      "type": "error"
    },
    {
      "inputs": [
        {
          "internalType": "address",
          "name": "account",
          "type": "address"
        },
        {
          "internalType": "bytes32",
          "name": "neededRole",
          "type": "bytes32"
        }
      ],
      "name": "AccessControlUnauthorizedAccount",
      "type": "error"
    },
    {
      "anonymous": false,
      "inputs": [
        {
          "indexed": true,
          "internalType": "bytes32",
          "name": "id",
          "type": "bytes32"
        },
        {
          "indexed": false,
          "internalType": "enum SystemEnums.Domain",
          "name": "category",
          "type": "uint8"
        },
        {
          "indexed": false,
          "internalType": "uint256",
          "name": "contributed_at",
          "type": "uint256"
        }
      ],
      "name": "ChallengeContributed",
      "type": "event"
    },
    {
      "anonymous": false,
      "inputs": [
        {
          "indexed": true,
          "internalType": "address",
          "name": "contributor",
          "type": "address"
        },
        {
          "indexed": true,
          "internalType": "string",
          "name": "txid",
          "type": "string"
        },
        {
          "indexed": false,
          "internalType": "uint256",
          "name": "created_at",
          "type": "uint256"
        }
      ],
      "name": "ChallengeCreated",
      "type": "event"
    },
    {
      "anonymous": false,
      "inputs": [
        {
          "indexed": true,
          "internalType": "bytes32",
          "name": "challengeId",
          "type": "bytes32"
        },
        {
          "indexed": false,
          "internalType": "enum SystemEnums.ChallengeStatus",
          "name": "status",
          "type": "uint8"
        },
        {
          "indexed": false,
          "internalType": "uint256",
          "name": "averagePercent",
          "type": "uint256"
        }
      ],
      "name": "ChallengeFinalized",
      "type": "event"
    },
    {
      "anonymous": false,
      "inputs": [
        {
          "indexed": true,
          "internalType": "address",
          "name": "user",
          "type": "address"
        },
        {
          "indexed": false,
          "internalType": "bytes32",
          "name": "challengeId",
          "type": "bytes32"
        },
        {
          "indexed": false,
          "internalType": "uint256",
          "name": "joinedAt",
          "type": "uint256"
        }
      ],
      "name": "ChallengeJoinedByUser",
      "type": "event"
    },
    {
      "anonymous": false,
      "inputs": [
        {
          "indexed": true,
          "internalType": "bytes32",
          "name": "challenge_id",
          "type": "bytes32"
        },
        {
          "indexed": true,
          "internalType": "address",
          "name": "moderator",
          "type": "address"
        }
      ],
      "name": "ReviewPoolJoined",
      "type": "event"
    },
    {
      "anonymous": false,
      "inputs": [
        {
          "indexed": true,
          "internalType": "bytes32",
          "name": "role",
          "type": "bytes32"
        },
        {
          "indexed": true,
          "internalType": "bytes32",
          "name": "previousAdminRole",
          "type": "bytes32"
        },
        {
          "indexed": true,
          "internalType": "bytes32",
          "name": "newAdminRole",
          "type": "bytes32"
        }
      ],
      "name": "RoleAdminChanged",
      "type": "event"
    },
    {
      "anonymous": false,
      "inputs": [
        {
          "indexed": true,
          "internalType": "bytes32",
          "name": "role",
          "type": "bytes32"
        },
        {
          "indexed": true,
          "internalType": "address",
          "name": "account",
          "type": "address"
        },
        {
          "indexed": true,
          "internalType": "address",
          "name": "sender",
          "type": "address"
        }
      ],
      "name": "RoleGranted",
      "type": "event"
    },
    {
      "anonymous": false,
      "inputs": [
        {
          "indexed": true,
          "internalType": "bytes32",
          "name": "role",
          "type": "bytes32"
        },
        {
          "indexed": true,
          "internalType": "address",
          "name": "account",
          "type": "address"
        },
        {
          "indexed": true,
          "internalType": "address",
          "name": "sender",
          "type": "address"
        }
      ],
      "name": "RoleRevoked",
      "type": "event"
    },
    {
      "inputs": [],
      "name": "DEFAULT_ADMIN_ROLE",
      "outputs": [
        {
          "internalType": "bytes32",
          "name": "",
          "type": "bytes32"
        }
      ],
      "stateMutability": "view",
      "type": "function"
    },
    {
      "inputs": [
        {
          "internalType": "bytes32",
          "name": "id",
          "type": "bytes32"
        },
        {
          "internalType": "enum SystemEnums.Domain",
          "name": "_category",
          "type": "uint8"
        }
      ],
      "name": "contributeChallenge",
      "outputs": [],
      "stateMutability": "payable",
      "type": "function"
    },
    {
      "inputs": [
        {
          "internalType": "string",
          "name": "_challenge_txid",
          "type": "string"
        },
        {
          "internalType": "enum SystemEnums.Domain",
          "name": "_category",
          "type": "uint8"
        }
      ],
      "name": "createChallenge",
      "outputs": [
        {
          "internalType": "bytes32",
          "name": "id",
          "type": "bytes32"
        }
      ],
      "stateMutability": "nonpayable",
      "type": "function"
    },
    {
      "inputs": [],
      "name": "getApprovedChallenges",
      "outputs": [
        {
          "components": [
            {
              "internalType": "bytes32",
              "name": "id",
              "type": "bytes32"
            },
            {
              "internalType": "address",
              "name": "contributor",
              "type": "address"
            },
            {
              "internalType": "string",
              "name": "txid",
              "type": "string"
            },
            {
              "internalType": "enum SystemEnums.Domain",
              "name": "category",
              "type": "uint8"
            },
            {
              "internalType": "uint256",
              "name": "contributed_at",
              "type": "uint256"
            },
            {
              "internalType": "uint256",
              "name": "participants",
              "type": "uint256"
            },
            {
              "internalType": "uint256",
              "name": "quality_score",
              "type": "uint256"
            },
            {
              "internalType": "enum SystemEnums.DifficultyLevel",
              "name": "difficulty_level",
              "type": "uint8"
            },
            {
              "internalType": "uint256",
              "name": "solve_time",
              "type": "uint256"
            },
            {
              "internalType": "enum SystemEnums.ChallengeStatus",
              "name": "status",
              "type": "uint8"
            }
          ],
          "internalType": "struct ChallengeManager.Challenge[]",
          "name": "",
          "type": "tuple[]"
        }
      ],
      "stateMutability": "view",
      "type": "function"
    },
    {
      "inputs": [
        {
          "internalType": "bytes32",
          "name": "_challenge_id",
          "type": "bytes32"
        }
      ],
      "name": "getChallengeById",
      "outputs": [
        {
          "components": [
            {
              "internalType": "bytes32",
              "name": "id",
              "type": "bytes32"
            },
            {
              "internalType": "address",
              "name": "contributor",
              "type": "address"
            },
            {
              "internalType": "string",
              "name": "txid",
              "type": "string"
            },
            {
              "internalType": "enum SystemEnums.Domain",
              "name": "category",
              "type": "uint8"
            },
            {
              "internalType": "uint256",
              "name": "contributed_at",
              "type": "uint256"
            },
            {
              "internalType": "uint256",
              "name": "participants",
              "type": "uint256"
            },
            {
              "internalType": "uint256",
              "name": "quality_score",
              "type": "uint256"
            },
            {
              "internalType": "enum SystemEnums.DifficultyLevel",
              "name": "difficulty_level",
              "type": "uint8"
            },
            {
              "internalType": "uint256",
              "name": "solve_time",
              "type": "uint256"
            },
            {
              "internalType": "enum SystemEnums.ChallengeStatus",
              "name": "status",
              "type": "uint8"
            }
          ],
          "internalType": "struct ChallengeManager.Challenge",
          "name": "",
          "type": "tuple"
        }
      ],
      "stateMutability": "view",
      "type": "function"
    },
    {
      "inputs": [
        {
          "internalType": "bytes32",
          "name": "_challenge_id",
          "type": "bytes32"
        }
      ],
      "name": "getChallengeContributorById",
      "outputs": [
        {
          "internalType": "address",
          "name": "",
          "type": "address"
        }
      ],
      "stateMutability": "view",
      "type": "function"
    },
    {
      "inputs": [
        {
          "internalType": "bytes32",
          "name": "_challenge_id",
          "type": "bytes32"
        }
      ],
      "name": "getChallengeDifficultyById",
      "outputs": [
        {
          "internalType": "enum SystemEnums.DifficultyLevel",
          "name": "",
          "type": "uint8"
        }
      ],
      "stateMutability": "view",
      "type": "function"
    },
    {
      "inputs": [
        {
          "internalType": "bytes32",
          "name": "_challenge_id",
          "type": "bytes32"
        }
      ],
      "name": "getChallengeDomainById",
      "outputs": [
        {
          "internalType": "enum SystemEnums.Domain",
          "name": "",
          "type": "uint8"
        }
      ],
      "stateMutability": "view",
      "type": "function"
    },
    {
      "inputs": [
        {
          "internalType": "bytes32",
          "name": "_challenge_id",
          "type": "bytes32"
        }
      ],
      "name": "getChallengeFinalizedStatus",
      "outputs": [
        {
          "internalType": "bool",
          "name": "",
          "type": "bool"
        }
      ],
      "stateMutability": "view",
      "type": "function"
    },
    {
      "inputs": [
        {
          "internalType": "bytes32",
          "name": "challengeId",
          "type": "bytes32"
        }
      ],
      "name": "getChallengeParticipants",
      "outputs": [
        {
          "internalType": "address[]",
          "name": "",
          "type": "address[]"
        }
      ],
      "stateMutability": "view",
      "type": "function"
    },
    {
      "inputs": [
        {
          "internalType": "bytes32",
          "name": "_challenge_id",
          "type": "bytes32"
        }
      ],
      "name": "getChallengeQualityScoreById",
      "outputs": [
        {
          "internalType": "uint256",
          "name": "",
          "type": "uint256"
        }
      ],
      "stateMutability": "view",
      "type": "function"
    },
    {
      "inputs": [
        {
          "internalType": "bytes32",
          "name": "_challenge_id",
          "type": "bytes32"
        }
      ],
      "name": "getChallengeTxIdById",
      "outputs": [
        {
          "internalType": "string",
          "name": "",
          "type": "string"
        }
      ],
      "stateMutability": "view",
      "type": "function"
    },
    {
      "inputs": [
        {
          "internalType": "address",
          "name": "_contributor_address",
          "type": "address"
        }
      ],
      "name": "getChallengesByContributor",
      "outputs": [
        {
          "components": [
            {
              "internalType": "bytes32",
              "name": "id",
              "type": "bytes32"
            },
            {
              "internalType": "address",
              "name": "contributor",
              "type": "address"
            },
            {
              "internalType": "string",
              "name": "txid",
              "type": "string"
            },
            {
              "internalType": "enum SystemEnums.Domain",
              "name": "category",
              "type": "uint8"
            },
            {
              "internalType": "uint256",
              "name": "contributed_at",
              "type": "uint256"
            },
            {
              "internalType": "uint256",
              "name": "participants",
              "type": "uint256"
            },
            {
              "internalType": "uint256",
              "name": "quality_score",
              "type": "uint256"
            },
            {
              "internalType": "enum SystemEnums.DifficultyLevel",
              "name": "difficulty_level",
              "type": "uint8"
            },
            {
              "internalType": "uint256",
              "name": "solve_time",
              "type": "uint256"
            },
            {
              "internalType": "enum SystemEnums.ChallengeStatus",
              "name": "status",
              "type": "uint8"
            }
          ],
          "internalType": "struct ChallengeManager.Challenge[]",
          "name": "",
          "type": "tuple[]"
        }
      ],
      "stateMutability": "view",
      "type": "function"
    },
    {
      "inputs": [
        {
          "internalType": "address",
          "name": "_moderator_address",
          "type": "address"
        }
      ],
      "name": "getChallengesByModerator",
      "outputs": [
        {
          "components": [
            {
              "internalType": "bytes32",
              "name": "id",
              "type": "bytes32"
            },
            {
              "internalType": "address",
              "name": "contributor",
              "type": "address"
            },
            {
              "internalType": "string",
              "name": "txid",
              "type": "string"
            },
            {
              "internalType": "enum SystemEnums.Domain",
              "name": "category",
              "type": "uint8"
            },
            {
              "internalType": "uint256",
              "name": "contributed_at",
              "type": "uint256"
            },
            {
              "internalType": "uint256",
              "name": "participants",
              "type": "uint256"
            },
            {
              "internalType": "uint256",
              "name": "quality_score",
              "type": "uint256"
            },
            {
              "internalType": "enum SystemEnums.DifficultyLevel",
              "name": "difficulty_level",
              "type": "uint8"
            },
            {
              "internalType": "uint256",
              "name": "solve_time",
              "type": "uint256"
            },
            {
              "internalType": "enum SystemEnums.ChallengeStatus",
              "name": "status",
              "type": "uint8"
            }
          ],
          "internalType": "struct ChallengeManager.Challenge[]",
          "name": "",
          "type": "tuple[]"
        }
      ],
      "stateMutability": "view",
      "type": "function"
    },
    {
      "inputs": [
        {
          "internalType": "bytes32",
          "name": "_challenge_id",
          "type": "bytes32"
        },
        {
          "internalType": "address",
          "name": "_moderator_address",
          "type": "address"
        }
      ],
      "name": "getJoinReviewPoolStatus",
      "outputs": [
        {
          "internalType": "bool",
          "name": "",
          "type": "bool"
        }
      ],
      "stateMutability": "view",
      "type": "function"
    },
    {
      "inputs": [
        {
          "internalType": "address",
          "name": "_user_address",
          "type": "address"
        }
      ],
      "name": "getJoinedChallengesByUser",
      "outputs": [
        {
          "components": [
            {
              "internalType": "bytes32",
              "name": "challenge_id",
              "type": "bytes32"
            },
            {
              "internalType": "string",
              "name": "txid",
              "type": "string"
            },
            {
              "internalType": "enum SystemEnums.Domain",
              "name": "category",
              "type": "uint8"
            },
            {
              "internalType": "enum SystemEnums.SolutionProgress",
              "name": "progress",
              "type": "uint8"
            },
            {
              "internalType": "uint256",
              "name": "joined_at",
              "type": "uint256"
            },
            {
              "internalType": "uint256",
              "name": "score",
              "type": "uint256"
            }
          ],
          "internalType": "struct ChallengeManager.JoinedChallenges[]",
          "name": "",
          "type": "tuple[]"
        }
      ],
      "stateMutability": "view",
      "type": "function"
    },
    {
      "inputs": [
        {
          "internalType": "bytes32",
          "name": "challenge_id",
          "type": "bytes32"
        },
        {
          "internalType": "address",
          "name": "_moderator_address",
          "type": "address"
        }
      ],
      "name": "getModeratorReviewOfChallenge",
      "outputs": [
        {
          "components": [
            {
              "internalType": "address",
              "name": "moderator",
              "type": "address"
            },
            {
              "internalType": "bytes32",
              "name": "challenge_id",
              "type": "bytes32"
            },
            {
              "internalType": "uint256",
              "name": "review_time",
              "type": "uint256"
            },
            {
              "internalType": "string",
              "name": "review_txid",
              "type": "string"
            },
            {
              "internalType": "bool",
              "name": "is_submitted",
              "type": "bool"
            },
            {
              "internalType": "enum SystemEnums.QualityFactorAnswer",
              "name": "relevance",
              "type": "uint8"
            },
            {
              "internalType": "enum SystemEnums.QualityFactorAnswer",
              "name": "technical_correctness",
              "type": "uint8"
            },
            {
              "internalType": "enum SystemEnums.QualityFactorAnswer",
              "name": "completeness",
              "type": "uint8"
            },
            {
              "internalType": "enum SystemEnums.QualityFactorAnswer",
              "name": "clarity",
              "type": "uint8"
            },
            {
              "internalType": "enum SystemEnums.QualityFactorAnswer",
              "name": "originality",
              "type": "uint8"
            },
            {
              "internalType": "enum SystemEnums.QualityFactorAnswer",
              "name": "unbiased",
              "type": "uint8"
            },
            {
              "internalType": "enum SystemEnums.QualityFactorAnswer",
              "name": "plagiarism_free",
              "type": "uint8"
            },
            {
              "internalType": "enum SystemEnums.DifficultyLevel",
              "name": "suggested_difficulty",
              "type": "uint8"
            },
            {
              "internalType": "uint256",
              "name": "suggested_solve_time",
              "type": "uint256"
            },
            {
              "internalType": "uint256",
              "name": "review_score",
              "type": "uint256"
            }
          ],
          "internalType": "struct ChallengeManager.ModeratorReview",
          "name": "",
          "type": "tuple"
        }
      ],
      "stateMutability": "view",
      "type": "function"
    },
    {
      "inputs": [
        {
          "internalType": "address",
          "name": "_moderator_address",
          "type": "address"
        },
        {
          "internalType": "bytes32",
          "name": "_challenge_id",
          "type": "bytes32"
        }
      ],
      "name": "getModeratorReviewTxId",
      "outputs": [
        {
          "internalType": "string",
          "name": "",
          "type": "string"
        }
      ],
      "stateMutability": "view",
      "type": "function"
    },
    {
      "inputs": [],
      "name": "getPendingChallenges",
      "outputs": [
        {
          "components": [
            {
              "internalType": "bytes32",
              "name": "id",
              "type": "bytes32"
            },
            {
              "internalType": "address",
              "name": "contributor",
              "type": "address"
            },
            {
              "internalType": "string",
              "name": "txid",
              "type": "string"
            },
            {
              "internalType": "enum SystemEnums.Domain",
              "name": "category",
              "type": "uint8"
            },
            {
              "internalType": "uint256",
              "name": "contributed_at",
              "type": "uint256"
            },
            {
              "internalType": "uint256",
              "name": "participants",
              "type": "uint256"
            },
            {
              "internalType": "uint256",
              "name": "quality_score",
              "type": "uint256"
            },
            {
              "internalType": "enum SystemEnums.DifficultyLevel",
              "name": "difficulty_level",
              "type": "uint8"
            },
            {
              "internalType": "uint256",
              "name": "solve_time",
              "type": "uint256"
            },
            {
              "internalType": "enum SystemEnums.ChallengeStatus",
              "name": "status",
              "type": "uint8"
            }
          ],
          "internalType": "struct ChallengeManager.Challenge[]",
          "name": "",
          "type": "tuple[]"
        }
      ],
      "stateMutability": "view",
      "type": "function"
    },
    {
      "inputs": [
        {
          "internalType": "bytes32",
          "name": "_challenge_id",
          "type": "bytes32"
        }
      ],
      "name": "getReviewPoolModerators",
      "outputs": [
        {
          "internalType": "address[]",
          "name": "",
          "type": "address[]"
        }
      ],
      "stateMutability": "view",
      "type": "function"
    },
    {
      "inputs": [
        {
          "internalType": "bytes32",
          "name": "_challenge_id",
          "type": "bytes32"
        }
      ],
      "name": "getReviewPoolSize",
      "outputs": [
        {
          "internalType": "uint256",
          "name": "",
          "type": "uint256"
        }
      ],
      "stateMutability": "view",
      "type": "function"
    },
    {
      "inputs": [],
      "name": "getReviewQuorum",
      "outputs": [
        {
          "internalType": "uint256",
          "name": "",
          "type": "uint256"
        }
      ],
      "stateMutability": "pure",
      "type": "function"
    },
    {
      "inputs": [
        {
          "internalType": "bytes32",
          "name": "role",
          "type": "bytes32"
        }
      ],
      "name": "getRoleAdmin",
      "outputs": [
        {
          "internalType": "bytes32",
          "name": "",
          "type": "bytes32"
        }
      ],
      "stateMutability": "view",
      "type": "function"
    },
    {
      "inputs": [
        {
          "internalType": "bytes32",
          "name": "_challenge_id",
          "type": "bytes32"
        },
        {
          "internalType": "address",
          "name": "_moderator_address",
          "type": "address"
        }
      ],
      "name": "getScoreDeviationOfModeratorReview",
      "outputs": [
        {
          "internalType": "uint256",
          "name": "",
          "type": "uint256"
        }
      ],
      "stateMutability": "view",
      "type": "function"
    },
    {
      "inputs": [
        {
          "internalType": "bytes32",
          "name": "role",
          "type": "bytes32"
        },
        {
          "internalType": "address",
          "name": "account",
          "type": "address"
        }
      ],
      "name": "grantRole",
      "outputs": [],
      "stateMutability": "nonpayable",
      "type": "function"
    },
    {
      "inputs": [
        {
          "internalType": "bytes32",
          "name": "role",
          "type": "bytes32"
        },
        {
          "internalType": "address",
          "name": "account",
          "type": "address"
        }
      ],
      "name": "hasRole",
      "outputs": [
        {
          "internalType": "bool",
          "name": "",
          "type": "bool"
        }
      ],
      "stateMutability": "view",
      "type": "function"
    },
    {
      "inputs": [
        {
          "internalType": "bytes32",
          "name": "_challenge_id",
          "type": "bytes32"
        },
        {
          "internalType": "string",
          "name": "_review_txid",
          "type": "string"
        }
      ],
      "name": "joinReviewPool",
      "outputs": [],
      "stateMutability": "nonpayable",
      "type": "function"
    },
    {
      "inputs": [
        {
          "internalType": "bytes32",
          "name": "role",
          "type": "bytes32"
        },
        {
          "internalType": "address",
          "name": "callerConfirmation",
          "type": "address"
        }
      ],
      "name": "renounceRole",
      "outputs": [],
      "stateMutability": "nonpayable",
      "type": "function"
    },
    {
      "inputs": [
        {
          "internalType": "bytes32",
          "name": "role",
          "type": "bytes32"
        },
        {
          "internalType": "address",
          "name": "account",
          "type": "address"
        }
      ],
      "name": "revokeRole",
      "outputs": [],
      "stateMutability": "nonpayable",
      "type": "function"
    },
    {
      "inputs": [
        {
          "internalType": "address",
          "name": "_contributor",
          "type": "address"
        },
        {
          "internalType": "string",
          "name": "_challenge_txid",
          "type": "string"
        },
        {
          "internalType": "enum SystemEnums.Domain",
          "name": "_category",
          "type": "uint8"
        },
        {
          "internalType": "uint256",
          "name": "_contributed_at",
          "type": "uint256"
        },
        {
          "internalType": "enum SystemEnums.ChallengeStatus",
          "name": "_status",
          "type": "uint8"
        },
        {
          "internalType": "uint256",
          "name": "_quality_score",
          "type": "uint256"
        },
        {
          "internalType": "enum SystemEnums.DifficultyLevel",
          "name": "_difficulty_level",
          "type": "uint8"
        },
        {
          "internalType": "uint256",
          "name": "_solve_time",
          "type": "uint256"
        }
      ],
      "name": "seedChallenge",
      "outputs": [],
      "stateMutability": "nonpayable",
      "type": "function"
    },
    {
      "inputs": [
        {
          "internalType": "address",
          "name": "_address",
          "type": "address"
        }
      ],
      "name": "setChallengeCostManagerAddress",
      "outputs": [],
      "stateMutability": "nonpayable",
      "type": "function"
    },
    {
      "inputs": [
        {
          "internalType": "address",
          "name": "_address",
          "type": "address"
        }
      ],
      "name": "setModerationEscrowAddress",
      "outputs": [],
      "stateMutability": "nonpayable",
      "type": "function"
    },
    {
      "inputs": [
        {
          "internalType": "address",
          "name": "_address",
          "type": "address"
        }
      ],
      "name": "setReputationManagerAddress",
      "outputs": [],
      "stateMutability": "nonpayable",
      "type": "function"
    },
    {
      "inputs": [
        {
          "internalType": "address",
          "name": "_address",
          "type": "address"
        }
      ],
      "name": "setRoleManagerAddress",
      "outputs": [],
      "stateMutability": "nonpayable",
      "type": "function"
    },
    {
      "inputs": [
        {
          "internalType": "address",
          "name": "_address",
          "type": "address"
        }
      ],
      "name": "setSolutionManagerAddress",
      "outputs": [],
      "stateMutability": "nonpayable",
      "type": "function"
    },
    {
      "inputs": [
        {
          "internalType": "bytes32",
          "name": "_challenge_id",
          "type": "bytes32"
        },
        {
          "internalType": "enum SystemEnums.QualityFactorAnswer",
          "name": "_relevance",
          "type": "uint8"
        },
        {
          "internalType": "enum SystemEnums.QualityFactorAnswer",
          "name": "_technical_correctness",
          "type": "uint8"
        },
        {
          "internalType": "enum SystemEnums.QualityFactorAnswer",
          "name": "_completeness",
          "type": "uint8"
        },
        {
          "internalType": "enum SystemEnums.QualityFactorAnswer",
          "name": "_clarity",
          "type": "uint8"
        },
        {
          "internalType": "enum SystemEnums.QualityFactorAnswer",
          "name": "_originality",
          "type": "uint8"
        },
        {
          "internalType": "enum SystemEnums.QualityFactorAnswer",
          "name": "_unbiased",
          "type": "uint8"
        },
        {
          "internalType": "enum SystemEnums.QualityFactorAnswer",
          "name": "_plagiarism_free",
          "type": "uint8"
        },
        {
          "internalType": "enum SystemEnums.DifficultyLevel",
          "name": "_suggested_difficulty",
          "type": "uint8"
        },
        {
          "internalType": "uint256",
          "name": "_suggested_solve_time",
          "type": "uint256"
        }
      ],
      "name": "submitModeratorReview",
      "outputs": [],
      "stateMutability": "nonpayable",
      "type": "function"
    },
    {
      "inputs": [
        {
          "internalType": "bytes4",
          "name": "interfaceId",
          "type": "bytes4"
        }
      ],
      "name": "supportsInterface",
      "outputs": [
        {
          "internalType": "bool",
          "name": "",
          "type": "bool"
        }
      ],
      "stateMutability": "view",
      "type": "function"
    },
    {
      "inputs": [
        {
          "internalType": "bytes32",
          "name": "_challenge_id",
          "type": "bytes32"
        }
      ],
      "name": "userCompleteChallenge",
      "outputs": [],
      "stateMutability": "nonpayable",
      "type": "function"
    },
    {
      "inputs": [
        {
          "internalType": "bytes32",
          "name": "_challenge_id",
          "type": "bytes32"
        },
        {
          "internalType": "string",
          "name": "_solution_base_txid",
          "type": "string"
        }
      ],
      "name": "userJoinChallenge",
      "outputs": [],
      "stateMutability": "payable",
      "type": "function"
    }
  ],
  "bytecode": "0x608060405234601f57600f336024565b50604051613ddb90816100b28239f35b600080fd5b6001600160a01b0381166000908152600080516020613e8d833981519152602052604090205460ff1660ab576001600160a01b03166000818152600080516020613e8d83398151915260205260408120805460ff191660011790553391907f2f8788117e7eff1d82e926ec794901d17c78024a50270940304540a733656f0d8180a4600190565b5060009056fe608080604052600436101561001357600080fd5b600090813560e01c90816301ffc9a714612dd957508063033c192b14612dab5780631caa111c14612d7e578063248a9ca314612d505780632527300614612d1b5780632adb804d146129bb5780632e34e4df146129845780632f2ff15d14612943578063326e1e93146126cb578063340986fa1461265e57806336568abe14612619578063368671281461237257806344d3cbb9146122985780635057494a146121425780635cf2249f146120e2578063616e2e5614611f7e5780636875a77e14611f055780636acf134014611cb057806381b3fe4e14611a865780638c2c0bd014611a5157806391d1485414611a06578063927cab5b146119a6578063a217fddf1461198a578063a740001f1461193c578063b2a006931461154f578063b2c2915b146114c1578063b79362cd14611461578063be21f20c1461135c578063c361e8cf146112fc578063cdf974b2146112ca578063d547741f14611280578063d671e8c4146107ea578063dc2ee85c14610400578063dd0e12ca146102d7578063e0772f41146102ad578063e9d307731461024d578063f676d44a1461021b578063f83eb275146101ff5763fce83656146101ce57600080fd5b346101fc5760403660031901126101fc5760206101f46101ec612ead565b600435613703565b604051908152f35b80fd5b50346101fc57806003193601126101fc57602060405160038152f35b50346101fc5760203660031901126101fc5760043581526001602052600560408220016102488154613691565b905580f35b50346101fc5760203660031901126101fc57610267612e92565b61026f613792565b6001600160a01b031661028381151561348d565b806001600160601b0360a01b60145416176014556001600160601b0360a01b601354161760135580f35b50346101fc5760203660031901126101fc5760406020916004358152600283522054604051908152f35b50346101fc57806003193601126101fc57600a546102f481613429565b9082600a54905b82811061031457604051806103108682613020565b0390f35b818110156103ec57600190600a8652806020872001548660031b1c8652816020526040862060ff60096040519261034a846130ba565b80548452858060a01b038682015416602085015261036a60028201613144565b60408501526103828360038301541660608601613210565b60048101546080850152600581015460a0850152600681015460c08501526103b38360078301541660e0860161321c565b60088101546101008501520154166103ca81612f80565b6101208201526103da8287613479565b526103e58186613479565b50016102fb565b634e487b7160e01b85526032600452602485fd5b50346101fc5760203660031901126101fc5761041a612e92565b6010546001600160a01b0316156107a55760018060a01b0381168252600360205260408220906040518083602082955493848152019086526020862092865b81811061078c57505061046e92500383613123565b81519261047a84613412565b936104886040519586613123565b808552610497601f1991613412565b01815b818110610750575050600f546001600160a01b0316815b845181101561069d576104c48186613479565b518084526001602052604084206105a46040516104e0816130ba565b8254815260018301546001600160a01b03166020820152606061050560028501613144565b946040830195865260ff600981600388015416966105268587019889613210565b60048101546080870152600581015460a0870152600681015460c08701526105578360078301541660e0880161321c565b600881015461010087015201541661056e81612f80565b61012084015260405163eb3cd29f60e01b81526001600160a01b038b166004820152602481019190915292839081906044820190565b0381895afa9283156106925787918893899561063c575b50519451905190600e8210156106285760019695949392916105f491604051966105e488613108565b8752602087015260408601613210565b6105fd81612f80565b6060840152608083015260a08201526106168289613479565b526106218188613479565b50016104b1565b634e487b7160e01b89526021600452602489fd5b9250935091506060813d821161068a575b8161065a60609383613123565b81010312610686578051916004831015610682576040602083015192015192919293386105bb565b8780fd5b8680fd5b3d915061064d565b6040513d89823e3d90fd5b85836040519182916020830160208452825180915260408401602060408360051b870101940192905b8282106106d557505050500390f35b919360019193955060208091603f198982030185528751908151815260a08061070b8585015160c08786015260c0850190612e2e565b9361071e60408201516040860190612ef0565b606081015161072c81612f80565b606085015260808101516080850152015191015296019201920185949391926106c6565b60209060405161075f81613108565b8481526060838201528460408201528460608201528460808201528460a08201528282890101520161049a565b8454835260019485019487945060209093019201610459565b60405162461bcd60e51b815260206004820152601760248201527f536f6c7574696f6e4d616e61676572206e6f74207365740000000000000000006044820152606490fd5b50346101fc576101403660031901126101fc5760243590600435600283101561127c57604435926002841015611278576064356002811015610f7c57608435916002831015610f425760a43560028110156112745760c4359260028410156106865760e4359060028210156106825761010435916003831015610f8b576108cc60208960ff600360408e8481526002865261088d8460018484200154161561358c565b600d546001600160a01b0316946108a58615156134cb565b815260018652200154169060405180809581946393f7ea8160e01b8352336004840161350e565b03915afa90811561126957906108e9918b9161123a575b506135d8565b6011546001600160a01b0316156111f5578789526002602052604089209560018060a01b03331660005260048701602052600160ff604060002054161515036111a257888a526002602052600360408b200160018060a01b03331660005260205260ff60046040600020015416611151576002870195865461096a90613691565b87556109768c826136b6565b84610980916136b6565b8961098a916136b6565b86610994916136b6565b8261099e916136b6565b836109a8916136b6565b9560648702968088046064149015171561113d578b9c60038a9b9c9d999a019b6000600160a01b60019003331681528d60205260409020994260028c015560048b01988954915060401b60ff60401b169760ff60401b199560ff60381b199466ff000000000000199365ff0000000000199264ff00000000199163ff000000199062ffffff1916600117169060081b61ff001617169060101b62ff00001617169060181b63ff0000001617169060201b64ff000000001617169060281b65ff00000000001617169060301b66ff00000000000016179060381b60ff60381b16171790556101243560058301556007900490600601555460031115610aaa578380f35b600181949293940160ff8154166110f857848352600160205260408320858452600160205260ff6007604086200154169560405193610aea608086613123565b600385526060366020870137600b548154906001600160a01b0316875b828110610fdb57505050855b6003811015610b6557610b268187613479565b5160038a1015610b5157610b3a8a88613479565b5110610b49575b600101610b13565b975087610b41565b634e487b7160e01b88526021600452602488fd5b509195909350959195610b7c600787019384613292565b610b8682856139e9565b6008870155610b958285613b14565b9160508310610fc75760098701600260ff19825416179055848652600960205260408620600160ff19825416179055610bcd856132f3565b60068701928355848652600760205260408620805460ff19169055855b60085480821015610fb75786610bff836132aa565b90549060031b1c14610c145750600101610bea565b60009892939495969798198101908111610fa357610c44610c37610c5b926132aa565b90549060031b1c926132aa565b819391549060031b91821b91600019901b19161790565b9055600854978815610f8f57879860001901610c76816132aa565b8154906000199060031b1b191690556008555b600160ff1982541617905560ff60098201541694867f8f1082d1804d1985ff86f5bd6430e1e4b5707e76a48c2f6eb4b1aa84f5bdcb696040875498815190610cd081612f80565b8152896020820152a2600c546001600160a01b0316610d6a575b50506012546001600160a01b03169350610d0892505050575b808380f35b6011546001600160a01b031690813b15610d665782916024839260405194859384926303c3ba4760e41b845260048401525af18015610d5b5715610d035781610d5091613123565b6101fc578038808380f35b6040513d84823e3d90fd5b5050fd5b60018060a0999798991b03600b541690600360018060a01b0360018501541693019760ff808a541692541693833b15610f8b57888094610def610dcb9760c495604051998a988997630164ac6560e41b895260048901526024880190612ef0565b604486015260506064860152670de0b6b3a7640000608486015260a4850190612e6f565b5af1908115610f80578591610f67575b505b8154811015610f5557610e7c610e1782846132db565b905460405160039290921b1c6001600160a01b031690610e38606082613123565b602c81527f457865637574696e672072657075746174696f6e2075706461746520666f722060208201526b6d6f64657261746f7220257360a01b604082015261392d565b610e8681836132db565b90546001600160a01b0360039290921b1c81166000818152602086905260409020600b54895488546006909301549294919091169260ff9091169190833b15610f515789809460c493610ef4976040519889978896631bb0c13760e21b885260048801526024870190612ef0565b60448501526064840152603c6084840152670de0b6b3a764000060a48401525af1908115610f46578691610f2d575b5050600101610e01565b81610f3791613123565b610f42578438610f23565b8480fd5b6040513d88823e3d90fd5b8980fd5b50505050919050388080808080610cea565b81610f7191613123565b610f7c578338610dff565b8380fd5b6040513d87823e3d90fd5b8880fd5b634e487b7160e01b88526031600452602488fd5b634e487b7160e01b89526011600452602489fd5b5050909192939496958796610c89565b60098701805460ff19166003179055610bcd565b8861103960208c60ff6003604080610ff3898d6132db565b905490841b1c6001600160a01b0316600081815295875294208c88526001865296200154604051630cf571c160e11b81529485938493919291909116906004840161350e565b0381875afa9081156110ed578b9081926110b6575b506110688261106360049360ff951215613993565b613d94565b92015460401c169060038210156110a2579061109b6110946001949361108e848e613479565b516136b6565b918b613479565b5201610b07565b634e487b7160e01b8b52602160045260248bfd5b91505060203d81116110e6575b6110cd8183613123565b602082600092810103126101fc5750518a61106861104e565b503d6110c3565b6040513d8d823e3d90fd5b60405162461bcd60e51b815260206004820152601b60248201527f4368616c6c656e676520616c72656164792066696e616c697a656400000000006044820152606490fd5b634e487b7160e01b8c52601160045260248cfd5b60405162461bcd60e51b8152602060048201526024808201527f596f75206861766520616c7265616479207375626d697474656420612072657660448201526334b2bb9760e11b6064820152608490fd5b60405162461bcd60e51b815260206004820152602560248201527f596f752068617665206e6f74206a6f696e6564207468697320726576696577206044820152643837b7b61760d91b6064820152608490fd5b60405162461bcd60e51b815260206004820152601960248201527f4d6f6465726174696f6e20657363726f77206e6f7420736574000000000000006044820152606490fd5b61125c915060203d602011611262575b6112548183613123565b810190613361565b386108e3565b503d61124a565b6040513d8c823e3d90fd5b8580fd5b8280fd5b5080fd5b50346101fc5760403660031901126101fc576112c66004356112a0612ead565b906112c16112bc82600052600060205260016040600020015490565b6137e5565b6138ab565b5080f35b50346101fc5760203660031901126101fc5760ff60016040602093600435815260028552200154166040519015158152f35b50346101fc5760203660031901126101fc57611316612e92565b61131e613792565b6001600160a01b031661133281151561348d565b806001600160601b0360a01b600c541617600c556001600160601b0360a01b600b541617600b5580f35b50346101fc57806003193601126101fc5760085461137981613429565b91805b82811061139157604051806103108682613020565b8061139d6001926132aa565b90549060031b1c8352816020526040832060ff6009604051926113bf846130ba565b80548452858060a01b03868201541660208501526113df60028201613144565b60408501526113f78360038301541660608601613210565b60048101546080850152600581015460a0850152600681015460c08501526114288360078301541660e0860161321c565b600881015461010085015201541661143f81612f80565b61012082015261144f8287613479565b5261145a8186613479565b500161137c565b50346101fc5760203660031901126101fc5761147b612e92565b611483613792565b6001600160a01b031661149781151561348d565b806001600160601b0360a01b60125416176012556001600160601b0360a01b601154161760115580f35b50346101fc5760403660031901126101fc57600360406114df612e92565b92602435808252600260205260048383200160018060a01b03861660005260205261151060ff846000205416613634565b8152600260205220019060018060a01b031660005260205261031061153b6003604060002001613144565b604051918291602083526020830190612e2e565b50346101fc5761155e36612efd565b828493929452600260205261157d60ff6001604086200154161561358c565b600d546115ca906020906001600160a01b031661159b8115156134cb565b8486526001825260ff6003604088200154169060405180809581946393f7ea8160e01b8352336004840161350e565b03915afa90811561193157906115e691859161123a57506135d8565b6011546001600160a01b0316156111f5578183526002602052604083206003815410156118f35733600090815260048201602081905260409091205460ff1661189c57838552600160208190526040862001546001600160a01b0316331461184b5760039160409133875260056020526116628684892061333f565b61166c3383613379565b3360008181526020928352848120805460ff1916600190811790915593860190925292902080546001600160a01b0319169092178255810184905501906001600160401b038111611837576116cb816116c58454613080565b84613228565b83601f82116001146117d357819085966116fc949596926117c8575b50508160011b916000199060031b1c19161790565b90555b60115482906001600160a01b0316803b1561127c57818091602460405180948193631cd692fd60e31b83528860048401525af18015610d5b576117b3575b505033907eb779f996cb9fcae43c5fd4b0964d015a2b4a4a1a2a0bb7dab863730b8c230f8380a36117b0604051611775606082613123565b602181527f4d6f64657261746f72202573206a6f696e656420612072657669657720706f6f6020820152601b60fa1b6040820152339061392d565b80f35b816117bd91613123565b61127c57813861173d565b0135905038806116e7565b601f198216958386526020862091865b88811061181f57508360019596979810611805575b505050811b0190556116ff565b0135600019600384901b60f8161c191690553880806117f8565b909260206001819286860135815501940191016117e3565b634e487b7160e01b84526041600452602484fd5b60405162461bcd60e51b815260206004820152602360248201527f436f6e7472696275746f722063616e6e6f74206a6f696e2072657669657720706044820152621bdbdb60ea1b6064820152608490fd5b60405162461bcd60e51b815260206004820152602960248201527f596f75206861766520616c7265616479206a6f696e656420746869732072657660448201526834b2bb903837b7b61760b91b6064820152608490fd5b60405162461bcd60e51b815260206004820152601660248201527513585e081b5bd9195c985d1bdc9cc81c995858da195960521b6044820152606490fd5b6040513d86823e3d90fd5b50346101fc5760403660031901126101fc576004604061195a612ead565b9282358152600260205220019060018060a01b0316600052602052602060ff604060002054166040519015158152f35b50346101fc57806003193601126101fc57602090604051908152f35b50346101fc5760203660031901126101fc576119c0612e92565b6119c8613792565b6001600160a01b03166119dc81151561348d565b806001600160601b0360a01b600e541617600e556001600160601b0360a01b600d541617600d5580f35b50346101fc5760403660031901126101fc576040611a22612ead565b91600435815280602052209060018060a01b0316600052602052602060ff604060002054166040519015158152f35b50346101fc5760203660031901126101fc5760209060043581526001825260016040818060a01b039220015416604051908152f35b5060403660031901126101fc57600435602435600e81101561127857600d546001600160a01b0316611ab98115156134cb565b60206040518092638a913fd160e01b82528180611ada87336004840161350e565b03915afa801561193157611af5918591611c91575b5061352e565b3415611c5f576011546001600160a01b0316156111f5578183526001602052604083203360018060a01b0360018301541603611c0657600990426004820155611b41836003830161327a565b01600160ff19825416179055818352600760205260408320600160ff19825416179055611b6d8261331b565b60115483906001600160a01b0316803b1561127c5760405163f8fb6abb60e01b8152600481018590523360248201529082908290604490829034905af18015610d5b57611bf1575b505060407f5270230622292ec2ca14140192d19bf46fc90b938045cbdf59adf69b2b38315591611be782518092612ef0565b426020820152a280f35b81611bfb91613123565b611278578238611bb5565b60405162461bcd60e51b815260206004820152602b60248201527f53656e646572206973206e6f7420636f6e7472696275746f72206f662074686960448201526a73206368616c6c656e676560a81b6064820152608490fd5b60405162461bcd60e51b815260206004820152600a6024820152695a65726f2076616c756560b01b6044820152606490fd5b611caa915060203d602011611262576112548183613123565b38611aef565b50346101fc5760403660031901126101fc576004356001600160401b03811161127c57611ce1903690600401612ec3565b602435600e811015610f7c57600d54611d27916020916001600160a01b0316611d0b8115156134cb565b6040518080958194638a913fd160e01b8352336004840161350e565b03915afa801561193157611d41918591611c91575061352e565b8015611ec9576040516020810190611d6e81611d6042868833886131e8565b03601f198101835282613123565b519020808452600160208190526040852082815590810180546001600160a01b031916331790559092906002016001600160401b038311611eb5579384611dc184611dbb60209854613080565b83613228565b8184601f8111600114611e545780611dee928591611e49575b508160011b916000199060031b1c19161790565b90555b33815260048552611e05846040832061333f565b82604051938493843782019081520390206040514281527fb92b508ece8b8953c73472a1c5584fa240c168063d1450a732310be6d9d07b2f843392a3604051908152f35b905085013538611dda565b508183528683209085601f198116855b818110611e9b575010611e81575b5050600184811b019055611df1565b840135600019600387901b60f8161c191690553880611e72565b878401358555600190940193928a01928892508a01611e64565b634e487b7160e01b85526041600452602485fd5b60405162461bcd60e51b8152602060048201526014602482015273547849642063616e6e6f7420626520656d70747960601b6044820152606490fd5b50346101fc5760203660031901126101fc576004358152600260205260408120604051918260208354918281520192825260208220915b818110611f5f5761031085611f5381870382613123565b60405191829182612f30565b82546001600160a01b0316845260209093019260019283019201611f3c565b50346101fc5760203660031901126101fc576001600160a01b03611fa0612e92565b1681526004602052604081206040518082602082945493848152019085526020852092855b8181106120c9575050611fda92500382613123565b611fe48151613429565b91805b82518110156120bb5780611ffd60019285613479565b518352816020526040832060ff600960405192612019846130ba565b80548452858060a01b038682015416602085015261203960028201613144565b60408501526120518360038301541660608601613210565b60048101546080850152600581015460a0850152600681015460c08501526120828360078301541660e0860161321c565b600881015461010085015201541661209981612f80565b6101208201526120a98287613479565b526120b48186613479565b5001611fe7565b604051806103108682613020565b8454835260019485019486945060209093019201611fc5565b50346101fc5760203660031901126101fc576120fc612e92565b612104613792565b6001600160a01b031661211881151561348d565b806001600160601b0360a01b60105416176010556001600160601b0360a01b600f541617600f5580f35b50346101fc5760203660031901126101fc576001600160a01b03612164612e92565b1681526005602052604081206040518082602082945493848152019085526020852092855b81811061227f57505061219e92500382613123565b6121a88151613429565b91805b82518110156120bb57806121c160019285613479565b518352816020526040832060ff6009604051926121dd846130ba565b80548452858060a01b03868201541660208501526121fd60028201613144565b60408501526122158360038301541660608601613210565b60048101546080850152600581015460a0850152600681015460c08501526122468360078301541660e0860161321c565b600881015461010085015201541661225d81612f80565b61012082015261226d8287613479565b526122788186613479565b50016121ab565b8454835260019485019486945060209093019201612189565b50346101fc5760203660031901126101fc576040610310916122b86133c6565b50600435815260016020522060ff6009604051926122d5846130ba565b8054845260018101546001600160a01b031660208501526122f860028201613144565b60408501526123108360038301541660608601613210565b60048101546080850152600581015460a0850152600681015460c08501526123418360078301541660e0860161321c565b600881015461010085015201541661235881612f80565b610120820152604051918291602083526020830190612f8a565b50346101fc5760403660031901126101fc5761238c612ead565b908060405161239a816130ec565b81815281602082015281604082015260608101606090528160808201528160a08201528160c08201528160e08201528161010082015281610120820152816101408201528161016082015281610180820152816101a08201526101c001526004358152600260205260409020600301600091600160a01b60019003168252602052604090206040519061242c826130ec565b80546001600160a01b031682526001810154602083019081526002820154604084019081529290919061246160038301613144565b91606082019283526004810154608083019360ff82161515855260a084018260081c60ff1661249090826133ba565b60c085018360101c60ff166124a590826133ba565b60e086018460181c60ff166124ba90826133ba565b6101008701908560201c60ff166124d190836133ba565b6101208801928660281c60ff166124e890856133ba565b6101408901948760301c60ff166124ff90876133ba565b6101608a01968860381c60ff1661251690896133ba565b6101808b019860401c60ff1661252c908a61321c565b60058a0154996101a08c019a8b52600601549a6101c081019b8c526040519e8f9e8f9260208452600160a01b6001900390511660208401525160408301525190606001525160808d016101e090526102008d0161258891612e2e565b9a51151560a08d01525160c08c0161259f91612f73565b5160e08b016125ad91612f73565b516101008a016125bc91612f73565b5161012089016125cb91612f73565b5161014088016125da91612f73565b5161016087016125e991612f73565b5161018086016125f891612f73565b516101a0850161260791612e6f565b516101c0840152516101e08301520390f35b50346101fc5760403660031901126101fc57612633612ead565b336001600160a01b0382160361264f576112c6906004356138ab565b63334bd91960e11b8252600482fd5b50346101fc5760203660031901126101fc576004358152600660205260408120604051918260208354918281520192825260208220915b8181106126ac5761031085611f5381870382613123565b82546001600160a01b0316845260209093019260019283019201612695565b506126d536612efd565b600f54604051633cdfd3c960e01b81523360048201526024810185905291929190602090829060449082906001600160a01b03165afa908115610f80578591612924575b50610f7c5734156128d1576013546001600160a01b0316801561288c57803b15610f425760405163bc4e5a5b60e01b8152600481018590523360248201529085908290604490829034905af18015610f8057612875575b508160209160018060a01b03600f5416908660a460405180978196829563b16b5ff160e01b84523360048501528b602485015260806044850152816084850152848401378181018301849052426064830152601f01601f191681010301925af1801561286a5761283b575b5033825260036020526127f1816040842061333f565b80825260066020526128063360408420613379565b6040519081524260208201527f182b8ad447b2c3da34821d9c6b8c59980440a81fd629ca4eb80abbe8309d162260403392a280f35b6020813d602011612862575b8161285460209383613123565b8101031261127857516127db565b3d9150612847565b6040513d85823e3d90fd5b84612884602093968593613123565b949150612770565b60405162461bcd60e51b815260206004820152601c60248201527f4368616c6c656e6765436f73744d616e61676572206e6f7420736574000000006044820152606490fd5b60405162461bcd60e51b815260206004820152602560248201527f5061796d656e7420616d6f756e74206d75737420626520677265617465722074604482015264068616e20360dc1b6064820152608490fd5b61293d915060203d602011611262576112548183613123565b38612719565b50346101fc5760403660031901126101fc576112c6600435612963612ead565b9061297f6112bc82600052600060205260016040600020015490565b613820565b50346101fc5760203660031901126101fc5760ff60036040602093600435815260018552200154166129b96040518092612ef0565bf35b50346101fc576101003660031901126101fc576129d6612e92565b6024356001600160401b038111611278576129f5903690600401612ec3565b60443590600e821015610f42576064356084359360048510156106865760c4356003811015610682576040516020810190612a3781611d6087898833886131e8565b5190209660405193612a48856130ba565b888552602085019160018060a01b0316968783526001600160401b038711612d07576040518b93929190612a86601f8a01601f191660200182613123565b8881523689880111610f42578460208a8d9b8f9a838601378301015260408801908152612ab7606089019283613210565b6080880192835260a0880193858552604060c08a019660a4358852612ae060e08c01998a61321c565b6101008b019960e4358b526101208c019c612afa81612f80565b8d5281526001602081905291902099518a55905190890180546001600160a01b0319166001600160a01b03929092169190911790555180516002890191906001600160401b038111612cf3578e612b5b82612b558654613080565b86613228565b602090601f8311600114612c905790612b889383612c855750508160011b916000199060031b1c19161790565b90555b51600e811015612c7157612ba2906003880161327a565b516004860155516005850155516006840155516003811015610b515790612bcf8392600760099501613292565b516008820155019051612be181612f80565b612bea81612f80565b60ff8019835416911617905583526004602052612c0a826040852061333f565b612c1381612f80565b60018103612c3c5750808252600760205260408220805460ff191660011790556117b09061331b565b600290612c4881612f80565b14612c51575080f35b808252600960205260408220805460ff191660011790556117b0906132f3565b634e487b7160e01b8c52602160045260248cfd5b0151905038806116e7565b9192601f198416858452828420935b818110612cdb5750908460019594939210612cc2575b505050811b019055612b8b565b015160001960f88460031b161c19169055388080612cb5565b92936020600181928786015181550195019301612c9f565b634e487b7160e01b8f52604160045260248ffd5b634e487b7160e01b8b52604160045260248bfd5b50346101fc5760203660031901126101fc5760ff60076040602093600435815260018552200154166129b96040518092612e6f565b50346101fc5760203660031901126101fc5760206101f4600435600052600060205260016040600020015490565b50346101fc5760203660031901126101fc5760066040602092600435815260018452200154604051908152f35b50346101fc5760203660031901126101fc5761153b6002604061031093600435815260016020522001613144565b90503461127c57602036600319011261127c5760043563ffffffff60e01b81168091036112785760209250637965db0b60e01b8114908115612e1d575b5015158152f35b6301ffc9a760e01b14905038612e16565b919082519283825260005b848110612e5a575050826000602080949584010152601f8019910116010190565b80602080928401015182828601015201612e39565b906003821015612e7c5752565b634e487b7160e01b600052602160045260246000fd5b600435906001600160a01b0382168203612ea857565b600080fd5b602435906001600160a01b0382168203612ea857565b9181601f84011215612ea8578235916001600160401b038311612ea85760208381860195010111612ea857565b90600e821015612e7c5752565b906040600319830112612ea85760043591602435906001600160401b038211612ea857612f2c91600401612ec3565b9091565b602060408183019282815284518094520192019060005b818110612f545750505090565b82516001600160a01b0316845260209384019390920191600101612f47565b906002821015612e7c5752565b60041115612e7c57565b908151815260018060a01b03602083015116602082015261012080612fc060408501516101406040860152610140850190612e2e565b93612fd360608201516060860190612ef0565b6080810151608085015260a081015160a085015260c081015160c085015261300360e082015160e0860190612e6f565b61010081015161010085015201519161301b83612f80565b015290565b602081016020825282518091526040820191602060408360051b8301019401926000915b83831061305357505050505090565b9091929394602080613071600193603f198682030187528951612f8a565b97019301930191939290613044565b90600182811c921680156130b0575b602083101461309a57565b634e487b7160e01b600052602260045260246000fd5b91607f169161308f565b61014081019081106001600160401b038211176130d657604052565b634e487b7160e01b600052604160045260246000fd5b6101e081019081106001600160401b038211176130d657604052565b60c081019081106001600160401b038211176130d657604052565b90601f801991011681019081106001600160401b038211176130d657604052565b906040519182600082549261315884613080565b80845293600181169081156131c6575060011461317f575b5061317d92500383613123565b565b90506000929192526020600020906000915b8183106131aa57505090602061317d9282010138613170565b6020919350806001915483858901015201910190918492613191565b90506020925061317d94915060ff191682840152151560051b82010138613170565b90928092603495946001600160601b03199060601b1683526014830137019060148201520190565b600e821015612e7c5752565b6003821015612e7c5752565b601f821161323557505050565b6000526020600020906020601f840160051c83019310613270575b601f0160051c01905b818110613264575050565b60008155600101613259565b9091508190613250565b90600e811015612e7c5760ff80198354169116179055565b906003811015612e7c5760ff80198354169116179055565b6008548110156132c557600860005260206000200190600090565b634e487b7160e01b600052603260045260246000fd5b80548210156132c55760005260206000200190600090565b600a54600160401b8110156130d657610c448160016133179301600a55600a6132db565b9055565b600854600160401b8110156130d657610c44816001613317930160085560086132db565b805490600160401b8210156130d65781610c44916001613317940181556132db565b90816020910312612ea857518015158103612ea85790565b8054600160401b8110156130d657613396916001820181556132db565b81546001600160a01b0393841660039290921b91821b9390911b1916919091179055565b6002821015612e7c5752565b604051906133d3826130ba565b600061012083828152826020820152606060408201528260608201528260808201528260a08201528260c08201528260e0820152826101008201520152565b6001600160401b0381116130d65760051b60200190565b9061343382613412565b6134406040519182613123565b8281528092613451601f1991613412565b019060005b82811061346257505050565b60209061346d6133c6565b82828501015201613456565b80518210156132c55760209160051b010190565b1561349457565b60405162461bcd60e51b815260206004820152600f60248201526e496e76616c6964206164647265737360881b6044820152606490fd5b156134d257565b60405162461bcd60e51b8152602060048201526014602482015273149bdb19481b585b9859d95c881b9bdd081cd95d60621b6044820152606490fd5b6001600160a01b03909116815260408101929161317d9160200190612ef0565b1561353557565b60405162461bcd60e51b815260206004820152602960248201527f596f7520617265206e6f74206120636f6e7472696275746f7220666f7220746860448201526834b9903237b6b0b4b760b91b6064820152608490fd5b1561359357565b60405162461bcd60e51b815260206004820152601b60248201527f4368616c6c656e676520616c72656164792066696e616c6973656400000000006044820152606490fd5b156135df57565b60405162461bcd60e51b815260206004820152602760248201527f596f7520617265206e6f742061206d6f64657261746f7220666f722074686973604482015266103237b6b0b4b760c91b6064820152608490fd5b1561363b57565b60405162461bcd60e51b815260206004820152602860248201527f4d6f64657261746f7220686173206e6f74206a6f696e656420746865207265766044820152671a595dc81c1bdbdb60c21b6064820152608490fd5b60001981146136a05760010190565b634e487b7160e01b600052601160045260246000fd5b919082018092116136a057565b818102929181159184041417156136a057565b81156136e0570490565b634e487b7160e01b600052601260045260246000fd5b919082039182116136a057565b90816000526002602052600460406000200160018060a01b03821660005260205261373560ff60406000205416613634565b81600052600260205260036040600020019060018060a01b031660005260205260066040600020015490600052600160205260066040600020015490818110156000146137895790613786916136f6565b90565b613786916136f6565b3360009081527fad3228b676f7d3cd4284a5443f17f1962b36e491b30a40b2405849e597ba5fb5602052604090205460ff16156137cb57565b63e2517d3f60e01b60005233600452600060245260446000fd5b60008181526020818152604080832033845290915290205460ff16156138085750565b63e2517d3f60e01b6000523360045260245260446000fd5b6000818152602081815260408083206001600160a01b038616845290915290205460ff166138a4576000818152602081815260408083206001600160a01b0395909516808452949091528120805460ff19166001179055339291907f2f8788117e7eff1d82e926ec794901d17c78024a50270940304540a733656f0d9080a4600190565b5050600090565b6000818152602081815260408083206001600160a01b038616845290915290205460ff16156138a4576000818152602081815260408083206001600160a01b0395909516808452949091528120805460ff19169055339291907ff6391f5c32d9c69d2a47ea670b442974b53935d1edc7fd64eb21e047a839171b9080a4600190565b61395d61397c60009392849360405193849263319af33360e01b6020850152604060248501526064840190612e2e565b6001600160a01b0391909116604483015203601f198101835282613123565b6020815191016a636f6e736f6c652e6c6f675afa50565b1561399a57565b60405162461bcd60e51b815260206004820152602160248201527f4552524f523a204e6567617469766520646f6d61696e2072657075746174696f6044820152603760f91b6064820152608490fd5b600090815260016020526040812060030154600b54929392829160ff16906001600160a01b0316825b8654851015613afe57613a2585886132db565b9054600391821b1c6001600160a01b0316600081815291890160209081526040928390209251630cf571c160e11b81529293929182908190613a6c9089906004840161350e565b0381875afa908115613af257600091613abf575b5091613ab0613ab692613aaa6005613aa187611063600060019a1215613993565b940154846136c3565b906136b6565b956136b6565b94019392613a12565b906020823d8211613aea575b81613ad860209383613123565b810103126101fc575051613ab0613a80565b3d9150613acb565b6040513d6000823e3d90fd5b9495505050905080156138a457613786916136d6565b600b54600093928492916001600160a01b031690835b8154871015613ccb576040613b3f88846132db565b60018060a01b0391549060031b1c1660009060018060a01b03168152600384016020522060018060a01b0381541690856000526001602052613ba3602060ff6003604060002001541660405180938192630cf571c160e11b8352876004840161350e565b0381895afa908115613af257600091613c99575b50600193613aaa613c9094600660009586613bd4613c8a97613d94565b978894613c6e606060405192613bea8285613123565b603284527f5b4368616c6c656e67654d616e616765725d3a206d6f64657261746f72202573602085015271206861732072657075746174696f6e20257360701b6040850152613c54604051948593630d26b92560e01b602086015260248501526084840190612e2e565b90604483015288606483015203601f198101835282613123565b6020815191016a636f6e736f6c652e6c6f675afa5001546136c3565b966136b6565b96019593613b2a565b906020823d8211613cc3575b81613cb260209383613123565b810103126101fc5750516001613bb7565b3d9150613ca5565b9495505050508015613ce057613786916136d6565b5050600080611d60613d7a604051613cf9608082613123565b604481527f5b4368616c6c656e67654d616e616765725d3a2072657475726e20617661726160208201527f67652073636f72652030206265636175736520746f74616c5f7765696768742060408201526303d3d20360e41b606082015260405192839163104c13eb60e21b6020840152602060248401526044830190612e2e565b6020815191016a636f6e736f6c652e6c6f675afa50600090565b60008112613d9f5790565b5060009056fea2646970667358221220366017e4c856cea642857066db907552b0ab2349d39f87b2c16f2ff9e15c433f64736f6c634300081a0033ad3228b676f7d3cd4284a5443f17f1962b36e491b30a40b2405849e597ba5fb5",
  "linkReferences": {},
  "deployedLinkReferences": {}
}