{
  "_format": "hh-sol-artifact-1",
  "contractName": "ChallengeManager",
  "sourceName": "contracts/ChallengeManager.sol",
  "abi": [
    {
      "inputs": [],
      "stateMutability": "nonpayable",
      "type": "constructor"
    },
    {
      "inputs": [],
      "name": "AccessControlBadConfirmation",
      "type": "error"
    },
    {
      "inputs": [
        {
          "internalType": "address",
          "name": "account",
          "type": "address"
        },
        {
          "internalType": "bytes32",
          "name": "neededRole",
          "type": "bytes32"
        }
      ],
      "name": "AccessControlUnauthorizedAccount",
      "type": "error"
    },
    {
      "anonymous": false,
      "inputs": [
        {
          "indexed": true,
          "internalType": "address",
          "name": "contributor",
          "type": "address"
        },
        {
          "indexed": false,
          "internalType": "string",
          "name": "title_url",
          "type": "string"
        },
        {
          "indexed": false,
          "internalType": "string",
          "name": "description_url",
          "type": "string"
        },
        {
          "indexed": false,
          "internalType": "enum SystemEnums.Domain",
          "name": "category",
          "type": "uint8"
        },
        {
          "indexed": false,
          "internalType": "uint256",
          "name": "contribute_at",
          "type": "uint256"
        }
      ],
      "name": "ChallengeContributed",
      "type": "event"
    },
    {
      "anonymous": false,
      "inputs": [
        {
          "indexed": true,
          "internalType": "uint256",
          "name": "challengeId",
          "type": "uint256"
        },
        {
          "indexed": false,
          "internalType": "enum SystemEnums.ChallengeStatus",
          "name": "status",
          "type": "uint8"
        },
        {
          "indexed": false,
          "internalType": "uint256",
          "name": "averagePercent",
          "type": "uint256"
        }
      ],
      "name": "ChallengeFinalized",
      "type": "event"
    },
    {
      "anonymous": false,
      "inputs": [
        {
          "indexed": true,
          "internalType": "address",
          "name": "user",
          "type": "address"
        },
        {
          "indexed": false,
          "internalType": "uint256",
          "name": "challengeId",
          "type": "uint256"
        },
        {
          "indexed": false,
          "internalType": "uint256",
          "name": "joinedAt",
          "type": "uint256"
        }
      ],
      "name": "ChallengeJoinedByUser",
      "type": "event"
    },
    {
      "anonymous": false,
      "inputs": [
        {
          "indexed": true,
          "internalType": "uint256",
          "name": "challenge_id",
          "type": "uint256"
        },
        {
          "indexed": true,
          "internalType": "address",
          "name": "moderator",
          "type": "address"
        }
      ],
      "name": "ReviewPoolJoined",
      "type": "event"
    },
    {
      "anonymous": false,
      "inputs": [
        {
          "indexed": true,
          "internalType": "bytes32",
          "name": "role",
          "type": "bytes32"
        },
        {
          "indexed": true,
          "internalType": "bytes32",
          "name": "previousAdminRole",
          "type": "bytes32"
        },
        {
          "indexed": true,
          "internalType": "bytes32",
          "name": "newAdminRole",
          "type": "bytes32"
        }
      ],
      "name": "RoleAdminChanged",
      "type": "event"
    },
    {
      "anonymous": false,
      "inputs": [
        {
          "indexed": true,
          "internalType": "bytes32",
          "name": "role",
          "type": "bytes32"
        },
        {
          "indexed": true,
          "internalType": "address",
          "name": "account",
          "type": "address"
        },
        {
          "indexed": true,
          "internalType": "address",
          "name": "sender",
          "type": "address"
        }
      ],
      "name": "RoleGranted",
      "type": "event"
    },
    {
      "anonymous": false,
      "inputs": [
        {
          "indexed": true,
          "internalType": "bytes32",
          "name": "role",
          "type": "bytes32"
        },
        {
          "indexed": true,
          "internalType": "address",
          "name": "account",
          "type": "address"
        },
        {
          "indexed": true,
          "internalType": "address",
          "name": "sender",
          "type": "address"
        }
      ],
      "name": "RoleRevoked",
      "type": "event"
    },
    {
      "inputs": [],
      "name": "DEFAULT_ADMIN_ROLE",
      "outputs": [
        {
          "internalType": "bytes32",
          "name": "",
          "type": "bytes32"
        }
      ],
      "stateMutability": "view",
      "type": "function"
    },
    {
      "inputs": [
        {
          "internalType": "string",
          "name": "_title_url",
          "type": "string"
        },
        {
          "internalType": "string",
          "name": "_description_url",
          "type": "string"
        },
        {
          "internalType": "enum SystemEnums.Domain",
          "name": "_category",
          "type": "uint8"
        }
      ],
      "name": "contributeChallenge",
      "outputs": [],
      "stateMutability": "payable",
      "type": "function"
    },
    {
      "inputs": [],
      "name": "getApprovedChallenges",
      "outputs": [
        {
          "components": [
            {
              "internalType": "uint256",
              "name": "id",
              "type": "uint256"
            },
            {
              "internalType": "address",
              "name": "contributor",
              "type": "address"
            },
            {
              "internalType": "string",
              "name": "title_url",
              "type": "string"
            },
            {
              "internalType": "string",
              "name": "description_url",
              "type": "string"
            },
            {
              "internalType": "enum SystemEnums.Domain",
              "name": "category",
              "type": "uint8"
            },
            {
              "internalType": "uint256",
              "name": "contribute_at",
              "type": "uint256"
            },
            {
              "internalType": "enum SystemEnums.ChallengeStatus",
              "name": "status",
              "type": "uint8"
            },
            {
              "internalType": "uint256",
              "name": "quality_score",
              "type": "uint256"
            },
            {
              "internalType": "enum SystemEnums.DifficultyLevel",
              "name": "difficulty_level",
              "type": "uint8"
            },
            {
              "internalType": "uint256",
              "name": "solve_time",
              "type": "uint256"
            },
            {
              "internalType": "uint256",
              "name": "completed",
              "type": "uint256"
            }
          ],
          "internalType": "struct ChallengeManager.Challenge[]",
          "name": "",
          "type": "tuple[]"
        }
      ],
      "stateMutability": "view",
      "type": "function"
    },
    {
      "inputs": [
        {
          "internalType": "uint256",
          "name": "_challenge_id",
          "type": "uint256"
        }
      ],
      "name": "getChallengeById",
      "outputs": [
        {
          "components": [
            {
              "internalType": "uint256",
              "name": "id",
              "type": "uint256"
            },
            {
              "internalType": "address",
              "name": "contributor",
              "type": "address"
            },
            {
              "internalType": "string",
              "name": "title_url",
              "type": "string"
            },
            {
              "internalType": "string",
              "name": "description_url",
              "type": "string"
            },
            {
              "internalType": "enum SystemEnums.Domain",
              "name": "category",
              "type": "uint8"
            },
            {
              "internalType": "uint256",
              "name": "contribute_at",
              "type": "uint256"
            },
            {
              "internalType": "enum SystemEnums.ChallengeStatus",
              "name": "status",
              "type": "uint8"
            },
            {
              "internalType": "uint256",
              "name": "quality_score",
              "type": "uint256"
            },
            {
              "internalType": "enum SystemEnums.DifficultyLevel",
              "name": "difficulty_level",
              "type": "uint8"
            },
            {
              "internalType": "uint256",
              "name": "solve_time",
              "type": "uint256"
            },
            {
              "internalType": "uint256",
              "name": "completed",
              "type": "uint256"
            }
          ],
          "internalType": "struct ChallengeManager.Challenge",
          "name": "",
          "type": "tuple"
        }
      ],
      "stateMutability": "view",
      "type": "function"
    },
    {
      "inputs": [
        {
          "internalType": "uint256",
          "name": "_challenge_id",
          "type": "uint256"
        }
      ],
      "name": "getChallengeContributorById",
      "outputs": [
        {
          "internalType": "address",
          "name": "",
          "type": "address"
        }
      ],
      "stateMutability": "view",
      "type": "function"
    },
    {
      "inputs": [
        {
          "internalType": "uint256",
          "name": "_challenge_id",
          "type": "uint256"
        }
      ],
      "name": "getChallengeDifficultyById",
      "outputs": [
        {
          "internalType": "enum SystemEnums.DifficultyLevel",
          "name": "",
          "type": "uint8"
        }
      ],
      "stateMutability": "view",
      "type": "function"
    },
    {
      "inputs": [
        {
          "internalType": "uint256",
          "name": "_challenge_id",
          "type": "uint256"
        }
      ],
      "name": "getChallengeDomainById",
      "outputs": [
        {
          "internalType": "enum SystemEnums.Domain",
          "name": "",
          "type": "uint8"
        }
      ],
      "stateMutability": "view",
      "type": "function"
    },
    {
      "inputs": [
        {
          "internalType": "uint256",
          "name": "_challenge_id",
          "type": "uint256"
        }
      ],
      "name": "getChallengeFinalizedStatus",
      "outputs": [
        {
          "internalType": "bool",
          "name": "",
          "type": "bool"
        }
      ],
      "stateMutability": "view",
      "type": "function"
    },
    {
      "inputs": [
        {
          "internalType": "uint256",
          "name": "challengeId",
          "type": "uint256"
        }
      ],
      "name": "getChallengeParticipants",
      "outputs": [
        {
          "internalType": "address[]",
          "name": "",
          "type": "address[]"
        }
      ],
      "stateMutability": "view",
      "type": "function"
    },
    {
      "inputs": [
        {
          "internalType": "uint256",
          "name": "_challenge_id",
          "type": "uint256"
        }
      ],
      "name": "getChallengeQualityScoreById",
      "outputs": [
        {
          "internalType": "uint256",
          "name": "",
          "type": "uint256"
        }
      ],
      "stateMutability": "view",
      "type": "function"
    },
    {
      "inputs": [
        {
          "internalType": "uint256",
          "name": "_challenge_id",
          "type": "uint256"
        }
      ],
      "name": "getChallengeTitleById",
      "outputs": [
        {
          "internalType": "string",
          "name": "",
          "type": "string"
        }
      ],
      "stateMutability": "view",
      "type": "function"
    },
    {
      "inputs": [
        {
          "internalType": "address",
          "name": "_contributor_address",
          "type": "address"
        }
      ],
      "name": "getChallengesByContributor",
      "outputs": [
        {
          "components": [
            {
              "internalType": "uint256",
              "name": "id",
              "type": "uint256"
            },
            {
              "internalType": "address",
              "name": "contributor",
              "type": "address"
            },
            {
              "internalType": "string",
              "name": "title_url",
              "type": "string"
            },
            {
              "internalType": "string",
              "name": "description_url",
              "type": "string"
            },
            {
              "internalType": "enum SystemEnums.Domain",
              "name": "category",
              "type": "uint8"
            },
            {
              "internalType": "uint256",
              "name": "contribute_at",
              "type": "uint256"
            },
            {
              "internalType": "enum SystemEnums.ChallengeStatus",
              "name": "status",
              "type": "uint8"
            },
            {
              "internalType": "uint256",
              "name": "quality_score",
              "type": "uint256"
            },
            {
              "internalType": "enum SystemEnums.DifficultyLevel",
              "name": "difficulty_level",
              "type": "uint8"
            },
            {
              "internalType": "uint256",
              "name": "solve_time",
              "type": "uint256"
            },
            {
              "internalType": "uint256",
              "name": "completed",
              "type": "uint256"
            }
          ],
          "internalType": "struct ChallengeManager.Challenge[]",
          "name": "",
          "type": "tuple[]"
        }
      ],
      "stateMutability": "view",
      "type": "function"
    },
    {
      "inputs": [
        {
          "internalType": "address",
          "name": "_moderator_address",
          "type": "address"
        }
      ],
      "name": "getChallengesByModerator",
      "outputs": [
        {
          "components": [
            {
              "internalType": "uint256",
              "name": "id",
              "type": "uint256"
            },
            {
              "internalType": "address",
              "name": "contributor",
              "type": "address"
            },
            {
              "internalType": "string",
              "name": "title_url",
              "type": "string"
            },
            {
              "internalType": "string",
              "name": "description_url",
              "type": "string"
            },
            {
              "internalType": "enum SystemEnums.Domain",
              "name": "category",
              "type": "uint8"
            },
            {
              "internalType": "uint256",
              "name": "contribute_at",
              "type": "uint256"
            },
            {
              "internalType": "enum SystemEnums.ChallengeStatus",
              "name": "status",
              "type": "uint8"
            },
            {
              "internalType": "uint256",
              "name": "quality_score",
              "type": "uint256"
            },
            {
              "internalType": "enum SystemEnums.DifficultyLevel",
              "name": "difficulty_level",
              "type": "uint8"
            },
            {
              "internalType": "uint256",
              "name": "solve_time",
              "type": "uint256"
            },
            {
              "internalType": "uint256",
              "name": "completed",
              "type": "uint256"
            }
          ],
          "internalType": "struct ChallengeManager.Challenge[]",
          "name": "",
          "type": "tuple[]"
        }
      ],
      "stateMutability": "view",
      "type": "function"
    },
    {
      "inputs": [
        {
          "internalType": "uint256",
          "name": "_challenge_id",
          "type": "uint256"
        },
        {
          "internalType": "address",
          "name": "_moderator_address",
          "type": "address"
        }
      ],
      "name": "getJoinReviewPoolStatus",
      "outputs": [
        {
          "internalType": "bool",
          "name": "",
          "type": "bool"
        }
      ],
      "stateMutability": "view",
      "type": "function"
    },
    {
      "inputs": [
        {
          "internalType": "address",
          "name": "_user_address",
          "type": "address"
        }
      ],
      "name": "getJoinedChallengesByUserForPreview",
      "outputs": [
        {
          "components": [
            {
              "internalType": "uint256",
              "name": "challenge_id",
              "type": "uint256"
            },
            {
              "internalType": "string",
              "name": "title_url",
              "type": "string"
            },
            {
              "internalType": "string",
              "name": "description_url",
              "type": "string"
            },
            {
              "internalType": "enum SystemEnums.Domain",
              "name": "domain",
              "type": "uint8"
            },
            {
              "internalType": "enum SystemEnums.SolutionProgress",
              "name": "progress",
              "type": "uint8"
            },
            {
              "internalType": "uint256",
              "name": "joined_at",
              "type": "uint256"
            },
            {
              "internalType": "uint256",
              "name": "score",
              "type": "uint256"
            }
          ],
          "internalType": "struct ChallengeManager.JoinedChallengesPreview[]",
          "name": "",
          "type": "tuple[]"
        }
      ],
      "stateMutability": "view",
      "type": "function"
    },
    {
      "inputs": [
        {
          "internalType": "uint256",
          "name": "challenge_id",
          "type": "uint256"
        },
        {
          "internalType": "address",
          "name": "_moderator_address",
          "type": "address"
        }
      ],
      "name": "getModeratorReviewOfChallenge",
      "outputs": [
        {
          "components": [
            {
              "internalType": "address",
              "name": "moderator",
              "type": "address"
            },
            {
              "internalType": "uint256",
              "name": "challenge_id",
              "type": "uint256"
            },
            {
              "internalType": "uint256",
              "name": "review_time",
              "type": "uint256"
            },
            {
              "internalType": "string",
              "name": "review_txid",
              "type": "string"
            },
            {
              "internalType": "bool",
              "name": "is_submitted",
              "type": "bool"
            },
            {
              "internalType": "enum SystemEnums.QualityFactorAnswer",
              "name": "relevance",
              "type": "uint8"
            },
            {
              "internalType": "enum SystemEnums.QualityFactorAnswer",
              "name": "technical_correctness",
              "type": "uint8"
            },
            {
              "internalType": "enum SystemEnums.QualityFactorAnswer",
              "name": "completeness",
              "type": "uint8"
            },
            {
              "internalType": "enum SystemEnums.QualityFactorAnswer",
              "name": "clarity",
              "type": "uint8"
            },
            {
              "internalType": "enum SystemEnums.QualityFactorAnswer",
              "name": "originality",
              "type": "uint8"
            },
            {
              "internalType": "enum SystemEnums.QualityFactorAnswer",
              "name": "unbiased",
              "type": "uint8"
            },
            {
              "internalType": "enum SystemEnums.QualityFactorAnswer",
              "name": "plagiarism_free",
              "type": "uint8"
            },
            {
              "internalType": "enum SystemEnums.DifficultyLevel",
              "name": "suggested_difficulty",
              "type": "uint8"
            },
            {
              "internalType": "enum SystemEnums.Domain",
              "name": "suggested_category",
              "type": "uint8"
            },
            {
              "internalType": "uint256",
              "name": "suggested_solve_time",
              "type": "uint256"
            },
            {
              "internalType": "uint256",
              "name": "review_score",
              "type": "uint256"
            }
          ],
          "internalType": "struct ChallengeManager.ModeratorReview",
          "name": "",
          "type": "tuple"
        }
      ],
      "stateMutability": "view",
      "type": "function"
    },
    {
      "inputs": [
        {
          "internalType": "address",
          "name": "_moderator_address",
          "type": "address"
        },
        {
          "internalType": "uint256",
          "name": "_challenge_id",
          "type": "uint256"
        }
      ],
      "name": "getModeratorReviewTxId",
      "outputs": [
        {
          "internalType": "string",
          "name": "",
          "type": "string"
        }
      ],
      "stateMutability": "view",
      "type": "function"
    },
    {
      "inputs": [],
      "name": "getPendingChallenges",
      "outputs": [
        {
          "components": [
            {
              "internalType": "uint256",
              "name": "id",
              "type": "uint256"
            },
            {
              "internalType": "address",
              "name": "contributor",
              "type": "address"
            },
            {
              "internalType": "string",
              "name": "title_url",
              "type": "string"
            },
            {
              "internalType": "string",
              "name": "description_url",
              "type": "string"
            },
            {
              "internalType": "enum SystemEnums.Domain",
              "name": "category",
              "type": "uint8"
            },
            {
              "internalType": "uint256",
              "name": "contribute_at",
              "type": "uint256"
            },
            {
              "internalType": "enum SystemEnums.ChallengeStatus",
              "name": "status",
              "type": "uint8"
            },
            {
              "internalType": "uint256",
              "name": "quality_score",
              "type": "uint256"
            },
            {
              "internalType": "enum SystemEnums.DifficultyLevel",
              "name": "difficulty_level",
              "type": "uint8"
            },
            {
              "internalType": "uint256",
              "name": "solve_time",
              "type": "uint256"
            },
            {
              "internalType": "uint256",
              "name": "completed",
              "type": "uint256"
            }
          ],
          "internalType": "struct ChallengeManager.Challenge[]",
          "name": "",
          "type": "tuple[]"
        }
      ],
      "stateMutability": "view",
      "type": "function"
    },
    {
      "inputs": [
        {
          "internalType": "uint256",
          "name": "_challenge_id",
          "type": "uint256"
        }
      ],
      "name": "getReviewPoolModerators",
      "outputs": [
        {
          "internalType": "address[]",
          "name": "",
          "type": "address[]"
        }
      ],
      "stateMutability": "view",
      "type": "function"
    },
    {
      "inputs": [
        {
          "internalType": "uint256",
          "name": "_challenge_id",
          "type": "uint256"
        }
      ],
      "name": "getReviewPoolSize",
      "outputs": [
        {
          "internalType": "uint256",
          "name": "",
          "type": "uint256"
        }
      ],
      "stateMutability": "view",
      "type": "function"
    },
    {
      "inputs": [],
      "name": "getReviewQuorum",
      "outputs": [
        {
          "internalType": "uint256",
          "name": "",
          "type": "uint256"
        }
      ],
      "stateMutability": "pure",
      "type": "function"
    },
    {
      "inputs": [
        {
          "internalType": "bytes32",
          "name": "role",
          "type": "bytes32"
        }
      ],
      "name": "getRoleAdmin",
      "outputs": [
        {
          "internalType": "bytes32",
          "name": "",
          "type": "bytes32"
        }
      ],
      "stateMutability": "view",
      "type": "function"
    },
    {
      "inputs": [
        {
          "internalType": "uint256",
          "name": "_challenge_id",
          "type": "uint256"
        },
        {
          "internalType": "address",
          "name": "_moderator_address",
          "type": "address"
        }
      ],
      "name": "getScoreDeviationOfModeratorReview",
      "outputs": [
        {
          "internalType": "uint256",
          "name": "",
          "type": "uint256"
        }
      ],
      "stateMutability": "view",
      "type": "function"
    },
    {
      "inputs": [
        {
          "internalType": "bytes32",
          "name": "role",
          "type": "bytes32"
        },
        {
          "internalType": "address",
          "name": "account",
          "type": "address"
        }
      ],
      "name": "grantRole",
      "outputs": [],
      "stateMutability": "nonpayable",
      "type": "function"
    },
    {
      "inputs": [
        {
          "internalType": "bytes32",
          "name": "role",
          "type": "bytes32"
        },
        {
          "internalType": "address",
          "name": "account",
          "type": "address"
        }
      ],
      "name": "hasRole",
      "outputs": [
        {
          "internalType": "bool",
          "name": "",
          "type": "bool"
        }
      ],
      "stateMutability": "view",
      "type": "function"
    },
    {
      "inputs": [
        {
          "internalType": "uint256",
          "name": "_challenge_id",
          "type": "uint256"
        },
        {
          "internalType": "string",
          "name": "_review_txid",
          "type": "string"
        }
      ],
      "name": "joinReviewPool",
      "outputs": [],
      "stateMutability": "nonpayable",
      "type": "function"
    },
    {
      "inputs": [
        {
          "internalType": "bytes32",
          "name": "role",
          "type": "bytes32"
        },
        {
          "internalType": "address",
          "name": "callerConfirmation",
          "type": "address"
        }
      ],
      "name": "renounceRole",
      "outputs": [],
      "stateMutability": "nonpayable",
      "type": "function"
    },
    {
      "inputs": [
        {
          "internalType": "bytes32",
          "name": "role",
          "type": "bytes32"
        },
        {
          "internalType": "address",
          "name": "account",
          "type": "address"
        }
      ],
      "name": "revokeRole",
      "outputs": [],
      "stateMutability": "nonpayable",
      "type": "function"
    },
    {
      "inputs": [
        {
          "internalType": "address",
          "name": "_contributor",
          "type": "address"
        },
        {
          "internalType": "string",
          "name": "_title_url",
          "type": "string"
        },
        {
          "internalType": "string",
          "name": "_description_url",
          "type": "string"
        },
        {
          "internalType": "enum SystemEnums.Domain",
          "name": "_category",
          "type": "uint8"
        },
        {
          "internalType": "uint256",
          "name": "_contribute_at",
          "type": "uint256"
        },
        {
          "internalType": "enum SystemEnums.ChallengeStatus",
          "name": "_status",
          "type": "uint8"
        },
        {
          "internalType": "uint256",
          "name": "_quality_score",
          "type": "uint256"
        },
        {
          "internalType": "enum SystemEnums.DifficultyLevel",
          "name": "_difficulty_level",
          "type": "uint8"
        },
        {
          "internalType": "uint256",
          "name": "_solve_time",
          "type": "uint256"
        }
      ],
      "name": "seedChallenge",
      "outputs": [],
      "stateMutability": "nonpayable",
      "type": "function"
    },
    {
      "inputs": [
        {
          "internalType": "address",
          "name": "_address",
          "type": "address"
        }
      ],
      "name": "setChallengeCostManagerAddress",
      "outputs": [],
      "stateMutability": "nonpayable",
      "type": "function"
    },
    {
      "inputs": [
        {
          "internalType": "address",
          "name": "_address",
          "type": "address"
        }
      ],
      "name": "setModerationEscrowAddress",
      "outputs": [],
      "stateMutability": "nonpayable",
      "type": "function"
    },
    {
      "inputs": [
        {
          "internalType": "address",
          "name": "_address",
          "type": "address"
        }
      ],
      "name": "setReputationManagerAddress",
      "outputs": [],
      "stateMutability": "nonpayable",
      "type": "function"
    },
    {
      "inputs": [
        {
          "internalType": "address",
          "name": "_address",
          "type": "address"
        }
      ],
      "name": "setRoleManagerAddress",
      "outputs": [],
      "stateMutability": "nonpayable",
      "type": "function"
    },
    {
      "inputs": [
        {
          "internalType": "address",
          "name": "_address",
          "type": "address"
        }
      ],
      "name": "setSolutionManagerAddress",
      "outputs": [],
      "stateMutability": "nonpayable",
      "type": "function"
    },
    {
      "inputs": [
        {
          "internalType": "uint256",
          "name": "_challenge_id",
          "type": "uint256"
        },
        {
          "internalType": "enum SystemEnums.QualityFactorAnswer",
          "name": "_relevance",
          "type": "uint8"
        },
        {
          "internalType": "enum SystemEnums.QualityFactorAnswer",
          "name": "_technical_correctness",
          "type": "uint8"
        },
        {
          "internalType": "enum SystemEnums.QualityFactorAnswer",
          "name": "_completeness",
          "type": "uint8"
        },
        {
          "internalType": "enum SystemEnums.QualityFactorAnswer",
          "name": "_clarity",
          "type": "uint8"
        },
        {
          "internalType": "enum SystemEnums.QualityFactorAnswer",
          "name": "_originality",
          "type": "uint8"
        },
        {
          "internalType": "enum SystemEnums.QualityFactorAnswer",
          "name": "_unbiased",
          "type": "uint8"
        },
        {
          "internalType": "enum SystemEnums.QualityFactorAnswer",
          "name": "_plagiarism_free",
          "type": "uint8"
        },
        {
          "internalType": "enum SystemEnums.DifficultyLevel",
          "name": "_suggested_difficulty",
          "type": "uint8"
        },
        {
          "internalType": "enum SystemEnums.Domain",
          "name": "_suggested_category",
          "type": "uint8"
        },
        {
          "internalType": "uint256",
          "name": "_suggested_solve_time",
          "type": "uint256"
        }
      ],
      "name": "submitModeratorReview",
      "outputs": [],
      "stateMutability": "nonpayable",
      "type": "function"
    },
    {
      "inputs": [
        {
          "internalType": "bytes4",
          "name": "interfaceId",
          "type": "bytes4"
        }
      ],
      "name": "supportsInterface",
      "outputs": [
        {
          "internalType": "bool",
          "name": "",
          "type": "bool"
        }
      ],
      "stateMutability": "view",
      "type": "function"
    },
    {
      "inputs": [],
      "name": "total_challenges",
      "outputs": [
        {
          "internalType": "uint256",
          "name": "",
          "type": "uint256"
        }
      ],
      "stateMutability": "view",
      "type": "function"
    },
    {
      "inputs": [
        {
          "internalType": "uint256",
          "name": "_challenge_id",
          "type": "uint256"
        }
      ],
      "name": "userCompleteChallenge",
      "outputs": [],
      "stateMutability": "nonpayable",
      "type": "function"
    },
    {
      "inputs": [
        {
          "internalType": "uint256",
          "name": "_challenge_id",
          "type": "uint256"
        },
        {
          "internalType": "string",
          "name": "_solution_base_txid",
          "type": "string"
        }
      ],
      "name": "userJoinChallenge",
      "outputs": [],
      "stateMutability": "payable",
      "type": "function"
    }
  ],
  "bytecode": "0x60806040523460245760006015556014336029565b506040516146a490816100b78239f35b600080fd5b6001600160a01b038116600090815260008051602061475b833981519152602052604090205460ff1660b0576001600160a01b0316600081815260008051602061475b83398151915260205260408120805460ff191660011790553391907f2f8788117e7eff1d82e926ec794901d17c78024a50270940304540a733656f0d8180a4600190565b5060009056fe608080604052600436101561001357600080fd5b600090813560e01c90816301ffc9a7146135fc57508063023bf9581461358f5780630939b814146135565780630f3356031461322d578063248a9ca3146131ff5780632a0fd3cf14612e1b5780632b27d92114612a515780632b5cfbdf14612a0f5780632f2ff15d146129ce57806333ce96de1461299257806336568abe1461294d5780634443a812146128d357806345637d8f146124765780634c7b5a8e146124585780635057494a1461228e5780635cf2249f1461222e578063616e2e56146120615780638758aabb1461145b57806391d148541461141057806392376e13146112d5578063927cab5b14611275578063a217fddf14611259578063a821a06714611227578063b79362cd146111c7578063b94bc00f14611198578063be21f20c14611029578063c361e8cf14610fc9578063c80191b814610f7b578063d014c48114610f4e578063d255206414610c23578063d547741f14610bd9578063dd0e12ca14610a3a578063dedfe86d146109c1578063e2e682531461098b578063e94a783014610961578063e9d3077314610901578063f55dd32b146108bb578063f83eb2751461089f5763f8983b66146101ce57600080fd5b606036600319011261089c576004356001600160401b03811161067b576101f9903690600401613740565b6024356001600160401b03811161089a57610218903690600401613740565b600e604493929335101561089657600d546024906020906001600160a01b0316610243811515613a7a565b604051631d0d35f560e01b815233600482015292839182905afa90811561088b57869161085c575b50156108235734156107f1576011546001600160a01b0316156107ac5760155461029481613cd3565b601555426103e84202046103e81442151715610798576040516102b6816138fb565b81815260208101903382526102cc368689613d55565b604082019081526102de368689613d55565b90606083019182526102f560443560808501613a22565b426103e80260a084015260c083018a905260e083018a905261010083018a905261012083018a905261014083018a9052848a526001602081905260408b2084518155945190850180546001600160a01b0319166001600160a01b0392909216919091179055518051906001600160401b038211610784576103868261037d6002880154613938565b60028801613c0a565b602090601f831160011461071b576103b692918c9183610693575b50508160011b916000199060031b1c19161790565b60028401555b518051906001600160401b038211610707576103e8826103df6003870154613938565b60038701613c0a565b602090601f831160011461069e5761041792918b91836106935750508160011b916000199060031b1c19161790565b60038301555b6080810151600e81101561067f57600a916101409160ff8019600487015416911617600485015560a0810151600585015561046860c082015161045f81613694565b60068601613d9b565b60e0810151600785015561048d61010082015161048481613694565b60088601613d9b565b6101208101516009850155015191015533865260036020526104b28160408820613ba6565b808652600760205260408620805460ff191660011790556104d281613b81565b60115486906001600160a01b0316803b1561067b576040516353beca0f60e11b8152600481018490523360248201529082908290604490829034905af1801561067057610657575b50507f42672180e30fb0e2e6ae998046a0806bf23368de710977e1a63920574c378a1c93610644926105a261063993604051610557606082613917565b602b81527f4368616c6c656e67652023257320636f6e74726962757465642062792025732060208201526a30ba1012b9903bb4ba341d60a91b60408201526103e84202913391614263565b6105be6105ad613db3565b6105b836888b613d55565b906142bd565b6105d46105c9613dee565b6105b8368486613d55565b61062b60409761061a89516105e98b82613917565b601781527f2d20426f756e747920616d6f756e74202020203a20257300000000000000000060208201523490614310565b885196608088526080880191613fed565b918583036020870152613fed565b938201604435613733565b6103e8420260608201528033930390a280f35b8161066191613917565b61066c57853861051a565b8580fd5b6040513d84823e3d90fd5b5080fd5b634e487b7160e01b89526021600452602489fd5b0151905038806103a1565b600385018b52818b209190601f1984168c5b8181106106ef57509084600195949392106106d6575b505050811b01600383015561041d565b015160001960f88460031b161c191690553880806106c6565b929360206001819287860151815501950193016106b0565b634e487b7160e01b8a52604160045260248afd5b600286018c52818c209190601f1984168d5b81811061076c5750908460019594939210610753575b505050811b0160028401556103bc565b015160001960f88460031b161c19169055388080610743565b9293602060018192878601518155019501930161072d565b634e487b7160e01b8b52604160045260248bfd5b634e487b7160e01b86526011600452602486fd5b60405162461bcd60e51b815260206004820152601960248201527f4d6f6465726174696f6e20657363726f77206e6f7420736574000000000000006044820152606490fd5b60405162461bcd60e51b815260206004820152600a6024820152695a65726f2076616c756560b01b6044820152606490fd5b60405162461bcd60e51b81526020600482015260116024820152702737ba10309031b7b73a3934b13aba37b960791b6044820152606490fd5b61087e915060203d602011610884575b6108768183613917565b810190613abd565b3861026b565b503d61086c565b6040513d88823e3d90fd5b8480fd5b835b80fd5b503461089c578060031936011261089c57602060405160038152f35b503461089c57602036600319011261089c576108e9600260406108fd93600435815260016020522001613972565b6040519182916020835260208301906136e5565b0390f35b503461089c57602036600319011261089c5761091b6136cf565b6109236140c8565b6001600160a01b0316610937811515613ecc565b806001600160601b0360a01b60145416176014556001600160601b0360a01b601354161760135580f35b503461089c57602036600319011261089c5760406020916004358152600283522054604051908152f35b503461089c57602036600319011261089c5760ff600460406020938235815260018552200154166109bf6040518092613733565bf35b503461089c57602036600319011261089c576004358152600260205260408120604051918260208354918281520192825260208220915b818110610a1b576108fd85610a0f81870382613917565b60405191829182613651565b82546001600160a01b03168452602090930192600192830192016109f8565b503461089c578060031936011261089c57600a54610a5781613e7c565b9082600a54905b828110610ad7576108fd84610acb8782519050604051610a7f606082613917565b603281527f536d61727420636f6e74726163742025732068616420666574636820257320616020820152717070726f766564206368616c6c656e67657360701b6040820152339061400e565b6040519182918261384e565b81811015610bc557600190600a8652806020872001548660031b1c86528160205260408620600a60405191610b0b836138fb565b80548352848060a01b0385820154166020840152610b2b60028201613972565b6040840152610b3c60038201613972565b6060840152610b5560ff60048301541660808501613a22565b600581015460a084015260ff600682015416610b7081613694565b60c0840152600781015460e084015260ff600882015416610b9081613694565b61010084015260098101546101208401520154610140820152610bb38287613c73565b52610bbe8186613c73565b5001610a5e565b634e487b7160e01b85526032600452602485fd5b503461089c57604036600319011261089c57610c1f600435610bf96136b4565b90610c1a610c1582600052600060205260016040600020015490565b61411b565b6141e1565b5080f35b50610c2d3661376d565b9060155483101561089a57600f5460405163846900cf60e01b81523360048201526024810185905290602090829060449082906001600160a01b03165afa908115610f43578591610f24575b5061089a573415610ed1576013546001600160a01b0316918215610e8c576103e84202924284046103e814421517156107985790818693923b1561089a5760405163367dd74b60e21b8152600481018790523360248201529084908290604490829034905af1908115610e81578491610e6c575b5050600f546001600160a01b031691823b1561089a57610d3a9284928360405180968195829463d82ff2e960e01b84523360048501528c6024850152608060448501526084840191613fed565b89606483015203925af1801561067057610e53575b50503383526005602052610d668260408520613ba6565b8183526006602052610d7b3360408520613bc9565b600080610dea610e0a604051610d92606082613917565b602181527f55736572202573206a6f696e6564206368616c6c656e676520257320617420256020820152607360f81b6040820152604051928391637c7a8d8f60e11b60208401526080602484015260a48301906136e5565b33604483015287606483015286608483015203601f198101835282613917565b6020815191016a636f6e736f6c652e6c6f675afa5060405191825260208201527fc9e3de16af1f601c85f1f98f6bc173cd0a8b0fcd25dcd67893470617830fa5f960403392a280f35b81610e5d91613917565b610e68578238610d4f565b8280fd5b81610e7691613917565b610e68578238610ced565b6040513d86823e3d90fd5b60405162461bcd60e51b815260206004820152601c60248201527f4368616c6c656e6765436f73744d616e61676572206e6f7420736574000000006044820152606490fd5b60405162461bcd60e51b815260206004820152602560248201527f5061796d656e7420616d6f756e74206d75737420626520677265617465722074604482015264068616e20360dc1b6064820152608490fd5b610f3d915060203d602011610884576108768183613917565b38610c79565b6040513d87823e3d90fd5b503461089c57602036600319011261089c5760076040602092600435815260018452200154604051908152f35b503461089c57604036600319011261089c5760046040610f996136b4565b9282358152600260205220019060018060a01b0316600052602052602060ff604060002054166040519015158152f35b503461089c57602036600319011261089c57610fe36136cf565b610feb6140c8565b6001600160a01b0316610fff811515613ecc565b806001600160601b0360a01b600c541617600c556001600160601b0360a01b600b541617600b5580f35b503461089c578060031936011261089c5760085461104681613e7c565b91805b8281106110b2576108fd84610acb8151604051611067606082613917565b603181527f536d61727420636f6e7472616374202573206861642066657463682025732070602082015270656e64696e67206368616c6c656e67657360781b6040820152339061400e565b806110be600192613b13565b90549060031b1c83528160205260408320600a604051916110de836138fb565b80548352848060a01b03858201541660208401526110fe60028201613972565b604084015261110f60038201613972565b606084015261112860ff60048301541660808501613a22565b600581015460a084015260ff60068201541661114381613694565b60c0840152600781015460e084015260ff60088201541661116381613694565b610100840152600981015461012084015201546101408201526111868287613c73565b526111918186613c73565b5001611049565b503461089c57604036600319011261089c5760206111bf6111b76136b4565b600435613f57565b604051908152f35b503461089c57602036600319011261089c576111e16136cf565b6111e96140c8565b6001600160a01b03166111fd811515613ecc565b806001600160601b0360a01b60125416176012556001600160601b0360a01b601154161760115580f35b503461089c57602036600319011261089c5760ff60016040602093600435815260028552200154166040519015158152f35b503461089c578060031936011261089c57602090604051908152f35b503461089c57602036600319011261089c5761128f6136cf565b6112976140c8565b6001600160a01b03166112ab811515613ecc565b806001600160601b0360a01b600e541617600e556001600160601b0360a01b600d541617600d5580f35b503461089c57602036600319011261089c5760406108fd916004356112f8613e29565b5061134481845161130a606082613917565b602181527f55736572202573206861642066657463686564206368616c6c656e67652023256020820152607360f81b86820152339061400e565b8152600160205220600a6040519161135b836138fb565b8054835260018101546001600160a01b0316602084015261137e60028201613972565b604084015261138f60038201613972565b60608401526113a860ff60048301541660808501613a22565b600581015460a084015260ff6006820154166113c381613694565b60c0840152600781015460e084015260ff6008820154166113e381613694565b610100840152600981015461012084015201546101408201526040519182916020835260208301906137a0565b503461089c57604036600319011261089c57604061142c6136b4565b91600435815280602052209060018060a01b0316600052602052602060ff604060002054166040519015158152f35b503461089c5761016036600319011261089c576004356024356002811015610e685760443591600283101561089a5760643591600283101561089657608435600281101561066c5760a435600281101561205d5760c4359460028610156120595760e43560028110156120555761010435906003821015611d965761012435928a600e85101561089c5760ff60016040838c611501955260026020522001541615613a2e565b600d546024906020906001600160a01b031661151e811515613a7a565b604051637d379c9b60e11b815233600482015292839182905afa801561204a5761154f918d9161202b575b50613ad5565b6011546001600160a01b0316156107ac57878b52600260205260408b209860018060a01b03331660005260048a01602052600160ff60406000205416151503611fd857888c526002602052600360408d200160018060a01b03331660005260205260ff60046040600020015416611f875760028a019788546115d090613cd3565b89558c846115de8e84613f0a565b856115e891613f0a565b8a6115f291613f0a565b896115fc91613f0a565b8461160691613f0a565b6116109250613f0a565b96606488029780890460641490151715611f7357908d959493929160038d019d8e600090600160a01b6001900333168252602052604090209a4260028d015560048c01998a54996116608a613694565b5060481b60ff60481b169860ff60481b199660ff60401b199560ff60381b199466ff000000000000199365ff0000000000199264ff00000000199163ff000000199062ffffff1916600117169060081b61ff001617169060101b62ff00001617169060181b63ff0000001617169060201b64ff000000001617169060281b65ff00000000001617169060301b66ff0000000000001617169060381b60ff60381b16179060401b60ff60401b1617179055610144356005830155600790049060060155546003111561172f578380f35b600182939492019360ff855416611f2e57818352600160205260408320828452600160205260ff6008604086200154169460405161176e608082613917565b600381526060366020830137600b548254906001600160a01b0316875b87858a89868510611e2557509450505050505b60038110611de75750506117b6600883019687613d9b565b838552600160205260ff600860408720015416926117d384613694565b61182b606094866040516117e78882613917565b602c81527f46696e616c20646966666963756c7479206c6576656c20666f72206368616c6c60208201526b656e6765202325733a20257360a01b60408201526143ca565b6118358286614414565b600984015584865260016020526118a360096040882001548660405161185b8882613917565b603081527f46696e616c20657374696d6174656420736f6c76652074696d6520666f72206360208201526f68616c6c656e6765202325733a20257360801b60408201526143ca565b6118ad828661453f565b916118fb83876040516118c08982613917565b602381527f417665726167652073636f726520666f72206368616c6c656e6765202325733a60208201526220257360e81b60408201526143ca565b60508310611dd35760068401600160ff19825416179055858752600960205260408720600160ff1982541617905561193286613b5c565b600784810193845586885260205260408720805460ff19169055865b60085480821015611dc2578761196383613b13565b90549060031b1c14611978575060010161194e565b6000999293949596979899198101908111611dae57906119aa61199d6119c393613b13565b90549060031b1c91613b13565b90919082549060031b91821b91600019901b1916179055565b600854988915611d9a578899600019016119dc81613b13565b8154906000199060031b1b191690556008555b600160ff1982541617905560ff60068601541690877f1a20d608d2289bdfc4581c5a0722f4636bd21c1610f2485c20a4b20fd1f57a536040875494815190611a3681613694565b8152856020820152a2600c546001600160a01b0316611b1b575b50506012546001600160a01b03169350611a6c92505050578380f35b81611ac091611a7e6040519182613917565b602a81527f46696e616c697a696e67206368616c6c656e676520706f7420666f72206368616020820152696c6c656e67652023257360b01b6040820152614310565b6011546001600160a01b031690813b15611b175782916024839260405194859384926353c7cd2960e01b845260048401525af1801561067057611b0257808380f35b81611b0c91613917565b61089c578038808380f35b5050fd5b889692939495979850611b8a89604051611b358682613917565b603c81527f457865637574696e672072657075746174696f6e2075706461746520666f722060208201527f636f6e7472696275746f72206f66206368616c6c656e676520232573000000006040820152614310565b600b54600189015460049099018054925490996001600160a01b039283169360ff9081169392169116833b15611d965789809460c493611be5976040519889978896630164ac6560e41b885260048801526024870190613733565b604485015260506064850152670de0b6b3a76400006084850152611c0881613694565b60a48401525af190811561088b578691611d81575b505b8254811015611d6e57611c99611c358285613b44565b905460405160039290921b1c6001600160a01b031690611c558582613917565b602c81527f457865637574696e672072657075746174696f6e2075706461746520666f722060208201526b6d6f64657261746f7220257360a01b6040820152614079565b611ca38184613b44565b90546001600160a01b0360039290921b1c81166000818152602087905260409020600b548a5489546006909301549294919091169260ff9091169190833b15611d6a578a809460c493611d11976040519889978896631bb0c13760e21b885260048801526024870190613733565b60448501526064840152603c6084840152670de0b6b3a764000060a48401525af1908115611d5f578791611d4a575b5050600101611c1f565b81611d5491613917565b61066c578538611d40565b6040513d89823e3d90fd5b8a80fd5b5093959450505050388080808080611a50565b81611d8b91613917565b610896578438611c1d565b8980fd5b634e487b7160e01b89526031600452602489fd5b634e487b7160e01b8a52601160045260248afd5b5050909192939495979688976119ef565b60068401805460ff19166002179055611932565b611df18183613c73565b51611dfb89613694565b611e058984613c73565b5110611e14575b60010161179e565b9650611e1f87613694565b86611e0c565b60ff6004604060209481611e3c8a611e8499613b44565b905460039190911b1c6001600160a01b03166000818152968852952097815260018652200154604051630cf571c160e11b815294859384939192919091169060048401614354565b0381875afa908115611f23578b908192611eec575b50611ede60ff6004611ebd85611eb8611ee59660019a99981215614374565b61465d565b94015460401c1692611ece84613694565b611ed8848a613c73565b51613f0a565b9187613c73565b520161178b565b91505060203d8111611f1c575b611f038183613917565b6020826000928101031261089c5750518a611ede611e99565b503d611ef9565b6040513d8d823e3d90fd5b60405162461bcd60e51b815260206004820152601b60248201527f4368616c6c656e676520616c72656164792066696e616c697a656400000000006044820152606490fd5b634e487b7160e01b8e52601160045260248efd5b60405162461bcd60e51b8152602060048201526024808201527f596f75206861766520616c7265616479207375626d697474656420612072657660448201526334b2bb9760e11b6064820152608490fd5b60405162461bcd60e51b815260206004820152602560248201527f596f752068617665206e6f74206a6f696e6564207468697320726576696577206044820152643837b7b61760d91b6064820152608490fd5b612044915060203d602011610884576108768183613917565b38611549565b6040513d8e823e3d90fd5b8880fd5b8780fd5b8680fd5b503461089c57602036600319011261089c5761207b6136cf565b60018060a01b0381168252600360205260408220916040518084602082965493848152019084526020842092845b8181106122155750506120be92500384613917565b6120c88351613e7c565b90805b84518110156121b557806120e160019287613c73565b5183528160205260408320600a604051916120fb836138fb565b80548352848060a01b038582015416602084015261211b60028201613972565b604084015261212c60038201613972565b606084015261214560ff60048301541660808501613a22565b600581015460a084015260ff60068201541661216081613694565b60c0840152600781015460e084015260ff60088201541661218081613694565b610100840152600981015461012084015201546101408201526121a38286613c73565b526121ae8185613c73565b50016120cb565b50610acb91926108fd945191506040516121d0606082613917565b602d81527f5573657220257320686164206665746368656420257320636f6e74726962757460208201526c6564206368616c6c656e67657360981b604082015261400e565b84548352600194850194889450602090930192016120a9565b503461089c57602036600319011261089c576122486136cf565b6122506140c8565b6001600160a01b0316612264811515613ecc565b806001600160601b0360a01b60105416176010556001600160601b0360a01b600f541617600f5580f35b503461089c57602036600319011261089c576122a86136cf565b9060018060a01b0382168152600460205260408120906040518083602082955493848152019084526020842092845b81811061243f5750506122ec92500383613917565b6122f68251613e7c565b91815b81518110156123e3578061230f60019284613c73565b5184528160205260408420600a60405191612329836138fb565b80548352848060a01b038582015416602084015261234960028201613972565b604084015261235a60038201613972565b606084015261237360ff60048301541660808501613a22565b600581015460a084015260ff60068201541661238e81613694565b60c0840152600781015460e084015260ff6008820154166123ae81613694565b610100840152600981015461012084015201546101408201526123d18287613c73565b526123dc8186613c73565b50016122f9565b6108fd84610acb878551906040516123fc606082613917565b602b81527f55736572202573206861642066657463686564202573206d6f6465726174656460208201526a206368616c6c656e67657360a81b604082015261400e565b84548352600194850194879450602090930192016122d7565b503461089c578060031936011261089c576020601554604051908152f35b503461089c5761012036600319011261089c576124916136cf565b906024356001600160401b03811161067b576124b1903690600401613740565b926044356001600160401b03811161089a576124d1903690600401613740565b92909160643590600e82101561066c57600360a435101561066c5760e435600381101561205d576015549261250584613cd3565b60155560405190612515826138fb565b8482526001600160a01b0384166020830190815292612559612538368d8a613d55565b926040850193845261254b368c8c613d55565b606086015260808501613a22565b60843560a084015261256c60a435613694565b60a43560c084015260c43560e084015261258581613694565b6101008301526101043561012083015261014082018990528489526001602081905260408a2083518155935190840180546001600160a01b0319166001600160a01b039290921691909117905551805160028401916001600160401b038211610784576125fc826125f68554613938565b85613c0a565b602090601f83116001146128705761262b92918c91836106935750508160011b916000199060031b1c19161790565b90555b60608101518051906001600160401b03821161070757612655826103df6003870154613938565b602090601f83116001146128075761268492918b91836106935750508160011b916000199060031b1c19161790565b60038301555b6080810151600e81101561067f5784899a9461272f6127c29760408d6105b8986127ca9f6101406105b89f9e9a6127b29a600a935060ff8019600487015416911617600485015560a081015160058501556126ec60c082015161045f81613694565b60e0810151600785015561270861010082015161048481613694565b610120810151600985015501519101556001600160a01b0385168152600360205220613ba6565b61273a60a435613694565b60a4356127cd57818c52600760205260408c20805460ff1916600117905561276182613b81565b60405191612770606084613917565b602683527f4368616c6c656e67652023257320736565646564206279202573206174202573602084015265103bb4ba341d60d11b604084015260843592614263565b6127ba613db3565b923691613d55565b6127ba613dee565b80f35b6127d860a435613694565b600160a4350361276157818c52600960205260408c20805460ff1916600117905561280282613b5c565b612761565b600385018b52818b209190601f1984168c5b818110612858575090846001959493921061283f575b505050811b01600383015561268a565b015160001960f88460031b161c1916905538808061282f565b92936020600181928786015181550195019301612819565b838c52818c209190601f1984168d5b8181106128bb57509084600195949392106128a2575b505050811b01905561262e565b015160001960f88460031b161c19169055388080612895565b9293602060018192878601518155019501930161287f565b503461089c57604036600319011261089c57600360406128f16136cf565b92602435808252600260205260048383200160018060a01b03861660005260205261292260ff846000205416613cf8565b8152600260205220019060018060a01b03166000526020526108fd6108e96003604060002001613972565b503461089c57604036600319011261089c576129676136b4565b336001600160a01b0382160361298357610c1f906004356141e1565b63334bd91960e11b8252600482fd5b503461089c57602036600319011261089c5760043560155481101561067b5781526001602052600a60408220016129c98154613cd3565b905580f35b503461089c57604036600319011261089c57610c1f6004356129ee6136b4565b90612a0a610c1582600052600060205260016040600020015490565b614156565b503461089c57602036600319011261089c57602090600435612a346015548210613c87565b81526001825260016040818060a01b039220015416604051908152f35b503461089c57602036600319011261089c57612a6b6136cf565b6010546001600160a01b031615612dd6576001600160a01b038116825260056020908152604080842090518154808252918552828520909392840191855b818110612dc05750505082612abf910383613917565b815192612acb84613c5c565b93612ad96040519586613917565b808552612ae8601f1991613c5c565b01815b818110612d77575050600f546001600160a01b031691815b8451811015612c4357612b168186613c73565b518084526001602052604080852090516320cfeb4f60e11b81526001600160a01b038516600482015260248101839052906060826044818a5afa91821561088b57869187918894612bf5575b5080612b9b600360ff6004612ba9950154169260405198612b828a6138e0565b8952612b9060028201613972565b60208a015201613972565b604087015260608601613a22565b6004811015612be157608084015260a083015260c082015260019190612bcf8289613c73565b52612bda8188613c73565b5001612b03565b634e487b7160e01b87526021600452602487fd5b92509250506060813d8211612c3b575b81612c1260609383613917565b8101031261066c5780516020820151916004831015612059576040015192909190612ba9612b62565b3d9150612c05565b509084612ca1606093604051612c598682613917565b603081527f557365722025732068616420666574636865642070726576696577206f66206a60208201526f6f696e6564206368616c6c656e67657360801b6040820152614079565b60405191602083019060208452825180925260408401602060408460051b870101940195825b848410612cd45786860387f35b9091929394603f1987820301845287519081518152612d17612d05602084015160e0602085015260e08401906136e5565b604084015183820360408501526136e5565b91612d288582015186840190613733565b60808101516004811015612d6357608083015260a0808201519083015260c09081015191015260209788019790959460010193019190612cc7565b634e487b7160e01b85526021600452602485fd5b602090604095949551612d89816138e0565b848152606083820152606060408201528460608201528460808201528460a08201528460c082015282828901015201939293612aeb565b8254845260209093019260019283019201612aa9565b60405162461bcd60e51b815260206004820152601760248201527f536f6c7574696f6e4d616e61676572206e6f74207365740000000000000000006044820152606490fd5b503461089c57612e2a3661376d565b8284939294526002602052612e4960ff60016040862001541615613a2e565b600d546024906020906001600160a01b0316612e66811515613a7a565b604051637d379c9b60e11b815233600482015292839182905afa908115610e815790612e9891859161202b5750613ad5565b6011546001600160a01b0316156107ac578183526002602052604083206003815410156131c157338452600481016020819052604085205490919060ff1661316a57838552600160208190526040862001546001600160a01b03163314613119576003913386526004602052612f118560408820613ba6565b612f1b3383613bc9565b3380875260209182526040808820805460ff191660019081179091558289529490930190915290852080546001600160a01b0319169091178155908101839055600301906001600160401b03811161310557612f8181612f7b8454613938565b84613c0a565b83601f82116001146130a15781908596612fb1949596926130965750508160011b916000199060031b1c19161790565b90555b60115482906001600160a01b0316803b1561067b578190602460405180948193637b0ee4cd60e01b83528760048401525af1801561308b57613075575b506127ca9033817f07fe5c562bb72cc8709dc10987f69acf04ba0d45c871d6c281e32df878063dcd8580a360405161302a606082613917565b603181527f4d6f64657261746f72202573206a6f696e65642072657669657720706f6f6c20602082015270666f72206368616c6c656e67652023257360781b6040820152339061400e565b91613084816127ca9394613917565b9190612ff1565b6040513d85823e3d90fd5b0135905038806103a1565b601f198216958386526020862091865b8881106130ed575083600195969798106130d3575b505050811b019055612fb4565b0135600019600384901b60f8161c191690553880806130c6565b909260206001819286860135815501940191016130b1565b634e487b7160e01b84526041600452602484fd5b60405162461bcd60e51b815260206004820152602360248201527f436f6e7472696275746f722063616e6e6f74206a6f696e2072657669657720706044820152621bdbdb60ea1b6064820152608490fd5b60405162461bcd60e51b815260206004820152602960248201527f596f75206861766520616c7265616479206a6f696e656420746869732072657660448201526834b2bb903837b7b61760b91b6064820152608490fd5b60405162461bcd60e51b815260206004820152601660248201527513585e081b5bd9195c985d1bdc9cc81c995858da195960521b6044820152606490fd5b503461089c57602036600319011261089c5760206111bf600435600052600060205260016040600020015490565b503461089c57604036600319011261089c5760409060043561324d6136b4565b90826101e0855161325d816138ae565b82815282602082015282878201526060808201528260808201528260a08201528260c08201528260e08201528261010082015282610120820152826101408201528261016082015282610180820152826101a0820152826101c08201520152613310818386516132ce606082613917565b602b81527f5573657220257320686164206665746368656420726576696577206f6620636860208201526a616c6c656e67652023257360a81b8882015261400e565b825260026020526003838320019060018060a01b031682526020522060066040519161333b836138ae565b80546001600160a01b03168352600181015460208401526002810154604084015261336860038201613972565b606084015261342660ff600483015481811615156080870152613393828260081c1660a08801613a16565b6133a5828260101c1660c08801613a16565b6133b7828260181c1660e08801613a16565b6133ca828260201c166101008801613a16565b6133dd828260281c166101208801613a16565b6133f0828260301c166101408801613a16565b613403828260381c166101608801613a16565b818160401c1661341281613694565b61018087015260481c166101a08501613a22565b60058101546101c084015201546101e082015260405180916020825260018060a01b03815116602083015260208101516040830152604081015160608301526101e0613483606083015161020060808601526102208501906136e5565b916080810151151560a08501526134a260a082015160c0860190613726565b6134b460c082015160e0860190613726565b6134c760e0820151610100860190613726565b6134db610100820151610120860190613726565b6134ef610120820151610140860190613726565b613503610140820151610160860190613726565b613517610160820151610180860190613726565b61018081015161352681613694565b6101a08501526135406101a08201516101c0860190613733565b6101c08101518285015201516102008301520390f35b503461089c57602036600319011261089c5760ff60086040602093600435815260018552200154166040519061358b81613694565b8152f35b503461089c57602036600319011261089c576004358152600660205260408120604051918260208354918281520192825260208220915b8181106135dd576108fd85610a0f81870382613917565b82546001600160a01b03168452602090930192600192830192016135c6565b90503461067b57602036600319011261067b5760043563ffffffff60e01b8116809103610e685760209250637965db0b60e01b8114908115613640575b5015158152f35b6301ffc9a760e01b14905038613639565b602060408183019282815284518094520192019060005b8181106136755750505090565b82516001600160a01b0316845260209384019390920191600101613668565b6003111561369e57565b634e487b7160e01b600052602160045260246000fd5b602435906001600160a01b03821682036136ca57565b600080fd5b600435906001600160a01b03821682036136ca57565b919082519283825260005b848110613711575050826000602080949584010152601f8019910116010190565b806020809284010151828286010152016136f0565b90600282101561369e5752565b90600e82101561369e5752565b9181601f840112156136ca578235916001600160401b0383116136ca57602083818601950101116136ca57565b9060406003198301126136ca5760043591602435906001600160401b0382116136ca5761379c91600401613740565b9091565b908151815260018060a01b036020830151166020820152610140806137eb6137d9604086015161016060408701526101608601906136e5565b606086015185820360608701526136e5565b936137fe60808201516080860190613733565b60a081015160a085015260c081015161381681613694565b60c085015260e081015160e085015261010081015161383481613694565b610100850152610120810151610120850152015191015290565b602081016020825282518091526040820191602060408360051b8301019401926000915b83831061388157505050505090565b909192939460208061389f600193603f1986820301875289516137a0565b97019301930191939290613872565b61020081019081106001600160401b038211176138ca57604052565b634e487b7160e01b600052604160045260246000fd5b60e081019081106001600160401b038211176138ca57604052565b61016081019081106001600160401b038211176138ca57604052565b90601f801991011681019081106001600160401b038211176138ca57604052565b90600182811c92168015613968575b602083101461395257565b634e487b7160e01b600052602260045260246000fd5b91607f1691613947565b906040519182600082549261398684613938565b80845293600181169081156139f457506001146139ad575b506139ab92500383613917565b565b90506000929192526020600020906000915b8183106139d85750509060206139ab928201013861399e565b60209193508060019154838589010152019101909184926139bf565b9050602092506139ab94915060ff191682840152151560051b8201013861399e565b600282101561369e5752565b600e82101561369e5752565b15613a3557565b60405162461bcd60e51b815260206004820152601b60248201527f4368616c6c656e676520616c72656164792066696e616c6973656400000000006044820152606490fd5b15613a8157565b60405162461bcd60e51b8152602060048201526014602482015273149bdb19481b585b9859d95c881b9bdd081cd95d60621b6044820152606490fd5b908160209103126136ca575180151581036136ca5790565b15613adc57565b60405162461bcd60e51b815260206004820152600f60248201526e2737ba10309036b7b232b930ba37b960891b6044820152606490fd5b600854811015613b2e57600860005260206000200190600090565b634e487b7160e01b600052603260045260246000fd5b8054821015613b2e5760005260206000200190600090565b600a5490600160401b8210156138ca576119aa8260016139ab9401600a55600a613b44565b60085490600160401b8210156138ca576119aa8260016139ab94016008556008613b44565b90815491600160401b8310156138ca57826119aa9160016139ab95018155613b44565b8054600160401b8110156138ca57613be691600182018155613b44565b81546001600160a01b0393841660039290921b91821b9390911b1916919091179055565b601f8211613c1757505050565b6000526020600020906020601f840160051c83019310613c52575b601f0160051c01905b818110613c46575050565b60008155600101613c3b565b9091508190613c32565b6001600160401b0381116138ca5760051b60200190565b8051821015613b2e5760209160051b010190565b15613c8e57565b60405162461bcd60e51b815260206004820152601860248201527f4368616c6c656e676520646f6573206e6f7420657869737400000000000000006044820152606490fd5b6000198114613ce25760010190565b634e487b7160e01b600052601160045260246000fd5b15613cff57565b60405162461bcd60e51b815260206004820152602860248201527f4d6f64657261746f7220686173206e6f74206a6f696e656420746865207265766044820152671a595dc81c1bdbdb60c21b6064820152608490fd5b9291926001600160401b0382116138ca5760405191613d7e601f8201601f191660200184613917565b8294818452818301116136ca578281602093846000960137010152565b90613da581613694565b60ff80198354169116179055565b60405190613dc2604083613917565b601782527f2d205469746c652075726c20202020202020203a2025730000000000000000006020830152565b60405190613dfd604083613917565b601782527f2d204465736372697074696f6e2075726c20203a2025730000000000000000006020830152565b60405190613e36826138fb565b600061014083828152826020820152606060408201526060808201528260808201528260a08201528260c08201528260e082015282610100820152826101208201520152565b90613e8682613c5c565b613e936040519182613917565b8281528092613ea4601f1991613c5c565b019060005b828110613eb557505050565b602090613ec0613e29565b82828501015201613ea9565b15613ed357565b60405162461bcd60e51b815260206004820152600f60248201526e496e76616c6964206164647265737360881b6044820152606490fd5b91908201809211613ce257565b81810292918115918404141715613ce257565b8115613f34570490565b634e487b7160e01b600052601260045260246000fd5b91908203918211613ce257565b90613f656015548310613c87565b816000526002602052600460406000200160018060a01b038216600052602052613f9660ff60406000205416613cf8565b60008281526002602090815260408083206001600160a01b03909416835260039390930181528282206006015493825260019052206007015490818110613fe45790613fe191613f4a565b90565b613fe191613f4a565b908060209392818452848401376000828201840152601f01601f1916010190565b61406261403f91600094938594604051948593630d26b92560e01b60208601526060602486015260848501906136e5565b6001600160a01b039092166044840152606483015203601f198101835282613917565b6020815191016a636f6e736f6c652e6c6f675afa50565b6140a961406260009392849360405193849263319af33360e01b60208501526040602485015260648401906136e5565b6001600160a01b0391909116604483015203601f198101835282613917565b3360009081527fad3228b676f7d3cd4284a5443f17f1962b36e491b30a40b2405849e597ba5fb5602052604090205460ff161561410157565b63e2517d3f60e01b60005233600452600060245260446000fd5b60008181526020818152604080832033845290915290205460ff161561413e5750565b63e2517d3f60e01b6000523360045260245260446000fd5b6000818152602081815260408083206001600160a01b038616845290915290205460ff166141da576000818152602081815260408083206001600160a01b0395909516808452949091528120805460ff19166001179055339291907f2f8788117e7eff1d82e926ec794901d17c78024a50270940304540a733656f0d9080a4600190565b5050600090565b6000818152602081815260408083206001600160a01b038616845290915290205460ff16156141da576000818152602081815260408083206001600160a01b0395909516808452949091528120805460ff19169055339291907ff6391f5c32d9c69d2a47ea670b442974b53935d1edc7fd64eb21e047a839171b9080a4600190565b614062906142949260009586956040519586946327827ee360e11b60208701526080602487015260a48601906136e5565b60448501939093526001600160a01b03166064840152608483015203601f198101835282613917565b6142f0614062600093926143028594604051948593634b5c427760e01b60208601526040602486015260648501906136e5565b838103602319016044850152906136e5565b03601f198101835282613917565b614340614062600093928493604051938492632d839cb360e21b60208501526040602485015260648401906136e5565b90604483015203601f198101835282613917565b6001600160a01b0390911681526040810192916139ab9160200190613733565b1561437b57565b60405162461bcd60e51b815260206004820152602160248201527f4552524f523a204e6567617469766520646f6d61696e2072657075746174696f6044820152603760f91b6064820152608490fd5b6140626143fb9160009493859460405194859363ca47c4eb60e01b60208601526060602486015260848501906136e5565b916044840152606483015203601f198101835282613917565b600090815260016020526040812060040154600b54929392829160ff16906001600160a01b0316825b8654851015614529576144508588613b44565b9054600391821b1c6001600160a01b0316600081815291890160209081526040928390209251630cf571c160e11b8152929392918290819061449790899060048401614354565b0381875afa90811561451d576000916144ea575b50916144db6144e1926144d560056144cc87611eb8600060019a1215614374565b94015484613f17565b90613f0a565b95613f0a565b9401939261443d565b906020823d8211614515575b8161450360209383613917565b8101031261089c5750516144db6144ab565b3d91506144f6565b6040513d6000823e3d90fd5b9495505050905080156141da57613fe191613f2a565b600b546000939284926001600160a01b039092169190835b815487101561464857604061456c8884613b44565b60018060a01b0391549060031b1c1660009060018060a01b0316815260038401602052206145cf602060018060a01b03835416866000526001825260ff60046040600020015416906040519384928392630cf571c160e11b845260048401614354565b0381895afa90811561451d57600091614615575b506146066001936144d561460c946145fc60069561465d565b9485910154613f17565b96613f0a565b96019593614557565b906020823d8211614640575b8161462e60209383613917565b8101031261089c5750516146066145e3565b3d9150614621565b94955050505080156141da57613fe191613f2a565b600081126146685790565b5060009056fea2646970667358221220f06abb5124bb65b412a69c9ad13f99bb06c468192d0c761a1a1af00b526986c764736f6c634300081c0033ad3228b676f7d3cd4284a5443f17f1962b36e491b30a40b2405849e597ba5fb5",
  "linkReferences": {},
  "deployedLinkReferences": {}
}