{
  "_format": "hh-sol-artifact-1",
  "contractName": "ChallengeManager",
  "sourceName": "contracts/ChallengeManager.sol",
  "abi": [
    {
      "anonymous": false,
      "inputs": [
        {
          "indexed": true,
          "internalType": "address",
          "name": "contributor",
          "type": "address"
        },
        {
          "indexed": false,
          "internalType": "string",
          "name": "titleUrl",
          "type": "string"
        },
        {
          "indexed": false,
          "internalType": "string",
          "name": "descriptionUrl",
          "type": "string"
        },
        {
          "indexed": false,
          "internalType": "uint256",
          "name": "category",
          "type": "uint256"
        },
        {
          "indexed": false,
          "internalType": "uint256",
          "name": "contributeAt",
          "type": "uint256"
        }
      ],
      "name": "ChallengeContributed",
      "type": "event"
    },
    {
      "inputs": [
        {
          "internalType": "uint256",
          "name": "",
          "type": "uint256"
        }
      ],
      "name": "challenges",
      "outputs": [
        {
          "internalType": "address",
          "name": "contributor",
          "type": "address"
        },
        {
          "internalType": "string",
          "name": "title_url",
          "type": "string"
        },
        {
          "internalType": "string",
          "name": "description_url",
          "type": "string"
        },
        {
          "internalType": "uint256",
          "name": "category",
          "type": "uint256"
        },
        {
          "internalType": "uint256",
          "name": "contribute_at",
          "type": "uint256"
        },
        {
          "internalType": "enum ChallengeManager.ChallengeStatus",
          "name": "status",
          "type": "uint8"
        }
      ],
      "stateMutability": "view",
      "type": "function"
    },
    {
      "inputs": [
        {
          "internalType": "string",
          "name": "_title_url",
          "type": "string"
        },
        {
          "internalType": "string",
          "name": "_description_url",
          "type": "string"
        },
        {
          "internalType": "uint256",
          "name": "_category",
          "type": "uint256"
        },
        {
          "internalType": "uint256",
          "name": "_contribute_at",
          "type": "uint256"
        }
      ],
      "name": "contributeChallenge",
      "outputs": [],
      "stateMutability": "nonpayable",
      "type": "function"
    },
    {
      "inputs": [
        {
          "internalType": "address",
          "name": "",
          "type": "address"
        },
        {
          "internalType": "uint256",
          "name": "",
          "type": "uint256"
        }
      ],
      "name": "contributor_to_challenges",
      "outputs": [
        {
          "internalType": "uint256",
          "name": "",
          "type": "uint256"
        }
      ],
      "stateMutability": "view",
      "type": "function"
    },
    {
      "inputs": [
        {
          "internalType": "address",
          "name": "_contributor_address",
          "type": "address"
        }
      ],
      "name": "getChallengesByContributor",
      "outputs": [
        {
          "components": [
            {
              "internalType": "address",
              "name": "contributor",
              "type": "address"
            },
            {
              "internalType": "string",
              "name": "title_url",
              "type": "string"
            },
            {
              "internalType": "string",
              "name": "description_url",
              "type": "string"
            },
            {
              "internalType": "uint256",
              "name": "category",
              "type": "uint256"
            },
            {
              "internalType": "uint256",
              "name": "contribute_at",
              "type": "uint256"
            },
            {
              "internalType": "enum ChallengeManager.ChallengeStatus",
              "name": "status",
              "type": "uint8"
            }
          ],
          "internalType": "struct ChallengeManager.Challenge[]",
          "name": "",
          "type": "tuple[]"
        }
      ],
      "stateMutability": "view",
      "type": "function"
    },
    {
      "inputs": [],
      "name": "getPendingChallenges",
      "outputs": [
        {
          "components": [
            {
              "internalType": "address",
              "name": "contributor",
              "type": "address"
            },
            {
              "internalType": "string",
              "name": "title_url",
              "type": "string"
            },
            {
              "internalType": "string",
              "name": "description_url",
              "type": "string"
            },
            {
              "internalType": "uint256",
              "name": "category",
              "type": "uint256"
            },
            {
              "internalType": "uint256",
              "name": "contribute_at",
              "type": "uint256"
            },
            {
              "internalType": "enum ChallengeManager.ChallengeStatus",
              "name": "status",
              "type": "uint8"
            }
          ],
          "internalType": "struct ChallengeManager.Challenge[]",
          "name": "",
          "type": "tuple[]"
        }
      ],
      "stateMutability": "view",
      "type": "function"
    },
    {
      "inputs": [],
      "name": "pending_challenges",
      "outputs": [
        {
          "internalType": "uint256",
          "name": "",
          "type": "uint256"
        }
      ],
      "stateMutability": "view",
      "type": "function"
    },
    {
      "inputs": [],
      "name": "total_challenges",
      "outputs": [
        {
          "internalType": "uint256",
          "name": "",
          "type": "uint256"
        }
      ],
      "stateMutability": "view",
      "type": "function"
    }
  ],
  "bytecode": "0x608060405260006001556000600255348015601957600080fd5b50611bb9806100296000396000f3fe608060405234801561001057600080fd5b506004361061007d5760003560e01c8063616e2e561161005b578063616e2e56146100ee5780638f1d37761461011e578063be21f20c14610153578063f9fbadc6146101715761007d565b806324b445aa146100825780632b366996146100b25780634c7b5a8e146100d0575b600080fd5b61009c60048036038101906100979190611082565b61018d565b6040516100a991906110d1565b60405180910390f35b6100ba6101be565b6040516100c791906110d1565b60405180910390f35b6100d86101c4565b6040516100e591906110d1565b60405180910390f35b610108600480360381019061010391906110ec565b6101ca565b6040516101159190611390565b60405180910390f35b610138600480360381019061013391906113b2565b61051d565b60405161014a96959493929190611447565b60405180910390f35b61015b610696565b6040516101689190611390565b60405180910390f35b61018b6004803603810190610186919061151b565b61098b565b005b600360205281600052604060002081815481106101a957600080fd5b90600052602060002001600091509150505481565b60025481565b60015481565b60606000600360008473ffffffffffffffffffffffffffffffffffffffff1673ffffffffffffffffffffffffffffffffffffffff16815260200190815260200160002080548060200260200160405190810160405280929190818152602001828054801561025757602002820191906000526020600020905b815481526020019060010190808311610243575b505050505090506000815167ffffffffffffffff81111561027b5761027a6115c2565b5b6040519080825280602002602001820160405280156102b457816020015b6102a1610f7c565b8152602001906001900390816102995790505b50905060005b82518110156104ee576000808483815181106102d9576102d86115f1565b5b602002602001015181526020019081526020016000206040518060c00160405290816000820160009054906101000a900473ffffffffffffffffffffffffffffffffffffffff1673ffffffffffffffffffffffffffffffffffffffff1673ffffffffffffffffffffffffffffffffffffffff1681526020016001820180546103609061164f565b80601f016020809104026020016040519081016040528092919081815260200182805461038c9061164f565b80156103d95780601f106103ae576101008083540402835291602001916103d9565b820191906000526020600020905b8154815290600101906020018083116103bc57829003601f168201915b505050505081526020016002820180546103f29061164f565b80601f016020809104026020016040519081016040528092919081815260200182805461041e9061164f565b801561046b5780601f106104405761010080835404028352916020019161046b565b820191906000526020600020905b81548152906001019060200180831161044e57829003601f168201915b5050505050815260200160038201548152602001600482015481526020016005820160009054906101000a900460ff1660028111156104ad576104ac6111f3565b5b60028111156104bf576104be6111f3565b5b815250508282815181106104d6576104d56115f1565b5b602002602001018190525080806001019150506102ba565b506105136040518060600160405280602d8152602001611b57602d9139858451610d59565b8092505050919050565b60006020528060005260406000206000915090508060000160009054906101000a900473ffffffffffffffffffffffffffffffffffffffff16908060010180546105669061164f565b80601f01602080910402602001604051908101604052809291908181526020018280546105929061164f565b80156105df5780601f106105b4576101008083540402835291602001916105df565b820191906000526020600020905b8154815290600101906020018083116105c257829003601f168201915b5050505050908060020180546105f49061164f565b80601f01602080910402602001604051908101604052809291908181526020018280546106209061164f565b801561066d5780601f106106425761010080835404028352916020019161066d565b820191906000526020600020905b81548152906001019060200180831161065057829003601f168201915b5050505050908060030154908060040154908060050160009054906101000a900460ff16905086565b6060600060025467ffffffffffffffff8111156106b6576106b56115c2565b5b6040519080825280602002602001820160405280156106ef57816020015b6106dc610f7c565b8152602001906001900390816106d45790505b50905060005b60015481101561095f5760006002811115610713576107126111f3565b5b60008083815260200190815260200160002060050160009054906101000a900460ff166002811115610748576107476111f3565b5b03610952576000808281526020019081526020016000206040518060c00160405290816000820160009054906101000a900473ffffffffffffffffffffffffffffffffffffffff1673ffffffffffffffffffffffffffffffffffffffff1673ffffffffffffffffffffffffffffffffffffffff1681526020016001820180546107d09061164f565b80601f01602080910402602001604051908101604052809291908181526020018280546107fc9061164f565b80156108495780601f1061081e57610100808354040283529160200191610849565b820191906000526020600020905b81548152906001019060200180831161082c57829003601f168201915b505050505081526020016002820180546108629061164f565b80601f016020809104026020016040519081016040528092919081815260200182805461088e9061164f565b80156108db5780601f106108b0576101008083540402835291602001916108db565b820191906000526020600020905b8154815290600101906020018083116108be57829003601f168201915b5050505050815260200160038201548152602001600482015481526020016005820160009054906101000a900460ff16600281111561091d5761091c6111f3565b5b600281111561092f5761092e6111f3565b5b81525050828281518110610946576109456115f1565b5b60200260200101819052505b80806001019150506106f5565b50610984604051806060016040528060338152602001611b2460339139338351610d59565b8091505090565b6000600160008154809291906109a0906116af565b9190505590506040518060c001604052803373ffffffffffffffffffffffffffffffffffffffff16815260200188888080601f016020809104026020016040519081016040528093929190818152602001838380828437600081840152601f19601f82011690508083019250505050505050815260200186868080601f016020809104026020016040519081016040528093929190818152602001838380828437600081840152601f19601f82011690508083019250505050505050815260200184815260200183815260200160006002811115610a8157610a806111f3565b5b81525060008083815260200190815260200160002060008201518160000160006101000a81548173ffffffffffffffffffffffffffffffffffffffff021916908373ffffffffffffffffffffffffffffffffffffffff1602179055506020820151816001019081610af291906118a3565b506040820151816002019081610b0891906118a3565b50606082015181600301556080820151816004015560a08201518160050160006101000a81548160ff02191690836002811115610b4857610b476111f3565b5b0217905550905050600360003373ffffffffffffffffffffffffffffffffffffffff1673ffffffffffffffffffffffffffffffffffffffff16815260200190815260200160002081908060018154018082558091505060019003906000526020600020016000909190919091505560026000815480929190610bc9906116af565b9190505550610bf26040518060600160405280602b8152602001611af9602b9139823385610df8565b610c756040518060400160405280601781526020017f2d205469746c652075726c20202020202020203a20257300000000000000000081525088888080601f016020809104026020016040519081016040528093929190818152602001838380828437600081840152601f19601f82011690508083019250505050505050610e9a565b610cf86040518060400160405280601781526020017f2d204465736372697074696f6e2075726c20203a20257300000000000000000081525086868080601f016020809104026020016040519081016040528093929190818152602001838380828437600081840152601f19601f82011690508083019250505050505050610e9a565b3373ffffffffffffffffffffffffffffffffffffffff167ff402918aaa23d43b2a547ed2ec26d57815a485e947d42cb8594fba3c799b8dcf888888888888604051610d48969594939291906119b1565b60405180910390a250505050505050565b610df3838383604051602401610d7193929190611a08565b6040516020818303038152906040527f0d26b925000000000000000000000000000000000000000000000000000000007bffffffffffffffffffffffffffffffffffffffffffffffffffffffff19166020820180517bffffffffffffffffffffffffffffffffffffffffffffffffffffffff8381831617835250505050610f36565b505050565b610e9484848484604051602401610e129493929190611a46565b6040516020818303038152906040527f4f04fdc6000000000000000000000000000000000000000000000000000000007bffffffffffffffffffffffffffffffffffffffffffffffffffffffff19166020820180517bffffffffffffffffffffffffffffffffffffffffffffffffffffffff8381831617835250505050610f36565b50505050565b610f328282604051602401610eb0929190611a92565b6040516020818303038152906040527f4b5c4277000000000000000000000000000000000000000000000000000000007bffffffffffffffffffffffffffffffffffffffffffffffffffffffff19166020820180517bffffffffffffffffffffffffffffffffffffffffffffffffffffffff8381831617835250505050610f36565b5050565b610f4d81610f45610f50610f71565b63ffffffff16565b50565b60006a636f6e736f6c652e6c6f679050600080835160208501845afa505050565b610fda819050919050565b6040518060c00160405280600073ffffffffffffffffffffffffffffffffffffffff1681526020016060815260200160608152602001600081526020016000815260200160006002811115610fd457610fd36111f3565b5b81525090565b610fe2611ac9565b565b600080fd5b600080fd5b600073ffffffffffffffffffffffffffffffffffffffff82169050919050565b600061101982610fee565b9050919050565b6110298161100e565b811461103457600080fd5b50565b60008135905061104681611020565b92915050565b6000819050919050565b61105f8161104c565b811461106a57600080fd5b50565b60008135905061107c81611056565b92915050565b6000806040838503121561109957611098610fe4565b5b60006110a785828601611037565b92505060206110b88582860161106d565b9150509250929050565b6110cb8161104c565b82525050565b60006020820190506110e660008301846110c2565b92915050565b60006020828403121561110257611101610fe4565b5b600061111084828501611037565b91505092915050565b600081519050919050565b600082825260208201905092915050565b6000819050602082019050919050565b61114e8161100e565b82525050565b600081519050919050565b600082825260208201905092915050565b60005b8381101561118e578082015181840152602081019050611173565b60008484015250505050565b6000601f19601f8301169050919050565b60006111b682611154565b6111c0818561115f565b93506111d0818560208601611170565b6111d98161119a565b840191505092915050565b6111ed8161104c565b82525050565b7f4e487b7100000000000000000000000000000000000000000000000000000000600052602160045260246000fd5b60038110611233576112326111f3565b5b50565b600081905061124482611222565b919050565b600061125482611236565b9050919050565b61126481611249565b82525050565b600060c0830160008301516112826000860182611145565b506020830151848203602086015261129a82826111ab565b915050604083015184820360408601526112b482826111ab565b91505060608301516112c960608601826111e4565b5060808301516112dc60808601826111e4565b5060a08301516112ef60a086018261125b565b508091505092915050565b6000611306838361126a565b905092915050565b6000602082019050919050565b600061132682611119565b6113308185611124565b93508360208202850161134285611135565b8060005b8581101561137e578484038952815161135f85826112fa565b945061136a8361130e565b925060208a01995050600181019050611346565b50829750879550505050505092915050565b600060208201905081810360008301526113aa818461131b565b905092915050565b6000602082840312156113c8576113c7610fe4565b5b60006113d68482850161106d565b91505092915050565b6113e88161100e565b82525050565b600082825260208201905092915050565b600061140a82611154565b61141481856113ee565b9350611424818560208601611170565b61142d8161119a565b840191505092915050565b61144181611249565b82525050565b600060c08201905061145c60008301896113df565b818103602083015261146e81886113ff565b9050818103604083015261148281876113ff565b905061149160608301866110c2565b61149e60808301856110c2565b6114ab60a0830184611438565b979650505050505050565b600080fd5b600080fd5b600080fd5b60008083601f8401126114db576114da6114b6565b5b8235905067ffffffffffffffff8111156114f8576114f76114bb565b5b602083019150836001820283011115611514576115136114c0565b5b9250929050565b6000806000806000806080878903121561153857611537610fe4565b5b600087013567ffffffffffffffff81111561155657611555610fe9565b5b61156289828a016114c5565b9650965050602087013567ffffffffffffffff81111561158557611584610fe9565b5b61159189828a016114c5565b945094505060406115a489828a0161106d565b92505060606115b589828a0161106d565b9150509295509295509295565b7f4e487b7100000000000000000000000000000000000000000000000000000000600052604160045260246000fd5b7f4e487b7100000000000000000000000000000000000000000000000000000000600052603260045260246000fd5b7f4e487b7100000000000000000000000000000000000000000000000000000000600052602260045260246000fd5b6000600282049050600182168061166757607f821691505b60208210810361167a57611679611620565b5b50919050565b7f4e487b7100000000000000000000000000000000000000000000000000000000600052601160045260246000fd5b60006116ba8261104c565b91507fffffffffffffffffffffffffffffffffffffffffffffffffffffffffffffffff82036116ec576116eb611680565b5b600182019050919050565b60008190508160005260206000209050919050565b60006020601f8301049050919050565b600082821b905092915050565b6000600883026117597fffffffffffffffffffffffffffffffffffffffffffffffffffffffffffffffff8261171c565b611763868361171c565b95508019841693508086168417925050509392505050565b6000819050919050565b60006117a061179b6117968461104c565b61177b565b61104c565b9050919050565b6000819050919050565b6117ba83611785565b6117ce6117c6826117a7565b848454611729565b825550505050565b600090565b6117e36117d6565b6117ee8184846117b1565b505050565b5b81811015611812576118076000826117db565b6001810190506117f4565b5050565b601f82111561185757611828816116f7565b6118318461170c565b81016020851015611840578190505b61185461184c8561170c565b8301826117f3565b50505b505050565b600082821c905092915050565b600061187a6000198460080261185c565b1980831691505092915050565b60006118938383611869565b9150826002028217905092915050565b6118ac82611154565b67ffffffffffffffff8111156118c5576118c46115c2565b5b6118cf825461164f565b6118da828285611816565b600060209050601f83116001811461190d57600084156118fb578287015190505b6119058582611887565b86555061196d565b601f19841661191b866116f7565b60005b828110156119435784890151825560018201915060208501945060208101905061191e565b86831015611960578489015161195c601f891682611869565b8355505b6001600288020188555050505b505050505050565b82818337600083830152505050565b600061199083856113ee565b935061199d838584611975565b6119a68361119a565b840190509392505050565b600060808201905081810360008301526119cc81888a611984565b905081810360208301526119e1818688611984565b90506119f060408301856110c2565b6119fd60608301846110c2565b979650505050505050565b60006060820190508181036000830152611a2281866113ff565b9050611a3160208301856113df565b611a3e60408301846110c2565b949350505050565b60006080820190508181036000830152611a6081876113ff565b9050611a6f60208301866110c2565b611a7c60408301856113df565b611a8960608301846110c2565b95945050505050565b60006040820190508181036000830152611aac81856113ff565b90508181036020830152611ac081846113ff565b90509392505050565b7f4e487b7100000000000000000000000000000000000000000000000000000000600052605160045260246000fdfe4368616c6c656e67652023257320636f6e747269627574656420627920257320617420257320776974683a55736572202573206861642066657463682025732070656e64696e6720636f6e7472696275746564206368616c6c656e6765735573657220257320686164206665746368656420257320636f6e7472696275746564206368616c6c656e676573a2646970667358221220939f8b0bbf9c5b2245a62c41770a6ff7b64acf986f244bc5a58e5adda0b5230864736f6c634300081c0033",
  "linkReferences": {},
  "deployedLinkReferences": {}
}