{
  "_format": "hh-sol-artifact-1",
  "contractName": "ChallengeManager",
  "sourceName": "contracts/ChallengeManager.sol",
  "abi": [
    {
      "anonymous": false,
      "inputs": [
        {
          "indexed": true,
          "internalType": "address",
          "name": "contributor",
          "type": "address"
        },
        {
          "indexed": false,
          "internalType": "string",
          "name": "title_url",
          "type": "string"
        },
        {
          "indexed": false,
          "internalType": "string",
          "name": "description_url",
          "type": "string"
        },
        {
          "indexed": false,
          "internalType": "enum ChallengeManager.Domain",
          "name": "category",
          "type": "uint8"
        },
        {
          "indexed": false,
          "internalType": "uint256",
          "name": "contribute_at",
          "type": "uint256"
        }
      ],
      "name": "ChallengeContributed",
      "type": "event"
    },
    {
      "anonymous": false,
      "inputs": [
        {
          "indexed": true,
          "internalType": "uint256",
          "name": "challenge_id",
          "type": "uint256"
        },
        {
          "indexed": true,
          "internalType": "address",
          "name": "moderator",
          "type": "address"
        }
      ],
      "name": "ReviewPoolJoined",
      "type": "event"
    },
    {
      "inputs": [
        {
          "internalType": "string",
          "name": "_title_url",
          "type": "string"
        },
        {
          "internalType": "string",
          "name": "_description_url",
          "type": "string"
        },
        {
          "internalType": "enum ChallengeManager.Domain",
          "name": "_category",
          "type": "uint8"
        },
        {
          "internalType": "uint256",
          "name": "_contribute_at",
          "type": "uint256"
        }
      ],
      "name": "contributeChallenge",
      "outputs": [],
      "stateMutability": "nonpayable",
      "type": "function"
    },
    {
      "inputs": [
        {
          "internalType": "uint256",
          "name": "_challenge_id",
          "type": "uint256"
        }
      ],
      "name": "getChallengeById",
      "outputs": [
        {
          "components": [
            {
              "internalType": "uint256",
              "name": "id",
              "type": "uint256"
            },
            {
              "internalType": "address",
              "name": "contributor",
              "type": "address"
            },
            {
              "internalType": "string",
              "name": "title_url",
              "type": "string"
            },
            {
              "internalType": "string",
              "name": "description_url",
              "type": "string"
            },
            {
              "internalType": "enum ChallengeManager.Domain",
              "name": "category",
              "type": "uint8"
            },
            {
              "internalType": "uint256",
              "name": "contribute_at",
              "type": "uint256"
            },
            {
              "internalType": "enum ChallengeManager.ChallengeStatus",
              "name": "status",
              "type": "uint8"
            }
          ],
          "internalType": "struct ChallengeManager.Challenge",
          "name": "",
          "type": "tuple"
        }
      ],
      "stateMutability": "view",
      "type": "function"
    },
    {
      "inputs": [
        {
          "internalType": "address",
          "name": "_contributor_address",
          "type": "address"
        }
      ],
      "name": "getChallengesByContributor",
      "outputs": [
        {
          "components": [
            {
              "internalType": "uint256",
              "name": "id",
              "type": "uint256"
            },
            {
              "internalType": "address",
              "name": "contributor",
              "type": "address"
            },
            {
              "internalType": "string",
              "name": "title_url",
              "type": "string"
            },
            {
              "internalType": "string",
              "name": "description_url",
              "type": "string"
            },
            {
              "internalType": "enum ChallengeManager.Domain",
              "name": "category",
              "type": "uint8"
            },
            {
              "internalType": "uint256",
              "name": "contribute_at",
              "type": "uint256"
            },
            {
              "internalType": "enum ChallengeManager.ChallengeStatus",
              "name": "status",
              "type": "uint8"
            }
          ],
          "internalType": "struct ChallengeManager.Challenge[]",
          "name": "",
          "type": "tuple[]"
        }
      ],
      "stateMutability": "view",
      "type": "function"
    },
    {
      "inputs": [
        {
          "internalType": "address",
          "name": "_moderator_address",
          "type": "address"
        }
      ],
      "name": "getChallengesByModerator",
      "outputs": [
        {
          "components": [
            {
              "internalType": "uint256",
              "name": "id",
              "type": "uint256"
            },
            {
              "internalType": "address",
              "name": "contributor",
              "type": "address"
            },
            {
              "internalType": "string",
              "name": "title_url",
              "type": "string"
            },
            {
              "internalType": "string",
              "name": "description_url",
              "type": "string"
            },
            {
              "internalType": "enum ChallengeManager.Domain",
              "name": "category",
              "type": "uint8"
            },
            {
              "internalType": "uint256",
              "name": "contribute_at",
              "type": "uint256"
            },
            {
              "internalType": "enum ChallengeManager.ChallengeStatus",
              "name": "status",
              "type": "uint8"
            }
          ],
          "internalType": "struct ChallengeManager.Challenge[]",
          "name": "",
          "type": "tuple[]"
        }
      ],
      "stateMutability": "view",
      "type": "function"
    },
    {
      "inputs": [
        {
          "internalType": "uint256",
          "name": "_challenge_id",
          "type": "uint256"
        },
        {
          "internalType": "address",
          "name": "_moderator_address",
          "type": "address"
        }
      ],
      "name": "getJoinReviewPoolStatus",
      "outputs": [
        {
          "internalType": "bool",
          "name": "",
          "type": "bool"
        }
      ],
      "stateMutability": "view",
      "type": "function"
    },
    {
      "inputs": [
        {
          "internalType": "uint256",
          "name": "challenge_id",
          "type": "uint256"
        },
        {
          "internalType": "address",
          "name": "_moderator_address",
          "type": "address"
        }
      ],
      "name": "getModeratorReviewOfChallenge",
      "outputs": [
        {
          "components": [
            {
              "internalType": "address",
              "name": "moderator",
              "type": "address"
            },
            {
              "internalType": "uint256",
              "name": "challenge_id",
              "type": "uint256"
            },
            {
              "internalType": "uint256",
              "name": "review_time",
              "type": "uint256"
            },
            {
              "internalType": "enum ChallengeManager.QualityFactorAnswer",
              "name": "relevance",
              "type": "uint8"
            },
            {
              "internalType": "enum ChallengeManager.QualityFactorAnswer",
              "name": "technical_correctness",
              "type": "uint8"
            },
            {
              "internalType": "enum ChallengeManager.QualityFactorAnswer",
              "name": "completeness",
              "type": "uint8"
            },
            {
              "internalType": "enum ChallengeManager.QualityFactorAnswer",
              "name": "clarity",
              "type": "uint8"
            },
            {
              "internalType": "enum ChallengeManager.QualityFactorAnswer",
              "name": "originality",
              "type": "uint8"
            },
            {
              "internalType": "enum ChallengeManager.QualityFactorAnswer",
              "name": "unbiased",
              "type": "uint8"
            },
            {
              "internalType": "enum ChallengeManager.QualityFactorAnswer",
              "name": "plagiarism_free",
              "type": "uint8"
            },
            {
              "internalType": "enum ChallengeManager.DifficultyLevel",
              "name": "suggested_difficulty",
              "type": "uint8"
            },
            {
              "internalType": "enum ChallengeManager.Domain",
              "name": "suggested_category",
              "type": "uint8"
            },
            {
              "internalType": "uint256",
              "name": "suggested_solve_time",
              "type": "uint256"
            }
          ],
          "internalType": "struct ChallengeManager.ModeratorReview",
          "name": "",
          "type": "tuple"
        }
      ],
      "stateMutability": "view",
      "type": "function"
    },
    {
      "inputs": [
        {
          "internalType": "uint256",
          "name": "_challenge_id",
          "type": "uint256"
        }
      ],
      "name": "getMyModeratorReview",
      "outputs": [
        {
          "components": [
            {
              "internalType": "address",
              "name": "moderator",
              "type": "address"
            },
            {
              "internalType": "uint256",
              "name": "challenge_id",
              "type": "uint256"
            },
            {
              "internalType": "uint256",
              "name": "review_time",
              "type": "uint256"
            },
            {
              "internalType": "enum ChallengeManager.QualityFactorAnswer",
              "name": "relevance",
              "type": "uint8"
            },
            {
              "internalType": "enum ChallengeManager.QualityFactorAnswer",
              "name": "technical_correctness",
              "type": "uint8"
            },
            {
              "internalType": "enum ChallengeManager.QualityFactorAnswer",
              "name": "completeness",
              "type": "uint8"
            },
            {
              "internalType": "enum ChallengeManager.QualityFactorAnswer",
              "name": "clarity",
              "type": "uint8"
            },
            {
              "internalType": "enum ChallengeManager.QualityFactorAnswer",
              "name": "originality",
              "type": "uint8"
            },
            {
              "internalType": "enum ChallengeManager.QualityFactorAnswer",
              "name": "unbiased",
              "type": "uint8"
            },
            {
              "internalType": "enum ChallengeManager.QualityFactorAnswer",
              "name": "plagiarism_free",
              "type": "uint8"
            },
            {
              "internalType": "enum ChallengeManager.DifficultyLevel",
              "name": "suggested_difficulty",
              "type": "uint8"
            },
            {
              "internalType": "enum ChallengeManager.Domain",
              "name": "suggested_category",
              "type": "uint8"
            },
            {
              "internalType": "uint256",
              "name": "suggested_solve_time",
              "type": "uint256"
            }
          ],
          "internalType": "struct ChallengeManager.ModeratorReview",
          "name": "",
          "type": "tuple"
        }
      ],
      "stateMutability": "view",
      "type": "function"
    },
    {
      "inputs": [],
      "name": "getPendingChallenges",
      "outputs": [
        {
          "components": [
            {
              "internalType": "uint256",
              "name": "id",
              "type": "uint256"
            },
            {
              "internalType": "address",
              "name": "contributor",
              "type": "address"
            },
            {
              "internalType": "string",
              "name": "title_url",
              "type": "string"
            },
            {
              "internalType": "string",
              "name": "description_url",
              "type": "string"
            },
            {
              "internalType": "enum ChallengeManager.Domain",
              "name": "category",
              "type": "uint8"
            },
            {
              "internalType": "uint256",
              "name": "contribute_at",
              "type": "uint256"
            },
            {
              "internalType": "enum ChallengeManager.ChallengeStatus",
              "name": "status",
              "type": "uint8"
            }
          ],
          "internalType": "struct ChallengeManager.Challenge[]",
          "name": "",
          "type": "tuple[]"
        }
      ],
      "stateMutability": "view",
      "type": "function"
    },
    {
      "inputs": [
        {
          "internalType": "uint256",
          "name": "_challenge_id",
          "type": "uint256"
        }
      ],
      "name": "joinReviewPool",
      "outputs": [],
      "stateMutability": "nonpayable",
      "type": "function"
    },
    {
      "inputs": [],
      "name": "pass_threshold",
      "outputs": [
        {
          "internalType": "uint256",
          "name": "",
          "type": "uint256"
        }
      ],
      "stateMutability": "view",
      "type": "function"
    },
    {
      "inputs": [],
      "name": "pending_challenges",
      "outputs": [
        {
          "internalType": "uint256",
          "name": "",
          "type": "uint256"
        }
      ],
      "stateMutability": "view",
      "type": "function"
    },
    {
      "inputs": [],
      "name": "quorum",
      "outputs": [
        {
          "internalType": "uint256",
          "name": "",
          "type": "uint256"
        }
      ],
      "stateMutability": "view",
      "type": "function"
    },
    {
      "inputs": [],
      "name": "total_challenges",
      "outputs": [
        {
          "internalType": "uint256",
          "name": "",
          "type": "uint256"
        }
      ],
      "stateMutability": "view",
      "type": "function"
    },
    {
      "inputs": [
        {
          "internalType": "uint256",
          "name": "_challenge_id",
          "type": "uint256"
        },
        {
          "internalType": "enum ChallengeManager.QualityFactorAnswer",
          "name": "_relevance",
          "type": "uint8"
        },
        {
          "internalType": "enum ChallengeManager.QualityFactorAnswer",
          "name": "_technical_correctness",
          "type": "uint8"
        },
        {
          "internalType": "enum ChallengeManager.QualityFactorAnswer",
          "name": "_completeness",
          "type": "uint8"
        },
        {
          "internalType": "enum ChallengeManager.QualityFactorAnswer",
          "name": "_clarity",
          "type": "uint8"
        },
        {
          "internalType": "enum ChallengeManager.QualityFactorAnswer",
          "name": "_originality",
          "type": "uint8"
        },
        {
          "internalType": "enum ChallengeManager.QualityFactorAnswer",
          "name": "_unbiased",
          "type": "uint8"
        },
        {
          "internalType": "enum ChallengeManager.QualityFactorAnswer",
          "name": "_plagiarism_free",
          "type": "uint8"
        },
        {
          "internalType": "enum ChallengeManager.DifficultyLevel",
          "name": "_suggested_difficulty",
          "type": "uint8"
        },
        {
          "internalType": "enum ChallengeManager.Domain",
          "name": "_suggested_category",
          "type": "uint8"
        },
        {
          "internalType": "uint256",
          "name": "_suggested_solve_time",
          "type": "uint256"
        }
      ],
      "name": "updateModeratorReview",
      "outputs": [],
      "stateMutability": "nonpayable",
      "type": "function"
    }
  ],
  "bytecode": "0x60806040526000600455600060055560036006556050600755348015602357600080fd5b50613b53806100336000396000f3fe608060405234801561001057600080fd5b50600436106100ea5760003560e01c80635d9db5c41161008c57806392376e131161006657806392376e131461025f578063a0c2f47f1461028f578063be21f20c146102ab578063c80191b8146102c9576100ea565b80635d9db5c4146101e3578063616e2e56146101ff5780637478d3051461022f576100ea565b80632b366996116100c85780632b3669961461015b5780634c7b5a8e146101795780635057494a146101975780635a14c944146101c7576100ea565b80630f335603146100ef5780631703a0181461011f578063232dd5ab1461013d575b600080fd5b610109600480360381019061010491906129c3565b6102f9565b6040516101169190612c33565b60405180910390f35b610127610612565b6040516101349190612c5e565b60405180910390f35b610145610618565b6040516101529190612c5e565b60405180910390f35b61016361061e565b6040516101709190612c5e565b60405180910390f35b610181610624565b60405161018e9190612c5e565b60405180910390f35b6101b160048036038101906101ac9190612c79565b61062a565b6040516101be9190612ee3565b60405180910390f35b6101e160048036038101906101dc9190612f05565b6109b8565b005b6101fd60048036038101906101f89190612fbc565b610c06565b005b61021960048036038101906102149190612c79565b61101c565b6040516102269190612ee3565b60405180910390f35b61024960048036038101906102449190612f05565b6113aa565b6040516102569190612c33565b60405180910390f35b61027960048036038101906102749190612f05565b611762565b6040516102869190613106565b60405180910390f35b6102a960048036038101906102a49190613172565b6119b5565b005b6102b361212a565b6040516102c09190612ee3565b60405180910390f35b6102e360048036038101906102de91906129c3565b61245a565b6040516102f09190613281565b60405180910390f35b610301612784565b6103246040518060600160405280602b8152602001613a41602b913983856124c5565b6001600084815260200190815260200160002060010160008373ffffffffffffffffffffffffffffffffffffffff1673ffffffffffffffffffffffffffffffffffffffff168152602001908152602001600020604051806101a00160405290816000820160009054906101000a900473ffffffffffffffffffffffffffffffffffffffff1673ffffffffffffffffffffffffffffffffffffffff1673ffffffffffffffffffffffffffffffffffffffff16815260200160018201548152602001600282015481526020016003820160009054906101000a900460ff16600181111561041257610411612a21565b5b600181111561042457610423612a21565b5b81526020016003820160019054906101000a900460ff16600181111561044d5761044c612a21565b5b600181111561045f5761045e612a21565b5b81526020016003820160029054906101000a900460ff16600181111561048857610487612a21565b5b600181111561049a57610499612a21565b5b81526020016003820160039054906101000a900460ff1660018111156104c3576104c2612a21565b5b60018111156104d5576104d4612a21565b5b81526020016003820160049054906101000a900460ff1660018111156104fe576104fd612a21565b5b60018111156105105761050f612a21565b5b81526020016003820160059054906101000a900460ff16600181111561053957610538612a21565b5b600181111561054b5761054a612a21565b5b81526020016003820160069054906101000a900460ff16600181111561057457610573612a21565b5b600181111561058657610585612a21565b5b81526020016003820160079054906101000a900460ff1660028111156105af576105ae612a21565b5b60028111156105c1576105c0612a21565b5b81526020016003820160089054906101000a900460ff16600d8111156105ea576105e9612a21565b5b600d8111156105fc576105fb612a21565b5b8152602001600482015481525050905092915050565b60065481565b60075481565b60055481565b60045481565b60606000600360008473ffffffffffffffffffffffffffffffffffffffff1673ffffffffffffffffffffffffffffffffffffffff1681526020019081526020016000208054806020026020016040519081016040528092919081815260200182805480156106b757602002820191906000526020600020905b8154815260200190600101908083116106a3575b505050505090506000815167ffffffffffffffff8111156106db576106da61329c565b5b60405190808252806020026020018201604052801561071457816020015b6107016128a4565b8152602001906001900390816106f95790505b50905060005b825181101561098957600080848381518110610739576107386132cb565b5b602002602001015181526020019081526020016000206040518060e0016040529081600082015481526020016001820160009054906101000a900473ffffffffffffffffffffffffffffffffffffffff1673ffffffffffffffffffffffffffffffffffffffff1673ffffffffffffffffffffffffffffffffffffffff1681526020016002820180546107ca90613329565b80601f01602080910402602001604051908101604052809291908181526020018280546107f690613329565b80156108435780601f1061081857610100808354040283529160200191610843565b820191906000526020600020905b81548152906001019060200180831161082657829003601f168201915b5050505050815260200160038201805461085c90613329565b80601f016020809104026020016040519081016040528092919081815260200182805461088890613329565b80156108d55780601f106108aa576101008083540402835291602001916108d5565b820191906000526020600020905b8154815290600101906020018083116108b857829003601f168201915b505050505081526020016004820160009054906101000a900460ff16600d81111561090357610902612a21565b5b600d81111561091557610914612a21565b5b8152602001600582015481526020016006820160009054906101000a900460ff16600281111561094857610947612a21565b5b600281111561095a57610959612a21565b5b81525050828281518110610971576109706132cb565b5b6020026020010181905250808060010191505061071a565b506109ae6040518060600160405280602b8152602001613a16602b91398584516124c5565b8092505050919050565b600015156001600083815260200190815260200160002060020160003373ffffffffffffffffffffffffffffffffffffffff1673ffffffffffffffffffffffffffffffffffffffff16815260200190815260200160002060009054906101000a900460ff16151514610a5f576040517f08c379a0000000000000000000000000000000000000000000000000000000008152600401610a56906133dd565b60405180910390fd5b600360003373ffffffffffffffffffffffffffffffffffffffff1673ffffffffffffffffffffffffffffffffffffffff168152602001908152602001600020819080600181540180825580915050600190039060005260206000200160009091909190915055600060016000838152602001908152602001600020905080600001339080600181540180825580915050600190039060005260206000200160009091909190916101000a81548173ffffffffffffffffffffffffffffffffffffffff021916908373ffffffffffffffffffffffffffffffffffffffff16021790555060018160020160003373ffffffffffffffffffffffffffffffffffffffff1673ffffffffffffffffffffffffffffffffffffffff16815260200190815260200160002060006101000a81548160ff0219169083151502179055503373ffffffffffffffffffffffffffffffffffffffff16827f07fe5c562bb72cc8709dc10987f69acf04ba0d45c871d6c281e32df878063dcd60405160405180910390a3610c02604051806060016040528060318152602001613aed6031913933846124c5565b5050565b600060046000815480929190610c1b9061342c565b9190505590506040518060e001604052808281526020013373ffffffffffffffffffffffffffffffffffffffff16815260200188888080601f016020809104026020016040519081016040528093929190818152602001838380828437600081840152601f19601f82011690508083019250505050505050815260200186868080601f016020809104026020016040519081016040528093929190818152602001838380828437600081840152601f19601f82011690508083019250505050505050815260200184600d811115610cf557610cf4612a21565b5b815260200183815260200160006002811115610d1457610d13612a21565b5b8152506000808381526020019081526020016000206000820151816000015560208201518160010160006101000a81548173ffffffffffffffffffffffffffffffffffffffff021916908373ffffffffffffffffffffffffffffffffffffffff1602179055506040820151816002019081610d8f9190613620565b506060820151816003019081610da59190613620565b5060808201518160040160006101000a81548160ff0219169083600d811115610dd157610dd0612a21565b5b021790555060a0820151816005015560c08201518160060160006101000a81548160ff02191690836002811115610e0b57610e0a612a21565b5b0217905550905050600260003373ffffffffffffffffffffffffffffffffffffffff1673ffffffffffffffffffffffffffffffffffffffff16815260200190815260200160002081908060018154018082558091505060019003906000526020600020016000909190919091505560056000815480929190610e8c9061342c565b9190505550610eb56040518060600160405280602b81526020016139be602b9139823385612564565b610f386040518060400160405280601781526020017f2d205469746c652075726c20202020202020203a20257300000000000000000081525088888080601f016020809104026020016040519081016040528093929190818152602001838380828437600081840152601f19601f82011690508083019250505050505050612606565b610fbb6040518060400160405280601781526020017f2d204465736372697074696f6e2075726c20203a20257300000000000000000081525086868080601f016020809104026020016040519081016040528093929190818152602001838380828437600081840152601f19601f82011690508083019250505050505050612606565b3373ffffffffffffffffffffffffffffffffffffffff167f42672180e30fb0e2e6ae998046a0806bf23368de710977e1a63920574c378a1c88888888888860405161100b9695949392919061373d565b60405180910390a250505050505050565b60606000600260008473ffffffffffffffffffffffffffffffffffffffff1673ffffffffffffffffffffffffffffffffffffffff1681526020019081526020016000208054806020026020016040519081016040528092919081815260200182805480156110a957602002820191906000526020600020905b815481526020019060010190808311611095575b505050505090506000815167ffffffffffffffff8111156110cd576110cc61329c565b5b60405190808252806020026020018201604052801561110657816020015b6110f36128a4565b8152602001906001900390816110eb5790505b50905060005b825181101561137b5760008084838151811061112b5761112a6132cb565b5b602002602001015181526020019081526020016000206040518060e0016040529081600082015481526020016001820160009054906101000a900473ffffffffffffffffffffffffffffffffffffffff1673ffffffffffffffffffffffffffffffffffffffff1673ffffffffffffffffffffffffffffffffffffffff1681526020016002820180546111bc90613329565b80601f01602080910402602001604051908101604052809291908181526020018280546111e890613329565b80156112355780601f1061120a57610100808354040283529160200191611235565b820191906000526020600020905b81548152906001019060200180831161121857829003601f168201915b5050505050815260200160038201805461124e90613329565b80601f016020809104026020016040519081016040528092919081815260200182805461127a90613329565b80156112c75780601f1061129c576101008083540402835291602001916112c7565b820191906000526020600020905b8154815290600101906020018083116112aa57829003601f168201915b505050505081526020016004820160009054906101000a900460ff16600d8111156112f5576112f4612a21565b5b600d81111561130757611306612a21565b5b8152602001600582015481526020016006820160009054906101000a900460ff16600281111561133a57611339612a21565b5b600281111561134c5761134b612a21565b5b81525050828281518110611363576113626132cb565b5b6020026020010181905250808060010191505061110c565b506113a06040518060600160405280602d8152602001613ac0602d91398584516124c5565b8092505050919050565b6113b2612784565b6001600083815260200190815260200160002060020160003373ffffffffffffffffffffffffffffffffffffffff1673ffffffffffffffffffffffffffffffffffffffff16815260200190815260200160002060009054906101000a900460ff16611452576040517f08c379a000000000000000000000000000000000000000000000000000000000815260040161144990613806565b60405180910390fd5b6114756040518060600160405280602f815260200161398f602f913933846124c5565b6001600083815260200190815260200160002060010160003373ffffffffffffffffffffffffffffffffffffffff1673ffffffffffffffffffffffffffffffffffffffff168152602001908152602001600020604051806101a00160405290816000820160009054906101000a900473ffffffffffffffffffffffffffffffffffffffff1673ffffffffffffffffffffffffffffffffffffffff1673ffffffffffffffffffffffffffffffffffffffff16815260200160018201548152602001600282015481526020016003820160009054906101000a900460ff16600181111561156357611562612a21565b5b600181111561157557611574612a21565b5b81526020016003820160019054906101000a900460ff16600181111561159e5761159d612a21565b5b60018111156115b0576115af612a21565b5b81526020016003820160029054906101000a900460ff1660018111156115d9576115d8612a21565b5b60018111156115eb576115ea612a21565b5b81526020016003820160039054906101000a900460ff16600181111561161457611613612a21565b5b600181111561162657611625612a21565b5b81526020016003820160049054906101000a900460ff16600181111561164f5761164e612a21565b5b600181111561166157611660612a21565b5b81526020016003820160059054906101000a900460ff16600181111561168a57611689612a21565b5b600181111561169c5761169b612a21565b5b81526020016003820160069054906101000a900460ff1660018111156116c5576116c4612a21565b5b60018111156116d7576116d6612a21565b5b81526020016003820160079054906101000a900460ff166002811115611700576116ff612a21565b5b600281111561171257611711612a21565b5b81526020016003820160089054906101000a900460ff16600d81111561173b5761173a612a21565b5b600d81111561174d5761174c612a21565b5b81526020016004820154815250509050919050565b61176a6128a4565b61178d604051806060016040528060218152602001613a9f6021913933846124c5565b6000808381526020019081526020016000206040518060e0016040529081600082015481526020016001820160009054906101000a900473ffffffffffffffffffffffffffffffffffffffff1673ffffffffffffffffffffffffffffffffffffffff1673ffffffffffffffffffffffffffffffffffffffff16815260200160028201805461181a90613329565b80601f016020809104026020016040519081016040528092919081815260200182805461184690613329565b80156118935780601f1061186857610100808354040283529160200191611893565b820191906000526020600020905b81548152906001019060200180831161187657829003601f168201915b505050505081526020016003820180546118ac90613329565b80601f01602080910402602001604051908101604052809291908181526020018280546118d890613329565b80156119255780601f106118fa57610100808354040283529160200191611925565b820191906000526020600020905b81548152906001019060200180831161190857829003601f168201915b505050505081526020016004820160009054906101000a900460ff16600d81111561195357611952612a21565b5b600d81111561196557611964612a21565b5b8152602001600582015481526020016006820160009054906101000a900460ff16600281111561199857611997612a21565b5b60028111156119aa576119a9612a21565b5b815250509050919050565b60011515600160008d815260200190815260200160002060020160003373ffffffffffffffffffffffffffffffffffffffff1673ffffffffffffffffffffffffffffffffffffffff16815260200190815260200160002060009054906101000a900460ff16151514611a5c576040517f08c379a0000000000000000000000000000000000000000000000000000000008152600401611a5390613806565b60405180910390fd5b6000600160008d81526020019081526020016000209050604051806101a001604052803373ffffffffffffffffffffffffffffffffffffffff1681526020018d81526020014281526020018c6001811115611aba57611ab9612a21565b5b81526020018b6001811115611ad257611ad1612a21565b5b81526020018a6001811115611aea57611ae9612a21565b5b8152602001896001811115611b0257611b01612a21565b5b8152602001886001811115611b1a57611b19612a21565b5b8152602001876001811115611b3257611b31612a21565b5b8152602001866001811115611b4a57611b49612a21565b5b8152602001856002811115611b6257611b61612a21565b5b815260200184600d811115611b7a57611b79612a21565b5b8152602001838152508160010160003373ffffffffffffffffffffffffffffffffffffffff1673ffffffffffffffffffffffffffffffffffffffff16815260200190815260200160002060008201518160000160006101000a81548173ffffffffffffffffffffffffffffffffffffffff021916908373ffffffffffffffffffffffffffffffffffffffff160217905550602082015181600101556040820151816002015560608201518160030160006101000a81548160ff02191690836001811115611c4a57611c49612a21565b5b021790555060808201518160030160016101000a81548160ff02191690836001811115611c7a57611c79612a21565b5b021790555060a08201518160030160026101000a81548160ff02191690836001811115611caa57611ca9612a21565b5b021790555060c08201518160030160036101000a81548160ff02191690836001811115611cda57611cd9612a21565b5b021790555060e08201518160030160046101000a81548160ff02191690836001811115611d0a57611d09612a21565b5b02179055506101008201518160030160056101000a81548160ff02191690836001811115611d3b57611d3a612a21565b5b02179055506101208201518160030160066101000a81548160ff02191690836001811115611d6c57611d6b612a21565b5b02179055506101408201518160030160076101000a81548160ff02191690836002811115611d9d57611d9c612a21565b5b02179055506101608201518160030160086101000a81548160ff0219169083600d811115611dce57611dcd612a21565b5b02179055506101808201518160040155905050611e046040518060600160405280602d81526020016139e9602d9139338e6124c5565b611e556040518060400160405280600f81526020017f2d2052656c6576616e63653a20257300000000000000000000000000000000008152508c6001811115611e5057611e4f612a21565b5b6126a2565b611ea66040518060400160405280601b81526020017f2d20546563686e6963616c20636f72726563746e6573733a20257300000000008152508b6001811115611ea157611ea0612a21565b5b6126a2565b611ef76040518060400160405280601281526020017f2d20436f6d706c6574656e6573733a20257300000000000000000000000000008152508a6001811115611ef257611ef1612a21565b5b6126a2565b611f486040518060400160405280600d81526020017f2d20436c61726974793a20257300000000000000000000000000000000000000815250896001811115611f4357611f42612a21565b5b6126a2565b611f996040518060400160405280601181526020017f2d204f726967696e616c6974793a202573000000000000000000000000000000815250886001811115611f9457611f93612a21565b5b6126a2565b611fea6040518060400160405280600e81526020017f2d20556e6269617365643a202573000000000000000000000000000000000000815250876001811115611fe557611fe4612a21565b5b6126a2565b61203b6040518060400160405280601581526020017f2d20506c616769617269736d20667265653a202573000000000000000000000081525086600181111561203657612035612a21565b5b6126a2565b61208c6040518060400160405280601a81526020017f2d2053756767657374656420646966666963756c74793a20257300000000000081525085600281111561208757612086612a21565b5b6126a2565b6120dd6040518060400160405280601881526020017f2d205375676765737465642063617465676f72793a202573000000000000000081525084600d8111156120d8576120d7612a21565b5b6126a2565b61211c6040518060400160405280601a81526020017f2d2053756767657374656420736f6c76652074696d653a202573000000000000815250836126a2565b505050505050505050505050565b6060600060055467ffffffffffffffff81111561214a5761214961329c565b5b60405190808252806020026020018201604052801561218357816020015b6121706128a4565b8152602001906001900390816121685790505b50905060005b60045481101561242e57600060028111156121a7576121a6612a21565b5b60008083815260200190815260200160002060060160009054906101000a900460ff1660028111156121dc576121db612a21565b5b03612421576000808281526020019081526020016000206040518060e0016040529081600082015481526020016001820160009054906101000a900473ffffffffffffffffffffffffffffffffffffffff1673ffffffffffffffffffffffffffffffffffffffff1673ffffffffffffffffffffffffffffffffffffffff16815260200160028201805461226e90613329565b80601f016020809104026020016040519081016040528092919081815260200182805461229a90613329565b80156122e75780601f106122bc576101008083540402835291602001916122e7565b820191906000526020600020905b8154815290600101906020018083116122ca57829003601f168201915b5050505050815260200160038201805461230090613329565b80601f016020809104026020016040519081016040528092919081815260200182805461232c90613329565b80156123795780601f1061234e57610100808354040283529160200191612379565b820191906000526020600020905b81548152906001019060200180831161235c57829003601f168201915b505050505081526020016004820160009054906101000a900460ff16600d8111156123a7576123a6612a21565b5b600d8111156123b9576123b8612a21565b5b8152602001600582015481526020016006820160009054906101000a900460ff1660028111156123ec576123eb612a21565b5b60028111156123fe576123fd612a21565b5b81525050828281518110612415576124146132cb565b5b60200260200101819052505b8080600101915050612189565b50612453604051806060016040528060338152602001613a6c603391393383516124c5565b8091505090565b60006001600084815260200190815260200160002060020160008373ffffffffffffffffffffffffffffffffffffffff1673ffffffffffffffffffffffffffffffffffffffff16815260200190815260200160002060009054906101000a900460ff16905092915050565b61255f8383836040516024016124dd9392919061386e565b6040516020818303038152906040527f0d26b925000000000000000000000000000000000000000000000000000000007bffffffffffffffffffffffffffffffffffffffffffffffffffffffff19166020820180517bffffffffffffffffffffffffffffffffffffffffffffffffffffffff838183161783525050505061273e565b505050565b6126008484848460405160240161257e94939291906138ac565b6040516020818303038152906040527f4f04fdc6000000000000000000000000000000000000000000000000000000007bffffffffffffffffffffffffffffffffffffffffffffffffffffffff19166020820180517bffffffffffffffffffffffffffffffffffffffffffffffffffffffff838183161783525050505061273e565b50505050565b61269e828260405160240161261c9291906138f8565b6040516020818303038152906040527f4b5c4277000000000000000000000000000000000000000000000000000000007bffffffffffffffffffffffffffffffffffffffffffffffffffffffff19166020820180517bffffffffffffffffffffffffffffffffffffffffffffffffffffffff838183161783525050505061273e565b5050565b61273a82826040516024016126b892919061392f565b6040516020818303038152906040527fb60e72cc000000000000000000000000000000000000000000000000000000007bffffffffffffffffffffffffffffffffffffffffffffffffffffffff19166020820180517bffffffffffffffffffffffffffffffffffffffffffffffffffffffff838183161783525050505061273e565b5050565b6127558161274d612758612779565b63ffffffff16565b50565b60006a636f6e736f6c652e6c6f679050600080835160208501845afa505050565b61291b819050919050565b604051806101a00160405280600073ffffffffffffffffffffffffffffffffffffffff1681526020016000815260200160008152602001600060018111156127cf576127ce612a21565b5b8152602001600060018111156127e8576127e7612a21565b5b81526020016000600181111561280157612800612a21565b5b81526020016000600181111561281a57612819612a21565b5b81526020016000600181111561283357612832612a21565b5b81526020016000600181111561284c5761284b612a21565b5b81526020016000600181111561286557612864612a21565b5b81526020016000600281111561287e5761287d612a21565b5b81526020016000600d81111561289757612896612a21565b5b8152602001600081525090565b6040518060e0016040528060008152602001600073ffffffffffffffffffffffffffffffffffffffff16815260200160608152602001606081526020016000600d8111156128f5576128f4612a21565b5b8152602001600081526020016000600281111561291557612914612a21565b5b81525090565b61292361395f565b565b600080fd5b600080fd5b6000819050919050565b6129428161292f565b811461294d57600080fd5b50565b60008135905061295f81612939565b92915050565b600073ffffffffffffffffffffffffffffffffffffffff82169050919050565b600061299082612965565b9050919050565b6129a081612985565b81146129ab57600080fd5b50565b6000813590506129bd81612997565b92915050565b600080604083850312156129da576129d9612925565b5b60006129e885828601612950565b92505060206129f9858286016129ae565b9150509250929050565b612a0c81612985565b82525050565b612a1b8161292f565b82525050565b7f4e487b7100000000000000000000000000000000000000000000000000000000600052602160045260246000fd5b60028110612a6157612a60612a21565b5b50565b6000819050612a7282612a50565b919050565b6000612a8282612a64565b9050919050565b612a9281612a77565b82525050565b60038110612aa957612aa8612a21565b5b50565b6000819050612aba82612a98565b919050565b6000612aca82612aac565b9050919050565b612ada81612abf565b82525050565b600e8110612af157612af0612a21565b5b50565b6000819050612b0282612ae0565b919050565b6000612b1282612af4565b9050919050565b612b2281612b07565b82525050565b6101a082016000820151612b3f6000850182612a03565b506020820151612b526020850182612a12565b506040820151612b656040850182612a12565b506060820151612b786060850182612a89565b506080820151612b8b6080850182612a89565b5060a0820151612b9e60a0850182612a89565b5060c0820151612bb160c0850182612a89565b5060e0820151612bc460e0850182612a89565b50610100820151612bd9610100850182612a89565b50610120820151612bee610120850182612a89565b50610140820151612c03610140850182612ad1565b50610160820151612c18610160850182612b19565b50610180820151612c2d610180850182612a12565b50505050565b60006101a082019050612c496000830184612b28565b92915050565b612c588161292f565b82525050565b6000602082019050612c736000830184612c4f565b92915050565b600060208284031215612c8f57612c8e612925565b5b6000612c9d848285016129ae565b91505092915050565b600081519050919050565b600082825260208201905092915050565b6000819050602082019050919050565b600081519050919050565b600082825260208201905092915050565b60005b83811015612d0c578082015181840152602081019050612cf1565b60008484015250505050565b6000601f19601f8301169050919050565b6000612d3482612cd2565b612d3e8185612cdd565b9350612d4e818560208601612cee565b612d5781612d18565b840191505092915050565b60038110612d7357612d72612a21565b5b50565b6000819050612d8482612d62565b919050565b6000612d9482612d76565b9050919050565b612da481612d89565b82525050565b600060e083016000830151612dc26000860182612a12565b506020830151612dd56020860182612a03565b5060408301518482036040860152612ded8282612d29565b91505060608301518482036060860152612e078282612d29565b9150506080830151612e1c6080860182612b19565b5060a0830151612e2f60a0860182612a12565b5060c0830151612e4260c0860182612d9b565b508091505092915050565b6000612e598383612daa565b905092915050565b6000602082019050919050565b6000612e7982612ca6565b612e838185612cb1565b935083602082028501612e9585612cc2565b8060005b85811015612ed15784840389528151612eb28582612e4d565b9450612ebd83612e61565b925060208a01995050600181019050612e99565b50829750879550505050505092915050565b60006020820190508181036000830152612efd8184612e6e565b905092915050565b600060208284031215612f1b57612f1a612925565b5b6000612f2984828501612950565b91505092915050565b600080fd5b600080fd5b600080fd5b60008083601f840112612f5757612f56612f32565b5b8235905067ffffffffffffffff811115612f7457612f73612f37565b5b602083019150836001820283011115612f9057612f8f612f3c565b5b9250929050565b600e8110612fa457600080fd5b50565b600081359050612fb681612f97565b92915050565b60008060008060008060808789031215612fd957612fd8612925565b5b600087013567ffffffffffffffff811115612ff757612ff661292a565b5b61300389828a01612f41565b9650965050602087013567ffffffffffffffff8111156130265761302561292a565b5b61303289828a01612f41565b9450945050604061304589828a01612fa7565b925050606061305689828a01612950565b9150509295509295509295565b600060e08301600083015161307b6000860182612a12565b50602083015161308e6020860182612a03565b50604083015184820360408601526130a68282612d29565b915050606083015184820360608601526130c08282612d29565b91505060808301516130d56080860182612b19565b5060a08301516130e860a0860182612a12565b5060c08301516130fb60c0860182612d9b565b508091505092915050565b600060208201905081810360008301526131208184613063565b905092915050565b6002811061313557600080fd5b50565b60008135905061314781613128565b92915050565b6003811061315a57600080fd5b50565b60008135905061316c8161314d565b92915050565b60008060008060008060008060008060006101608c8e03121561319857613197612925565b5b60006131a68e828f01612950565b9b505060206131b78e828f01613138565b9a505060406131c88e828f01613138565b99505060606131d98e828f01613138565b98505060806131ea8e828f01613138565b97505060a06131fb8e828f01613138565b96505060c061320c8e828f01613138565b95505060e061321d8e828f01613138565b94505061010061322f8e828f0161315d565b9350506101206132418e828f01612fa7565b9250506101406132538e828f01612950565b9150509295989b509295989b9093969950565b60008115159050919050565b61327b81613266565b82525050565b60006020820190506132966000830184613272565b92915050565b7f4e487b7100000000000000000000000000000000000000000000000000000000600052604160045260246000fd5b7f4e487b7100000000000000000000000000000000000000000000000000000000600052603260045260246000fd5b7f4e487b7100000000000000000000000000000000000000000000000000000000600052602260045260246000fd5b6000600282049050600182168061334157607f821691505b602082108103613354576133536132fa565b5b50919050565b600082825260208201905092915050565b7f596f75206861766520616c7265616479206a6f696e656420746869732072657660008201527f69657720706f6f6c2e0000000000000000000000000000000000000000000000602082015250565b60006133c760298361335a565b91506133d28261336b565b604082019050919050565b600060208201905081810360008301526133f6816133ba565b9050919050565b7f4e487b7100000000000000000000000000000000000000000000000000000000600052601160045260246000fd5b60006134378261292f565b91507fffffffffffffffffffffffffffffffffffffffffffffffffffffffffffffffff8203613469576134686133fd565b5b600182019050919050565b60008190508160005260206000209050919050565b60006020601f8301049050919050565b600082821b905092915050565b6000600883026134d67fffffffffffffffffffffffffffffffffffffffffffffffffffffffffffffffff82613499565b6134e08683613499565b95508019841693508086168417925050509392505050565b6000819050919050565b600061351d6135186135138461292f565b6134f8565b61292f565b9050919050565b6000819050919050565b61353783613502565b61354b61354382613524565b8484546134a6565b825550505050565b600090565b613560613553565b61356b81848461352e565b505050565b5b8181101561358f57613584600082613558565b600181019050613571565b5050565b601f8211156135d4576135a581613474565b6135ae84613489565b810160208510156135bd578190505b6135d16135c985613489565b830182613570565b50505b505050565b600082821c905092915050565b60006135f7600019846008026135d9565b1980831691505092915050565b600061361083836135e6565b9150826002028217905092915050565b61362982612cd2565b67ffffffffffffffff8111156136425761364161329c565b5b61364c8254613329565b613657828285613593565b600060209050601f83116001811461368a5760008415613678578287015190505b6136828582613604565b8655506136ea565b601f19841661369886613474565b60005b828110156136c05784890151825560018201915060208501945060208101905061369b565b868310156136dd57848901516136d9601f8916826135e6565b8355505b6001600288020188555050505b505050505050565b82818337600083830152505050565b600061370d838561335a565b935061371a8385846136f2565b61372383612d18565b840190509392505050565b61373781612b07565b82525050565b6000608082019050818103600083015261375881888a613701565b9050818103602083015261376d818688613701565b905061377c604083018561372e565b6137896060830184612c4f565b979650505050505050565b7f596f752068617665206e6f74206a6f696e65642074686973207265766965772060008201527f706f6f6c2e000000000000000000000000000000000000000000000000000000602082015250565b60006137f060258361335a565b91506137fb82613794565b604082019050919050565b6000602082019050818103600083015261381f816137e3565b9050919050565b600061383182612cd2565b61383b818561335a565b935061384b818560208601612cee565b61385481612d18565b840191505092915050565b61386881612985565b82525050565b600060608201905081810360008301526138888186613826565b9050613897602083018561385f565b6138a46040830184612c4f565b949350505050565b600060808201905081810360008301526138c68187613826565b90506138d56020830186612c4f565b6138e2604083018561385f565b6138ef6060830184612c4f565b95945050505050565b600060408201905081810360008301526139128185613826565b905081810360208301526139268184613826565b90509392505050565b600060408201905081810360008301526139498185613826565b90506139586020830184612c4f565b9392505050565b7f4e487b7100000000000000000000000000000000000000000000000000000000600052605160045260246000fdfe55736572202573206861642066657463686564206f776e20726576696577206f66206368616c6c656e6765202325734368616c6c656e67652023257320636f6e747269627574656420627920257320617420257320776974683a4d6f64657261746f7220257320757064617465642072657669657720666f72206368616c6c656e67652023257355736572202573206861642066657463686564202573206d6f64657261746564206368616c6c656e6765735573657220257320686164206665746368656420726576696577206f66206368616c6c656e67652023257355736572202573206861642066657463682025732070656e64696e6720636f6e7472696275746564206368616c6c656e67657355736572202573206861642066657463686564206368616c6c656e6765202325735573657220257320686164206665746368656420257320636f6e7472696275746564206368616c6c656e6765734d6f64657261746f72202573206a6f696e65642072657669657720706f6f6c20666f72206368616c6c656e676520232573a26469706673582212203cdfb732f95a944f46f45f81187b4a0d89d3974372334b4a7d9172d535559af164736f6c634300081c0033",
  "linkReferences": {},
  "deployedLinkReferences": {}
}