{
  "_format": "hh-sol-artifact-1",
  "contractName": "ChallengeManager",
  "sourceName": "contracts/ChallengeManager.sol",
  "abi": [
    {
      "anonymous": false,
      "inputs": [
        {
          "indexed": true,
          "internalType": "address",
          "name": "contributor",
          "type": "address"
        },
        {
          "indexed": false,
          "internalType": "string",
          "name": "title_url",
          "type": "string"
        },
        {
          "indexed": false,
          "internalType": "string",
          "name": "description_url",
          "type": "string"
        },
        {
          "indexed": false,
          "internalType": "enum ChallengeManager.Domain",
          "name": "category",
          "type": "uint8"
        },
        {
          "indexed": false,
          "internalType": "uint256",
          "name": "contribute_at",
          "type": "uint256"
        }
      ],
      "name": "ChallengeContributed",
      "type": "event"
    },
    {
      "anonymous": false,
      "inputs": [
        {
          "indexed": true,
          "internalType": "uint256",
          "name": "challenge_id",
          "type": "uint256"
        },
        {
          "indexed": true,
          "internalType": "address",
          "name": "moderator",
          "type": "address"
        }
      ],
      "name": "ReviewPoolJoined",
      "type": "event"
    },
    {
      "inputs": [
        {
          "internalType": "string",
          "name": "_title_url",
          "type": "string"
        },
        {
          "internalType": "string",
          "name": "_description_url",
          "type": "string"
        },
        {
          "internalType": "enum ChallengeManager.Domain",
          "name": "_category",
          "type": "uint8"
        },
        {
          "internalType": "uint256",
          "name": "_contribute_at",
          "type": "uint256"
        }
      ],
      "name": "contributeChallenge",
      "outputs": [],
      "stateMutability": "nonpayable",
      "type": "function"
    },
    {
      "inputs": [
        {
          "internalType": "uint256",
          "name": "_challenge_id",
          "type": "uint256"
        }
      ],
      "name": "getChallengeById",
      "outputs": [
        {
          "components": [
            {
              "internalType": "uint256",
              "name": "id",
              "type": "uint256"
            },
            {
              "internalType": "address",
              "name": "contributor",
              "type": "address"
            },
            {
              "internalType": "string",
              "name": "title_url",
              "type": "string"
            },
            {
              "internalType": "string",
              "name": "description_url",
              "type": "string"
            },
            {
              "internalType": "enum ChallengeManager.Domain",
              "name": "category",
              "type": "uint8"
            },
            {
              "internalType": "uint256",
              "name": "contribute_at",
              "type": "uint256"
            },
            {
              "internalType": "enum ChallengeManager.ChallengeStatus",
              "name": "status",
              "type": "uint8"
            }
          ],
          "internalType": "struct ChallengeManager.Challenge",
          "name": "",
          "type": "tuple"
        }
      ],
      "stateMutability": "view",
      "type": "function"
    },
    {
      "inputs": [
        {
          "internalType": "address",
          "name": "_contributor_address",
          "type": "address"
        }
      ],
      "name": "getChallengesByContributor",
      "outputs": [
        {
          "components": [
            {
              "internalType": "uint256",
              "name": "id",
              "type": "uint256"
            },
            {
              "internalType": "address",
              "name": "contributor",
              "type": "address"
            },
            {
              "internalType": "string",
              "name": "title_url",
              "type": "string"
            },
            {
              "internalType": "string",
              "name": "description_url",
              "type": "string"
            },
            {
              "internalType": "enum ChallengeManager.Domain",
              "name": "category",
              "type": "uint8"
            },
            {
              "internalType": "uint256",
              "name": "contribute_at",
              "type": "uint256"
            },
            {
              "internalType": "enum ChallengeManager.ChallengeStatus",
              "name": "status",
              "type": "uint8"
            }
          ],
          "internalType": "struct ChallengeManager.Challenge[]",
          "name": "",
          "type": "tuple[]"
        }
      ],
      "stateMutability": "view",
      "type": "function"
    },
    {
      "inputs": [
        {
          "internalType": "address",
          "name": "_moderator_address",
          "type": "address"
        }
      ],
      "name": "getChallengesByModerator",
      "outputs": [
        {
          "components": [
            {
              "internalType": "uint256",
              "name": "id",
              "type": "uint256"
            },
            {
              "internalType": "address",
              "name": "contributor",
              "type": "address"
            },
            {
              "internalType": "string",
              "name": "title_url",
              "type": "string"
            },
            {
              "internalType": "string",
              "name": "description_url",
              "type": "string"
            },
            {
              "internalType": "enum ChallengeManager.Domain",
              "name": "category",
              "type": "uint8"
            },
            {
              "internalType": "uint256",
              "name": "contribute_at",
              "type": "uint256"
            },
            {
              "internalType": "enum ChallengeManager.ChallengeStatus",
              "name": "status",
              "type": "uint8"
            }
          ],
          "internalType": "struct ChallengeManager.Challenge[]",
          "name": "",
          "type": "tuple[]"
        }
      ],
      "stateMutability": "view",
      "type": "function"
    },
    {
      "inputs": [
        {
          "internalType": "uint256",
          "name": "_challenge_id",
          "type": "uint256"
        },
        {
          "internalType": "address",
          "name": "_moderator_address",
          "type": "address"
        }
      ],
      "name": "getJoinReviewPoolStatus",
      "outputs": [
        {
          "internalType": "bool",
          "name": "",
          "type": "bool"
        }
      ],
      "stateMutability": "view",
      "type": "function"
    },
    {
      "inputs": [
        {
          "internalType": "uint256",
          "name": "challenge_id",
          "type": "uint256"
        },
        {
          "internalType": "address",
          "name": "_moderator_address",
          "type": "address"
        }
      ],
      "name": "getModeratorReviewOfChallenge",
      "outputs": [
        {
          "components": [
            {
              "internalType": "address",
              "name": "moderator",
              "type": "address"
            },
            {
              "internalType": "uint256",
              "name": "challenge_id",
              "type": "uint256"
            },
            {
              "internalType": "uint256",
              "name": "review_time",
              "type": "uint256"
            },
            {
              "internalType": "bool",
              "name": "relevance",
              "type": "bool"
            },
            {
              "internalType": "bool",
              "name": "technical_correctness",
              "type": "bool"
            },
            {
              "internalType": "bool",
              "name": "completeness",
              "type": "bool"
            },
            {
              "internalType": "bool",
              "name": "clarity",
              "type": "bool"
            },
            {
              "internalType": "bool",
              "name": "originality",
              "type": "bool"
            },
            {
              "internalType": "bool",
              "name": "unbiased",
              "type": "bool"
            },
            {
              "internalType": "bool",
              "name": "plagiarism_free",
              "type": "bool"
            },
            {
              "internalType": "enum ChallengeManager.DifficultyLevel",
              "name": "suggested_difficulty",
              "type": "uint8"
            },
            {
              "internalType": "enum ChallengeManager.Domain",
              "name": "suggested_category",
              "type": "uint8"
            },
            {
              "internalType": "uint256",
              "name": "suggested_solve_time",
              "type": "uint256"
            },
            {
              "internalType": "string[]",
              "name": "suggested_tags",
              "type": "string[]"
            }
          ],
          "internalType": "struct ChallengeManager.ModeratorReview",
          "name": "",
          "type": "tuple"
        }
      ],
      "stateMutability": "view",
      "type": "function"
    },
    {
      "inputs": [],
      "name": "getPendingChallenges",
      "outputs": [
        {
          "components": [
            {
              "internalType": "uint256",
              "name": "id",
              "type": "uint256"
            },
            {
              "internalType": "address",
              "name": "contributor",
              "type": "address"
            },
            {
              "internalType": "string",
              "name": "title_url",
              "type": "string"
            },
            {
              "internalType": "string",
              "name": "description_url",
              "type": "string"
            },
            {
              "internalType": "enum ChallengeManager.Domain",
              "name": "category",
              "type": "uint8"
            },
            {
              "internalType": "uint256",
              "name": "contribute_at",
              "type": "uint256"
            },
            {
              "internalType": "enum ChallengeManager.ChallengeStatus",
              "name": "status",
              "type": "uint8"
            }
          ],
          "internalType": "struct ChallengeManager.Challenge[]",
          "name": "",
          "type": "tuple[]"
        }
      ],
      "stateMutability": "view",
      "type": "function"
    },
    {
      "inputs": [
        {
          "internalType": "uint256",
          "name": "_challenge_id",
          "type": "uint256"
        }
      ],
      "name": "joinReviewPool",
      "outputs": [],
      "stateMutability": "nonpayable",
      "type": "function"
    },
    {
      "inputs": [],
      "name": "pass_threshold",
      "outputs": [
        {
          "internalType": "uint256",
          "name": "",
          "type": "uint256"
        }
      ],
      "stateMutability": "view",
      "type": "function"
    },
    {
      "inputs": [],
      "name": "pending_challenges",
      "outputs": [
        {
          "internalType": "uint256",
          "name": "",
          "type": "uint256"
        }
      ],
      "stateMutability": "view",
      "type": "function"
    },
    {
      "inputs": [],
      "name": "quorum",
      "outputs": [
        {
          "internalType": "uint256",
          "name": "",
          "type": "uint256"
        }
      ],
      "stateMutability": "view",
      "type": "function"
    },
    {
      "inputs": [],
      "name": "total_challenges",
      "outputs": [
        {
          "internalType": "uint256",
          "name": "",
          "type": "uint256"
        }
      ],
      "stateMutability": "view",
      "type": "function"
    }
  ],
  "bytecode": "0x60806040526000600455600060055560036006556050600755348015602357600080fd5b50612cee806100336000396000f3fe608060405234801561001057600080fd5b50600436106100b45760003560e01c80635a14c944116100715780635a14c944146101915780635d9db5c4146101ad578063616e2e56146101c957806392376e13146101f9578063be21f20c14610229578063c80191b814610247576100b4565b80630f335603146100b95780631703a018146100e9578063232dd5ab146101075780632b366996146101255780634c7b5a8e146101435780635057494a14610161575b600080fd5b6100d360048036038101906100ce9190611d08565b610277565b6040516100e091906120c0565b60405180910390f35b6100f1610589565b6040516100fe91906120f1565b60405180910390f35b61010f61058f565b60405161011c91906120f1565b60405180910390f35b61012d610595565b60405161013a91906120f1565b60405180910390f35b61014b61059b565b60405161015891906120f1565b60405180910390f35b61017b6004803603810190610176919061210c565b6105a1565b60405161018891906122e6565b60405180910390f35b6101ab60048036038101906101a69190612308565b61092f565b005b6101c760048036038101906101c291906123bf565b610b7d565b005b6101e360048036038101906101de919061210c565b610f93565b6040516101f091906122e6565b60405180910390f35b610213600480360381019061020e9190612308565b611321565b6040516102209190612509565b60405180910390f35b610231611574565b60405161023e91906122e6565b60405180910390f35b610261600480360381019061025c9190611d08565b6118a4565b60405161026e919061253a565b60405180910390f35b61027f611b32565b6102a26040518060600160405280602b8152602001612bdc602b9139838561190f565b6001600084815260200190815260200160002060010160008373ffffffffffffffffffffffffffffffffffffffff1673ffffffffffffffffffffffffffffffffffffffff168152602001908152602001600020604051806101c00160405290816000820160009054906101000a900473ffffffffffffffffffffffffffffffffffffffff1673ffffffffffffffffffffffffffffffffffffffff1673ffffffffffffffffffffffffffffffffffffffff16815260200160018201548152602001600282015481526020016003820160009054906101000a900460ff161515151581526020016003820160019054906101000a900460ff161515151581526020016003820160029054906101000a900460ff161515151581526020016003820160039054906101000a900460ff161515151581526020016003820160049054906101000a900460ff161515151581526020016003820160059054906101000a900460ff161515151581526020016003820160069054906101000a900460ff161515151581526020016003820160079054906101000a900460ff16600281111561044d5761044c611d81565b5b600281111561045f5761045e611d81565b5b81526020016003820160089054906101000a900460ff16600d81111561048857610487611d81565b5b600d81111561049a57610499611d81565b5b81526020016004820154815260200160058201805480602002602001604051908101604052809291908181526020016000905b828210156105795783829060005260206000200180546104ec90612584565b80601f016020809104026020016040519081016040528092919081815260200182805461051890612584565b80156105655780601f1061053a57610100808354040283529160200191610565565b820191906000526020600020905b81548152906001019060200180831161054857829003601f168201915b5050505050815260200190600101906104cd565b5050505081525050905092915050565b60065481565b60075481565b60055481565b60045481565b60606000600360008473ffffffffffffffffffffffffffffffffffffffff1673ffffffffffffffffffffffffffffffffffffffff16815260200190815260200160002080548060200260200160405190810160405280929190818152602001828054801561062e57602002820191906000526020600020905b81548152602001906001019080831161061a575b505050505090506000815167ffffffffffffffff811115610652576106516125b5565b5b60405190808252806020026020018201604052801561068b57816020015b610678611be9565b8152602001906001900390816106705790505b50905060005b8251811015610900576000808483815181106106b0576106af6125e4565b5b602002602001015181526020019081526020016000206040518060e0016040529081600082015481526020016001820160009054906101000a900473ffffffffffffffffffffffffffffffffffffffff1673ffffffffffffffffffffffffffffffffffffffff1673ffffffffffffffffffffffffffffffffffffffff16815260200160028201805461074190612584565b80601f016020809104026020016040519081016040528092919081815260200182805461076d90612584565b80156107ba5780601f1061078f576101008083540402835291602001916107ba565b820191906000526020600020905b81548152906001019060200180831161079d57829003601f168201915b505050505081526020016003820180546107d390612584565b80601f01602080910402602001604051908101604052809291908181526020018280546107ff90612584565b801561084c5780601f106108215761010080835404028352916020019161084c565b820191906000526020600020905b81548152906001019060200180831161082f57829003601f168201915b505050505081526020016004820160009054906101000a900460ff16600d81111561087a57610879611d81565b5b600d81111561088c5761088b611d81565b5b8152602001600582015481526020016006820160009054906101000a900460ff1660028111156108bf576108be611d81565b5b60028111156108d1576108d0611d81565b5b815250508282815181106108e8576108e76125e4565b5b60200260200101819052508080600101915050610691565b506109256040518060600160405280602b8152602001612bb1602b913985845161190f565b8092505050919050565b600015156001600083815260200190815260200160002060020160003373ffffffffffffffffffffffffffffffffffffffff1673ffffffffffffffffffffffffffffffffffffffff16815260200190815260200160002060009054906101000a900460ff161515146109d6576040517f08c379a00000000000000000000000000000000000000000000000000000000081526004016109cd90612696565b60405180910390fd5b600360003373ffffffffffffffffffffffffffffffffffffffff1673ffffffffffffffffffffffffffffffffffffffff168152602001908152602001600020819080600181540180825580915050600190039060005260206000200160009091909190915055600060016000838152602001908152602001600020905080600001339080600181540180825580915050600190039060005260206000200160009091909190916101000a81548173ffffffffffffffffffffffffffffffffffffffff021916908373ffffffffffffffffffffffffffffffffffffffff16021790555060018160020160003373ffffffffffffffffffffffffffffffffffffffff1673ffffffffffffffffffffffffffffffffffffffff16815260200190815260200160002060006101000a81548160ff0219169083151502179055503373ffffffffffffffffffffffffffffffffffffffff16827f07fe5c562bb72cc8709dc10987f69acf04ba0d45c871d6c281e32df878063dcd60405160405180910390a3610b79604051806060016040528060318152602001612c8860319139338461190f565b5050565b600060046000815480929190610b92906126e5565b9190505590506040518060e001604052808281526020013373ffffffffffffffffffffffffffffffffffffffff16815260200188888080601f016020809104026020016040519081016040528093929190818152602001838380828437600081840152601f19601f82011690508083019250505050505050815260200186868080601f016020809104026020016040519081016040528093929190818152602001838380828437600081840152601f19601f82011690508083019250505050505050815260200184600d811115610c6c57610c6b611d81565b5b815260200183815260200160006002811115610c8b57610c8a611d81565b5b8152506000808381526020019081526020016000206000820151816000015560208201518160010160006101000a81548173ffffffffffffffffffffffffffffffffffffffff021916908373ffffffffffffffffffffffffffffffffffffffff1602179055506040820151816002019081610d0691906128d9565b506060820151816003019081610d1c91906128d9565b5060808201518160040160006101000a81548160ff0219169083600d811115610d4857610d47611d81565b5b021790555060a0820151816005015560c08201518160060160006101000a81548160ff02191690836002811115610d8257610d81611d81565b5b0217905550905050600260003373ffffffffffffffffffffffffffffffffffffffff1673ffffffffffffffffffffffffffffffffffffffff16815260200190815260200160002081908060018154018082558091505060019003906000526020600020016000909190919091505560056000815480929190610e03906126e5565b9190505550610e2c6040518060600160405280602b8152602001612b86602b91398233856119ae565b610eaf6040518060400160405280601781526020017f2d205469746c652075726c20202020202020203a20257300000000000000000081525088888080601f016020809104026020016040519081016040528093929190818152602001838380828437600081840152601f19601f82011690508083019250505050505050611a50565b610f326040518060400160405280601781526020017f2d204465736372697074696f6e2075726c20203a20257300000000000000000081525086868080601f016020809104026020016040519081016040528093929190818152602001838380828437600081840152601f19601f82011690508083019250505050505050611a50565b3373ffffffffffffffffffffffffffffffffffffffff167f42672180e30fb0e2e6ae998046a0806bf23368de710977e1a63920574c378a1c888888888888604051610f82969594939291906129f6565b60405180910390a250505050505050565b60606000600260008473ffffffffffffffffffffffffffffffffffffffff1673ffffffffffffffffffffffffffffffffffffffff16815260200190815260200160002080548060200260200160405190810160405280929190818152602001828054801561102057602002820191906000526020600020905b81548152602001906001019080831161100c575b505050505090506000815167ffffffffffffffff811115611044576110436125b5565b5b60405190808252806020026020018201604052801561107d57816020015b61106a611be9565b8152602001906001900390816110625790505b50905060005b82518110156112f2576000808483815181106110a2576110a16125e4565b5b602002602001015181526020019081526020016000206040518060e0016040529081600082015481526020016001820160009054906101000a900473ffffffffffffffffffffffffffffffffffffffff1673ffffffffffffffffffffffffffffffffffffffff1673ffffffffffffffffffffffffffffffffffffffff16815260200160028201805461113390612584565b80601f016020809104026020016040519081016040528092919081815260200182805461115f90612584565b80156111ac5780601f10611181576101008083540402835291602001916111ac565b820191906000526020600020905b81548152906001019060200180831161118f57829003601f168201915b505050505081526020016003820180546111c590612584565b80601f01602080910402602001604051908101604052809291908181526020018280546111f190612584565b801561123e5780601f106112135761010080835404028352916020019161123e565b820191906000526020600020905b81548152906001019060200180831161122157829003601f168201915b505050505081526020016004820160009054906101000a900460ff16600d81111561126c5761126b611d81565b5b600d81111561127e5761127d611d81565b5b8152602001600582015481526020016006820160009054906101000a900460ff1660028111156112b1576112b0611d81565b5b60028111156112c3576112c2611d81565b5b815250508282815181106112da576112d96125e4565b5b60200260200101819052508080600101915050611083565b506113176040518060600160405280602d8152602001612c5b602d913985845161190f565b8092505050919050565b611329611be9565b61134c604051806060016040528060218152602001612c3a60219139338461190f565b6000808381526020019081526020016000206040518060e0016040529081600082015481526020016001820160009054906101000a900473ffffffffffffffffffffffffffffffffffffffff1673ffffffffffffffffffffffffffffffffffffffff1673ffffffffffffffffffffffffffffffffffffffff1681526020016002820180546113d990612584565b80601f016020809104026020016040519081016040528092919081815260200182805461140590612584565b80156114525780601f1061142757610100808354040283529160200191611452565b820191906000526020600020905b81548152906001019060200180831161143557829003601f168201915b5050505050815260200160038201805461146b90612584565b80601f016020809104026020016040519081016040528092919081815260200182805461149790612584565b80156114e45780601f106114b9576101008083540402835291602001916114e4565b820191906000526020600020905b8154815290600101906020018083116114c757829003601f168201915b505050505081526020016004820160009054906101000a900460ff16600d81111561151257611511611d81565b5b600d81111561152457611523611d81565b5b8152602001600582015481526020016006820160009054906101000a900460ff16600281111561155757611556611d81565b5b600281111561156957611568611d81565b5b815250509050919050565b6060600060055467ffffffffffffffff811115611594576115936125b5565b5b6040519080825280602002602001820160405280156115cd57816020015b6115ba611be9565b8152602001906001900390816115b25790505b50905060005b60045481101561187857600060028111156115f1576115f0611d81565b5b60008083815260200190815260200160002060060160009054906101000a900460ff16600281111561162657611625611d81565b5b0361186b576000808281526020019081526020016000206040518060e0016040529081600082015481526020016001820160009054906101000a900473ffffffffffffffffffffffffffffffffffffffff1673ffffffffffffffffffffffffffffffffffffffff1673ffffffffffffffffffffffffffffffffffffffff1681526020016002820180546116b890612584565b80601f01602080910402602001604051908101604052809291908181526020018280546116e490612584565b80156117315780601f1061170657610100808354040283529160200191611731565b820191906000526020600020905b81548152906001019060200180831161171457829003601f168201915b5050505050815260200160038201805461174a90612584565b80601f016020809104026020016040519081016040528092919081815260200182805461177690612584565b80156117c35780601f10611798576101008083540402835291602001916117c3565b820191906000526020600020905b8154815290600101906020018083116117a657829003601f168201915b505050505081526020016004820160009054906101000a900460ff16600d8111156117f1576117f0611d81565b5b600d81111561180357611802611d81565b5b8152602001600582015481526020016006820160009054906101000a900460ff16600281111561183657611835611d81565b5b600281111561184857611847611d81565b5b8152505082828151811061185f5761185e6125e4565b5b60200260200101819052505b80806001019150506115d3565b5061189d604051806060016040528060338152602001612c076033913933835161190f565b8091505090565b60006001600084815260200190815260200160002060020160008373ffffffffffffffffffffffffffffffffffffffff1673ffffffffffffffffffffffffffffffffffffffff16815260200190815260200160002060009054906101000a900460ff16905092915050565b6119a983838360405160240161192793929190612a95565b6040516020818303038152906040527f0d26b925000000000000000000000000000000000000000000000000000000007bffffffffffffffffffffffffffffffffffffffffffffffffffffffff19166020820180517bffffffffffffffffffffffffffffffffffffffffffffffffffffffff8381831617835250505050611aec565b505050565b611a4a848484846040516024016119c89493929190612ad3565b6040516020818303038152906040527f4f04fdc6000000000000000000000000000000000000000000000000000000007bffffffffffffffffffffffffffffffffffffffffffffffffffffffff19166020820180517bffffffffffffffffffffffffffffffffffffffffffffffffffffffff8381831617835250505050611aec565b50505050565b611ae88282604051602401611a66929190612b1f565b6040516020818303038152906040527f4b5c4277000000000000000000000000000000000000000000000000000000007bffffffffffffffffffffffffffffffffffffffffffffffffffffffff19166020820180517bffffffffffffffffffffffffffffffffffffffffffffffffffffffff8381831617835250505050611aec565b5050565b611b0381611afb611b06611b27565b63ffffffff16565b50565b60006a636f6e736f6c652e6c6f679050600080835160208501845afa505050565b611c60819050919050565b604051806101c00160405280600073ffffffffffffffffffffffffffffffffffffffff168152602001600081526020016000815260200160001515815260200160001515815260200160001515815260200160001515815260200160001515815260200160001515815260200160001515815260200160006002811115611bbc57611bbb611d81565b5b81526020016000600d811115611bd557611bd4611d81565b5b815260200160008152602001606081525090565b6040518060e0016040528060008152602001600073ffffffffffffffffffffffffffffffffffffffff16815260200160608152602001606081526020016000600d811115611c3a57611c39611d81565b5b81526020016000815260200160006002811115611c5a57611c59611d81565b5b81525090565b611c68612b56565b565b600080fd5b600080fd5b6000819050919050565b611c8781611c74565b8114611c9257600080fd5b50565b600081359050611ca481611c7e565b92915050565b600073ffffffffffffffffffffffffffffffffffffffff82169050919050565b6000611cd582611caa565b9050919050565b611ce581611cca565b8114611cf057600080fd5b50565b600081359050611d0281611cdc565b92915050565b60008060408385031215611d1f57611d1e611c6a565b5b6000611d2d85828601611c95565b9250506020611d3e85828601611cf3565b9150509250929050565b611d5181611cca565b82525050565b611d6081611c74565b82525050565b60008115159050919050565b611d7b81611d66565b82525050565b7f4e487b7100000000000000000000000000000000000000000000000000000000600052602160045260246000fd5b60038110611dc157611dc0611d81565b5b50565b6000819050611dd282611db0565b919050565b6000611de282611dc4565b9050919050565b611df281611dd7565b82525050565b600e8110611e0957611e08611d81565b5b50565b6000819050611e1a82611df8565b919050565b6000611e2a82611e0c565b9050919050565b611e3a81611e1f565b82525050565b600081519050919050565b600082825260208201905092915050565b6000819050602082019050919050565b600081519050919050565b600082825260208201905092915050565b60005b83811015611ea6578082015181840152602081019050611e8b565b60008484015250505050565b6000601f19601f8301169050919050565b6000611ece82611e6c565b611ed88185611e77565b9350611ee8818560208601611e88565b611ef181611eb2565b840191505092915050565b6000611f088383611ec3565b905092915050565b6000602082019050919050565b6000611f2882611e40565b611f328185611e4b565b935083602082028501611f4485611e5c565b8060005b85811015611f805784840389528151611f618582611efc565b9450611f6c83611f10565b925060208a01995050600181019050611f48565b50829750879550505050505092915050565b60006101c083016000830151611fab6000860182611d48565b506020830151611fbe6020860182611d57565b506040830151611fd16040860182611d57565b506060830151611fe46060860182611d72565b506080830151611ff76080860182611d72565b5060a083015161200a60a0860182611d72565b5060c083015161201d60c0860182611d72565b5060e083015161203060e0860182611d72565b50610100830151612045610100860182611d72565b5061012083015161205a610120860182611d72565b5061014083015161206f610140860182611de9565b50610160830151612084610160860182611e31565b50610180830151612099610180860182611d57565b506101a08301518482036101a08601526120b38282611f1d565b9150508091505092915050565b600060208201905081810360008301526120da8184611f92565b905092915050565b6120eb81611c74565b82525050565b600060208201905061210660008301846120e2565b92915050565b60006020828403121561212257612121611c6a565b5b600061213084828501611cf3565b91505092915050565b600081519050919050565b600082825260208201905092915050565b6000819050602082019050919050565b6003811061217657612175611d81565b5b50565b600081905061218782612165565b919050565b600061219782612179565b9050919050565b6121a78161218c565b82525050565b600060e0830160008301516121c56000860182611d57565b5060208301516121d86020860182611d48565b50604083015184820360408601526121f08282611ec3565b9150506060830151848203606086015261220a8282611ec3565b915050608083015161221f6080860182611e31565b5060a083015161223260a0860182611d57565b5060c083015161224560c086018261219e565b508091505092915050565b600061225c83836121ad565b905092915050565b6000602082019050919050565b600061227c82612139565b6122868185612144565b93508360208202850161229885612155565b8060005b858110156122d457848403895281516122b58582612250565b94506122c083612264565b925060208a0199505060018101905061229c565b50829750879550505050505092915050565b600060208201905081810360008301526123008184612271565b905092915050565b60006020828403121561231e5761231d611c6a565b5b600061232c84828501611c95565b91505092915050565b600080fd5b600080fd5b600080fd5b60008083601f84011261235a57612359612335565b5b8235905067ffffffffffffffff8111156123775761237661233a565b5b6020830191508360018202830111156123935761239261233f565b5b9250929050565b600e81106123a757600080fd5b50565b6000813590506123b98161239a565b92915050565b600080600080600080608087890312156123dc576123db611c6a565b5b600087013567ffffffffffffffff8111156123fa576123f9611c6f565b5b61240689828a01612344565b9650965050602087013567ffffffffffffffff81111561242957612428611c6f565b5b61243589828a01612344565b9450945050604061244889828a016123aa565b925050606061245989828a01611c95565b9150509295509295509295565b600060e08301600083015161247e6000860182611d57565b5060208301516124916020860182611d48565b50604083015184820360408601526124a98282611ec3565b915050606083015184820360608601526124c38282611ec3565b91505060808301516124d86080860182611e31565b5060a08301516124eb60a0860182611d57565b5060c08301516124fe60c086018261219e565b508091505092915050565b600060208201905081810360008301526125238184612466565b905092915050565b61253481611d66565b82525050565b600060208201905061254f600083018461252b565b92915050565b7f4e487b7100000000000000000000000000000000000000000000000000000000600052602260045260246000fd5b6000600282049050600182168061259c57607f821691505b6020821081036125af576125ae612555565b5b50919050565b7f4e487b7100000000000000000000000000000000000000000000000000000000600052604160045260246000fd5b7f4e487b7100000000000000000000000000000000000000000000000000000000600052603260045260246000fd5b600082825260208201905092915050565b7f596f75206861766520616c7265616479206a6f696e656420746869732072657660008201527f69657720706f6f6c2e0000000000000000000000000000000000000000000000602082015250565b6000612680602983612613565b915061268b82612624565b604082019050919050565b600060208201905081810360008301526126af81612673565b9050919050565b7f4e487b7100000000000000000000000000000000000000000000000000000000600052601160045260246000fd5b60006126f082611c74565b91507fffffffffffffffffffffffffffffffffffffffffffffffffffffffffffffffff8203612722576127216126b6565b5b600182019050919050565b60008190508160005260206000209050919050565b60006020601f8301049050919050565b600082821b905092915050565b60006008830261278f7fffffffffffffffffffffffffffffffffffffffffffffffffffffffffffffffff82612752565b6127998683612752565b95508019841693508086168417925050509392505050565b6000819050919050565b60006127d66127d16127cc84611c74565b6127b1565b611c74565b9050919050565b6000819050919050565b6127f0836127bb565b6128046127fc826127dd565b84845461275f565b825550505050565b600090565b61281961280c565b6128248184846127e7565b505050565b5b818110156128485761283d600082612811565b60018101905061282a565b5050565b601f82111561288d5761285e8161272d565b61286784612742565b81016020851015612876578190505b61288a61288285612742565b830182612829565b50505b505050565b600082821c905092915050565b60006128b060001984600802612892565b1980831691505092915050565b60006128c9838361289f565b9150826002028217905092915050565b6128e282611e6c565b67ffffffffffffffff8111156128fb576128fa6125b5565b5b6129058254612584565b61291082828561284c565b600060209050601f8311600181146129435760008415612931578287015190505b61293b85826128bd565b8655506129a3565b601f1984166129518661272d565b60005b8281101561297957848901518255600182019150602085019450602081019050612954565b868310156129965784890151612992601f89168261289f565b8355505b6001600288020188555050505b505050505050565b82818337600083830152505050565b60006129c68385612613565b93506129d38385846129ab565b6129dc83611eb2565b840190509392505050565b6129f081611e1f565b82525050565b60006080820190508181036000830152612a1181888a6129ba565b90508181036020830152612a268186886129ba565b9050612a3560408301856129e7565b612a4260608301846120e2565b979650505050505050565b6000612a5882611e6c565b612a628185612613565b9350612a72818560208601611e88565b612a7b81611eb2565b840191505092915050565b612a8f81611cca565b82525050565b60006060820190508181036000830152612aaf8186612a4d565b9050612abe6020830185612a86565b612acb60408301846120e2565b949350505050565b60006080820190508181036000830152612aed8187612a4d565b9050612afc60208301866120e2565b612b096040830185612a86565b612b1660608301846120e2565b95945050505050565b60006040820190508181036000830152612b398185612a4d565b90508181036020830152612b4d8184612a4d565b90509392505050565b7f4e487b7100000000000000000000000000000000000000000000000000000000600052605160045260246000fdfe4368616c6c656e67652023257320636f6e747269627574656420627920257320617420257320776974683a55736572202573206861642066657463686564202573206d6f64657261746564206368616c6c656e6765735573657220257320686164206665746368656420726576696577206f66206368616c6c656e67652023257355736572202573206861642066657463682025732070656e64696e6720636f6e7472696275746564206368616c6c656e67657355736572202573206861642066657463686564206368616c6c656e6765202325735573657220257320686164206665746368656420257320636f6e7472696275746564206368616c6c656e6765734d6f64657261746f72202573206a6f696e65642072657669657720706f6f6c20666f72206368616c6c656e676520232573a26469706673582212205f745bd81f6c84ebfebc1215f289a42364966d74a599e79eee67a2c1221c9eed64736f6c634300081c0033",
  "linkReferences": {},
  "deployedLinkReferences": {}
}