{
  "_format": "hh-sol-artifact-1",
  "contractName": "ChallengeManager",
  "sourceName": "contracts/ChallengeManager.sol",
  "abi": [
    {
      "anonymous": false,
      "inputs": [
        {
          "indexed": true,
          "internalType": "address",
          "name": "contributor",
          "type": "address"
        },
        {
          "indexed": false,
          "internalType": "string",
          "name": "title_url",
          "type": "string"
        },
        {
          "indexed": false,
          "internalType": "string",
          "name": "description_url",
          "type": "string"
        },
        {
          "indexed": false,
          "internalType": "enum ChallengeManager.Domain",
          "name": "category",
          "type": "uint8"
        },
        {
          "indexed": false,
          "internalType": "uint256",
          "name": "contribute_at",
          "type": "uint256"
        }
      ],
      "name": "ChallengeContributed",
      "type": "event"
    },
    {
      "anonymous": false,
      "inputs": [
        {
          "indexed": true,
          "internalType": "uint256",
          "name": "challengeId",
          "type": "uint256"
        },
        {
          "indexed": false,
          "internalType": "enum ChallengeManager.ChallengeStatus",
          "name": "status",
          "type": "uint8"
        },
        {
          "indexed": false,
          "internalType": "uint256",
          "name": "averagePercent",
          "type": "uint256"
        }
      ],
      "name": "ChallengeFinalized",
      "type": "event"
    },
    {
      "anonymous": false,
      "inputs": [
        {
          "indexed": true,
          "internalType": "uint256",
          "name": "challenge_id",
          "type": "uint256"
        },
        {
          "indexed": true,
          "internalType": "address",
          "name": "moderator",
          "type": "address"
        }
      ],
      "name": "ReviewPoolJoined",
      "type": "event"
    },
    {
      "inputs": [],
      "name": "MAX_DIFFICULTY_LEVEL",
      "outputs": [
        {
          "internalType": "uint256",
          "name": "",
          "type": "uint256"
        }
      ],
      "stateMutability": "view",
      "type": "function"
    },
    {
      "inputs": [],
      "name": "MAX_DOMAIN",
      "outputs": [
        {
          "internalType": "uint256",
          "name": "",
          "type": "uint256"
        }
      ],
      "stateMutability": "view",
      "type": "function"
    },
    {
      "inputs": [],
      "name": "NUMBER_OF_QUALITY_FACTORS",
      "outputs": [
        {
          "internalType": "uint256",
          "name": "",
          "type": "uint256"
        }
      ],
      "stateMutability": "view",
      "type": "function"
    },
    {
      "inputs": [],
      "name": "REVIEW_QUORUM",
      "outputs": [
        {
          "internalType": "uint256",
          "name": "",
          "type": "uint256"
        }
      ],
      "stateMutability": "view",
      "type": "function"
    },
    {
      "inputs": [],
      "name": "REVIEW_THRESHOLD",
      "outputs": [
        {
          "internalType": "uint256",
          "name": "",
          "type": "uint256"
        }
      ],
      "stateMutability": "view",
      "type": "function"
    },
    {
      "inputs": [],
      "name": "approved_challenges",
      "outputs": [
        {
          "internalType": "uint256",
          "name": "",
          "type": "uint256"
        }
      ],
      "stateMutability": "view",
      "type": "function"
    },
    {
      "inputs": [
        {
          "internalType": "string",
          "name": "_title_url",
          "type": "string"
        },
        {
          "internalType": "string",
          "name": "_description_url",
          "type": "string"
        },
        {
          "internalType": "enum ChallengeManager.Domain",
          "name": "_category",
          "type": "uint8"
        },
        {
          "internalType": "uint256",
          "name": "_contribute_at",
          "type": "uint256"
        }
      ],
      "name": "contributeChallenge",
      "outputs": [],
      "stateMutability": "nonpayable",
      "type": "function"
    },
    {
      "inputs": [],
      "name": "getApprovedChallenges",
      "outputs": [
        {
          "components": [
            {
              "internalType": "uint256",
              "name": "id",
              "type": "uint256"
            },
            {
              "internalType": "address",
              "name": "contributor",
              "type": "address"
            },
            {
              "internalType": "string",
              "name": "title_url",
              "type": "string"
            },
            {
              "internalType": "string",
              "name": "description_url",
              "type": "string"
            },
            {
              "internalType": "enum ChallengeManager.Domain",
              "name": "category",
              "type": "uint8"
            },
            {
              "internalType": "uint256",
              "name": "contribute_at",
              "type": "uint256"
            },
            {
              "internalType": "enum ChallengeManager.ChallengeStatus",
              "name": "status",
              "type": "uint8"
            },
            {
              "internalType": "uint256",
              "name": "quality_score",
              "type": "uint256"
            },
            {
              "internalType": "enum ChallengeManager.DifficultyLevel",
              "name": "difficulty_level",
              "type": "uint8"
            },
            {
              "internalType": "uint256",
              "name": "solve_time",
              "type": "uint256"
            }
          ],
          "internalType": "struct ChallengeManager.Challenge[]",
          "name": "",
          "type": "tuple[]"
        }
      ],
      "stateMutability": "view",
      "type": "function"
    },
    {
      "inputs": [
        {
          "internalType": "uint256",
          "name": "_challenge_id",
          "type": "uint256"
        }
      ],
      "name": "getChallengeById",
      "outputs": [
        {
          "components": [
            {
              "internalType": "uint256",
              "name": "id",
              "type": "uint256"
            },
            {
              "internalType": "address",
              "name": "contributor",
              "type": "address"
            },
            {
              "internalType": "string",
              "name": "title_url",
              "type": "string"
            },
            {
              "internalType": "string",
              "name": "description_url",
              "type": "string"
            },
            {
              "internalType": "enum ChallengeManager.Domain",
              "name": "category",
              "type": "uint8"
            },
            {
              "internalType": "uint256",
              "name": "contribute_at",
              "type": "uint256"
            },
            {
              "internalType": "enum ChallengeManager.ChallengeStatus",
              "name": "status",
              "type": "uint8"
            },
            {
              "internalType": "uint256",
              "name": "quality_score",
              "type": "uint256"
            },
            {
              "internalType": "enum ChallengeManager.DifficultyLevel",
              "name": "difficulty_level",
              "type": "uint8"
            },
            {
              "internalType": "uint256",
              "name": "solve_time",
              "type": "uint256"
            }
          ],
          "internalType": "struct ChallengeManager.Challenge",
          "name": "",
          "type": "tuple"
        }
      ],
      "stateMutability": "view",
      "type": "function"
    },
    {
      "inputs": [
        {
          "internalType": "uint256",
          "name": "_challenge_id",
          "type": "uint256"
        }
      ],
      "name": "getChallengeFinalizedStatus",
      "outputs": [
        {
          "internalType": "bool",
          "name": "",
          "type": "bool"
        }
      ],
      "stateMutability": "view",
      "type": "function"
    },
    {
      "inputs": [
        {
          "internalType": "address",
          "name": "_contributor_address",
          "type": "address"
        }
      ],
      "name": "getChallengesByContributor",
      "outputs": [
        {
          "components": [
            {
              "internalType": "uint256",
              "name": "id",
              "type": "uint256"
            },
            {
              "internalType": "address",
              "name": "contributor",
              "type": "address"
            },
            {
              "internalType": "string",
              "name": "title_url",
              "type": "string"
            },
            {
              "internalType": "string",
              "name": "description_url",
              "type": "string"
            },
            {
              "internalType": "enum ChallengeManager.Domain",
              "name": "category",
              "type": "uint8"
            },
            {
              "internalType": "uint256",
              "name": "contribute_at",
              "type": "uint256"
            },
            {
              "internalType": "enum ChallengeManager.ChallengeStatus",
              "name": "status",
              "type": "uint8"
            },
            {
              "internalType": "uint256",
              "name": "quality_score",
              "type": "uint256"
            },
            {
              "internalType": "enum ChallengeManager.DifficultyLevel",
              "name": "difficulty_level",
              "type": "uint8"
            },
            {
              "internalType": "uint256",
              "name": "solve_time",
              "type": "uint256"
            }
          ],
          "internalType": "struct ChallengeManager.Challenge[]",
          "name": "",
          "type": "tuple[]"
        }
      ],
      "stateMutability": "view",
      "type": "function"
    },
    {
      "inputs": [
        {
          "internalType": "address",
          "name": "_moderator_address",
          "type": "address"
        }
      ],
      "name": "getChallengesByModerator",
      "outputs": [
        {
          "components": [
            {
              "internalType": "uint256",
              "name": "id",
              "type": "uint256"
            },
            {
              "internalType": "address",
              "name": "contributor",
              "type": "address"
            },
            {
              "internalType": "string",
              "name": "title_url",
              "type": "string"
            },
            {
              "internalType": "string",
              "name": "description_url",
              "type": "string"
            },
            {
              "internalType": "enum ChallengeManager.Domain",
              "name": "category",
              "type": "uint8"
            },
            {
              "internalType": "uint256",
              "name": "contribute_at",
              "type": "uint256"
            },
            {
              "internalType": "enum ChallengeManager.ChallengeStatus",
              "name": "status",
              "type": "uint8"
            },
            {
              "internalType": "uint256",
              "name": "quality_score",
              "type": "uint256"
            },
            {
              "internalType": "enum ChallengeManager.DifficultyLevel",
              "name": "difficulty_level",
              "type": "uint8"
            },
            {
              "internalType": "uint256",
              "name": "solve_time",
              "type": "uint256"
            }
          ],
          "internalType": "struct ChallengeManager.Challenge[]",
          "name": "",
          "type": "tuple[]"
        }
      ],
      "stateMutability": "view",
      "type": "function"
    },
    {
      "inputs": [
        {
          "internalType": "uint256",
          "name": "_challenge_id",
          "type": "uint256"
        },
        {
          "internalType": "address",
          "name": "_moderator_address",
          "type": "address"
        }
      ],
      "name": "getJoinReviewPoolStatus",
      "outputs": [
        {
          "internalType": "bool",
          "name": "",
          "type": "bool"
        }
      ],
      "stateMutability": "view",
      "type": "function"
    },
    {
      "inputs": [
        {
          "internalType": "uint256",
          "name": "challenge_id",
          "type": "uint256"
        },
        {
          "internalType": "address",
          "name": "_moderator_address",
          "type": "address"
        }
      ],
      "name": "getModeratorReviewOfChallenge",
      "outputs": [
        {
          "components": [
            {
              "internalType": "address",
              "name": "moderator",
              "type": "address"
            },
            {
              "internalType": "uint256",
              "name": "challenge_id",
              "type": "uint256"
            },
            {
              "internalType": "uint256",
              "name": "review_time",
              "type": "uint256"
            },
            {
              "internalType": "enum ChallengeManager.QualityFactorAnswer",
              "name": "relevance",
              "type": "uint8"
            },
            {
              "internalType": "enum ChallengeManager.QualityFactorAnswer",
              "name": "technical_correctness",
              "type": "uint8"
            },
            {
              "internalType": "enum ChallengeManager.QualityFactorAnswer",
              "name": "completeness",
              "type": "uint8"
            },
            {
              "internalType": "enum ChallengeManager.QualityFactorAnswer",
              "name": "clarity",
              "type": "uint8"
            },
            {
              "internalType": "enum ChallengeManager.QualityFactorAnswer",
              "name": "originality",
              "type": "uint8"
            },
            {
              "internalType": "enum ChallengeManager.QualityFactorAnswer",
              "name": "unbiased",
              "type": "uint8"
            },
            {
              "internalType": "enum ChallengeManager.QualityFactorAnswer",
              "name": "plagiarism_free",
              "type": "uint8"
            },
            {
              "internalType": "enum ChallengeManager.DifficultyLevel",
              "name": "suggested_difficulty",
              "type": "uint8"
            },
            {
              "internalType": "enum ChallengeManager.Domain",
              "name": "suggested_category",
              "type": "uint8"
            },
            {
              "internalType": "uint256",
              "name": "suggested_solve_time",
              "type": "uint256"
            }
          ],
          "internalType": "struct ChallengeManager.ModeratorReview",
          "name": "",
          "type": "tuple"
        }
      ],
      "stateMutability": "view",
      "type": "function"
    },
    {
      "inputs": [],
      "name": "getPendingChallenges",
      "outputs": [
        {
          "components": [
            {
              "internalType": "uint256",
              "name": "id",
              "type": "uint256"
            },
            {
              "internalType": "address",
              "name": "contributor",
              "type": "address"
            },
            {
              "internalType": "string",
              "name": "title_url",
              "type": "string"
            },
            {
              "internalType": "string",
              "name": "description_url",
              "type": "string"
            },
            {
              "internalType": "enum ChallengeManager.Domain",
              "name": "category",
              "type": "uint8"
            },
            {
              "internalType": "uint256",
              "name": "contribute_at",
              "type": "uint256"
            },
            {
              "internalType": "enum ChallengeManager.ChallengeStatus",
              "name": "status",
              "type": "uint8"
            },
            {
              "internalType": "uint256",
              "name": "quality_score",
              "type": "uint256"
            },
            {
              "internalType": "enum ChallengeManager.DifficultyLevel",
              "name": "difficulty_level",
              "type": "uint8"
            },
            {
              "internalType": "uint256",
              "name": "solve_time",
              "type": "uint256"
            }
          ],
          "internalType": "struct ChallengeManager.Challenge[]",
          "name": "",
          "type": "tuple[]"
        }
      ],
      "stateMutability": "view",
      "type": "function"
    },
    {
      "inputs": [
        {
          "internalType": "uint256",
          "name": "_challenge_id",
          "type": "uint256"
        }
      ],
      "name": "getReviewPoolSize",
      "outputs": [
        {
          "internalType": "uint256",
          "name": "",
          "type": "uint256"
        }
      ],
      "stateMutability": "view",
      "type": "function"
    },
    {
      "inputs": [],
      "name": "getReviewQuorum",
      "outputs": [
        {
          "internalType": "uint256",
          "name": "",
          "type": "uint256"
        }
      ],
      "stateMutability": "pure",
      "type": "function"
    },
    {
      "inputs": [
        {
          "internalType": "uint256",
          "name": "_challenge_id",
          "type": "uint256"
        }
      ],
      "name": "joinReviewPool",
      "outputs": [],
      "stateMutability": "nonpayable",
      "type": "function"
    },
    {
      "inputs": [],
      "name": "pending_challenges",
      "outputs": [
        {
          "internalType": "uint256",
          "name": "",
          "type": "uint256"
        }
      ],
      "stateMutability": "view",
      "type": "function"
    },
    {
      "inputs": [
        {
          "internalType": "address",
          "name": "_contributor",
          "type": "address"
        },
        {
          "internalType": "string",
          "name": "_title_url",
          "type": "string"
        },
        {
          "internalType": "string",
          "name": "_description_url",
          "type": "string"
        },
        {
          "internalType": "enum ChallengeManager.Domain",
          "name": "_category",
          "type": "uint8"
        },
        {
          "internalType": "uint256",
          "name": "_contribute_at",
          "type": "uint256"
        },
        {
          "internalType": "enum ChallengeManager.ChallengeStatus",
          "name": "_status",
          "type": "uint8"
        },
        {
          "internalType": "uint256",
          "name": "_quality_score",
          "type": "uint256"
        },
        {
          "internalType": "enum ChallengeManager.DifficultyLevel",
          "name": "_difficulty_level",
          "type": "uint8"
        },
        {
          "internalType": "uint256",
          "name": "_solve_time",
          "type": "uint256"
        }
      ],
      "name": "seedChallenge",
      "outputs": [],
      "stateMutability": "nonpayable",
      "type": "function"
    },
    {
      "inputs": [
        {
          "internalType": "uint256",
          "name": "_challenge_id",
          "type": "uint256"
        },
        {
          "internalType": "enum ChallengeManager.QualityFactorAnswer",
          "name": "_relevance",
          "type": "uint8"
        },
        {
          "internalType": "enum ChallengeManager.QualityFactorAnswer",
          "name": "_technical_correctness",
          "type": "uint8"
        },
        {
          "internalType": "enum ChallengeManager.QualityFactorAnswer",
          "name": "_completeness",
          "type": "uint8"
        },
        {
          "internalType": "enum ChallengeManager.QualityFactorAnswer",
          "name": "_clarity",
          "type": "uint8"
        },
        {
          "internalType": "enum ChallengeManager.QualityFactorAnswer",
          "name": "_originality",
          "type": "uint8"
        },
        {
          "internalType": "enum ChallengeManager.QualityFactorAnswer",
          "name": "_unbiased",
          "type": "uint8"
        },
        {
          "internalType": "enum ChallengeManager.QualityFactorAnswer",
          "name": "_plagiarism_free",
          "type": "uint8"
        },
        {
          "internalType": "enum ChallengeManager.DifficultyLevel",
          "name": "_suggested_difficulty",
          "type": "uint8"
        },
        {
          "internalType": "enum ChallengeManager.Domain",
          "name": "_suggested_category",
          "type": "uint8"
        },
        {
          "internalType": "uint256",
          "name": "_suggested_solve_time",
          "type": "uint256"
        }
      ],
      "name": "submitModeratorReview",
      "outputs": [],
      "stateMutability": "nonpayable",
      "type": "function"
    },
    {
      "inputs": [],
      "name": "total_challenges",
      "outputs": [
        {
          "internalType": "uint256",
          "name": "",
          "type": "uint256"
        }
      ],
      "stateMutability": "view",
      "type": "function"
    }
  ],
  "bytecode": "0x6080604052600060055560006006556000600755348015601e57600080fd5b50614e7b8061002e6000396000f3fe608060405234801561001057600080fd5b50600436106101425760003560e01c80638758aabb116100b8578063be21f20c1161007c578063be21f20c14610379578063c80191b814610397578063dd0e12ca146103c7578063e94a7830146103e5578063e9d04f7114610415578063f83eb2751461043357610142565b80638758aabb146102c157806392376e13146102dd578063955b67241461030d578063a22b6a861461032b578063a821a0671461034957610142565b80635057494a1161010a5780635057494a146101ed5780635a14c9441461021d5780635d880de9146102395780635d9db5c414610257578063616e2e56146102735780636bf8eaf2146102a357610142565b80630f335603146101475780632b3669961461017757806345637d8f1461019557806349a25e6d146101b15780634c7b5a8e146101cf575b600080fd5b610161600480360381019061015c919061383b565b610451565b60405161016e9190613aab565b60405180910390f35b61017f61076a565b60405161018c9190613ad6565b60405180910390f35b6101af60048036038101906101aa9190613bc5565b610770565b005b6101b9610c14565b6040516101c69190613ad6565b60405180910390f35b6101d7610c19565b6040516101e49190613ad6565b60405180910390f35b61020760048036038101906102029190613cd1565b610c1f565b6040516102149190613f79565b60405180910390f35b61023760048036038101906102329190613f9b565b610ffd565b005b61024161130d565b60405161024e9190613ad6565b60405180910390f35b610271600480360381019061026c9190613fc8565b611312565b005b61028d60048036038101906102889190613cd1565b611796565b60405161029a9190613f79565b60405180910390f35b6102ab611b74565b6040516102b89190613ad6565b60405180910390f35b6102db60048036038101906102d69190614094565b611b79565b005b6102f760048036038101906102f29190613f9b565b6123d2565b6040516103049190614269565b60405180910390f35b610315612675565b6040516103229190613ad6565b60405180910390f35b61033361267a565b6040516103409190613ad6565b60405180910390f35b610363600480360381019061035e9190613f9b565b612680565b60405161037091906142a6565b60405180910390f35b6103816126ad565b60405161038e9190613f79565b60405180910390f35b6103b160048036038101906103ac919061383b565b612a3d565b6040516103be91906142a6565b60405180910390f35b6103cf612aa8565b6040516103dc9190613f79565b60405180910390f35b6103ff60048036038101906103fa9190613f9b565b612e38565b60405161040c9190613ad6565b60405180910390f35b61041d612e5b565b60405161042a9190613ad6565b60405180910390f35b61043b612e60565b6040516104489190613ad6565b60405180910390f35b6104596135d4565b61047c6040518060600160405280602b8152602001614d48602b91398385612e69565b6001600084815260200190815260200160002060030160008373ffffffffffffffffffffffffffffffffffffffff1673ffffffffffffffffffffffffffffffffffffffff168152602001908152602001600020604051806101a00160405290816000820160009054906101000a900473ffffffffffffffffffffffffffffffffffffffff1673ffffffffffffffffffffffffffffffffffffffff1673ffffffffffffffffffffffffffffffffffffffff16815260200160018201548152602001600282015481526020016003820160009054906101000a900460ff16600181111561056a57610569613899565b5b600181111561057c5761057b613899565b5b81526020016003820160019054906101000a900460ff1660018111156105a5576105a4613899565b5b60018111156105b7576105b6613899565b5b81526020016003820160029054906101000a900460ff1660018111156105e0576105df613899565b5b60018111156105f2576105f1613899565b5b81526020016003820160039054906101000a900460ff16600181111561061b5761061a613899565b5b600181111561062d5761062c613899565b5b81526020016003820160049054906101000a900460ff16600181111561065657610655613899565b5b600181111561066857610667613899565b5b81526020016003820160059054906101000a900460ff16600181111561069157610690613899565b5b60018111156106a3576106a2613899565b5b81526020016003820160069054906101000a900460ff1660018111156106cc576106cb613899565b5b60018111156106de576106dd613899565b5b81526020016003820160079054906101000a900460ff16600281111561070757610706613899565b5b600281111561071957610718613899565b5b81526020016003820160089054906101000a900460ff16600d81111561074257610741613899565b5b600d81111561075457610753613899565b5b8152602001600482015481525050905092915050565b60065481565b600060056000815480929190610785906142f0565b9190505590506040518061014001604052808281526020018d73ffffffffffffffffffffffffffffffffffffffff1681526020018c8c8080601f016020809104026020016040519081016040528093929190818152602001838380828437600081840152601f19601f8201169050808301925050505050505081526020018a8a8080601f016020809104026020016040519081016040528093929190818152602001838380828437600081840152601f19601f82011690508083019250505050505050815260200188600d8111156108605761085f613899565b5b815260200187815260200186600281111561087e5761087d613899565b5b815260200185815260200184600281111561089c5761089b613899565b5b8152602001838152506000808381526020019081526020016000206000820151816000015560208201518160010160006101000a81548173ffffffffffffffffffffffffffffffffffffffff021916908373ffffffffffffffffffffffffffffffffffffffff160217905550604082015181600201908161091d9190614573565b5060608201518160030190816109339190614573565b5060808201518160040160006101000a81548160ff0219169083600d81111561095f5761095e613899565b5b021790555060a0820151816005015560c08201518160060160006101000a81548160ff0219169083600281111561099957610998613899565b5b021790555060e082015181600701556101008201518160080160006101000a81548160ff021916908360028111156109d4576109d3613899565b5b02179055506101208201518160090155905050600260008d73ffffffffffffffffffffffffffffffffffffffff1673ffffffffffffffffffffffffffffffffffffffff16815260200190815260200160002081908060018154018082558091505060019003906000526020600020016000909190919091505560006002811115610a6157610a60613899565b5b856002811115610a7457610a73613899565b5b03610a965760066000815480929190610a8c906142f0565b9190505550610adc565b60016002811115610aaa57610aa9613899565b5b856002811115610abd57610abc613899565b5b03610adb5760076000815480929190610ad5906142f0565b91905055505b5b610b00604051806060016040528060268152602001614d2260269139828e89612f08565b610b836040518060400160405280601781526020017f2d205469746c652075726c20202020202020203a2025730000000000000000008152508c8c8080601f016020809104026020016040519081016040528093929190818152602001838380828437600081840152601f19601f82011690508083019250505050505050612faa565b610c066040518060400160405280601781526020017f2d204465736372697074696f6e2075726c20203a2025730000000000000000008152508a8a8080601f016020809104026020016040519081016040528093929190818152602001838380828437600081840152601f19601f82011690508083019250505050505050612faa565b505050505050505050505050565b600e81565b60055481565b60606000600360008473ffffffffffffffffffffffffffffffffffffffff1673ffffffffffffffffffffffffffffffffffffffff168152602001908152602001600020805480602002602001604051908101604052809291908181526020018280548015610cac57602002820191906000526020600020905b815481526020019060010190808311610c98575b505050505090506000815167ffffffffffffffff811115610cd057610ccf614338565b5b604051908082528060200260200182016040528015610d0957816020015b610cf66136f4565b815260200190600190039081610cee5790505b50905060005b8251811015610fce57600080848381518110610d2e57610d2d614645565b5b6020026020010151815260200190815260200160002060405180610140016040529081600082015481526020016001820160009054906101000a900473ffffffffffffffffffffffffffffffffffffffff1673ffffffffffffffffffffffffffffffffffffffff1673ffffffffffffffffffffffffffffffffffffffff168152602001600282018054610dc090614396565b80601f0160208091040260200160405190810160405280929190818152602001828054610dec90614396565b8015610e395780601f10610e0e57610100808354040283529160200191610e39565b820191906000526020600020905b815481529060010190602001808311610e1c57829003601f168201915b50505050508152602001600382018054610e5290614396565b80601f0160208091040260200160405190810160405280929190818152602001828054610e7e90614396565b8015610ecb5780601f10610ea057610100808354040283529160200191610ecb565b820191906000526020600020905b815481529060010190602001808311610eae57829003601f168201915b505050505081526020016004820160009054906101000a900460ff16600d811115610ef957610ef8613899565b5b600d811115610f0b57610f0a613899565b5b8152602001600582015481526020016006820160009054906101000a900460ff166002811115610f3e57610f3d613899565b5b6002811115610f5057610f4f613899565b5b8152602001600782015481526020016008820160009054906101000a900460ff166002811115610f8357610f82613899565b5b6002811115610f9557610f94613899565b5b8152602001600982015481525050828281518110610fb657610fb5614645565b5b60200260200101819052508080600101915050610d0f565b50610ff36040518060600160405280602b8152602001614cc5602b9139858451612e69565b8092505050919050565b806001600082815260200190815260200160002060010160009054906101000a900460ff1615611062576040517f08c379a0000000000000000000000000000000000000000000000000000000008152600401611059906146d1565b60405180910390fd5b60036001600084815260200190815260200160002060000180549050106110be576040517f08c379a00000000000000000000000000000000000000000000000000000000081526004016110b59061473d565b60405180910390fd5b600015156001600084815260200190815260200160002060040160003373ffffffffffffffffffffffffffffffffffffffff1673ffffffffffffffffffffffffffffffffffffffff16815260200190815260200160002060009054906101000a900460ff16151514611165576040517f08c379a000000000000000000000000000000000000000000000000000000000815260040161115c906147cf565b60405180910390fd5b600360003373ffffffffffffffffffffffffffffffffffffffff1673ffffffffffffffffffffffffffffffffffffffff168152602001908152602001600020829080600181540180825580915050600190039060005260206000200160009091909190915055600060016000848152602001908152602001600020905080600001339080600181540180825580915050600190039060005260206000200160009091909190916101000a81548173ffffffffffffffffffffffffffffffffffffffff021916908373ffffffffffffffffffffffffffffffffffffffff16021790555060018160040160003373ffffffffffffffffffffffffffffffffffffffff1673ffffffffffffffffffffffffffffffffffffffff16815260200190815260200160002060006101000a81548160ff0219169083151502179055503373ffffffffffffffffffffffffffffffffffffffff16837f07fe5c562bb72cc8709dc10987f69acf04ba0d45c871d6c281e32df878063dcd60405160405180910390a3611308604051806060016040528060318152602001614e15603191393385612e69565b505050565b600381565b600060056000815480929190611327906142f0565b9190505590506040518061014001604052808281526020013373ffffffffffffffffffffffffffffffffffffffff16815260200188888080601f016020809104026020016040519081016040528093929190818152602001838380828437600081840152601f19601f82011690508083019250505050505050815260200186868080601f016020809104026020016040519081016040528093929190818152602001838380828437600081840152601f19601f82011690508083019250505050505050815260200184600d81111561140257611401613899565b5b81526020018381526020016000600281111561142157611420613899565b5b8152602001600081526020016000600281111561144157611440613899565b5b815260200160008152506000808381526020019081526020016000206000820151816000015560208201518160010160006101000a81548173ffffffffffffffffffffffffffffffffffffffff021916908373ffffffffffffffffffffffffffffffffffffffff16021790555060408201518160020190816114c39190614573565b5060608201518160030190816114d99190614573565b5060808201518160040160006101000a81548160ff0219169083600d81111561150557611504613899565b5b021790555060a0820151816005015560c08201518160060160006101000a81548160ff0219169083600281111561153f5761153e613899565b5b021790555060e082015181600701556101008201518160080160006101000a81548160ff0219169083600281111561157a57611579613899565b5b02179055506101208201518160090155905050600260003373ffffffffffffffffffffffffffffffffffffffff1673ffffffffffffffffffffffffffffffffffffffff16815260200190815260200160002081908060018154018082558091505060019003906000526020600020016000909190919091505560066000815480929190611606906142f0565b919050555061162f6040518060600160405280602b8152602001614c6d602b9139823385612f08565b6116b26040518060400160405280601781526020017f2d205469746c652075726c20202020202020203a20257300000000000000000081525088888080601f016020809104026020016040519081016040528093929190818152602001838380828437600081840152601f19601f82011690508083019250505050505050612faa565b6117356040518060400160405280601781526020017f2d204465736372697074696f6e2075726c20203a20257300000000000000000081525086868080601f016020809104026020016040519081016040528093929190818152602001838380828437600081840152601f19601f82011690508083019250505050505050612faa565b3373ffffffffffffffffffffffffffffffffffffffff167f42672180e30fb0e2e6ae998046a0806bf23368de710977e1a63920574c378a1c8888888888886040516117859695949392919061483a565b60405180910390a250505050505050565b60606000600260008473ffffffffffffffffffffffffffffffffffffffff1673ffffffffffffffffffffffffffffffffffffffff16815260200190815260200160002080548060200260200160405190810160405280929190818152602001828054801561182357602002820191906000526020600020905b81548152602001906001019080831161180f575b505050505090506000815167ffffffffffffffff81111561184757611846614338565b5b60405190808252806020026020018201604052801561188057816020015b61186d6136f4565b8152602001906001900390816118655790505b50905060005b8251811015611b45576000808483815181106118a5576118a4614645565b5b6020026020010151815260200190815260200160002060405180610140016040529081600082015481526020016001820160009054906101000a900473ffffffffffffffffffffffffffffffffffffffff1673ffffffffffffffffffffffffffffffffffffffff1673ffffffffffffffffffffffffffffffffffffffff16815260200160028201805461193790614396565b80601f016020809104026020016040519081016040528092919081815260200182805461196390614396565b80156119b05780601f10611985576101008083540402835291602001916119b0565b820191906000526020600020905b81548152906001019060200180831161199357829003601f168201915b505050505081526020016003820180546119c990614396565b80601f01602080910402602001604051908101604052809291908181526020018280546119f590614396565b8015611a425780601f10611a1757610100808354040283529160200191611a42565b820191906000526020600020905b815481529060010190602001808311611a2557829003601f168201915b505050505081526020016004820160009054906101000a900460ff16600d811115611a7057611a6f613899565b5b600d811115611a8257611a81613899565b5b8152602001600582015481526020016006820160009054906101000a900460ff166002811115611ab557611ab4613899565b5b6002811115611ac757611ac6613899565b5b8152602001600782015481526020016008820160009054906101000a900460ff166002811115611afa57611af9613899565b5b6002811115611b0c57611b0b613899565b5b8152602001600982015481525050828281518110611b2d57611b2c614645565b5b60200260200101819052508080600101915050611886565b50611b6a6040518060600160405280602d8152602001614de8602d9139858451612e69565b8092505050919050565b605081565b8a6001600082815260200190815260200160002060010160009054906101000a900460ff1615611bde576040517f08c379a0000000000000000000000000000000000000000000000000000000008152600401611bd5906146d1565b60405180910390fd5b60011515600160008e815260200190815260200160002060040160003373ffffffffffffffffffffffffffffffffffffffff1673ffffffffffffffffffffffffffffffffffffffff16815260200190815260200160002060009054906101000a900460ff16151514611c85576040517f08c379a0000000000000000000000000000000000000000000000000000000008152600401611c7c90614903565b60405180910390fd5b6000600160008e8152602001908152602001600020905060008160030160003373ffffffffffffffffffffffffffffffffffffffff1673ffffffffffffffffffffffffffffffffffffffff1681526020019081526020016000206002015403611d0357806002016000815480929190611cfd906142f0565b91905055505b604051806101a001604052803373ffffffffffffffffffffffffffffffffffffffff1681526020018e81526020014281526020018d6001811115611d4a57611d49613899565b5b81526020018c6001811115611d6257611d61613899565b5b81526020018b6001811115611d7a57611d79613899565b5b81526020018a6001811115611d9257611d91613899565b5b8152602001896001811115611daa57611da9613899565b5b8152602001886001811115611dc257611dc1613899565b5b8152602001876001811115611dda57611dd9613899565b5b8152602001866002811115611df257611df1613899565b5b815260200185600d811115611e0a57611e09613899565b5b8152602001848152508160030160003373ffffffffffffffffffffffffffffffffffffffff1673ffffffffffffffffffffffffffffffffffffffff16815260200190815260200160002060008201518160000160006101000a81548173ffffffffffffffffffffffffffffffffffffffff021916908373ffffffffffffffffffffffffffffffffffffffff160217905550602082015181600101556040820151816002015560608201518160030160006101000a81548160ff02191690836001811115611eda57611ed9613899565b5b021790555060808201518160030160016101000a81548160ff02191690836001811115611f0a57611f09613899565b5b021790555060a08201518160030160026101000a81548160ff02191690836001811115611f3a57611f39613899565b5b021790555060c08201518160030160036101000a81548160ff02191690836001811115611f6a57611f69613899565b5b021790555060e08201518160030160046101000a81548160ff02191690836001811115611f9a57611f99613899565b5b02179055506101008201518160030160056101000a81548160ff02191690836001811115611fcb57611fca613899565b5b02179055506101208201518160030160066101000a81548160ff02191690836001811115611ffc57611ffb613899565b5b02179055506101408201518160030160076101000a81548160ff0219169083600281111561202d5761202c613899565b5b02179055506101608201518160030160086101000a81548160ff0219169083600d81111561205e5761205d613899565b5b021790555061018082015181600401559050506120946040518060600160405280602d8152602001614c98602d9139338f612e69565b6120e56040518060400160405280600f81526020017f2d2052656c6576616e63653a20257300000000000000000000000000000000008152508d60018111156120e0576120df613899565b5b613046565b6121366040518060400160405280601b81526020017f2d20546563686e6963616c20636f72726563746e6573733a20257300000000008152508c600181111561213157612130613899565b5b613046565b6121876040518060400160405280601281526020017f2d20436f6d706c6574656e6573733a20257300000000000000000000000000008152508b600181111561218257612181613899565b5b613046565b6121d86040518060400160405280600d81526020017f2d20436c61726974793a202573000000000000000000000000000000000000008152508a60018111156121d3576121d2613899565b5b613046565b6122296040518060400160405280601181526020017f2d204f726967696e616c6974793a20257300000000000000000000000000000081525089600181111561222457612223613899565b5b613046565b61227a6040518060400160405280600e81526020017f2d20556e6269617365643a20257300000000000000000000000000000000000081525088600181111561227557612274613899565b5b613046565b6122cb6040518060400160405280601581526020017f2d20506c616769617269736d20667265653a20257300000000000000000000008152508760018111156122c6576122c5613899565b5b613046565b61231c6040518060400160405280601a81526020017f2d2053756767657374656420646966666963756c74793a20257300000000000081525086600281111561231757612316613899565b5b613046565b61236d6040518060400160405280601881526020017f2d205375676765737465642063617465676f72793a202573000000000000000081525085600d81111561236857612367613899565b5b613046565b6123ac6040518060400160405280601a81526020017f2d2053756767657374656420736f6c76652074696d653a20257300000000000081525084613046565b60038160020154106123c3576123c28d826130e2565b5b50505050505050505050505050565b6123da6136f4565b6123fd604051806060016040528060218152602001614da4602191393384612e69565b60008083815260200190815260200160002060405180610140016040529081600082015481526020016001820160009054906101000a900473ffffffffffffffffffffffffffffffffffffffff1673ffffffffffffffffffffffffffffffffffffffff1673ffffffffffffffffffffffffffffffffffffffff16815260200160028201805461248b90614396565b80601f01602080910402602001604051908101604052809291908181526020018280546124b790614396565b80156125045780601f106124d957610100808354040283529160200191612504565b820191906000526020600020905b8154815290600101906020018083116124e757829003601f168201915b5050505050815260200160038201805461251d90614396565b80601f016020809104026020016040519081016040528092919081815260200182805461254990614396565b80156125965780601f1061256b57610100808354040283529160200191612596565b820191906000526020600020905b81548152906001019060200180831161257957829003601f168201915b505050505081526020016004820160009054906101000a900460ff16600d8111156125c4576125c3613899565b5b600d8111156125d6576125d5613899565b5b8152602001600582015481526020016006820160009054906101000a900460ff16600281111561260957612608613899565b5b600281111561261b5761261a613899565b5b8152602001600782015481526020016008820160009054906101000a900460ff16600281111561264e5761264d613899565b5b60028111156126605761265f613899565b5b81526020016009820154815250509050919050565b600781565b60075481565b60006001600083815260200190815260200160002060010160009054906101000a900460ff169050919050565b6060600060065467ffffffffffffffff8111156126cd576126cc614338565b5b60405190808252806020026020018201604052801561270657816020015b6126f36136f4565b8152602001906001900390816126eb5790505b5090506000805b600554811015612a10576000600281111561272b5761272a613899565b5b60008083815260200190815260200160002060060160009054906101000a900460ff1660028111156127605761275f613899565b5b03612a035760008082815260200190815260200160002060405180610140016040529081600082015481526020016001820160009054906101000a900473ffffffffffffffffffffffffffffffffffffffff1673ffffffffffffffffffffffffffffffffffffffff1673ffffffffffffffffffffffffffffffffffffffff1681526020016002820180546127f390614396565b80601f016020809104026020016040519081016040528092919081815260200182805461281f90614396565b801561286c5780601f106128415761010080835404028352916020019161286c565b820191906000526020600020905b81548152906001019060200180831161284f57829003601f168201915b5050505050815260200160038201805461288590614396565b80601f01602080910402602001604051908101604052809291908181526020018280546128b190614396565b80156128fe5780601f106128d3576101008083540402835291602001916128fe565b820191906000526020600020905b8154815290600101906020018083116128e157829003601f168201915b505050505081526020016004820160009054906101000a900460ff16600d81111561292c5761292b613899565b5b600d81111561293e5761293d613899565b5b8152602001600582015481526020016006820160009054906101000a900460ff16600281111561297157612970613899565b5b600281111561298357612982613899565b5b8152602001600782015481526020016008820160009054906101000a900460ff1660028111156129b6576129b5613899565b5b60028111156129c8576129c7613899565b5b81526020016009820154815250508383815181106129e9576129e8614645565b5b602002602001018190525081806129ff906142f0565b9250505b808060010191505061270d565b50612a35604051806060016040528060318152602001614d7360319139338451612e69565b819250505090565b60006001600084815260200190815260200160002060040160008373ffffffffffffffffffffffffffffffffffffffff1673ffffffffffffffffffffffffffffffffffffffff16815260200190815260200160002060009054906101000a900460ff16905092915050565b6060600060075467ffffffffffffffff811115612ac857612ac7614338565b5b604051908082528060200260200182016040528015612b0157816020015b612aee6136f4565b815260200190600190039081612ae65790505b5090506000805b600554811015612e0b5760016002811115612b2657612b25613899565b5b60008083815260200190815260200160002060060160009054906101000a900460ff166002811115612b5b57612b5a613899565b5b03612dfe5760008082815260200190815260200160002060405180610140016040529081600082015481526020016001820160009054906101000a900473ffffffffffffffffffffffffffffffffffffffff1673ffffffffffffffffffffffffffffffffffffffff1673ffffffffffffffffffffffffffffffffffffffff168152602001600282018054612bee90614396565b80601f0160208091040260200160405190810160405280929190818152602001828054612c1a90614396565b8015612c675780601f10612c3c57610100808354040283529160200191612c67565b820191906000526020600020905b815481529060010190602001808311612c4a57829003601f168201915b50505050508152602001600382018054612c8090614396565b80601f0160208091040260200160405190810160405280929190818152602001828054612cac90614396565b8015612cf95780601f10612cce57610100808354040283529160200191612cf9565b820191906000526020600020905b815481529060010190602001808311612cdc57829003601f168201915b505050505081526020016004820160009054906101000a900460ff16600d811115612d2757612d26613899565b5b600d811115612d3957612d38613899565b5b8152602001600582015481526020016006820160009054906101000a900460ff166002811115612d6c57612d6b613899565b5b6002811115612d7e57612d7d613899565b5b8152602001600782015481526020016008820160009054906101000a900460ff166002811115612db157612db0613899565b5b6002811115612dc357612dc2613899565b5b8152602001600982015481525050838381518110612de457612de3614645565b5b60200260200101819052508180612dfa906142f0565b9250505b8080600101915050612b08565b50612e30604051806060016040528060328152602001614cf060329139338451612e69565b819250505090565b600060016000838152602001908152602001600020600001805490509050919050565b600381565b60006003905090565b612f03838383604051602401612e819392919061496b565b6040516020818303038152906040527f0d26b925000000000000000000000000000000000000000000000000000000007bffffffffffffffffffffffffffffffffffffffffffffffffffffffff19166020820180517bffffffffffffffffffffffffffffffffffffffffffffffffffffffff83818316178352505050506134ef565b505050565b612fa484848484604051602401612f2294939291906149a9565b6040516020818303038152906040527f4f04fdc6000000000000000000000000000000000000000000000000000000007bffffffffffffffffffffffffffffffffffffffffffffffffffffffff19166020820180517bffffffffffffffffffffffffffffffffffffffffffffffffffffffff83818316178352505050506134ef565b50505050565b6130428282604051602401612fc09291906149f5565b6040516020818303038152906040527f4b5c4277000000000000000000000000000000000000000000000000000000007bffffffffffffffffffffffffffffffffffffffffffffffffffffffff19166020820180517bffffffffffffffffffffffffffffffffffffffffffffffffffffffff83818316178352505050506134ef565b5050565b6130de828260405160240161305c929190614a2c565b6040516020818303038152906040527fb60e72cc000000000000000000000000000000000000000000000000000000007bffffffffffffffffffffffffffffffffffffffffffffffffffffffff19166020820180517bffffffffffffffffffffffffffffffffffffffffffffffffffffffff83818316178352505050506134ef565b5050565b8060010160009054906101000a900460ff1615613134576040517f08c379a000000000000000000000000000000000000000000000000000000000815260040161312b90614aa8565b60405180910390fd5b6000805b826000018054905081101561331f57600083600301600085600001848154811061316557613164614645565b5b9060005260206000200160009054906101000a900473ffffffffffffffffffffffffffffffffffffffff1673ffffffffffffffffffffffffffffffffffffffff1673ffffffffffffffffffffffffffffffffffffffff16815260200190815260200160002090508060030160069054906101000a900460ff1660018111156131f0576131ef613899565b5b8160030160059054906101000a900460ff16600181111561321457613213613899565b5b8260030160049054906101000a900460ff16600181111561323857613237613899565b5b8360030160039054906101000a900460ff16600181111561325c5761325b613899565b5b8460030160029054906101000a900460ff1660018111156132805761327f613899565b5b8560030160019054906101000a900460ff1660018111156132a4576132a3613899565b5b8660030160009054906101000a900460ff1660018111156132c8576132c7613899565b5b6132d29190614ac8565b6132dc9190614ac8565b6132e69190614ac8565b6132f09190614ac8565b6132fa9190614ac8565b6133049190614ac8565b8361330f9190614ac8565b9250508080600101915050613138565b506000826002015460076133339190614afc565b6064836133409190614afc565b61334a9190614b6d565b905061336f604051806060016040528060238152602001614dc5602391398583613509565b605081106133ea57600160008086815260200190815260200160002060060160006101000a81548160ff021916908360028111156133b0576133af613899565b5b0217905550600660008154809291906133c890614b9e565b9190505550600760008154809291906133e0906142f0565b9190505550613441565b600260008086815260200190815260200160002060060160006101000a81548160ff0219169083600281111561342357613422613899565b5b02179055506006600081548092919061343b90614b9e565b91905055505b806000808681526020019081526020016000206007018190555060018360010160006101000a81548160ff021916908315150217905550837f1a20d608d2289bdfc4581c5a0722f4636bd21c1610f2485c20a4b20fd1f57a5360008087815260200190815260200160002060060160009054906101000a900460ff16600080888152602001908152602001600020600701546040516134e1929190614bd6565b60405180910390a250505050565b613506816134fe6135a86135c9565b63ffffffff16565b50565b6135a383838360405160240161352193929190614bff565b6040516020818303038152906040527fca47c4eb000000000000000000000000000000000000000000000000000000007bffffffffffffffffffffffffffffffffffffffffffffffffffffffff19166020820180517bffffffffffffffffffffffffffffffffffffffffffffffffffffffff83818316178352505050506134ef565b505050565b60006a636f6e736f6c652e6c6f679050600080835160208501845afa505050565b613793819050919050565b604051806101a00160405280600073ffffffffffffffffffffffffffffffffffffffff16815260200160008152602001600081526020016000600181111561361f5761361e613899565b5b81526020016000600181111561363857613637613899565b5b81526020016000600181111561365157613650613899565b5b81526020016000600181111561366a57613669613899565b5b81526020016000600181111561368357613682613899565b5b81526020016000600181111561369c5761369b613899565b5b8152602001600060018111156136b5576136b4613899565b5b8152602001600060028111156136ce576136cd613899565b5b81526020016000600d8111156136e7576136e6613899565b5b8152602001600081525090565b60405180610140016040528060008152602001600073ffffffffffffffffffffffffffffffffffffffff16815260200160608152602001606081526020016000600d81111561374657613745613899565b5b8152602001600081526020016000600281111561376657613765613899565b5b8152602001600081526020016000600281111561378657613785613899565b5b8152602001600081525090565b61379b614c3d565b565b600080fd5b600080fd5b6000819050919050565b6137ba816137a7565b81146137c557600080fd5b50565b6000813590506137d7816137b1565b92915050565b600073ffffffffffffffffffffffffffffffffffffffff82169050919050565b6000613808826137dd565b9050919050565b613818816137fd565b811461382357600080fd5b50565b6000813590506138358161380f565b92915050565b600080604083850312156138525761385161379d565b5b6000613860858286016137c8565b925050602061387185828601613826565b9150509250929050565b613884816137fd565b82525050565b613893816137a7565b82525050565b7f4e487b7100000000000000000000000000000000000000000000000000000000600052602160045260246000fd5b600281106138d9576138d8613899565b5b50565b60008190506138ea826138c8565b919050565b60006138fa826138dc565b9050919050565b61390a816138ef565b82525050565b6003811061392157613920613899565b5b50565b600081905061393282613910565b919050565b600061394282613924565b9050919050565b61395281613937565b82525050565b600e811061396957613968613899565b5b50565b600081905061397a82613958565b919050565b600061398a8261396c565b9050919050565b61399a8161397f565b82525050565b6101a0820160008201516139b7600085018261387b565b5060208201516139ca602085018261388a565b5060408201516139dd604085018261388a565b5060608201516139f06060850182613901565b506080820151613a036080850182613901565b5060a0820151613a1660a0850182613901565b5060c0820151613a2960c0850182613901565b5060e0820151613a3c60e0850182613901565b50610100820151613a51610100850182613901565b50610120820151613a66610120850182613901565b50610140820151613a7b610140850182613949565b50610160820151613a90610160850182613991565b50610180820151613aa561018085018261388a565b50505050565b60006101a082019050613ac160008301846139a0565b92915050565b613ad0816137a7565b82525050565b6000602082019050613aeb6000830184613ac7565b92915050565b600080fd5b600080fd5b600080fd5b60008083601f840112613b1657613b15613af1565b5b8235905067ffffffffffffffff811115613b3357613b32613af6565b5b602083019150836001820283011115613b4f57613b4e613afb565b5b9250929050565b600e8110613b6357600080fd5b50565b600081359050613b7581613b56565b92915050565b60038110613b8857600080fd5b50565b600081359050613b9a81613b7b565b92915050565b60038110613bad57600080fd5b50565b600081359050613bbf81613ba0565b92915050565b60008060008060008060008060008060006101208c8e031215613beb57613bea61379d565b5b6000613bf98e828f01613826565b9b505060208c013567ffffffffffffffff811115613c1a57613c196137a2565b5b613c268e828f01613b00565b9a509a505060408c013567ffffffffffffffff811115613c4957613c486137a2565b5b613c558e828f01613b00565b98509850506060613c688e828f01613b66565b9650506080613c798e828f016137c8565b95505060a0613c8a8e828f01613b8b565b94505060c0613c9b8e828f016137c8565b93505060e0613cac8e828f01613bb0565b925050610100613cbe8e828f016137c8565b9150509295989b509295989b9093969950565b600060208284031215613ce757613ce661379d565b5b6000613cf584828501613826565b91505092915050565b600081519050919050565b600082825260208201905092915050565b6000819050602082019050919050565b600081519050919050565b600082825260208201905092915050565b60005b83811015613d64578082015181840152602081019050613d49565b60008484015250505050565b6000601f19601f8301169050919050565b6000613d8c82613d2a565b613d968185613d35565b9350613da6818560208601613d46565b613daf81613d70565b840191505092915050565b60038110613dcb57613dca613899565b5b50565b6000819050613ddc82613dba565b919050565b6000613dec82613dce565b9050919050565b613dfc81613de1565b82525050565b600061014083016000830151613e1b600086018261388a565b506020830151613e2e602086018261387b565b5060408301518482036040860152613e468282613d81565b91505060608301518482036060860152613e608282613d81565b9150506080830151613e756080860182613991565b5060a0830151613e8860a086018261388a565b5060c0830151613e9b60c0860182613df3565b5060e0830151613eae60e086018261388a565b50610100830151613ec3610100860182613949565b50610120830151613ed861012086018261388a565b508091505092915050565b6000613eef8383613e02565b905092915050565b6000602082019050919050565b6000613f0f82613cfe565b613f198185613d09565b935083602082028501613f2b85613d1a565b8060005b85811015613f675784840389528151613f488582613ee3565b9450613f5383613ef7565b925060208a01995050600181019050613f2f565b50829750879550505050505092915050565b60006020820190508181036000830152613f938184613f04565b905092915050565b600060208284031215613fb157613fb061379d565b5b6000613fbf848285016137c8565b91505092915050565b60008060008060008060808789031215613fe557613fe461379d565b5b600087013567ffffffffffffffff811115614003576140026137a2565b5b61400f89828a01613b00565b9650965050602087013567ffffffffffffffff811115614032576140316137a2565b5b61403e89828a01613b00565b9450945050604061405189828a01613b66565b925050606061406289828a016137c8565b9150509295509295509295565b6002811061407c57600080fd5b50565b60008135905061408e8161406f565b92915050565b60008060008060008060008060008060006101608c8e0312156140ba576140b961379d565b5b60006140c88e828f016137c8565b9b505060206140d98e828f0161407f565b9a505060406140ea8e828f0161407f565b99505060606140fb8e828f0161407f565b985050608061410c8e828f0161407f565b97505060a061411d8e828f0161407f565b96505060c061412e8e828f0161407f565b95505060e061413f8e828f0161407f565b9450506101006141518e828f01613bb0565b9350506101206141638e828f01613b66565b9250506101406141758e828f016137c8565b9150509295989b509295989b9093969950565b6000610140830160008301516141a1600086018261388a565b5060208301516141b4602086018261387b565b50604083015184820360408601526141cc8282613d81565b915050606083015184820360608601526141e68282613d81565b91505060808301516141fb6080860182613991565b5060a083015161420e60a086018261388a565b5060c083015161422160c0860182613df3565b5060e083015161423460e086018261388a565b50610100830151614249610100860182613949565b5061012083015161425e61012086018261388a565b508091505092915050565b600060208201905081810360008301526142838184614188565b905092915050565b60008115159050919050565b6142a08161428b565b82525050565b60006020820190506142bb6000830184614297565b92915050565b7f4e487b7100000000000000000000000000000000000000000000000000000000600052601160045260246000fd5b60006142fb826137a7565b91507fffffffffffffffffffffffffffffffffffffffffffffffffffffffffffffffff820361432d5761432c6142c1565b5b600182019050919050565b7f4e487b7100000000000000000000000000000000000000000000000000000000600052604160045260246000fd5b7f4e487b7100000000000000000000000000000000000000000000000000000000600052602260045260246000fd5b600060028204905060018216806143ae57607f821691505b6020821081036143c1576143c0614367565b5b50919050565b60008190508160005260206000209050919050565b60006020601f8301049050919050565b600082821b905092915050565b6000600883026144297fffffffffffffffffffffffffffffffffffffffffffffffffffffffffffffffff826143ec565b61443386836143ec565b95508019841693508086168417925050509392505050565b6000819050919050565b600061447061446b614466846137a7565b61444b565b6137a7565b9050919050565b6000819050919050565b61448a83614455565b61449e61449682614477565b8484546143f9565b825550505050565b600090565b6144b36144a6565b6144be818484614481565b505050565b5b818110156144e2576144d76000826144ab565b6001810190506144c4565b5050565b601f821115614527576144f8816143c7565b614501846143dc565b81016020851015614510578190505b61452461451c856143dc565b8301826144c3565b50505b505050565b600082821c905092915050565b600061454a6000198460080261452c565b1980831691505092915050565b60006145638383614539565b9150826002028217905092915050565b61457c82613d2a565b67ffffffffffffffff81111561459557614594614338565b5b61459f8254614396565b6145aa8282856144e6565b600060209050601f8311600181146145dd57600084156145cb578287015190505b6145d58582614557565b86555061463d565b601f1984166145eb866143c7565b60005b82811015614613578489015182556001820191506020850194506020810190506145ee565b86831015614630578489015161462c601f891682614539565b8355505b6001600288020188555050505b505050505050565b7f4e487b7100000000000000000000000000000000000000000000000000000000600052603260045260246000fd5b600082825260208201905092915050565b7f4368616c6c656e676520616c72656164792066696e616c697365640000000000600082015250565b60006146bb601b83614674565b91506146c682614685565b602082019050919050565b600060208201905081810360008301526146ea816146ae565b9050919050565b7f4d6178206d6f64657261746f7273207265616368656400000000000000000000600082015250565b6000614727601683614674565b9150614732826146f1565b602082019050919050565b600060208201905081810360008301526147568161471a565b9050919050565b7f596f75206861766520616c7265616479206a6f696e656420746869732072657660008201527f69657720706f6f6c2e0000000000000000000000000000000000000000000000602082015250565b60006147b9602983614674565b91506147c48261475d565b604082019050919050565b600060208201905081810360008301526147e8816147ac565b9050919050565b82818337600083830152505050565b600061480a8385614674565b93506148178385846147ef565b61482083613d70565b840190509392505050565b6148348161397f565b82525050565b6000608082019050818103600083015261485581888a6147fe565b9050818103602083015261486a8186886147fe565b9050614879604083018561482b565b6148866060830184613ac7565b979650505050505050565b7f596f752068617665206e6f74206a6f696e65642074686973207265766965772060008201527f706f6f6c2e000000000000000000000000000000000000000000000000000000602082015250565b60006148ed602583614674565b91506148f882614891565b604082019050919050565b6000602082019050818103600083015261491c816148e0565b9050919050565b600061492e82613d2a565b6149388185614674565b9350614948818560208601613d46565b61495181613d70565b840191505092915050565b614965816137fd565b82525050565b600060608201905081810360008301526149858186614923565b9050614994602083018561495c565b6149a16040830184613ac7565b949350505050565b600060808201905081810360008301526149c38187614923565b90506149d26020830186613ac7565b6149df604083018561495c565b6149ec6060830184613ac7565b95945050505050565b60006040820190508181036000830152614a0f8185614923565b90508181036020830152614a238184614923565b90509392505050565b60006040820190508181036000830152614a468185614923565b9050614a556020830184613ac7565b9392505050565b7f4368616c6c656e676520616c72656164792066696e616c697a65640000000000600082015250565b6000614a92601b83614674565b9150614a9d82614a5c565b602082019050919050565b60006020820190508181036000830152614ac181614a85565b9050919050565b6000614ad3826137a7565b9150614ade836137a7565b9250828201905080821115614af657614af56142c1565b5b92915050565b6000614b07826137a7565b9150614b12836137a7565b9250828202614b20816137a7565b91508282048414831517614b3757614b366142c1565b5b5092915050565b7f4e487b7100000000000000000000000000000000000000000000000000000000600052601260045260246000fd5b6000614b78826137a7565b9150614b83836137a7565b925082614b9357614b92614b3e565b5b828204905092915050565b6000614ba9826137a7565b915060008203614bbc57614bbb6142c1565b5b600182039050919050565b614bd081613de1565b82525050565b6000604082019050614beb6000830185614bc7565b614bf86020830184613ac7565b9392505050565b60006060820190508181036000830152614c198186614923565b9050614c286020830185613ac7565b614c356040830184613ac7565b949350505050565b7f4e487b7100000000000000000000000000000000000000000000000000000000600052605160045260246000fdfe4368616c6c656e67652023257320636f6e747269627574656420627920257320617420257320776974683a4d6f64657261746f7220257320757064617465642072657669657720666f72206368616c6c656e67652023257355736572202573206861642066657463686564202573206d6f64657261746564206368616c6c656e676573536d61727420636f6e74726163742025732068616420666574636820257320617070726f766564206368616c6c656e6765734368616c6c656e6765202325732073656564656420627920257320617420257320776974683a5573657220257320686164206665746368656420726576696577206f66206368616c6c656e676520232573536d61727420636f6e7472616374202573206861642066657463682025732070656e64696e67206368616c6c656e67657355736572202573206861642066657463686564206368616c6c656e676520232573417665726167652073636f726520666f72206368616c6c656e6765202325733a2025735573657220257320686164206665746368656420257320636f6e7472696275746564206368616c6c656e6765734d6f64657261746f72202573206a6f696e65642072657669657720706f6f6c20666f72206368616c6c656e676520232573a2646970667358221220b2b1120a35ed15fc958a9b330827a7fe0be41473d25e70769056a3d74c22921364736f6c634300081c0033",
  "linkReferences": {},
  "deployedLinkReferences": {}
}