{
  "_format": "hh-sol-artifact-1",
  "contractName": "ChallengeManager",
  "sourceName": "contracts/ChallengeManager.sol",
  "abi": [
    {
      "anonymous": false,
      "inputs": [
        {
          "indexed": true,
          "internalType": "address",
          "name": "contributor",
          "type": "address"
        },
        {
          "indexed": false,
          "internalType": "string",
          "name": "title_url",
          "type": "string"
        },
        {
          "indexed": false,
          "internalType": "string",
          "name": "description_url",
          "type": "string"
        },
        {
          "indexed": false,
          "internalType": "enum ChallengeManager.Domain",
          "name": "category",
          "type": "uint8"
        },
        {
          "indexed": false,
          "internalType": "uint256",
          "name": "contribute_at",
          "type": "uint256"
        }
      ],
      "name": "ChallengeContributed",
      "type": "event"
    },
    {
      "anonymous": false,
      "inputs": [
        {
          "indexed": true,
          "internalType": "uint256",
          "name": "challengeId",
          "type": "uint256"
        },
        {
          "indexed": false,
          "internalType": "enum ChallengeManager.ChallengeStatus",
          "name": "status",
          "type": "uint8"
        },
        {
          "indexed": false,
          "internalType": "uint256",
          "name": "averagePercent",
          "type": "uint256"
        }
      ],
      "name": "ChallengeFinalized",
      "type": "event"
    },
    {
      "anonymous": false,
      "inputs": [
        {
          "indexed": true,
          "internalType": "address",
          "name": "user",
          "type": "address"
        },
        {
          "indexed": false,
          "internalType": "uint256",
          "name": "challengeId",
          "type": "uint256"
        },
        {
          "indexed": false,
          "internalType": "uint256",
          "name": "joinedAt",
          "type": "uint256"
        }
      ],
      "name": "ChallengeJoinedByUser",
      "type": "event"
    },
    {
      "anonymous": false,
      "inputs": [
        {
          "indexed": true,
          "internalType": "uint256",
          "name": "challenge_id",
          "type": "uint256"
        },
        {
          "indexed": true,
          "internalType": "address",
          "name": "moderator",
          "type": "address"
        }
      ],
      "name": "ReviewPoolJoined",
      "type": "event"
    },
    {
      "anonymous": false,
      "inputs": [
        {
          "indexed": true,
          "internalType": "address",
          "name": "user",
          "type": "address"
        },
        {
          "indexed": false,
          "internalType": "uint256",
          "name": "challengeId",
          "type": "uint256"
        },
        {
          "indexed": false,
          "internalType": "string",
          "name": "solutionUrl",
          "type": "string"
        },
        {
          "indexed": false,
          "internalType": "uint256",
          "name": "submittedAt",
          "type": "uint256"
        }
      ],
      "name": "SolutionSubmitted",
      "type": "event"
    },
    {
      "inputs": [],
      "name": "MAX_DIFFICULTY_LEVEL",
      "outputs": [
        {
          "internalType": "uint256",
          "name": "",
          "type": "uint256"
        }
      ],
      "stateMutability": "view",
      "type": "function"
    },
    {
      "inputs": [],
      "name": "MAX_DOMAIN",
      "outputs": [
        {
          "internalType": "uint256",
          "name": "",
          "type": "uint256"
        }
      ],
      "stateMutability": "view",
      "type": "function"
    },
    {
      "inputs": [],
      "name": "NUMBER_OF_QUALITY_FACTORS",
      "outputs": [
        {
          "internalType": "uint256",
          "name": "",
          "type": "uint256"
        }
      ],
      "stateMutability": "view",
      "type": "function"
    },
    {
      "inputs": [],
      "name": "REVIEW_QUORUM",
      "outputs": [
        {
          "internalType": "uint256",
          "name": "",
          "type": "uint256"
        }
      ],
      "stateMutability": "view",
      "type": "function"
    },
    {
      "inputs": [],
      "name": "REVIEW_THRESHOLD",
      "outputs": [
        {
          "internalType": "uint256",
          "name": "",
          "type": "uint256"
        }
      ],
      "stateMutability": "view",
      "type": "function"
    },
    {
      "inputs": [],
      "name": "approved_challenges",
      "outputs": [
        {
          "internalType": "uint256",
          "name": "",
          "type": "uint256"
        }
      ],
      "stateMutability": "view",
      "type": "function"
    },
    {
      "inputs": [
        {
          "internalType": "string",
          "name": "_title_url",
          "type": "string"
        },
        {
          "internalType": "string",
          "name": "_description_url",
          "type": "string"
        },
        {
          "internalType": "enum ChallengeManager.Domain",
          "name": "_category",
          "type": "uint8"
        }
      ],
      "name": "contributeChallenge",
      "outputs": [],
      "stateMutability": "nonpayable",
      "type": "function"
    },
    {
      "inputs": [],
      "name": "getApprovedChallenges",
      "outputs": [
        {
          "components": [
            {
              "internalType": "uint256",
              "name": "id",
              "type": "uint256"
            },
            {
              "internalType": "address",
              "name": "contributor",
              "type": "address"
            },
            {
              "internalType": "string",
              "name": "title_url",
              "type": "string"
            },
            {
              "internalType": "string",
              "name": "description_url",
              "type": "string"
            },
            {
              "internalType": "enum ChallengeManager.Domain",
              "name": "category",
              "type": "uint8"
            },
            {
              "internalType": "uint256",
              "name": "contribute_at",
              "type": "uint256"
            },
            {
              "internalType": "enum ChallengeManager.ChallengeStatus",
              "name": "status",
              "type": "uint8"
            },
            {
              "internalType": "uint256",
              "name": "quality_score",
              "type": "uint256"
            },
            {
              "internalType": "enum ChallengeManager.DifficultyLevel",
              "name": "difficulty_level",
              "type": "uint8"
            },
            {
              "internalType": "uint256",
              "name": "solve_time",
              "type": "uint256"
            }
          ],
          "internalType": "struct ChallengeManager.Challenge[]",
          "name": "",
          "type": "tuple[]"
        }
      ],
      "stateMutability": "view",
      "type": "function"
    },
    {
      "inputs": [
        {
          "internalType": "uint256",
          "name": "_challenge_id",
          "type": "uint256"
        }
      ],
      "name": "getChallengeById",
      "outputs": [
        {
          "components": [
            {
              "internalType": "uint256",
              "name": "id",
              "type": "uint256"
            },
            {
              "internalType": "address",
              "name": "contributor",
              "type": "address"
            },
            {
              "internalType": "string",
              "name": "title_url",
              "type": "string"
            },
            {
              "internalType": "string",
              "name": "description_url",
              "type": "string"
            },
            {
              "internalType": "enum ChallengeManager.Domain",
              "name": "category",
              "type": "uint8"
            },
            {
              "internalType": "uint256",
              "name": "contribute_at",
              "type": "uint256"
            },
            {
              "internalType": "enum ChallengeManager.ChallengeStatus",
              "name": "status",
              "type": "uint8"
            },
            {
              "internalType": "uint256",
              "name": "quality_score",
              "type": "uint256"
            },
            {
              "internalType": "enum ChallengeManager.DifficultyLevel",
              "name": "difficulty_level",
              "type": "uint8"
            },
            {
              "internalType": "uint256",
              "name": "solve_time",
              "type": "uint256"
            }
          ],
          "internalType": "struct ChallengeManager.Challenge",
          "name": "",
          "type": "tuple"
        }
      ],
      "stateMutability": "view",
      "type": "function"
    },
    {
      "inputs": [
        {
          "internalType": "uint256",
          "name": "_challenge_id",
          "type": "uint256"
        }
      ],
      "name": "getChallengeFinalizedStatus",
      "outputs": [
        {
          "internalType": "bool",
          "name": "",
          "type": "bool"
        }
      ],
      "stateMutability": "view",
      "type": "function"
    },
    {
      "inputs": [
        {
          "internalType": "address",
          "name": "_contributor_address",
          "type": "address"
        }
      ],
      "name": "getChallengesByContributor",
      "outputs": [
        {
          "components": [
            {
              "internalType": "uint256",
              "name": "id",
              "type": "uint256"
            },
            {
              "internalType": "address",
              "name": "contributor",
              "type": "address"
            },
            {
              "internalType": "string",
              "name": "title_url",
              "type": "string"
            },
            {
              "internalType": "string",
              "name": "description_url",
              "type": "string"
            },
            {
              "internalType": "enum ChallengeManager.Domain",
              "name": "category",
              "type": "uint8"
            },
            {
              "internalType": "uint256",
              "name": "contribute_at",
              "type": "uint256"
            },
            {
              "internalType": "enum ChallengeManager.ChallengeStatus",
              "name": "status",
              "type": "uint8"
            },
            {
              "internalType": "uint256",
              "name": "quality_score",
              "type": "uint256"
            },
            {
              "internalType": "enum ChallengeManager.DifficultyLevel",
              "name": "difficulty_level",
              "type": "uint8"
            },
            {
              "internalType": "uint256",
              "name": "solve_time",
              "type": "uint256"
            }
          ],
          "internalType": "struct ChallengeManager.Challenge[]",
          "name": "",
          "type": "tuple[]"
        }
      ],
      "stateMutability": "view",
      "type": "function"
    },
    {
      "inputs": [
        {
          "internalType": "address",
          "name": "_moderator_address",
          "type": "address"
        }
      ],
      "name": "getChallengesByModerator",
      "outputs": [
        {
          "components": [
            {
              "internalType": "uint256",
              "name": "id",
              "type": "uint256"
            },
            {
              "internalType": "address",
              "name": "contributor",
              "type": "address"
            },
            {
              "internalType": "string",
              "name": "title_url",
              "type": "string"
            },
            {
              "internalType": "string",
              "name": "description_url",
              "type": "string"
            },
            {
              "internalType": "enum ChallengeManager.Domain",
              "name": "category",
              "type": "uint8"
            },
            {
              "internalType": "uint256",
              "name": "contribute_at",
              "type": "uint256"
            },
            {
              "internalType": "enum ChallengeManager.ChallengeStatus",
              "name": "status",
              "type": "uint8"
            },
            {
              "internalType": "uint256",
              "name": "quality_score",
              "type": "uint256"
            },
            {
              "internalType": "enum ChallengeManager.DifficultyLevel",
              "name": "difficulty_level",
              "type": "uint8"
            },
            {
              "internalType": "uint256",
              "name": "solve_time",
              "type": "uint256"
            }
          ],
          "internalType": "struct ChallengeManager.Challenge[]",
          "name": "",
          "type": "tuple[]"
        }
      ],
      "stateMutability": "view",
      "type": "function"
    },
    {
      "inputs": [
        {
          "internalType": "uint256",
          "name": "_challenge_id",
          "type": "uint256"
        },
        {
          "internalType": "address",
          "name": "_moderator_address",
          "type": "address"
        }
      ],
      "name": "getJoinReviewPoolStatus",
      "outputs": [
        {
          "internalType": "bool",
          "name": "",
          "type": "bool"
        }
      ],
      "stateMutability": "view",
      "type": "function"
    },
    {
      "inputs": [
        {
          "internalType": "address",
          "name": "_user_address",
          "type": "address"
        },
        {
          "internalType": "address",
          "name": "_solution_address",
          "type": "address"
        }
      ],
      "name": "getJoinedChallengesByUserForPreview",
      "outputs": [
        {
          "components": [
            {
              "internalType": "uint256",
              "name": "challenge_id",
              "type": "uint256"
            },
            {
              "internalType": "string",
              "name": "title_url",
              "type": "string"
            },
            {
              "internalType": "string",
              "name": "description_url",
              "type": "string"
            },
            {
              "internalType": "enum ChallengeManager.Domain",
              "name": "domain",
              "type": "uint8"
            },
            {
              "internalType": "enum SolutionProgress",
              "name": "progress",
              "type": "uint8"
            },
            {
              "internalType": "uint256",
              "name": "joined_at",
              "type": "uint256"
            },
            {
              "internalType": "uint256",
              "name": "score",
              "type": "uint256"
            }
          ],
          "internalType": "struct ChallengeManager.JoinedChallengesPreview[]",
          "name": "",
          "type": "tuple[]"
        }
      ],
      "stateMutability": "view",
      "type": "function"
    },
    {
      "inputs": [
        {
          "internalType": "uint256",
          "name": "challenge_id",
          "type": "uint256"
        },
        {
          "internalType": "address",
          "name": "_moderator_address",
          "type": "address"
        }
      ],
      "name": "getModeratorReviewOfChallenge",
      "outputs": [
        {
          "components": [
            {
              "internalType": "address",
              "name": "moderator",
              "type": "address"
            },
            {
              "internalType": "uint256",
              "name": "challenge_id",
              "type": "uint256"
            },
            {
              "internalType": "uint256",
              "name": "review_time",
              "type": "uint256"
            },
            {
              "internalType": "enum ChallengeManager.QualityFactorAnswer",
              "name": "relevance",
              "type": "uint8"
            },
            {
              "internalType": "enum ChallengeManager.QualityFactorAnswer",
              "name": "technical_correctness",
              "type": "uint8"
            },
            {
              "internalType": "enum ChallengeManager.QualityFactorAnswer",
              "name": "completeness",
              "type": "uint8"
            },
            {
              "internalType": "enum ChallengeManager.QualityFactorAnswer",
              "name": "clarity",
              "type": "uint8"
            },
            {
              "internalType": "enum ChallengeManager.QualityFactorAnswer",
              "name": "originality",
              "type": "uint8"
            },
            {
              "internalType": "enum ChallengeManager.QualityFactorAnswer",
              "name": "unbiased",
              "type": "uint8"
            },
            {
              "internalType": "enum ChallengeManager.QualityFactorAnswer",
              "name": "plagiarism_free",
              "type": "uint8"
            },
            {
              "internalType": "enum ChallengeManager.DifficultyLevel",
              "name": "suggested_difficulty",
              "type": "uint8"
            },
            {
              "internalType": "enum ChallengeManager.Domain",
              "name": "suggested_category",
              "type": "uint8"
            },
            {
              "internalType": "uint256",
              "name": "suggested_solve_time",
              "type": "uint256"
            }
          ],
          "internalType": "struct ChallengeManager.ModeratorReview",
          "name": "",
          "type": "tuple"
        }
      ],
      "stateMutability": "view",
      "type": "function"
    },
    {
      "inputs": [],
      "name": "getPendingChallenges",
      "outputs": [
        {
          "components": [
            {
              "internalType": "uint256",
              "name": "id",
              "type": "uint256"
            },
            {
              "internalType": "address",
              "name": "contributor",
              "type": "address"
            },
            {
              "internalType": "string",
              "name": "title_url",
              "type": "string"
            },
            {
              "internalType": "string",
              "name": "description_url",
              "type": "string"
            },
            {
              "internalType": "enum ChallengeManager.Domain",
              "name": "category",
              "type": "uint8"
            },
            {
              "internalType": "uint256",
              "name": "contribute_at",
              "type": "uint256"
            },
            {
              "internalType": "enum ChallengeManager.ChallengeStatus",
              "name": "status",
              "type": "uint8"
            },
            {
              "internalType": "uint256",
              "name": "quality_score",
              "type": "uint256"
            },
            {
              "internalType": "enum ChallengeManager.DifficultyLevel",
              "name": "difficulty_level",
              "type": "uint8"
            },
            {
              "internalType": "uint256",
              "name": "solve_time",
              "type": "uint256"
            }
          ],
          "internalType": "struct ChallengeManager.Challenge[]",
          "name": "",
          "type": "tuple[]"
        }
      ],
      "stateMutability": "view",
      "type": "function"
    },
    {
      "inputs": [
        {
          "internalType": "uint256",
          "name": "_challenge_id",
          "type": "uint256"
        }
      ],
      "name": "getReviewPoolSize",
      "outputs": [
        {
          "internalType": "uint256",
          "name": "",
          "type": "uint256"
        }
      ],
      "stateMutability": "view",
      "type": "function"
    },
    {
      "inputs": [],
      "name": "getReviewQuorum",
      "outputs": [
        {
          "internalType": "uint256",
          "name": "",
          "type": "uint256"
        }
      ],
      "stateMutability": "pure",
      "type": "function"
    },
    {
      "inputs": [
        {
          "internalType": "uint256",
          "name": "_challenge_id",
          "type": "uint256"
        }
      ],
      "name": "joinReviewPool",
      "outputs": [],
      "stateMutability": "nonpayable",
      "type": "function"
    },
    {
      "inputs": [],
      "name": "pending_challenges",
      "outputs": [
        {
          "internalType": "uint256",
          "name": "",
          "type": "uint256"
        }
      ],
      "stateMutability": "view",
      "type": "function"
    },
    {
      "inputs": [
        {
          "internalType": "address",
          "name": "_contributor",
          "type": "address"
        },
        {
          "internalType": "string",
          "name": "_title_url",
          "type": "string"
        },
        {
          "internalType": "string",
          "name": "_description_url",
          "type": "string"
        },
        {
          "internalType": "enum ChallengeManager.Domain",
          "name": "_category",
          "type": "uint8"
        },
        {
          "internalType": "uint256",
          "name": "_contribute_at",
          "type": "uint256"
        },
        {
          "internalType": "enum ChallengeManager.ChallengeStatus",
          "name": "_status",
          "type": "uint8"
        },
        {
          "internalType": "uint256",
          "name": "_quality_score",
          "type": "uint256"
        },
        {
          "internalType": "enum ChallengeManager.DifficultyLevel",
          "name": "_difficulty_level",
          "type": "uint8"
        },
        {
          "internalType": "uint256",
          "name": "_solve_time",
          "type": "uint256"
        }
      ],
      "name": "seedChallenge",
      "outputs": [],
      "stateMutability": "nonpayable",
      "type": "function"
    },
    {
      "inputs": [
        {
          "internalType": "uint256",
          "name": "_challenge_id",
          "type": "uint256"
        },
        {
          "internalType": "enum ChallengeManager.QualityFactorAnswer",
          "name": "_relevance",
          "type": "uint8"
        },
        {
          "internalType": "enum ChallengeManager.QualityFactorAnswer",
          "name": "_technical_correctness",
          "type": "uint8"
        },
        {
          "internalType": "enum ChallengeManager.QualityFactorAnswer",
          "name": "_completeness",
          "type": "uint8"
        },
        {
          "internalType": "enum ChallengeManager.QualityFactorAnswer",
          "name": "_clarity",
          "type": "uint8"
        },
        {
          "internalType": "enum ChallengeManager.QualityFactorAnswer",
          "name": "_originality",
          "type": "uint8"
        },
        {
          "internalType": "enum ChallengeManager.QualityFactorAnswer",
          "name": "_unbiased",
          "type": "uint8"
        },
        {
          "internalType": "enum ChallengeManager.QualityFactorAnswer",
          "name": "_plagiarism_free",
          "type": "uint8"
        },
        {
          "internalType": "enum ChallengeManager.DifficultyLevel",
          "name": "_suggested_difficulty",
          "type": "uint8"
        },
        {
          "internalType": "enum ChallengeManager.Domain",
          "name": "_suggested_category",
          "type": "uint8"
        },
        {
          "internalType": "uint256",
          "name": "_suggested_solve_time",
          "type": "uint256"
        }
      ],
      "name": "submitModeratorReview",
      "outputs": [],
      "stateMutability": "nonpayable",
      "type": "function"
    },
    {
      "inputs": [],
      "name": "total_challenges",
      "outputs": [
        {
          "internalType": "uint256",
          "name": "",
          "type": "uint256"
        }
      ],
      "stateMutability": "view",
      "type": "function"
    },
    {
      "inputs": [
        {
          "internalType": "uint256",
          "name": "_challenge_id",
          "type": "uint256"
        },
        {
          "internalType": "string",
          "name": "_solution_base_txid",
          "type": "string"
        },
        {
          "internalType": "address",
          "name": "_solution_address",
          "type": "address"
        }
      ],
      "name": "userJoinChallenge",
      "outputs": [],
      "stateMutability": "nonpayable",
      "type": "function"
    }
  ],
  "bytecode": "0x6080604052600060065560006007556000600855348015601e57600080fd5b50615aeb8061002e6000396000f3fe608060405234801561001057600080fd5b50600436106101585760003560e01c8063955b6724116100c3578063cd6e56611161007c578063cd6e5661146103dd578063dd0e12ca1461040d578063e94a78301461042b578063e9d04f711461045b578063f83eb27514610479578063f8983b661461049757610158565b8063955b672414610307578063a22b6a8614610325578063a821a06714610343578063b969d92014610373578063be21f20c1461038f578063c80191b8146103ad57610158565b80635a14c944116101155780635a14c944146102335780635d880de91461024f578063616e2e561461026d5780636bf8eaf21461029d5780638758aabb146102bb57806392376e13146102d757610158565b80630f3356031461015d5780632b3669961461018d57806345637d8f146101ab57806349a25e6d146101c75780634c7b5a8e146101e55780635057494a14610203575b600080fd5b61017760048036038101906101729190613fe7565b6104b3565b6040516101849190614257565b60405180910390f35b6101956107cc565b6040516101a29190614282565b60405180910390f35b6101c560048036038101906101c09190614371565b6107d2565b005b6101cf610c76565b6040516101dc9190614282565b60405180910390f35b6101ed610c7b565b6040516101fa9190614282565b60405180910390f35b61021d6004803603810190610218919061447d565b610c81565b60405161022a9190614725565b60405180910390f35b61024d60048036038101906102489190614747565b61105f565b005b61025761136f565b6040516102649190614282565b60405180910390f35b6102876004803603810190610282919061447d565b611374565b6040516102949190614725565b60405180910390f35b6102a5611752565b6040516102b29190614282565b60405180910390f35b6102d560048036038101906102d09190614799565b611757565b005b6102f160048036038101906102ec9190614747565b611fb0565b6040516102fe919061496e565b60405180910390f35b61030f612253565b60405161031c9190614282565b60405180910390f35b61032d612258565b60405161033a9190614282565b60405180910390f35b61035d60048036038101906103589190614747565b61225e565b60405161036a91906149ab565b60405180910390f35b61038d600480360381019061038891906149c6565b61228b565b005b61039761248b565b6040516103a49190614725565b60405180910390f35b6103c760048036038101906103c29190613fe7565b61281b565b6040516103d491906149ab565b60405180910390f35b6103f760048036038101906103f29190614a3a565b612886565b6040516104049190614c27565b60405180910390f35b610415612c1f565b6040516104229190614725565b60405180910390f35b61044560048036038101906104409190614747565b612faf565b6040516104529190614282565b60405180910390f35b610463612fd2565b6040516104709190614282565b60405180910390f35b610481612fd7565b60405161048e9190614282565b60405180910390f35b6104b160048036038101906104ac9190614c49565b612fe0565b005b6104bb613d1f565b6104de6040518060600160405280602b8152602001615997602b91398385613476565b6001600084815260200190815260200160002060030160008373ffffffffffffffffffffffffffffffffffffffff1673ffffffffffffffffffffffffffffffffffffffff168152602001908152602001600020604051806101a00160405290816000820160009054906101000a900473ffffffffffffffffffffffffffffffffffffffff1673ffffffffffffffffffffffffffffffffffffffff1673ffffffffffffffffffffffffffffffffffffffff16815260200160018201548152602001600282015481526020016003820160009054906101000a900460ff1660018111156105cc576105cb614045565b5b60018111156105de576105dd614045565b5b81526020016003820160019054906101000a900460ff16600181111561060757610606614045565b5b600181111561061957610618614045565b5b81526020016003820160029054906101000a900460ff16600181111561064257610641614045565b5b600181111561065457610653614045565b5b81526020016003820160039054906101000a900460ff16600181111561067d5761067c614045565b5b600181111561068f5761068e614045565b5b81526020016003820160049054906101000a900460ff1660018111156106b8576106b7614045565b5b60018111156106ca576106c9614045565b5b81526020016003820160059054906101000a900460ff1660018111156106f3576106f2614045565b5b600181111561070557610704614045565b5b81526020016003820160069054906101000a900460ff16600181111561072e5761072d614045565b5b60018111156107405761073f614045565b5b81526020016003820160079054906101000a900460ff16600281111561076957610768614045565b5b600281111561077b5761077a614045565b5b81526020016003820160089054906101000a900460ff16600d8111156107a4576107a3614045565b5b600d8111156107b6576107b5614045565b5b8152602001600482015481525050905092915050565b60075481565b6000600660008154809291906107e790614d0d565b9190505590506040518061014001604052808281526020018d73ffffffffffffffffffffffffffffffffffffffff1681526020018c8c8080601f016020809104026020016040519081016040528093929190818152602001838380828437600081840152601f19601f8201169050808301925050505050505081526020018a8a8080601f016020809104026020016040519081016040528093929190818152602001838380828437600081840152601f19601f82011690508083019250505050505050815260200188600d8111156108c2576108c1614045565b5b81526020018781526020018660028111156108e0576108df614045565b5b81526020018581526020018460028111156108fe576108fd614045565b5b8152602001838152506000808381526020019081526020016000206000820151816000015560208201518160010160006101000a81548173ffffffffffffffffffffffffffffffffffffffff021916908373ffffffffffffffffffffffffffffffffffffffff160217905550604082015181600201908161097f9190614f90565b5060608201518160030190816109959190614f90565b5060808201518160040160006101000a81548160ff0219169083600d8111156109c1576109c0614045565b5b021790555060a0820151816005015560c08201518160060160006101000a81548160ff021916908360028111156109fb576109fa614045565b5b021790555060e082015181600701556101008201518160080160006101000a81548160ff02191690836002811115610a3657610a35614045565b5b02179055506101208201518160090155905050600260008d73ffffffffffffffffffffffffffffffffffffffff1673ffffffffffffffffffffffffffffffffffffffff16815260200190815260200160002081908060018154018082558091505060019003906000526020600020016000909190919091505560006002811115610ac357610ac2614045565b5b856002811115610ad657610ad5614045565b5b03610af85760076000815480929190610aee90614d0d565b9190505550610b3e565b60016002811115610b0c57610b0b614045565b5b856002811115610b1f57610b1e614045565b5b03610b3d5760086000815480929190610b3790614d0d565b91905055505b5b610b6260405180606001604052806026815260200161597160269139828e89613515565b610be56040518060400160405280601781526020017f2d205469746c652075726c20202020202020203a2025730000000000000000008152508c8c8080601f016020809104026020016040519081016040528093929190818152602001838380828437600081840152601f19601f820116905080830192505050505050506135b7565b610c686040518060400160405280601781526020017f2d204465736372697074696f6e2075726c20203a2025730000000000000000008152508a8a8080601f016020809104026020016040519081016040528093929190818152602001838380828437600081840152601f19601f820116905080830192505050505050506135b7565b505050505050505050505050565b600e81565b60065481565b60606000600360008473ffffffffffffffffffffffffffffffffffffffff1673ffffffffffffffffffffffffffffffffffffffff168152602001908152602001600020805480602002602001604051908101604052809291908181526020018280548015610d0e57602002820191906000526020600020905b815481526020019060010190808311610cfa575b505050505090506000815167ffffffffffffffff811115610d3257610d31614d55565b5b604051908082528060200260200182016040528015610d6b57816020015b610d58613e3f565b815260200190600190039081610d505790505b50905060005b825181101561103057600080848381518110610d9057610d8f615062565b5b6020026020010151815260200190815260200160002060405180610140016040529081600082015481526020016001820160009054906101000a900473ffffffffffffffffffffffffffffffffffffffff1673ffffffffffffffffffffffffffffffffffffffff1673ffffffffffffffffffffffffffffffffffffffff168152602001600282018054610e2290614db3565b80601f0160208091040260200160405190810160405280929190818152602001828054610e4e90614db3565b8015610e9b5780601f10610e7057610100808354040283529160200191610e9b565b820191906000526020600020905b815481529060010190602001808311610e7e57829003601f168201915b50505050508152602001600382018054610eb490614db3565b80601f0160208091040260200160405190810160405280929190818152602001828054610ee090614db3565b8015610f2d5780601f10610f0257610100808354040283529160200191610f2d565b820191906000526020600020905b815481529060010190602001808311610f1057829003601f168201915b505050505081526020016004820160009054906101000a900460ff16600d811115610f5b57610f5a614045565b5b600d811115610f6d57610f6c614045565b5b8152602001600582015481526020016006820160009054906101000a900460ff166002811115610fa057610f9f614045565b5b6002811115610fb257610fb1614045565b5b8152602001600782015481526020016008820160009054906101000a900460ff166002811115610fe557610fe4614045565b5b6002811115610ff757610ff6614045565b5b815260200160098201548152505082828151811061101857611017615062565b5b60200260200101819052508080600101915050610d71565b506110556040518060600160405280602b81526020016158e4602b9139858451613476565b8092505050919050565b806001600082815260200190815260200160002060010160009054906101000a900460ff16156110c4576040517f08c379a00000000000000000000000000000000000000000000000000000000081526004016110bb906150ee565b60405180910390fd5b6003600160008481526020019081526020016000206000018054905010611120576040517f08c379a00000000000000000000000000000000000000000000000000000000081526004016111179061515a565b60405180910390fd5b600015156001600084815260200190815260200160002060040160003373ffffffffffffffffffffffffffffffffffffffff1673ffffffffffffffffffffffffffffffffffffffff16815260200190815260200160002060009054906101000a900460ff161515146111c7576040517f08c379a00000000000000000000000000000000000000000000000000000000081526004016111be906151ec565b60405180910390fd5b600360003373ffffffffffffffffffffffffffffffffffffffff1673ffffffffffffffffffffffffffffffffffffffff168152602001908152602001600020829080600181540180825580915050600190039060005260206000200160009091909190915055600060016000848152602001908152602001600020905080600001339080600181540180825580915050600190039060005260206000200160009091909190916101000a81548173ffffffffffffffffffffffffffffffffffffffff021916908373ffffffffffffffffffffffffffffffffffffffff16021790555060018160040160003373ffffffffffffffffffffffffffffffffffffffff1673ffffffffffffffffffffffffffffffffffffffff16815260200190815260200160002060006101000a81548160ff0219169083151502179055503373ffffffffffffffffffffffffffffffffffffffff16837f07fe5c562bb72cc8709dc10987f69acf04ba0d45c871d6c281e32df878063dcd60405160405180910390a361136a604051806060016040528060318152602001615a85603191393385613476565b505050565b600381565b60606000600260008473ffffffffffffffffffffffffffffffffffffffff1673ffffffffffffffffffffffffffffffffffffffff16815260200190815260200160002080548060200260200160405190810160405280929190818152602001828054801561140157602002820191906000526020600020905b8154815260200190600101908083116113ed575b505050505090506000815167ffffffffffffffff81111561142557611424614d55565b5b60405190808252806020026020018201604052801561145e57816020015b61144b613e3f565b8152602001906001900390816114435790505b50905060005b82518110156117235760008084838151811061148357611482615062565b5b6020026020010151815260200190815260200160002060405180610140016040529081600082015481526020016001820160009054906101000a900473ffffffffffffffffffffffffffffffffffffffff1673ffffffffffffffffffffffffffffffffffffffff1673ffffffffffffffffffffffffffffffffffffffff16815260200160028201805461151590614db3565b80601f016020809104026020016040519081016040528092919081815260200182805461154190614db3565b801561158e5780601f106115635761010080835404028352916020019161158e565b820191906000526020600020905b81548152906001019060200180831161157157829003601f168201915b505050505081526020016003820180546115a790614db3565b80601f01602080910402602001604051908101604052809291908181526020018280546115d390614db3565b80156116205780601f106115f557610100808354040283529160200191611620565b820191906000526020600020905b81548152906001019060200180831161160357829003601f168201915b505050505081526020016004820160009054906101000a900460ff16600d81111561164e5761164d614045565b5b600d8111156116605761165f614045565b5b8152602001600582015481526020016006820160009054906101000a900460ff16600281111561169357611692614045565b5b60028111156116a5576116a4614045565b5b8152602001600782015481526020016008820160009054906101000a900460ff1660028111156116d8576116d7614045565b5b60028111156116ea576116e9614045565b5b815260200160098201548152505082828151811061170b5761170a615062565b5b60200260200101819052508080600101915050611464565b506117486040518060600160405280602d8152602001615a58602d9139858451613476565b8092505050919050565b605081565b8a6001600082815260200190815260200160002060010160009054906101000a900460ff16156117bc576040517f08c379a00000000000000000000000000000000000000000000000000000000081526004016117b3906150ee565b60405180910390fd5b60011515600160008e815260200190815260200160002060040160003373ffffffffffffffffffffffffffffffffffffffff1673ffffffffffffffffffffffffffffffffffffffff16815260200190815260200160002060009054906101000a900460ff16151514611863576040517f08c379a000000000000000000000000000000000000000000000000000000000815260040161185a9061527e565b60405180910390fd5b6000600160008e8152602001908152602001600020905060008160030160003373ffffffffffffffffffffffffffffffffffffffff1673ffffffffffffffffffffffffffffffffffffffff16815260200190815260200160002060020154036118e1578060020160008154809291906118db90614d0d565b91905055505b604051806101a001604052803373ffffffffffffffffffffffffffffffffffffffff1681526020018e81526020014281526020018d600181111561192857611927614045565b5b81526020018c60018111156119405761193f614045565b5b81526020018b600181111561195857611957614045565b5b81526020018a60018111156119705761196f614045565b5b815260200189600181111561198857611987614045565b5b81526020018860018111156119a05761199f614045565b5b81526020018760018111156119b8576119b7614045565b5b81526020018660028111156119d0576119cf614045565b5b815260200185600d8111156119e8576119e7614045565b5b8152602001848152508160030160003373ffffffffffffffffffffffffffffffffffffffff1673ffffffffffffffffffffffffffffffffffffffff16815260200190815260200160002060008201518160000160006101000a81548173ffffffffffffffffffffffffffffffffffffffff021916908373ffffffffffffffffffffffffffffffffffffffff160217905550602082015181600101556040820151816002015560608201518160030160006101000a81548160ff02191690836001811115611ab857611ab7614045565b5b021790555060808201518160030160016101000a81548160ff02191690836001811115611ae857611ae7614045565b5b021790555060a08201518160030160026101000a81548160ff02191690836001811115611b1857611b17614045565b5b021790555060c08201518160030160036101000a81548160ff02191690836001811115611b4857611b47614045565b5b021790555060e08201518160030160046101000a81548160ff02191690836001811115611b7857611b77614045565b5b02179055506101008201518160030160056101000a81548160ff02191690836001811115611ba957611ba8614045565b5b02179055506101208201518160030160066101000a81548160ff02191690836001811115611bda57611bd9614045565b5b02179055506101408201518160030160076101000a81548160ff02191690836002811115611c0b57611c0a614045565b5b02179055506101608201518160030160086101000a81548160ff0219169083600d811115611c3c57611c3b614045565b5b02179055506101808201518160040155905050611c726040518060600160405280602d81526020016158b7602d9139338f613476565b611cc36040518060400160405280600f81526020017f2d2052656c6576616e63653a20257300000000000000000000000000000000008152508d6001811115611cbe57611cbd614045565b5b613653565b611d146040518060400160405280601b81526020017f2d20546563686e6963616c20636f72726563746e6573733a20257300000000008152508c6001811115611d0f57611d0e614045565b5b613653565b611d656040518060400160405280601281526020017f2d20436f6d706c6574656e6573733a20257300000000000000000000000000008152508b6001811115611d6057611d5f614045565b5b613653565b611db66040518060400160405280600d81526020017f2d20436c61726974793a202573000000000000000000000000000000000000008152508a6001811115611db157611db0614045565b5b613653565b611e076040518060400160405280601181526020017f2d204f726967696e616c6974793a202573000000000000000000000000000000815250896001811115611e0257611e01614045565b5b613653565b611e586040518060400160405280600e81526020017f2d20556e6269617365643a202573000000000000000000000000000000000000815250886001811115611e5357611e52614045565b5b613653565b611ea96040518060400160405280601581526020017f2d20506c616769617269736d20667265653a2025730000000000000000000000815250876001811115611ea457611ea3614045565b5b613653565b611efa6040518060400160405280601a81526020017f2d2053756767657374656420646966666963756c74793a202573000000000000815250866002811115611ef557611ef4614045565b5b613653565b611f4b6040518060400160405280601881526020017f2d205375676765737465642063617465676f72793a202573000000000000000081525085600d811115611f4657611f45614045565b5b613653565b611f8a6040518060400160405280601a81526020017f2d2053756767657374656420736f6c76652074696d653a20257300000000000081525084613653565b6003816002015410611fa157611fa08d826136ef565b5b50505050505050505050505050565b611fb8613e3f565b611fdb604051806060016040528060218152602001615a14602191393384613476565b60008083815260200190815260200160002060405180610140016040529081600082015481526020016001820160009054906101000a900473ffffffffffffffffffffffffffffffffffffffff1673ffffffffffffffffffffffffffffffffffffffff1673ffffffffffffffffffffffffffffffffffffffff16815260200160028201805461206990614db3565b80601f016020809104026020016040519081016040528092919081815260200182805461209590614db3565b80156120e25780601f106120b7576101008083540402835291602001916120e2565b820191906000526020600020905b8154815290600101906020018083116120c557829003601f168201915b505050505081526020016003820180546120fb90614db3565b80601f016020809104026020016040519081016040528092919081815260200182805461212790614db3565b80156121745780601f1061214957610100808354040283529160200191612174565b820191906000526020600020905b81548152906001019060200180831161215757829003601f168201915b505050505081526020016004820160009054906101000a900460ff16600d8111156121a2576121a1614045565b5b600d8111156121b4576121b3614045565b5b8152602001600582015481526020016006820160009054906101000a900460ff1660028111156121e7576121e6614045565b5b60028111156121f9576121f8614045565b5b8152602001600782015481526020016008820160009054906101000a900460ff16600281111561222c5761222b614045565b5b600281111561223e5761223d614045565b5b81526020016009820154815250509050919050565b600781565b60085481565b60006001600083815260200190815260200160002060010160009054906101000a900460ff169050919050565b600654841061229957600080fd5b60008190508073ffffffffffffffffffffffffffffffffffffffff1663846900cf33876040518363ffffffff1660e01b81526004016122d99291906152ad565b602060405180830381865afa1580156122f6573d6000803e3d6000fd5b505050506040513d601f19601f8201168201806040525081019061231a9190615302565b1561232457600080fd5b60006103e842612334919061532f565b90508173ffffffffffffffffffffffffffffffffffffffff1663d82ff2e933888888866040518663ffffffff1660e01b81526004016123779594939291906153ad565b600060405180830381600087803b15801561239157600080fd5b505af11580156123a5573d6000803e3d6000fd5b50505050600560003373ffffffffffffffffffffffffffffffffffffffff1673ffffffffffffffffffffffffffffffffffffffff1681526020019081526020016000208690806001815401808255809150506001900390600052602060002001600090919091909150556124336040518060600160405280602181526020016159f360219139338884613afc565b3373ffffffffffffffffffffffffffffffffffffffff167fc9e3de16af1f601c85f1f98f6bc173cd0a8b0fcd25dcd67893470617830fa5f9878360405161247b9291906153fb565b60405180910390a2505050505050565b6060600060075467ffffffffffffffff8111156124ab576124aa614d55565b5b6040519080825280602002602001820160405280156124e457816020015b6124d1613e3f565b8152602001906001900390816124c95790505b5090506000805b6006548110156127ee576000600281111561250957612508614045565b5b60008083815260200190815260200160002060060160009054906101000a900460ff16600281111561253e5761253d614045565b5b036127e15760008082815260200190815260200160002060405180610140016040529081600082015481526020016001820160009054906101000a900473ffffffffffffffffffffffffffffffffffffffff1673ffffffffffffffffffffffffffffffffffffffff1673ffffffffffffffffffffffffffffffffffffffff1681526020016002820180546125d190614db3565b80601f01602080910402602001604051908101604052809291908181526020018280546125fd90614db3565b801561264a5780601f1061261f5761010080835404028352916020019161264a565b820191906000526020600020905b81548152906001019060200180831161262d57829003601f168201915b5050505050815260200160038201805461266390614db3565b80601f016020809104026020016040519081016040528092919081815260200182805461268f90614db3565b80156126dc5780601f106126b1576101008083540402835291602001916126dc565b820191906000526020600020905b8154815290600101906020018083116126bf57829003601f168201915b505050505081526020016004820160009054906101000a900460ff16600d81111561270a57612709614045565b5b600d81111561271c5761271b614045565b5b8152602001600582015481526020016006820160009054906101000a900460ff16600281111561274f5761274e614045565b5b600281111561276157612760614045565b5b8152602001600782015481526020016008820160009054906101000a900460ff16600281111561279457612793614045565b5b60028111156127a6576127a5614045565b5b81526020016009820154815250508383815181106127c7576127c6615062565b5b602002602001018190525081806127dd90614d0d565b9250505b80806001019150506124eb565b506128136040518060600160405280603181526020016159c260319139338451613476565b819250505090565b60006001600084815260200190815260200160002060040160008373ffffffffffffffffffffffffffffffffffffffff1673ffffffffffffffffffffffffffffffffffffffff16815260200190815260200160002060009054906101000a900460ff16905092915050565b60606000600560008573ffffffffffffffffffffffffffffffffffffffff1673ffffffffffffffffffffffffffffffffffffffff16815260200190815260200160002080548060200260200160405190810160405280929190818152602001828054801561291357602002820191906000526020600020905b8154815260200190600101908083116128ff575b5050505050905060008390506000825167ffffffffffffffff81111561293c5761293b614d55565b5b60405190808252806020026020018201604052801561297557816020015b612962613ede565b81526020019060019003908161295a5790505b50905060005b8351811015612bf057600084828151811061299957612998615062565b5b602002602001015190506000806000838152602001908152602001600020905060008060008773ffffffffffffffffffffffffffffffffffffffff1663419fd69e8d876040518363ffffffff1660e01b81526004016129f99291906152ad565b606060405180830381865afa158015612a16573d6000803e3d6000fd5b505050506040513d601f19601f82011682018060405250810190612a3a919061545e565b9250925092506040518060e00160405280868152602001856002018054612a6090614db3565b80601f0160208091040260200160405190810160405280929190818152602001828054612a8c90614db3565b8015612ad95780601f10612aae57610100808354040283529160200191612ad9565b820191906000526020600020905b815481529060010190602001808311612abc57829003601f168201915b50505050508152602001856003018054612af290614db3565b80601f0160208091040260200160405190810160405280929190818152602001828054612b1e90614db3565b8015612b6b5780601f10612b4057610100808354040283529160200191612b6b565b820191906000526020600020905b815481529060010190602001808311612b4e57829003601f168201915b505050505081526020018560040160009054906101000a900460ff16600d811115612b9957612b98614045565b5b8152602001836003811115612bb157612bb0614045565b5b815260200184815260200182815250878781518110612bd357612bd2615062565b5b60200260200101819052505050505050808060010191505061297b565b50612c136040518060600160405280603081526020016159416030913987613b9e565b80935050505092915050565b6060600060085467ffffffffffffffff811115612c3f57612c3e614d55565b5b604051908082528060200260200182016040528015612c7857816020015b612c65613e3f565b815260200190600190039081612c5d5790505b5090506000805b600654811015612f825760016002811115612c9d57612c9c614045565b5b60008083815260200190815260200160002060060160009054906101000a900460ff166002811115612cd257612cd1614045565b5b03612f755760008082815260200190815260200160002060405180610140016040529081600082015481526020016001820160009054906101000a900473ffffffffffffffffffffffffffffffffffffffff1673ffffffffffffffffffffffffffffffffffffffff1673ffffffffffffffffffffffffffffffffffffffff168152602001600282018054612d6590614db3565b80601f0160208091040260200160405190810160405280929190818152602001828054612d9190614db3565b8015612dde5780601f10612db357610100808354040283529160200191612dde565b820191906000526020600020905b815481529060010190602001808311612dc157829003601f168201915b50505050508152602001600382018054612df790614db3565b80601f0160208091040260200160405190810160405280929190818152602001828054612e2390614db3565b8015612e705780601f10612e4557610100808354040283529160200191612e70565b820191906000526020600020905b815481529060010190602001808311612e5357829003601f168201915b505050505081526020016004820160009054906101000a900460ff16600d811115612e9e57612e9d614045565b5b600d811115612eb057612eaf614045565b5b8152602001600582015481526020016006820160009054906101000a900460ff166002811115612ee357612ee2614045565b5b6002811115612ef557612ef4614045565b5b8152602001600782015481526020016008820160009054906101000a900460ff166002811115612f2857612f27614045565b5b6002811115612f3a57612f39614045565b5b8152602001600982015481525050838381518110612f5b57612f5a615062565b5b60200260200101819052508180612f7190614d0d565b9250505b8080600101915050612c7f565b50612fa760405180606001604052806032815260200161590f60329139338451613476565b819250505090565b600060016000838152602001908152602001600020600001805490509050919050565b600381565b60006003905090565b600060066000815480929190612ff590614d0d565b91905055905060006103e84261300b919061532f565b90506040518061014001604052808381526020013373ffffffffffffffffffffffffffffffffffffffff16815260200188888080601f016020809104026020016040519081016040528093929190818152602001838380828437600081840152601f19601f82011690508083019250505050505050815260200186868080601f016020809104026020016040519081016040528093929190818152602001838380828437600081840152601f19601f82011690508083019250505050505050815260200184600d8111156130e2576130e1614045565b5b81526020018281526020016000600281111561310157613100614045565b5b8152602001600081526020016000600281111561312157613120614045565b5b815260200160008152506000808481526020019081526020016000206000820151816000015560208201518160010160006101000a81548173ffffffffffffffffffffffffffffffffffffffff021916908373ffffffffffffffffffffffffffffffffffffffff16021790555060408201518160020190816131a39190614f90565b5060608201518160030190816131b99190614f90565b5060808201518160040160006101000a81548160ff0219169083600d8111156131e5576131e4614045565b5b021790555060a0820151816005015560c08201518160060160006101000a81548160ff0219169083600281111561321f5761321e614045565b5b021790555060e082015181600701556101008201518160080160006101000a81548160ff0219169083600281111561325a57613259614045565b5b02179055506101208201518160090155905050600260003373ffffffffffffffffffffffffffffffffffffffff1673ffffffffffffffffffffffffffffffffffffffff168152602001908152602001600020829080600181540180825580915050600190039060005260206000200160009091909190915055600760008154809291906132e690614d0d565b919050555061330f6040518060600160405280602b815260200161588c602b9139833384613515565b6133926040518060400160405280601781526020017f2d205469746c652075726c20202020202020203a20257300000000000000000081525088888080601f016020809104026020016040519081016040528093929190818152602001838380828437600081840152601f19601f820116905080830192505050505050506135b7565b6134156040518060400160405280601781526020017f2d204465736372697074696f6e2075726c20203a20257300000000000000000081525086868080601f016020809104026020016040519081016040528093929190818152602001838380828437600081840152601f19601f820116905080830192505050505050506135b7565b3373ffffffffffffffffffffffffffffffffffffffff167f42672180e30fb0e2e6ae998046a0806bf23368de710977e1a63920574c378a1c888888888887604051613465969594939291906154c0565b60405180910390a250505050505050565b61351083838360405160240161348e93929190615550565b6040516020818303038152906040527f0d26b925000000000000000000000000000000000000000000000000000000007bffffffffffffffffffffffffffffffffffffffffffffffffffffffff19166020820180517bffffffffffffffffffffffffffffffffffffffffffffffffffffffff8381831617835250505050613c3a565b505050565b6135b18484848460405160240161352f949392919061558e565b6040516020818303038152906040527f4f04fdc6000000000000000000000000000000000000000000000000000000007bffffffffffffffffffffffffffffffffffffffffffffffffffffffff19166020820180517bffffffffffffffffffffffffffffffffffffffffffffffffffffffff8381831617835250505050613c3a565b50505050565b61364f82826040516024016135cd9291906155da565b6040516020818303038152906040527f4b5c4277000000000000000000000000000000000000000000000000000000007bffffffffffffffffffffffffffffffffffffffffffffffffffffffff19166020820180517bffffffffffffffffffffffffffffffffffffffffffffffffffffffff8381831617835250505050613c3a565b5050565b6136eb8282604051602401613669929190615611565b6040516020818303038152906040527fb60e72cc000000000000000000000000000000000000000000000000000000007bffffffffffffffffffffffffffffffffffffffffffffffffffffffff19166020820180517bffffffffffffffffffffffffffffffffffffffffffffffffffffffff8381831617835250505050613c3a565b5050565b8060010160009054906101000a900460ff1615613741576040517f08c379a00000000000000000000000000000000000000000000000000000000081526004016137389061568d565b60405180910390fd5b6000805b826000018054905081101561392c57600083600301600085600001848154811061377257613771615062565b5b9060005260206000200160009054906101000a900473ffffffffffffffffffffffffffffffffffffffff1673ffffffffffffffffffffffffffffffffffffffff1673ffffffffffffffffffffffffffffffffffffffff16815260200190815260200160002090508060030160069054906101000a900460ff1660018111156137fd576137fc614045565b5b8160030160059054906101000a900460ff16600181111561382157613820614045565b5b8260030160049054906101000a900460ff16600181111561384557613844614045565b5b8360030160039054906101000a900460ff16600181111561386957613868614045565b5b8460030160029054906101000a900460ff16600181111561388d5761388c614045565b5b8560030160019054906101000a900460ff1660018111156138b1576138b0614045565b5b8660030160009054906101000a900460ff1660018111156138d5576138d4614045565b5b6138df91906156ad565b6138e991906156ad565b6138f391906156ad565b6138fd91906156ad565b61390791906156ad565b61391191906156ad565b8361391c91906156ad565b9250508080600101915050613745565b50600082600201546007613940919061532f565b60648361394d919061532f565b6139579190615710565b905061397c604051806060016040528060238152602001615a35602391398583613c54565b605081106139f757600160008086815260200190815260200160002060060160006101000a81548160ff021916908360028111156139bd576139bc614045565b5b0217905550600760008154809291906139d590615741565b9190505550600860008154809291906139ed90614d0d565b9190505550613a4e565b600260008086815260200190815260200160002060060160006101000a81548160ff02191690836002811115613a3057613a2f614045565b5b021790555060076000815480929190613a4890615741565b91905055505b806000808681526020019081526020016000206007018190555060018360010160006101000a81548160ff021916908315150217905550837f1a20d608d2289bdfc4581c5a0722f4636bd21c1610f2485c20a4b20fd1f57a5360008087815260200190815260200160002060060160009054906101000a900460ff1660008088815260200190815260200160002060070154604051613aee929190615779565b60405180910390a250505050565b613b9884848484604051602401613b1694939291906157a2565b6040516020818303038152906040527ff8f51b1e000000000000000000000000000000000000000000000000000000007bffffffffffffffffffffffffffffffffffffffffffffffffffffffff19166020820180517bffffffffffffffffffffffffffffffffffffffffffffffffffffffff8381831617835250505050613c3a565b50505050565b613c368282604051602401613bb49291906157ee565b6040516020818303038152906040527f319af333000000000000000000000000000000000000000000000000000000007bffffffffffffffffffffffffffffffffffffffffffffffffffffffff19166020820180517bffffffffffffffffffffffffffffffffffffffffffffffffffffffff8381831617835250505050613c3a565b5050565b613c5181613c49613cf3613d14565b63ffffffff16565b50565b613cee838383604051602401613c6c9392919061581e565b6040516020818303038152906040527fca47c4eb000000000000000000000000000000000000000000000000000000007bffffffffffffffffffffffffffffffffffffffffffffffffffffffff19166020820180517bffffffffffffffffffffffffffffffffffffffffffffffffffffffff8381831617835250505050613c3a565b505050565b60006a636f6e736f6c652e6c6f679050600080835160208501845afa505050565b613f3f819050919050565b604051806101a00160405280600073ffffffffffffffffffffffffffffffffffffffff168152602001600081526020016000815260200160006001811115613d6a57613d69614045565b5b815260200160006001811115613d8357613d82614045565b5b815260200160006001811115613d9c57613d9b614045565b5b815260200160006001811115613db557613db4614045565b5b815260200160006001811115613dce57613dcd614045565b5b815260200160006001811115613de757613de6614045565b5b815260200160006001811115613e0057613dff614045565b5b815260200160006002811115613e1957613e18614045565b5b81526020016000600d811115613e3257613e31614045565b5b8152602001600081525090565b60405180610140016040528060008152602001600073ffffffffffffffffffffffffffffffffffffffff16815260200160608152602001606081526020016000600d811115613e9157613e90614045565b5b81526020016000815260200160006002811115613eb157613eb0614045565b5b81526020016000815260200160006002811115613ed157613ed0614045565b5b8152602001600081525090565b6040518060e001604052806000815260200160608152602001606081526020016000600d811115613f1257613f11614045565b5b815260200160006003811115613f2b57613f2a614045565b5b815260200160008152602001600081525090565b613f4761585c565b565b600080fd5b600080fd5b6000819050919050565b613f6681613f53565b8114613f7157600080fd5b50565b600081359050613f8381613f5d565b92915050565b600073ffffffffffffffffffffffffffffffffffffffff82169050919050565b6000613fb482613f89565b9050919050565b613fc481613fa9565b8114613fcf57600080fd5b50565b600081359050613fe181613fbb565b92915050565b60008060408385031215613ffe57613ffd613f49565b5b600061400c85828601613f74565b925050602061401d85828601613fd2565b9150509250929050565b61403081613fa9565b82525050565b61403f81613f53565b82525050565b7f4e487b7100000000000000000000000000000000000000000000000000000000600052602160045260246000fd5b6002811061408557614084614045565b5b50565b600081905061409682614074565b919050565b60006140a682614088565b9050919050565b6140b68161409b565b82525050565b600381106140cd576140cc614045565b5b50565b60008190506140de826140bc565b919050565b60006140ee826140d0565b9050919050565b6140fe816140e3565b82525050565b600e811061411557614114614045565b5b50565b600081905061412682614104565b919050565b600061413682614118565b9050919050565b6141468161412b565b82525050565b6101a0820160008201516141636000850182614027565b5060208201516141766020850182614036565b5060408201516141896040850182614036565b50606082015161419c60608501826140ad565b5060808201516141af60808501826140ad565b5060a08201516141c260a08501826140ad565b5060c08201516141d560c08501826140ad565b5060e08201516141e860e08501826140ad565b506101008201516141fd6101008501826140ad565b506101208201516142126101208501826140ad565b506101408201516142276101408501826140f5565b5061016082015161423c61016085018261413d565b50610180820151614251610180850182614036565b50505050565b60006101a08201905061426d600083018461414c565b92915050565b61427c81613f53565b82525050565b60006020820190506142976000830184614273565b92915050565b600080fd5b600080fd5b600080fd5b60008083601f8401126142c2576142c161429d565b5b8235905067ffffffffffffffff8111156142df576142de6142a2565b5b6020830191508360018202830111156142fb576142fa6142a7565b5b9250929050565b600e811061430f57600080fd5b50565b60008135905061432181614302565b92915050565b6003811061433457600080fd5b50565b60008135905061434681614327565b92915050565b6003811061435957600080fd5b50565b60008135905061436b8161434c565b92915050565b60008060008060008060008060008060006101208c8e03121561439757614396613f49565b5b60006143a58e828f01613fd2565b9b505060208c013567ffffffffffffffff8111156143c6576143c5613f4e565b5b6143d28e828f016142ac565b9a509a505060408c013567ffffffffffffffff8111156143f5576143f4613f4e565b5b6144018e828f016142ac565b985098505060606144148e828f01614312565b96505060806144258e828f01613f74565b95505060a06144368e828f01614337565b94505060c06144478e828f01613f74565b93505060e06144588e828f0161435c565b92505061010061446a8e828f01613f74565b9150509295989b509295989b9093969950565b60006020828403121561449357614492613f49565b5b60006144a184828501613fd2565b91505092915050565b600081519050919050565b600082825260208201905092915050565b6000819050602082019050919050565b600081519050919050565b600082825260208201905092915050565b60005b838110156145105780820151818401526020810190506144f5565b60008484015250505050565b6000601f19601f8301169050919050565b6000614538826144d6565b61454281856144e1565b93506145528185602086016144f2565b61455b8161451c565b840191505092915050565b6003811061457757614576614045565b5b50565b600081905061458882614566565b919050565b60006145988261457a565b9050919050565b6145a88161458d565b82525050565b6000610140830160008301516145c76000860182614036565b5060208301516145da6020860182614027565b50604083015184820360408601526145f2828261452d565b9150506060830151848203606086015261460c828261452d565b9150506080830151614621608086018261413d565b5060a083015161463460a0860182614036565b5060c083015161464760c086018261459f565b5060e083015161465a60e0860182614036565b5061010083015161466f6101008601826140f5565b50610120830151614684610120860182614036565b508091505092915050565b600061469b83836145ae565b905092915050565b6000602082019050919050565b60006146bb826144aa565b6146c581856144b5565b9350836020820285016146d7856144c6565b8060005b8581101561471357848403895281516146f4858261468f565b94506146ff836146a3565b925060208a019950506001810190506146db565b50829750879550505050505092915050565b6000602082019050818103600083015261473f81846146b0565b905092915050565b60006020828403121561475d5761475c613f49565b5b600061476b84828501613f74565b91505092915050565b6002811061478157600080fd5b50565b60008135905061479381614774565b92915050565b60008060008060008060008060008060006101608c8e0312156147bf576147be613f49565b5b60006147cd8e828f01613f74565b9b505060206147de8e828f01614784565b9a505060406147ef8e828f01614784565b99505060606148008e828f01614784565b98505060806148118e828f01614784565b97505060a06148228e828f01614784565b96505060c06148338e828f01614784565b95505060e06148448e828f01614784565b9450506101006148568e828f0161435c565b9350506101206148688e828f01614312565b92505061014061487a8e828f01613f74565b9150509295989b509295989b9093969950565b6000610140830160008301516148a66000860182614036565b5060208301516148b96020860182614027565b50604083015184820360408601526148d1828261452d565b915050606083015184820360608601526148eb828261452d565b9150506080830151614900608086018261413d565b5060a083015161491360a0860182614036565b5060c083015161492660c086018261459f565b5060e083015161493960e0860182614036565b5061010083015161494e6101008601826140f5565b50610120830151614963610120860182614036565b508091505092915050565b60006020820190508181036000830152614988818461488d565b905092915050565b60008115159050919050565b6149a581614990565b82525050565b60006020820190506149c0600083018461499c565b92915050565b600080600080606085870312156149e0576149df613f49565b5b60006149ee87828801613f74565b945050602085013567ffffffffffffffff811115614a0f57614a0e613f4e565b5b614a1b878288016142ac565b93509350506040614a2e87828801613fd2565b91505092959194509250565b60008060408385031215614a5157614a50613f49565b5b6000614a5f85828601613fd2565b9250506020614a7085828601613fd2565b9150509250929050565b600081519050919050565b600082825260208201905092915050565b6000819050602082019050919050565b60048110614ab757614ab6614045565b5b50565b6000819050614ac882614aa6565b919050565b6000614ad882614aba565b9050919050565b614ae881614acd565b82525050565b600060e083016000830151614b066000860182614036565b5060208301518482036020860152614b1e828261452d565b91505060408301518482036040860152614b38828261452d565b9150506060830151614b4d606086018261413d565b506080830151614b606080860182614adf565b5060a0830151614b7360a0860182614036565b5060c0830151614b8660c0860182614036565b508091505092915050565b6000614b9d8383614aee565b905092915050565b6000602082019050919050565b6000614bbd82614a7a565b614bc78185614a85565b935083602082028501614bd985614a96565b8060005b85811015614c155784840389528151614bf68582614b91565b9450614c0183614ba5565b925060208a01995050600181019050614bdd565b50829750879550505050505092915050565b60006020820190508181036000830152614c418184614bb2565b905092915050565b600080600080600060608688031215614c6557614c64613f49565b5b600086013567ffffffffffffffff811115614c8357614c82613f4e565b5b614c8f888289016142ac565b9550955050602086013567ffffffffffffffff811115614cb257614cb1613f4e565b5b614cbe888289016142ac565b93509350506040614cd188828901614312565b9150509295509295909350565b7f4e487b7100000000000000000000000000000000000000000000000000000000600052601160045260246000fd5b6000614d1882613f53565b91507fffffffffffffffffffffffffffffffffffffffffffffffffffffffffffffffff8203614d4a57614d49614cde565b5b600182019050919050565b7f4e487b7100000000000000000000000000000000000000000000000000000000600052604160045260246000fd5b7f4e487b7100000000000000000000000000000000000000000000000000000000600052602260045260246000fd5b60006002820490506001821680614dcb57607f821691505b602082108103614dde57614ddd614d84565b5b50919050565b60008190508160005260206000209050919050565b60006020601f8301049050919050565b600082821b905092915050565b600060088302614e467fffffffffffffffffffffffffffffffffffffffffffffffffffffffffffffffff82614e09565b614e508683614e09565b95508019841693508086168417925050509392505050565b6000819050919050565b6000614e8d614e88614e8384613f53565b614e68565b613f53565b9050919050565b6000819050919050565b614ea783614e72565b614ebb614eb382614e94565b848454614e16565b825550505050565b600090565b614ed0614ec3565b614edb818484614e9e565b505050565b5b81811015614eff57614ef4600082614ec8565b600181019050614ee1565b5050565b601f821115614f4457614f1581614de4565b614f1e84614df9565b81016020851015614f2d578190505b614f41614f3985614df9565b830182614ee0565b50505b505050565b600082821c905092915050565b6000614f6760001984600802614f49565b1980831691505092915050565b6000614f808383614f56565b9150826002028217905092915050565b614f99826144d6565b67ffffffffffffffff811115614fb257614fb1614d55565b5b614fbc8254614db3565b614fc7828285614f03565b600060209050601f831160018114614ffa5760008415614fe8578287015190505b614ff28582614f74565b86555061505a565b601f19841661500886614de4565b60005b828110156150305784890151825560018201915060208501945060208101905061500b565b8683101561504d5784890151615049601f891682614f56565b8355505b6001600288020188555050505b505050505050565b7f4e487b7100000000000000000000000000000000000000000000000000000000600052603260045260246000fd5b600082825260208201905092915050565b7f4368616c6c656e676520616c72656164792066696e616c697365640000000000600082015250565b60006150d8601b83615091565b91506150e3826150a2565b602082019050919050565b60006020820190508181036000830152615107816150cb565b9050919050565b7f4d6178206d6f64657261746f7273207265616368656400000000000000000000600082015250565b6000615144601683615091565b915061514f8261510e565b602082019050919050565b6000602082019050818103600083015261517381615137565b9050919050565b7f596f75206861766520616c7265616479206a6f696e656420746869732072657660008201527f69657720706f6f6c2e0000000000000000000000000000000000000000000000602082015250565b60006151d6602983615091565b91506151e18261517a565b604082019050919050565b60006020820190508181036000830152615205816151c9565b9050919050565b7f596f752068617665206e6f74206a6f696e65642074686973207265766965772060008201527f706f6f6c2e000000000000000000000000000000000000000000000000000000602082015250565b6000615268602583615091565b91506152738261520c565b604082019050919050565b600060208201905081810360008301526152978161525b565b9050919050565b6152a781613fa9565b82525050565b60006040820190506152c2600083018561529e565b6152cf6020830184614273565b9392505050565b6152df81614990565b81146152ea57600080fd5b50565b6000815190506152fc816152d6565b92915050565b60006020828403121561531857615317613f49565b5b6000615326848285016152ed565b91505092915050565b600061533a82613f53565b915061534583613f53565b925082820261535381613f53565b9150828204841483151761536a57615369614cde565b5b5092915050565b82818337600083830152505050565b600061538c8385615091565b9350615399838584615371565b6153a28361451c565b840190509392505050565b60006080820190506153c2600083018861529e565b6153cf6020830187614273565b81810360408301526153e2818587615380565b90506153f16060830184614273565b9695505050505050565b60006040820190506154106000830185614273565b61541d6020830184614273565b9392505050565b60008151905061543381613f5d565b92915050565b6004811061544657600080fd5b50565b60008151905061545881615439565b92915050565b60008060006060848603121561547757615476613f49565b5b600061548586828701615424565b935050602061549686828701615449565b92505060406154a786828701615424565b9150509250925092565b6154ba8161412b565b82525050565b600060808201905081810360008301526154db81888a615380565b905081810360208301526154f0818688615380565b90506154ff60408301856154b1565b61550c6060830184614273565b979650505050505050565b6000615522826144d6565b61552c8185615091565b935061553c8185602086016144f2565b6155458161451c565b840191505092915050565b6000606082019050818103600083015261556a8186615517565b9050615579602083018561529e565b6155866040830184614273565b949350505050565b600060808201905081810360008301526155a88187615517565b90506155b76020830186614273565b6155c4604083018561529e565b6155d16060830184614273565b95945050505050565b600060408201905081810360008301526155f48185615517565b905081810360208301526156088184615517565b90509392505050565b6000604082019050818103600083015261562b8185615517565b905061563a6020830184614273565b9392505050565b7f4368616c6c656e676520616c72656164792066696e616c697a65640000000000600082015250565b6000615677601b83615091565b915061568282615641565b602082019050919050565b600060208201905081810360008301526156a68161566a565b9050919050565b60006156b882613f53565b91506156c383613f53565b92508282019050808211156156db576156da614cde565b5b92915050565b7f4e487b7100000000000000000000000000000000000000000000000000000000600052601260045260246000fd5b600061571b82613f53565b915061572683613f53565b925082615736576157356156e1565b5b828204905092915050565b600061574c82613f53565b91506000820361575f5761575e614cde565b5b600182039050919050565b6157738161458d565b82525050565b600060408201905061578e600083018561576a565b61579b6020830184614273565b9392505050565b600060808201905081810360008301526157bc8187615517565b90506157cb602083018661529e565b6157d86040830185614273565b6157e56060830184614273565b95945050505050565b600060408201905081810360008301526158088185615517565b9050615817602083018461529e565b9392505050565b600060608201905081810360008301526158388186615517565b90506158476020830185614273565b6158546040830184614273565b949350505050565b7f4e487b7100000000000000000000000000000000000000000000000000000000600052605160045260246000fdfe4368616c6c656e67652023257320636f6e747269627574656420627920257320617420257320776974683a4d6f64657261746f7220257320757064617465642072657669657720666f72206368616c6c656e67652023257355736572202573206861642066657463686564202573206d6f64657261746564206368616c6c656e676573536d61727420636f6e74726163742025732068616420666574636820257320617070726f766564206368616c6c656e676573557365722025732068616420666574636865642070726576696577206f66206a6f696e6564206368616c6c656e6765734368616c6c656e6765202325732073656564656420627920257320617420257320776974683a5573657220257320686164206665746368656420726576696577206f66206368616c6c656e676520232573536d61727420636f6e7472616374202573206861642066657463682025732070656e64696e67206368616c6c656e67657355736572202573206a6f696e6564206368616c6c656e676520257320617420257355736572202573206861642066657463686564206368616c6c656e676520232573417665726167652073636f726520666f72206368616c6c656e6765202325733a2025735573657220257320686164206665746368656420257320636f6e7472696275746564206368616c6c656e6765734d6f64657261746f72202573206a6f696e65642072657669657720706f6f6c20666f72206368616c6c656e676520232573a2646970667358221220692ee4df557ae453c2ceaa8f13dbd6c49193a2c1ef336ba64ee26dc1cd6c3c5f64736f6c634300081c0033",
  "linkReferences": {},
  "deployedLinkReferences": {}
}