{
  "_format": "hh-sol-artifact-1",
  "contractName": "ChallengeManager",
  "sourceName": "contracts/ChallengeManager.sol",
  "abi": [
    {
      "anonymous": false,
      "inputs": [
        {
          "indexed": true,
          "internalType": "address",
          "name": "contributor",
          "type": "address"
        },
        {
          "indexed": false,
          "internalType": "string",
          "name": "title_url",
          "type": "string"
        },
        {
          "indexed": false,
          "internalType": "string",
          "name": "description_url",
          "type": "string"
        },
        {
          "indexed": false,
          "internalType": "enum ChallengeManager.Domain",
          "name": "category",
          "type": "uint8"
        },
        {
          "indexed": false,
          "internalType": "uint256",
          "name": "contribute_at",
          "type": "uint256"
        }
      ],
      "name": "ChallengeContributed",
      "type": "event"
    },
    {
      "anonymous": false,
      "inputs": [
        {
          "indexed": true,
          "internalType": "uint256",
          "name": "challengeId",
          "type": "uint256"
        },
        {
          "indexed": false,
          "internalType": "enum ChallengeManager.ChallengeStatus",
          "name": "status",
          "type": "uint8"
        },
        {
          "indexed": false,
          "internalType": "uint256",
          "name": "averagePercent",
          "type": "uint256"
        }
      ],
      "name": "ChallengeFinalized",
      "type": "event"
    },
    {
      "anonymous": false,
      "inputs": [
        {
          "indexed": true,
          "internalType": "uint256",
          "name": "challenge_id",
          "type": "uint256"
        },
        {
          "indexed": true,
          "internalType": "address",
          "name": "moderator",
          "type": "address"
        }
      ],
      "name": "ReviewPoolJoined",
      "type": "event"
    },
    {
      "inputs": [],
      "name": "MAX_DIFFICULTY_LEVEL",
      "outputs": [
        {
          "internalType": "uint256",
          "name": "",
          "type": "uint256"
        }
      ],
      "stateMutability": "view",
      "type": "function"
    },
    {
      "inputs": [],
      "name": "MAX_DOMAIN",
      "outputs": [
        {
          "internalType": "uint256",
          "name": "",
          "type": "uint256"
        }
      ],
      "stateMutability": "view",
      "type": "function"
    },
    {
      "inputs": [],
      "name": "NUMBER_OF_QUALITY_FACTORS",
      "outputs": [
        {
          "internalType": "uint256",
          "name": "",
          "type": "uint256"
        }
      ],
      "stateMutability": "view",
      "type": "function"
    },
    {
      "inputs": [],
      "name": "REVIEW_QUORUM",
      "outputs": [
        {
          "internalType": "uint256",
          "name": "",
          "type": "uint256"
        }
      ],
      "stateMutability": "view",
      "type": "function"
    },
    {
      "inputs": [],
      "name": "REVIEW_THRESHOLD",
      "outputs": [
        {
          "internalType": "uint256",
          "name": "",
          "type": "uint256"
        }
      ],
      "stateMutability": "view",
      "type": "function"
    },
    {
      "inputs": [
        {
          "internalType": "string",
          "name": "_title_url",
          "type": "string"
        },
        {
          "internalType": "string",
          "name": "_description_url",
          "type": "string"
        },
        {
          "internalType": "enum ChallengeManager.Domain",
          "name": "_category",
          "type": "uint8"
        },
        {
          "internalType": "uint256",
          "name": "_contribute_at",
          "type": "uint256"
        }
      ],
      "name": "contributeChallenge",
      "outputs": [],
      "stateMutability": "nonpayable",
      "type": "function"
    },
    {
      "inputs": [
        {
          "internalType": "uint256",
          "name": "_challenge_id",
          "type": "uint256"
        }
      ],
      "name": "getChallengeById",
      "outputs": [
        {
          "components": [
            {
              "internalType": "uint256",
              "name": "id",
              "type": "uint256"
            },
            {
              "internalType": "address",
              "name": "contributor",
              "type": "address"
            },
            {
              "internalType": "string",
              "name": "title_url",
              "type": "string"
            },
            {
              "internalType": "string",
              "name": "description_url",
              "type": "string"
            },
            {
              "internalType": "enum ChallengeManager.Domain",
              "name": "category",
              "type": "uint8"
            },
            {
              "internalType": "uint256",
              "name": "contribute_at",
              "type": "uint256"
            },
            {
              "internalType": "enum ChallengeManager.ChallengeStatus",
              "name": "status",
              "type": "uint8"
            },
            {
              "internalType": "uint256",
              "name": "quality_score",
              "type": "uint256"
            },
            {
              "internalType": "enum ChallengeManager.DifficultyLevel",
              "name": "difficulty_level",
              "type": "uint8"
            },
            {
              "internalType": "uint256",
              "name": "solve_time",
              "type": "uint256"
            }
          ],
          "internalType": "struct ChallengeManager.Challenge",
          "name": "",
          "type": "tuple"
        }
      ],
      "stateMutability": "view",
      "type": "function"
    },
    {
      "inputs": [
        {
          "internalType": "uint256",
          "name": "_challenge_id",
          "type": "uint256"
        }
      ],
      "name": "getChallengeFinalizedStatus",
      "outputs": [
        {
          "internalType": "bool",
          "name": "",
          "type": "bool"
        }
      ],
      "stateMutability": "view",
      "type": "function"
    },
    {
      "inputs": [
        {
          "internalType": "address",
          "name": "_contributor_address",
          "type": "address"
        }
      ],
      "name": "getChallengesByContributor",
      "outputs": [
        {
          "components": [
            {
              "internalType": "uint256",
              "name": "id",
              "type": "uint256"
            },
            {
              "internalType": "address",
              "name": "contributor",
              "type": "address"
            },
            {
              "internalType": "string",
              "name": "title_url",
              "type": "string"
            },
            {
              "internalType": "string",
              "name": "description_url",
              "type": "string"
            },
            {
              "internalType": "enum ChallengeManager.Domain",
              "name": "category",
              "type": "uint8"
            },
            {
              "internalType": "uint256",
              "name": "contribute_at",
              "type": "uint256"
            },
            {
              "internalType": "enum ChallengeManager.ChallengeStatus",
              "name": "status",
              "type": "uint8"
            },
            {
              "internalType": "uint256",
              "name": "quality_score",
              "type": "uint256"
            },
            {
              "internalType": "enum ChallengeManager.DifficultyLevel",
              "name": "difficulty_level",
              "type": "uint8"
            },
            {
              "internalType": "uint256",
              "name": "solve_time",
              "type": "uint256"
            }
          ],
          "internalType": "struct ChallengeManager.Challenge[]",
          "name": "",
          "type": "tuple[]"
        }
      ],
      "stateMutability": "view",
      "type": "function"
    },
    {
      "inputs": [
        {
          "internalType": "address",
          "name": "_moderator_address",
          "type": "address"
        }
      ],
      "name": "getChallengesByModerator",
      "outputs": [
        {
          "components": [
            {
              "internalType": "uint256",
              "name": "id",
              "type": "uint256"
            },
            {
              "internalType": "address",
              "name": "contributor",
              "type": "address"
            },
            {
              "internalType": "string",
              "name": "title_url",
              "type": "string"
            },
            {
              "internalType": "string",
              "name": "description_url",
              "type": "string"
            },
            {
              "internalType": "enum ChallengeManager.Domain",
              "name": "category",
              "type": "uint8"
            },
            {
              "internalType": "uint256",
              "name": "contribute_at",
              "type": "uint256"
            },
            {
              "internalType": "enum ChallengeManager.ChallengeStatus",
              "name": "status",
              "type": "uint8"
            },
            {
              "internalType": "uint256",
              "name": "quality_score",
              "type": "uint256"
            },
            {
              "internalType": "enum ChallengeManager.DifficultyLevel",
              "name": "difficulty_level",
              "type": "uint8"
            },
            {
              "internalType": "uint256",
              "name": "solve_time",
              "type": "uint256"
            }
          ],
          "internalType": "struct ChallengeManager.Challenge[]",
          "name": "",
          "type": "tuple[]"
        }
      ],
      "stateMutability": "view",
      "type": "function"
    },
    {
      "inputs": [
        {
          "internalType": "uint256",
          "name": "_challenge_id",
          "type": "uint256"
        },
        {
          "internalType": "address",
          "name": "_moderator_address",
          "type": "address"
        }
      ],
      "name": "getJoinReviewPoolStatus",
      "outputs": [
        {
          "internalType": "bool",
          "name": "",
          "type": "bool"
        }
      ],
      "stateMutability": "view",
      "type": "function"
    },
    {
      "inputs": [
        {
          "internalType": "uint256",
          "name": "challenge_id",
          "type": "uint256"
        },
        {
          "internalType": "address",
          "name": "_moderator_address",
          "type": "address"
        }
      ],
      "name": "getModeratorReviewOfChallenge",
      "outputs": [
        {
          "components": [
            {
              "internalType": "address",
              "name": "moderator",
              "type": "address"
            },
            {
              "internalType": "uint256",
              "name": "challenge_id",
              "type": "uint256"
            },
            {
              "internalType": "uint256",
              "name": "review_time",
              "type": "uint256"
            },
            {
              "internalType": "enum ChallengeManager.QualityFactorAnswer",
              "name": "relevance",
              "type": "uint8"
            },
            {
              "internalType": "enum ChallengeManager.QualityFactorAnswer",
              "name": "technical_correctness",
              "type": "uint8"
            },
            {
              "internalType": "enum ChallengeManager.QualityFactorAnswer",
              "name": "completeness",
              "type": "uint8"
            },
            {
              "internalType": "enum ChallengeManager.QualityFactorAnswer",
              "name": "clarity",
              "type": "uint8"
            },
            {
              "internalType": "enum ChallengeManager.QualityFactorAnswer",
              "name": "originality",
              "type": "uint8"
            },
            {
              "internalType": "enum ChallengeManager.QualityFactorAnswer",
              "name": "unbiased",
              "type": "uint8"
            },
            {
              "internalType": "enum ChallengeManager.QualityFactorAnswer",
              "name": "plagiarism_free",
              "type": "uint8"
            },
            {
              "internalType": "enum ChallengeManager.DifficultyLevel",
              "name": "suggested_difficulty",
              "type": "uint8"
            },
            {
              "internalType": "enum ChallengeManager.Domain",
              "name": "suggested_category",
              "type": "uint8"
            },
            {
              "internalType": "uint256",
              "name": "suggested_solve_time",
              "type": "uint256"
            }
          ],
          "internalType": "struct ChallengeManager.ModeratorReview",
          "name": "",
          "type": "tuple"
        }
      ],
      "stateMutability": "view",
      "type": "function"
    },
    {
      "inputs": [],
      "name": "getPendingChallenges",
      "outputs": [
        {
          "components": [
            {
              "internalType": "uint256",
              "name": "id",
              "type": "uint256"
            },
            {
              "internalType": "address",
              "name": "contributor",
              "type": "address"
            },
            {
              "internalType": "string",
              "name": "title_url",
              "type": "string"
            },
            {
              "internalType": "string",
              "name": "description_url",
              "type": "string"
            },
            {
              "internalType": "enum ChallengeManager.Domain",
              "name": "category",
              "type": "uint8"
            },
            {
              "internalType": "uint256",
              "name": "contribute_at",
              "type": "uint256"
            },
            {
              "internalType": "enum ChallengeManager.ChallengeStatus",
              "name": "status",
              "type": "uint8"
            },
            {
              "internalType": "uint256",
              "name": "quality_score",
              "type": "uint256"
            },
            {
              "internalType": "enum ChallengeManager.DifficultyLevel",
              "name": "difficulty_level",
              "type": "uint8"
            },
            {
              "internalType": "uint256",
              "name": "solve_time",
              "type": "uint256"
            }
          ],
          "internalType": "struct ChallengeManager.Challenge[]",
          "name": "",
          "type": "tuple[]"
        }
      ],
      "stateMutability": "view",
      "type": "function"
    },
    {
      "inputs": [
        {
          "internalType": "uint256",
          "name": "_challenge_id",
          "type": "uint256"
        }
      ],
      "name": "getReviewPoolSize",
      "outputs": [
        {
          "internalType": "uint256",
          "name": "",
          "type": "uint256"
        }
      ],
      "stateMutability": "view",
      "type": "function"
    },
    {
      "inputs": [],
      "name": "getReviewQuorum",
      "outputs": [
        {
          "internalType": "uint256",
          "name": "",
          "type": "uint256"
        }
      ],
      "stateMutability": "pure",
      "type": "function"
    },
    {
      "inputs": [
        {
          "internalType": "uint256",
          "name": "_challenge_id",
          "type": "uint256"
        }
      ],
      "name": "joinReviewPool",
      "outputs": [],
      "stateMutability": "nonpayable",
      "type": "function"
    },
    {
      "inputs": [],
      "name": "pending_challenges",
      "outputs": [
        {
          "internalType": "uint256",
          "name": "",
          "type": "uint256"
        }
      ],
      "stateMutability": "view",
      "type": "function"
    },
    {
      "inputs": [
        {
          "internalType": "uint256",
          "name": "_challenge_id",
          "type": "uint256"
        },
        {
          "internalType": "enum ChallengeManager.QualityFactorAnswer",
          "name": "_relevance",
          "type": "uint8"
        },
        {
          "internalType": "enum ChallengeManager.QualityFactorAnswer",
          "name": "_technical_correctness",
          "type": "uint8"
        },
        {
          "internalType": "enum ChallengeManager.QualityFactorAnswer",
          "name": "_completeness",
          "type": "uint8"
        },
        {
          "internalType": "enum ChallengeManager.QualityFactorAnswer",
          "name": "_clarity",
          "type": "uint8"
        },
        {
          "internalType": "enum ChallengeManager.QualityFactorAnswer",
          "name": "_originality",
          "type": "uint8"
        },
        {
          "internalType": "enum ChallengeManager.QualityFactorAnswer",
          "name": "_unbiased",
          "type": "uint8"
        },
        {
          "internalType": "enum ChallengeManager.QualityFactorAnswer",
          "name": "_plagiarism_free",
          "type": "uint8"
        },
        {
          "internalType": "enum ChallengeManager.DifficultyLevel",
          "name": "_suggested_difficulty",
          "type": "uint8"
        },
        {
          "internalType": "enum ChallengeManager.Domain",
          "name": "_suggested_category",
          "type": "uint8"
        },
        {
          "internalType": "uint256",
          "name": "_suggested_solve_time",
          "type": "uint256"
        }
      ],
      "name": "submitModeratorReview",
      "outputs": [],
      "stateMutability": "nonpayable",
      "type": "function"
    },
    {
      "inputs": [],
      "name": "total_challenges",
      "outputs": [
        {
          "internalType": "uint256",
          "name": "",
          "type": "uint256"
        }
      ],
      "stateMutability": "view",
      "type": "function"
    }
  ],
  "bytecode": "0x608060405260006005556000600655348015601957600080fd5b50614419806100296000396000f3fe608060405234801561001057600080fd5b50600436106101215760003560e01c80636bf8eaf2116100ad578063be21f20c11610071578063be21f20c1461031e578063c80191b81461033c578063e94a78301461036c578063e9d04f711461039c578063f83eb275146103ba57610121565b80636bf8eaf2146102665780638758aabb1461028457806392376e13146102a0578063955b6724146102d0578063a821a067146102ee57610121565b80635057494a116100f45780635057494a146101b05780635a14c944146101e05780635d880de9146101fc5780635d9db5c41461021a578063616e2e561461023657610121565b80630f335603146101265780632b3669961461015657806349a25e6d146101745780634c7b5a8e14610192575b600080fd5b610140600480360381019061013b9190612f60565b6103d8565b60405161014d91906131d0565b60405180910390f35b61015e6106f1565b60405161016b91906131fb565b60405180910390f35b61017c6106f7565b60405161018991906131fb565b60405180910390f35b61019a6106fc565b6040516101a791906131fb565b60405180910390f35b6101ca60048036038101906101c59190613216565b610702565b6040516101d791906134be565b60405180910390f35b6101fa60048036038101906101f591906134e0565b610ae0565b005b610204610df0565b60405161021191906131fb565b60405180910390f35b610234600480360381019061022f9190613597565b610df5565b005b610250600480360381019061024b9190613216565b611279565b60405161025d91906134be565b60405180910390f35b61026e611657565b60405161027b91906131fb565b60405180910390f35b61029e60048036038101906102999190613688565b61165c565b005b6102ba60048036038101906102b591906134e0565b611eb5565b6040516102c7919061385d565b60405180910390f35b6102d8612158565b6040516102e591906131fb565b60405180910390f35b610308600480360381019061030391906134e0565b61215d565b604051610315919061389a565b60405180910390f35b61032661218a565b60405161033391906134be565b60405180910390f35b61035660048036038101906103519190612f60565b61250a565b604051610363919061389a565b60405180910390f35b610386600480360381019061038191906134e0565b612575565b60405161039391906131fb565b60405180910390f35b6103a4612598565b6040516103b191906131fb565b60405180910390f35b6103c261259d565b6040516103cf91906131fb565b60405180910390f35b6103e0612cf9565b6104036040518060600160405280602b81526020016142e4602b913983856125a6565b6001600084815260200190815260200160002060030160008373ffffffffffffffffffffffffffffffffffffffff1673ffffffffffffffffffffffffffffffffffffffff168152602001908152602001600020604051806101a00160405290816000820160009054906101000a900473ffffffffffffffffffffffffffffffffffffffff1673ffffffffffffffffffffffffffffffffffffffff1673ffffffffffffffffffffffffffffffffffffffff16815260200160018201548152602001600282015481526020016003820160009054906101000a900460ff1660018111156104f1576104f0612fbe565b5b600181111561050357610502612fbe565b5b81526020016003820160019054906101000a900460ff16600181111561052c5761052b612fbe565b5b600181111561053e5761053d612fbe565b5b81526020016003820160029054906101000a900460ff16600181111561056757610566612fbe565b5b600181111561057957610578612fbe565b5b81526020016003820160039054906101000a900460ff1660018111156105a2576105a1612fbe565b5b60018111156105b4576105b3612fbe565b5b81526020016003820160049054906101000a900460ff1660018111156105dd576105dc612fbe565b5b60018111156105ef576105ee612fbe565b5b81526020016003820160059054906101000a900460ff16600181111561061857610617612fbe565b5b600181111561062a57610629612fbe565b5b81526020016003820160069054906101000a900460ff16600181111561065357610652612fbe565b5b600181111561066557610664612fbe565b5b81526020016003820160079054906101000a900460ff16600281111561068e5761068d612fbe565b5b60028111156106a05761069f612fbe565b5b81526020016003820160089054906101000a900460ff16600d8111156106c9576106c8612fbe565b5b600d8111156106db576106da612fbe565b5b8152602001600482015481525050905092915050565b60065481565b600e81565b60055481565b60606000600360008473ffffffffffffffffffffffffffffffffffffffff1673ffffffffffffffffffffffffffffffffffffffff16815260200190815260200160002080548060200260200160405190810160405280929190818152602001828054801561078f57602002820191906000526020600020905b81548152602001906001019080831161077b575b505050505090506000815167ffffffffffffffff8111156107b3576107b26138b5565b5b6040519080825280602002602001820160405280156107ec57816020015b6107d9612e19565b8152602001906001900390816107d15790505b50905060005b8251811015610ab157600080848381518110610811576108106138e4565b5b6020026020010151815260200190815260200160002060405180610140016040529081600082015481526020016001820160009054906101000a900473ffffffffffffffffffffffffffffffffffffffff1673ffffffffffffffffffffffffffffffffffffffff1673ffffffffffffffffffffffffffffffffffffffff1681526020016002820180546108a390613942565b80601f01602080910402602001604051908101604052809291908181526020018280546108cf90613942565b801561091c5780601f106108f15761010080835404028352916020019161091c565b820191906000526020600020905b8154815290600101906020018083116108ff57829003601f168201915b5050505050815260200160038201805461093590613942565b80601f016020809104026020016040519081016040528092919081815260200182805461096190613942565b80156109ae5780601f10610983576101008083540402835291602001916109ae565b820191906000526020600020905b81548152906001019060200180831161099157829003601f168201915b505050505081526020016004820160009054906101000a900460ff16600d8111156109dc576109db612fbe565b5b600d8111156109ee576109ed612fbe565b5b8152602001600582015481526020016006820160009054906101000a900460ff166002811115610a2157610a20612fbe565b5b6002811115610a3357610a32612fbe565b5b8152602001600782015481526020016008820160009054906101000a900460ff166002811115610a6657610a65612fbe565b5b6002811115610a7857610a77612fbe565b5b8152602001600982015481525050828281518110610a9957610a986138e4565b5b602002602001018190525080806001019150506107f2565b50610ad66040518060600160405280602b81526020016142b9602b91398584516125a6565b8092505050919050565b806001600082815260200190815260200160002060010160009054906101000a900460ff1615610b45576040517f08c379a0000000000000000000000000000000000000000000000000000000008152600401610b3c906139d0565b60405180910390fd5b6003600160008481526020019081526020016000206000018054905010610ba1576040517f08c379a0000000000000000000000000000000000000000000000000000000008152600401610b9890613a3c565b60405180910390fd5b600015156001600084815260200190815260200160002060040160003373ffffffffffffffffffffffffffffffffffffffff1673ffffffffffffffffffffffffffffffffffffffff16815260200190815260200160002060009054906101000a900460ff16151514610c48576040517f08c379a0000000000000000000000000000000000000000000000000000000008152600401610c3f90613ace565b60405180910390fd5b600360003373ffffffffffffffffffffffffffffffffffffffff1673ffffffffffffffffffffffffffffffffffffffff168152602001908152602001600020829080600181540180825580915050600190039060005260206000200160009091909190915055600060016000848152602001908152602001600020905080600001339080600181540180825580915050600190039060005260206000200160009091909190916101000a81548173ffffffffffffffffffffffffffffffffffffffff021916908373ffffffffffffffffffffffffffffffffffffffff16021790555060018160040160003373ffffffffffffffffffffffffffffffffffffffff1673ffffffffffffffffffffffffffffffffffffffff16815260200190815260200160002060006101000a81548160ff0219169083151502179055503373ffffffffffffffffffffffffffffffffffffffff16837f07fe5c562bb72cc8709dc10987f69acf04ba0d45c871d6c281e32df878063dcd60405160405180910390a3610deb6040518060600160405280603181526020016143b36031913933856125a6565b505050565b600381565b600060056000815480929190610e0a90613b1d565b9190505590506040518061014001604052808281526020013373ffffffffffffffffffffffffffffffffffffffff16815260200188888080601f016020809104026020016040519081016040528093929190818152602001838380828437600081840152601f19601f82011690508083019250505050505050815260200186868080601f016020809104026020016040519081016040528093929190818152602001838380828437600081840152601f19601f82011690508083019250505050505050815260200184600d811115610ee557610ee4612fbe565b5b815260200183815260200160006002811115610f0457610f03612fbe565b5b81526020016000815260200160006002811115610f2457610f23612fbe565b5b815260200160008152506000808381526020019081526020016000206000820151816000015560208201518160010160006101000a81548173ffffffffffffffffffffffffffffffffffffffff021916908373ffffffffffffffffffffffffffffffffffffffff1602179055506040820151816002019081610fa69190613d11565b506060820151816003019081610fbc9190613d11565b5060808201518160040160006101000a81548160ff0219169083600d811115610fe857610fe7612fbe565b5b021790555060a0820151816005015560c08201518160060160006101000a81548160ff0219169083600281111561102257611021612fbe565b5b021790555060e082015181600701556101008201518160080160006101000a81548160ff0219169083600281111561105d5761105c612fbe565b5b02179055506101208201518160090155905050600260003373ffffffffffffffffffffffffffffffffffffffff1673ffffffffffffffffffffffffffffffffffffffff168152602001908152602001600020819080600181540180825580915050600190039060005260206000200160009091909190915055600660008154809291906110e990613b1d565b91905055506111126040518060600160405280602b8152602001614261602b9139823385612645565b6111956040518060400160405280601781526020017f2d205469746c652075726c20202020202020203a20257300000000000000000081525088888080601f016020809104026020016040519081016040528093929190818152602001838380828437600081840152601f19601f820116905080830192505050505050506126e7565b6112186040518060400160405280601781526020017f2d204465736372697074696f6e2075726c20203a20257300000000000000000081525086868080601f016020809104026020016040519081016040528093929190818152602001838380828437600081840152601f19601f820116905080830192505050505050506126e7565b3373ffffffffffffffffffffffffffffffffffffffff167f42672180e30fb0e2e6ae998046a0806bf23368de710977e1a63920574c378a1c88888888888860405161126896959493929190613e2e565b60405180910390a250505050505050565b60606000600260008473ffffffffffffffffffffffffffffffffffffffff1673ffffffffffffffffffffffffffffffffffffffff16815260200190815260200160002080548060200260200160405190810160405280929190818152602001828054801561130657602002820191906000526020600020905b8154815260200190600101908083116112f2575b505050505090506000815167ffffffffffffffff81111561132a576113296138b5565b5b60405190808252806020026020018201604052801561136357816020015b611350612e19565b8152602001906001900390816113485790505b50905060005b825181101561162857600080848381518110611388576113876138e4565b5b6020026020010151815260200190815260200160002060405180610140016040529081600082015481526020016001820160009054906101000a900473ffffffffffffffffffffffffffffffffffffffff1673ffffffffffffffffffffffffffffffffffffffff1673ffffffffffffffffffffffffffffffffffffffff16815260200160028201805461141a90613942565b80601f016020809104026020016040519081016040528092919081815260200182805461144690613942565b80156114935780601f1061146857610100808354040283529160200191611493565b820191906000526020600020905b81548152906001019060200180831161147657829003601f168201915b505050505081526020016003820180546114ac90613942565b80601f01602080910402602001604051908101604052809291908181526020018280546114d890613942565b80156115255780601f106114fa57610100808354040283529160200191611525565b820191906000526020600020905b81548152906001019060200180831161150857829003601f168201915b505050505081526020016004820160009054906101000a900460ff16600d81111561155357611552612fbe565b5b600d81111561156557611564612fbe565b5b8152602001600582015481526020016006820160009054906101000a900460ff16600281111561159857611597612fbe565b5b60028111156115aa576115a9612fbe565b5b8152602001600782015481526020016008820160009054906101000a900460ff1660028111156115dd576115dc612fbe565b5b60028111156115ef576115ee612fbe565b5b81526020016009820154815250508282815181106116105761160f6138e4565b5b60200260200101819052508080600101915050611369565b5061164d6040518060600160405280602d8152602001614386602d91398584516125a6565b8092505050919050565b605081565b8a6001600082815260200190815260200160002060010160009054906101000a900460ff16156116c1576040517f08c379a00000000000000000000000000000000000000000000000000000000081526004016116b8906139d0565b60405180910390fd5b60011515600160008e815260200190815260200160002060040160003373ffffffffffffffffffffffffffffffffffffffff1673ffffffffffffffffffffffffffffffffffffffff16815260200190815260200160002060009054906101000a900460ff16151514611768576040517f08c379a000000000000000000000000000000000000000000000000000000000815260040161175f90613ef7565b60405180910390fd5b6000600160008e8152602001908152602001600020905060008160030160003373ffffffffffffffffffffffffffffffffffffffff1673ffffffffffffffffffffffffffffffffffffffff16815260200190815260200160002060020154036117e6578060020160008154809291906117e090613b1d565b91905055505b604051806101a001604052803373ffffffffffffffffffffffffffffffffffffffff1681526020018e81526020014281526020018d600181111561182d5761182c612fbe565b5b81526020018c600181111561184557611844612fbe565b5b81526020018b600181111561185d5761185c612fbe565b5b81526020018a600181111561187557611874612fbe565b5b815260200189600181111561188d5761188c612fbe565b5b81526020018860018111156118a5576118a4612fbe565b5b81526020018760018111156118bd576118bc612fbe565b5b81526020018660028111156118d5576118d4612fbe565b5b815260200185600d8111156118ed576118ec612fbe565b5b8152602001848152508160030160003373ffffffffffffffffffffffffffffffffffffffff1673ffffffffffffffffffffffffffffffffffffffff16815260200190815260200160002060008201518160000160006101000a81548173ffffffffffffffffffffffffffffffffffffffff021916908373ffffffffffffffffffffffffffffffffffffffff160217905550602082015181600101556040820151816002015560608201518160030160006101000a81548160ff021916908360018111156119bd576119bc612fbe565b5b021790555060808201518160030160016101000a81548160ff021916908360018111156119ed576119ec612fbe565b5b021790555060a08201518160030160026101000a81548160ff02191690836001811115611a1d57611a1c612fbe565b5b021790555060c08201518160030160036101000a81548160ff02191690836001811115611a4d57611a4c612fbe565b5b021790555060e08201518160030160046101000a81548160ff02191690836001811115611a7d57611a7c612fbe565b5b02179055506101008201518160030160056101000a81548160ff02191690836001811115611aae57611aad612fbe565b5b02179055506101208201518160030160066101000a81548160ff02191690836001811115611adf57611ade612fbe565b5b02179055506101408201518160030160076101000a81548160ff02191690836002811115611b1057611b0f612fbe565b5b02179055506101608201518160030160086101000a81548160ff0219169083600d811115611b4157611b40612fbe565b5b02179055506101808201518160040155905050611b776040518060600160405280602d815260200161428c602d9139338f6125a6565b611bc86040518060400160405280600f81526020017f2d2052656c6576616e63653a20257300000000000000000000000000000000008152508d6001811115611bc357611bc2612fbe565b5b612783565b611c196040518060400160405280601b81526020017f2d20546563686e6963616c20636f72726563746e6573733a20257300000000008152508c6001811115611c1457611c13612fbe565b5b612783565b611c6a6040518060400160405280601281526020017f2d20436f6d706c6574656e6573733a20257300000000000000000000000000008152508b6001811115611c6557611c64612fbe565b5b612783565b611cbb6040518060400160405280600d81526020017f2d20436c61726974793a202573000000000000000000000000000000000000008152508a6001811115611cb657611cb5612fbe565b5b612783565b611d0c6040518060400160405280601181526020017f2d204f726967696e616c6974793a202573000000000000000000000000000000815250896001811115611d0757611d06612fbe565b5b612783565b611d5d6040518060400160405280600e81526020017f2d20556e6269617365643a202573000000000000000000000000000000000000815250886001811115611d5857611d57612fbe565b5b612783565b611dae6040518060400160405280601581526020017f2d20506c616769617269736d20667265653a2025730000000000000000000000815250876001811115611da957611da8612fbe565b5b612783565b611dff6040518060400160405280601a81526020017f2d2053756767657374656420646966666963756c74793a202573000000000000815250866002811115611dfa57611df9612fbe565b5b612783565b611e506040518060400160405280601881526020017f2d205375676765737465642063617465676f72793a202573000000000000000081525085600d811115611e4b57611e4a612fbe565b5b612783565b611e8f6040518060400160405280601a81526020017f2d2053756767657374656420736f6c76652074696d653a20257300000000000081525084612783565b6003816002015410611ea657611ea58d8261281f565b5b50505050505050505050505050565b611ebd612e19565b611ee06040518060600160405280602181526020016143426021913933846125a6565b60008083815260200190815260200160002060405180610140016040529081600082015481526020016001820160009054906101000a900473ffffffffffffffffffffffffffffffffffffffff1673ffffffffffffffffffffffffffffffffffffffff1673ffffffffffffffffffffffffffffffffffffffff168152602001600282018054611f6e90613942565b80601f0160208091040260200160405190810160405280929190818152602001828054611f9a90613942565b8015611fe75780601f10611fbc57610100808354040283529160200191611fe7565b820191906000526020600020905b815481529060010190602001808311611fca57829003601f168201915b5050505050815260200160038201805461200090613942565b80601f016020809104026020016040519081016040528092919081815260200182805461202c90613942565b80156120795780601f1061204e57610100808354040283529160200191612079565b820191906000526020600020905b81548152906001019060200180831161205c57829003601f168201915b505050505081526020016004820160009054906101000a900460ff16600d8111156120a7576120a6612fbe565b5b600d8111156120b9576120b8612fbe565b5b8152602001600582015481526020016006820160009054906101000a900460ff1660028111156120ec576120eb612fbe565b5b60028111156120fe576120fd612fbe565b5b8152602001600782015481526020016008820160009054906101000a900460ff16600281111561213157612130612fbe565b5b600281111561214357612142612fbe565b5b81526020016009820154815250509050919050565b600781565b60006001600083815260200190815260200160002060010160009054906101000a900460ff169050919050565b6060600060065467ffffffffffffffff8111156121aa576121a96138b5565b5b6040519080825280602002602001820160405280156121e357816020015b6121d0612e19565b8152602001906001900390816121c85790505b50905060005b6005548110156124de576000600281111561220757612206612fbe565b5b60008083815260200190815260200160002060060160009054906101000a900460ff16600281111561223c5761223b612fbe565b5b036124d15760008082815260200190815260200160002060405180610140016040529081600082015481526020016001820160009054906101000a900473ffffffffffffffffffffffffffffffffffffffff1673ffffffffffffffffffffffffffffffffffffffff1673ffffffffffffffffffffffffffffffffffffffff1681526020016002820180546122cf90613942565b80601f01602080910402602001604051908101604052809291908181526020018280546122fb90613942565b80156123485780601f1061231d57610100808354040283529160200191612348565b820191906000526020600020905b81548152906001019060200180831161232b57829003601f168201915b5050505050815260200160038201805461236190613942565b80601f016020809104026020016040519081016040528092919081815260200182805461238d90613942565b80156123da5780601f106123af576101008083540402835291602001916123da565b820191906000526020600020905b8154815290600101906020018083116123bd57829003601f168201915b505050505081526020016004820160009054906101000a900460ff16600d81111561240857612407612fbe565b5b600d81111561241a57612419612fbe565b5b8152602001600582015481526020016006820160009054906101000a900460ff16600281111561244d5761244c612fbe565b5b600281111561245f5761245e612fbe565b5b8152602001600782015481526020016008820160009054906101000a900460ff16600281111561249257612491612fbe565b5b60028111156124a4576124a3612fbe565b5b81526020016009820154815250508282815181106124c5576124c46138e4565b5b60200260200101819052505b80806001019150506121e9565b5061250360405180606001604052806033815260200161430f603391393383516125a6565b8091505090565b60006001600084815260200190815260200160002060040160008373ffffffffffffffffffffffffffffffffffffffff1673ffffffffffffffffffffffffffffffffffffffff16815260200190815260200160002060009054906101000a900460ff16905092915050565b600060016000838152602001908152602001600020600001805490509050919050565b600381565b60006003905090565b6126408383836040516024016125be93929190613f5f565b6040516020818303038152906040527f0d26b925000000000000000000000000000000000000000000000000000000007bffffffffffffffffffffffffffffffffffffffffffffffffffffffff19166020820180517bffffffffffffffffffffffffffffffffffffffffffffffffffffffff8381831617835250505050612c14565b505050565b6126e18484848460405160240161265f9493929190613f9d565b6040516020818303038152906040527f4f04fdc6000000000000000000000000000000000000000000000000000000007bffffffffffffffffffffffffffffffffffffffffffffffffffffffff19166020820180517bffffffffffffffffffffffffffffffffffffffffffffffffffffffff8381831617835250505050612c14565b50505050565b61277f82826040516024016126fd929190613fe9565b6040516020818303038152906040527f4b5c4277000000000000000000000000000000000000000000000000000000007bffffffffffffffffffffffffffffffffffffffffffffffffffffffff19166020820180517bffffffffffffffffffffffffffffffffffffffffffffffffffffffff8381831617835250505050612c14565b5050565b61281b8282604051602401612799929190614020565b6040516020818303038152906040527fb60e72cc000000000000000000000000000000000000000000000000000000007bffffffffffffffffffffffffffffffffffffffffffffffffffffffff19166020820180517bffffffffffffffffffffffffffffffffffffffffffffffffffffffff8381831617835250505050612c14565b5050565b8060010160009054906101000a900460ff1615612871576040517f08c379a00000000000000000000000000000000000000000000000000000000081526004016128689061409c565b60405180910390fd5b6000805b8260000180549050811015612a5c5760008360030160008560000184815481106128a2576128a16138e4565b5b9060005260206000200160009054906101000a900473ffffffffffffffffffffffffffffffffffffffff1673ffffffffffffffffffffffffffffffffffffffff1673ffffffffffffffffffffffffffffffffffffffff16815260200190815260200160002090508060030160069054906101000a900460ff16600181111561292d5761292c612fbe565b5b8160030160059054906101000a900460ff16600181111561295157612950612fbe565b5b8260030160049054906101000a900460ff16600181111561297557612974612fbe565b5b8360030160039054906101000a900460ff16600181111561299957612998612fbe565b5b8460030160029054906101000a900460ff1660018111156129bd576129bc612fbe565b5b8560030160019054906101000a900460ff1660018111156129e1576129e0612fbe565b5b8660030160009054906101000a900460ff166001811115612a0557612a04612fbe565b5b612a0f91906140bc565b612a1991906140bc565b612a2391906140bc565b612a2d91906140bc565b612a3791906140bc565b612a4191906140bc565b83612a4c91906140bc565b9250508080600101915050612875565b50600082600201546007612a7091906140f0565b606483612a7d91906140f0565b612a879190614161565b9050612aac604051806060016040528060238152602001614363602391398583612c2e565b60508110612b0f57600160008086815260200190815260200160002060060160006101000a81548160ff02191690836002811115612aed57612aec612fbe565b5b021790555060066000815480929190612b0590614192565b9190505550612b66565b600260008086815260200190815260200160002060060160006101000a81548160ff02191690836002811115612b4857612b47612fbe565b5b021790555060066000815480929190612b6090614192565b91905055505b806000808681526020019081526020016000206007018190555060018360010160006101000a81548160ff021916908315150217905550837f1a20d608d2289bdfc4581c5a0722f4636bd21c1610f2485c20a4b20fd1f57a5360008087815260200190815260200160002060060160009054906101000a900460ff1660008088815260200190815260200160002060070154604051612c069291906141ca565b60405180910390a250505050565b612c2b81612c23612ccd612cee565b63ffffffff16565b50565b612cc8838383604051602401612c46939291906141f3565b6040516020818303038152906040527fca47c4eb000000000000000000000000000000000000000000000000000000007bffffffffffffffffffffffffffffffffffffffffffffffffffffffff19166020820180517bffffffffffffffffffffffffffffffffffffffffffffffffffffffff8381831617835250505050612c14565b505050565b60006a636f6e736f6c652e6c6f679050600080835160208501845afa505050565b612eb8819050919050565b604051806101a00160405280600073ffffffffffffffffffffffffffffffffffffffff168152602001600081526020016000815260200160006001811115612d4457612d43612fbe565b5b815260200160006001811115612d5d57612d5c612fbe565b5b815260200160006001811115612d7657612d75612fbe565b5b815260200160006001811115612d8f57612d8e612fbe565b5b815260200160006001811115612da857612da7612fbe565b5b815260200160006001811115612dc157612dc0612fbe565b5b815260200160006001811115612dda57612dd9612fbe565b5b815260200160006002811115612df357612df2612fbe565b5b81526020016000600d811115612e0c57612e0b612fbe565b5b8152602001600081525090565b60405180610140016040528060008152602001600073ffffffffffffffffffffffffffffffffffffffff16815260200160608152602001606081526020016000600d811115612e6b57612e6a612fbe565b5b81526020016000815260200160006002811115612e8b57612e8a612fbe565b5b81526020016000815260200160006002811115612eab57612eaa612fbe565b5b8152602001600081525090565b612ec0614231565b565b600080fd5b600080fd5b6000819050919050565b612edf81612ecc565b8114612eea57600080fd5b50565b600081359050612efc81612ed6565b92915050565b600073ffffffffffffffffffffffffffffffffffffffff82169050919050565b6000612f2d82612f02565b9050919050565b612f3d81612f22565b8114612f4857600080fd5b50565b600081359050612f5a81612f34565b92915050565b60008060408385031215612f7757612f76612ec2565b5b6000612f8585828601612eed565b9250506020612f9685828601612f4b565b9150509250929050565b612fa981612f22565b82525050565b612fb881612ecc565b82525050565b7f4e487b7100000000000000000000000000000000000000000000000000000000600052602160045260246000fd5b60028110612ffe57612ffd612fbe565b5b50565b600081905061300f82612fed565b919050565b600061301f82613001565b9050919050565b61302f81613014565b82525050565b6003811061304657613045612fbe565b5b50565b600081905061305782613035565b919050565b600061306782613049565b9050919050565b6130778161305c565b82525050565b600e811061308e5761308d612fbe565b5b50565b600081905061309f8261307d565b919050565b60006130af82613091565b9050919050565b6130bf816130a4565b82525050565b6101a0820160008201516130dc6000850182612fa0565b5060208201516130ef6020850182612faf565b5060408201516131026040850182612faf565b5060608201516131156060850182613026565b5060808201516131286080850182613026565b5060a082015161313b60a0850182613026565b5060c082015161314e60c0850182613026565b5060e082015161316160e0850182613026565b50610100820151613176610100850182613026565b5061012082015161318b610120850182613026565b506101408201516131a061014085018261306e565b506101608201516131b56101608501826130b6565b506101808201516131ca610180850182612faf565b50505050565b60006101a0820190506131e660008301846130c5565b92915050565b6131f581612ecc565b82525050565b600060208201905061321060008301846131ec565b92915050565b60006020828403121561322c5761322b612ec2565b5b600061323a84828501612f4b565b91505092915050565b600081519050919050565b600082825260208201905092915050565b6000819050602082019050919050565b600081519050919050565b600082825260208201905092915050565b60005b838110156132a957808201518184015260208101905061328e565b60008484015250505050565b6000601f19601f8301169050919050565b60006132d18261326f565b6132db818561327a565b93506132eb81856020860161328b565b6132f4816132b5565b840191505092915050565b600381106133105761330f612fbe565b5b50565b6000819050613321826132ff565b919050565b600061333182613313565b9050919050565b61334181613326565b82525050565b6000610140830160008301516133606000860182612faf565b5060208301516133736020860182612fa0565b506040830151848203604086015261338b82826132c6565b915050606083015184820360608601526133a582826132c6565b91505060808301516133ba60808601826130b6565b5060a08301516133cd60a0860182612faf565b5060c08301516133e060c0860182613338565b5060e08301516133f360e0860182612faf565b5061010083015161340861010086018261306e565b5061012083015161341d610120860182612faf565b508091505092915050565b60006134348383613347565b905092915050565b6000602082019050919050565b600061345482613243565b61345e818561324e565b9350836020820285016134708561325f565b8060005b858110156134ac578484038952815161348d8582613428565b94506134988361343c565b925060208a01995050600181019050613474565b50829750879550505050505092915050565b600060208201905081810360008301526134d88184613449565b905092915050565b6000602082840312156134f6576134f5612ec2565b5b600061350484828501612eed565b91505092915050565b600080fd5b600080fd5b600080fd5b60008083601f8401126135325761353161350d565b5b8235905067ffffffffffffffff81111561354f5761354e613512565b5b60208301915083600182028301111561356b5761356a613517565b5b9250929050565b600e811061357f57600080fd5b50565b60008135905061359181613572565b92915050565b600080600080600080608087890312156135b4576135b3612ec2565b5b600087013567ffffffffffffffff8111156135d2576135d1612ec7565b5b6135de89828a0161351c565b9650965050602087013567ffffffffffffffff81111561360157613600612ec7565b5b61360d89828a0161351c565b9450945050604061362089828a01613582565b925050606061363189828a01612eed565b9150509295509295509295565b6002811061364b57600080fd5b50565b60008135905061365d8161363e565b92915050565b6003811061367057600080fd5b50565b60008135905061368281613663565b92915050565b60008060008060008060008060008060006101608c8e0312156136ae576136ad612ec2565b5b60006136bc8e828f01612eed565b9b505060206136cd8e828f0161364e565b9a505060406136de8e828f0161364e565b99505060606136ef8e828f0161364e565b98505060806137008e828f0161364e565b97505060a06137118e828f0161364e565b96505060c06137228e828f0161364e565b95505060e06137338e828f0161364e565b9450506101006137458e828f01613673565b9350506101206137578e828f01613582565b9250506101406137698e828f01612eed565b9150509295989b509295989b9093969950565b6000610140830160008301516137956000860182612faf565b5060208301516137a86020860182612fa0565b50604083015184820360408601526137c082826132c6565b915050606083015184820360608601526137da82826132c6565b91505060808301516137ef60808601826130b6565b5060a083015161380260a0860182612faf565b5060c083015161381560c0860182613338565b5060e083015161382860e0860182612faf565b5061010083015161383d61010086018261306e565b50610120830151613852610120860182612faf565b508091505092915050565b60006020820190508181036000830152613877818461377c565b905092915050565b60008115159050919050565b6138948161387f565b82525050565b60006020820190506138af600083018461388b565b92915050565b7f4e487b7100000000000000000000000000000000000000000000000000000000600052604160045260246000fd5b7f4e487b7100000000000000000000000000000000000000000000000000000000600052603260045260246000fd5b7f4e487b7100000000000000000000000000000000000000000000000000000000600052602260045260246000fd5b6000600282049050600182168061395a57607f821691505b60208210810361396d5761396c613913565b5b50919050565b600082825260208201905092915050565b7f4368616c6c656e676520616c72656164792066696e616c697365640000000000600082015250565b60006139ba601b83613973565b91506139c582613984565b602082019050919050565b600060208201905081810360008301526139e9816139ad565b9050919050565b7f4d6178206d6f64657261746f7273207265616368656400000000000000000000600082015250565b6000613a26601683613973565b9150613a31826139f0565b602082019050919050565b60006020820190508181036000830152613a5581613a19565b9050919050565b7f596f75206861766520616c7265616479206a6f696e656420746869732072657660008201527f69657720706f6f6c2e0000000000000000000000000000000000000000000000602082015250565b6000613ab8602983613973565b9150613ac382613a5c565b604082019050919050565b60006020820190508181036000830152613ae781613aab565b9050919050565b7f4e487b7100000000000000000000000000000000000000000000000000000000600052601160045260246000fd5b6000613b2882612ecc565b91507fffffffffffffffffffffffffffffffffffffffffffffffffffffffffffffffff8203613b5a57613b59613aee565b5b600182019050919050565b60008190508160005260206000209050919050565b60006020601f8301049050919050565b600082821b905092915050565b600060088302613bc77fffffffffffffffffffffffffffffffffffffffffffffffffffffffffffffffff82613b8a565b613bd18683613b8a565b95508019841693508086168417925050509392505050565b6000819050919050565b6000613c0e613c09613c0484612ecc565b613be9565b612ecc565b9050919050565b6000819050919050565b613c2883613bf3565b613c3c613c3482613c15565b848454613b97565b825550505050565b600090565b613c51613c44565b613c5c818484613c1f565b505050565b5b81811015613c8057613c75600082613c49565b600181019050613c62565b5050565b601f821115613cc557613c9681613b65565b613c9f84613b7a565b81016020851015613cae578190505b613cc2613cba85613b7a565b830182613c61565b50505b505050565b600082821c905092915050565b6000613ce860001984600802613cca565b1980831691505092915050565b6000613d018383613cd7565b9150826002028217905092915050565b613d1a8261326f565b67ffffffffffffffff811115613d3357613d326138b5565b5b613d3d8254613942565b613d48828285613c84565b600060209050601f831160018114613d7b5760008415613d69578287015190505b613d738582613cf5565b865550613ddb565b601f198416613d8986613b65565b60005b82811015613db157848901518255600182019150602085019450602081019050613d8c565b86831015613dce5784890151613dca601f891682613cd7565b8355505b6001600288020188555050505b505050505050565b82818337600083830152505050565b6000613dfe8385613973565b9350613e0b838584613de3565b613e14836132b5565b840190509392505050565b613e28816130a4565b82525050565b60006080820190508181036000830152613e4981888a613df2565b90508181036020830152613e5e818688613df2565b9050613e6d6040830185613e1f565b613e7a60608301846131ec565b979650505050505050565b7f596f752068617665206e6f74206a6f696e65642074686973207265766965772060008201527f706f6f6c2e000000000000000000000000000000000000000000000000000000602082015250565b6000613ee1602583613973565b9150613eec82613e85565b604082019050919050565b60006020820190508181036000830152613f1081613ed4565b9050919050565b6000613f228261326f565b613f2c8185613973565b9350613f3c81856020860161328b565b613f45816132b5565b840191505092915050565b613f5981612f22565b82525050565b60006060820190508181036000830152613f798186613f17565b9050613f886020830185613f50565b613f9560408301846131ec565b949350505050565b60006080820190508181036000830152613fb78187613f17565b9050613fc660208301866131ec565b613fd36040830185613f50565b613fe060608301846131ec565b95945050505050565b600060408201905081810360008301526140038185613f17565b905081810360208301526140178184613f17565b90509392505050565b6000604082019050818103600083015261403a8185613f17565b905061404960208301846131ec565b9392505050565b7f4368616c6c656e676520616c72656164792066696e616c697a65640000000000600082015250565b6000614086601b83613973565b915061409182614050565b602082019050919050565b600060208201905081810360008301526140b581614079565b9050919050565b60006140c782612ecc565b91506140d283612ecc565b92508282019050808211156140ea576140e9613aee565b5b92915050565b60006140fb82612ecc565b915061410683612ecc565b925082820261411481612ecc565b9150828204841483151761412b5761412a613aee565b5b5092915050565b7f4e487b7100000000000000000000000000000000000000000000000000000000600052601260045260246000fd5b600061416c82612ecc565b915061417783612ecc565b92508261418757614186614132565b5b828204905092915050565b600061419d82612ecc565b9150600082036141b0576141af613aee565b5b600182039050919050565b6141c481613326565b82525050565b60006040820190506141df60008301856141bb565b6141ec60208301846131ec565b9392505050565b6000606082019050818103600083015261420d8186613f17565b905061421c60208301856131ec565b61422960408301846131ec565b949350505050565b7f4e487b7100000000000000000000000000000000000000000000000000000000600052605160045260246000fdfe4368616c6c656e67652023257320636f6e747269627574656420627920257320617420257320776974683a4d6f64657261746f7220257320757064617465642072657669657720666f72206368616c6c656e67652023257355736572202573206861642066657463686564202573206d6f64657261746564206368616c6c656e6765735573657220257320686164206665746368656420726576696577206f66206368616c6c656e67652023257355736572202573206861642066657463682025732070656e64696e6720636f6e7472696275746564206368616c6c656e67657355736572202573206861642066657463686564206368616c6c656e676520232573417665726167652073636f726520666f72206368616c6c656e6765202325733a2025735573657220257320686164206665746368656420257320636f6e7472696275746564206368616c6c656e6765734d6f64657261746f72202573206a6f696e65642072657669657720706f6f6c20666f72206368616c6c656e676520232573a2646970667358221220be8c92c98df08a36acf07285dfabd7461e00267203c7f41aa8ea13ce85795c1264736f6c634300081c0033",
  "linkReferences": {},
  "deployedLinkReferences": {}
}