{
  "_format": "hh-sol-artifact-1",
  "contractName": "ChallengeManager",
  "sourceName": "contracts/ChallengeManager.sol",
  "abi": [
    {
      "anonymous": false,
      "inputs": [
        {
          "indexed": true,
          "internalType": "address",
          "name": "contributor",
          "type": "address"
        },
        {
          "indexed": false,
          "internalType": "string",
          "name": "titleUrl",
          "type": "string"
        },
        {
          "indexed": false,
          "internalType": "string",
          "name": "descriptionUrl",
          "type": "string"
        },
        {
          "indexed": false,
          "internalType": "enum ChallengeManager.Domain",
          "name": "category",
          "type": "uint8"
        },
        {
          "indexed": false,
          "internalType": "uint256",
          "name": "contributeAt",
          "type": "uint256"
        }
      ],
      "name": "ChallengeContributed",
      "type": "event"
    },
    {
      "inputs": [
        {
          "internalType": "uint256",
          "name": "",
          "type": "uint256"
        }
      ],
      "name": "challenges",
      "outputs": [
        {
          "internalType": "address",
          "name": "contributor",
          "type": "address"
        },
        {
          "internalType": "string",
          "name": "title_url",
          "type": "string"
        },
        {
          "internalType": "string",
          "name": "description_url",
          "type": "string"
        },
        {
          "internalType": "enum ChallengeManager.Domain",
          "name": "category",
          "type": "uint8"
        },
        {
          "internalType": "uint256",
          "name": "contribute_at",
          "type": "uint256"
        },
        {
          "internalType": "enum ChallengeManager.ChallengeStatus",
          "name": "status",
          "type": "uint8"
        }
      ],
      "stateMutability": "view",
      "type": "function"
    },
    {
      "inputs": [
        {
          "internalType": "string",
          "name": "_title_url",
          "type": "string"
        },
        {
          "internalType": "string",
          "name": "_description_url",
          "type": "string"
        },
        {
          "internalType": "enum ChallengeManager.Domain",
          "name": "_category",
          "type": "uint8"
        },
        {
          "internalType": "uint256",
          "name": "_contribute_at",
          "type": "uint256"
        }
      ],
      "name": "contributeChallenge",
      "outputs": [],
      "stateMutability": "nonpayable",
      "type": "function"
    },
    {
      "inputs": [
        {
          "internalType": "address",
          "name": "",
          "type": "address"
        },
        {
          "internalType": "uint256",
          "name": "",
          "type": "uint256"
        }
      ],
      "name": "contributor_to_challenges",
      "outputs": [
        {
          "internalType": "uint256",
          "name": "",
          "type": "uint256"
        }
      ],
      "stateMutability": "view",
      "type": "function"
    },
    {
      "inputs": [
        {
          "internalType": "address",
          "name": "_contributor_address",
          "type": "address"
        }
      ],
      "name": "getChallengesByContributor",
      "outputs": [
        {
          "components": [
            {
              "internalType": "address",
              "name": "contributor",
              "type": "address"
            },
            {
              "internalType": "string",
              "name": "title_url",
              "type": "string"
            },
            {
              "internalType": "string",
              "name": "description_url",
              "type": "string"
            },
            {
              "internalType": "enum ChallengeManager.Domain",
              "name": "category",
              "type": "uint8"
            },
            {
              "internalType": "uint256",
              "name": "contribute_at",
              "type": "uint256"
            },
            {
              "internalType": "enum ChallengeManager.ChallengeStatus",
              "name": "status",
              "type": "uint8"
            }
          ],
          "internalType": "struct ChallengeManager.Challenge[]",
          "name": "",
          "type": "tuple[]"
        }
      ],
      "stateMutability": "view",
      "type": "function"
    },
    {
      "inputs": [],
      "name": "getPendingChallenges",
      "outputs": [
        {
          "components": [
            {
              "internalType": "address",
              "name": "contributor",
              "type": "address"
            },
            {
              "internalType": "string",
              "name": "title_url",
              "type": "string"
            },
            {
              "internalType": "string",
              "name": "description_url",
              "type": "string"
            },
            {
              "internalType": "enum ChallengeManager.Domain",
              "name": "category",
              "type": "uint8"
            },
            {
              "internalType": "uint256",
              "name": "contribute_at",
              "type": "uint256"
            },
            {
              "internalType": "enum ChallengeManager.ChallengeStatus",
              "name": "status",
              "type": "uint8"
            }
          ],
          "internalType": "struct ChallengeManager.Challenge[]",
          "name": "",
          "type": "tuple[]"
        }
      ],
      "stateMutability": "view",
      "type": "function"
    },
    {
      "inputs": [
        {
          "internalType": "uint256",
          "name": "_challenge_id",
          "type": "uint256"
        }
      ],
      "name": "joinReviewPool",
      "outputs": [],
      "stateMutability": "nonpayable",
      "type": "function"
    },
    {
      "inputs": [
        {
          "internalType": "address",
          "name": "",
          "type": "address"
        },
        {
          "internalType": "uint256",
          "name": "",
          "type": "uint256"
        }
      ],
      "name": "moderator_to_review_pools",
      "outputs": [
        {
          "internalType": "uint256",
          "name": "",
          "type": "uint256"
        }
      ],
      "stateMutability": "view",
      "type": "function"
    },
    {
      "inputs": [],
      "name": "pass_threshold",
      "outputs": [
        {
          "internalType": "uint256",
          "name": "",
          "type": "uint256"
        }
      ],
      "stateMutability": "view",
      "type": "function"
    },
    {
      "inputs": [],
      "name": "pending_challenges",
      "outputs": [
        {
          "internalType": "uint256",
          "name": "",
          "type": "uint256"
        }
      ],
      "stateMutability": "view",
      "type": "function"
    },
    {
      "inputs": [],
      "name": "quorum",
      "outputs": [
        {
          "internalType": "uint256",
          "name": "",
          "type": "uint256"
        }
      ],
      "stateMutability": "view",
      "type": "function"
    },
    {
      "inputs": [
        {
          "internalType": "uint256",
          "name": "",
          "type": "uint256"
        }
      ],
      "name": "review_pool",
      "outputs": [
        {
          "internalType": "uint256",
          "name": "total_review",
          "type": "uint256"
        }
      ],
      "stateMutability": "view",
      "type": "function"
    },
    {
      "inputs": [],
      "name": "total_challenges",
      "outputs": [
        {
          "internalType": "uint256",
          "name": "",
          "type": "uint256"
        }
      ],
      "stateMutability": "view",
      "type": "function"
    }
  ],
  "bytecode": "0x60806040526000600455600060055560036006556050600755348015602357600080fd5b50611f18806100336000396000f3fe608060405234801561001057600080fd5b50600436106100b45760003560e01c80635a14c944116100715780635a14c944146101915780635d9db5c4146101ad578063616e2e56146101c95780637edb7559146101f95780638f1d377614610229578063be21f20c1461025e576100b4565b80631703a018146100b9578063232dd5ab146100d757806324b445aa146100f55780632b366996146101255780632f67b790146101435780634c7b5a8e14610173575b600080fd5b6100c161027c565b6040516100ce91906112e0565b60405180910390f35b6100df610282565b6040516100ec91906112e0565b60405180910390f35b61010f600480360381019061010a919061138f565b610288565b60405161011c91906112e0565b60405180910390f35b61012d6102b9565b60405161013a91906112e0565b60405180910390f35b61015d600480360381019061015891906113cf565b6102bf565b60405161016a91906112e0565b60405180910390f35b61017b6102dd565b60405161018891906112e0565b60405180910390f35b6101ab60048036038101906101a691906113cf565b6102e3565b005b6101c760048036038101906101c29190611486565b6103c3565b005b6101e360048036038101906101de919061152d565b6107c9565b6040516101f09190611819565b60405180910390f35b610213600480360381019061020e919061138f565b610b4d565b60405161022091906112e0565b60405180910390f35b610243600480360381019061023e91906113cf565b610b7e565b604051610255969594939291906118b2565b60405180910390f35b610266610d04565b6040516102739190611819565b60405180910390f35b60065481565b60075481565b600260205281600052604060002081815481106102a457600080fd5b90600052602060002001600091509150505481565b60055481565b60016020528060005260406000206000915090508060010154905081565b60045481565b60016000828152602001908152602001600020600001339080600181540180825580915050600190039060005260206000200160009091909190916101000a81548173ffffffffffffffffffffffffffffffffffffffff021916908373ffffffffffffffffffffffffffffffffffffffff160217905550600360003373ffffffffffffffffffffffffffffffffffffffff1673ffffffffffffffffffffffffffffffffffffffff16815260200190815260200160002081908060018154018082558091505060019003906000526020600020016000909190919091505550565b6000600460008154809291906103d890611950565b9190505590506040518060c001604052803373ffffffffffffffffffffffffffffffffffffffff16815260200188888080601f016020809104026020016040519081016040528093929190818152602001838380828437600081840152601f19601f82011690508083019250505050505050815260200186868080601f016020809104026020016040519081016040528093929190818152602001838380828437600081840152601f19601f82011690508083019250505050505050815260200184600d8111156104ac576104ab611625565b5b8152602001838152602001600060028111156104cb576104ca611625565b5b81525060008083815260200190815260200160002060008201518160000160006101000a81548173ffffffffffffffffffffffffffffffffffffffff021916908373ffffffffffffffffffffffffffffffffffffffff160217905550602082015181600101908161053c9190611bd3565b5060408201518160020190816105529190611bd3565b5060608201518160030160006101000a81548160ff0219169083600d81111561057e5761057d611625565b5b02179055506080820151816004015560a08201518160050160006101000a81548160ff021916908360028111156105b8576105b7611625565b5b0217905550905050600260003373ffffffffffffffffffffffffffffffffffffffff1673ffffffffffffffffffffffffffffffffffffffff1681526020019081526020016000208190806001815401808255809150506001900390600052602060002001600090919091909150556005600081548092919061063990611950565b91905055506106626040518060600160405280602b8152602001611e58602b913982338561102a565b6106e56040518060400160405280601781526020017f2d205469746c652075726c20202020202020203a20257300000000000000000081525088888080601f016020809104026020016040519081016040528093929190818152602001838380828437600081840152601f19601f820116905080830192505050505050506110cc565b6107686040518060400160405280601781526020017f2d204465736372697074696f6e2075726c20203a20257300000000000000000081525086868080601f016020809104026020016040519081016040528093929190818152602001838380828437600081840152601f19601f820116905080830192505050505050506110cc565b3373ffffffffffffffffffffffffffffffffffffffff167f42672180e30fb0e2e6ae998046a0806bf23368de710977e1a63920574c378a1c8888888888886040516107b896959493929190611ce1565b60405180910390a250505050505050565b60606000600260008473ffffffffffffffffffffffffffffffffffffffff1673ffffffffffffffffffffffffffffffffffffffff16815260200190815260200160002080548060200260200160405190810160405280929190818152602001828054801561085657602002820191906000526020600020905b815481526020019060010190808311610842575b505050505090506000815167ffffffffffffffff81111561087a57610879611998565b5b6040519080825280602002602001820160405280156108b357816020015b6108a061124d565b8152602001906001900390816108985790505b50905060005b8251811015610b1e576000808483815181106108d8576108d7611d38565b5b602002602001015181526020019081526020016000206040518060c00160405290816000820160009054906101000a900473ffffffffffffffffffffffffffffffffffffffff1673ffffffffffffffffffffffffffffffffffffffff1673ffffffffffffffffffffffffffffffffffffffff16815260200160018201805461095f906119f6565b80601f016020809104026020016040519081016040528092919081815260200182805461098b906119f6565b80156109d85780601f106109ad576101008083540402835291602001916109d8565b820191906000526020600020905b8154815290600101906020018083116109bb57829003601f168201915b505050505081526020016002820180546109f1906119f6565b80601f0160208091040260200160405190810160405280929190818152602001828054610a1d906119f6565b8015610a6a5780601f10610a3f57610100808354040283529160200191610a6a565b820191906000526020600020905b815481529060010190602001808311610a4d57829003601f168201915b505050505081526020016003820160009054906101000a900460ff16600d811115610a9857610a97611625565b5b600d811115610aaa57610aa9611625565b5b8152602001600482015481526020016005820160009054906101000a900460ff166002811115610add57610adc611625565b5b6002811115610aef57610aee611625565b5b81525050828281518110610b0657610b05611d38565b5b602002602001018190525080806001019150506108b9565b50610b436040518060600160405280602d8152602001611eb6602d9139858451611168565b8092505050919050565b60036020528160005260406000208181548110610b6957600080fd5b90600052602060002001600091509150505481565b60006020528060005260406000206000915090508060000160009054906101000a900473ffffffffffffffffffffffffffffffffffffffff1690806001018054610bc7906119f6565b80601f0160208091040260200160405190810160405280929190818152602001828054610bf3906119f6565b8015610c405780601f10610c1557610100808354040283529160200191610c40565b820191906000526020600020905b815481529060010190602001808311610c2357829003601f168201915b505050505090806002018054610c55906119f6565b80601f0160208091040260200160405190810160405280929190818152602001828054610c81906119f6565b8015610cce5780601f10610ca357610100808354040283529160200191610cce565b820191906000526020600020905b815481529060010190602001808311610cb157829003601f168201915b5050505050908060030160009054906101000a900460ff16908060040154908060050160009054906101000a900460ff16905086565b6060600060055467ffffffffffffffff811115610d2457610d23611998565b5b604051908082528060200260200182016040528015610d5d57816020015b610d4a61124d565b815260200190600190039081610d425790505b50905060005b600454811015610ffe5760006002811115610d8157610d80611625565b5b60008083815260200190815260200160002060050160009054906101000a900460ff166002811115610db657610db5611625565b5b03610ff1576000808281526020019081526020016000206040518060c00160405290816000820160009054906101000a900473ffffffffffffffffffffffffffffffffffffffff1673ffffffffffffffffffffffffffffffffffffffff1673ffffffffffffffffffffffffffffffffffffffff168152602001600182018054610e3e906119f6565b80601f0160208091040260200160405190810160405280929190818152602001828054610e6a906119f6565b8015610eb75780601f10610e8c57610100808354040283529160200191610eb7565b820191906000526020600020905b815481529060010190602001808311610e9a57829003601f168201915b50505050508152602001600282018054610ed0906119f6565b80601f0160208091040260200160405190810160405280929190818152602001828054610efc906119f6565b8015610f495780601f10610f1e57610100808354040283529160200191610f49565b820191906000526020600020905b815481529060010190602001808311610f2c57829003601f168201915b505050505081526020016003820160009054906101000a900460ff16600d811115610f7757610f76611625565b5b600d811115610f8957610f88611625565b5b8152602001600482015481526020016005820160009054906101000a900460ff166002811115610fbc57610fbb611625565b5b6002811115610fce57610fcd611625565b5b81525050828281518110610fe557610fe4611d38565b5b60200260200101819052505b8080600101915050610d63565b50611023604051806060016040528060338152602001611e8360339139338351611168565b8091505090565b6110c6848484846040516024016110449493929190611d67565b6040516020818303038152906040527f4f04fdc6000000000000000000000000000000000000000000000000000000007bffffffffffffffffffffffffffffffffffffffffffffffffffffffff19166020820180517bffffffffffffffffffffffffffffffffffffffffffffffffffffffff8381831617835250505050611207565b50505050565b61116482826040516024016110e2929190611db3565b6040516020818303038152906040527f4b5c4277000000000000000000000000000000000000000000000000000000007bffffffffffffffffffffffffffffffffffffffffffffffffffffffff19166020820180517bffffffffffffffffffffffffffffffffffffffffffffffffffffffff8381831617835250505050611207565b5050565b61120283838360405160240161118093929190611dea565b6040516020818303038152906040527f0d26b925000000000000000000000000000000000000000000000000000000007bffffffffffffffffffffffffffffffffffffffffffffffffffffffff19166020820180517bffffffffffffffffffffffffffffffffffffffffffffffffffffffff8381831617835250505050611207565b505050565b61121e81611216611221611242565b63ffffffff16565b50565b60006a636f6e736f6c652e6c6f679050600080835160208501845afa505050565b6112bd819050919050565b6040518060c00160405280600073ffffffffffffffffffffffffffffffffffffffff16815260200160608152602001606081526020016000600d81111561129757611296611625565b5b815260200160008152602001600060028111156112b7576112b6611625565b5b81525090565b6112c5611e28565b565b6000819050919050565b6112da816112c7565b82525050565b60006020820190506112f560008301846112d1565b92915050565b600080fd5b600080fd5b600073ffffffffffffffffffffffffffffffffffffffff82169050919050565b600061133082611305565b9050919050565b61134081611325565b811461134b57600080fd5b50565b60008135905061135d81611337565b92915050565b61136c816112c7565b811461137757600080fd5b50565b60008135905061138981611363565b92915050565b600080604083850312156113a6576113a56112fb565b5b60006113b48582860161134e565b92505060206113c58582860161137a565b9150509250929050565b6000602082840312156113e5576113e46112fb565b5b60006113f38482850161137a565b91505092915050565b600080fd5b600080fd5b600080fd5b60008083601f840112611421576114206113fc565b5b8235905067ffffffffffffffff81111561143e5761143d611401565b5b60208301915083600182028301111561145a57611459611406565b5b9250929050565b600e811061146e57600080fd5b50565b60008135905061148081611461565b92915050565b600080600080600080608087890312156114a3576114a26112fb565b5b600087013567ffffffffffffffff8111156114c1576114c0611300565b5b6114cd89828a0161140b565b9650965050602087013567ffffffffffffffff8111156114f0576114ef611300565b5b6114fc89828a0161140b565b9450945050604061150f89828a01611471565b925050606061152089828a0161137a565b9150509295509295509295565b600060208284031215611543576115426112fb565b5b60006115518482850161134e565b91505092915050565b600081519050919050565b600082825260208201905092915050565b6000819050602082019050919050565b61158f81611325565b82525050565b600081519050919050565b600082825260208201905092915050565b60005b838110156115cf5780820151818401526020810190506115b4565b60008484015250505050565b6000601f19601f8301169050919050565b60006115f782611595565b61160181856115a0565b93506116118185602086016115b1565b61161a816115db565b840191505092915050565b7f4e487b7100000000000000000000000000000000000000000000000000000000600052602160045260246000fd5b600e811061166557611664611625565b5b50565b600081905061167682611654565b919050565b600061168682611668565b9050919050565b6116968161167b565b82525050565b6116a5816112c7565b82525050565b600381106116bc576116bb611625565b5b50565b60008190506116cd826116ab565b919050565b60006116dd826116bf565b9050919050565b6116ed816116d2565b82525050565b600060c08301600083015161170b6000860182611586565b506020830151848203602086015261172382826115ec565b9150506040830151848203604086015261173d82826115ec565b9150506060830151611752606086018261168d565b506080830151611765608086018261169c565b5060a083015161177860a08601826116e4565b508091505092915050565b600061178f83836116f3565b905092915050565b6000602082019050919050565b60006117af8261155a565b6117b98185611565565b9350836020820285016117cb85611576565b8060005b8581101561180757848403895281516117e88582611783565b94506117f383611797565b925060208a019950506001810190506117cf565b50829750879550505050505092915050565b6000602082019050818103600083015261183381846117a4565b905092915050565b61184481611325565b82525050565b600082825260208201905092915050565b600061186682611595565b611870818561184a565b93506118808185602086016115b1565b611889816115db565b840191505092915050565b61189d8161167b565b82525050565b6118ac816116d2565b82525050565b600060c0820190506118c7600083018961183b565b81810360208301526118d9818861185b565b905081810360408301526118ed818761185b565b90506118fc6060830186611894565b61190960808301856112d1565b61191660a08301846118a3565b979650505050505050565b7f4e487b7100000000000000000000000000000000000000000000000000000000600052601160045260246000fd5b600061195b826112c7565b91507fffffffffffffffffffffffffffffffffffffffffffffffffffffffffffffffff820361198d5761198c611921565b5b600182019050919050565b7f4e487b7100000000000000000000000000000000000000000000000000000000600052604160045260246000fd5b7f4e487b7100000000000000000000000000000000000000000000000000000000600052602260045260246000fd5b60006002820490506001821680611a0e57607f821691505b602082108103611a2157611a206119c7565b5b50919050565b60008190508160005260206000209050919050565b60006020601f8301049050919050565b600082821b905092915050565b600060088302611a897fffffffffffffffffffffffffffffffffffffffffffffffffffffffffffffffff82611a4c565b611a938683611a4c565b95508019841693508086168417925050509392505050565b6000819050919050565b6000611ad0611acb611ac6846112c7565b611aab565b6112c7565b9050919050565b6000819050919050565b611aea83611ab5565b611afe611af682611ad7565b848454611a59565b825550505050565b600090565b611b13611b06565b611b1e818484611ae1565b505050565b5b81811015611b4257611b37600082611b0b565b600181019050611b24565b5050565b601f821115611b8757611b5881611a27565b611b6184611a3c565b81016020851015611b70578190505b611b84611b7c85611a3c565b830182611b23565b50505b505050565b600082821c905092915050565b6000611baa60001984600802611b8c565b1980831691505092915050565b6000611bc38383611b99565b9150826002028217905092915050565b611bdc82611595565b67ffffffffffffffff811115611bf557611bf4611998565b5b611bff82546119f6565b611c0a828285611b46565b600060209050601f831160018114611c3d5760008415611c2b578287015190505b611c358582611bb7565b865550611c9d565b601f198416611c4b86611a27565b60005b82811015611c7357848901518255600182019150602085019450602081019050611c4e565b86831015611c905784890151611c8c601f891682611b99565b8355505b6001600288020188555050505b505050505050565b82818337600083830152505050565b6000611cc0838561184a565b9350611ccd838584611ca5565b611cd6836115db565b840190509392505050565b60006080820190508181036000830152611cfc81888a611cb4565b90508181036020830152611d11818688611cb4565b9050611d206040830185611894565b611d2d60608301846112d1565b979650505050505050565b7f4e487b7100000000000000000000000000000000000000000000000000000000600052603260045260246000fd5b60006080820190508181036000830152611d81818761185b565b9050611d9060208301866112d1565b611d9d604083018561183b565b611daa60608301846112d1565b95945050505050565b60006040820190508181036000830152611dcd818561185b565b90508181036020830152611de1818461185b565b90509392505050565b60006060820190508181036000830152611e04818661185b565b9050611e13602083018561183b565b611e2060408301846112d1565b949350505050565b7f4e487b7100000000000000000000000000000000000000000000000000000000600052605160045260246000fdfe4368616c6c656e67652023257320636f6e747269627574656420627920257320617420257320776974683a55736572202573206861642066657463682025732070656e64696e6720636f6e7472696275746564206368616c6c656e6765735573657220257320686164206665746368656420257320636f6e7472696275746564206368616c6c656e676573a2646970667358221220aaca2cb4010fb56f46f9a8f0b769c307ba64a87764f001095c4624257986da7d64736f6c634300081c0033",
  "linkReferences": {},
  "deployedLinkReferences": {}
}