{
  "_format": "hh-sol-artifact-1",
  "contractName": "ChallengeManager",
  "sourceName": "contracts/ChallengeManager.sol",
  "abi": [
    {
      "inputs": [],
      "stateMutability": "nonpayable",
      "type": "constructor"
    },
    {
      "inputs": [],
      "name": "AccessControlBadConfirmation",
      "type": "error"
    },
    {
      "inputs": [
        {
          "internalType": "address",
          "name": "account",
          "type": "address"
        },
        {
          "internalType": "bytes32",
          "name": "neededRole",
          "type": "bytes32"
        }
      ],
      "name": "AccessControlUnauthorizedAccount",
      "type": "error"
    },
    {
      "anonymous": false,
      "inputs": [
        {
          "indexed": true,
          "internalType": "bytes32",
          "name": "id",
          "type": "bytes32"
        },
        {
          "indexed": false,
          "internalType": "enum SystemEnums.Domain",
          "name": "category",
          "type": "uint8"
        },
        {
          "indexed": false,
          "internalType": "uint256",
          "name": "contributed_at",
          "type": "uint256"
        }
      ],
      "name": "ChallengeContributed",
      "type": "event"
    },
    {
      "anonymous": false,
      "inputs": [
        {
          "indexed": true,
          "internalType": "address",
          "name": "contributor",
          "type": "address"
        },
        {
          "indexed": true,
          "internalType": "string",
          "name": "txid",
          "type": "string"
        },
        {
          "indexed": false,
          "internalType": "uint256",
          "name": "created_at",
          "type": "uint256"
        }
      ],
      "name": "ChallengeCreated",
      "type": "event"
    },
    {
      "anonymous": false,
      "inputs": [
        {
          "indexed": true,
          "internalType": "bytes32",
          "name": "challengeId",
          "type": "bytes32"
        },
        {
          "indexed": false,
          "internalType": "enum SystemEnums.ChallengeStatus",
          "name": "status",
          "type": "uint8"
        },
        {
          "indexed": false,
          "internalType": "uint256",
          "name": "averagePercent",
          "type": "uint256"
        }
      ],
      "name": "ChallengeFinalized",
      "type": "event"
    },
    {
      "anonymous": false,
      "inputs": [
        {
          "indexed": true,
          "internalType": "address",
          "name": "user",
          "type": "address"
        },
        {
          "indexed": false,
          "internalType": "bytes32",
          "name": "challengeId",
          "type": "bytes32"
        },
        {
          "indexed": false,
          "internalType": "uint256",
          "name": "joinedAt",
          "type": "uint256"
        }
      ],
      "name": "ChallengeJoinedByUser",
      "type": "event"
    },
    {
      "anonymous": false,
      "inputs": [
        {
          "indexed": true,
          "internalType": "bytes32",
          "name": "challenge_id",
          "type": "bytes32"
        },
        {
          "indexed": true,
          "internalType": "address",
          "name": "moderator",
          "type": "address"
        }
      ],
      "name": "ReviewPoolJoined",
      "type": "event"
    },
    {
      "anonymous": false,
      "inputs": [
        {
          "indexed": true,
          "internalType": "bytes32",
          "name": "role",
          "type": "bytes32"
        },
        {
          "indexed": true,
          "internalType": "bytes32",
          "name": "previousAdminRole",
          "type": "bytes32"
        },
        {
          "indexed": true,
          "internalType": "bytes32",
          "name": "newAdminRole",
          "type": "bytes32"
        }
      ],
      "name": "RoleAdminChanged",
      "type": "event"
    },
    {
      "anonymous": false,
      "inputs": [
        {
          "indexed": true,
          "internalType": "bytes32",
          "name": "role",
          "type": "bytes32"
        },
        {
          "indexed": true,
          "internalType": "address",
          "name": "account",
          "type": "address"
        },
        {
          "indexed": true,
          "internalType": "address",
          "name": "sender",
          "type": "address"
        }
      ],
      "name": "RoleGranted",
      "type": "event"
    },
    {
      "anonymous": false,
      "inputs": [
        {
          "indexed": true,
          "internalType": "bytes32",
          "name": "role",
          "type": "bytes32"
        },
        {
          "indexed": true,
          "internalType": "address",
          "name": "account",
          "type": "address"
        },
        {
          "indexed": true,
          "internalType": "address",
          "name": "sender",
          "type": "address"
        }
      ],
      "name": "RoleRevoked",
      "type": "event"
    },
    {
      "inputs": [],
      "name": "DEFAULT_ADMIN_ROLE",
      "outputs": [
        {
          "internalType": "bytes32",
          "name": "",
          "type": "bytes32"
        }
      ],
      "stateMutability": "view",
      "type": "function"
    },
    {
      "inputs": [
        {
          "internalType": "bytes32",
          "name": "id",
          "type": "bytes32"
        },
        {
          "internalType": "enum SystemEnums.Domain",
          "name": "_category",
          "type": "uint8"
        }
      ],
      "name": "contributeChallenge",
      "outputs": [],
      "stateMutability": "payable",
      "type": "function"
    },
    {
      "inputs": [
        {
          "internalType": "string",
          "name": "_challenge_txid",
          "type": "string"
        }
      ],
      "name": "createChallenge",
      "outputs": [
        {
          "internalType": "bytes32",
          "name": "id",
          "type": "bytes32"
        }
      ],
      "stateMutability": "nonpayable",
      "type": "function"
    },
    {
      "inputs": [],
      "name": "getApprovedChallenges",
      "outputs": [
        {
          "components": [
            {
              "internalType": "bytes32",
              "name": "id",
              "type": "bytes32"
            },
            {
              "internalType": "address",
              "name": "contributor",
              "type": "address"
            },
            {
              "internalType": "string",
              "name": "txid",
              "type": "string"
            },
            {
              "internalType": "enum SystemEnums.Domain",
              "name": "category",
              "type": "uint8"
            },
            {
              "internalType": "uint256",
              "name": "contributed_at",
              "type": "uint256"
            },
            {
              "internalType": "uint256",
              "name": "participants",
              "type": "uint256"
            },
            {
              "internalType": "uint256",
              "name": "quality_score",
              "type": "uint256"
            },
            {
              "internalType": "enum SystemEnums.DifficultyLevel",
              "name": "difficulty_level",
              "type": "uint8"
            },
            {
              "internalType": "uint256",
              "name": "solve_time",
              "type": "uint256"
            },
            {
              "internalType": "enum SystemEnums.ChallengeStatus",
              "name": "status",
              "type": "uint8"
            }
          ],
          "internalType": "struct ChallengeManager.Challenge[]",
          "name": "",
          "type": "tuple[]"
        }
      ],
      "stateMutability": "view",
      "type": "function"
    },
    {
      "inputs": [
        {
          "internalType": "bytes32",
          "name": "_challenge_id",
          "type": "bytes32"
        }
      ],
      "name": "getChallengeById",
      "outputs": [
        {
          "components": [
            {
              "internalType": "bytes32",
              "name": "id",
              "type": "bytes32"
            },
            {
              "internalType": "address",
              "name": "contributor",
              "type": "address"
            },
            {
              "internalType": "string",
              "name": "txid",
              "type": "string"
            },
            {
              "internalType": "enum SystemEnums.Domain",
              "name": "category",
              "type": "uint8"
            },
            {
              "internalType": "uint256",
              "name": "contributed_at",
              "type": "uint256"
            },
            {
              "internalType": "uint256",
              "name": "participants",
              "type": "uint256"
            },
            {
              "internalType": "uint256",
              "name": "quality_score",
              "type": "uint256"
            },
            {
              "internalType": "enum SystemEnums.DifficultyLevel",
              "name": "difficulty_level",
              "type": "uint8"
            },
            {
              "internalType": "uint256",
              "name": "solve_time",
              "type": "uint256"
            },
            {
              "internalType": "enum SystemEnums.ChallengeStatus",
              "name": "status",
              "type": "uint8"
            }
          ],
          "internalType": "struct ChallengeManager.Challenge",
          "name": "",
          "type": "tuple"
        }
      ],
      "stateMutability": "view",
      "type": "function"
    },
    {
      "inputs": [
        {
          "internalType": "bytes32",
          "name": "_challenge_id",
          "type": "bytes32"
        }
      ],
      "name": "getChallengeContributorById",
      "outputs": [
        {
          "internalType": "address",
          "name": "",
          "type": "address"
        }
      ],
      "stateMutability": "view",
      "type": "function"
    },
    {
      "inputs": [
        {
          "internalType": "bytes32",
          "name": "_challenge_id",
          "type": "bytes32"
        }
      ],
      "name": "getChallengeDifficultyById",
      "outputs": [
        {
          "internalType": "enum SystemEnums.DifficultyLevel",
          "name": "",
          "type": "uint8"
        }
      ],
      "stateMutability": "view",
      "type": "function"
    },
    {
      "inputs": [
        {
          "internalType": "bytes32",
          "name": "_challenge_id",
          "type": "bytes32"
        }
      ],
      "name": "getChallengeDomainById",
      "outputs": [
        {
          "internalType": "enum SystemEnums.Domain",
          "name": "",
          "type": "uint8"
        }
      ],
      "stateMutability": "view",
      "type": "function"
    },
    {
      "inputs": [
        {
          "internalType": "bytes32",
          "name": "_challenge_id",
          "type": "bytes32"
        }
      ],
      "name": "getChallengeFinalizedStatus",
      "outputs": [
        {
          "internalType": "bool",
          "name": "",
          "type": "bool"
        }
      ],
      "stateMutability": "view",
      "type": "function"
    },
    {
      "inputs": [
        {
          "internalType": "bytes32",
          "name": "challengeId",
          "type": "bytes32"
        }
      ],
      "name": "getChallengeParticipants",
      "outputs": [
        {
          "internalType": "address[]",
          "name": "",
          "type": "address[]"
        }
      ],
      "stateMutability": "view",
      "type": "function"
    },
    {
      "inputs": [
        {
          "internalType": "bytes32",
          "name": "_challenge_id",
          "type": "bytes32"
        }
      ],
      "name": "getChallengeQualityScoreById",
      "outputs": [
        {
          "internalType": "uint256",
          "name": "",
          "type": "uint256"
        }
      ],
      "stateMutability": "view",
      "type": "function"
    },
    {
      "inputs": [
        {
          "internalType": "bytes32",
          "name": "_challenge_id",
          "type": "bytes32"
        }
      ],
      "name": "getChallengeTxIdById",
      "outputs": [
        {
          "internalType": "string",
          "name": "",
          "type": "string"
        }
      ],
      "stateMutability": "view",
      "type": "function"
    },
    {
      "inputs": [
        {
          "internalType": "address",
          "name": "_contributor_address",
          "type": "address"
        }
      ],
      "name": "getChallengesByContributor",
      "outputs": [
        {
          "components": [
            {
              "internalType": "bytes32",
              "name": "id",
              "type": "bytes32"
            },
            {
              "internalType": "address",
              "name": "contributor",
              "type": "address"
            },
            {
              "internalType": "string",
              "name": "txid",
              "type": "string"
            },
            {
              "internalType": "enum SystemEnums.Domain",
              "name": "category",
              "type": "uint8"
            },
            {
              "internalType": "uint256",
              "name": "contributed_at",
              "type": "uint256"
            },
            {
              "internalType": "uint256",
              "name": "participants",
              "type": "uint256"
            },
            {
              "internalType": "uint256",
              "name": "quality_score",
              "type": "uint256"
            },
            {
              "internalType": "enum SystemEnums.DifficultyLevel",
              "name": "difficulty_level",
              "type": "uint8"
            },
            {
              "internalType": "uint256",
              "name": "solve_time",
              "type": "uint256"
            },
            {
              "internalType": "enum SystemEnums.ChallengeStatus",
              "name": "status",
              "type": "uint8"
            }
          ],
          "internalType": "struct ChallengeManager.Challenge[]",
          "name": "",
          "type": "tuple[]"
        }
      ],
      "stateMutability": "view",
      "type": "function"
    },
    {
      "inputs": [
        {
          "internalType": "address",
          "name": "_moderator_address",
          "type": "address"
        }
      ],
      "name": "getChallengesByModerator",
      "outputs": [
        {
          "components": [
            {
              "internalType": "bytes32",
              "name": "id",
              "type": "bytes32"
            },
            {
              "internalType": "address",
              "name": "contributor",
              "type": "address"
            },
            {
              "internalType": "string",
              "name": "txid",
              "type": "string"
            },
            {
              "internalType": "enum SystemEnums.Domain",
              "name": "category",
              "type": "uint8"
            },
            {
              "internalType": "uint256",
              "name": "contributed_at",
              "type": "uint256"
            },
            {
              "internalType": "uint256",
              "name": "participants",
              "type": "uint256"
            },
            {
              "internalType": "uint256",
              "name": "quality_score",
              "type": "uint256"
            },
            {
              "internalType": "enum SystemEnums.DifficultyLevel",
              "name": "difficulty_level",
              "type": "uint8"
            },
            {
              "internalType": "uint256",
              "name": "solve_time",
              "type": "uint256"
            },
            {
              "internalType": "enum SystemEnums.ChallengeStatus",
              "name": "status",
              "type": "uint8"
            }
          ],
          "internalType": "struct ChallengeManager.Challenge[]",
          "name": "",
          "type": "tuple[]"
        }
      ],
      "stateMutability": "view",
      "type": "function"
    },
    {
      "inputs": [
        {
          "internalType": "bytes32",
          "name": "_challenge_id",
          "type": "bytes32"
        },
        {
          "internalType": "address",
          "name": "_moderator_address",
          "type": "address"
        }
      ],
      "name": "getJoinReviewPoolStatus",
      "outputs": [
        {
          "internalType": "bool",
          "name": "",
          "type": "bool"
        }
      ],
      "stateMutability": "view",
      "type": "function"
    },
    {
      "inputs": [
        {
          "internalType": "address",
          "name": "_user_address",
          "type": "address"
        }
      ],
      "name": "getJoinedChallengesByUser",
      "outputs": [
        {
          "components": [
            {
              "internalType": "bytes32",
              "name": "challenge_id",
              "type": "bytes32"
            },
            {
              "internalType": "string",
              "name": "txid",
              "type": "string"
            },
            {
              "internalType": "enum SystemEnums.Domain",
              "name": "category",
              "type": "uint8"
            },
            {
              "internalType": "enum SystemEnums.SolutionProgress",
              "name": "progress",
              "type": "uint8"
            },
            {
              "internalType": "uint256",
              "name": "joined_at",
              "type": "uint256"
            },
            {
              "internalType": "uint256",
              "name": "score",
              "type": "uint256"
            }
          ],
          "internalType": "struct ChallengeManager.JoinedChallenges[]",
          "name": "",
          "type": "tuple[]"
        }
      ],
      "stateMutability": "view",
      "type": "function"
    },
    {
      "inputs": [
        {
          "internalType": "bytes32",
          "name": "challenge_id",
          "type": "bytes32"
        },
        {
          "internalType": "address",
          "name": "_moderator_address",
          "type": "address"
        }
      ],
      "name": "getModeratorReviewOfChallenge",
      "outputs": [
        {
          "components": [
            {
              "internalType": "address",
              "name": "moderator",
              "type": "address"
            },
            {
              "internalType": "bytes32",
              "name": "challenge_id",
              "type": "bytes32"
            },
            {
              "internalType": "uint256",
              "name": "review_time",
              "type": "uint256"
            },
            {
              "internalType": "string",
              "name": "review_txid",
              "type": "string"
            },
            {
              "internalType": "bool",
              "name": "is_submitted",
              "type": "bool"
            },
            {
              "internalType": "enum SystemEnums.QualityFactorAnswer",
              "name": "relevance",
              "type": "uint8"
            },
            {
              "internalType": "enum SystemEnums.QualityFactorAnswer",
              "name": "technical_correctness",
              "type": "uint8"
            },
            {
              "internalType": "enum SystemEnums.QualityFactorAnswer",
              "name": "completeness",
              "type": "uint8"
            },
            {
              "internalType": "enum SystemEnums.QualityFactorAnswer",
              "name": "clarity",
              "type": "uint8"
            },
            {
              "internalType": "enum SystemEnums.QualityFactorAnswer",
              "name": "originality",
              "type": "uint8"
            },
            {
              "internalType": "enum SystemEnums.QualityFactorAnswer",
              "name": "unbiased",
              "type": "uint8"
            },
            {
              "internalType": "enum SystemEnums.QualityFactorAnswer",
              "name": "plagiarism_free",
              "type": "uint8"
            },
            {
              "internalType": "enum SystemEnums.DifficultyLevel",
              "name": "suggested_difficulty",
              "type": "uint8"
            },
            {
              "internalType": "enum SystemEnums.Domain",
              "name": "suggested_category",
              "type": "uint8"
            },
            {
              "internalType": "uint256",
              "name": "suggested_solve_time",
              "type": "uint256"
            },
            {
              "internalType": "uint256",
              "name": "review_score",
              "type": "uint256"
            }
          ],
          "internalType": "struct ChallengeManager.ModeratorReview",
          "name": "",
          "type": "tuple"
        }
      ],
      "stateMutability": "view",
      "type": "function"
    },
    {
      "inputs": [
        {
          "internalType": "address",
          "name": "_moderator_address",
          "type": "address"
        },
        {
          "internalType": "bytes32",
          "name": "_challenge_id",
          "type": "bytes32"
        }
      ],
      "name": "getModeratorReviewTxId",
      "outputs": [
        {
          "internalType": "string",
          "name": "",
          "type": "string"
        }
      ],
      "stateMutability": "view",
      "type": "function"
    },
    {
      "inputs": [],
      "name": "getPendingChallenges",
      "outputs": [
        {
          "components": [
            {
              "internalType": "bytes32",
              "name": "id",
              "type": "bytes32"
            },
            {
              "internalType": "address",
              "name": "contributor",
              "type": "address"
            },
            {
              "internalType": "string",
              "name": "txid",
              "type": "string"
            },
            {
              "internalType": "enum SystemEnums.Domain",
              "name": "category",
              "type": "uint8"
            },
            {
              "internalType": "uint256",
              "name": "contributed_at",
              "type": "uint256"
            },
            {
              "internalType": "uint256",
              "name": "participants",
              "type": "uint256"
            },
            {
              "internalType": "uint256",
              "name": "quality_score",
              "type": "uint256"
            },
            {
              "internalType": "enum SystemEnums.DifficultyLevel",
              "name": "difficulty_level",
              "type": "uint8"
            },
            {
              "internalType": "uint256",
              "name": "solve_time",
              "type": "uint256"
            },
            {
              "internalType": "enum SystemEnums.ChallengeStatus",
              "name": "status",
              "type": "uint8"
            }
          ],
          "internalType": "struct ChallengeManager.Challenge[]",
          "name": "",
          "type": "tuple[]"
        }
      ],
      "stateMutability": "view",
      "type": "function"
    },
    {
      "inputs": [
        {
          "internalType": "bytes32",
          "name": "_challenge_id",
          "type": "bytes32"
        }
      ],
      "name": "getReviewPoolModerators",
      "outputs": [
        {
          "internalType": "address[]",
          "name": "",
          "type": "address[]"
        }
      ],
      "stateMutability": "view",
      "type": "function"
    },
    {
      "inputs": [
        {
          "internalType": "bytes32",
          "name": "_challenge_id",
          "type": "bytes32"
        }
      ],
      "name": "getReviewPoolSize",
      "outputs": [
        {
          "internalType": "uint256",
          "name": "",
          "type": "uint256"
        }
      ],
      "stateMutability": "view",
      "type": "function"
    },
    {
      "inputs": [],
      "name": "getReviewQuorum",
      "outputs": [
        {
          "internalType": "uint256",
          "name": "",
          "type": "uint256"
        }
      ],
      "stateMutability": "pure",
      "type": "function"
    },
    {
      "inputs": [
        {
          "internalType": "bytes32",
          "name": "role",
          "type": "bytes32"
        }
      ],
      "name": "getRoleAdmin",
      "outputs": [
        {
          "internalType": "bytes32",
          "name": "",
          "type": "bytes32"
        }
      ],
      "stateMutability": "view",
      "type": "function"
    },
    {
      "inputs": [
        {
          "internalType": "bytes32",
          "name": "_challenge_id",
          "type": "bytes32"
        },
        {
          "internalType": "address",
          "name": "_moderator_address",
          "type": "address"
        }
      ],
      "name": "getScoreDeviationOfModeratorReview",
      "outputs": [
        {
          "internalType": "uint256",
          "name": "",
          "type": "uint256"
        }
      ],
      "stateMutability": "view",
      "type": "function"
    },
    {
      "inputs": [
        {
          "internalType": "bytes32",
          "name": "role",
          "type": "bytes32"
        },
        {
          "internalType": "address",
          "name": "account",
          "type": "address"
        }
      ],
      "name": "grantRole",
      "outputs": [],
      "stateMutability": "nonpayable",
      "type": "function"
    },
    {
      "inputs": [
        {
          "internalType": "bytes32",
          "name": "role",
          "type": "bytes32"
        },
        {
          "internalType": "address",
          "name": "account",
          "type": "address"
        }
      ],
      "name": "hasRole",
      "outputs": [
        {
          "internalType": "bool",
          "name": "",
          "type": "bool"
        }
      ],
      "stateMutability": "view",
      "type": "function"
    },
    {
      "inputs": [
        {
          "internalType": "bytes32",
          "name": "_challenge_id",
          "type": "bytes32"
        },
        {
          "internalType": "string",
          "name": "_review_txid",
          "type": "string"
        }
      ],
      "name": "joinReviewPool",
      "outputs": [],
      "stateMutability": "nonpayable",
      "type": "function"
    },
    {
      "inputs": [
        {
          "internalType": "bytes32",
          "name": "role",
          "type": "bytes32"
        },
        {
          "internalType": "address",
          "name": "callerConfirmation",
          "type": "address"
        }
      ],
      "name": "renounceRole",
      "outputs": [],
      "stateMutability": "nonpayable",
      "type": "function"
    },
    {
      "inputs": [
        {
          "internalType": "bytes32",
          "name": "role",
          "type": "bytes32"
        },
        {
          "internalType": "address",
          "name": "account",
          "type": "address"
        }
      ],
      "name": "revokeRole",
      "outputs": [],
      "stateMutability": "nonpayable",
      "type": "function"
    },
    {
      "inputs": [
        {
          "internalType": "address",
          "name": "_contributor",
          "type": "address"
        },
        {
          "internalType": "string",
          "name": "_challenge_txid",
          "type": "string"
        },
        {
          "internalType": "enum SystemEnums.Domain",
          "name": "_category",
          "type": "uint8"
        },
        {
          "internalType": "uint256",
          "name": "_contributed_at",
          "type": "uint256"
        },
        {
          "internalType": "enum SystemEnums.ChallengeStatus",
          "name": "_status",
          "type": "uint8"
        },
        {
          "internalType": "uint256",
          "name": "_quality_score",
          "type": "uint256"
        },
        {
          "internalType": "enum SystemEnums.DifficultyLevel",
          "name": "_difficulty_level",
          "type": "uint8"
        },
        {
          "internalType": "uint256",
          "name": "_solve_time",
          "type": "uint256"
        }
      ],
      "name": "seedChallenge",
      "outputs": [],
      "stateMutability": "nonpayable",
      "type": "function"
    },
    {
      "inputs": [
        {
          "internalType": "address",
          "name": "_address",
          "type": "address"
        }
      ],
      "name": "setChallengeCostManagerAddress",
      "outputs": [],
      "stateMutability": "nonpayable",
      "type": "function"
    },
    {
      "inputs": [
        {
          "internalType": "address",
          "name": "_address",
          "type": "address"
        }
      ],
      "name": "setModerationEscrowAddress",
      "outputs": [],
      "stateMutability": "nonpayable",
      "type": "function"
    },
    {
      "inputs": [
        {
          "internalType": "address",
          "name": "_address",
          "type": "address"
        }
      ],
      "name": "setReputationManagerAddress",
      "outputs": [],
      "stateMutability": "nonpayable",
      "type": "function"
    },
    {
      "inputs": [
        {
          "internalType": "address",
          "name": "_address",
          "type": "address"
        }
      ],
      "name": "setRoleManagerAddress",
      "outputs": [],
      "stateMutability": "nonpayable",
      "type": "function"
    },
    {
      "inputs": [
        {
          "internalType": "address",
          "name": "_address",
          "type": "address"
        }
      ],
      "name": "setSolutionManagerAddress",
      "outputs": [],
      "stateMutability": "nonpayable",
      "type": "function"
    },
    {
      "inputs": [
        {
          "internalType": "bytes32",
          "name": "_challenge_id",
          "type": "bytes32"
        },
        {
          "internalType": "enum SystemEnums.QualityFactorAnswer",
          "name": "_relevance",
          "type": "uint8"
        },
        {
          "internalType": "enum SystemEnums.QualityFactorAnswer",
          "name": "_technical_correctness",
          "type": "uint8"
        },
        {
          "internalType": "enum SystemEnums.QualityFactorAnswer",
          "name": "_completeness",
          "type": "uint8"
        },
        {
          "internalType": "enum SystemEnums.QualityFactorAnswer",
          "name": "_clarity",
          "type": "uint8"
        },
        {
          "internalType": "enum SystemEnums.QualityFactorAnswer",
          "name": "_originality",
          "type": "uint8"
        },
        {
          "internalType": "enum SystemEnums.QualityFactorAnswer",
          "name": "_unbiased",
          "type": "uint8"
        },
        {
          "internalType": "enum SystemEnums.QualityFactorAnswer",
          "name": "_plagiarism_free",
          "type": "uint8"
        },
        {
          "internalType": "enum SystemEnums.DifficultyLevel",
          "name": "_suggested_difficulty",
          "type": "uint8"
        },
        {
          "internalType": "enum SystemEnums.Domain",
          "name": "_suggested_category",
          "type": "uint8"
        },
        {
          "internalType": "uint256",
          "name": "_suggested_solve_time",
          "type": "uint256"
        }
      ],
      "name": "submitModeratorReview",
      "outputs": [],
      "stateMutability": "nonpayable",
      "type": "function"
    },
    {
      "inputs": [
        {
          "internalType": "bytes4",
          "name": "interfaceId",
          "type": "bytes4"
        }
      ],
      "name": "supportsInterface",
      "outputs": [
        {
          "internalType": "bool",
          "name": "",
          "type": "bool"
        }
      ],
      "stateMutability": "view",
      "type": "function"
    },
    {
      "inputs": [
        {
          "internalType": "bytes32",
          "name": "_challenge_id",
          "type": "bytes32"
        }
      ],
      "name": "userCompleteChallenge",
      "outputs": [],
      "stateMutability": "nonpayable",
      "type": "function"
    },
    {
      "inputs": [
        {
          "internalType": "bytes32",
          "name": "_challenge_id",
          "type": "bytes32"
        },
        {
          "internalType": "string",
          "name": "_solution_base_txid",
          "type": "string"
        }
      ],
      "name": "userJoinChallenge",
      "outputs": [],
      "stateMutability": "payable",
      "type": "function"
    }
  ],
  "bytecode": "0x608060405234601f57600f336024565b50604051613e1590816100b28239f35b600080fd5b6001600160a01b0381166000908152600080516020613ec7833981519152602052604090205460ff1660ab576001600160a01b03166000818152600080516020613ec783398151915260205260408120805460ff191660011790553391907f2f8788117e7eff1d82e926ec794901d17c78024a50270940304540a733656f0d8180a4600190565b5060009056fe608080604052600436101561001357600080fd5b600090813560e01c90816301ffc9a714612f4257508063033c192b14612f145780631caa111c14612ee7578063248a9ca314612eb95780632527300614612e845780632adb804d14612b385780632e34e4df14612b015780632f2ff15d14612ac0578063326e1e9314612887578063340986fa1461281a57806336568abe146127d5578063368671281461250257806344d3cbb9146124285780635057494a146122d25780635cf2249f14612272578063616e2e561461210e578063636a0a351461153e5780636875a77e146114c55780636bf78c2f1461128357806381b3fe4e1461105a5780638c2c0bd01461102557806391d1485414610fda578063927cab5b14610f7a578063a217fddf14610f5e578063a740001f14610f10578063b2a0069314610ab9578063b2c2915b14610a2b578063b79362cd146109cb578063be21f20c146108c6578063c361e8cf14610866578063cdf974b214610834578063d547741f146107ea578063dc2ee85c14610400578063dd0e12ca146102d7578063e0772f41146102ad578063e9d307731461024d578063f676d44a1461021b578063f83eb275146101ff5763fce83656146101ce57600080fd5b346101fc5760403660031901126101fc5760206101f46101ec613016565b600435613810565b604051908152f35b80fd5b50346101fc57806003193601126101fc57602060405160038152f35b50346101fc5760203660031901126101fc576004358152600160205260056040822001610248815461372a565b905580f35b50346101fc5760203660031901126101fc57610267612ffb565b61026f61389f565b6001600160a01b031661028381151561361f565b806001600160601b0360a01b60145416176014556001600160601b0360a01b601354161760135580f35b50346101fc5760203660031901126101fc5760406020916004358152600283522054604051908152f35b50346101fc57806003193601126101fc57600a546102f4816135bb565b9082600a54905b82811061031457604051806103108682613189565b0390f35b818110156103ec57600190600a8652806020872001548660031b1c8652816020526040862060ff60096040519261034a84613223565b80548452858060a01b038682015416602085015261036a600282016132ad565b60408501526103828360038301541660608601613379565b60048101546080850152600581015460a0850152600681015460c08501526103b38360078301541660e08601613385565b60088101546101008501520154166103ca816130e9565b6101208201526103da828761360b565b526103e5818661360b565b50016102fb565b634e487b7160e01b85526032600452602485fd5b50346101fc5760203660031901126101fc5761041a612ffb565b6010546001600160a01b0316156107a55760018060a01b0381168252600360205260408220906040518083602082955493848152019086526020862092865b81811061078c57505061046e9250038361328c565b81519261047a846135a4565b93610488604051958661328c565b808552610497601f19916135a4565b01815b818110610750575050600f546001600160a01b0316815b845181101561069d576104c4818661360b565b518084526001602052604084206105a46040516104e081613223565b8254815260018301546001600160a01b031660208201526060610505600285016132ad565b946040830195865260ff600981600388015416966105268587019889613379565b60048101546080870152600581015460a0870152600681015460c08701526105578360078301541660e08801613385565b600881015461010087015201541661056e816130e9565b61012084015260405163eb3cd29f60e01b81526001600160a01b038b166004820152602481019190915292839081906044820190565b0381895afa9283156106925787918893899561063c575b50519451905190600e8210156106285760019695949392916105f491604051966105e488613271565b8752602087015260408601613379565b6105fd816130e9565b6060840152608083015260a0820152610616828961360b565b52610621818861360b565b50016104b1565b634e487b7160e01b89526021600452602489fd5b9250935091506060813d821161068a575b8161065a6060938361328c565b81010312610686578051916004831015610682576040602083015192015192919293386105bb565b8780fd5b8680fd5b3d915061064d565b6040513d89823e3d90fd5b85836040519182916020830160208452825180915260408401602060408360051b870101940192905b8282106106d557505050500390f35b919360019193955060208091603f198982030185528751908151815260a08061070b8585015160c08786015260c0850190612f97565b9361071e60408201516040860190613059565b606081015161072c816130e9565b606085015260808101516080850152015191015296019201920185949391926106c6565b60209060405161075f81613271565b8481526060838201528460408201528460608201528460808201528460a08201528282890101520161049a565b8454835260019485019487945060209093019201610459565b60405162461bcd60e51b815260206004820152601760248201527f536f6c7574696f6e4d616e61676572206e6f74207365740000000000000000006044820152606490fd5b50346101fc5760403660031901126101fc5761083060043561080a613016565b9061082b61082682600052600060205260016040600020015490565b6138f2565b6139b8565b5080f35b50346101fc5760203660031901126101fc5760ff60016040602093600435815260028552200154166040519015158152f35b50346101fc5760203660031901126101fc57610880612ffb565b61088861389f565b6001600160a01b031661089c81151561361f565b806001600160601b0360a01b600c541617600c556001600160601b0360a01b600b541617600b5580f35b50346101fc57806003193601126101fc576008546108e3816135bb565b91805b8281106108fb57604051806103108682613189565b80610907600192613413565b90549060031b1c8352816020526040832060ff60096040519261092984613223565b80548452858060a01b0386820154166020850152610949600282016132ad565b60408501526109618360038301541660608601613379565b60048101546080850152600581015460a0850152600681015460c08501526109928360078301541660e08601613385565b60088101546101008501520154166109a9816130e9565b6101208201526109b9828761360b565b526109c4818661360b565b50016108e6565b50346101fc5760203660031901126101fc576109e5612ffb565b6109ed61389f565b6001600160a01b0316610a0181151561361f565b806001600160601b0360a01b60125416176012556001600160601b0360a01b601154161760115580f35b50346101fc5760403660031901126101fc5760036040610a49612ffb565b92602435808252600260205260048383200160018060a01b038616600052602052610a7a60ff8460002054166137a6565b8152600260205220019060018060a01b0316600052602052610310610aa560036040600020016132ad565b604051918291602083526020830190612f97565b50346101fc57610ac836613066565b8284939294526002602052610ae760ff6001604086200154161561365d565b600d546024906020906001600160a01b0316610b048115156136a9565b604051637d379c9b60e11b815233600482015292839182905afa908115610f055790610b37918591610ed6575b506136ec565b6011546001600160a01b031615610e9157818352600260205260408320600381541015610e535733600090815260048201602081905260409091205460ff16610dfc57838552600160208190526040862001546001600160a01b03163314610dab576003916040913387526005602052610bb3868489206134a8565b610bbd338361350b565b3360008181526020928352848120805460ff1916600190811790915593860190925292902080546001600160a01b0319169092178255810184905501906001600160401b038111610d9757610c1c81610c1684546131e9565b84613391565b83601f8211600114610d335781908596610c4d94959692610d28575b50508160011b916000199060031b1c19161790565b90555b60115482906001600160a01b0316803b15610d1957818091602460405180948193631cd692fd60e31b83528860048401525af18015610d1d57610d04575b505033907eb779f996cb9fcae43c5fd4b0964d015a2b4a4a1a2a0bb7dab863730b8c230f8380a3610d01604051610cc660608261328c565b602181527f4d6f64657261746f72202573206a6f696e656420612072657669657720706f6f6020820152601b60fa1b60408201523390613a3a565b80f35b81610d0e9161328c565b610d19578138610c8e565b5080fd5b6040513d84823e3d90fd5b013590503880610c38565b601f198216958386526020862091865b888110610d7f57508360019596979810610d65575b505050811b019055610c50565b0135600019600384901b60f8161c19169055388080610d58565b90926020600181928686013581550194019101610d43565b634e487b7160e01b84526041600452602484fd5b60405162461bcd60e51b815260206004820152602360248201527f436f6e7472696275746f722063616e6e6f74206a6f696e2072657669657720706044820152621bdbdb60ea1b6064820152608490fd5b60405162461bcd60e51b815260206004820152602960248201527f596f75206861766520616c7265616479206a6f696e656420746869732072657660448201526834b2bb903837b7b61760b91b6064820152608490fd5b60405162461bcd60e51b815260206004820152601660248201527513585e081b5bd9195c985d1bdc9cc81c995858da195960521b6044820152606490fd5b60405162461bcd60e51b815260206004820152601960248201527f4d6f6465726174696f6e20657363726f77206e6f7420736574000000000000006044820152606490fd5b610ef8915060203d602011610efe575b610ef0818361328c565b8101906134ca565b38610b31565b503d610ee6565b6040513d86823e3d90fd5b50346101fc5760403660031901126101fc5760046040610f2e613016565b9282358152600260205220019060018060a01b0316600052602052602060ff604060002054166040519015158152f35b50346101fc57806003193601126101fc57602090604051908152f35b50346101fc5760203660031901126101fc57610f94612ffb565b610f9c61389f565b6001600160a01b0316610fb081151561361f565b806001600160601b0360a01b600e541617600e556001600160601b0360a01b600d541617600d5580f35b50346101fc5760403660031901126101fc576040610ff6613016565b91600435815280602052209060018060a01b0316600052602052602060ff604060002054166040519015158152f35b50346101fc5760203660031901126101fc5760209060043581526001825260016040818060a01b039220015416604051908152f35b5060403660031901126101fc57600435602435600e8110156111d557600d546024906020906001600160a01b03166110938115156136a9565b604051631d0d35f560e01b815233600482015292839182905afa8015610f05576110c4918591611264575b50613766565b3415611232576011546001600160a01b031615610e91578183526001602052604083203360018060a01b03600183015416036111d95760099042600482015561111083600383016133e3565b01600160ff19825416179055818352600760205260408320600160ff1982541617905561113c82613484565b60115483906001600160a01b0316803b15610d195760405163f8fb6abb60e01b8152600481018590523360248201529082908290604490829034905af18015610d1d576111c0575b505060407f5270230622292ec2ca14140192d19bf46fc90b938045cbdf59adf69b2b383155916111b682518092613059565b426020820152a280f35b816111ca9161328c565b6111d5578238611184565b8280fd5b60405162461bcd60e51b815260206004820152602b60248201527f53656e646572206973206e6f7420636f6e7472696275746f72206f662074686960448201526a73206368616c6c656e676560a81b6064820152608490fd5b60405162461bcd60e51b815260206004820152600a6024820152695a65726f2076616c756560b01b6044820152606490fd5b61127d915060203d602011610efe57610ef0818361328c565b386110be565b50346101fc5760203660031901126101fc576004356001600160401b038111610d19576112b490369060040161302c565b600d546024906020906001600160a01b03166112d18115156136a9565b604051631d0d35f560e01b815233600482015292839182905afa8015610f05576113019185916112645750613766565b801561148957604051602081019061132e816113204286883388613351565b03601f19810183528261328c565b519020808452600160208190526040852082815590810180546001600160a01b031916331790559092906002016001600160401b0383116114755793846113818461137b602098546131e9565b83613391565b8184601f811160011461141457806113ae928591611409575b508160011b916000199060031b1c19161790565b90555b338152600485526113c584604083206134a8565b82604051938493843782019081520390206040514281527fb92b508ece8b8953c73472a1c5584fa240c168063d1450a732310be6d9d07b2f843392a3604051908152f35b90508501353861139a565b508183528683209085601f198116855b81811061145b575010611441575b5050600184811b0190556113b1565b840135600019600387901b60f8161c191690553880611432565b878401358555600190940193928a01928892508a01611424565b634e487b7160e01b85526041600452602485fd5b60405162461bcd60e51b8152602060048201526014602482015273547849642063616e6e6f7420626520656d70747960601b6044820152606490fd5b50346101fc5760203660031901126101fc576004358152600260205260408120604051918260208354918281520192825260208220915b81811061151f57610310856115138187038261328c565b60405191829182613099565b82546001600160a01b03168452602090930192600192830192016114fc565b50346101fc576101603660031901126101fc57600435906024356002811015610d195760443560028110156111d557606435916002831015611d85576084356002811015611d4a5760a435600281101561210a5760c4359460028610156106865760e43560028110156106825761010435906003821015611d94576101243592600e841015611d59578a8a5260026020526115e360ff600160408d200154161561365d565b600d546024906020906001600160a01b03166116008115156136a9565b604051637d379c9b60e11b815233600482015292839182905afa9081156120ff5790611632918c91610ed657506136ec565b6011546001600160a01b031615610e91578a8a52600260205260408a209860018060a01b03331660005260048a01602052600160ff604060002054161515036120ac578b8b526002602052600360408c200160018060a01b03331660005260205260ff6004604060002001541661205b5760028a019788546116b39061372a565b89556116bf8a82613739565b836116c991613739565b886116d391613739565b876116dd91613739565b826116e791613739565b846116f191613739565b9660648802978089046064149015171561204757908c959493929160038d019b6000600160a01b60019003331681528d602052604090209a4260028d015560048c01998a54995060481b60ff60481b169860ff60481b199660ff60401b199560ff60381b199466ff000000000000199365ff0000000000199264ff00000000199163ff000000199062ffffff1916600117169060081b61ff001617169060101b62ff00001617169060181b63ff0000001617169060201b64ff000000001617169060281b65ff00000000001617169060301b66ff0000000000001617169060381b60ff60381b16179060401b60ff60401b16171790556101443560058301556007900490600601555460031115611806578280f35b600182019060ff8254166120025784845260016020526040842092858552600160205260ff600360408720015416916101e09360405194611847818761328c565b600e8652601f1901366020870137600b5483548897918891906001600160a01b03165b818310611eee57505050875b86518110156118e557611889818861360b565b518060011b90808204600214901517156118d15788106118ac575b600101611876565b9450600e8510156118bd57846118a4565b634e487b7160e01b88526021600452602488fd5b634e487b7160e01b8a52601160045260248afd5b509296955092969093506118fd6003830197886133e3565b808552600160205260ff600760408720015416966040519461192060808761328c565b600386526060366020880137600b548854906001600160a01b0316885b898b848310611dd15750925050505b600381101561198a5761195f818861360b565b5160038b1015610628576119738b8961360b565b5110611982575b60010161194c565b98508861197a565b50919450929691956119a06007880193846133fb565b6119aa8186613b13565b60088801556119b98186613c3e565b9260508410611dbd5760098801600260ff19825416179055858752600960205260408720600160ff198254161790556119f18661345c565b60068801938455858752600760205260408720805460ff19169055865b60085480821015611dac5787611a2383613413565b90549060031b1c14611a385750600101611a0e565b60009992939495969798991981019081116118d157611a69611a5c611a8092613413565b90549060031b1c92613413565b819391549060031b91821b91600019901b19161790565b9055600854988915611d9857889960001901611a9b81613413565b8154906000199060031b1b191690556008555b600160ff1982541617905560ff60098201541691877f8f1082d1804d1985ff86f5bd6430e1e4b5707e76a48c2f6eb4b1aa84f5bdcb696040885495815190611af5816130e9565b8152866020820152a2600c546001600160a01b0316611b85575b50506012546001600160a01b03169450611b2e9350505050575b808280f35b6011546001600160a01b031690813b15611b815782916024839260405194859384926303c3ba4760e41b845260048401525af18015610d1d5715611b295781611b769161328c565b6101fc578038808280f35b5050fd5b60018060a09a98999a1b03600b5416916001808060a01b03910154169260ff808a541692541693833b15611d9457888094611bfe611be19760c495604051998a988997630164ac6560e41b895260048901526024880190613059565b604486015260506064860152600a608486015260a4850190612fd8565b5af1908115611d89578591611d70575b505b8154811015611d5d57611c8b611c268284613444565b905460405160039290921b1c6001600160a01b031690611c4760608261328c565b602c81527f457865637574696e672072657075746174696f6e2075706461746520666f722060208201526b6d6f64657261746f7220257360a01b6040820152613a3a565b611c958183613444565b90546001600160a01b0360039290921b1c81166000818152602086905260409020600b54895488546006909301549294919091169260ff9091169190833b15611d595789809460c493611d03976040519889978896631bb0c13760e21b885260048801526024870190613059565b60448501526064840152603c6084840152600a60a48401525af1908115611d4e578691611d35575b5050600101611c10565b81611d3f9161328c565b611d4a578438611d2b565b8480fd5b6040513d88823e3d90fd5b8980fd5b5050505091905038808080808080611b0f565b81611d7a9161328c565b611d85578338611c0e565b8380fd5b6040513d87823e3d90fd5b8880fd5b634e487b7160e01b89526031600452602489fd5b505090919293949597968897611aae565b60098801805460ff191660031790556119f1565b6020611de084611e2f93613444565b9054600391821b1c6001600160a01b031660008181528984526040908190208c87526001855295819020909201549151630cf571c160e11b8152938492839260ff919091169060048401613a9d565b0381875afa908115611ee3578c908192611eac575b50611e5e82611e5960049360ff951215613abd565b613d5c565b92015460401c16906003821015611e985790611e91611e8a60019493611e84848f61360b565b51613739565b918c61360b565b520161193d565b634e487b7160e01b8c52602160045260248cfd5b91505060203d8111611edc575b611ec3818361328c565b602082600092810103126101fc5750518b611e5e611e44565b503d611eb9565b6040513d8e823e3d90fd5b909198611efb8a88613444565b905460039190911b1c6001600160a01b0316600081815260208881526040918290206004908101549251630cf571c160e11b815260489390931c60ff16949383918291611f4c918891908401613a9d565b0381875afa908115611ff757908d918291611fbf575b50611e59611f7292821215613abd565b91600e811015611fab5791611fa2918b611f9c85611f9685611e846001998661360b565b9261360b565b52613739565b9901919061186a565b634e487b7160e01b8d52602160045260248dfd5b91505060203d8111611ff0575b611fd6818361328c565b602082600092810103126101fc5750518c90611e59611f62565b503d611fcc565b6040513d8f823e3d90fd5b60405162461bcd60e51b815260206004820152601b60248201527f4368616c6c656e676520616c72656164792066696e616c697a656400000000006044820152606490fd5b634e487b7160e01b8d52601160045260248dfd5b60405162461bcd60e51b8152602060048201526024808201527f596f75206861766520616c7265616479207375626d697474656420612072657660448201526334b2bb9760e11b6064820152608490fd5b60405162461bcd60e51b815260206004820152602560248201527f596f752068617665206e6f74206a6f696e6564207468697320726576696577206044820152643837b7b61760d91b6064820152608490fd5b6040513d8d823e3d90fd5b8580fd5b50346101fc5760203660031901126101fc576001600160a01b03612130612ffb565b1681526004602052604081206040518082602082945493848152019085526020852092855b81811061225957505061216a9250038261328c565b61217481516135bb565b91805b825181101561224b578061218d6001928561360b565b518352816020526040832060ff6009604051926121a984613223565b80548452858060a01b03868201541660208501526121c9600282016132ad565b60408501526121e18360038301541660608601613379565b60048101546080850152600581015460a0850152600681015460c08501526122128360078301541660e08601613385565b6008810154610100850152015416612229816130e9565b610120820152612239828761360b565b52612244818661360b565b5001612177565b604051806103108682613189565b8454835260019485019486945060209093019201612155565b50346101fc5760203660031901126101fc5761228c612ffb565b61229461389f565b6001600160a01b03166122a881151561361f565b806001600160601b0360a01b60105416176010556001600160601b0360a01b600f541617600f5580f35b50346101fc5760203660031901126101fc576001600160a01b036122f4612ffb565b1681526005602052604081206040518082602082945493848152019085526020852092855b81811061240f57505061232e9250038261328c565b61233881516135bb565b91805b825181101561224b57806123516001928561360b565b518352816020526040832060ff60096040519261236d84613223565b80548452858060a01b038682015416602085015261238d600282016132ad565b60408501526123a58360038301541660608601613379565b60048101546080850152600581015460a0850152600681015460c08501526123d68360078301541660e08601613385565b60088101546101008501520154166123ed816130e9565b6101208201526123fd828761360b565b52612408818661360b565b500161233b565b8454835260019485019486945060209093019201612319565b50346101fc5760203660031901126101fc57604061031091612448613558565b50600435815260016020522060ff60096040519261246584613223565b8054845260018101546001600160a01b03166020850152612488600282016132ad565b60408501526124a08360038301541660608601613379565b60048101546080850152600581015460a0850152600681015460c08501526124d18360078301541660e08601613385565b60088101546101008501520154166124e8816130e9565b6101208201526040519182916020835260208301906130f3565b50346101fc5760403660031901126101fc57604090600382612522613016565b92806101e0835161253281613255565b82815282602082015282858201526060808201528260808201528260a08201528260c08201528260e08201528261010082015282610120820152826101408201528261016082015282610180820152826101a0820152826101c0820152015260043581526002602052200160009160018060a01b03168252602052206006604051916125bd83613255565b80546001600160a01b0316835260018101546020840152600281015460408401526125ea600382016132ad565b60608401526126a660ff600483015481811615156080870152612615828260081c1660a0880161354c565b612627828260101c1660c0880161354c565b612639828260181c1660e0880161354c565b61264c828260201c16610100880161354c565b61265f828260281c16610120880161354c565b612672828260301c16610140880161354c565b612685828260381c16610160880161354c565b612698828260401c166101808801613385565b60481c166101a08501613379565b60058101546101c084015201546101e082015260405180916020825260018060a01b03815116602083015260208101516040830152604081015160608301526101e061270360608301516102006080860152610220850190612f97565b916080810151151560a085015261272260a082015160c08601906130dc565b61273460c082015160e08601906130dc565b61274760e08201516101008601906130dc565b61275b6101008201516101208601906130dc565b61276f6101208201516101408601906130dc565b6127836101408201516101608601906130dc565b6127976101608201516101808601906130dc565b6127ab6101808201516101a0860190612fd8565b6127bf6101a08201516101c0860190613059565b6101c08101518285015201516102008301520390f35b50346101fc5760403660031901126101fc576127ef613016565b336001600160a01b0382160361280b57610830906004356139b8565b63334bd91960e11b8252600482fd5b50346101fc5760203660031901126101fc576004358152600660205260408120604051918260208354918281520192825260208220915b81811061286857610310856115138187038261328c565b82546001600160a01b0316845260209093019260019283019201612851565b5061289136613066565b600f54604051633cdfd3c960e01b81523360048201526024810185905290602090829060449082906001600160a01b03165afa908115611d89578591612aa1575b50611d85576013546001600160a01b0316918215612a5c576103e84202924284046103e81442151715612a4857803b1561210a5760405163bc4e5a5b60e01b8152600481018690523360248201529086908290604490829034905af18015611d4e57612a31575b508160209160018060a01b03600f5416908760a460405180978196829563b16b5ff160e01b84523360048501528c6024850152608060448501528160848501528484013783838284010152896064830152601f801991011681010301925af18015610f0557612a02575b5033835260036020526129b982604085206134a8565b81835260066020526129ce336040852061350b565b60405191825260208201527f182b8ad447b2c3da34821d9c6b8c59980440a81fd629ca4eb80abbe8309d162260403392a280f35b6020813d602011612a29575b81612a1b6020938361328c565b81010312611d8557516129a3565b3d9150612a0e565b85612a4060209397859361328c565b959150612939565b634e487b7160e01b86526011600452602486fd5b60405162461bcd60e51b815260206004820152601c60248201527f4368616c6c656e6765436f73744d616e61676572206e6f7420736574000000006044820152606490fd5b612aba915060203d602011610efe57610ef0818361328c565b386128d2565b50346101fc5760403660031901126101fc57610830600435612ae0613016565b90612afc61082682600052600060205260016040600020015490565b61392d565b50346101fc5760203660031901126101fc5760ff6003604060209360043581526001855220015416612b366040518092613059565bf35b50346101fc576101003660031901126101fc57612b53612ffb565b6024356001600160401b0381116111d557612b7290369060040161302c565b60443590600e821015611d4a576064356084359360048510156106865760c4356003811015610682576040516020810190612bb4816113208789883388613351565b5190209660405193612bc585613223565b888552602085019160018060a01b0316968783526001600160401b038711612e70576040518b93929190612c03601f8a01601f19166020018261328c565b8881523689880111611d4a578460208a8d9b8f9a838601378301015260408801908152612c34606089019283613379565b6080880192835260a0880193858552604060c08a019660a4358852612c5d60e08c01998a613385565b6101008b019960e4358b526101208c019c612c77816130e9565b8d5281526001602081905291902099518a55905190890180546001600160a01b0319166001600160a01b03929092169190911790555180516002890191906001600160401b038111612e5c578e612cd882612cd286546131e9565b86613391565b602090601f8311600114612df95790612d059383612dee5750508160011b916000199060031b1c19161790565b90555b51600e811015611e9857612d1f90600388016133e3565b5160048601555160058501555160068401555160038110156118bd5790612d4c83926007600995016133fb565b516008820155019051612d5e816130e9565b612d67816130e9565b60ff8019835416911617905583526004602052612d8782604085206134a8565b612d90816130e9565b60018103612db95750808252600760205260408220805460ff19166001179055610d0190613484565b600290612dc5816130e9565b14612dce575080f35b808252600960205260408220805460ff19166001179055610d019061345c565b015190503880610c38565b9192601f198416858452828420935b818110612e445750908460019594939210612e2b575b505050811b019055612d08565b015160001960f88460031b161c19169055388080612e1e565b92936020600181928786015181550195019301612e08565b634e487b7160e01b8f52604160045260248ffd5b634e487b7160e01b8b52604160045260248bfd5b50346101fc5760203660031901126101fc5760ff6007604060209360043581526001855220015416612b366040518092612fd8565b50346101fc5760203660031901126101fc5760206101f4600435600052600060205260016040600020015490565b50346101fc5760203660031901126101fc5760066040602092600435815260018452200154604051908152f35b50346101fc5760203660031901126101fc57610aa560026040610310936004358152600160205220016132ad565b905034610d19576020366003190112610d195760043563ffffffff60e01b81168091036111d55760209250637965db0b60e01b8114908115612f86575b5015158152f35b6301ffc9a760e01b14905038612f7f565b919082519283825260005b848110612fc3575050826000602080949584010152601f8019910116010190565b80602080928401015182828601015201612fa2565b906003821015612fe55752565b634e487b7160e01b600052602160045260246000fd5b600435906001600160a01b038216820361301157565b600080fd5b602435906001600160a01b038216820361301157565b9181601f84011215613011578235916001600160401b038311613011576020838186019501011161301157565b90600e821015612fe55752565b9060406003198301126130115760043591602435906001600160401b038211613011576130959160040161302c565b9091565b602060408183019282815284518094520192019060005b8181106130bd5750505090565b82516001600160a01b03168452602093840193909201916001016130b0565b906002821015612fe55752565b60041115612fe557565b908151815260018060a01b0360208301511660208201526101208061312960408501516101406040860152610140850190612f97565b9361313c60608201516060860190613059565b6080810151608085015260a081015160a085015260c081015160c085015261316c60e082015160e0860190612fd8565b610100810151610100850152015191613184836130e9565b015290565b602081016020825282518091526040820191602060408360051b8301019401926000915b8383106131bc57505050505090565b90919293946020806131da600193603f1986820301875289516130f3565b970193019301919392906131ad565b90600182811c92168015613219575b602083101461320357565b634e487b7160e01b600052602260045260246000fd5b91607f16916131f8565b61014081019081106001600160401b0382111761323f57604052565b634e487b7160e01b600052604160045260246000fd5b61020081019081106001600160401b0382111761323f57604052565b60c081019081106001600160401b0382111761323f57604052565b90601f801991011681019081106001600160401b0382111761323f57604052565b90604051918260008254926132c1846131e9565b808452936001811690811561332f57506001146132e8575b506132e69250038361328c565b565b90506000929192526020600020906000915b8183106133135750509060206132e692820101386132d9565b60209193508060019154838589010152019101909184926132fa565b9050602092506132e694915060ff191682840152151560051b820101386132d9565b90928092603495946001600160601b03199060601b1683526014830137019060148201520190565b600e821015612fe55752565b6003821015612fe55752565b601f821161339e57505050565b6000526020600020906020601f840160051c830193106133d9575b601f0160051c01905b8181106133cd575050565b600081556001016133c2565b90915081906133b9565b90600e811015612fe55760ff80198354169116179055565b906003811015612fe55760ff80198354169116179055565b60085481101561342e57600860005260206000200190600090565b634e487b7160e01b600052603260045260246000fd5b805482101561342e5760005260206000200190600090565b600a54600160401b81101561323f57611a698160016134809301600a55600a613444565b9055565b600854600160401b81101561323f57611a6981600161348093016008556008613444565b805490600160401b82101561323f5781611a6991600161348094018155613444565b90816020910312613011575180151581036130115790565b818102929181159184041417156134f557565b634e487b7160e01b600052601160045260246000fd5b8054600160401b81101561323f5761352891600182018155613444565b81546001600160a01b0393841660039290921b91821b9390911b1916919091179055565b6002821015612fe55752565b6040519061356582613223565b600061012083828152826020820152606060408201528260608201528260808201528260a08201528260c08201528260e0820152826101008201520152565b6001600160401b03811161323f5760051b60200190565b906135c5826135a4565b6135d2604051918261328c565b82815280926135e3601f19916135a4565b019060005b8281106135f457505050565b6020906135ff613558565b828285010152016135e8565b805182101561342e5760209160051b010190565b1561362657565b60405162461bcd60e51b815260206004820152600f60248201526e496e76616c6964206164647265737360881b6044820152606490fd5b1561366457565b60405162461bcd60e51b815260206004820152601b60248201527f4368616c6c656e676520616c72656164792066696e616c6973656400000000006044820152606490fd5b156136b057565b60405162461bcd60e51b8152602060048201526014602482015273149bdb19481b585b9859d95c881b9bdd081cd95d60621b6044820152606490fd5b156136f357565b60405162461bcd60e51b815260206004820152600f60248201526e2737ba10309036b7b232b930ba37b960891b6044820152606490fd5b60001981146134f55760010190565b919082018092116134f557565b8115613750570490565b634e487b7160e01b600052601260045260246000fd5b1561376d57565b60405162461bcd60e51b81526020600482015260116024820152702737ba10309031b7b73a3934b13aba37b960791b6044820152606490fd5b156137ad57565b60405162461bcd60e51b815260206004820152602860248201527f4d6f64657261746f7220686173206e6f74206a6f696e656420746865207265766044820152671a595dc81c1bdbdb60c21b6064820152608490fd5b919082039182116134f557565b90816000526002602052600460406000200160018060a01b03821660005260205261384260ff604060002054166137a6565b81600052600260205260036040600020019060018060a01b03166000526020526006604060002001549060005260016020526006604060002001549081811015600014613896579061389391613803565b90565b61389391613803565b3360009081527fad3228b676f7d3cd4284a5443f17f1962b36e491b30a40b2405849e597ba5fb5602052604090205460ff16156138d857565b63e2517d3f60e01b60005233600452600060245260446000fd5b60008181526020818152604080832033845290915290205460ff16156139155750565b63e2517d3f60e01b6000523360045260245260446000fd5b6000818152602081815260408083206001600160a01b038616845290915290205460ff166139b1576000818152602081815260408083206001600160a01b0395909516808452949091528120805460ff19166001179055339291907f2f8788117e7eff1d82e926ec794901d17c78024a50270940304540a733656f0d9080a4600190565b5050600090565b6000818152602081815260408083206001600160a01b038616845290915290205460ff16156139b1576000818152602081815260408083206001600160a01b0395909516808452949091528120805460ff19169055339291907ff6391f5c32d9c69d2a47ea670b442974b53935d1edc7fd64eb21e047a839171b9080a4600190565b600091908291613a8a6040518092613a6b602083019563319af33360e01b8752604060248501526064840190612f97565b6001600160a01b0391909116604483015203601f19810183528261328c565b51906a636f6e736f6c652e6c6f675afa50565b6001600160a01b0390911681526040810192916132e69160200190613059565b15613ac457565b60405162461bcd60e51b815260206004820152602160248201527f4552524f523a204e6567617469766520646f6d61696e2072657075746174696f6044820152603760f91b6064820152608490fd5b600090815260016020526040812060030154600b54929392829160ff16906001600160a01b0316825b8654851015613c2857613b4f8588613444565b9054600391821b1c6001600160a01b0316600081815291890160209081526040928390209251630cf571c160e11b81529293929182908190613b9690899060048401613a9d565b0381875afa908115613c1c57600091613be9575b5091613bda613be092613bd46005613bcb87611e59600060019a1215613abd565b940154846134e2565b90613739565b95613739565b94019392613b3c565b906020823d8211613c14575b81613c026020938361328c565b810103126101fc575051613bda613baa565b3d9150613bf5565b6040513d6000823e3d90fd5b9495505050905080156139b15761389391613746565b600b546000939284926001600160a01b039092169190835b8154871015613d47576040613c6b8884613444565b60018060a01b0391549060031b1c1660009060018060a01b031681526003840160205220613cce602060018060a01b03835416866000526001825260ff60036040600020015416906040519384928392630cf571c160e11b845260048401613a9d565b0381895afa908115613c1c57600091613d14575b50613d05600193613bd4613d0b94613cfb600695613d5c565b94859101546134e2565b96613739565b96019593613c56565b906020823d8211613d3f575b81613d2d6020938361328c565b810103126101fc575051613d05613ce2565b3d9150613d20565b94955050505080156139b15761389391613746565b600101806001116134f5576fffffffffffffffffffffffffffffffff811160071b6001600160401b0382821c1160061b1763ffffffff82821c1160051b1761ffff82821c1160041b1760ff82821c1160031b17600f82821c1160021b17906d010102020202030303030303030360801b90821c1a17600101806001116134f5579056fea26469706673582212200367d182c038837bf56109237e8d530341951ab8e19990789f35cbe3791a632f64736f6c634300081c0033ad3228b676f7d3cd4284a5443f17f1962b36e491b30a40b2405849e597ba5fb5",
  "linkReferences": {},
  "deployedLinkReferences": {}
}