{
  "_format": "hh-sol-artifact-1",
  "contractName": "ChallengeManager",
  "sourceName": "contracts/ChallengeManager.sol",
  "abi": [
    {
      "anonymous": false,
      "inputs": [
        {
          "indexed": true,
          "internalType": "address",
          "name": "contributor",
          "type": "address"
        },
        {
          "indexed": false,
          "internalType": "string",
          "name": "title_url",
          "type": "string"
        },
        {
          "indexed": false,
          "internalType": "string",
          "name": "description_url",
          "type": "string"
        },
        {
          "indexed": false,
          "internalType": "enum ChallengeManager.Domain",
          "name": "category",
          "type": "uint8"
        },
        {
          "indexed": false,
          "internalType": "uint256",
          "name": "contribute_at",
          "type": "uint256"
        }
      ],
      "name": "ChallengeContributed",
      "type": "event"
    },
    {
      "anonymous": false,
      "inputs": [
        {
          "indexed": true,
          "internalType": "uint256",
          "name": "challenge_id",
          "type": "uint256"
        },
        {
          "indexed": true,
          "internalType": "address",
          "name": "moderator",
          "type": "address"
        }
      ],
      "name": "ReviewPoolJoined",
      "type": "event"
    },
    {
      "inputs": [
        {
          "internalType": "string",
          "name": "_title_url",
          "type": "string"
        },
        {
          "internalType": "string",
          "name": "_description_url",
          "type": "string"
        },
        {
          "internalType": "enum ChallengeManager.Domain",
          "name": "_category",
          "type": "uint8"
        },
        {
          "internalType": "uint256",
          "name": "_contribute_at",
          "type": "uint256"
        }
      ],
      "name": "contributeChallenge",
      "outputs": [],
      "stateMutability": "nonpayable",
      "type": "function"
    },
    {
      "inputs": [
        {
          "internalType": "uint256",
          "name": "_challenge_id",
          "type": "uint256"
        }
      ],
      "name": "getChallengeById",
      "outputs": [
        {
          "components": [
            {
              "internalType": "uint256",
              "name": "id",
              "type": "uint256"
            },
            {
              "internalType": "address",
              "name": "contributor",
              "type": "address"
            },
            {
              "internalType": "string",
              "name": "title_url",
              "type": "string"
            },
            {
              "internalType": "string",
              "name": "description_url",
              "type": "string"
            },
            {
              "internalType": "enum ChallengeManager.Domain",
              "name": "category",
              "type": "uint8"
            },
            {
              "internalType": "uint256",
              "name": "contribute_at",
              "type": "uint256"
            },
            {
              "internalType": "enum ChallengeManager.ChallengeStatus",
              "name": "status",
              "type": "uint8"
            }
          ],
          "internalType": "struct ChallengeManager.Challenge",
          "name": "",
          "type": "tuple"
        }
      ],
      "stateMutability": "view",
      "type": "function"
    },
    {
      "inputs": [
        {
          "internalType": "address",
          "name": "_contributor_address",
          "type": "address"
        }
      ],
      "name": "getChallengesByContributor",
      "outputs": [
        {
          "components": [
            {
              "internalType": "uint256",
              "name": "id",
              "type": "uint256"
            },
            {
              "internalType": "address",
              "name": "contributor",
              "type": "address"
            },
            {
              "internalType": "string",
              "name": "title_url",
              "type": "string"
            },
            {
              "internalType": "string",
              "name": "description_url",
              "type": "string"
            },
            {
              "internalType": "enum ChallengeManager.Domain",
              "name": "category",
              "type": "uint8"
            },
            {
              "internalType": "uint256",
              "name": "contribute_at",
              "type": "uint256"
            },
            {
              "internalType": "enum ChallengeManager.ChallengeStatus",
              "name": "status",
              "type": "uint8"
            }
          ],
          "internalType": "struct ChallengeManager.Challenge[]",
          "name": "",
          "type": "tuple[]"
        }
      ],
      "stateMutability": "view",
      "type": "function"
    },
    {
      "inputs": [
        {
          "internalType": "address",
          "name": "_moderator_address",
          "type": "address"
        }
      ],
      "name": "getChallengesByModerator",
      "outputs": [
        {
          "components": [
            {
              "internalType": "uint256",
              "name": "id",
              "type": "uint256"
            },
            {
              "internalType": "address",
              "name": "contributor",
              "type": "address"
            },
            {
              "internalType": "string",
              "name": "title_url",
              "type": "string"
            },
            {
              "internalType": "string",
              "name": "description_url",
              "type": "string"
            },
            {
              "internalType": "enum ChallengeManager.Domain",
              "name": "category",
              "type": "uint8"
            },
            {
              "internalType": "uint256",
              "name": "contribute_at",
              "type": "uint256"
            },
            {
              "internalType": "enum ChallengeManager.ChallengeStatus",
              "name": "status",
              "type": "uint8"
            }
          ],
          "internalType": "struct ChallengeManager.Challenge[]",
          "name": "",
          "type": "tuple[]"
        }
      ],
      "stateMutability": "view",
      "type": "function"
    },
    {
      "inputs": [
        {
          "internalType": "uint256",
          "name": "_challenge_id",
          "type": "uint256"
        },
        {
          "internalType": "address",
          "name": "_moderator_address",
          "type": "address"
        }
      ],
      "name": "getJoinReviewPoolStatus",
      "outputs": [
        {
          "internalType": "bool",
          "name": "",
          "type": "bool"
        }
      ],
      "stateMutability": "view",
      "type": "function"
    },
    {
      "inputs": [
        {
          "internalType": "uint256",
          "name": "challenge_id",
          "type": "uint256"
        },
        {
          "internalType": "address",
          "name": "_moderator_address",
          "type": "address"
        }
      ],
      "name": "getModeratorReviewOfChallenge",
      "outputs": [
        {
          "components": [
            {
              "internalType": "address",
              "name": "moderator",
              "type": "address"
            },
            {
              "internalType": "uint256",
              "name": "challenge_id",
              "type": "uint256"
            },
            {
              "internalType": "uint256",
              "name": "review_time",
              "type": "uint256"
            },
            {
              "internalType": "enum ChallengeManager.QualityFactorAnswer",
              "name": "relevance",
              "type": "uint8"
            },
            {
              "internalType": "enum ChallengeManager.QualityFactorAnswer",
              "name": "technical_correctness",
              "type": "uint8"
            },
            {
              "internalType": "enum ChallengeManager.QualityFactorAnswer",
              "name": "completeness",
              "type": "uint8"
            },
            {
              "internalType": "enum ChallengeManager.QualityFactorAnswer",
              "name": "clarity",
              "type": "uint8"
            },
            {
              "internalType": "enum ChallengeManager.QualityFactorAnswer",
              "name": "originality",
              "type": "uint8"
            },
            {
              "internalType": "enum ChallengeManager.QualityFactorAnswer",
              "name": "unbiased",
              "type": "uint8"
            },
            {
              "internalType": "enum ChallengeManager.QualityFactorAnswer",
              "name": "plagiarism_free",
              "type": "uint8"
            },
            {
              "internalType": "enum ChallengeManager.DifficultyLevel",
              "name": "suggested_difficulty",
              "type": "uint8"
            },
            {
              "internalType": "enum ChallengeManager.Domain",
              "name": "suggested_category",
              "type": "uint8"
            },
            {
              "internalType": "uint256",
              "name": "suggested_solve_time",
              "type": "uint256"
            }
          ],
          "internalType": "struct ChallengeManager.ModeratorReview",
          "name": "",
          "type": "tuple"
        }
      ],
      "stateMutability": "view",
      "type": "function"
    },
    {
      "inputs": [],
      "name": "getPendingChallenges",
      "outputs": [
        {
          "components": [
            {
              "internalType": "uint256",
              "name": "id",
              "type": "uint256"
            },
            {
              "internalType": "address",
              "name": "contributor",
              "type": "address"
            },
            {
              "internalType": "string",
              "name": "title_url",
              "type": "string"
            },
            {
              "internalType": "string",
              "name": "description_url",
              "type": "string"
            },
            {
              "internalType": "enum ChallengeManager.Domain",
              "name": "category",
              "type": "uint8"
            },
            {
              "internalType": "uint256",
              "name": "contribute_at",
              "type": "uint256"
            },
            {
              "internalType": "enum ChallengeManager.ChallengeStatus",
              "name": "status",
              "type": "uint8"
            }
          ],
          "internalType": "struct ChallengeManager.Challenge[]",
          "name": "",
          "type": "tuple[]"
        }
      ],
      "stateMutability": "view",
      "type": "function"
    },
    {
      "inputs": [
        {
          "internalType": "uint256",
          "name": "_challenge_id",
          "type": "uint256"
        }
      ],
      "name": "joinReviewPool",
      "outputs": [],
      "stateMutability": "nonpayable",
      "type": "function"
    },
    {
      "inputs": [],
      "name": "pass_threshold",
      "outputs": [
        {
          "internalType": "uint256",
          "name": "",
          "type": "uint256"
        }
      ],
      "stateMutability": "view",
      "type": "function"
    },
    {
      "inputs": [],
      "name": "pending_challenges",
      "outputs": [
        {
          "internalType": "uint256",
          "name": "",
          "type": "uint256"
        }
      ],
      "stateMutability": "view",
      "type": "function"
    },
    {
      "inputs": [],
      "name": "quorum",
      "outputs": [
        {
          "internalType": "uint256",
          "name": "",
          "type": "uint256"
        }
      ],
      "stateMutability": "view",
      "type": "function"
    },
    {
      "inputs": [],
      "name": "total_challenges",
      "outputs": [
        {
          "internalType": "uint256",
          "name": "",
          "type": "uint256"
        }
      ],
      "stateMutability": "view",
      "type": "function"
    },
    {
      "inputs": [
        {
          "internalType": "uint256",
          "name": "_challenge_id",
          "type": "uint256"
        },
        {
          "internalType": "enum ChallengeManager.QualityFactorAnswer",
          "name": "_relevance",
          "type": "uint8"
        },
        {
          "internalType": "enum ChallengeManager.QualityFactorAnswer",
          "name": "_technical_correctness",
          "type": "uint8"
        },
        {
          "internalType": "enum ChallengeManager.QualityFactorAnswer",
          "name": "_completeness",
          "type": "uint8"
        },
        {
          "internalType": "enum ChallengeManager.QualityFactorAnswer",
          "name": "_clarity",
          "type": "uint8"
        },
        {
          "internalType": "enum ChallengeManager.QualityFactorAnswer",
          "name": "_originality",
          "type": "uint8"
        },
        {
          "internalType": "enum ChallengeManager.QualityFactorAnswer",
          "name": "_unbiased",
          "type": "uint8"
        },
        {
          "internalType": "enum ChallengeManager.QualityFactorAnswer",
          "name": "_plagiarism_free",
          "type": "uint8"
        },
        {
          "internalType": "enum ChallengeManager.DifficultyLevel",
          "name": "_suggested_difficulty",
          "type": "uint8"
        },
        {
          "internalType": "enum ChallengeManager.Domain",
          "name": "_suggested_category",
          "type": "uint8"
        },
        {
          "internalType": "uint256",
          "name": "_suggested_solve_time",
          "type": "uint256"
        }
      ],
      "name": "updateModeratorReview",
      "outputs": [],
      "stateMutability": "nonpayable",
      "type": "function"
    }
  ],
  "bytecode": "0x60806040526000600455600060055560036006556050600755348015602357600080fd5b50613721806100336000396000f3fe608060405234801561001057600080fd5b50600436106100cf5760003560e01c80635a14c9441161008c57806392376e131161006657806392376e1314610214578063a0c2f47f14610244578063be21f20c14610260578063c80191b81461027e576100cf565b80635a14c944146101ac5780635d9db5c4146101c8578063616e2e56146101e4576100cf565b80630f335603146100d45780631703a01814610104578063232dd5ab146101225780632b366996146101405780634c7b5a8e1461015e5780635057494a1461017c575b600080fd5b6100ee60048036038101906100e991906125c0565b6102ae565b6040516100fb9190612830565b60405180910390f35b61010c6105c7565b604051610119919061285b565b60405180910390f35b61012a6105cd565b604051610137919061285b565b60405180910390f35b6101486105d3565b604051610155919061285b565b60405180910390f35b6101666105d9565b604051610173919061285b565b60405180910390f35b61019660048036038101906101919190612876565b6105df565b6040516101a39190612ae0565b60405180910390f35b6101c660048036038101906101c19190612b02565b61096d565b005b6101e260048036038101906101dd9190612bb9565b610bbb565b005b6101fe60048036038101906101f99190612876565b610fd1565b60405161020b9190612ae0565b60405180910390f35b61022e60048036038101906102299190612b02565b61135f565b60405161023b9190612d03565b60405180910390f35b61025e60048036038101906102599190612d6f565b6115b2565b005b610268611d27565b6040516102759190612ae0565b60405180910390f35b610298600480360381019061029391906125c0565b612057565b6040516102a59190612e7e565b60405180910390f35b6102b6612381565b6102d96040518060600160405280602b815260200161360f602b913983856120c2565b6001600084815260200190815260200160002060010160008373ffffffffffffffffffffffffffffffffffffffff1673ffffffffffffffffffffffffffffffffffffffff168152602001908152602001600020604051806101a00160405290816000820160009054906101000a900473ffffffffffffffffffffffffffffffffffffffff1673ffffffffffffffffffffffffffffffffffffffff1673ffffffffffffffffffffffffffffffffffffffff16815260200160018201548152602001600282015481526020016003820160009054906101000a900460ff1660018111156103c7576103c661261e565b5b60018111156103d9576103d861261e565b5b81526020016003820160019054906101000a900460ff1660018111156104025761040161261e565b5b60018111156104145761041361261e565b5b81526020016003820160029054906101000a900460ff16600181111561043d5761043c61261e565b5b600181111561044f5761044e61261e565b5b81526020016003820160039054906101000a900460ff1660018111156104785761047761261e565b5b600181111561048a5761048961261e565b5b81526020016003820160049054906101000a900460ff1660018111156104b3576104b261261e565b5b60018111156104c5576104c461261e565b5b81526020016003820160059054906101000a900460ff1660018111156104ee576104ed61261e565b5b6001811115610500576104ff61261e565b5b81526020016003820160069054906101000a900460ff1660018111156105295761052861261e565b5b600181111561053b5761053a61261e565b5b81526020016003820160079054906101000a900460ff1660028111156105645761056361261e565b5b60028111156105765761057561261e565b5b81526020016003820160089054906101000a900460ff16600d81111561059f5761059e61261e565b5b600d8111156105b1576105b061261e565b5b8152602001600482015481525050905092915050565b60065481565b60075481565b60055481565b60045481565b60606000600360008473ffffffffffffffffffffffffffffffffffffffff1673ffffffffffffffffffffffffffffffffffffffff16815260200190815260200160002080548060200260200160405190810160405280929190818152602001828054801561066c57602002820191906000526020600020905b815481526020019060010190808311610658575b505050505090506000815167ffffffffffffffff8111156106905761068f612e99565b5b6040519080825280602002602001820160405280156106c957816020015b6106b66124a1565b8152602001906001900390816106ae5790505b50905060005b825181101561093e576000808483815181106106ee576106ed612ec8565b5b602002602001015181526020019081526020016000206040518060e0016040529081600082015481526020016001820160009054906101000a900473ffffffffffffffffffffffffffffffffffffffff1673ffffffffffffffffffffffffffffffffffffffff1673ffffffffffffffffffffffffffffffffffffffff16815260200160028201805461077f90612f26565b80601f01602080910402602001604051908101604052809291908181526020018280546107ab90612f26565b80156107f85780601f106107cd576101008083540402835291602001916107f8565b820191906000526020600020905b8154815290600101906020018083116107db57829003601f168201915b5050505050815260200160038201805461081190612f26565b80601f016020809104026020016040519081016040528092919081815260200182805461083d90612f26565b801561088a5780601f1061085f5761010080835404028352916020019161088a565b820191906000526020600020905b81548152906001019060200180831161086d57829003601f168201915b505050505081526020016004820160009054906101000a900460ff16600d8111156108b8576108b761261e565b5b600d8111156108ca576108c961261e565b5b8152602001600582015481526020016006820160009054906101000a900460ff1660028111156108fd576108fc61261e565b5b600281111561090f5761090e61261e565b5b8152505082828151811061092657610925612ec8565b5b602002602001018190525080806001019150506106cf565b506109636040518060600160405280602b81526020016135e4602b91398584516120c2565b8092505050919050565b600015156001600083815260200190815260200160002060020160003373ffffffffffffffffffffffffffffffffffffffff1673ffffffffffffffffffffffffffffffffffffffff16815260200190815260200160002060009054906101000a900460ff16151514610a14576040517f08c379a0000000000000000000000000000000000000000000000000000000008152600401610a0b90612fda565b60405180910390fd5b600360003373ffffffffffffffffffffffffffffffffffffffff1673ffffffffffffffffffffffffffffffffffffffff168152602001908152602001600020819080600181540180825580915050600190039060005260206000200160009091909190915055600060016000838152602001908152602001600020905080600001339080600181540180825580915050600190039060005260206000200160009091909190916101000a81548173ffffffffffffffffffffffffffffffffffffffff021916908373ffffffffffffffffffffffffffffffffffffffff16021790555060018160020160003373ffffffffffffffffffffffffffffffffffffffff1673ffffffffffffffffffffffffffffffffffffffff16815260200190815260200160002060006101000a81548160ff0219169083151502179055503373ffffffffffffffffffffffffffffffffffffffff16827f07fe5c562bb72cc8709dc10987f69acf04ba0d45c871d6c281e32df878063dcd60405160405180910390a3610bb76040518060600160405280603181526020016136bb6031913933846120c2565b5050565b600060046000815480929190610bd090613029565b9190505590506040518060e001604052808281526020013373ffffffffffffffffffffffffffffffffffffffff16815260200188888080601f016020809104026020016040519081016040528093929190818152602001838380828437600081840152601f19601f82011690508083019250505050505050815260200186868080601f016020809104026020016040519081016040528093929190818152602001838380828437600081840152601f19601f82011690508083019250505050505050815260200184600d811115610caa57610ca961261e565b5b815260200183815260200160006002811115610cc957610cc861261e565b5b8152506000808381526020019081526020016000206000820151816000015560208201518160010160006101000a81548173ffffffffffffffffffffffffffffffffffffffff021916908373ffffffffffffffffffffffffffffffffffffffff1602179055506040820151816002019081610d44919061321d565b506060820151816003019081610d5a919061321d565b5060808201518160040160006101000a81548160ff0219169083600d811115610d8657610d8561261e565b5b021790555060a0820151816005015560c08201518160060160006101000a81548160ff02191690836002811115610dc057610dbf61261e565b5b0217905550905050600260003373ffffffffffffffffffffffffffffffffffffffff1673ffffffffffffffffffffffffffffffffffffffff16815260200190815260200160002081908060018154018082558091505060019003906000526020600020016000909190919091505560056000815480929190610e4190613029565b9190505550610e6a6040518060600160405280602b815260200161358c602b9139823385612161565b610eed6040518060400160405280601781526020017f2d205469746c652075726c20202020202020203a20257300000000000000000081525088888080601f016020809104026020016040519081016040528093929190818152602001838380828437600081840152601f19601f82011690508083019250505050505050612203565b610f706040518060400160405280601781526020017f2d204465736372697074696f6e2075726c20203a20257300000000000000000081525086868080601f016020809104026020016040519081016040528093929190818152602001838380828437600081840152601f19601f82011690508083019250505050505050612203565b3373ffffffffffffffffffffffffffffffffffffffff167f42672180e30fb0e2e6ae998046a0806bf23368de710977e1a63920574c378a1c888888888888604051610fc09695949392919061333a565b60405180910390a250505050505050565b60606000600260008473ffffffffffffffffffffffffffffffffffffffff1673ffffffffffffffffffffffffffffffffffffffff16815260200190815260200160002080548060200260200160405190810160405280929190818152602001828054801561105e57602002820191906000526020600020905b81548152602001906001019080831161104a575b505050505090506000815167ffffffffffffffff81111561108257611081612e99565b5b6040519080825280602002602001820160405280156110bb57816020015b6110a86124a1565b8152602001906001900390816110a05790505b50905060005b8251811015611330576000808483815181106110e0576110df612ec8565b5b602002602001015181526020019081526020016000206040518060e0016040529081600082015481526020016001820160009054906101000a900473ffffffffffffffffffffffffffffffffffffffff1673ffffffffffffffffffffffffffffffffffffffff1673ffffffffffffffffffffffffffffffffffffffff16815260200160028201805461117190612f26565b80601f016020809104026020016040519081016040528092919081815260200182805461119d90612f26565b80156111ea5780601f106111bf576101008083540402835291602001916111ea565b820191906000526020600020905b8154815290600101906020018083116111cd57829003601f168201915b5050505050815260200160038201805461120390612f26565b80601f016020809104026020016040519081016040528092919081815260200182805461122f90612f26565b801561127c5780601f106112515761010080835404028352916020019161127c565b820191906000526020600020905b81548152906001019060200180831161125f57829003601f168201915b505050505081526020016004820160009054906101000a900460ff16600d8111156112aa576112a961261e565b5b600d8111156112bc576112bb61261e565b5b8152602001600582015481526020016006820160009054906101000a900460ff1660028111156112ef576112ee61261e565b5b60028111156113015761130061261e565b5b8152505082828151811061131857611317612ec8565b5b602002602001018190525080806001019150506110c1565b506113556040518060600160405280602d815260200161368e602d91398584516120c2565b8092505050919050565b6113676124a1565b61138a60405180606001604052806021815260200161366d6021913933846120c2565b6000808381526020019081526020016000206040518060e0016040529081600082015481526020016001820160009054906101000a900473ffffffffffffffffffffffffffffffffffffffff1673ffffffffffffffffffffffffffffffffffffffff1673ffffffffffffffffffffffffffffffffffffffff16815260200160028201805461141790612f26565b80601f016020809104026020016040519081016040528092919081815260200182805461144390612f26565b80156114905780601f1061146557610100808354040283529160200191611490565b820191906000526020600020905b81548152906001019060200180831161147357829003601f168201915b505050505081526020016003820180546114a990612f26565b80601f01602080910402602001604051908101604052809291908181526020018280546114d590612f26565b80156115225780601f106114f757610100808354040283529160200191611522565b820191906000526020600020905b81548152906001019060200180831161150557829003601f168201915b505050505081526020016004820160009054906101000a900460ff16600d8111156115505761154f61261e565b5b600d8111156115625761156161261e565b5b8152602001600582015481526020016006820160009054906101000a900460ff1660028111156115955761159461261e565b5b60028111156115a7576115a661261e565b5b815250509050919050565b60011515600160008d815260200190815260200160002060020160003373ffffffffffffffffffffffffffffffffffffffff1673ffffffffffffffffffffffffffffffffffffffff16815260200190815260200160002060009054906101000a900460ff16151514611659576040517f08c379a000000000000000000000000000000000000000000000000000000000815260040161165090613403565b60405180910390fd5b6000600160008d81526020019081526020016000209050604051806101a001604052803373ffffffffffffffffffffffffffffffffffffffff1681526020018d81526020014281526020018c60018111156116b7576116b661261e565b5b81526020018b60018111156116cf576116ce61261e565b5b81526020018a60018111156116e7576116e661261e565b5b81526020018960018111156116ff576116fe61261e565b5b81526020018860018111156117175761171661261e565b5b815260200187600181111561172f5761172e61261e565b5b81526020018660018111156117475761174661261e565b5b815260200185600281111561175f5761175e61261e565b5b815260200184600d8111156117775761177661261e565b5b8152602001838152508160010160003373ffffffffffffffffffffffffffffffffffffffff1673ffffffffffffffffffffffffffffffffffffffff16815260200190815260200160002060008201518160000160006101000a81548173ffffffffffffffffffffffffffffffffffffffff021916908373ffffffffffffffffffffffffffffffffffffffff160217905550602082015181600101556040820151816002015560608201518160030160006101000a81548160ff021916908360018111156118475761184661261e565b5b021790555060808201518160030160016101000a81548160ff021916908360018111156118775761187661261e565b5b021790555060a08201518160030160026101000a81548160ff021916908360018111156118a7576118a661261e565b5b021790555060c08201518160030160036101000a81548160ff021916908360018111156118d7576118d661261e565b5b021790555060e08201518160030160046101000a81548160ff021916908360018111156119075761190661261e565b5b02179055506101008201518160030160056101000a81548160ff021916908360018111156119385761193761261e565b5b02179055506101208201518160030160066101000a81548160ff021916908360018111156119695761196861261e565b5b02179055506101408201518160030160076101000a81548160ff0219169083600281111561199a5761199961261e565b5b02179055506101608201518160030160086101000a81548160ff0219169083600d8111156119cb576119ca61261e565b5b02179055506101808201518160040155905050611a016040518060600160405280602d81526020016135b7602d9139338e6120c2565b611a526040518060400160405280600f81526020017f2d2052656c6576616e63653a20257300000000000000000000000000000000008152508c6001811115611a4d57611a4c61261e565b5b61229f565b611aa36040518060400160405280601b81526020017f2d20546563686e6963616c20636f72726563746e6573733a20257300000000008152508b6001811115611a9e57611a9d61261e565b5b61229f565b611af46040518060400160405280601281526020017f2d20436f6d706c6574656e6573733a20257300000000000000000000000000008152508a6001811115611aef57611aee61261e565b5b61229f565b611b456040518060400160405280600d81526020017f2d20436c61726974793a20257300000000000000000000000000000000000000815250896001811115611b4057611b3f61261e565b5b61229f565b611b966040518060400160405280601181526020017f2d204f726967696e616c6974793a202573000000000000000000000000000000815250886001811115611b9157611b9061261e565b5b61229f565b611be76040518060400160405280600e81526020017f2d20556e6269617365643a202573000000000000000000000000000000000000815250876001811115611be257611be161261e565b5b61229f565b611c386040518060400160405280601581526020017f2d20506c616769617269736d20667265653a2025730000000000000000000000815250866001811115611c3357611c3261261e565b5b61229f565b611c896040518060400160405280601a81526020017f2d2053756767657374656420646966666963756c74793a202573000000000000815250856002811115611c8457611c8361261e565b5b61229f565b611cda6040518060400160405280601881526020017f2d205375676765737465642063617465676f72793a202573000000000000000081525084600d811115611cd557611cd461261e565b5b61229f565b611d196040518060400160405280601a81526020017f2d2053756767657374656420736f6c76652074696d653a2025730000000000008152508361229f565b505050505050505050505050565b6060600060055467ffffffffffffffff811115611d4757611d46612e99565b5b604051908082528060200260200182016040528015611d8057816020015b611d6d6124a1565b815260200190600190039081611d655790505b50905060005b60045481101561202b5760006002811115611da457611da361261e565b5b60008083815260200190815260200160002060060160009054906101000a900460ff166002811115611dd957611dd861261e565b5b0361201e576000808281526020019081526020016000206040518060e0016040529081600082015481526020016001820160009054906101000a900473ffffffffffffffffffffffffffffffffffffffff1673ffffffffffffffffffffffffffffffffffffffff1673ffffffffffffffffffffffffffffffffffffffff168152602001600282018054611e6b90612f26565b80601f0160208091040260200160405190810160405280929190818152602001828054611e9790612f26565b8015611ee45780601f10611eb957610100808354040283529160200191611ee4565b820191906000526020600020905b815481529060010190602001808311611ec757829003601f168201915b50505050508152602001600382018054611efd90612f26565b80601f0160208091040260200160405190810160405280929190818152602001828054611f2990612f26565b8015611f765780601f10611f4b57610100808354040283529160200191611f76565b820191906000526020600020905b815481529060010190602001808311611f5957829003601f168201915b505050505081526020016004820160009054906101000a900460ff16600d811115611fa457611fa361261e565b5b600d811115611fb657611fb561261e565b5b8152602001600582015481526020016006820160009054906101000a900460ff166002811115611fe957611fe861261e565b5b6002811115611ffb57611ffa61261e565b5b8152505082828151811061201257612011612ec8565b5b60200260200101819052505b8080600101915050611d86565b5061205060405180606001604052806033815260200161363a603391393383516120c2565b8091505090565b60006001600084815260200190815260200160002060020160008373ffffffffffffffffffffffffffffffffffffffff1673ffffffffffffffffffffffffffffffffffffffff16815260200190815260200160002060009054906101000a900460ff16905092915050565b61215c8383836040516024016120da9392919061346b565b6040516020818303038152906040527f0d26b925000000000000000000000000000000000000000000000000000000007bffffffffffffffffffffffffffffffffffffffffffffffffffffffff19166020820180517bffffffffffffffffffffffffffffffffffffffffffffffffffffffff838183161783525050505061233b565b505050565b6121fd8484848460405160240161217b94939291906134a9565b6040516020818303038152906040527f4f04fdc6000000000000000000000000000000000000000000000000000000007bffffffffffffffffffffffffffffffffffffffffffffffffffffffff19166020820180517bffffffffffffffffffffffffffffffffffffffffffffffffffffffff838183161783525050505061233b565b50505050565b61229b82826040516024016122199291906134f5565b6040516020818303038152906040527f4b5c4277000000000000000000000000000000000000000000000000000000007bffffffffffffffffffffffffffffffffffffffffffffffffffffffff19166020820180517bffffffffffffffffffffffffffffffffffffffffffffffffffffffff838183161783525050505061233b565b5050565b61233782826040516024016122b592919061352c565b6040516020818303038152906040527fb60e72cc000000000000000000000000000000000000000000000000000000007bffffffffffffffffffffffffffffffffffffffffffffffffffffffff19166020820180517bffffffffffffffffffffffffffffffffffffffffffffffffffffffff838183161783525050505061233b565b5050565b6123528161234a612355612376565b63ffffffff16565b50565b60006a636f6e736f6c652e6c6f679050600080835160208501845afa505050565b612518819050919050565b604051806101a00160405280600073ffffffffffffffffffffffffffffffffffffffff1681526020016000815260200160008152602001600060018111156123cc576123cb61261e565b5b8152602001600060018111156123e5576123e461261e565b5b8152602001600060018111156123fe576123fd61261e565b5b8152602001600060018111156124175761241661261e565b5b8152602001600060018111156124305761242f61261e565b5b8152602001600060018111156124495761244861261e565b5b8152602001600060018111156124625761246161261e565b5b81526020016000600281111561247b5761247a61261e565b5b81526020016000600d8111156124945761249361261e565b5b8152602001600081525090565b6040518060e0016040528060008152602001600073ffffffffffffffffffffffffffffffffffffffff16815260200160608152602001606081526020016000600d8111156124f2576124f161261e565b5b815260200160008152602001600060028111156125125761251161261e565b5b81525090565b61252061355c565b565b600080fd5b600080fd5b6000819050919050565b61253f8161252c565b811461254a57600080fd5b50565b60008135905061255c81612536565b92915050565b600073ffffffffffffffffffffffffffffffffffffffff82169050919050565b600061258d82612562565b9050919050565b61259d81612582565b81146125a857600080fd5b50565b6000813590506125ba81612594565b92915050565b600080604083850312156125d7576125d6612522565b5b60006125e58582860161254d565b92505060206125f6858286016125ab565b9150509250929050565b61260981612582565b82525050565b6126188161252c565b82525050565b7f4e487b7100000000000000000000000000000000000000000000000000000000600052602160045260246000fd5b6002811061265e5761265d61261e565b5b50565b600081905061266f8261264d565b919050565b600061267f82612661565b9050919050565b61268f81612674565b82525050565b600381106126a6576126a561261e565b5b50565b60008190506126b782612695565b919050565b60006126c7826126a9565b9050919050565b6126d7816126bc565b82525050565b600e81106126ee576126ed61261e565b5b50565b60008190506126ff826126dd565b919050565b600061270f826126f1565b9050919050565b61271f81612704565b82525050565b6101a08201600082015161273c6000850182612600565b50602082015161274f602085018261260f565b506040820151612762604085018261260f565b5060608201516127756060850182612686565b5060808201516127886080850182612686565b5060a082015161279b60a0850182612686565b5060c08201516127ae60c0850182612686565b5060e08201516127c160e0850182612686565b506101008201516127d6610100850182612686565b506101208201516127eb610120850182612686565b506101408201516128006101408501826126ce565b50610160820151612815610160850182612716565b5061018082015161282a61018085018261260f565b50505050565b60006101a0820190506128466000830184612725565b92915050565b6128558161252c565b82525050565b6000602082019050612870600083018461284c565b92915050565b60006020828403121561288c5761288b612522565b5b600061289a848285016125ab565b91505092915050565b600081519050919050565b600082825260208201905092915050565b6000819050602082019050919050565b600081519050919050565b600082825260208201905092915050565b60005b838110156129095780820151818401526020810190506128ee565b60008484015250505050565b6000601f19601f8301169050919050565b6000612931826128cf565b61293b81856128da565b935061294b8185602086016128eb565b61295481612915565b840191505092915050565b600381106129705761296f61261e565b5b50565b60008190506129818261295f565b919050565b600061299182612973565b9050919050565b6129a181612986565b82525050565b600060e0830160008301516129bf600086018261260f565b5060208301516129d26020860182612600565b50604083015184820360408601526129ea8282612926565b91505060608301518482036060860152612a048282612926565b9150506080830151612a196080860182612716565b5060a0830151612a2c60a086018261260f565b5060c0830151612a3f60c0860182612998565b508091505092915050565b6000612a5683836129a7565b905092915050565b6000602082019050919050565b6000612a76826128a3565b612a8081856128ae565b935083602082028501612a92856128bf565b8060005b85811015612ace5784840389528151612aaf8582612a4a565b9450612aba83612a5e565b925060208a01995050600181019050612a96565b50829750879550505050505092915050565b60006020820190508181036000830152612afa8184612a6b565b905092915050565b600060208284031215612b1857612b17612522565b5b6000612b268482850161254d565b91505092915050565b600080fd5b600080fd5b600080fd5b60008083601f840112612b5457612b53612b2f565b5b8235905067ffffffffffffffff811115612b7157612b70612b34565b5b602083019150836001820283011115612b8d57612b8c612b39565b5b9250929050565b600e8110612ba157600080fd5b50565b600081359050612bb381612b94565b92915050565b60008060008060008060808789031215612bd657612bd5612522565b5b600087013567ffffffffffffffff811115612bf457612bf3612527565b5b612c0089828a01612b3e565b9650965050602087013567ffffffffffffffff811115612c2357612c22612527565b5b612c2f89828a01612b3e565b94509450506040612c4289828a01612ba4565b9250506060612c5389828a0161254d565b9150509295509295509295565b600060e083016000830151612c78600086018261260f565b506020830151612c8b6020860182612600565b5060408301518482036040860152612ca38282612926565b91505060608301518482036060860152612cbd8282612926565b9150506080830151612cd26080860182612716565b5060a0830151612ce560a086018261260f565b5060c0830151612cf860c0860182612998565b508091505092915050565b60006020820190508181036000830152612d1d8184612c60565b905092915050565b60028110612d3257600080fd5b50565b600081359050612d4481612d25565b92915050565b60038110612d5757600080fd5b50565b600081359050612d6981612d4a565b92915050565b60008060008060008060008060008060006101608c8e031215612d9557612d94612522565b5b6000612da38e828f0161254d565b9b50506020612db48e828f01612d35565b9a50506040612dc58e828f01612d35565b9950506060612dd68e828f01612d35565b9850506080612de78e828f01612d35565b97505060a0612df88e828f01612d35565b96505060c0612e098e828f01612d35565b95505060e0612e1a8e828f01612d35565b945050610100612e2c8e828f01612d5a565b935050610120612e3e8e828f01612ba4565b925050610140612e508e828f0161254d565b9150509295989b509295989b9093969950565b60008115159050919050565b612e7881612e63565b82525050565b6000602082019050612e936000830184612e6f565b92915050565b7f4e487b7100000000000000000000000000000000000000000000000000000000600052604160045260246000fd5b7f4e487b7100000000000000000000000000000000000000000000000000000000600052603260045260246000fd5b7f4e487b7100000000000000000000000000000000000000000000000000000000600052602260045260246000fd5b60006002820490506001821680612f3e57607f821691505b602082108103612f5157612f50612ef7565b5b50919050565b600082825260208201905092915050565b7f596f75206861766520616c7265616479206a6f696e656420746869732072657660008201527f69657720706f6f6c2e0000000000000000000000000000000000000000000000602082015250565b6000612fc4602983612f57565b9150612fcf82612f68565b604082019050919050565b60006020820190508181036000830152612ff381612fb7565b9050919050565b7f4e487b7100000000000000000000000000000000000000000000000000000000600052601160045260246000fd5b60006130348261252c565b91507fffffffffffffffffffffffffffffffffffffffffffffffffffffffffffffffff820361306657613065612ffa565b5b600182019050919050565b60008190508160005260206000209050919050565b60006020601f8301049050919050565b600082821b905092915050565b6000600883026130d37fffffffffffffffffffffffffffffffffffffffffffffffffffffffffffffffff82613096565b6130dd8683613096565b95508019841693508086168417925050509392505050565b6000819050919050565b600061311a6131156131108461252c565b6130f5565b61252c565b9050919050565b6000819050919050565b613134836130ff565b61314861314082613121565b8484546130a3565b825550505050565b600090565b61315d613150565b61316881848461312b565b505050565b5b8181101561318c57613181600082613155565b60018101905061316e565b5050565b601f8211156131d1576131a281613071565b6131ab84613086565b810160208510156131ba578190505b6131ce6131c685613086565b83018261316d565b50505b505050565b600082821c905092915050565b60006131f4600019846008026131d6565b1980831691505092915050565b600061320d83836131e3565b9150826002028217905092915050565b613226826128cf565b67ffffffffffffffff81111561323f5761323e612e99565b5b6132498254612f26565b613254828285613190565b600060209050601f8311600181146132875760008415613275578287015190505b61327f8582613201565b8655506132e7565b601f19841661329586613071565b60005b828110156132bd57848901518255600182019150602085019450602081019050613298565b868310156132da57848901516132d6601f8916826131e3565b8355505b6001600288020188555050505b505050505050565b82818337600083830152505050565b600061330a8385612f57565b93506133178385846132ef565b61332083612915565b840190509392505050565b61333481612704565b82525050565b6000608082019050818103600083015261335581888a6132fe565b9050818103602083015261336a8186886132fe565b9050613379604083018561332b565b613386606083018461284c565b979650505050505050565b7f596f752068617665206e6f74206a6f696e65642074686973207265766965772060008201527f706f6f6c2e000000000000000000000000000000000000000000000000000000602082015250565b60006133ed602583612f57565b91506133f882613391565b604082019050919050565b6000602082019050818103600083015261341c816133e0565b9050919050565b600061342e826128cf565b6134388185612f57565b93506134488185602086016128eb565b61345181612915565b840191505092915050565b61346581612582565b82525050565b600060608201905081810360008301526134858186613423565b9050613494602083018561345c565b6134a1604083018461284c565b949350505050565b600060808201905081810360008301526134c38187613423565b90506134d2602083018661284c565b6134df604083018561345c565b6134ec606083018461284c565b95945050505050565b6000604082019050818103600083015261350f8185613423565b905081810360208301526135238184613423565b90509392505050565b600060408201905081810360008301526135468185613423565b9050613555602083018461284c565b9392505050565b7f4e487b7100000000000000000000000000000000000000000000000000000000600052605160045260246000fdfe4368616c6c656e67652023257320636f6e747269627574656420627920257320617420257320776974683a4d6f64657261746f7220257320757064617465642072657669657720666f72206368616c6c656e67652023257355736572202573206861642066657463686564202573206d6f64657261746564206368616c6c656e6765735573657220257320686164206665746368656420726576696577206f66206368616c6c656e67652023257355736572202573206861642066657463682025732070656e64696e6720636f6e7472696275746564206368616c6c656e67657355736572202573206861642066657463686564206368616c6c656e6765202325735573657220257320686164206665746368656420257320636f6e7472696275746564206368616c6c656e6765734d6f64657261746f72202573206a6f696e65642072657669657720706f6f6c20666f72206368616c6c656e676520232573a264697066735822122024136565e1d613b3ede74a1fbb2cdb4d2efe59ff099bcd151111531496c9cf3364736f6c634300081c0033",
  "linkReferences": {},
  "deployedLinkReferences": {}
}