{
  "_format": "hh-sol-artifact-1",
  "contractName": "ChallengeManager",
  "sourceName": "contracts/ChallengeManager.sol",
  "abi": [
    {
      "anonymous": false,
      "inputs": [
        {
          "indexed": true,
          "internalType": "address",
          "name": "contributor",
          "type": "address"
        },
        {
          "indexed": false,
          "internalType": "string",
          "name": "title_url",
          "type": "string"
        },
        {
          "indexed": false,
          "internalType": "string",
          "name": "description_url",
          "type": "string"
        },
        {
          "indexed": false,
          "internalType": "enum SystemEnums.Domain",
          "name": "category",
          "type": "uint8"
        },
        {
          "indexed": false,
          "internalType": "uint256",
          "name": "contribute_at",
          "type": "uint256"
        }
      ],
      "name": "ChallengeContributed",
      "type": "event"
    },
    {
      "anonymous": false,
      "inputs": [
        {
          "indexed": true,
          "internalType": "uint256",
          "name": "challengeId",
          "type": "uint256"
        },
        {
          "indexed": false,
          "internalType": "enum SystemEnums.ChallengeStatus",
          "name": "status",
          "type": "uint8"
        },
        {
          "indexed": false,
          "internalType": "uint256",
          "name": "averagePercent",
          "type": "uint256"
        }
      ],
      "name": "ChallengeFinalized",
      "type": "event"
    },
    {
      "anonymous": false,
      "inputs": [
        {
          "indexed": true,
          "internalType": "address",
          "name": "user",
          "type": "address"
        },
        {
          "indexed": false,
          "internalType": "uint256",
          "name": "challengeId",
          "type": "uint256"
        },
        {
          "indexed": false,
          "internalType": "uint256",
          "name": "joinedAt",
          "type": "uint256"
        }
      ],
      "name": "ChallengeJoinedByUser",
      "type": "event"
    },
    {
      "anonymous": false,
      "inputs": [
        {
          "indexed": true,
          "internalType": "uint256",
          "name": "challenge_id",
          "type": "uint256"
        },
        {
          "indexed": true,
          "internalType": "address",
          "name": "moderator",
          "type": "address"
        }
      ],
      "name": "ReviewPoolJoined",
      "type": "event"
    },
    {
      "anonymous": false,
      "inputs": [
        {
          "indexed": true,
          "internalType": "address",
          "name": "user",
          "type": "address"
        },
        {
          "indexed": false,
          "internalType": "uint256",
          "name": "challengeId",
          "type": "uint256"
        },
        {
          "indexed": false,
          "internalType": "string",
          "name": "solutionUrl",
          "type": "string"
        },
        {
          "indexed": false,
          "internalType": "uint256",
          "name": "submittedAt",
          "type": "uint256"
        }
      ],
      "name": "SolutionSubmitted",
      "type": "event"
    },
    {
      "inputs": [],
      "name": "approved_challenges",
      "outputs": [
        {
          "internalType": "uint256",
          "name": "",
          "type": "uint256"
        }
      ],
      "stateMutability": "view",
      "type": "function"
    },
    {
      "inputs": [
        {
          "internalType": "string",
          "name": "_title_url",
          "type": "string"
        },
        {
          "internalType": "string",
          "name": "_description_url",
          "type": "string"
        },
        {
          "internalType": "enum SystemEnums.Domain",
          "name": "_category",
          "type": "uint8"
        },
        {
          "internalType": "uint256",
          "name": "_contribute_at",
          "type": "uint256"
        }
      ],
      "name": "contributeChallenge",
      "outputs": [],
      "stateMutability": "nonpayable",
      "type": "function"
    },
    {
      "inputs": [],
      "name": "getApprovedChallenges",
      "outputs": [
        {
          "components": [
            {
              "internalType": "uint256",
              "name": "id",
              "type": "uint256"
            },
            {
              "internalType": "address",
              "name": "contributor",
              "type": "address"
            },
            {
              "internalType": "string",
              "name": "title_url",
              "type": "string"
            },
            {
              "internalType": "string",
              "name": "description_url",
              "type": "string"
            },
            {
              "internalType": "enum SystemEnums.Domain",
              "name": "category",
              "type": "uint8"
            },
            {
              "internalType": "uint256",
              "name": "contribute_at",
              "type": "uint256"
            },
            {
              "internalType": "enum SystemEnums.ChallengeStatus",
              "name": "status",
              "type": "uint8"
            },
            {
              "internalType": "uint256",
              "name": "quality_score",
              "type": "uint256"
            },
            {
              "internalType": "enum SystemEnums.DifficultyLevel",
              "name": "difficulty_level",
              "type": "uint8"
            },
            {
              "internalType": "uint256",
              "name": "solve_time",
              "type": "uint256"
            }
          ],
          "internalType": "struct ChallengeManager.Challenge[]",
          "name": "",
          "type": "tuple[]"
        }
      ],
      "stateMutability": "view",
      "type": "function"
    },
    {
      "inputs": [
        {
          "internalType": "uint256",
          "name": "_challenge_id",
          "type": "uint256"
        }
      ],
      "name": "getChallengeById",
      "outputs": [
        {
          "components": [
            {
              "internalType": "uint256",
              "name": "id",
              "type": "uint256"
            },
            {
              "internalType": "address",
              "name": "contributor",
              "type": "address"
            },
            {
              "internalType": "string",
              "name": "title_url",
              "type": "string"
            },
            {
              "internalType": "string",
              "name": "description_url",
              "type": "string"
            },
            {
              "internalType": "enum SystemEnums.Domain",
              "name": "category",
              "type": "uint8"
            },
            {
              "internalType": "uint256",
              "name": "contribute_at",
              "type": "uint256"
            },
            {
              "internalType": "enum SystemEnums.ChallengeStatus",
              "name": "status",
              "type": "uint8"
            },
            {
              "internalType": "uint256",
              "name": "quality_score",
              "type": "uint256"
            },
            {
              "internalType": "enum SystemEnums.DifficultyLevel",
              "name": "difficulty_level",
              "type": "uint8"
            },
            {
              "internalType": "uint256",
              "name": "solve_time",
              "type": "uint256"
            }
          ],
          "internalType": "struct ChallengeManager.Challenge",
          "name": "",
          "type": "tuple"
        }
      ],
      "stateMutability": "view",
      "type": "function"
    },
    {
      "inputs": [
        {
          "internalType": "uint256",
          "name": "_challenge_id",
          "type": "uint256"
        }
      ],
      "name": "getChallengeFinalizedStatus",
      "outputs": [
        {
          "internalType": "bool",
          "name": "",
          "type": "bool"
        }
      ],
      "stateMutability": "view",
      "type": "function"
    },
    {
      "inputs": [
        {
          "internalType": "address",
          "name": "_contributor_address",
          "type": "address"
        }
      ],
      "name": "getChallengesByContributor",
      "outputs": [
        {
          "components": [
            {
              "internalType": "uint256",
              "name": "id",
              "type": "uint256"
            },
            {
              "internalType": "address",
              "name": "contributor",
              "type": "address"
            },
            {
              "internalType": "string",
              "name": "title_url",
              "type": "string"
            },
            {
              "internalType": "string",
              "name": "description_url",
              "type": "string"
            },
            {
              "internalType": "enum SystemEnums.Domain",
              "name": "category",
              "type": "uint8"
            },
            {
              "internalType": "uint256",
              "name": "contribute_at",
              "type": "uint256"
            },
            {
              "internalType": "enum SystemEnums.ChallengeStatus",
              "name": "status",
              "type": "uint8"
            },
            {
              "internalType": "uint256",
              "name": "quality_score",
              "type": "uint256"
            },
            {
              "internalType": "enum SystemEnums.DifficultyLevel",
              "name": "difficulty_level",
              "type": "uint8"
            },
            {
              "internalType": "uint256",
              "name": "solve_time",
              "type": "uint256"
            }
          ],
          "internalType": "struct ChallengeManager.Challenge[]",
          "name": "",
          "type": "tuple[]"
        }
      ],
      "stateMutability": "view",
      "type": "function"
    },
    {
      "inputs": [
        {
          "internalType": "address",
          "name": "_moderator_address",
          "type": "address"
        }
      ],
      "name": "getChallengesByModerator",
      "outputs": [
        {
          "components": [
            {
              "internalType": "uint256",
              "name": "id",
              "type": "uint256"
            },
            {
              "internalType": "address",
              "name": "contributor",
              "type": "address"
            },
            {
              "internalType": "string",
              "name": "title_url",
              "type": "string"
            },
            {
              "internalType": "string",
              "name": "description_url",
              "type": "string"
            },
            {
              "internalType": "enum SystemEnums.Domain",
              "name": "category",
              "type": "uint8"
            },
            {
              "internalType": "uint256",
              "name": "contribute_at",
              "type": "uint256"
            },
            {
              "internalType": "enum SystemEnums.ChallengeStatus",
              "name": "status",
              "type": "uint8"
            },
            {
              "internalType": "uint256",
              "name": "quality_score",
              "type": "uint256"
            },
            {
              "internalType": "enum SystemEnums.DifficultyLevel",
              "name": "difficulty_level",
              "type": "uint8"
            },
            {
              "internalType": "uint256",
              "name": "solve_time",
              "type": "uint256"
            }
          ],
          "internalType": "struct ChallengeManager.Challenge[]",
          "name": "",
          "type": "tuple[]"
        }
      ],
      "stateMutability": "view",
      "type": "function"
    },
    {
      "inputs": [
        {
          "internalType": "uint256",
          "name": "_challenge_id",
          "type": "uint256"
        },
        {
          "internalType": "address",
          "name": "_moderator_address",
          "type": "address"
        }
      ],
      "name": "getJoinReviewPoolStatus",
      "outputs": [
        {
          "internalType": "bool",
          "name": "",
          "type": "bool"
        }
      ],
      "stateMutability": "view",
      "type": "function"
    },
    {
      "inputs": [
        {
          "internalType": "address",
          "name": "_user_address",
          "type": "address"
        },
        {
          "internalType": "address",
          "name": "_solution_address",
          "type": "address"
        }
      ],
      "name": "getJoinedChallengesByUserForPreview",
      "outputs": [
        {
          "components": [
            {
              "internalType": "uint256",
              "name": "challenge_id",
              "type": "uint256"
            },
            {
              "internalType": "string",
              "name": "title_url",
              "type": "string"
            },
            {
              "internalType": "string",
              "name": "description_url",
              "type": "string"
            },
            {
              "internalType": "enum SystemEnums.Domain",
              "name": "domain",
              "type": "uint8"
            },
            {
              "internalType": "enum SystemEnums.SolutionProgress",
              "name": "progress",
              "type": "uint8"
            },
            {
              "internalType": "uint256",
              "name": "joined_at",
              "type": "uint256"
            },
            {
              "internalType": "uint256",
              "name": "score",
              "type": "uint256"
            }
          ],
          "internalType": "struct ChallengeManager.JoinedChallengesPreview[]",
          "name": "",
          "type": "tuple[]"
        }
      ],
      "stateMutability": "view",
      "type": "function"
    },
    {
      "inputs": [
        {
          "internalType": "uint256",
          "name": "challenge_id",
          "type": "uint256"
        },
        {
          "internalType": "address",
          "name": "_moderator_address",
          "type": "address"
        }
      ],
      "name": "getModeratorReviewOfChallenge",
      "outputs": [
        {
          "components": [
            {
              "internalType": "address",
              "name": "moderator",
              "type": "address"
            },
            {
              "internalType": "uint256",
              "name": "challenge_id",
              "type": "uint256"
            },
            {
              "internalType": "uint256",
              "name": "review_time",
              "type": "uint256"
            },
            {
              "internalType": "enum SystemEnums.QualityFactorAnswer",
              "name": "relevance",
              "type": "uint8"
            },
            {
              "internalType": "enum SystemEnums.QualityFactorAnswer",
              "name": "technical_correctness",
              "type": "uint8"
            },
            {
              "internalType": "enum SystemEnums.QualityFactorAnswer",
              "name": "completeness",
              "type": "uint8"
            },
            {
              "internalType": "enum SystemEnums.QualityFactorAnswer",
              "name": "clarity",
              "type": "uint8"
            },
            {
              "internalType": "enum SystemEnums.QualityFactorAnswer",
              "name": "originality",
              "type": "uint8"
            },
            {
              "internalType": "enum SystemEnums.QualityFactorAnswer",
              "name": "unbiased",
              "type": "uint8"
            },
            {
              "internalType": "enum SystemEnums.QualityFactorAnswer",
              "name": "plagiarism_free",
              "type": "uint8"
            },
            {
              "internalType": "enum SystemEnums.DifficultyLevel",
              "name": "suggested_difficulty",
              "type": "uint8"
            },
            {
              "internalType": "enum SystemEnums.Domain",
              "name": "suggested_category",
              "type": "uint8"
            },
            {
              "internalType": "uint256",
              "name": "suggested_solve_time",
              "type": "uint256"
            },
            {
              "internalType": "uint256",
              "name": "review_score",
              "type": "uint256"
            }
          ],
          "internalType": "struct ChallengeManager.ModeratorReview",
          "name": "",
          "type": "tuple"
        }
      ],
      "stateMutability": "view",
      "type": "function"
    },
    {
      "inputs": [],
      "name": "getPendingChallenges",
      "outputs": [
        {
          "components": [
            {
              "internalType": "uint256",
              "name": "id",
              "type": "uint256"
            },
            {
              "internalType": "address",
              "name": "contributor",
              "type": "address"
            },
            {
              "internalType": "string",
              "name": "title_url",
              "type": "string"
            },
            {
              "internalType": "string",
              "name": "description_url",
              "type": "string"
            },
            {
              "internalType": "enum SystemEnums.Domain",
              "name": "category",
              "type": "uint8"
            },
            {
              "internalType": "uint256",
              "name": "contribute_at",
              "type": "uint256"
            },
            {
              "internalType": "enum SystemEnums.ChallengeStatus",
              "name": "status",
              "type": "uint8"
            },
            {
              "internalType": "uint256",
              "name": "quality_score",
              "type": "uint256"
            },
            {
              "internalType": "enum SystemEnums.DifficultyLevel",
              "name": "difficulty_level",
              "type": "uint8"
            },
            {
              "internalType": "uint256",
              "name": "solve_time",
              "type": "uint256"
            }
          ],
          "internalType": "struct ChallengeManager.Challenge[]",
          "name": "",
          "type": "tuple[]"
        }
      ],
      "stateMutability": "view",
      "type": "function"
    },
    {
      "inputs": [
        {
          "internalType": "uint256",
          "name": "_challenge_id",
          "type": "uint256"
        }
      ],
      "name": "getReviewPoolSize",
      "outputs": [
        {
          "internalType": "uint256",
          "name": "",
          "type": "uint256"
        }
      ],
      "stateMutability": "view",
      "type": "function"
    },
    {
      "inputs": [],
      "name": "getReviewQuorum",
      "outputs": [
        {
          "internalType": "uint256",
          "name": "",
          "type": "uint256"
        }
      ],
      "stateMutability": "pure",
      "type": "function"
    },
    {
      "inputs": [
        {
          "internalType": "uint256",
          "name": "_challenge_id",
          "type": "uint256"
        }
      ],
      "name": "joinReviewPool",
      "outputs": [],
      "stateMutability": "nonpayable",
      "type": "function"
    },
    {
      "inputs": [],
      "name": "pending_challenges",
      "outputs": [
        {
          "internalType": "uint256",
          "name": "",
          "type": "uint256"
        }
      ],
      "stateMutability": "view",
      "type": "function"
    },
    {
      "inputs": [
        {
          "internalType": "address",
          "name": "_contributor",
          "type": "address"
        },
        {
          "internalType": "string",
          "name": "_title_url",
          "type": "string"
        },
        {
          "internalType": "string",
          "name": "_description_url",
          "type": "string"
        },
        {
          "internalType": "enum SystemEnums.Domain",
          "name": "_category",
          "type": "uint8"
        },
        {
          "internalType": "uint256",
          "name": "_contribute_at",
          "type": "uint256"
        },
        {
          "internalType": "enum SystemEnums.ChallengeStatus",
          "name": "_status",
          "type": "uint8"
        },
        {
          "internalType": "uint256",
          "name": "_quality_score",
          "type": "uint256"
        },
        {
          "internalType": "enum SystemEnums.DifficultyLevel",
          "name": "_difficulty_level",
          "type": "uint8"
        },
        {
          "internalType": "uint256",
          "name": "_solve_time",
          "type": "uint256"
        }
      ],
      "name": "seedChallenge",
      "outputs": [],
      "stateMutability": "nonpayable",
      "type": "function"
    },
    {
      "inputs": [
        {
          "internalType": "address",
          "name": "_address",
          "type": "address"
        }
      ],
      "name": "setReputationManagerAddress",
      "outputs": [],
      "stateMutability": "nonpayable",
      "type": "function"
    },
    {
      "inputs": [
        {
          "internalType": "uint256",
          "name": "_challenge_id",
          "type": "uint256"
        },
        {
          "internalType": "enum SystemEnums.QualityFactorAnswer",
          "name": "_relevance",
          "type": "uint8"
        },
        {
          "internalType": "enum SystemEnums.QualityFactorAnswer",
          "name": "_technical_correctness",
          "type": "uint8"
        },
        {
          "internalType": "enum SystemEnums.QualityFactorAnswer",
          "name": "_completeness",
          "type": "uint8"
        },
        {
          "internalType": "enum SystemEnums.QualityFactorAnswer",
          "name": "_clarity",
          "type": "uint8"
        },
        {
          "internalType": "enum SystemEnums.QualityFactorAnswer",
          "name": "_originality",
          "type": "uint8"
        },
        {
          "internalType": "enum SystemEnums.QualityFactorAnswer",
          "name": "_unbiased",
          "type": "uint8"
        },
        {
          "internalType": "enum SystemEnums.QualityFactorAnswer",
          "name": "_plagiarism_free",
          "type": "uint8"
        },
        {
          "internalType": "enum SystemEnums.DifficultyLevel",
          "name": "_suggested_difficulty",
          "type": "uint8"
        },
        {
          "internalType": "enum SystemEnums.Domain",
          "name": "_suggested_category",
          "type": "uint8"
        },
        {
          "internalType": "uint256",
          "name": "_suggested_solve_time",
          "type": "uint256"
        }
      ],
      "name": "submitModeratorReview",
      "outputs": [],
      "stateMutability": "nonpayable",
      "type": "function"
    },
    {
      "inputs": [],
      "name": "total_challenges",
      "outputs": [
        {
          "internalType": "uint256",
          "name": "",
          "type": "uint256"
        }
      ],
      "stateMutability": "view",
      "type": "function"
    },
    {
      "inputs": [
        {
          "internalType": "uint256",
          "name": "_challenge_id",
          "type": "uint256"
        },
        {
          "internalType": "string",
          "name": "_solution_base_txid",
          "type": "string"
        },
        {
          "internalType": "address",
          "name": "_solution_address",
          "type": "address"
        }
      ],
      "name": "userJoinChallenge",
      "outputs": [],
      "stateMutability": "nonpayable",
      "type": "function"
    }
  ],
  "bytecode": "0x60808060405234602457600060075560006008556000600955612f9f908161002a8239f35b600080fdfe608080604052600436101561001357600080fd5b600090813560e01c9081630f33560314612584575080632b3669961461256657806345637d8f146120745780634c7b5a8e146120565780635057494a14611e965780635a14c94414611c895780635d9db5c414611770578063616e2e56146115ae5780638758aabb14610d1857806392376e1314610be9578063a22b6a8614610bcb578063a821a06714610b9a578063b969d9201461092b578063be21f20c146107a4578063c361e8cf14610710578063c80191b8146106c2578063cd6e5661146102e6578063dd0e12ca14610145578063e94a78301461011b5763f83eb275146100fd57600080fd5b34610118578060031936011261011857602060405160038152f35b80fd5b50346101185760203660031901126101185760406020916004358152600183522054604051908152f35b5034610118578060031936011261011857610161600954612cc2565b60075482805b8281106101e4576101e0846101d48782519050604051610188606082612a90565b603281527f536d61727420636f6e74726163742025732068616420666574636820257320616020820152717070726f766564206368616c6c656e67657360701b60408201523390612e44565b604051918291826129c7565b0390f35b80855284602052600160ff600660408820015416610201816128a0565b1461020f575b600101610167565b906102de600191838752866020526040872060096040519161023083612a59565b80548352858060a01b038682015416602084015261025060028201612d26565b604084015261026160038201612d26565b606084015261027a60ff60048301541660808501612abd565b600581015460a084015260ff600682015416610295816128a0565b60c0840152600781015460e084015260ff6008820154166102b5816128a0565b61010084015201546101208201526102cd8288612d12565b526102d88187612d12565b50612ac9565b919050610207565b503461011857604036600319011261011857610300612867565b9061030961284c565b9160018060a01b03811691828152600460205260408120936040518086602082985493848152019085526020852092855b8181106106a957505061034f92500386612a90565b60018060a01b03169184519461036486612c5f565b956103726040519788612a90565b808752610381601f1991612c5f565b01835b818110610666575050825b81518110156104e2576103a28183612d12565b518085526020859052604080862090516320cfeb4f60e11b81526001600160a01b038616600482015260248101839052906060826044818b5afa9182156104d757879188918994610481575b5080610427600360ff600461043595015416926040519861040e8a612a75565b895261041c60028201612d26565b60208a015201612d26565b604087015260608601612abd565b600481101561046d57608084015260a083015260c08201526001919061045b828a612d12565b526104668189612d12565b500161038f565b634e487b7160e01b88526021600452602488fd5b92509250506060813d82116104cf575b8161049e60609383612a90565b810103126104cb57805160208201519160048310156104c75760400151929091906104356103ee565b8880fd5b8680fd5b3d9150610491565b6040513d89823e3d90fd5b85848860008061056761057b60609660405190610500606083612a90565b603082527f557365722025732068616420666574636865642070726576696577206f66206a60208301526f6f696e6564206368616c6c656e67657360801b604083015260405193849263319af33360e01b60208501526040602485015260648401906128e4565b90604483015203601f198101835282612a90565b6020815191016a636f6e736f6c652e6c6f675afa5060405191602083019060208452825180925260408401602060408460051b870101940195825b8484106105c35786860387f35b9091929394603f19878203018452875190815181526106066105f4602084015160e0602085015260e08401906128e4565b604084015183820360408501526128e4565b9161061785820151868401906128aa565b6080810151600481101561065257608083015260a0808201519083015260c090810151910152602097880197909594600101930191906105b6565b634e487b7160e01b85526021600452602485fd5b60209060405161067581612a75565b868152606083820152606060408201528660608201528660808201528660a08201528660c082015282828b01015201610384565b845483526001948501948a94506020909301920161033a565b503461011857604036600319011261011857600460406106e061284c565b9282358152600160205220019060018060a01b0316600052602052602060ff604060002054166040519015158152f35b5034610118576020366003190112610118576001600160a01b03610732612867565b16801561076d57806bffffffffffffffffffffffff60a01b60065416176006556bffffffffffffffffffffffff60a01b600554161760055580f35b60405162461bcd60e51b815260206004820152600f60248201526e496e76616c6964206164647265737360881b6044820152606490fd5b50346101185780600319360112610118576107c0600854612cc2565b600754909180805b838110610831576101e0856101d481516040516107e6606082612a90565b603181527f536d61727420636f6e7472616374202573206861642066657463682025732070602082015270656e64696e67206368616c6c656e67657360781b60408201523390612e44565b8083528260205260ff60066040852001541661084c816128a0565b1561085a575b6001016107c8565b90610923600191838552846020526040852060096040519161087b83612a59565b80548352858060a01b038682015416602084015261089b60028201612d26565b60408401526108ac60038201612d26565b60608401526108c560ff60048301541660808501612abd565b600581015460a084015260ff6006820154166108e0816128a0565b60c0840152600781015460e084015260ff600882015416610900816128a0565b61010084015201546101208201526109188289612d12565b526102d88188612d12565b919050610852565b5034610118576060366003190112610118576004356024356001600160401b038111610b255761095f9036906004016128b7565b6044356001600160a01b0381169190829003610b4c57600754841015610b4c5760405163846900cf60e01b815233600482015260248101859052602081604481865afa908115610b8f578691610b50575b50610b4c576103e84202924284046103e81442151715610b385790829186933b15610b3457610a0c9284928360405180968195829463d82ff2e960e01b84523360048501528c6024850152608060448501526084840191612e16565b89606483015203925af18015610b2957610b10575b50503383526004602052610a388260408520612bb4565b600080610aa7610ac7604051610a4f606082612a90565b602181527f55736572202573206a6f696e6564206368616c6c656e676520257320617420256020820152607360f81b6040820152604051928391637c7a8d8f60e11b60208401526080602484015260a48301906128e4565b33604483015287606483015286608483015203601f198101835282612a90565b6020815191016a636f6e736f6c652e6c6f675afa5060405191825260208201527fc9e3de16af1f601c85f1f98f6bc173cd0a8b0fcd25dcd67893470617830fa5f960403392a280f35b81610b1a91612a90565b610b25578238610a21565b8280fd5b6040513d84823e3d90fd5b8380fd5b634e487b7160e01b86526011600452602486fd5b8480fd5b90506020813d602011610b87575b81610b6b60209383612a90565b81010312610b8357518015158103610b8357386109b0565b8580fd5b3d9150610b5e565b6040513d88823e3d90fd5b50346101185760203660031901126101185760ff600160406020936004358152828552200154166040519015158152f35b50346101185780600319360112610118576020600954604051908152f35b50346101185760203660031901126101185760406101e091600435610c0c612c76565b50610c58818451610c1e606082612a90565b602181527f55736572202573206861642066657463686564206368616c6c656e67652023256020820152607360f81b868201523390612e44565b81528060205220600960405191610c6e83612a59565b8054835260018101546001600160a01b03166020840152610c9160028201612d26565b6040840152610ca260038201612d26565b6060840152610cbb60ff60048301541660808501612abd565b600581015460a084015260ff600682015416610cd6816128a0565b60c0840152600781015460e084015260ff600882015416610cf6816128a0565b6101008401520154610120820152604051918291602083526020830190612925565b503461011857610160366003190112610118576002602435101561011857600260443510156101185760026064351015610118576002608435101561011857600260a435101561011857600260c435101561011857600260e435101561011857600361010435101561011857600e6101243510156101185760043581526001602052610dae60ff60016040842001541615612dca565b600435815260016020526004604082200160018060a01b0333168252602052600160ff60408320541615150361155b5760043581526001602090815260408083203384526003810190925282206002015415611546575b610e4f610e46610e3d610e34610e2b610e22604435602435612e37565b60643590612e37565b60843590612e37565b60a43590612e37565b60c43590612e37565b60e43590612e37565b60648102908082046064149015171561153257604051610e6e81612a27565b338152602081019160043583526040820142815260076060840192610e9560243585612ab1565b610ea460443560808701612ab1565b610eb360643560a08701612ab1565b610ec260843560c08701612ab1565b610ed160a43560e08701612ab1565b610ee160c4356101008701612ab1565b610ef160e4356101208701612ab1565b610efd610104356128a0565b61010435610140860152610f18610124356101608701612abd565b61014435610180860152046101a08401523386526003850160205260408620835181546001600160a01b0319166001600160a01b039190911617815593516001850155516002808501919091559051908110156106525760038301546080830151600281101561151e5760a0840151600281101561046d5760c085015192600284101561150a5760e08601519060028210156114f6576101008701519160028310156114e2576101208801519460028610156114ce5761014089015196610fde886128a0565b610fe7886128a0565b6101608a0151600e8110156114ba576101a099979466ff000000000000948f60059d9b999567ff00000000000000999563ff00000060ff60401b65ff00000000009764ff00000000955060401b169d60ff60401b199962ff00008e19988d199661ff008c19958a199360ff891992169062ffffff191617169160081b1617169160101b1617169160181b1617169160201b1617169160281b1617169160301b16179160381b161717600385015561018081015160048501550151910155600281015460038110156110b6578280f35b600182019060ff82541661147557838484545b8082106114355750508115611421570483806111496111656040516110ef606082612a90565b602381527f417665726167652073636f726520666f72206368616c6c656e6765202325733a60208201526220257360e81b604082015260405192839163ca47c4eb60e01b60208401526060602484015260848301906128e4565b600435604483015286606483015203601f198101835282612a90565b6020815191016a636f6e736f6c652e6c6f675afa50605081106113f35760043584528360205260066040852001600160ff198254161790556111a8600854612f5c565b6008556111b6600954612ac9565b6009555b6004358452836020526007604085200155600160ff1982541617905560043582528160205260ff600660408420015416600435835282602052600760408420015460405191611208816128a0565b825260208201527f1a20d608d2289bdfc4581c5a0722f4636bd21c1610f2485c20a4b20fd1f57a53604060043592a26006546001600160a01b031661124c57808280f35b6004358252816020526040822060018060a01b036005541660018060a01b036001830154169084600484019360ff85541690600781019460ff600887549301541691853b15610b4c576112bf9560c49386926040519889978896630164ac6560e41b8852600488015260248701906128aa565b604485015260506064850152600a60848501526112db816128a0565b60a48401525af180156113e8576113d4575b508390815b84548110156113c9576113058186612b86565b9054600391821b1c6001600160a01b039081166000818152928801602052604090922060058054885487549290930154919493169260ff9290921691833b156113c55787809460c493611373976040519889978896631bb0c13760e21b8852600488015260248701906128aa565b60448501526064840152600f6084840152600a60a48401525af19081156113ba5784916113a5575b50506001016112f2565b816113af91612a90565b610b2557823861139b565b6040513d86823e3d90fd5b8780fd5b505050505038808280f35b846113e191959295612a90565b92386112ed565b6040513d87823e3d90fd5b60043584528360205260066040852001600260ff19825416179055611419600854612f5c565b6008556111ba565b634e487b7160e01b85526012600452602485fd5b909161146d6001916114478589612b86565b9054600391821b1c60a085901b859003168a528801602052604089206005015490612e37565b9201906110c9565b60405162461bcd60e51b815260206004820152601b60248201527f4368616c6c656e676520616c72656164792066696e616c697a656400000000006044820152606490fd5b634e487b7160e01b8e52602160045260248efd5b634e487b7160e01b8c52602160045260248cfd5b634e487b7160e01b8b52602160045260248bfd5b634e487b7160e01b8a52602160045260248afd5b634e487b7160e01b89526021600452602489fd5b634e487b7160e01b87526021600452602487fd5b634e487b7160e01b83526011600452602483fd5b600281016115548154612ac9565b9055610e05565b60405162461bcd60e51b815260206004820152602560248201527f596f752068617665206e6f74206a6f696e6564207468697320726576696577206044820152643837b7b61760d91b6064820152608490fd5b5034610118576020366003190112610118576115c8612867565b60018060a01b0381168252600260205260408220916040518084602082965493848152019084526020842092845b81811061175757505061160b92500384612a90565b6116158351612cc2565b90805b84518110156116f7578061162e60019287612d12565b518352826020526040832060096040519161164883612a59565b80548352848060a01b038582015416602084015261166860028201612d26565b604084015261167960038201612d26565b606084015261169260ff60048301541660808501612abd565b600581015460a084015260ff6006820154166116ad816128a0565b60c0840152600781015460e084015260ff6008820154166116cd816128a0565b61010084015201546101208201526116e58286612d12565b526116f08185612d12565b5001611618565b506101d491926101e094519150604051611712606082612a90565b602d81527f5573657220257320686164206665746368656420257320636f6e74726962757460208201526c6564206368616c6c656e67657360981b6040820152612e44565b84548352600194850194889450602090930192016115f6565b5034610118576080366003190112610118576004356001600160401b038111611c85576117a19036906004016128b7565b906024356001600160401b038111610b34576117c19036906004016128b7565b9091600e6044351015610b4c576007546117da81612ac9565b600755426103e84202046103e81442151715610b38576040516117fc81612a59565b8181526020810190338252611812368886612aee565b60408201908152611824368789612aee565b606083015261183860443560808401612abd565b60643560a083015260c0820189905260e08201899052610100820189905261012082018990528389526020899052604089208251815592516001840180546001600160a01b0319166001600160a01b0392909216919091179055518051906001600160401b038211611bac5781906118b36002860154612b34565b601f8111611c34575b50602090601f8311600114611bcb578b92611bc0575b50508160011b916000199060031b1c19161760028301555b60608101518051906001600160401b038211611bac57819061190f6003860154612b34565b601f8111611b5b575b50602090601f8311600114611af2578b92611ae7575b50508160011b916000199060031b1c19161760038301555b600482016080820151600e8110156114f65793611ab69360096101207f42672180e30fb0e2e6ae998046a0806bf23368de710977e1a63920574c378a1c9a9895611a7295611ac49b9960ff8019835416911617905560a081015160058501556119bf60c08201516119b6816128a0565b60068601612b6e565b60e08101516007850155600884016101008201516119dc816128a0565b6119e5816128a0565b60ff801983541691161790550151910155338a526002602052611a0b8160408c20612bb4565b611a16600854612ac9565b600855604051611a27606082612a90565b602b81527f4368616c6c656e67652023257320636f6e74726962757465642062792025732060208201526a30ba1012b9903bb4ba341d60a91b60408201526103e84202913391612eaf565b611a8e611a7d612be9565b611a88368a85612aee565b90612f09565b611aa4611a99612c24565b611a88368688612aee565b60405196608088526080880191612e16565b918583036020870152612e16565b91611ad4604082016044356128aa565b6103e8420260608201528033930390a280f35b01519050388061192e565b600386018c52818c209250601f1984168c5b818110611b435750908460019594939210611b2a575b505050811b016003830155611946565b015160001960f88460031b161c19169055388080611b1a565b92936020600181928786015181550195019301611b04565b909150600385018b5260208b20601f840160051c810160208510611ba5575b90849392915b8d601f840160051c83018210611b9857505050611918565b8155859450600101611b80565b5080611b7a565b634e487b7160e01b8a52604160045260248afd5b0151905038806118d2565b600286018c52818c209250601f1984168c5b818110611c1c5750908460019594939210611c03575b505050811b0160028301556118ea565b015160001960f88460031b161c19169055388080611bf3565b92936020600181928786015181550195019301611bdd565b909150600285018b5260208b20601f840160051c810160208510611c7e575b90849392915b8d601f840160051c83018210611c71575050506118bc565b8155859450600101611c59565b5080611c53565b5080fd5b5034610118576020366003190112610118576004358082526001602052611cba60ff60016040852001541615612dca565b8082526001602052600360408320541015611e585780825260016020908152604080842033855260040190915282205460ff16611e01573382526003602052611d068160408420612bb4565b8082526001602052604082208054600160401b811015611ded57611dea9291611d3782600160049401835582612b86565b81546001600160a01b0360039290921b91821b1916339182901b17909155808652910160205260408420805460ff19166001179055817f07fe5c562bb72cc8709dc10987f69acf04ba0d45c871d6c281e32df878063dcd8580a3604051611d9f606082612a90565b603181527f4d6f64657261746f72202573206a6f696e65642072657669657720706f6f6c20602082015270666f72206368616c6c656e67652023257360781b60408201523390612e44565b80f35b634e487b7160e01b84526041600452602484fd5b60405162461bcd60e51b815260206004820152602960248201527f596f75206861766520616c7265616479206a6f696e656420746869732072657660448201526834b2bb903837b7b61760b91b6064820152608490fd5b60405162461bcd60e51b815260206004820152601660248201527513585e081b5bd9195c985d1bdc9cc81c995858da195960521b6044820152606490fd5b503461011857602036600319011261011857611eb0612867565b60018060a01b0381168252600360205260408220916040518084602082965493848152019084526020842092845b81811061203d575050611ef392500384612a90565b611efd8351612cc2565b90805b8451811015611fdf5780611f1660019287612d12565b5183528260205260408320600960405191611f3083612a59565b80548352848060a01b0385820154166020840152611f5060028201612d26565b6040840152611f6160038201612d26565b6060840152611f7a60ff60048301541660808501612abd565b600581015460a084015260ff600682015416611f95816128a0565b60c0840152600781015460e084015260ff600882015416611fb5816128a0565b6101008401520154610120820152611fcd8286612d12565b52611fd88185612d12565b5001611f00565b506101d491926101e094519150604051611ffa606082612a90565b602b81527f55736572202573206861642066657463686564202573206d6f6465726174656460208201526a206368616c6c656e67657360a81b6040820152612e44565b8454835260019485019488945060209093019201611ede565b50346101185780600319360112610118576020600754604051908152f35b5034610118576101203660031901126101185761208f612867565b906024356001600160401b038111611c85576120af9036906004016128b7565b926044356001600160401b038111610b34576120cf9036906004016128b7565b92909160643590600e821015610b8357600360a4351015610b835760e43560038110156104cb576007549261210384612ac9565b6007556040519061211382612a59565b8482526001600160a01b0384166020830190815292612157612136368d8a612aee565b9260408501938452612149368c8c612aee565b606086015260808501612abd565b60843560a084015261216a60a4356128a0565b60a43560c084015260c43560e0840152612183816128a0565b610100830152610104356101208301528489526020899052604089208251815592516001840180546001600160a01b0319166001600160a01b0392909216919091179055518051906001600160401b038211611bac5781906121e86002860154612b34565b601f8111612515575b50602090601f83116001146124ac578b926124a1575b50508160011b916000199060031b1c19161760028301555b60608101518051906001600160401b038211611bac5781906122446003860154612b34565b601f8111612450575b50602090601f83116001146123e7578b926123dc575b50508160011b916000199060031b1c19161760038301555b6080810151600e81101561150a5784899a9461232a6123ac9760408d611a8898611dea9f610120611a889f9e9a61239c9a6009935060ff8019600487015416911617600485015560a081015160058501556122dd60c08201516119b6816128a0565b60e08101516007850155600884016101008201516122fa816128a0565b612303816128a0565b60ff80198354169116179055015191015560018060a01b0385168152600260205220612bb4565b61233560a4356128a0565b60a4356123b457612347600854612ac9565b6008555b6040519161235a606084612a90565b602683527f4368616c6c656e67652023257320736565646564206279202573206174202573602084015265103bb4ba341d60d11b604084015260843592612eaf565b6123a4612be9565b923691612aee565b6123a4612c24565b6123bf60a4356128a0565b600160a4350361234b576123d4600954612ac9565b60095561234b565b015190503880612263565b600386018c52818c209250601f1984168c5b818110612438575090846001959493921061241f575b505050811b01600383015561227b565b015160001960f88460031b161c1916905538808061240f565b929360206001819287860151815501950193016123f9565b909150600385018b5260208b20601f840160051c81016020851061249a575b90849392915b8d601f840160051c8301821061248d5750505061224d565b8155859450600101612475565b508061246f565b015190503880612207565b600286018c52818c209250601f1984168c5b8181106124fd57509084600195949392106124e4575b505050811b01600283015561221f565b015160001960f88460031b161c191690553880806124d4565b929360206001819287860151815501950193016124be565b909150600285018b5260208b20601f840160051c81016020851061255f575b90849392915b8d601f840160051c83018210612552575050506121f1565b815585945060010161253a565b5080612534565b50346101185780600319360112610118576020600854604051908152f35b905034611c85576040366003190112611c8557600435826125a361284c565b926125ad81612a27565b8181528160208201528160408201528160608201528160808201528160a08201528160c08201528160e082015281610100820152816101208201528161014082015281610160820152816101808201526101a00152604051612610606082612a90565b602b8152602081017f5573657220257320686164206665746368656420726576696577206f6620636890528183604083016a616c6c656e67652023257360a81b905261265b92612e44565b825260016020526040822060030190600160a01b600190031682526020526040902060405161268981612a27565b81546001600160a01b03168152600182015460208201908152600283015460408301908152600384015491939190606084016126c860ff841682612ab1565b608085018360081c60ff166126dd9082612ab1565b60a086018460101c60ff166126f29082612ab1565b60c087018560181c60ff166127079082612ab1565b60e08801918660201c60ff1661271d9084612ab1565b6101008901938760281c60ff166127349086612ab1565b6101208a01958860301c60ff1661274b9088612ab1565b8860381c60ff16976101408c0198612762816128a0565b89526101608c019960401c60ff1661277a908b612abd565b60048b01549a6101808d019b8c52600501549b6101a081019c8d526040519d8e91600160a01b6001900390511682525190602001525160408d01525160608c016127c39161287d565b5160808b016127d19161287d565b5160a08a016127df9161287d565b5160c089016127ed9161287d565b5160e088016127fb9161287d565b51610100870161280a9161287d565b5161012086016128199161287d565b51612823816128a0565b610140850152516101608401612838916128aa565b51610180830152516101a08201526101c090f35b602435906001600160a01b038216820361286257565b600080fd5b600435906001600160a01b038216820361286257565b90600282101561288a5752565b634e487b7160e01b600052602160045260246000fd5b6003111561288a57565b90600e82101561288a5752565b9181601f84011215612862578235916001600160401b038311612862576020838186019501011161286257565b919082519283825260005b848110612910575050826000602080949584010152601f8019910116010190565b806020809284010151828286010152016128ef565b908151815260018060a01b0360208301511660208201526101208061297061295e604086015161014060408701526101408601906128e4565b606086015185820360608701526128e4565b93612983608082015160808601906128aa565b60a081015160a085015260c081015161299b816128a0565b60c085015260e081015160e08501526101008101516129b9816128a0565b610100850152015191015290565b602081016020825282518091526040820191602060408360051b8301019401926000915b8383106129fa57505050505090565b9091929394602080612a18600193603f198682030187528951612925565b970193019301919392906129eb565b6101c081019081106001600160401b03821117612a4357604052565b634e487b7160e01b600052604160045260246000fd5b61014081019081106001600160401b03821117612a4357604052565b60e081019081106001600160401b03821117612a4357604052565b90601f801991011681019081106001600160401b03821117612a4357604052565b600282101561288a5752565b600e82101561288a5752565b6000198114612ad85760010190565b634e487b7160e01b600052601160045260246000fd5b9291926001600160401b038211612a435760405191612b17601f8201601f191660200184612a90565b829481845281830111612862578281602093846000960137010152565b90600182811c92168015612b64575b6020831014612b4e57565b634e487b7160e01b600052602260045260246000fd5b91607f1691612b43565b90612b78816128a0565b60ff80198354169116179055565b8054821015612b9e5760005260206000200190600090565b634e487b7160e01b600052603260045260246000fd5b8054600160401b811015612a4357612bd191600182018155612b86565b819291549060031b91821b91600019901b1916179055565b60405190612bf8604083612a90565b601782527f2d205469746c652075726c20202020202020203a2025730000000000000000006020830152565b60405190612c33604083612a90565b601782527f2d204465736372697074696f6e2075726c20203a2025730000000000000000006020830152565b6001600160401b038111612a435760051b60200190565b60405190612c8382612a59565b600061012083828152826020820152606060408201526060808201528260808201528260a08201528260c08201528260e0820152826101008201520152565b90612ccc82612c5f565b612cd96040519182612a90565b8281528092612cea601f1991612c5f565b019060005b828110612cfb57505050565b602090612d06612c76565b82828501015201612cef565b8051821015612b9e5760209160051b010190565b9060405191826000825492612d3a84612b34565b8084529360018116908115612da85750600114612d61575b50612d5f92500383612a90565b565b90506000929192526020600020906000915b818310612d8c575050906020612d5f9282010138612d52565b6020919350806001915483858901015201910190918492612d73565b905060209250612d5f94915060ff191682840152151560051b82010138612d52565b15612dd157565b60405162461bcd60e51b815260206004820152601b60248201527f4368616c6c656e676520616c72656164792066696e616c6973656400000000006044820152606490fd5b908060209392818452848401376000828201840152601f01601f1916010190565b91908201809211612ad857565b612e98612e7591600094938594604051948593630d26b92560e01b60208601526060602486015260848501906128e4565b6001600160a01b039092166044840152606483015203601f198101835282612a90565b6020815191016a636f6e736f6c652e6c6f675afa50565b612e9890612ee09260009586956040519586946327827ee360e11b60208701526080602487015260a48601906128e4565b60448501939093526001600160a01b03166064840152608483015203601f198101835282612a90565b612f3c612e9860009392612f4e8594604051948593634b5c427760e01b60208601526040602486015260648501906128e4565b838103602319016044850152906128e4565b03601f198101835282612a90565b8015612ad857600019019056fea26469706673582212209e3048c26c8a7d14a32abb0d71c1ae645ce9b6dc14ff1d80f41912ec3365adc064736f6c634300081c0033",
  "linkReferences": {},
  "deployedLinkReferences": {}
}