{
  "_format": "hh-sol-artifact-1",
  "contractName": "ChallengeManager",
  "sourceName": "contracts/ChallengeManager.sol",
  "abi": [
    {
      "inputs": [],
      "stateMutability": "nonpayable",
      "type": "constructor"
    },
    {
      "inputs": [],
      "name": "AccessControlBadConfirmation",
      "type": "error"
    },
    {
      "inputs": [
        {
          "internalType": "address",
          "name": "account",
          "type": "address"
        },
        {
          "internalType": "bytes32",
          "name": "neededRole",
          "type": "bytes32"
        }
      ],
      "name": "AccessControlUnauthorizedAccount",
      "type": "error"
    },
    {
      "anonymous": false,
      "inputs": [
        {
          "indexed": true,
          "internalType": "address",
          "name": "contributor",
          "type": "address"
        },
        {
          "indexed": false,
          "internalType": "string",
          "name": "title_url",
          "type": "string"
        },
        {
          "indexed": false,
          "internalType": "string",
          "name": "description_url",
          "type": "string"
        },
        {
          "indexed": false,
          "internalType": "enum SystemEnums.Domain",
          "name": "category",
          "type": "uint8"
        },
        {
          "indexed": false,
          "internalType": "uint256",
          "name": "contribute_at",
          "type": "uint256"
        }
      ],
      "name": "ChallengeContributed",
      "type": "event"
    },
    {
      "anonymous": false,
      "inputs": [
        {
          "indexed": true,
          "internalType": "uint256",
          "name": "challengeId",
          "type": "uint256"
        },
        {
          "indexed": false,
          "internalType": "enum SystemEnums.ChallengeStatus",
          "name": "status",
          "type": "uint8"
        },
        {
          "indexed": false,
          "internalType": "uint256",
          "name": "averagePercent",
          "type": "uint256"
        }
      ],
      "name": "ChallengeFinalized",
      "type": "event"
    },
    {
      "anonymous": false,
      "inputs": [
        {
          "indexed": true,
          "internalType": "address",
          "name": "user",
          "type": "address"
        },
        {
          "indexed": false,
          "internalType": "uint256",
          "name": "challengeId",
          "type": "uint256"
        },
        {
          "indexed": false,
          "internalType": "uint256",
          "name": "joinedAt",
          "type": "uint256"
        }
      ],
      "name": "ChallengeJoinedByUser",
      "type": "event"
    },
    {
      "anonymous": false,
      "inputs": [
        {
          "indexed": true,
          "internalType": "uint256",
          "name": "challenge_id",
          "type": "uint256"
        },
        {
          "indexed": true,
          "internalType": "address",
          "name": "moderator",
          "type": "address"
        }
      ],
      "name": "ReviewPoolJoined",
      "type": "event"
    },
    {
      "anonymous": false,
      "inputs": [
        {
          "indexed": true,
          "internalType": "bytes32",
          "name": "role",
          "type": "bytes32"
        },
        {
          "indexed": true,
          "internalType": "bytes32",
          "name": "previousAdminRole",
          "type": "bytes32"
        },
        {
          "indexed": true,
          "internalType": "bytes32",
          "name": "newAdminRole",
          "type": "bytes32"
        }
      ],
      "name": "RoleAdminChanged",
      "type": "event"
    },
    {
      "anonymous": false,
      "inputs": [
        {
          "indexed": true,
          "internalType": "bytes32",
          "name": "role",
          "type": "bytes32"
        },
        {
          "indexed": true,
          "internalType": "address",
          "name": "account",
          "type": "address"
        },
        {
          "indexed": true,
          "internalType": "address",
          "name": "sender",
          "type": "address"
        }
      ],
      "name": "RoleGranted",
      "type": "event"
    },
    {
      "anonymous": false,
      "inputs": [
        {
          "indexed": true,
          "internalType": "bytes32",
          "name": "role",
          "type": "bytes32"
        },
        {
          "indexed": true,
          "internalType": "address",
          "name": "account",
          "type": "address"
        },
        {
          "indexed": true,
          "internalType": "address",
          "name": "sender",
          "type": "address"
        }
      ],
      "name": "RoleRevoked",
      "type": "event"
    },
    {
      "inputs": [],
      "name": "DEFAULT_ADMIN_ROLE",
      "outputs": [
        {
          "internalType": "bytes32",
          "name": "",
          "type": "bytes32"
        }
      ],
      "stateMutability": "view",
      "type": "function"
    },
    {
      "inputs": [
        {
          "internalType": "string",
          "name": "_title_url",
          "type": "string"
        },
        {
          "internalType": "string",
          "name": "_description_url",
          "type": "string"
        },
        {
          "internalType": "enum SystemEnums.Domain",
          "name": "_category",
          "type": "uint8"
        }
      ],
      "name": "contributeChallenge",
      "outputs": [],
      "stateMutability": "payable",
      "type": "function"
    },
    {
      "inputs": [],
      "name": "getApprovedChallenges",
      "outputs": [
        {
          "components": [
            {
              "internalType": "uint256",
              "name": "id",
              "type": "uint256"
            },
            {
              "internalType": "address",
              "name": "contributor",
              "type": "address"
            },
            {
              "internalType": "string",
              "name": "title_url",
              "type": "string"
            },
            {
              "internalType": "string",
              "name": "description_url",
              "type": "string"
            },
            {
              "internalType": "enum SystemEnums.Domain",
              "name": "category",
              "type": "uint8"
            },
            {
              "internalType": "uint256",
              "name": "contribute_at",
              "type": "uint256"
            },
            {
              "internalType": "enum SystemEnums.ChallengeStatus",
              "name": "status",
              "type": "uint8"
            },
            {
              "internalType": "uint256",
              "name": "quality_score",
              "type": "uint256"
            },
            {
              "internalType": "enum SystemEnums.DifficultyLevel",
              "name": "difficulty_level",
              "type": "uint8"
            },
            {
              "internalType": "uint256",
              "name": "solve_time",
              "type": "uint256"
            },
            {
              "internalType": "uint256",
              "name": "completed",
              "type": "uint256"
            }
          ],
          "internalType": "struct ChallengeManager.Challenge[]",
          "name": "",
          "type": "tuple[]"
        }
      ],
      "stateMutability": "view",
      "type": "function"
    },
    {
      "inputs": [
        {
          "internalType": "uint256",
          "name": "_challenge_id",
          "type": "uint256"
        }
      ],
      "name": "getChallengeById",
      "outputs": [
        {
          "components": [
            {
              "internalType": "uint256",
              "name": "id",
              "type": "uint256"
            },
            {
              "internalType": "address",
              "name": "contributor",
              "type": "address"
            },
            {
              "internalType": "string",
              "name": "title_url",
              "type": "string"
            },
            {
              "internalType": "string",
              "name": "description_url",
              "type": "string"
            },
            {
              "internalType": "enum SystemEnums.Domain",
              "name": "category",
              "type": "uint8"
            },
            {
              "internalType": "uint256",
              "name": "contribute_at",
              "type": "uint256"
            },
            {
              "internalType": "enum SystemEnums.ChallengeStatus",
              "name": "status",
              "type": "uint8"
            },
            {
              "internalType": "uint256",
              "name": "quality_score",
              "type": "uint256"
            },
            {
              "internalType": "enum SystemEnums.DifficultyLevel",
              "name": "difficulty_level",
              "type": "uint8"
            },
            {
              "internalType": "uint256",
              "name": "solve_time",
              "type": "uint256"
            },
            {
              "internalType": "uint256",
              "name": "completed",
              "type": "uint256"
            }
          ],
          "internalType": "struct ChallengeManager.Challenge",
          "name": "",
          "type": "tuple"
        }
      ],
      "stateMutability": "view",
      "type": "function"
    },
    {
      "inputs": [
        {
          "internalType": "uint256",
          "name": "_challenge_id",
          "type": "uint256"
        }
      ],
      "name": "getChallengeContributorById",
      "outputs": [
        {
          "internalType": "address",
          "name": "",
          "type": "address"
        }
      ],
      "stateMutability": "view",
      "type": "function"
    },
    {
      "inputs": [
        {
          "internalType": "uint256",
          "name": "_challenge_id",
          "type": "uint256"
        }
      ],
      "name": "getChallengeDifficultyById",
      "outputs": [
        {
          "internalType": "enum SystemEnums.DifficultyLevel",
          "name": "",
          "type": "uint8"
        }
      ],
      "stateMutability": "view",
      "type": "function"
    },
    {
      "inputs": [
        {
          "internalType": "uint256",
          "name": "_challenge_id",
          "type": "uint256"
        }
      ],
      "name": "getChallengeDomainById",
      "outputs": [
        {
          "internalType": "enum SystemEnums.Domain",
          "name": "",
          "type": "uint8"
        }
      ],
      "stateMutability": "view",
      "type": "function"
    },
    {
      "inputs": [
        {
          "internalType": "uint256",
          "name": "_challenge_id",
          "type": "uint256"
        }
      ],
      "name": "getChallengeFinalizedStatus",
      "outputs": [
        {
          "internalType": "bool",
          "name": "",
          "type": "bool"
        }
      ],
      "stateMutability": "view",
      "type": "function"
    },
    {
      "inputs": [
        {
          "internalType": "uint256",
          "name": "challengeId",
          "type": "uint256"
        }
      ],
      "name": "getChallengeParticipants",
      "outputs": [
        {
          "internalType": "address[]",
          "name": "",
          "type": "address[]"
        }
      ],
      "stateMutability": "view",
      "type": "function"
    },
    {
      "inputs": [
        {
          "internalType": "uint256",
          "name": "_challenge_id",
          "type": "uint256"
        }
      ],
      "name": "getChallengeQualityScoreById",
      "outputs": [
        {
          "internalType": "uint256",
          "name": "",
          "type": "uint256"
        }
      ],
      "stateMutability": "view",
      "type": "function"
    },
    {
      "inputs": [
        {
          "internalType": "uint256",
          "name": "_challenge_id",
          "type": "uint256"
        }
      ],
      "name": "getChallengeTitleById",
      "outputs": [
        {
          "internalType": "string",
          "name": "",
          "type": "string"
        }
      ],
      "stateMutability": "view",
      "type": "function"
    },
    {
      "inputs": [
        {
          "internalType": "address",
          "name": "_contributor_address",
          "type": "address"
        }
      ],
      "name": "getChallengesByContributor",
      "outputs": [
        {
          "components": [
            {
              "internalType": "uint256",
              "name": "id",
              "type": "uint256"
            },
            {
              "internalType": "address",
              "name": "contributor",
              "type": "address"
            },
            {
              "internalType": "string",
              "name": "title_url",
              "type": "string"
            },
            {
              "internalType": "string",
              "name": "description_url",
              "type": "string"
            },
            {
              "internalType": "enum SystemEnums.Domain",
              "name": "category",
              "type": "uint8"
            },
            {
              "internalType": "uint256",
              "name": "contribute_at",
              "type": "uint256"
            },
            {
              "internalType": "enum SystemEnums.ChallengeStatus",
              "name": "status",
              "type": "uint8"
            },
            {
              "internalType": "uint256",
              "name": "quality_score",
              "type": "uint256"
            },
            {
              "internalType": "enum SystemEnums.DifficultyLevel",
              "name": "difficulty_level",
              "type": "uint8"
            },
            {
              "internalType": "uint256",
              "name": "solve_time",
              "type": "uint256"
            },
            {
              "internalType": "uint256",
              "name": "completed",
              "type": "uint256"
            }
          ],
          "internalType": "struct ChallengeManager.Challenge[]",
          "name": "",
          "type": "tuple[]"
        }
      ],
      "stateMutability": "view",
      "type": "function"
    },
    {
      "inputs": [
        {
          "internalType": "address",
          "name": "_moderator_address",
          "type": "address"
        }
      ],
      "name": "getChallengesByModerator",
      "outputs": [
        {
          "components": [
            {
              "internalType": "uint256",
              "name": "id",
              "type": "uint256"
            },
            {
              "internalType": "address",
              "name": "contributor",
              "type": "address"
            },
            {
              "internalType": "string",
              "name": "title_url",
              "type": "string"
            },
            {
              "internalType": "string",
              "name": "description_url",
              "type": "string"
            },
            {
              "internalType": "enum SystemEnums.Domain",
              "name": "category",
              "type": "uint8"
            },
            {
              "internalType": "uint256",
              "name": "contribute_at",
              "type": "uint256"
            },
            {
              "internalType": "enum SystemEnums.ChallengeStatus",
              "name": "status",
              "type": "uint8"
            },
            {
              "internalType": "uint256",
              "name": "quality_score",
              "type": "uint256"
            },
            {
              "internalType": "enum SystemEnums.DifficultyLevel",
              "name": "difficulty_level",
              "type": "uint8"
            },
            {
              "internalType": "uint256",
              "name": "solve_time",
              "type": "uint256"
            },
            {
              "internalType": "uint256",
              "name": "completed",
              "type": "uint256"
            }
          ],
          "internalType": "struct ChallengeManager.Challenge[]",
          "name": "",
          "type": "tuple[]"
        }
      ],
      "stateMutability": "view",
      "type": "function"
    },
    {
      "inputs": [
        {
          "internalType": "uint256",
          "name": "_challenge_id",
          "type": "uint256"
        },
        {
          "internalType": "address",
          "name": "_moderator_address",
          "type": "address"
        }
      ],
      "name": "getJoinReviewPoolStatus",
      "outputs": [
        {
          "internalType": "bool",
          "name": "",
          "type": "bool"
        }
      ],
      "stateMutability": "view",
      "type": "function"
    },
    {
      "inputs": [
        {
          "internalType": "address",
          "name": "_user_address",
          "type": "address"
        }
      ],
      "name": "getJoinedChallengesByUserForPreview",
      "outputs": [
        {
          "components": [
            {
              "internalType": "uint256",
              "name": "challenge_id",
              "type": "uint256"
            },
            {
              "internalType": "string",
              "name": "title_url",
              "type": "string"
            },
            {
              "internalType": "string",
              "name": "description_url",
              "type": "string"
            },
            {
              "internalType": "enum SystemEnums.Domain",
              "name": "domain",
              "type": "uint8"
            },
            {
              "internalType": "enum SystemEnums.SolutionProgress",
              "name": "progress",
              "type": "uint8"
            },
            {
              "internalType": "uint256",
              "name": "joined_at",
              "type": "uint256"
            },
            {
              "internalType": "uint256",
              "name": "score",
              "type": "uint256"
            }
          ],
          "internalType": "struct ChallengeManager.JoinedChallengesPreview[]",
          "name": "",
          "type": "tuple[]"
        }
      ],
      "stateMutability": "view",
      "type": "function"
    },
    {
      "inputs": [
        {
          "internalType": "uint256",
          "name": "challenge_id",
          "type": "uint256"
        },
        {
          "internalType": "address",
          "name": "_moderator_address",
          "type": "address"
        }
      ],
      "name": "getModeratorReviewOfChallenge",
      "outputs": [
        {
          "components": [
            {
              "internalType": "address",
              "name": "moderator",
              "type": "address"
            },
            {
              "internalType": "uint256",
              "name": "challenge_id",
              "type": "uint256"
            },
            {
              "internalType": "uint256",
              "name": "review_time",
              "type": "uint256"
            },
            {
              "internalType": "string",
              "name": "review_txid",
              "type": "string"
            },
            {
              "internalType": "bool",
              "name": "is_submitted",
              "type": "bool"
            },
            {
              "internalType": "enum SystemEnums.QualityFactorAnswer",
              "name": "relevance",
              "type": "uint8"
            },
            {
              "internalType": "enum SystemEnums.QualityFactorAnswer",
              "name": "technical_correctness",
              "type": "uint8"
            },
            {
              "internalType": "enum SystemEnums.QualityFactorAnswer",
              "name": "completeness",
              "type": "uint8"
            },
            {
              "internalType": "enum SystemEnums.QualityFactorAnswer",
              "name": "clarity",
              "type": "uint8"
            },
            {
              "internalType": "enum SystemEnums.QualityFactorAnswer",
              "name": "originality",
              "type": "uint8"
            },
            {
              "internalType": "enum SystemEnums.QualityFactorAnswer",
              "name": "unbiased",
              "type": "uint8"
            },
            {
              "internalType": "enum SystemEnums.QualityFactorAnswer",
              "name": "plagiarism_free",
              "type": "uint8"
            },
            {
              "internalType": "enum SystemEnums.DifficultyLevel",
              "name": "suggested_difficulty",
              "type": "uint8"
            },
            {
              "internalType": "enum SystemEnums.Domain",
              "name": "suggested_category",
              "type": "uint8"
            },
            {
              "internalType": "uint256",
              "name": "suggested_solve_time",
              "type": "uint256"
            },
            {
              "internalType": "uint256",
              "name": "review_score",
              "type": "uint256"
            }
          ],
          "internalType": "struct ChallengeManager.ModeratorReview",
          "name": "",
          "type": "tuple"
        }
      ],
      "stateMutability": "view",
      "type": "function"
    },
    {
      "inputs": [
        {
          "internalType": "address",
          "name": "_moderator_address",
          "type": "address"
        },
        {
          "internalType": "uint256",
          "name": "_challenge_id",
          "type": "uint256"
        }
      ],
      "name": "getModeratorReviewTxId",
      "outputs": [
        {
          "internalType": "string",
          "name": "",
          "type": "string"
        }
      ],
      "stateMutability": "view",
      "type": "function"
    },
    {
      "inputs": [],
      "name": "getPendingChallenges",
      "outputs": [
        {
          "components": [
            {
              "internalType": "uint256",
              "name": "id",
              "type": "uint256"
            },
            {
              "internalType": "address",
              "name": "contributor",
              "type": "address"
            },
            {
              "internalType": "string",
              "name": "title_url",
              "type": "string"
            },
            {
              "internalType": "string",
              "name": "description_url",
              "type": "string"
            },
            {
              "internalType": "enum SystemEnums.Domain",
              "name": "category",
              "type": "uint8"
            },
            {
              "internalType": "uint256",
              "name": "contribute_at",
              "type": "uint256"
            },
            {
              "internalType": "enum SystemEnums.ChallengeStatus",
              "name": "status",
              "type": "uint8"
            },
            {
              "internalType": "uint256",
              "name": "quality_score",
              "type": "uint256"
            },
            {
              "internalType": "enum SystemEnums.DifficultyLevel",
              "name": "difficulty_level",
              "type": "uint8"
            },
            {
              "internalType": "uint256",
              "name": "solve_time",
              "type": "uint256"
            },
            {
              "internalType": "uint256",
              "name": "completed",
              "type": "uint256"
            }
          ],
          "internalType": "struct ChallengeManager.Challenge[]",
          "name": "",
          "type": "tuple[]"
        }
      ],
      "stateMutability": "view",
      "type": "function"
    },
    {
      "inputs": [
        {
          "internalType": "uint256",
          "name": "_challenge_id",
          "type": "uint256"
        }
      ],
      "name": "getReviewPoolModerators",
      "outputs": [
        {
          "internalType": "address[]",
          "name": "",
          "type": "address[]"
        }
      ],
      "stateMutability": "view",
      "type": "function"
    },
    {
      "inputs": [
        {
          "internalType": "uint256",
          "name": "_challenge_id",
          "type": "uint256"
        }
      ],
      "name": "getReviewPoolSize",
      "outputs": [
        {
          "internalType": "uint256",
          "name": "",
          "type": "uint256"
        }
      ],
      "stateMutability": "view",
      "type": "function"
    },
    {
      "inputs": [],
      "name": "getReviewQuorum",
      "outputs": [
        {
          "internalType": "uint256",
          "name": "",
          "type": "uint256"
        }
      ],
      "stateMutability": "pure",
      "type": "function"
    },
    {
      "inputs": [
        {
          "internalType": "bytes32",
          "name": "role",
          "type": "bytes32"
        }
      ],
      "name": "getRoleAdmin",
      "outputs": [
        {
          "internalType": "bytes32",
          "name": "",
          "type": "bytes32"
        }
      ],
      "stateMutability": "view",
      "type": "function"
    },
    {
      "inputs": [
        {
          "internalType": "uint256",
          "name": "_challenge_id",
          "type": "uint256"
        },
        {
          "internalType": "address",
          "name": "_moderator_address",
          "type": "address"
        }
      ],
      "name": "getScoreDeviationOfModeratorReview",
      "outputs": [
        {
          "internalType": "uint256",
          "name": "",
          "type": "uint256"
        }
      ],
      "stateMutability": "view",
      "type": "function"
    },
    {
      "inputs": [
        {
          "internalType": "bytes32",
          "name": "role",
          "type": "bytes32"
        },
        {
          "internalType": "address",
          "name": "account",
          "type": "address"
        }
      ],
      "name": "grantRole",
      "outputs": [],
      "stateMutability": "nonpayable",
      "type": "function"
    },
    {
      "inputs": [
        {
          "internalType": "bytes32",
          "name": "role",
          "type": "bytes32"
        },
        {
          "internalType": "address",
          "name": "account",
          "type": "address"
        }
      ],
      "name": "hasRole",
      "outputs": [
        {
          "internalType": "bool",
          "name": "",
          "type": "bool"
        }
      ],
      "stateMutability": "view",
      "type": "function"
    },
    {
      "inputs": [
        {
          "internalType": "uint256",
          "name": "_challenge_id",
          "type": "uint256"
        },
        {
          "internalType": "string",
          "name": "_review_txid",
          "type": "string"
        }
      ],
      "name": "joinReviewPool",
      "outputs": [],
      "stateMutability": "nonpayable",
      "type": "function"
    },
    {
      "inputs": [
        {
          "internalType": "bytes32",
          "name": "role",
          "type": "bytes32"
        },
        {
          "internalType": "address",
          "name": "callerConfirmation",
          "type": "address"
        }
      ],
      "name": "renounceRole",
      "outputs": [],
      "stateMutability": "nonpayable",
      "type": "function"
    },
    {
      "inputs": [
        {
          "internalType": "bytes32",
          "name": "role",
          "type": "bytes32"
        },
        {
          "internalType": "address",
          "name": "account",
          "type": "address"
        }
      ],
      "name": "revokeRole",
      "outputs": [],
      "stateMutability": "nonpayable",
      "type": "function"
    },
    {
      "inputs": [
        {
          "internalType": "address",
          "name": "_contributor",
          "type": "address"
        },
        {
          "internalType": "string",
          "name": "_title_url",
          "type": "string"
        },
        {
          "internalType": "string",
          "name": "_description_url",
          "type": "string"
        },
        {
          "internalType": "enum SystemEnums.Domain",
          "name": "_category",
          "type": "uint8"
        },
        {
          "internalType": "uint256",
          "name": "_contribute_at",
          "type": "uint256"
        },
        {
          "internalType": "enum SystemEnums.ChallengeStatus",
          "name": "_status",
          "type": "uint8"
        },
        {
          "internalType": "uint256",
          "name": "_quality_score",
          "type": "uint256"
        },
        {
          "internalType": "enum SystemEnums.DifficultyLevel",
          "name": "_difficulty_level",
          "type": "uint8"
        },
        {
          "internalType": "uint256",
          "name": "_solve_time",
          "type": "uint256"
        }
      ],
      "name": "seedChallenge",
      "outputs": [],
      "stateMutability": "nonpayable",
      "type": "function"
    },
    {
      "inputs": [
        {
          "internalType": "address",
          "name": "_address",
          "type": "address"
        }
      ],
      "name": "setChallengeCostManagerAddress",
      "outputs": [],
      "stateMutability": "nonpayable",
      "type": "function"
    },
    {
      "inputs": [
        {
          "internalType": "address",
          "name": "_address",
          "type": "address"
        }
      ],
      "name": "setModerationEscrowAddress",
      "outputs": [],
      "stateMutability": "nonpayable",
      "type": "function"
    },
    {
      "inputs": [
        {
          "internalType": "address",
          "name": "_address",
          "type": "address"
        }
      ],
      "name": "setReputationManagerAddress",
      "outputs": [],
      "stateMutability": "nonpayable",
      "type": "function"
    },
    {
      "inputs": [
        {
          "internalType": "address",
          "name": "_address",
          "type": "address"
        }
      ],
      "name": "setRoleManagerAddress",
      "outputs": [],
      "stateMutability": "nonpayable",
      "type": "function"
    },
    {
      "inputs": [
        {
          "internalType": "address",
          "name": "_address",
          "type": "address"
        }
      ],
      "name": "setSolutionManagerAddress",
      "outputs": [],
      "stateMutability": "nonpayable",
      "type": "function"
    },
    {
      "inputs": [
        {
          "internalType": "uint256",
          "name": "_challenge_id",
          "type": "uint256"
        },
        {
          "internalType": "enum SystemEnums.QualityFactorAnswer",
          "name": "_relevance",
          "type": "uint8"
        },
        {
          "internalType": "enum SystemEnums.QualityFactorAnswer",
          "name": "_technical_correctness",
          "type": "uint8"
        },
        {
          "internalType": "enum SystemEnums.QualityFactorAnswer",
          "name": "_completeness",
          "type": "uint8"
        },
        {
          "internalType": "enum SystemEnums.QualityFactorAnswer",
          "name": "_clarity",
          "type": "uint8"
        },
        {
          "internalType": "enum SystemEnums.QualityFactorAnswer",
          "name": "_originality",
          "type": "uint8"
        },
        {
          "internalType": "enum SystemEnums.QualityFactorAnswer",
          "name": "_unbiased",
          "type": "uint8"
        },
        {
          "internalType": "enum SystemEnums.QualityFactorAnswer",
          "name": "_plagiarism_free",
          "type": "uint8"
        },
        {
          "internalType": "enum SystemEnums.DifficultyLevel",
          "name": "_suggested_difficulty",
          "type": "uint8"
        },
        {
          "internalType": "enum SystemEnums.Domain",
          "name": "_suggested_category",
          "type": "uint8"
        },
        {
          "internalType": "uint256",
          "name": "_suggested_solve_time",
          "type": "uint256"
        }
      ],
      "name": "submitModeratorReview",
      "outputs": [],
      "stateMutability": "nonpayable",
      "type": "function"
    },
    {
      "inputs": [
        {
          "internalType": "bytes4",
          "name": "interfaceId",
          "type": "bytes4"
        }
      ],
      "name": "supportsInterface",
      "outputs": [
        {
          "internalType": "bool",
          "name": "",
          "type": "bool"
        }
      ],
      "stateMutability": "view",
      "type": "function"
    },
    {
      "inputs": [],
      "name": "total_challenges",
      "outputs": [
        {
          "internalType": "uint256",
          "name": "",
          "type": "uint256"
        }
      ],
      "stateMutability": "view",
      "type": "function"
    },
    {
      "inputs": [
        {
          "internalType": "uint256",
          "name": "_challenge_id",
          "type": "uint256"
        }
      ],
      "name": "userCompleteChallenge",
      "outputs": [],
      "stateMutability": "nonpayable",
      "type": "function"
    },
    {
      "inputs": [
        {
          "internalType": "uint256",
          "name": "_challenge_id",
          "type": "uint256"
        },
        {
          "internalType": "string",
          "name": "_solution_base_txid",
          "type": "string"
        }
      ],
      "name": "userJoinChallenge",
      "outputs": [],
      "stateMutability": "payable",
      "type": "function"
    }
  ],
  "bytecode": "0x60806040523460245760006015556014336029565b506040516147f790816100b78239f35b600080fd5b6001600160a01b03811660009081526000805160206148ae833981519152602052604090205460ff1660b0576001600160a01b031660008181526000805160206148ae83398151915260205260408120805460ff191660011790553391907f2f8788117e7eff1d82e926ec794901d17c78024a50270940304540a733656f0d8180a4600190565b5060009056fe608080604052600436101561001357600080fd5b600090813560e01c90816301ffc9a71461363257508063023bf958146135c55780630939b8141461358c5780630f33560314613263578063248a9ca3146132355780632a0fd3cf14612e375780632b27d92114612a6d5780632b5cfbdf14612a2b5780632f2ff15d146129ea57806333ce96de146129ae57806336568abe146129695780634443a812146128ef57806345637d8f146124925780634c7b5a8e146124745780635057494a146122aa5780635cf2249f1461224a578063616e2e561461207d5780638758aabb1461146157806391d148541461141657806392376e13146112db578063927cab5b1461127b578063a217fddf1461125f578063a821a0671461122d578063b79362cd146111cd578063b94bc00f1461119e578063be21f20c1461102f578063c361e8cf14610fcf578063c80191b814610f81578063d014c48114610f54578063d255206414610c29578063d547741f14610bdf578063dd0e12ca14610a43578063dedfe86d146109ca578063e2e6825314610994578063e94a78301461096a578063e9d307731461090a578063f55dd32b146108c4578063f83eb275146108a85763f8983b66146101ce57600080fd5b60603660031901126108a5576004356001600160401b038111610682576101f9903690600401613776565b6024356001600160401b0381116108a157610218903690600401613776565b600e604493929335101561089d57600d546001600160a01b031661023d811515613ab0565b60206040518092638a913fd160e01b825281806102606044353360048401613b0b565b03915afa908115610892578691610863575b501561082a5734156107f8576011546001600160a01b0316156107b35760155461029b81613d29565b601555426103e84202046103e8144215171561079f576040516102bd81613931565b81815260208101903382526102d3368689613dab565b604082019081526102e5368689613dab565b90606083019182526102fc60443560808501613a58565b426103e80260a084015260c083018a905260e083018a905261010083018a905261012083018a905261014083018a9052848a526001602081905260408b2084518155945190850180546001600160a01b0319166001600160a01b0392909216919091179055518051906001600160401b03821161078b5761038d82610384600288015461396e565b60028801613c60565b602090601f8311600114610722576103bd92918c918361069a575b50508160011b916000199060031b1c19161790565b60028401555b518051906001600160401b03821161070e576103ef826103e6600387015461396e565b60038701613c60565b602090601f83116001146106a55761041e92918b918361069a5750508160011b916000199060031b1c19161790565b60038301555b6080810151600e81101561068657600a916101409160ff8019600487015416911617600485015560a0810151600585015561046f60c0820151610466816136ca565b60068601613df1565b60e0810151600785015561049461010082015161048b816136ca565b60088601613df1565b6101208101516009850155015191015533865260036020526104b98160408820613bfc565b808652600760205260408620805460ff191660011790556104d981613bd7565b60115486906001600160a01b0316803b15610682576040516353beca0f60e11b8152600481018490523360248201529082908290604490829034905af180156106775761065e575b50507f42672180e30fb0e2e6ae998046a0806bf23368de710977e1a63920574c378a1c9361064b926105a96106409360405161055e60608261394d565b602b81527f4368616c6c656e67652023257320636f6e74726962757465642062792025732060208201526a30ba1012b9903bb4ba341d60a91b60408201526103e842029133916142b9565b6105c56105b4613e09565b6105bf36888b613dab565b90614313565b6105db6105d0613e44565b6105bf368486613dab565b61063260409761062189516105f08b8261394d565b601781527f2d20426f756e747920616d6f756e74202020203a20257300000000000000000060208201523490614366565b885196608088526080880191614043565b918583036020870152614043565b938201604435613769565b6103e8420260608201528033930390a280f35b816106689161394d565b610673578538610521565b8580fd5b6040513d84823e3d90fd5b5080fd5b634e487b7160e01b89526021600452602489fd5b0151905038806103a8565b600385018b52818b209190601f1984168c5b8181106106f657509084600195949392106106dd575b505050811b016003830155610424565b015160001960f88460031b161c191690553880806106cd565b929360206001819287860151815501950193016106b7565b634e487b7160e01b8a52604160045260248afd5b600286018c52818c209190601f1984168d5b818110610773575090846001959493921061075a575b505050811b0160028401556103c3565b015160001960f88460031b161c1916905538808061074a565b92936020600181928786015181550195019301610734565b634e487b7160e01b8b52604160045260248bfd5b634e487b7160e01b86526011600452602486fd5b60405162461bcd60e51b815260206004820152601960248201527f4d6f6465726174696f6e20657363726f77206e6f7420736574000000000000006044820152606490fd5b60405162461bcd60e51b815260206004820152600a6024820152695a65726f2076616c756560b01b6044820152606490fd5b60405162461bcd60e51b81526020600482015260116024820152702737ba10309031b7b73a3934b13aba37b960791b6044820152606490fd5b610885915060203d60201161088b575b61087d818361394d565b810190613af3565b38610272565b503d610873565b6040513d88823e3d90fd5b8480fd5b8380fd5b80fd5b50346108a557806003193601126108a557602060405160038152f35b50346108a55760203660031901126108a5576108f260026040610906936004358152600160205220016139a8565b60405191829160208352602083019061371b565b0390f35b50346108a55760203660031901126108a557610924613705565b61092c61411e565b6001600160a01b0316610940811515613f22565b806001600160601b0360a01b60145416176014556001600160601b0360a01b601354161760135580f35b50346108a55760203660031901126108a55760406020916004358152600283522054604051908152f35b50346108a55760203660031901126108a55760ff600460406020938235815260018552200154166109c86040518092613769565bf35b50346108a55760203660031901126108a5576004358152600260205260408120604051918260208354918281520192825260208220915b818110610a245761090685610a188187038261394d565b60405191829182613687565b82546001600160a01b0316845260209093019260019283019201610a01565b50346108a557806003193601126108a557600a54610a6081613ed2565b9082600a54905b828110610add5761090684610ad18151604051610a8560608261394d565b603281527f536d61727420636f6e74726163742025732068616420666574636820257320616020820152717070726f766564206368616c6c656e67657360701b60408201523390614064565b60405191829182613884565b81811015610bcb57600190600a8652806020872001548660031b1c86528160205260408620600a60405191610b1183613931565b80548352848060a01b0385820154166020840152610b31600282016139a8565b6040840152610b42600382016139a8565b6060840152610b5b60ff60048301541660808501613a58565b600581015460a084015260ff600682015416610b76816136ca565b60c0840152600781015460e084015260ff600882015416610b96816136ca565b61010084015260098101546101208401520154610140820152610bb98287613cc9565b52610bc48186613cc9565b5001610a67565b634e487b7160e01b85526032600452602485fd5b50346108a55760403660031901126108a557610c25600435610bff6136ea565b90610c20610c1b82600052600060205260016040600020015490565b614171565b614237565b5080f35b50610c33366137a3565b906015548310156108a157600f5460405163846900cf60e01b81523360048201526024810185905290602090829060449082906001600160a01b03165afa908115610f49578591610f2a575b506108a1573415610ed7576013546001600160a01b0316918215610e92576103e84202924284046103e8144215171561079f5790818693923b156108a15760405163367dd74b60e21b8152600481018790523360248201529084908290604490829034905af1908115610e87578491610e72575b5050600f546001600160a01b031691823b156108a157610d409284928360405180968195829463d82ff2e960e01b84523360048501528c6024850152608060448501526084840191614043565b89606483015203925af1801561067757610e59575b50503383526005602052610d6c8260408520613bfc565b8183526006602052610d813360408520613c1f565b600080610df0610e10604051610d9860608261394d565b602181527f55736572202573206a6f696e6564206368616c6c656e676520257320617420256020820152607360f81b6040820152604051928391637c7a8d8f60e11b60208401526080602484015260a483019061371b565b33604483015287606483015286608483015203601f19810183528261394d565b6020815191016a636f6e736f6c652e6c6f675afa5060405191825260208201527fc9e3de16af1f601c85f1f98f6bc173cd0a8b0fcd25dcd67893470617830fa5f960403392a280f35b81610e639161394d565b610e6e578238610d55565b8280fd5b81610e7c9161394d565b610e6e578238610cf3565b6040513d86823e3d90fd5b60405162461bcd60e51b815260206004820152601c60248201527f4368616c6c656e6765436f73744d616e61676572206e6f7420736574000000006044820152606490fd5b60405162461bcd60e51b815260206004820152602560248201527f5061796d656e7420616d6f756e74206d75737420626520677265617465722074604482015264068616e20360dc1b6064820152608490fd5b610f43915060203d60201161088b5761087d818361394d565b38610c7f565b6040513d87823e3d90fd5b50346108a55760203660031901126108a55760076040602092600435815260018452200154604051908152f35b50346108a55760403660031901126108a55760046040610f9f6136ea565b9282358152600260205220019060018060a01b0316600052602052602060ff604060002054166040519015158152f35b50346108a55760203660031901126108a557610fe9613705565b610ff161411e565b6001600160a01b0316611005811515613f22565b806001600160601b0360a01b600c541617600c556001600160601b0360a01b600b541617600b5580f35b50346108a557806003193601126108a55760085461104c81613ed2565b91805b8281106110b85761090684610ad1815160405161106d60608261394d565b603181527f536d61727420636f6e7472616374202573206861642066657463682025732070602082015270656e64696e67206368616c6c656e67657360781b60408201523390614064565b806110c4600192613b69565b90549060031b1c83528160205260408320600a604051916110e483613931565b80548352848060a01b0385820154166020840152611104600282016139a8565b6040840152611115600382016139a8565b606084015261112e60ff60048301541660808501613a58565b600581015460a084015260ff600682015416611149816136ca565b60c0840152600781015460e084015260ff600882015416611169816136ca565b6101008401526009810154610120840152015461014082015261118c8287613cc9565b526111978186613cc9565b500161104f565b50346108a55760403660031901126108a55760206111c56111bd6136ea565b600435613fad565b604051908152f35b50346108a55760203660031901126108a5576111e7613705565b6111ef61411e565b6001600160a01b0316611203811515613f22565b806001600160601b0360a01b60125416176012556001600160601b0360a01b601154161760115580f35b50346108a55760203660031901126108a55760ff60016040602093600435815260028552200154166040519015158152f35b50346108a557806003193601126108a557602090604051908152f35b50346108a55760203660031901126108a557611295613705565b61129d61411e565b6001600160a01b03166112b1811515613f22565b806001600160601b0360a01b600e541617600e556001600160601b0360a01b600d541617600d5580f35b50346108a55760203660031901126108a5576040610906916004356112fe613e7f565b5061134a81845161131060608261394d565b602181527f55736572202573206861642066657463686564206368616c6c656e67652023256020820152607360f81b868201523390614064565b8152600160205220600a6040519161136183613931565b8054835260018101546001600160a01b03166020840152611384600282016139a8565b6040840152611395600382016139a8565b60608401526113ae60ff60048301541660808501613a58565b600581015460a084015260ff6006820154166113c9816136ca565b60c0840152600781015460e084015260ff6008820154166113e9816136ca565b610100840152600981015461012084015201546101408201526040519182916020835260208301906137d6565b50346108a55760403660031901126108a55760406114326136ea565b91600435815280602052209060018060a01b0316600052602052602060ff604060002054166040519015158152f35b50346108a5576101603660031901126108a5576004356024356002811015610e6e576044359160028310156108a15760643591600283101561089d5760843560028110156106735760a43560028110156120795760c4359460028610156120755760e43560028110156120715761010435906003821015611db25761012435928a600e8510156108a55760208960ff60046040858461155097526002865261151184600184842001541615613a64565b600d546001600160a01b031694611529861515613ab0565b815260018652200154169060405180809581946393f7ea8160e01b83523360048401613b0b565b03915afa80156120665761156b918d91612047575b50613b2b565b6011546001600160a01b0316156107b357878b52600260205260408b209860018060a01b03331660005260048a01602052600160ff60406000205416151503611ff457888c526002602052600360408d200160018060a01b03331660005260205260ff60046040600020015416611fa35760028a019788546115ec90613d29565b89558c846115fa8e84613f60565b8561160491613f60565b8a61160e91613f60565b8961161891613f60565b8461162291613f60565b61162c9250613f60565b96606488029780890460641490151715611f8f57908d959493929160038d019d8e600090600160a01b6001900333168252602052604090209a4260028d015560048c01998a549961167c8a6136ca565b5060481b60ff60481b169860ff60481b199660ff60401b199560ff60381b199466ff000000000000199365ff0000000000199264ff00000000199163ff000000199062ffffff1916600117169060081b61ff001617169060101b62ff00001617169060181b63ff0000001617169060201b64ff000000001617169060281b65ff00000000001617169060301b66ff0000000000001617169060381b60ff60381b16179060401b60ff60401b1617179055610144356005830155600790049060060155546003111561174b578380f35b600182939492019360ff855416611f4a57818352600160205260408320828452600160205260ff6008604086200154169460405161178a60808261394d565b600381526060366020830137600b548254906001600160a01b0316875b87858a89868510611e4157509450505050505b60038110611e035750506117d2600883019687613df1565b838552600160205260ff600860408720015416926117ef846136ca565b61184760609486604051611803888261394d565b602c81527f46696e616c20646966666963756c7479206c6576656c20666f72206368616c6c60208201526b656e6765202325733a20257360a01b6040820152614400565b611851828661444a565b600984015584865260016020526118bf600960408820015486604051611877888261394d565b603081527f46696e616c20657374696d6174656420736f6c76652074696d6520666f72206360208201526f68616c6c656e6765202325733a20257360801b6040820152614400565b6118c98286614575565b9161191783876040516118dc898261394d565b602381527f417665726167652073636f726520666f72206368616c6c656e6765202325733a60208201526220257360e81b6040820152614400565b60508310611def5760068401600160ff19825416179055858752600960205260408720600160ff1982541617905561194e86613bb2565b600784810193845586885260205260408720805460ff19169055865b60085480821015611dde578761197f83613b69565b90549060031b1c14611994575060010161196a565b6000999293949596979899198101908111611dca57906119c66119b96119df93613b69565b90549060031b1c91613b69565b90919082549060031b91821b91600019901b1916179055565b600854988915611db6578899600019016119f881613b69565b8154906000199060031b1b191690556008555b600160ff1982541617905560ff60068601541690877f1a20d608d2289bdfc4581c5a0722f4636bd21c1610f2485c20a4b20fd1f57a536040875494815190611a52816136ca565b8152856020820152a2600c546001600160a01b0316611b37575b50506012546001600160a01b03169350611a8892505050578380f35b81611adc91611a9a604051918261394d565b602a81527f46696e616c697a696e67206368616c6c656e676520706f7420666f72206368616020820152696c6c656e67652023257360b01b6040820152614366565b6011546001600160a01b031690813b15611b335782916024839260405194859384926353c7cd2960e01b845260048401525af1801561067757611b1e57808380f35b81611b289161394d565b6108a5578038808380f35b5050fd5b889692939495979850611ba689604051611b51868261394d565b603c81527f457865637574696e672072657075746174696f6e2075706461746520666f722060208201527f636f6e7472696275746f72206f66206368616c6c656e676520232573000000006040820152614366565b600b54600189015460049099018054925490996001600160a01b039283169360ff9081169392169116833b15611db25789809460c493611c01976040519889978896630164ac6560e41b885260048801526024870190613769565b604485015260506064850152670de0b6b3a76400006084850152611c24816136ca565b60a48401525af1908115610892578691611d9d575b505b8254811015611d8a57611cb5611c518285613b9a565b905460405160039290921b1c6001600160a01b031690611c71858261394d565b602c81527f457865637574696e672072657075746174696f6e2075706461746520666f722060208201526b6d6f64657261746f7220257360a01b60408201526140cf565b611cbf8184613b9a565b90546001600160a01b0360039290921b1c81166000818152602087905260409020600b548a5489546006909301549294919091169260ff9091169190833b15611d86578a809460c493611d2d976040519889978896631bb0c13760e21b885260048801526024870190613769565b60448501526064840152603c6084840152670de0b6b3a764000060a48401525af1908115611d7b578791611d66575b5050600101611c3b565b81611d709161394d565b610673578538611d5c565b6040513d89823e3d90fd5b8a80fd5b5093959450505050388080808080611a6c565b81611da79161394d565b61089d578438611c39565b8980fd5b634e487b7160e01b89526031600452602489fd5b634e487b7160e01b8a52601160045260248afd5b505090919293949597968897611a0b565b60068401805460ff1916600217905561194e565b611e0d8183613cc9565b51611e17896136ca565b611e218984613cc9565b5110611e30575b6001016117ba565b9650611e3b876136ca565b86611e28565b60ff6004604060209481611e588a611ea099613b9a565b905460039190911b1c6001600160a01b03166000818152968852952097815260018652200154604051630cf571c160e11b815294859384939192919091169060048401613b0b565b0381875afa908115611f3f578b908192611f08575b50611efa60ff6004611ed985611ed4611f019660019a999812156143aa565b6147b0565b94015460401c1692611eea846136ca565b611ef4848a613cc9565b51613f60565b9187613cc9565b52016117a7565b91505060203d8111611f38575b611f1f818361394d565b602082600092810103126108a55750518a611efa611eb5565b503d611f15565b6040513d8d823e3d90fd5b60405162461bcd60e51b815260206004820152601b60248201527f4368616c6c656e676520616c72656164792066696e616c697a656400000000006044820152606490fd5b634e487b7160e01b8e52601160045260248efd5b60405162461bcd60e51b8152602060048201526024808201527f596f75206861766520616c7265616479207375626d697474656420612072657660448201526334b2bb9760e11b6064820152608490fd5b60405162461bcd60e51b815260206004820152602560248201527f596f752068617665206e6f74206a6f696e6564207468697320726576696577206044820152643837b7b61760d91b6064820152608490fd5b612060915060203d60201161088b5761087d818361394d565b38611565565b6040513d8e823e3d90fd5b8880fd5b8780fd5b8680fd5b50346108a55760203660031901126108a557612097613705565b60018060a01b0381168252600360205260408220916040518084602082965493848152019084526020842092845b8181106122315750506120da9250038461394d565b6120e48351613ed2565b90805b84518110156121d157806120fd60019287613cc9565b5183528160205260408320600a6040519161211783613931565b80548352848060a01b0385820154166020840152612137600282016139a8565b6040840152612148600382016139a8565b606084015261216160ff60048301541660808501613a58565b600581015460a084015260ff60068201541661217c816136ca565b60c0840152600781015460e084015260ff60088201541661219c816136ca565b610100840152600981015461012084015201546101408201526121bf8286613cc9565b526121ca8185613cc9565b50016120e7565b50610ad19192610906945191506040516121ec60608261394d565b602d81527f5573657220257320686164206665746368656420257320636f6e74726962757460208201526c6564206368616c6c656e67657360981b6040820152614064565b84548352600194850194889450602090930192016120c5565b50346108a55760203660031901126108a557612264613705565b61226c61411e565b6001600160a01b0316612280811515613f22565b806001600160601b0360a01b60105416176010556001600160601b0360a01b600f541617600f5580f35b50346108a55760203660031901126108a5576122c4613705565b9060018060a01b0382168152600460205260408120906040518083602082955493848152019084526020842092845b81811061245b5750506123089250038361394d565b6123128251613ed2565b91815b81518110156123ff578061232b60019284613cc9565b5184528160205260408420600a6040519161234583613931565b80548352848060a01b0385820154166020840152612365600282016139a8565b6040840152612376600382016139a8565b606084015261238f60ff60048301541660808501613a58565b600581015460a084015260ff6006820154166123aa816136ca565b60c0840152600781015460e084015260ff6008820154166123ca816136ca565b610100840152600981015461012084015201546101408201526123ed8287613cc9565b526123f88186613cc9565b5001612315565b61090684610ad18785519060405161241860608261394d565b602b81527f55736572202573206861642066657463686564202573206d6f6465726174656460208201526a206368616c6c656e67657360a81b6040820152614064565b84548352600194850194879450602090930192016122f3565b50346108a557806003193601126108a5576020601554604051908152f35b50346108a5576101203660031901126108a5576124ad613705565b906024356001600160401b038111610682576124cd903690600401613776565b926044356001600160401b0381116108a1576124ed903690600401613776565b92909160643590600e82101561067357600360a43510156106735760e4356003811015612079576015549261252184613d29565b6015556040519061253182613931565b8482526001600160a01b0384166020830190815292612575612554368d8a613dab565b9260408501938452612567368c8c613dab565b606086015260808501613a58565b60843560a084015261258860a4356136ca565b60a43560c084015260c43560e08401526125a1816136ca565b6101008301526101043561012083015261014082018990528489526001602081905260408a2083518155935190840180546001600160a01b0319166001600160a01b039290921691909117905551805160028401916001600160401b03821161078b5761261882612612855461396e565b85613c60565b602090601f831160011461288c5761264792918c918361069a5750508160011b916000199060031b1c19161790565b90555b60608101518051906001600160401b03821161070e57612671826103e6600387015461396e565b602090601f8311600114612823576126a092918b918361069a5750508160011b916000199060031b1c19161790565b60038301555b6080810151600e8110156106865784899a9461274b6127de9760408d6105bf986127e69f6101406105bf9f9e9a6127ce9a600a935060ff8019600487015416911617600485015560a0810151600585015561270860c0820151610466816136ca565b60e0810151600785015561272461010082015161048b816136ca565b610120810151600985015501519101556001600160a01b0385168152600360205220613bfc565b61275660a4356136ca565b60a4356127e957818c52600760205260408c20805460ff1916600117905561277d82613bd7565b6040519161278c60608461394d565b602683527f4368616c6c656e67652023257320736565646564206279202573206174202573602084015265103bb4ba341d60d11b6040840152608435926142b9565b6127d6613e09565b923691613dab565b6127d6613e44565b80f35b6127f460a4356136ca565b600160a4350361277d57818c52600960205260408c20805460ff1916600117905561281e82613bb2565b61277d565b600385018b52818b209190601f1984168c5b818110612874575090846001959493921061285b575b505050811b0160038301556126a6565b015160001960f88460031b161c1916905538808061284b565b92936020600181928786015181550195019301612835565b838c52818c209190601f1984168d5b8181106128d757509084600195949392106128be575b505050811b01905561264a565b015160001960f88460031b161c191690553880806128b1565b9293602060018192878601518155019501930161289b565b50346108a55760403660031901126108a5576003604061290d613705565b92602435808252600260205260048383200160018060a01b03861660005260205261293e60ff846000205416613d4e565b8152600260205220019060018060a01b03166000526020526109066108f260036040600020016139a8565b50346108a55760403660031901126108a5576129836136ea565b336001600160a01b0382160361299f57610c2590600435614237565b63334bd91960e11b8252600482fd5b50346108a55760203660031901126108a5576004356015548110156106825781526001602052600a60408220016129e58154613d29565b905580f35b50346108a55760403660031901126108a557610c25600435612a0a6136ea565b90612a26610c1b82600052600060205260016040600020015490565b6141ac565b50346108a55760203660031901126108a557602090600435612a506015548210613cdd565b81526001825260016040818060a01b039220015416604051908152f35b50346108a55760203660031901126108a557612a87613705565b6010546001600160a01b031615612df2576001600160a01b038116825260056020908152604080842090518154808252918552828520909392840191855b818110612ddc5750505082612adb91038361394d565b815192612ae784613cb2565b93612af5604051958661394d565b808552612b04601f1991613cb2565b01815b818110612d93575050600f546001600160a01b031691815b8451811015612c5f57612b328186613cc9565b518084526001602052604080852090516320cfeb4f60e11b81526001600160a01b038516600482015260248101839052906060826044818a5afa91821561089257869187918894612c11575b5080612bb7600360ff6004612bc5950154169260405198612b9e8a613916565b8952612bac600282016139a8565b60208a0152016139a8565b604087015260608601613a58565b6004811015612bfd57608084015260a083015260c082015260019190612beb8289613cc9565b52612bf68188613cc9565b5001612b1f565b634e487b7160e01b87526021600452602487fd5b92509250506060813d8211612c57575b81612c2e6060938361394d565b810103126106735780516020820151916004831015612075576040015192909190612bc5612b7e565b3d9150612c21565b509084612cbd606093604051612c75868261394d565b603081527f557365722025732068616420666574636865642070726576696577206f66206a60208201526f6f696e6564206368616c6c656e67657360801b60408201526140cf565b60405191602083019060208452825180925260408401602060408460051b870101940195825b848410612cf05786860387f35b9091929394603f1987820301845287519081518152612d33612d21602084015160e0602085015260e084019061371b565b6040840151838203604085015261371b565b91612d448582015186840190613769565b60808101516004811015612d7f57608083015260a0808201519083015260c09081015191015260209788019790959460010193019190612ce3565b634e487b7160e01b85526021600452602485fd5b602090604095949551612da581613916565b848152606083820152606060408201528460608201528460808201528460a08201528460c082015282828901015201939293612b07565b8254845260209093019260019283019201612ac5565b60405162461bcd60e51b815260206004820152601760248201527f536f6c7574696f6e4d616e61676572206e6f74207365740000000000000000006044820152606490fd5b50346108a557612e46366137a3565b8284939294526002602052612e6560ff60016040862001541615613a64565b600d54612eb2906020906001600160a01b0316612e83811515613ab0565b8486526001825260ff6004604088200154169060405180809581946393f7ea8160e01b83523360048401613b0b565b03915afa908115610e875790612ece9185916120475750613b2b565b6011546001600160a01b0316156107b3578183526002602052604083206003815410156131f757338452600481016020819052604085205490919060ff166131a057838552600160208190526040862001546001600160a01b0316331461314f576003913386526004602052612f478560408820613bfc565b612f513383613c1f565b3380875260209182526040808820805460ff191660019081179091558289529490930190915290852080546001600160a01b0319169091178155908101839055600301906001600160401b03811161313b57612fb781612fb1845461396e565b84613c60565b83601f82116001146130d75781908596612fe7949596926130cc5750508160011b916000199060031b1c19161790565b90555b60115482906001600160a01b0316803b15610682578190602460405180948193637b0ee4cd60e01b83528760048401525af180156130c1576130ab575b506127e69033817f07fe5c562bb72cc8709dc10987f69acf04ba0d45c871d6c281e32df878063dcd8580a360405161306060608261394d565b603181527f4d6f64657261746f72202573206a6f696e65642072657669657720706f6f6c20602082015270666f72206368616c6c656e67652023257360781b60408201523390614064565b916130ba816127e6939461394d565b9190613027565b6040513d85823e3d90fd5b0135905038806103a8565b601f198216958386526020862091865b88811061312357508360019596979810613109575b505050811b019055612fea565b0135600019600384901b60f8161c191690553880806130fc565b909260206001819286860135815501940191016130e7565b634e487b7160e01b84526041600452602484fd5b60405162461bcd60e51b815260206004820152602360248201527f436f6e7472696275746f722063616e6e6f74206a6f696e2072657669657720706044820152621bdbdb60ea1b6064820152608490fd5b60405162461bcd60e51b815260206004820152602960248201527f596f75206861766520616c7265616479206a6f696e656420746869732072657660448201526834b2bb903837b7b61760b91b6064820152608490fd5b60405162461bcd60e51b815260206004820152601660248201527513585e081b5bd9195c985d1bdc9cc81c995858da195960521b6044820152606490fd5b50346108a55760203660031901126108a55760206111c5600435600052600060205260016040600020015490565b50346108a55760403660031901126108a5576040906004356132836136ea565b90826101e08551613293816138e4565b82815282602082015282878201526060808201528260808201528260a08201528260c08201528260e08201528261010082015282610120820152826101408201528261016082015282610180820152826101a0820152826101c082015201526133468183865161330460608261394d565b602b81527f5573657220257320686164206665746368656420726576696577206f6620636860208201526a616c6c656e67652023257360a81b88820152614064565b825260026020526003838320019060018060a01b0316825260205220600660405191613371836138e4565b80546001600160a01b03168352600181015460208401526002810154604084015261339e600382016139a8565b606084015261345c60ff6004830154818116151560808701526133c9828260081c1660a08801613a4c565b6133db828260101c1660c08801613a4c565b6133ed828260181c1660e08801613a4c565b613400828260201c166101008801613a4c565b613413828260281c166101208801613a4c565b613426828260301c166101408801613a4c565b613439828260381c166101608801613a4c565b818160401c16613448816136ca565b61018087015260481c166101a08501613a58565b60058101546101c084015201546101e082015260405180916020825260018060a01b03815116602083015260208101516040830152604081015160608301526101e06134b96060830151610200608086015261022085019061371b565b916080810151151560a08501526134d860a082015160c086019061375c565b6134ea60c082015160e086019061375c565b6134fd60e082015161010086019061375c565b61351161010082015161012086019061375c565b61352561012082015161014086019061375c565b61353961014082015161016086019061375c565b61354d61016082015161018086019061375c565b61018081015161355c816136ca565b6101a08501526135766101a08201516101c0860190613769565b6101c08101518285015201516102008301520390f35b50346108a55760203660031901126108a55760ff6008604060209360043581526001855220015416604051906135c1816136ca565b8152f35b50346108a55760203660031901126108a5576004358152600660205260408120604051918260208354918281520192825260208220915b8181106136135761090685610a188187038261394d565b82546001600160a01b03168452602090930192600192830192016135fc565b9050346106825760203660031901126106825760043563ffffffff60e01b8116809103610e6e5760209250637965db0b60e01b8114908115613676575b5015158152f35b6301ffc9a760e01b1490503861366f565b602060408183019282815284518094520192019060005b8181106136ab5750505090565b82516001600160a01b031684526020938401939092019160010161369e565b600311156136d457565b634e487b7160e01b600052602160045260246000fd5b602435906001600160a01b038216820361370057565b600080fd5b600435906001600160a01b038216820361370057565b919082519283825260005b848110613747575050826000602080949584010152601f8019910116010190565b80602080928401015182828601015201613726565b9060028210156136d45752565b90600e8210156136d45752565b9181601f84011215613700578235916001600160401b038311613700576020838186019501011161370057565b9060406003198301126137005760043591602435906001600160401b038211613700576137d291600401613776565b9091565b908151815260018060a01b0360208301511660208201526101408061382161380f6040860151610160604087015261016086019061371b565b6060860151858203606087015261371b565b9361383460808201516080860190613769565b60a081015160a085015260c081015161384c816136ca565b60c085015260e081015160e085015261010081015161386a816136ca565b610100850152610120810151610120850152015191015290565b602081016020825282518091526040820191602060408360051b8301019401926000915b8383106138b757505050505090565b90919293946020806138d5600193603f1986820301875289516137d6565b970193019301919392906138a8565b61020081019081106001600160401b0382111761390057604052565b634e487b7160e01b600052604160045260246000fd5b60e081019081106001600160401b0382111761390057604052565b61016081019081106001600160401b0382111761390057604052565b90601f801991011681019081106001600160401b0382111761390057604052565b90600182811c9216801561399e575b602083101461398857565b634e487b7160e01b600052602260045260246000fd5b91607f169161397d565b90604051918260008254926139bc8461396e565b8084529360018116908115613a2a57506001146139e3575b506139e19250038361394d565b565b90506000929192526020600020906000915b818310613a0e5750509060206139e192820101386139d4565b60209193508060019154838589010152019101909184926139f5565b9050602092506139e194915060ff191682840152151560051b820101386139d4565b60028210156136d45752565b600e8210156136d45752565b15613a6b57565b60405162461bcd60e51b815260206004820152601b60248201527f4368616c6c656e676520616c72656164792066696e616c6973656400000000006044820152606490fd5b15613ab757565b60405162461bcd60e51b8152602060048201526014602482015273149bdb19481b585b9859d95c881b9bdd081cd95d60621b6044820152606490fd5b90816020910312613700575180151581036137005790565b6001600160a01b0390911681526040810192916139e19160200190613769565b15613b3257565b60405162461bcd60e51b815260206004820152600f60248201526e2737ba10309036b7b232b930ba37b960891b6044820152606490fd5b600854811015613b8457600860005260206000200190600090565b634e487b7160e01b600052603260045260246000fd5b8054821015613b845760005260206000200190600090565b600a5490600160401b821015613900576119c68260016139e19401600a55600a613b9a565b60085490600160401b821015613900576119c68260016139e194016008556008613b9a565b90815491600160401b83101561390057826119c69160016139e195018155613b9a565b8054600160401b81101561390057613c3c91600182018155613b9a565b81546001600160a01b0393841660039290921b91821b9390911b1916919091179055565b601f8211613c6d57505050565b6000526020600020906020601f840160051c83019310613ca8575b601f0160051c01905b818110613c9c575050565b60008155600101613c91565b9091508190613c88565b6001600160401b0381116139005760051b60200190565b8051821015613b845760209160051b010190565b15613ce457565b60405162461bcd60e51b815260206004820152601860248201527f4368616c6c656e676520646f6573206e6f7420657869737400000000000000006044820152606490fd5b6000198114613d385760010190565b634e487b7160e01b600052601160045260246000fd5b15613d5557565b60405162461bcd60e51b815260206004820152602860248201527f4d6f64657261746f7220686173206e6f74206a6f696e656420746865207265766044820152671a595dc81c1bdbdb60c21b6064820152608490fd5b9291926001600160401b0382116139005760405191613dd4601f8201601f19166020018461394d565b829481845281830111613700578281602093846000960137010152565b90613dfb816136ca565b60ff80198354169116179055565b60405190613e1860408361394d565b601782527f2d205469746c652075726c20202020202020203a2025730000000000000000006020830152565b60405190613e5360408361394d565b601782527f2d204465736372697074696f6e2075726c20203a2025730000000000000000006020830152565b60405190613e8c82613931565b600061014083828152826020820152606060408201526060808201528260808201528260a08201528260c08201528260e082015282610100820152826101208201520152565b90613edc82613cb2565b613ee9604051918261394d565b8281528092613efa601f1991613cb2565b019060005b828110613f0b57505050565b602090613f16613e7f565b82828501015201613eff565b15613f2957565b60405162461bcd60e51b815260206004820152600f60248201526e496e76616c6964206164647265737360881b6044820152606490fd5b91908201809211613d3857565b81810292918115918404141715613d3857565b8115613f8a570490565b634e487b7160e01b600052601260045260246000fd5b91908203918211613d3857565b90613fbb6015548310613cdd565b816000526002602052600460406000200160018060a01b038216600052602052613fec60ff60406000205416613d4e565b60008281526002602090815260408083206001600160a01b0390941683526003939093018152828220600601549382526001905220600701549081811061403a579061403791613fa0565b90565b61403791613fa0565b908060209392818452848401376000828201840152601f01601f1916010190565b6140b861409591600094938594604051948593630d26b92560e01b602086015260606024860152608485019061371b565b6001600160a01b039092166044840152606483015203601f19810183528261394d565b6020815191016a636f6e736f6c652e6c6f675afa50565b6140ff6140b860009392849360405193849263319af33360e01b602085015260406024850152606484019061371b565b6001600160a01b0391909116604483015203601f19810183528261394d565b3360009081527fad3228b676f7d3cd4284a5443f17f1962b36e491b30a40b2405849e597ba5fb5602052604090205460ff161561415757565b63e2517d3f60e01b60005233600452600060245260446000fd5b60008181526020818152604080832033845290915290205460ff16156141945750565b63e2517d3f60e01b6000523360045260245260446000fd5b6000818152602081815260408083206001600160a01b038616845290915290205460ff16614230576000818152602081815260408083206001600160a01b0395909516808452949091528120805460ff19166001179055339291907f2f8788117e7eff1d82e926ec794901d17c78024a50270940304540a733656f0d9080a4600190565b5050600090565b6000818152602081815260408083206001600160a01b038616845290915290205460ff1615614230576000818152602081815260408083206001600160a01b0395909516808452949091528120805460ff19169055339291907ff6391f5c32d9c69d2a47ea670b442974b53935d1edc7fd64eb21e047a839171b9080a4600190565b6140b8906142ea9260009586956040519586946327827ee360e11b60208701526080602487015260a486019061371b565b60448501939093526001600160a01b03166064840152608483015203601f19810183528261394d565b6143466140b8600093926143588594604051948593634b5c427760e01b602086015260406024860152606485019061371b565b8381036023190160448501529061371b565b03601f19810183528261394d565b6143966140b8600093928493604051938492632d839cb360e21b602085015260406024850152606484019061371b565b90604483015203601f19810183528261394d565b156143b157565b60405162461bcd60e51b815260206004820152602160248201527f4552524f523a204e6567617469766520646f6d61696e2072657075746174696f6044820152603760f91b6064820152608490fd5b6140b86144319160009493859460405194859363ca47c4eb60e01b602086015260606024860152608485019061371b565b916044840152606483015203601f19810183528261394d565b600090815260016020526040812060040154600b54929392829160ff16906001600160a01b0316825b865485101561455f576144868588613b9a565b9054600391821b1c6001600160a01b0316600081815291890160209081526040928390209251630cf571c160e11b815292939291829081906144cd90899060048401613b0b565b0381875afa90811561455357600091614520575b50916145116145179261450b600561450287611ed4600060019a12156143aa565b94015484613f6d565b90613f60565b95613f60565b94019392614473565b906020823d821161454b575b816145396020938361394d565b810103126108a55750516145116144e1565b3d915061452c565b6040513d6000823e3d90fd5b9495505050905080156142305761403791613f80565b600b5490929160009182916060916001600160a01b031690835b81548610156146e55760406145a48784613b9a565b60018060a01b0391549060031b1c1660009060018060a01b0316815260038401602052209061460960018060a01b03835416928a6000526001602052602060ff6004604060002001541660405180948192630cf571c160e11b83528860048401613b0b565b0381895afa80156145535787926000916146ad575b509261450b60019593600661469e9461469761463c6146a4996147b0565b8098819561464d604051918261394d565b603281527f5b4368616c6c656e67654d616e616765725d3a206d6f64657261746f72202573602082015271206861732072657075746174696f6e20257360701b6040820152614064565b0154613f6d565b96613f60565b9501949361458f565b9192506020823d82116146dd575b816146c86020938361394d565b810103126108a557505186919061450b61461e565b3d91506146bb565b959650505050905080156146fc5761403791613f80565b505060008061435861479660405161471560808261394d565b604481527f5b4368616c6c656e67654d616e616765725d3a2072657475726e20617661726160208201527f67652073636f72652030206265636175736520746f74616c5f7765696768742060408201526303d3d20360e41b606082015260405192839163104c13eb60e21b602084015260206024840152604483019061371b565b6020815191016a636f6e736f6c652e6c6f675afa50600090565b600081126147bb5790565b5060009056fea2646970667358221220af81c6409cbb9b9f5247ea5e3368461dace0c03be8aed3e51c3fa0e33a69af1064736f6c634300081a0033ad3228b676f7d3cd4284a5443f17f1962b36e491b30a40b2405849e597ba5fb5",
  "linkReferences": {},
  "deployedLinkReferences": {}
}