{
  "_format": "hh-sol-artifact-1",
  "contractName": "ChallengeManager",
  "sourceName": "contracts/ChallengeManager.sol",
  "abi": [
    {
      "anonymous": false,
      "inputs": [
        {
          "indexed": true,
          "internalType": "address",
          "name": "contributor",
          "type": "address"
        },
        {
          "indexed": false,
          "internalType": "string",
          "name": "title_url",
          "type": "string"
        },
        {
          "indexed": false,
          "internalType": "string",
          "name": "description_url",
          "type": "string"
        },
        {
          "indexed": false,
          "internalType": "enum ChallengeManager.Domain",
          "name": "category",
          "type": "uint8"
        },
        {
          "indexed": false,
          "internalType": "uint256",
          "name": "contribute_at",
          "type": "uint256"
        }
      ],
      "name": "ChallengeContributed",
      "type": "event"
    },
    {
      "anonymous": false,
      "inputs": [
        {
          "indexed": true,
          "internalType": "uint256",
          "name": "challengeId",
          "type": "uint256"
        },
        {
          "indexed": false,
          "internalType": "enum ChallengeManager.ChallengeStatus",
          "name": "status",
          "type": "uint8"
        },
        {
          "indexed": false,
          "internalType": "uint256",
          "name": "averagePercent",
          "type": "uint256"
        }
      ],
      "name": "ChallengeFinalized",
      "type": "event"
    },
    {
      "anonymous": false,
      "inputs": [
        {
          "indexed": true,
          "internalType": "address",
          "name": "user",
          "type": "address"
        },
        {
          "indexed": false,
          "internalType": "uint256",
          "name": "challengeId",
          "type": "uint256"
        },
        {
          "indexed": false,
          "internalType": "uint256",
          "name": "joinedAt",
          "type": "uint256"
        }
      ],
      "name": "ChallengeJoinedByUser",
      "type": "event"
    },
    {
      "anonymous": false,
      "inputs": [
        {
          "indexed": true,
          "internalType": "uint256",
          "name": "challenge_id",
          "type": "uint256"
        },
        {
          "indexed": true,
          "internalType": "address",
          "name": "moderator",
          "type": "address"
        }
      ],
      "name": "ReviewPoolJoined",
      "type": "event"
    },
    {
      "anonymous": false,
      "inputs": [
        {
          "indexed": true,
          "internalType": "address",
          "name": "user",
          "type": "address"
        },
        {
          "indexed": false,
          "internalType": "uint256",
          "name": "challengeId",
          "type": "uint256"
        },
        {
          "indexed": false,
          "internalType": "string",
          "name": "solutionUrl",
          "type": "string"
        },
        {
          "indexed": false,
          "internalType": "uint256",
          "name": "submittedAt",
          "type": "uint256"
        }
      ],
      "name": "SolutionSubmitted",
      "type": "event"
    },
    {
      "inputs": [],
      "name": "MAX_DIFFICULTY_LEVEL",
      "outputs": [
        {
          "internalType": "uint256",
          "name": "",
          "type": "uint256"
        }
      ],
      "stateMutability": "view",
      "type": "function"
    },
    {
      "inputs": [],
      "name": "MAX_DOMAIN",
      "outputs": [
        {
          "internalType": "uint256",
          "name": "",
          "type": "uint256"
        }
      ],
      "stateMutability": "view",
      "type": "function"
    },
    {
      "inputs": [],
      "name": "NUMBER_OF_QUALITY_FACTORS",
      "outputs": [
        {
          "internalType": "uint256",
          "name": "",
          "type": "uint256"
        }
      ],
      "stateMutability": "view",
      "type": "function"
    },
    {
      "inputs": [],
      "name": "REVIEW_QUORUM",
      "outputs": [
        {
          "internalType": "uint256",
          "name": "",
          "type": "uint256"
        }
      ],
      "stateMutability": "view",
      "type": "function"
    },
    {
      "inputs": [],
      "name": "REVIEW_THRESHOLD",
      "outputs": [
        {
          "internalType": "uint256",
          "name": "",
          "type": "uint256"
        }
      ],
      "stateMutability": "view",
      "type": "function"
    },
    {
      "inputs": [],
      "name": "approved_challenges",
      "outputs": [
        {
          "internalType": "uint256",
          "name": "",
          "type": "uint256"
        }
      ],
      "stateMutability": "view",
      "type": "function"
    },
    {
      "inputs": [
        {
          "internalType": "string",
          "name": "_title_url",
          "type": "string"
        },
        {
          "internalType": "string",
          "name": "_description_url",
          "type": "string"
        },
        {
          "internalType": "enum ChallengeManager.Domain",
          "name": "_category",
          "type": "uint8"
        }
      ],
      "name": "contributeChallenge",
      "outputs": [],
      "stateMutability": "nonpayable",
      "type": "function"
    },
    {
      "inputs": [],
      "name": "getApprovedChallenges",
      "outputs": [
        {
          "components": [
            {
              "internalType": "uint256",
              "name": "id",
              "type": "uint256"
            },
            {
              "internalType": "address",
              "name": "contributor",
              "type": "address"
            },
            {
              "internalType": "string",
              "name": "title_url",
              "type": "string"
            },
            {
              "internalType": "string",
              "name": "description_url",
              "type": "string"
            },
            {
              "internalType": "enum ChallengeManager.Domain",
              "name": "category",
              "type": "uint8"
            },
            {
              "internalType": "uint256",
              "name": "contribute_at",
              "type": "uint256"
            },
            {
              "internalType": "enum ChallengeManager.ChallengeStatus",
              "name": "status",
              "type": "uint8"
            },
            {
              "internalType": "uint256",
              "name": "quality_score",
              "type": "uint256"
            },
            {
              "internalType": "enum ChallengeManager.DifficultyLevel",
              "name": "difficulty_level",
              "type": "uint8"
            },
            {
              "internalType": "uint256",
              "name": "solve_time",
              "type": "uint256"
            }
          ],
          "internalType": "struct ChallengeManager.Challenge[]",
          "name": "",
          "type": "tuple[]"
        }
      ],
      "stateMutability": "view",
      "type": "function"
    },
    {
      "inputs": [
        {
          "internalType": "uint256",
          "name": "_challenge_id",
          "type": "uint256"
        }
      ],
      "name": "getChallengeById",
      "outputs": [
        {
          "components": [
            {
              "internalType": "uint256",
              "name": "id",
              "type": "uint256"
            },
            {
              "internalType": "address",
              "name": "contributor",
              "type": "address"
            },
            {
              "internalType": "string",
              "name": "title_url",
              "type": "string"
            },
            {
              "internalType": "string",
              "name": "description_url",
              "type": "string"
            },
            {
              "internalType": "enum ChallengeManager.Domain",
              "name": "category",
              "type": "uint8"
            },
            {
              "internalType": "uint256",
              "name": "contribute_at",
              "type": "uint256"
            },
            {
              "internalType": "enum ChallengeManager.ChallengeStatus",
              "name": "status",
              "type": "uint8"
            },
            {
              "internalType": "uint256",
              "name": "quality_score",
              "type": "uint256"
            },
            {
              "internalType": "enum ChallengeManager.DifficultyLevel",
              "name": "difficulty_level",
              "type": "uint8"
            },
            {
              "internalType": "uint256",
              "name": "solve_time",
              "type": "uint256"
            }
          ],
          "internalType": "struct ChallengeManager.Challenge",
          "name": "",
          "type": "tuple"
        }
      ],
      "stateMutability": "view",
      "type": "function"
    },
    {
      "inputs": [
        {
          "internalType": "uint256",
          "name": "_challenge_id",
          "type": "uint256"
        }
      ],
      "name": "getChallengeFinalizedStatus",
      "outputs": [
        {
          "internalType": "bool",
          "name": "",
          "type": "bool"
        }
      ],
      "stateMutability": "view",
      "type": "function"
    },
    {
      "inputs": [
        {
          "internalType": "address",
          "name": "_contributor_address",
          "type": "address"
        }
      ],
      "name": "getChallengesByContributor",
      "outputs": [
        {
          "components": [
            {
              "internalType": "uint256",
              "name": "id",
              "type": "uint256"
            },
            {
              "internalType": "address",
              "name": "contributor",
              "type": "address"
            },
            {
              "internalType": "string",
              "name": "title_url",
              "type": "string"
            },
            {
              "internalType": "string",
              "name": "description_url",
              "type": "string"
            },
            {
              "internalType": "enum ChallengeManager.Domain",
              "name": "category",
              "type": "uint8"
            },
            {
              "internalType": "uint256",
              "name": "contribute_at",
              "type": "uint256"
            },
            {
              "internalType": "enum ChallengeManager.ChallengeStatus",
              "name": "status",
              "type": "uint8"
            },
            {
              "internalType": "uint256",
              "name": "quality_score",
              "type": "uint256"
            },
            {
              "internalType": "enum ChallengeManager.DifficultyLevel",
              "name": "difficulty_level",
              "type": "uint8"
            },
            {
              "internalType": "uint256",
              "name": "solve_time",
              "type": "uint256"
            }
          ],
          "internalType": "struct ChallengeManager.Challenge[]",
          "name": "",
          "type": "tuple[]"
        }
      ],
      "stateMutability": "view",
      "type": "function"
    },
    {
      "inputs": [
        {
          "internalType": "address",
          "name": "_moderator_address",
          "type": "address"
        }
      ],
      "name": "getChallengesByModerator",
      "outputs": [
        {
          "components": [
            {
              "internalType": "uint256",
              "name": "id",
              "type": "uint256"
            },
            {
              "internalType": "address",
              "name": "contributor",
              "type": "address"
            },
            {
              "internalType": "string",
              "name": "title_url",
              "type": "string"
            },
            {
              "internalType": "string",
              "name": "description_url",
              "type": "string"
            },
            {
              "internalType": "enum ChallengeManager.Domain",
              "name": "category",
              "type": "uint8"
            },
            {
              "internalType": "uint256",
              "name": "contribute_at",
              "type": "uint256"
            },
            {
              "internalType": "enum ChallengeManager.ChallengeStatus",
              "name": "status",
              "type": "uint8"
            },
            {
              "internalType": "uint256",
              "name": "quality_score",
              "type": "uint256"
            },
            {
              "internalType": "enum ChallengeManager.DifficultyLevel",
              "name": "difficulty_level",
              "type": "uint8"
            },
            {
              "internalType": "uint256",
              "name": "solve_time",
              "type": "uint256"
            }
          ],
          "internalType": "struct ChallengeManager.Challenge[]",
          "name": "",
          "type": "tuple[]"
        }
      ],
      "stateMutability": "view",
      "type": "function"
    },
    {
      "inputs": [
        {
          "internalType": "uint256",
          "name": "_challenge_id",
          "type": "uint256"
        },
        {
          "internalType": "address",
          "name": "_moderator_address",
          "type": "address"
        }
      ],
      "name": "getJoinReviewPoolStatus",
      "outputs": [
        {
          "internalType": "bool",
          "name": "",
          "type": "bool"
        }
      ],
      "stateMutability": "view",
      "type": "function"
    },
    {
      "inputs": [
        {
          "internalType": "address",
          "name": "_user_address",
          "type": "address"
        },
        {
          "internalType": "address",
          "name": "_solution_address",
          "type": "address"
        }
      ],
      "name": "getJoinedChallengesByUserForPreview",
      "outputs": [
        {
          "components": [
            {
              "internalType": "uint256",
              "name": "challenge_id",
              "type": "uint256"
            },
            {
              "internalType": "string",
              "name": "title_url",
              "type": "string"
            },
            {
              "internalType": "string",
              "name": "description_url",
              "type": "string"
            },
            {
              "internalType": "enum ChallengeManager.Domain",
              "name": "domain",
              "type": "uint8"
            },
            {
              "internalType": "enum SolutionProgress",
              "name": "progress",
              "type": "uint8"
            },
            {
              "internalType": "uint256",
              "name": "joined_at",
              "type": "uint256"
            },
            {
              "internalType": "uint256",
              "name": "score",
              "type": "uint256"
            }
          ],
          "internalType": "struct ChallengeManager.JoinedChallengesPreview[]",
          "name": "",
          "type": "tuple[]"
        }
      ],
      "stateMutability": "view",
      "type": "function"
    },
    {
      "inputs": [
        {
          "internalType": "uint256",
          "name": "challenge_id",
          "type": "uint256"
        },
        {
          "internalType": "address",
          "name": "_moderator_address",
          "type": "address"
        }
      ],
      "name": "getModeratorReviewOfChallenge",
      "outputs": [
        {
          "components": [
            {
              "internalType": "address",
              "name": "moderator",
              "type": "address"
            },
            {
              "internalType": "uint256",
              "name": "challenge_id",
              "type": "uint256"
            },
            {
              "internalType": "uint256",
              "name": "review_time",
              "type": "uint256"
            },
            {
              "internalType": "enum ChallengeManager.QualityFactorAnswer",
              "name": "relevance",
              "type": "uint8"
            },
            {
              "internalType": "enum ChallengeManager.QualityFactorAnswer",
              "name": "technical_correctness",
              "type": "uint8"
            },
            {
              "internalType": "enum ChallengeManager.QualityFactorAnswer",
              "name": "completeness",
              "type": "uint8"
            },
            {
              "internalType": "enum ChallengeManager.QualityFactorAnswer",
              "name": "clarity",
              "type": "uint8"
            },
            {
              "internalType": "enum ChallengeManager.QualityFactorAnswer",
              "name": "originality",
              "type": "uint8"
            },
            {
              "internalType": "enum ChallengeManager.QualityFactorAnswer",
              "name": "unbiased",
              "type": "uint8"
            },
            {
              "internalType": "enum ChallengeManager.QualityFactorAnswer",
              "name": "plagiarism_free",
              "type": "uint8"
            },
            {
              "internalType": "enum ChallengeManager.DifficultyLevel",
              "name": "suggested_difficulty",
              "type": "uint8"
            },
            {
              "internalType": "enum ChallengeManager.Domain",
              "name": "suggested_category",
              "type": "uint8"
            },
            {
              "internalType": "uint256",
              "name": "suggested_solve_time",
              "type": "uint256"
            }
          ],
          "internalType": "struct ChallengeManager.ModeratorReview",
          "name": "",
          "type": "tuple"
        }
      ],
      "stateMutability": "view",
      "type": "function"
    },
    {
      "inputs": [],
      "name": "getPendingChallenges",
      "outputs": [
        {
          "components": [
            {
              "internalType": "uint256",
              "name": "id",
              "type": "uint256"
            },
            {
              "internalType": "address",
              "name": "contributor",
              "type": "address"
            },
            {
              "internalType": "string",
              "name": "title_url",
              "type": "string"
            },
            {
              "internalType": "string",
              "name": "description_url",
              "type": "string"
            },
            {
              "internalType": "enum ChallengeManager.Domain",
              "name": "category",
              "type": "uint8"
            },
            {
              "internalType": "uint256",
              "name": "contribute_at",
              "type": "uint256"
            },
            {
              "internalType": "enum ChallengeManager.ChallengeStatus",
              "name": "status",
              "type": "uint8"
            },
            {
              "internalType": "uint256",
              "name": "quality_score",
              "type": "uint256"
            },
            {
              "internalType": "enum ChallengeManager.DifficultyLevel",
              "name": "difficulty_level",
              "type": "uint8"
            },
            {
              "internalType": "uint256",
              "name": "solve_time",
              "type": "uint256"
            }
          ],
          "internalType": "struct ChallengeManager.Challenge[]",
          "name": "",
          "type": "tuple[]"
        }
      ],
      "stateMutability": "view",
      "type": "function"
    },
    {
      "inputs": [
        {
          "internalType": "uint256",
          "name": "_challenge_id",
          "type": "uint256"
        }
      ],
      "name": "getReviewPoolSize",
      "outputs": [
        {
          "internalType": "uint256",
          "name": "",
          "type": "uint256"
        }
      ],
      "stateMutability": "view",
      "type": "function"
    },
    {
      "inputs": [],
      "name": "getReviewQuorum",
      "outputs": [
        {
          "internalType": "uint256",
          "name": "",
          "type": "uint256"
        }
      ],
      "stateMutability": "pure",
      "type": "function"
    },
    {
      "inputs": [
        {
          "internalType": "uint256",
          "name": "_challenge_id",
          "type": "uint256"
        }
      ],
      "name": "joinReviewPool",
      "outputs": [],
      "stateMutability": "nonpayable",
      "type": "function"
    },
    {
      "inputs": [],
      "name": "pending_challenges",
      "outputs": [
        {
          "internalType": "uint256",
          "name": "",
          "type": "uint256"
        }
      ],
      "stateMutability": "view",
      "type": "function"
    },
    {
      "inputs": [
        {
          "internalType": "address",
          "name": "_contributor",
          "type": "address"
        },
        {
          "internalType": "string",
          "name": "_title_url",
          "type": "string"
        },
        {
          "internalType": "string",
          "name": "_description_url",
          "type": "string"
        },
        {
          "internalType": "enum ChallengeManager.Domain",
          "name": "_category",
          "type": "uint8"
        },
        {
          "internalType": "uint256",
          "name": "_contribute_at",
          "type": "uint256"
        },
        {
          "internalType": "enum ChallengeManager.ChallengeStatus",
          "name": "_status",
          "type": "uint8"
        },
        {
          "internalType": "uint256",
          "name": "_quality_score",
          "type": "uint256"
        },
        {
          "internalType": "enum ChallengeManager.DifficultyLevel",
          "name": "_difficulty_level",
          "type": "uint8"
        },
        {
          "internalType": "uint256",
          "name": "_solve_time",
          "type": "uint256"
        }
      ],
      "name": "seedChallenge",
      "outputs": [],
      "stateMutability": "nonpayable",
      "type": "function"
    },
    {
      "inputs": [
        {
          "internalType": "uint256",
          "name": "_challenge_id",
          "type": "uint256"
        },
        {
          "internalType": "enum ChallengeManager.QualityFactorAnswer",
          "name": "_relevance",
          "type": "uint8"
        },
        {
          "internalType": "enum ChallengeManager.QualityFactorAnswer",
          "name": "_technical_correctness",
          "type": "uint8"
        },
        {
          "internalType": "enum ChallengeManager.QualityFactorAnswer",
          "name": "_completeness",
          "type": "uint8"
        },
        {
          "internalType": "enum ChallengeManager.QualityFactorAnswer",
          "name": "_clarity",
          "type": "uint8"
        },
        {
          "internalType": "enum ChallengeManager.QualityFactorAnswer",
          "name": "_originality",
          "type": "uint8"
        },
        {
          "internalType": "enum ChallengeManager.QualityFactorAnswer",
          "name": "_unbiased",
          "type": "uint8"
        },
        {
          "internalType": "enum ChallengeManager.QualityFactorAnswer",
          "name": "_plagiarism_free",
          "type": "uint8"
        },
        {
          "internalType": "enum ChallengeManager.DifficultyLevel",
          "name": "_suggested_difficulty",
          "type": "uint8"
        },
        {
          "internalType": "enum ChallengeManager.Domain",
          "name": "_suggested_category",
          "type": "uint8"
        },
        {
          "internalType": "uint256",
          "name": "_suggested_solve_time",
          "type": "uint256"
        }
      ],
      "name": "submitModeratorReview",
      "outputs": [],
      "stateMutability": "nonpayable",
      "type": "function"
    },
    {
      "inputs": [],
      "name": "total_challenges",
      "outputs": [
        {
          "internalType": "uint256",
          "name": "",
          "type": "uint256"
        }
      ],
      "stateMutability": "view",
      "type": "function"
    },
    {
      "inputs": [
        {
          "internalType": "uint256",
          "name": "_challenge_id",
          "type": "uint256"
        },
        {
          "internalType": "address",
          "name": "_solution_address",
          "type": "address"
        }
      ],
      "name": "userJoinChallenge",
      "outputs": [],
      "stateMutability": "nonpayable",
      "type": "function"
    }
  ],
  "bytecode": "0x6080604052600060065560006007556000600855348015601e57600080fd5b50615a5a8061002e6000396000f3fe608060405234801561001057600080fd5b50600436106101585760003560e01c806392376e13116100c3578063cd6e56611161007c578063cd6e5661146103dd578063dd0e12ca1461040d578063e94a78301461042b578063e9d04f711461045b578063f83eb27514610479578063f8983b661461049757610158565b806392376e13146102f3578063955b672414610323578063a22b6a8614610341578063a821a0671461035f578063be21f20c1461038f578063c80191b8146103ad57610158565b80635057494a116101155780635057494a1461021f5780635a14c9441461024f5780635d880de91461026b578063616e2e56146102895780636bf8eaf2146102b95780638758aabb146102d757610158565b80630f3356031461015d57806328b4f6b91461018d5780632b366996146101a957806345637d8f146101c757806349a25e6d146101e35780634c7b5a8e14610201575b600080fd5b61017760048036038101906101729190613fe1565b6104b3565b6040516101849190614251565b60405180910390f35b6101a760048036038101906101a29190613fe1565b6107cc565b005b6101b16109c6565b6040516101be919061427c565b60405180910390f35b6101e160048036038101906101dc919061436b565b6109cc565b005b6101eb610e70565b6040516101f8919061427c565b60405180910390f35b610209610e75565b604051610216919061427c565b60405180910390f35b61023960048036038101906102349190614477565b610e7b565b604051610246919061471f565b60405180910390f35b61026960048036038101906102649190614741565b611259565b005b610273611569565b604051610280919061427c565b60405180910390f35b6102a3600480360381019061029e9190614477565b61156e565b6040516102b0919061471f565b60405180910390f35b6102c161194c565b6040516102ce919061427c565b60405180910390f35b6102f160048036038101906102ec9190614793565b611951565b005b61030d60048036038101906103089190614741565b6121aa565b60405161031a9190614968565b60405180910390f35b61032b61244d565b604051610338919061427c565b60405180910390f35b610349612452565b604051610356919061427c565b60405180910390f35b61037960048036038101906103749190614741565b612458565b60405161038691906149a5565b60405180910390f35b610397612485565b6040516103a4919061471f565b60405180910390f35b6103c760048036038101906103c29190613fe1565b612815565b6040516103d491906149a5565b60405180910390f35b6103f760048036038101906103f291906149c0565b612880565b6040516104049190614bad565b60405180910390f35b610415612c19565b604051610422919061471f565b60405180910390f35b61044560048036038101906104409190614741565b612fa9565b604051610452919061427c565b60405180910390f35b610463612fcc565b604051610470919061427c565b60405180910390f35b610481612fd1565b60405161048e919061427c565b60405180910390f35b6104b160048036038101906104ac9190614bcf565b612fda565b005b6104bb613d19565b6104de6040518060600160405280602b8152602001615906602b91398385613470565b6001600084815260200190815260200160002060030160008373ffffffffffffffffffffffffffffffffffffffff1673ffffffffffffffffffffffffffffffffffffffff168152602001908152602001600020604051806101a00160405290816000820160009054906101000a900473ffffffffffffffffffffffffffffffffffffffff1673ffffffffffffffffffffffffffffffffffffffff1673ffffffffffffffffffffffffffffffffffffffff16815260200160018201548152602001600282015481526020016003820160009054906101000a900460ff1660018111156105cc576105cb61403f565b5b60018111156105de576105dd61403f565b5b81526020016003820160019054906101000a900460ff1660018111156106075761060661403f565b5b60018111156106195761061861403f565b5b81526020016003820160029054906101000a900460ff1660018111156106425761064161403f565b5b60018111156106545761065361403f565b5b81526020016003820160039054906101000a900460ff16600181111561067d5761067c61403f565b5b600181111561068f5761068e61403f565b5b81526020016003820160049054906101000a900460ff1660018111156106b8576106b761403f565b5b60018111156106ca576106c961403f565b5b81526020016003820160059054906101000a900460ff1660018111156106f3576106f261403f565b5b60018111156107055761070461403f565b5b81526020016003820160069054906101000a900460ff16600181111561072e5761072d61403f565b5b60018111156107405761073f61403f565b5b81526020016003820160079054906101000a900460ff1660028111156107695761076861403f565b5b600281111561077b5761077a61403f565b5b81526020016003820160089054906101000a900460ff16600d8111156107a4576107a361403f565b5b600d8111156107b6576107b561403f565b5b8152602001600482015481525050905092915050565b60065482106107da57600080fd5b60008190508073ffffffffffffffffffffffffffffffffffffffff1663846900cf33856040518363ffffffff1660e01b815260040161081a929190614c73565b602060405180830381865afa158015610837573d6000803e3d6000fd5b505050506040513d601f19601f8201168201806040525081019061085b9190614cc8565b1561086557600080fd5b60006103e8426108759190614d24565b90508173ffffffffffffffffffffffffffffffffffffffff16637d2c111f3386846040518463ffffffff1660e01b81526004016108b493929190614d66565b600060405180830381600087803b1580156108ce57600080fd5b505af11580156108e2573d6000803e3d6000fd5b50505050600560003373ffffffffffffffffffffffffffffffffffffffff1673ffffffffffffffffffffffffffffffffffffffff1681526020019081526020016000208490806001815401808255809150506001900390600052602060002001600090919091909150556109706040518060600160405280602181526020016159626021913933868461350f565b3373ffffffffffffffffffffffffffffffffffffffff167fc9e3de16af1f601c85f1f98f6bc173cd0a8b0fcd25dcd67893470617830fa5f985836040516109b8929190614d9d565b60405180910390a250505050565b60075481565b6000600660008154809291906109e190614dc6565b9190505590506040518061014001604052808281526020018d73ffffffffffffffffffffffffffffffffffffffff1681526020018c8c8080601f016020809104026020016040519081016040528093929190818152602001838380828437600081840152601f19601f8201169050808301925050505050505081526020018a8a8080601f016020809104026020016040519081016040528093929190818152602001838380828437600081840152601f19601f82011690508083019250505050505050815260200188600d811115610abc57610abb61403f565b5b8152602001878152602001866002811115610ada57610ad961403f565b5b8152602001858152602001846002811115610af857610af761403f565b5b8152602001838152506000808381526020019081526020016000206000820151816000015560208201518160010160006101000a81548173ffffffffffffffffffffffffffffffffffffffff021916908373ffffffffffffffffffffffffffffffffffffffff1602179055506040820151816002019081610b799190615049565b506060820151816003019081610b8f9190615049565b5060808201518160040160006101000a81548160ff0219169083600d811115610bbb57610bba61403f565b5b021790555060a0820151816005015560c08201518160060160006101000a81548160ff02191690836002811115610bf557610bf461403f565b5b021790555060e082015181600701556101008201518160080160006101000a81548160ff02191690836002811115610c3057610c2f61403f565b5b02179055506101208201518160090155905050600260008d73ffffffffffffffffffffffffffffffffffffffff1673ffffffffffffffffffffffffffffffffffffffff16815260200190815260200160002081908060018154018082558091505060019003906000526020600020016000909190919091505560006002811115610cbd57610cbc61403f565b5b856002811115610cd057610ccf61403f565b5b03610cf25760076000815480929190610ce890614dc6565b9190505550610d38565b60016002811115610d0657610d0561403f565b5b856002811115610d1957610d1861403f565b5b03610d375760086000815480929190610d3190614dc6565b91905055505b5b610d5c6040518060600160405280602681526020016158e060269139828e896135b1565b610ddf6040518060400160405280601781526020017f2d205469746c652075726c20202020202020203a2025730000000000000000008152508c8c8080601f016020809104026020016040519081016040528093929190818152602001838380828437600081840152601f19601f82011690508083019250505050505050613653565b610e626040518060400160405280601781526020017f2d204465736372697074696f6e2075726c20203a2025730000000000000000008152508a8a8080601f016020809104026020016040519081016040528093929190818152602001838380828437600081840152601f19601f82011690508083019250505050505050613653565b505050505050505050505050565b600e81565b60065481565b60606000600360008473ffffffffffffffffffffffffffffffffffffffff1673ffffffffffffffffffffffffffffffffffffffff168152602001908152602001600020805480602002602001604051908101604052809291908181526020018280548015610f0857602002820191906000526020600020905b815481526020019060010190808311610ef4575b505050505090506000815167ffffffffffffffff811115610f2c57610f2b614e0e565b5b604051908082528060200260200182016040528015610f6557816020015b610f52613e39565b815260200190600190039081610f4a5790505b50905060005b825181101561122a57600080848381518110610f8a57610f8961511b565b5b6020026020010151815260200190815260200160002060405180610140016040529081600082015481526020016001820160009054906101000a900473ffffffffffffffffffffffffffffffffffffffff1673ffffffffffffffffffffffffffffffffffffffff1673ffffffffffffffffffffffffffffffffffffffff16815260200160028201805461101c90614e6c565b80601f016020809104026020016040519081016040528092919081815260200182805461104890614e6c565b80156110955780601f1061106a57610100808354040283529160200191611095565b820191906000526020600020905b81548152906001019060200180831161107857829003601f168201915b505050505081526020016003820180546110ae90614e6c565b80601f01602080910402602001604051908101604052809291908181526020018280546110da90614e6c565b80156111275780601f106110fc57610100808354040283529160200191611127565b820191906000526020600020905b81548152906001019060200180831161110a57829003601f168201915b505050505081526020016004820160009054906101000a900460ff16600d8111156111555761115461403f565b5b600d8111156111675761116661403f565b5b8152602001600582015481526020016006820160009054906101000a900460ff16600281111561119a5761119961403f565b5b60028111156111ac576111ab61403f565b5b8152602001600782015481526020016008820160009054906101000a900460ff1660028111156111df576111de61403f565b5b60028111156111f1576111f061403f565b5b81526020016009820154815250508282815181106112125761121161511b565b5b60200260200101819052508080600101915050610f6b565b5061124f6040518060600160405280602b8152602001615853602b9139858451613470565b8092505050919050565b806001600082815260200190815260200160002060010160009054906101000a900460ff16156112be576040517f08c379a00000000000000000000000000000000000000000000000000000000081526004016112b5906151a7565b60405180910390fd5b600360016000848152602001908152602001600020600001805490501061131a576040517f08c379a000000000000000000000000000000000000000000000000000000000815260040161131190615213565b60405180910390fd5b600015156001600084815260200190815260200160002060040160003373ffffffffffffffffffffffffffffffffffffffff1673ffffffffffffffffffffffffffffffffffffffff16815260200190815260200160002060009054906101000a900460ff161515146113c1576040517f08c379a00000000000000000000000000000000000000000000000000000000081526004016113b8906152a5565b60405180910390fd5b600360003373ffffffffffffffffffffffffffffffffffffffff1673ffffffffffffffffffffffffffffffffffffffff168152602001908152602001600020829080600181540180825580915050600190039060005260206000200160009091909190915055600060016000848152602001908152602001600020905080600001339080600181540180825580915050600190039060005260206000200160009091909190916101000a81548173ffffffffffffffffffffffffffffffffffffffff021916908373ffffffffffffffffffffffffffffffffffffffff16021790555060018160040160003373ffffffffffffffffffffffffffffffffffffffff1673ffffffffffffffffffffffffffffffffffffffff16815260200190815260200160002060006101000a81548160ff0219169083151502179055503373ffffffffffffffffffffffffffffffffffffffff16837f07fe5c562bb72cc8709dc10987f69acf04ba0d45c871d6c281e32df878063dcd60405160405180910390a36115646040518060600160405280603181526020016159f4603191393385613470565b505050565b600381565b60606000600260008473ffffffffffffffffffffffffffffffffffffffff1673ffffffffffffffffffffffffffffffffffffffff1681526020019081526020016000208054806020026020016040519081016040528092919081815260200182805480156115fb57602002820191906000526020600020905b8154815260200190600101908083116115e7575b505050505090506000815167ffffffffffffffff81111561161f5761161e614e0e565b5b60405190808252806020026020018201604052801561165857816020015b611645613e39565b81526020019060019003908161163d5790505b50905060005b825181101561191d5760008084838151811061167d5761167c61511b565b5b6020026020010151815260200190815260200160002060405180610140016040529081600082015481526020016001820160009054906101000a900473ffffffffffffffffffffffffffffffffffffffff1673ffffffffffffffffffffffffffffffffffffffff1673ffffffffffffffffffffffffffffffffffffffff16815260200160028201805461170f90614e6c565b80601f016020809104026020016040519081016040528092919081815260200182805461173b90614e6c565b80156117885780601f1061175d57610100808354040283529160200191611788565b820191906000526020600020905b81548152906001019060200180831161176b57829003601f168201915b505050505081526020016003820180546117a190614e6c565b80601f01602080910402602001604051908101604052809291908181526020018280546117cd90614e6c565b801561181a5780601f106117ef5761010080835404028352916020019161181a565b820191906000526020600020905b8154815290600101906020018083116117fd57829003601f168201915b505050505081526020016004820160009054906101000a900460ff16600d8111156118485761184761403f565b5b600d81111561185a5761185961403f565b5b8152602001600582015481526020016006820160009054906101000a900460ff16600281111561188d5761188c61403f565b5b600281111561189f5761189e61403f565b5b8152602001600782015481526020016008820160009054906101000a900460ff1660028111156118d2576118d161403f565b5b60028111156118e4576118e361403f565b5b81526020016009820154815250508282815181106119055761190461511b565b5b6020026020010181905250808060010191505061165e565b506119426040518060600160405280602d81526020016159c7602d9139858451613470565b8092505050919050565b605081565b8a6001600082815260200190815260200160002060010160009054906101000a900460ff16156119b6576040517f08c379a00000000000000000000000000000000000000000000000000000000081526004016119ad906151a7565b60405180910390fd5b60011515600160008e815260200190815260200160002060040160003373ffffffffffffffffffffffffffffffffffffffff1673ffffffffffffffffffffffffffffffffffffffff16815260200190815260200160002060009054906101000a900460ff16151514611a5d576040517f08c379a0000000000000000000000000000000000000000000000000000000008152600401611a5490615337565b60405180910390fd5b6000600160008e8152602001908152602001600020905060008160030160003373ffffffffffffffffffffffffffffffffffffffff1673ffffffffffffffffffffffffffffffffffffffff1681526020019081526020016000206002015403611adb57806002016000815480929190611ad590614dc6565b91905055505b604051806101a001604052803373ffffffffffffffffffffffffffffffffffffffff1681526020018e81526020014281526020018d6001811115611b2257611b2161403f565b5b81526020018c6001811115611b3a57611b3961403f565b5b81526020018b6001811115611b5257611b5161403f565b5b81526020018a6001811115611b6a57611b6961403f565b5b8152602001896001811115611b8257611b8161403f565b5b8152602001886001811115611b9a57611b9961403f565b5b8152602001876001811115611bb257611bb161403f565b5b8152602001866002811115611bca57611bc961403f565b5b815260200185600d811115611be257611be161403f565b5b8152602001848152508160030160003373ffffffffffffffffffffffffffffffffffffffff1673ffffffffffffffffffffffffffffffffffffffff16815260200190815260200160002060008201518160000160006101000a81548173ffffffffffffffffffffffffffffffffffffffff021916908373ffffffffffffffffffffffffffffffffffffffff160217905550602082015181600101556040820151816002015560608201518160030160006101000a81548160ff02191690836001811115611cb257611cb161403f565b5b021790555060808201518160030160016101000a81548160ff02191690836001811115611ce257611ce161403f565b5b021790555060a08201518160030160026101000a81548160ff02191690836001811115611d1257611d1161403f565b5b021790555060c08201518160030160036101000a81548160ff02191690836001811115611d4257611d4161403f565b5b021790555060e08201518160030160046101000a81548160ff02191690836001811115611d7257611d7161403f565b5b02179055506101008201518160030160056101000a81548160ff02191690836001811115611da357611da261403f565b5b02179055506101208201518160030160066101000a81548160ff02191690836001811115611dd457611dd361403f565b5b02179055506101408201518160030160076101000a81548160ff02191690836002811115611e0557611e0461403f565b5b02179055506101608201518160030160086101000a81548160ff0219169083600d811115611e3657611e3561403f565b5b02179055506101808201518160040155905050611e6c6040518060600160405280602d8152602001615826602d9139338f613470565b611ebd6040518060400160405280600f81526020017f2d2052656c6576616e63653a20257300000000000000000000000000000000008152508d6001811115611eb857611eb761403f565b5b6136ef565b611f0e6040518060400160405280601b81526020017f2d20546563686e6963616c20636f72726563746e6573733a20257300000000008152508c6001811115611f0957611f0861403f565b5b6136ef565b611f5f6040518060400160405280601281526020017f2d20436f6d706c6574656e6573733a20257300000000000000000000000000008152508b6001811115611f5a57611f5961403f565b5b6136ef565b611fb06040518060400160405280600d81526020017f2d20436c61726974793a202573000000000000000000000000000000000000008152508a6001811115611fab57611faa61403f565b5b6136ef565b6120016040518060400160405280601181526020017f2d204f726967696e616c6974793a202573000000000000000000000000000000815250896001811115611ffc57611ffb61403f565b5b6136ef565b6120526040518060400160405280600e81526020017f2d20556e6269617365643a20257300000000000000000000000000000000000081525088600181111561204d5761204c61403f565b5b6136ef565b6120a36040518060400160405280601581526020017f2d20506c616769617269736d20667265653a202573000000000000000000000081525087600181111561209e5761209d61403f565b5b6136ef565b6120f46040518060400160405280601a81526020017f2d2053756767657374656420646966666963756c74793a2025730000000000008152508660028111156120ef576120ee61403f565b5b6136ef565b6121456040518060400160405280601881526020017f2d205375676765737465642063617465676f72793a202573000000000000000081525085600d8111156121405761213f61403f565b5b6136ef565b6121846040518060400160405280601a81526020017f2d2053756767657374656420736f6c76652074696d653a202573000000000000815250846136ef565b600381600201541061219b5761219a8d8261378b565b5b50505050505050505050505050565b6121b2613e39565b6121d5604051806060016040528060218152602001615983602191393384613470565b60008083815260200190815260200160002060405180610140016040529081600082015481526020016001820160009054906101000a900473ffffffffffffffffffffffffffffffffffffffff1673ffffffffffffffffffffffffffffffffffffffff1673ffffffffffffffffffffffffffffffffffffffff16815260200160028201805461226390614e6c565b80601f016020809104026020016040519081016040528092919081815260200182805461228f90614e6c565b80156122dc5780601f106122b1576101008083540402835291602001916122dc565b820191906000526020600020905b8154815290600101906020018083116122bf57829003601f168201915b505050505081526020016003820180546122f590614e6c565b80601f016020809104026020016040519081016040528092919081815260200182805461232190614e6c565b801561236e5780601f106123435761010080835404028352916020019161236e565b820191906000526020600020905b81548152906001019060200180831161235157829003601f168201915b505050505081526020016004820160009054906101000a900460ff16600d81111561239c5761239b61403f565b5b600d8111156123ae576123ad61403f565b5b8152602001600582015481526020016006820160009054906101000a900460ff1660028111156123e1576123e061403f565b5b60028111156123f3576123f261403f565b5b8152602001600782015481526020016008820160009054906101000a900460ff1660028111156124265761242561403f565b5b60028111156124385761243761403f565b5b81526020016009820154815250509050919050565b600781565b60085481565b60006001600083815260200190815260200160002060010160009054906101000a900460ff169050919050565b6060600060075467ffffffffffffffff8111156124a5576124a4614e0e565b5b6040519080825280602002602001820160405280156124de57816020015b6124cb613e39565b8152602001906001900390816124c35790505b5090506000805b6006548110156127e857600060028111156125035761250261403f565b5b60008083815260200190815260200160002060060160009054906101000a900460ff1660028111156125385761253761403f565b5b036127db5760008082815260200190815260200160002060405180610140016040529081600082015481526020016001820160009054906101000a900473ffffffffffffffffffffffffffffffffffffffff1673ffffffffffffffffffffffffffffffffffffffff1673ffffffffffffffffffffffffffffffffffffffff1681526020016002820180546125cb90614e6c565b80601f01602080910402602001604051908101604052809291908181526020018280546125f790614e6c565b80156126445780601f1061261957610100808354040283529160200191612644565b820191906000526020600020905b81548152906001019060200180831161262757829003601f168201915b5050505050815260200160038201805461265d90614e6c565b80601f016020809104026020016040519081016040528092919081815260200182805461268990614e6c565b80156126d65780601f106126ab576101008083540402835291602001916126d6565b820191906000526020600020905b8154815290600101906020018083116126b957829003601f168201915b505050505081526020016004820160009054906101000a900460ff16600d8111156127045761270361403f565b5b600d8111156127165761271561403f565b5b8152602001600582015481526020016006820160009054906101000a900460ff1660028111156127495761274861403f565b5b600281111561275b5761275a61403f565b5b8152602001600782015481526020016008820160009054906101000a900460ff16600281111561278e5761278d61403f565b5b60028111156127a05761279f61403f565b5b81526020016009820154815250508383815181106127c1576127c061511b565b5b602002602001018190525081806127d790614dc6565b9250505b80806001019150506124e5565b5061280d60405180606001604052806031815260200161593160319139338451613470565b819250505090565b60006001600084815260200190815260200160002060040160008373ffffffffffffffffffffffffffffffffffffffff1673ffffffffffffffffffffffffffffffffffffffff16815260200190815260200160002060009054906101000a900460ff16905092915050565b60606000600560008573ffffffffffffffffffffffffffffffffffffffff1673ffffffffffffffffffffffffffffffffffffffff16815260200190815260200160002080548060200260200160405190810160405280929190818152602001828054801561290d57602002820191906000526020600020905b8154815260200190600101908083116128f9575b5050505050905060008390506000825167ffffffffffffffff81111561293657612935614e0e565b5b60405190808252806020026020018201604052801561296f57816020015b61295c613ed8565b8152602001906001900390816129545790505b50905060005b8351811015612bea5760008482815181106129935761299261511b565b5b602002602001015190506000806000838152602001908152602001600020905060008060008773ffffffffffffffffffffffffffffffffffffffff1663419fd69e8d876040518363ffffffff1660e01b81526004016129f3929190614c73565b606060405180830381865afa158015612a10573d6000803e3d6000fd5b505050506040513d601f19601f82011682018060405250810190612a349190615391565b9250925092506040518060e00160405280868152602001856002018054612a5a90614e6c565b80601f0160208091040260200160405190810160405280929190818152602001828054612a8690614e6c565b8015612ad35780601f10612aa857610100808354040283529160200191612ad3565b820191906000526020600020905b815481529060010190602001808311612ab657829003601f168201915b50505050508152602001856003018054612aec90614e6c565b80601f0160208091040260200160405190810160405280929190818152602001828054612b1890614e6c565b8015612b655780601f10612b3a57610100808354040283529160200191612b65565b820191906000526020600020905b815481529060010190602001808311612b4857829003601f168201915b505050505081526020018560040160009054906101000a900460ff16600d811115612b9357612b9261403f565b5b8152602001836003811115612bab57612baa61403f565b5b815260200184815260200182815250878781518110612bcd57612bcc61511b565b5b602002602001018190525050505050508080600101915050612975565b50612c0d6040518060600160405280603081526020016158b06030913987613b98565b80935050505092915050565b6060600060085467ffffffffffffffff811115612c3957612c38614e0e565b5b604051908082528060200260200182016040528015612c7257816020015b612c5f613e39565b815260200190600190039081612c575790505b5090506000805b600654811015612f7c5760016002811115612c9757612c9661403f565b5b60008083815260200190815260200160002060060160009054906101000a900460ff166002811115612ccc57612ccb61403f565b5b03612f6f5760008082815260200190815260200160002060405180610140016040529081600082015481526020016001820160009054906101000a900473ffffffffffffffffffffffffffffffffffffffff1673ffffffffffffffffffffffffffffffffffffffff1673ffffffffffffffffffffffffffffffffffffffff168152602001600282018054612d5f90614e6c565b80601f0160208091040260200160405190810160405280929190818152602001828054612d8b90614e6c565b8015612dd85780601f10612dad57610100808354040283529160200191612dd8565b820191906000526020600020905b815481529060010190602001808311612dbb57829003601f168201915b50505050508152602001600382018054612df190614e6c565b80601f0160208091040260200160405190810160405280929190818152602001828054612e1d90614e6c565b8015612e6a5780601f10612e3f57610100808354040283529160200191612e6a565b820191906000526020600020905b815481529060010190602001808311612e4d57829003601f168201915b505050505081526020016004820160009054906101000a900460ff16600d811115612e9857612e9761403f565b5b600d811115612eaa57612ea961403f565b5b8152602001600582015481526020016006820160009054906101000a900460ff166002811115612edd57612edc61403f565b5b6002811115612eef57612eee61403f565b5b8152602001600782015481526020016008820160009054906101000a900460ff166002811115612f2257612f2161403f565b5b6002811115612f3457612f3361403f565b5b8152602001600982015481525050838381518110612f5557612f5461511b565b5b60200260200101819052508180612f6b90614dc6565b9250505b8080600101915050612c79565b50612fa160405180606001604052806032815260200161587e60329139338451613470565b819250505090565b600060016000838152602001908152602001600020600001805490509050919050565b600381565b60006003905090565b600060066000815480929190612fef90614dc6565b91905055905060006103e8426130059190614d24565b90506040518061014001604052808381526020013373ffffffffffffffffffffffffffffffffffffffff16815260200188888080601f016020809104026020016040519081016040528093929190818152602001838380828437600081840152601f19601f82011690508083019250505050505050815260200186868080601f016020809104026020016040519081016040528093929190818152602001838380828437600081840152601f19601f82011690508083019250505050505050815260200184600d8111156130dc576130db61403f565b5b8152602001828152602001600060028111156130fb576130fa61403f565b5b8152602001600081526020016000600281111561311b5761311a61403f565b5b815260200160008152506000808481526020019081526020016000206000820151816000015560208201518160010160006101000a81548173ffffffffffffffffffffffffffffffffffffffff021916908373ffffffffffffffffffffffffffffffffffffffff160217905550604082015181600201908161319d9190615049565b5060608201518160030190816131b39190615049565b5060808201518160040160006101000a81548160ff0219169083600d8111156131df576131de61403f565b5b021790555060a0820151816005015560c08201518160060160006101000a81548160ff021916908360028111156132195761321861403f565b5b021790555060e082015181600701556101008201518160080160006101000a81548160ff021916908360028111156132545761325361403f565b5b02179055506101208201518160090155905050600260003373ffffffffffffffffffffffffffffffffffffffff1673ffffffffffffffffffffffffffffffffffffffff168152602001908152602001600020829080600181540180825580915050600190039060005260206000200160009091909190915055600760008154809291906132e090614dc6565b91905055506133096040518060600160405280602b81526020016157fb602b91398333846135b1565b61338c6040518060400160405280601781526020017f2d205469746c652075726c20202020202020203a20257300000000000000000081525088888080601f016020809104026020016040519081016040528093929190818152602001838380828437600081840152601f19601f82011690508083019250505050505050613653565b61340f6040518060400160405280601781526020017f2d204465736372697074696f6e2075726c20203a20257300000000000000000081525086868080601f016020809104026020016040519081016040528093929190818152602001838380828437600081840152601f19601f82011690508083019250505050505050613653565b3373ffffffffffffffffffffffffffffffffffffffff167f42672180e30fb0e2e6ae998046a0806bf23368de710977e1a63920574c378a1c88888888888760405161345f9695949392919061542f565b60405180910390a250505050505050565b61350a838383604051602401613488939291906154bf565b6040516020818303038152906040527f0d26b925000000000000000000000000000000000000000000000000000000007bffffffffffffffffffffffffffffffffffffffffffffffffffffffff19166020820180517bffffffffffffffffffffffffffffffffffffffffffffffffffffffff8381831617835250505050613c34565b505050565b6135ab8484848460405160240161352994939291906154fd565b6040516020818303038152906040527ff8f51b1e000000000000000000000000000000000000000000000000000000007bffffffffffffffffffffffffffffffffffffffffffffffffffffffff19166020820180517bffffffffffffffffffffffffffffffffffffffffffffffffffffffff8381831617835250505050613c34565b50505050565b61364d848484846040516024016135cb9493929190615549565b6040516020818303038152906040527f4f04fdc6000000000000000000000000000000000000000000000000000000007bffffffffffffffffffffffffffffffffffffffffffffffffffffffff19166020820180517bffffffffffffffffffffffffffffffffffffffffffffffffffffffff8381831617835250505050613c34565b50505050565b6136eb8282604051602401613669929190615595565b6040516020818303038152906040527f4b5c4277000000000000000000000000000000000000000000000000000000007bffffffffffffffffffffffffffffffffffffffffffffffffffffffff19166020820180517bffffffffffffffffffffffffffffffffffffffffffffffffffffffff8381831617835250505050613c34565b5050565b61378782826040516024016137059291906155cc565b6040516020818303038152906040527fb60e72cc000000000000000000000000000000000000000000000000000000007bffffffffffffffffffffffffffffffffffffffffffffffffffffffff19166020820180517bffffffffffffffffffffffffffffffffffffffffffffffffffffffff8381831617835250505050613c34565b5050565b8060010160009054906101000a900460ff16156137dd576040517f08c379a00000000000000000000000000000000000000000000000000000000081526004016137d490615648565b60405180910390fd5b6000805b82600001805490508110156139c857600083600301600085600001848154811061380e5761380d61511b565b5b9060005260206000200160009054906101000a900473ffffffffffffffffffffffffffffffffffffffff1673ffffffffffffffffffffffffffffffffffffffff1673ffffffffffffffffffffffffffffffffffffffff16815260200190815260200160002090508060030160069054906101000a900460ff1660018111156138995761389861403f565b5b8160030160059054906101000a900460ff1660018111156138bd576138bc61403f565b5b8260030160049054906101000a900460ff1660018111156138e1576138e061403f565b5b8360030160039054906101000a900460ff1660018111156139055761390461403f565b5b8460030160029054906101000a900460ff1660018111156139295761392861403f565b5b8560030160019054906101000a900460ff16600181111561394d5761394c61403f565b5b8660030160009054906101000a900460ff1660018111156139715761397061403f565b5b61397b9190615668565b6139859190615668565b61398f9190615668565b6139999190615668565b6139a39190615668565b6139ad9190615668565b836139b89190615668565b92505080806001019150506137e1565b506000826002015460076139dc9190614d24565b6064836139e99190614d24565b6139f391906156cb565b9050613a186040518060600160405280602381526020016159a4602391398583613c4e565b60508110613a9357600160008086815260200190815260200160002060060160006101000a81548160ff02191690836002811115613a5957613a5861403f565b5b021790555060076000815480929190613a71906156fc565b919050555060086000815480929190613a8990614dc6565b9190505550613aea565b600260008086815260200190815260200160002060060160006101000a81548160ff02191690836002811115613acc57613acb61403f565b5b021790555060076000815480929190613ae4906156fc565b91905055505b806000808681526020019081526020016000206007018190555060018360010160006101000a81548160ff021916908315150217905550837f1a20d608d2289bdfc4581c5a0722f4636bd21c1610f2485c20a4b20fd1f57a5360008087815260200190815260200160002060060160009054906101000a900460ff1660008088815260200190815260200160002060070154604051613b8a929190615734565b60405180910390a250505050565b613c308282604051602401613bae92919061575d565b6040516020818303038152906040527f319af333000000000000000000000000000000000000000000000000000000007bffffffffffffffffffffffffffffffffffffffffffffffffffffffff19166020820180517bffffffffffffffffffffffffffffffffffffffffffffffffffffffff8381831617835250505050613c34565b5050565b613c4b81613c43613ced613d0e565b63ffffffff16565b50565b613ce8838383604051602401613c669392919061578d565b6040516020818303038152906040527fca47c4eb000000000000000000000000000000000000000000000000000000007bffffffffffffffffffffffffffffffffffffffffffffffffffffffff19166020820180517bffffffffffffffffffffffffffffffffffffffffffffffffffffffff8381831617835250505050613c34565b505050565b60006a636f6e736f6c652e6c6f679050600080835160208501845afa505050565b613f39819050919050565b604051806101a00160405280600073ffffffffffffffffffffffffffffffffffffffff168152602001600081526020016000815260200160006001811115613d6457613d6361403f565b5b815260200160006001811115613d7d57613d7c61403f565b5b815260200160006001811115613d9657613d9561403f565b5b815260200160006001811115613daf57613dae61403f565b5b815260200160006001811115613dc857613dc761403f565b5b815260200160006001811115613de157613de061403f565b5b815260200160006001811115613dfa57613df961403f565b5b815260200160006002811115613e1357613e1261403f565b5b81526020016000600d811115613e2c57613e2b61403f565b5b8152602001600081525090565b60405180610140016040528060008152602001600073ffffffffffffffffffffffffffffffffffffffff16815260200160608152602001606081526020016000600d811115613e8b57613e8a61403f565b5b81526020016000815260200160006002811115613eab57613eaa61403f565b5b81526020016000815260200160006002811115613ecb57613eca61403f565b5b8152602001600081525090565b6040518060e001604052806000815260200160608152602001606081526020016000600d811115613f0c57613f0b61403f565b5b815260200160006003811115613f2557613f2461403f565b5b815260200160008152602001600081525090565b613f416157cb565b565b600080fd5b600080fd5b6000819050919050565b613f6081613f4d565b8114613f6b57600080fd5b50565b600081359050613f7d81613f57565b92915050565b600073ffffffffffffffffffffffffffffffffffffffff82169050919050565b6000613fae82613f83565b9050919050565b613fbe81613fa3565b8114613fc957600080fd5b50565b600081359050613fdb81613fb5565b92915050565b60008060408385031215613ff857613ff7613f43565b5b600061400685828601613f6e565b925050602061401785828601613fcc565b9150509250929050565b61402a81613fa3565b82525050565b61403981613f4d565b82525050565b7f4e487b7100000000000000000000000000000000000000000000000000000000600052602160045260246000fd5b6002811061407f5761407e61403f565b5b50565b60008190506140908261406e565b919050565b60006140a082614082565b9050919050565b6140b081614095565b82525050565b600381106140c7576140c661403f565b5b50565b60008190506140d8826140b6565b919050565b60006140e8826140ca565b9050919050565b6140f8816140dd565b82525050565b600e811061410f5761410e61403f565b5b50565b6000819050614120826140fe565b919050565b600061413082614112565b9050919050565b61414081614125565b82525050565b6101a08201600082015161415d6000850182614021565b5060208201516141706020850182614030565b5060408201516141836040850182614030565b50606082015161419660608501826140a7565b5060808201516141a960808501826140a7565b5060a08201516141bc60a08501826140a7565b5060c08201516141cf60c08501826140a7565b5060e08201516141e260e08501826140a7565b506101008201516141f76101008501826140a7565b5061012082015161420c6101208501826140a7565b506101408201516142216101408501826140ef565b50610160820151614236610160850182614137565b5061018082015161424b610180850182614030565b50505050565b60006101a0820190506142676000830184614146565b92915050565b61427681613f4d565b82525050565b6000602082019050614291600083018461426d565b92915050565b600080fd5b600080fd5b600080fd5b60008083601f8401126142bc576142bb614297565b5b8235905067ffffffffffffffff8111156142d9576142d861429c565b5b6020830191508360018202830111156142f5576142f46142a1565b5b9250929050565b600e811061430957600080fd5b50565b60008135905061431b816142fc565b92915050565b6003811061432e57600080fd5b50565b60008135905061434081614321565b92915050565b6003811061435357600080fd5b50565b60008135905061436581614346565b92915050565b60008060008060008060008060008060006101208c8e03121561439157614390613f43565b5b600061439f8e828f01613fcc565b9b505060208c013567ffffffffffffffff8111156143c0576143bf613f48565b5b6143cc8e828f016142a6565b9a509a505060408c013567ffffffffffffffff8111156143ef576143ee613f48565b5b6143fb8e828f016142a6565b9850985050606061440e8e828f0161430c565b965050608061441f8e828f01613f6e565b95505060a06144308e828f01614331565b94505060c06144418e828f01613f6e565b93505060e06144528e828f01614356565b9250506101006144648e828f01613f6e565b9150509295989b509295989b9093969950565b60006020828403121561448d5761448c613f43565b5b600061449b84828501613fcc565b91505092915050565b600081519050919050565b600082825260208201905092915050565b6000819050602082019050919050565b600081519050919050565b600082825260208201905092915050565b60005b8381101561450a5780820151818401526020810190506144ef565b60008484015250505050565b6000601f19601f8301169050919050565b6000614532826144d0565b61453c81856144db565b935061454c8185602086016144ec565b61455581614516565b840191505092915050565b600381106145715761457061403f565b5b50565b600081905061458282614560565b919050565b600061459282614574565b9050919050565b6145a281614587565b82525050565b6000610140830160008301516145c16000860182614030565b5060208301516145d46020860182614021565b50604083015184820360408601526145ec8282614527565b915050606083015184820360608601526146068282614527565b915050608083015161461b6080860182614137565b5060a083015161462e60a0860182614030565b5060c083015161464160c0860182614599565b5060e083015161465460e0860182614030565b506101008301516146696101008601826140ef565b5061012083015161467e610120860182614030565b508091505092915050565b600061469583836145a8565b905092915050565b6000602082019050919050565b60006146b5826144a4565b6146bf81856144af565b9350836020820285016146d1856144c0565b8060005b8581101561470d57848403895281516146ee8582614689565b94506146f98361469d565b925060208a019950506001810190506146d5565b50829750879550505050505092915050565b6000602082019050818103600083015261473981846146aa565b905092915050565b60006020828403121561475757614756613f43565b5b600061476584828501613f6e565b91505092915050565b6002811061477b57600080fd5b50565b60008135905061478d8161476e565b92915050565b60008060008060008060008060008060006101608c8e0312156147b9576147b8613f43565b5b60006147c78e828f01613f6e565b9b505060206147d88e828f0161477e565b9a505060406147e98e828f0161477e565b99505060606147fa8e828f0161477e565b985050608061480b8e828f0161477e565b97505060a061481c8e828f0161477e565b96505060c061482d8e828f0161477e565b95505060e061483e8e828f0161477e565b9450506101006148508e828f01614356565b9350506101206148628e828f0161430c565b9250506101406148748e828f01613f6e565b9150509295989b509295989b9093969950565b6000610140830160008301516148a06000860182614030565b5060208301516148b36020860182614021565b50604083015184820360408601526148cb8282614527565b915050606083015184820360608601526148e58282614527565b91505060808301516148fa6080860182614137565b5060a083015161490d60a0860182614030565b5060c083015161492060c0860182614599565b5060e083015161493360e0860182614030565b506101008301516149486101008601826140ef565b5061012083015161495d610120860182614030565b508091505092915050565b600060208201905081810360008301526149828184614887565b905092915050565b60008115159050919050565b61499f8161498a565b82525050565b60006020820190506149ba6000830184614996565b92915050565b600080604083850312156149d7576149d6613f43565b5b60006149e585828601613fcc565b92505060206149f685828601613fcc565b9150509250929050565b600081519050919050565b600082825260208201905092915050565b6000819050602082019050919050565b60048110614a3d57614a3c61403f565b5b50565b6000819050614a4e82614a2c565b919050565b6000614a5e82614a40565b9050919050565b614a6e81614a53565b82525050565b600060e083016000830151614a8c6000860182614030565b5060208301518482036020860152614aa48282614527565b91505060408301518482036040860152614abe8282614527565b9150506060830151614ad36060860182614137565b506080830151614ae66080860182614a65565b5060a0830151614af960a0860182614030565b5060c0830151614b0c60c0860182614030565b508091505092915050565b6000614b238383614a74565b905092915050565b6000602082019050919050565b6000614b4382614a00565b614b4d8185614a0b565b935083602082028501614b5f85614a1c565b8060005b85811015614b9b5784840389528151614b7c8582614b17565b9450614b8783614b2b565b925060208a01995050600181019050614b63565b50829750879550505050505092915050565b60006020820190508181036000830152614bc78184614b38565b905092915050565b600080600080600060608688031215614beb57614bea613f43565b5b600086013567ffffffffffffffff811115614c0957614c08613f48565b5b614c15888289016142a6565b9550955050602086013567ffffffffffffffff811115614c3857614c37613f48565b5b614c44888289016142a6565b93509350506040614c578882890161430c565b9150509295509295909350565b614c6d81613fa3565b82525050565b6000604082019050614c886000830185614c64565b614c95602083018461426d565b9392505050565b614ca58161498a565b8114614cb057600080fd5b50565b600081519050614cc281614c9c565b92915050565b600060208284031215614cde57614cdd613f43565b5b6000614cec84828501614cb3565b91505092915050565b7f4e487b7100000000000000000000000000000000000000000000000000000000600052601160045260246000fd5b6000614d2f82613f4d565b9150614d3a83613f4d565b9250828202614d4881613f4d565b91508282048414831517614d5f57614d5e614cf5565b5b5092915050565b6000606082019050614d7b6000830186614c64565b614d88602083018561426d565b614d95604083018461426d565b949350505050565b6000604082019050614db2600083018561426d565b614dbf602083018461426d565b9392505050565b6000614dd182613f4d565b91507fffffffffffffffffffffffffffffffffffffffffffffffffffffffffffffffff8203614e0357614e02614cf5565b5b600182019050919050565b7f4e487b7100000000000000000000000000000000000000000000000000000000600052604160045260246000fd5b7f4e487b7100000000000000000000000000000000000000000000000000000000600052602260045260246000fd5b60006002820490506001821680614e8457607f821691505b602082108103614e9757614e96614e3d565b5b50919050565b60008190508160005260206000209050919050565b60006020601f8301049050919050565b600082821b905092915050565b600060088302614eff7fffffffffffffffffffffffffffffffffffffffffffffffffffffffffffffffff82614ec2565b614f098683614ec2565b95508019841693508086168417925050509392505050565b6000819050919050565b6000614f46614f41614f3c84613f4d565b614f21565b613f4d565b9050919050565b6000819050919050565b614f6083614f2b565b614f74614f6c82614f4d565b848454614ecf565b825550505050565b600090565b614f89614f7c565b614f94818484614f57565b505050565b5b81811015614fb857614fad600082614f81565b600181019050614f9a565b5050565b601f821115614ffd57614fce81614e9d565b614fd784614eb2565b81016020851015614fe6578190505b614ffa614ff285614eb2565b830182614f99565b50505b505050565b600082821c905092915050565b600061502060001984600802615002565b1980831691505092915050565b6000615039838361500f565b9150826002028217905092915050565b615052826144d0565b67ffffffffffffffff81111561506b5761506a614e0e565b5b6150758254614e6c565b615080828285614fbc565b600060209050601f8311600181146150b357600084156150a1578287015190505b6150ab858261502d565b865550615113565b601f1984166150c186614e9d565b60005b828110156150e9578489015182556001820191506020850194506020810190506150c4565b868310156151065784890151615102601f89168261500f565b8355505b6001600288020188555050505b505050505050565b7f4e487b7100000000000000000000000000000000000000000000000000000000600052603260045260246000fd5b600082825260208201905092915050565b7f4368616c6c656e676520616c72656164792066696e616c697365640000000000600082015250565b6000615191601b8361514a565b915061519c8261515b565b602082019050919050565b600060208201905081810360008301526151c081615184565b9050919050565b7f4d6178206d6f64657261746f7273207265616368656400000000000000000000600082015250565b60006151fd60168361514a565b9150615208826151c7565b602082019050919050565b6000602082019050818103600083015261522c816151f0565b9050919050565b7f596f75206861766520616c7265616479206a6f696e656420746869732072657660008201527f69657720706f6f6c2e0000000000000000000000000000000000000000000000602082015250565b600061528f60298361514a565b915061529a82615233565b604082019050919050565b600060208201905081810360008301526152be81615282565b9050919050565b7f596f752068617665206e6f74206a6f696e65642074686973207265766965772060008201527f706f6f6c2e000000000000000000000000000000000000000000000000000000602082015250565b600061532160258361514a565b915061532c826152c5565b604082019050919050565b6000602082019050818103600083015261535081615314565b9050919050565b60008151905061536681613f57565b92915050565b6004811061537957600080fd5b50565b60008151905061538b8161536c565b92915050565b6000806000606084860312156153aa576153a9613f43565b5b60006153b886828701615357565b93505060206153c98682870161537c565b92505060406153da86828701615357565b9150509250925092565b82818337600083830152505050565b60006153ff838561514a565b935061540c8385846153e4565b61541583614516565b840190509392505050565b61542981614125565b82525050565b6000608082019050818103600083015261544a81888a6153f3565b9050818103602083015261545f8186886153f3565b905061546e6040830185615420565b61547b606083018461426d565b979650505050505050565b6000615491826144d0565b61549b818561514a565b93506154ab8185602086016144ec565b6154b481614516565b840191505092915050565b600060608201905081810360008301526154d98186615486565b90506154e86020830185614c64565b6154f5604083018461426d565b949350505050565b600060808201905081810360008301526155178187615486565b90506155266020830186614c64565b615533604083018561426d565b615540606083018461426d565b95945050505050565b600060808201905081810360008301526155638187615486565b9050615572602083018661426d565b61557f6040830185614c64565b61558c606083018461426d565b95945050505050565b600060408201905081810360008301526155af8185615486565b905081810360208301526155c38184615486565b90509392505050565b600060408201905081810360008301526155e68185615486565b90506155f5602083018461426d565b9392505050565b7f4368616c6c656e676520616c72656164792066696e616c697a65640000000000600082015250565b6000615632601b8361514a565b915061563d826155fc565b602082019050919050565b6000602082019050818103600083015261566181615625565b9050919050565b600061567382613f4d565b915061567e83613f4d565b925082820190508082111561569657615695614cf5565b5b92915050565b7f4e487b7100000000000000000000000000000000000000000000000000000000600052601260045260246000fd5b60006156d682613f4d565b91506156e183613f4d565b9250826156f1576156f061569c565b5b828204905092915050565b600061570782613f4d565b91506000820361571a57615719614cf5565b5b600182039050919050565b61572e81614587565b82525050565b60006040820190506157496000830185615725565b615756602083018461426d565b9392505050565b600060408201905081810360008301526157778185615486565b90506157866020830184614c64565b9392505050565b600060608201905081810360008301526157a78186615486565b90506157b6602083018561426d565b6157c3604083018461426d565b949350505050565b7f4e487b7100000000000000000000000000000000000000000000000000000000600052605160045260246000fdfe4368616c6c656e67652023257320636f6e747269627574656420627920257320617420257320776974683a4d6f64657261746f7220257320757064617465642072657669657720666f72206368616c6c656e67652023257355736572202573206861642066657463686564202573206d6f64657261746564206368616c6c656e676573536d61727420636f6e74726163742025732068616420666574636820257320617070726f766564206368616c6c656e676573557365722025732068616420666574636865642070726576696577206f66206a6f696e6564206368616c6c656e6765734368616c6c656e6765202325732073656564656420627920257320617420257320776974683a5573657220257320686164206665746368656420726576696577206f66206368616c6c656e676520232573536d61727420636f6e7472616374202573206861642066657463682025732070656e64696e67206368616c6c656e67657355736572202573206a6f696e6564206368616c6c656e676520257320617420257355736572202573206861642066657463686564206368616c6c656e676520232573417665726167652073636f726520666f72206368616c6c656e6765202325733a2025735573657220257320686164206665746368656420257320636f6e7472696275746564206368616c6c656e6765734d6f64657261746f72202573206a6f696e65642072657669657720706f6f6c20666f72206368616c6c656e676520232573a26469706673582212204b2c91471deb15035b6895795b1f74c4c7645205c29cef4c791cde88bcb8464f64736f6c634300081c0033",
  "linkReferences": {},
  "deployedLinkReferences": {}
}