{
  "_format": "hh-sol-artifact-1",
  "contractName": "ChallengeManager",
  "sourceName": "contracts/ChallengeManager.sol",
  "abi": [
    {
      "anonymous": false,
      "inputs": [
        {
          "indexed": true,
          "internalType": "address",
          "name": "contributor",
          "type": "address"
        },
        {
          "indexed": false,
          "internalType": "string",
          "name": "titleUrl",
          "type": "string"
        }
      ],
      "name": "ChallengeContributed",
      "type": "event"
    },
    {
      "inputs": [
        {
          "internalType": "uint256",
          "name": "",
          "type": "uint256"
        }
      ],
      "name": "challenges",
      "outputs": [
        {
          "internalType": "address",
          "name": "contributor",
          "type": "address"
        },
        {
          "internalType": "string",
          "name": "titleUrl",
          "type": "string"
        },
        {
          "internalType": "bool",
          "name": "isActive",
          "type": "bool"
        }
      ],
      "stateMutability": "view",
      "type": "function"
    },
    {
      "inputs": [
        {
          "internalType": "string",
          "name": "titleUrl",
          "type": "string"
        }
      ],
      "name": "contributeChallenge",
      "outputs": [],
      "stateMutability": "nonpayable",
      "type": "function"
    },
    {
      "inputs": [
        {
          "internalType": "address",
          "name": "",
          "type": "address"
        },
        {
          "internalType": "uint256",
          "name": "",
          "type": "uint256"
        }
      ],
      "name": "contributorToChallenges",
      "outputs": [
        {
          "internalType": "uint256",
          "name": "",
          "type": "uint256"
        }
      ],
      "stateMutability": "view",
      "type": "function"
    },
    {
      "inputs": [],
      "name": "getChallengesByContributor",
      "outputs": [
        {
          "components": [
            {
              "internalType": "address",
              "name": "contributor",
              "type": "address"
            },
            {
              "internalType": "string",
              "name": "titleUrl",
              "type": "string"
            },
            {
              "internalType": "bool",
              "name": "isActive",
              "type": "bool"
            }
          ],
          "internalType": "struct ChallengeManager.Challenge[]",
          "name": "",
          "type": "tuple[]"
        }
      ],
      "stateMutability": "view",
      "type": "function"
    },
    {
      "inputs": [],
      "name": "totalChallenges",
      "outputs": [
        {
          "internalType": "uint256",
          "name": "",
          "type": "uint256"
        }
      ],
      "stateMutability": "view",
      "type": "function"
    }
  ],
  "bytecode": "0x60806040526000600155348015601457600080fd5b50610f6f806100246000396000f3fe608060405234801561001057600080fd5b50600436106100565760003560e01c8062ffc7581461005b5780638f1d377614610077578063a4bee171146100a9578063a9593b72146100d9578063d17defcb146100f7575b600080fd5b6100756004803603810190610070919061071a565b610115565b005b610091600480360381019061008c919061079d565b6102f5565b6040516100a0939291906108b6565b60405180910390f35b6100c360048036038101906100be9190610920565b6103d4565b6040516100d0919061096f565b60405180910390f35b6100e1610405565b6040516100ee9190610b04565b60405180910390f35b6100ff61066c565b60405161010c919061096f565b60405180910390f35b60006001600081548092919061012a90610b55565b91905055905060405180606001604052803373ffffffffffffffffffffffffffffffffffffffff16815260200184848080601f016020809104026020016040519081016040528093929190818152602001838380828437600081840152601f19601f8201169050808301925050505050505081526020016000151581525060008083815260200190815260200160002060008201518160000160006101000a81548173ffffffffffffffffffffffffffffffffffffffff021916908373ffffffffffffffffffffffffffffffffffffffff16021790555060208201518160010190816102169190610dd8565b5060408201518160020160006101000a81548160ff021916908315150217905550905050600260003373ffffffffffffffffffffffffffffffffffffffff1673ffffffffffffffffffffffffffffffffffffffff1681526020019081526020016000208190806001815401808255809150506001900390600052602060002001600090919091909150553373ffffffffffffffffffffffffffffffffffffffff167f426b2d207580cd3c0b2f490fc51c9728f4726d850f2203db2acfcc64f99b74e984846040516102e8929190610ee6565b60405180910390a2505050565b60006020528060005260406000206000915090508060000160009054906101000a900473ffffffffffffffffffffffffffffffffffffffff169080600101805461033e90610bfb565b80601f016020809104026020016040519081016040528092919081815260200182805461036a90610bfb565b80156103b75780601f1061038c576101008083540402835291602001916103b7565b820191906000526020600020905b81548152906001019060200180831161039a57829003601f168201915b5050505050908060020160009054906101000a900460ff16905083565b600260205281600052604060002081815481106103f057600080fd5b90600052602060002001600091509150505481565b60606000600260003373ffffffffffffffffffffffffffffffffffffffff1673ffffffffffffffffffffffffffffffffffffffff16815260200190815260200160002080548060200260200160405190810160405280929190818152602001828054801561049257602002820191906000526020600020905b81548152602001906001019080831161047e575b505050505090506000815167ffffffffffffffff8111156104b6576104b5610b9d565b5b6040519080825280602002602001820160405280156104ef57816020015b6104dc610672565b8152602001906001900390816104d45790505b50905060005b82518110156106635760008084838151811061051457610513610f0a565b5b602002602001015181526020019081526020016000206040518060600160405290816000820160009054906101000a900473ffffffffffffffffffffffffffffffffffffffff1673ffffffffffffffffffffffffffffffffffffffff1673ffffffffffffffffffffffffffffffffffffffff16815260200160018201805461059b90610bfb565b80601f01602080910402602001604051908101604052809291908181526020018280546105c790610bfb565b80156106145780601f106105e957610100808354040283529160200191610614565b820191906000526020600020905b8154815290600101906020018083116105f757829003601f168201915b505050505081526020016002820160009054906101000a900460ff16151515158152505082828151811061064b5761064a610f0a565b5b602002602001018190525080806001019150506104f5565b50809250505090565b60015481565b6040518060600160405280600073ffffffffffffffffffffffffffffffffffffffff168152602001606081526020016000151581525090565b600080fd5b600080fd5b600080fd5b600080fd5b600080fd5b60008083601f8401126106da576106d96106b5565b5b8235905067ffffffffffffffff8111156106f7576106f66106ba565b5b602083019150836001820283011115610713576107126106bf565b5b9250929050565b60008060208385031215610731576107306106ab565b5b600083013567ffffffffffffffff81111561074f5761074e6106b0565b5b61075b858286016106c4565b92509250509250929050565b6000819050919050565b61077a81610767565b811461078557600080fd5b50565b60008135905061079781610771565b92915050565b6000602082840312156107b3576107b26106ab565b5b60006107c184828501610788565b91505092915050565b600073ffffffffffffffffffffffffffffffffffffffff82169050919050565b60006107f5826107ca565b9050919050565b610805816107ea565b82525050565b600081519050919050565b600082825260208201905092915050565b60005b8381101561084557808201518184015260208101905061082a565b60008484015250505050565b6000601f19601f8301169050919050565b600061086d8261080b565b6108778185610816565b9350610887818560208601610827565b61089081610851565b840191505092915050565b60008115159050919050565b6108b08161089b565b82525050565b60006060820190506108cb60008301866107fc565b81810360208301526108dd8185610862565b90506108ec60408301846108a7565b949350505050565b6108fd816107ea565b811461090857600080fd5b50565b60008135905061091a816108f4565b92915050565b60008060408385031215610937576109366106ab565b5b60006109458582860161090b565b925050602061095685828601610788565b9150509250929050565b61096981610767565b82525050565b60006020820190506109846000830184610960565b92915050565b600081519050919050565b600082825260208201905092915050565b6000819050602082019050919050565b6109bf816107ea565b82525050565b600082825260208201905092915050565b60006109e18261080b565b6109eb81856109c5565b93506109fb818560208601610827565b610a0481610851565b840191505092915050565b610a188161089b565b82525050565b6000606083016000830151610a3660008601826109b6565b5060208301518482036020860152610a4e82826109d6565b9150506040830151610a636040860182610a0f565b508091505092915050565b6000610a7a8383610a1e565b905092915050565b6000602082019050919050565b6000610a9a8261098a565b610aa48185610995565b935083602082028501610ab6856109a6565b8060005b85811015610af25784840389528151610ad38582610a6e565b9450610ade83610a82565b925060208a01995050600181019050610aba565b50829750879550505050505092915050565b60006020820190508181036000830152610b1e8184610a8f565b905092915050565b7f4e487b7100000000000000000000000000000000000000000000000000000000600052601160045260246000fd5b6000610b6082610767565b91507fffffffffffffffffffffffffffffffffffffffffffffffffffffffffffffffff8203610b9257610b91610b26565b5b600182019050919050565b7f4e487b7100000000000000000000000000000000000000000000000000000000600052604160045260246000fd5b7f4e487b7100000000000000000000000000000000000000000000000000000000600052602260045260246000fd5b60006002820490506001821680610c1357607f821691505b602082108103610c2657610c25610bcc565b5b50919050565b60008190508160005260206000209050919050565b60006020601f8301049050919050565b600082821b905092915050565b600060088302610c8e7fffffffffffffffffffffffffffffffffffffffffffffffffffffffffffffffff82610c51565b610c988683610c51565b95508019841693508086168417925050509392505050565b6000819050919050565b6000610cd5610cd0610ccb84610767565b610cb0565b610767565b9050919050565b6000819050919050565b610cef83610cba565b610d03610cfb82610cdc565b848454610c5e565b825550505050565b600090565b610d18610d0b565b610d23818484610ce6565b505050565b5b81811015610d4757610d3c600082610d10565b600181019050610d29565b5050565b601f821115610d8c57610d5d81610c2c565b610d6684610c41565b81016020851015610d75578190505b610d89610d8185610c41565b830182610d28565b50505b505050565b600082821c905092915050565b6000610daf60001984600802610d91565b1980831691505092915050565b6000610dc88383610d9e565b9150826002028217905092915050565b610de18261080b565b67ffffffffffffffff811115610dfa57610df9610b9d565b5b610e048254610bfb565b610e0f828285610d4b565b600060209050601f831160018114610e425760008415610e30578287015190505b610e3a8582610dbc565b865550610ea2565b601f198416610e5086610c2c565b60005b82811015610e7857848901518255600182019150602085019450602081019050610e53565b86831015610e955784890151610e91601f891682610d9e565b8355505b6001600288020188555050505b505050505050565b82818337600083830152505050565b6000610ec58385610816565b9350610ed2838584610eaa565b610edb83610851565b840190509392505050565b60006020820190508181036000830152610f01818486610eb9565b90509392505050565b7f4e487b7100000000000000000000000000000000000000000000000000000000600052603260045260246000fdfea26469706673582212203065f49733e7a2ae2c809ac6ebe41284722d77c13453198cd7539fd841feea4064736f6c634300081c0033",
  "linkReferences": {},
  "deployedLinkReferences": {}
}