{
  "_format": "hh-sol-artifact-1",
  "contractName": "JobApplicationManager",
  "sourceName": "contracts/JobApplicationManager.sol",
  "abi": [
    {
      "inputs": [],
      "stateMutability": "nonpayable",
      "type": "constructor"
    },
    {
      "inputs": [],
      "name": "AccessControlBadConfirmation",
      "type": "error"
    },
    {
      "inputs": [
        {
          "internalType": "address",
          "name": "account",
          "type": "address"
        },
        {
          "internalType": "bytes32",
          "name": "neededRole",
          "type": "bytes32"
        }
      ],
      "name": "AccessControlUnauthorizedAccount",
      "type": "error"
    },
    {
      "anonymous": false,
      "inputs": [
        {
          "indexed": true,
          "internalType": "bytes32",
          "name": "applicationId",
          "type": "bytes32"
        },
        {
          "indexed": false,
          "internalType": "enum SystemEnums.ApplicationStatus",
          "name": "previousStatus",
          "type": "uint8"
        },
        {
          "indexed": false,
          "internalType": "enum SystemEnums.ApplicationStatus",
          "name": "newStatus",
          "type": "uint8"
        }
      ],
      "name": "ApplicationStatusChanged",
      "type": "event"
    },
    {
      "anonymous": false,
      "inputs": [
        {
          "indexed": true,
          "internalType": "bytes32",
          "name": "applicationId",
          "type": "bytes32"
        },
        {
          "indexed": true,
          "internalType": "bytes32",
          "name": "jobId",
          "type": "bytes32"
        },
        {
          "indexed": true,
          "internalType": "address",
          "name": "applicant",
          "type": "address"
        }
      ],
      "name": "ApplicationSubmitted",
      "type": "event"
    },
    {
      "anonymous": false,
      "inputs": [
        {
          "indexed": true,
          "internalType": "bytes32",
          "name": "role",
          "type": "bytes32"
        },
        {
          "indexed": true,
          "internalType": "bytes32",
          "name": "previousAdminRole",
          "type": "bytes32"
        },
        {
          "indexed": true,
          "internalType": "bytes32",
          "name": "newAdminRole",
          "type": "bytes32"
        }
      ],
      "name": "RoleAdminChanged",
      "type": "event"
    },
    {
      "anonymous": false,
      "inputs": [
        {
          "indexed": true,
          "internalType": "bytes32",
          "name": "role",
          "type": "bytes32"
        },
        {
          "indexed": true,
          "internalType": "address",
          "name": "account",
          "type": "address"
        },
        {
          "indexed": true,
          "internalType": "address",
          "name": "sender",
          "type": "address"
        }
      ],
      "name": "RoleGranted",
      "type": "event"
    },
    {
      "anonymous": false,
      "inputs": [
        {
          "indexed": true,
          "internalType": "bytes32",
          "name": "role",
          "type": "bytes32"
        },
        {
          "indexed": true,
          "internalType": "address",
          "name": "account",
          "type": "address"
        },
        {
          "indexed": true,
          "internalType": "address",
          "name": "sender",
          "type": "address"
        }
      ],
      "name": "RoleRevoked",
      "type": "event"
    },
    {
      "inputs": [],
      "name": "DEFAULT_ADMIN_ROLE",
      "outputs": [
        {
          "internalType": "bytes32",
          "name": "",
          "type": "bytes32"
        }
      ],
      "stateMutability": "view",
      "type": "function"
    },
    {
      "inputs": [
        {
          "internalType": "bytes32",
          "name": "application_id",
          "type": "bytes32"
        }
      ],
      "name": "getApplication",
      "outputs": [
        {
          "components": [
            {
              "internalType": "bytes32",
              "name": "id",
              "type": "bytes32"
            },
            {
              "internalType": "bytes32",
              "name": "job_id",
              "type": "bytes32"
            },
            {
              "internalType": "address",
              "name": "applicant",
              "type": "address"
            },
            {
              "internalType": "uint256",
              "name": "applied_at",
              "type": "uint256"
            },
            {
              "internalType": "enum SystemEnums.ApplicationStatus",
              "name": "status",
              "type": "uint8"
            }
          ],
          "internalType": "struct JobApplicationManager.Application",
          "name": "",
          "type": "tuple"
        }
      ],
      "stateMutability": "view",
      "type": "function"
    },
    {
      "inputs": [
        {
          "internalType": "bytes32",
          "name": "job_id",
          "type": "bytes32"
        }
      ],
      "name": "getApplicationCount",
      "outputs": [
        {
          "internalType": "uint256",
          "name": "",
          "type": "uint256"
        }
      ],
      "stateMutability": "view",
      "type": "function"
    },
    {
      "inputs": [
        {
          "internalType": "address",
          "name": "applicant",
          "type": "address"
        }
      ],
      "name": "getApplicationsByApplicant",
      "outputs": [
        {
          "components": [
            {
              "internalType": "bytes32",
              "name": "id",
              "type": "bytes32"
            },
            {
              "internalType": "bytes32",
              "name": "job_id",
              "type": "bytes32"
            },
            {
              "internalType": "address",
              "name": "applicant",
              "type": "address"
            },
            {
              "internalType": "uint256",
              "name": "applied_at",
              "type": "uint256"
            },
            {
              "internalType": "enum SystemEnums.ApplicationStatus",
              "name": "status",
              "type": "uint8"
            }
          ],
          "internalType": "struct JobApplicationManager.Application[]",
          "name": "",
          "type": "tuple[]"
        }
      ],
      "stateMutability": "view",
      "type": "function"
    },
    {
      "inputs": [
        {
          "internalType": "bytes32",
          "name": "job_id",
          "type": "bytes32"
        }
      ],
      "name": "getApplicationsByJob",
      "outputs": [
        {
          "components": [
            {
              "internalType": "bytes32",
              "name": "id",
              "type": "bytes32"
            },
            {
              "internalType": "bytes32",
              "name": "job_id",
              "type": "bytes32"
            },
            {
              "internalType": "address",
              "name": "applicant",
              "type": "address"
            },
            {
              "internalType": "uint256",
              "name": "applied_at",
              "type": "uint256"
            },
            {
              "internalType": "enum SystemEnums.ApplicationStatus",
              "name": "status",
              "type": "uint8"
            }
          ],
          "internalType": "struct JobApplicationManager.Application[]",
          "name": "",
          "type": "tuple[]"
        }
      ],
      "stateMutability": "view",
      "type": "function"
    },
    {
      "inputs": [
        {
          "internalType": "enum SystemEnums.ApplicationStatus",
          "name": "status",
          "type": "uint8"
        }
      ],
      "name": "getApplicationsByStatus",
      "outputs": [
        {
          "components": [
            {
              "internalType": "bytes32",
              "name": "id",
              "type": "bytes32"
            },
            {
              "internalType": "bytes32",
              "name": "job_id",
              "type": "bytes32"
            },
            {
              "internalType": "address",
              "name": "applicant",
              "type": "address"
            },
            {
              "internalType": "uint256",
              "name": "applied_at",
              "type": "uint256"
            },
            {
              "internalType": "enum SystemEnums.ApplicationStatus",
              "name": "status",
              "type": "uint8"
            }
          ],
          "internalType": "struct JobApplicationManager.Application[]",
          "name": "",
          "type": "tuple[]"
        }
      ],
      "stateMutability": "view",
      "type": "function"
    },
    {
      "inputs": [
        {
          "internalType": "address",
          "name": "applicant",
          "type": "address"
        }
      ],
      "name": "getJobIDsAppliedByUser",
      "outputs": [
        {
          "internalType": "bytes32[]",
          "name": "",
          "type": "bytes32[]"
        }
      ],
      "stateMutability": "view",
      "type": "function"
    },
    {
      "inputs": [
        {
          "internalType": "bytes32",
          "name": "role",
          "type": "bytes32"
        }
      ],
      "name": "getRoleAdmin",
      "outputs": [
        {
          "internalType": "bytes32",
          "name": "",
          "type": "bytes32"
        }
      ],
      "stateMutability": "view",
      "type": "function"
    },
    {
      "inputs": [
        {
          "internalType": "enum SystemEnums.ApplicationStatus",
          "name": "current_status",
          "type": "uint8"
        }
      ],
      "name": "getValidApplicationStatusTransitions",
      "outputs": [
        {
          "internalType": "enum SystemEnums.ApplicationStatus[]",
          "name": "",
          "type": "uint8[]"
        }
      ],
      "stateMutability": "pure",
      "type": "function"
    },
    {
      "inputs": [
        {
          "internalType": "bytes32",
          "name": "role",
          "type": "bytes32"
        },
        {
          "internalType": "address",
          "name": "account",
          "type": "address"
        }
      ],
      "name": "grantRole",
      "outputs": [],
      "stateMutability": "nonpayable",
      "type": "function"
    },
    {
      "inputs": [
        {
          "internalType": "bytes32",
          "name": "role",
          "type": "bytes32"
        },
        {
          "internalType": "address",
          "name": "account",
          "type": "address"
        }
      ],
      "name": "hasRole",
      "outputs": [
        {
          "internalType": "bool",
          "name": "",
          "type": "bool"
        }
      ],
      "stateMutability": "view",
      "type": "function"
    },
    {
      "inputs": [
        {
          "internalType": "enum SystemEnums.ApplicationStatus",
          "name": "current_status",
          "type": "uint8"
        },
        {
          "internalType": "enum SystemEnums.ApplicationStatus",
          "name": "new_status",
          "type": "uint8"
        }
      ],
      "name": "isValidStatusTransition",
      "outputs": [
        {
          "internalType": "bool",
          "name": "",
          "type": "bool"
        }
      ],
      "stateMutability": "pure",
      "type": "function"
    },
    {
      "inputs": [
        {
          "internalType": "bytes32",
          "name": "role",
          "type": "bytes32"
        },
        {
          "internalType": "address",
          "name": "callerConfirmation",
          "type": "address"
        }
      ],
      "name": "renounceRole",
      "outputs": [],
      "stateMutability": "nonpayable",
      "type": "function"
    },
    {
      "inputs": [
        {
          "internalType": "bytes32",
          "name": "role",
          "type": "bytes32"
        },
        {
          "internalType": "address",
          "name": "account",
          "type": "address"
        }
      ],
      "name": "revokeRole",
      "outputs": [],
      "stateMutability": "nonpayable",
      "type": "function"
    },
    {
      "inputs": [
        {
          "internalType": "address",
          "name": "job_manager_address",
          "type": "address"
        }
      ],
      "name": "setJobManagerAddress",
      "outputs": [],
      "stateMutability": "nonpayable",
      "type": "function"
    },
    {
      "inputs": [
        {
          "internalType": "address",
          "name": "addr",
          "type": "address"
        }
      ],
      "name": "setRecruiterSubscriptionAddress",
      "outputs": [],
      "stateMutability": "nonpayable",
      "type": "function"
    },
    {
      "inputs": [
        {
          "internalType": "bytes32",
          "name": "job_id",
          "type": "bytes32"
        }
      ],
      "name": "submitApplication",
      "outputs": [
        {
          "internalType": "bytes32",
          "name": "application_id",
          "type": "bytes32"
        }
      ],
      "stateMutability": "nonpayable",
      "type": "function"
    },
    {
      "inputs": [
        {
          "internalType": "bytes4",
          "name": "interfaceId",
          "type": "bytes4"
        }
      ],
      "name": "supportsInterface",
      "outputs": [
        {
          "internalType": "bool",
          "name": "",
          "type": "bool"
        }
      ],
      "stateMutability": "view",
      "type": "function"
    },
    {
      "inputs": [
        {
          "internalType": "bytes32",
          "name": "application_id",
          "type": "bytes32"
        },
        {
          "internalType": "enum SystemEnums.ApplicationStatus",
          "name": "new_status",
          "type": "uint8"
        }
      ],
      "name": "updateApplicationStatus",
      "outputs": [],
      "stateMutability": "nonpayable",
      "type": "function"
    },
    {
      "inputs": [
        {
          "internalType": "bytes32",
          "name": "application_id",
          "type": "bytes32"
        }
      ],
      "name": "withdrawApplication",
      "outputs": [],
      "stateMutability": "nonpayable",
      "type": "function"
    }
  ],
  "bytecode": "0x608060405234601f57600f336024565b50604051611acd90816100b28239f35b600080fd5b6001600160a01b0381166000908152600080516020611b7f833981519152602052604090205460ff1660ab576001600160a01b03166000818152600080516020611b7f83398151915260205260408120805460ff191660011790553391907f2f8788117e7eff1d82e926ec794901d17c78024a50270940304540a733656f0d8180a4600190565b5060009056fe608080604052600436101561001357600080fd5b60003560e01c90816301ffc9a71461127e57508063063155c1146111a35780630dc0210914610d9f578063248a9ca314610d6a5780632581113914610c0b5780632f2ff15d14610bcb57806336568abe14610b85578063459f8560146107ef5780635321c4fd1461071d5780636502d4881461069e57806369cec6c51461065e5780637000823d1461063257806391d14854146105e557806393acd456146104cf578063a217fddf146104b3578063bbde67001461036b578063bc506f64146102e7578063d547741f146102a0578063d7645beb1461018d5763ec67df4c146100fb57600080fd5b34610188576020366003190112610188576101146112d1565b61011c611903565b6001600160a01b03168015610143576001600160601b0360a01b6001541617600155600080f35b60405162461bcd60e51b815260206004820152601a60248201527f496e76616c6964204a6f624d616e6167657220616464726573730000000000006044820152606490fd5b600080fd5b3461018857602036600319011261018857600435600052600460205260406000206040518082602082945493848152019060005260206000209260005b8181106102875750506101df925003826113be565b6101e98151611423565b9060005b8151811015610275578061020360019284611473565b516000526003602052604060002061025960ff6004604051936102258561138c565b80548552868101546020860152868060a01b036002820154166040860152600381015460608601520154166080830161149d565b6102638286611473565b5261026e8185611473565b50016101ed565b604051806102838582611348565b0390f35b84548352600194850194869450602090930192016101ca565b34610188576040366003190112610188576102e56004356102bf6112e7565b906102e06102db82600052600060205260016040600020015490565b611956565b611a15565b005b34610188576020366003190112610188576103006113f8565b50600435600052600360205260a0604060002061035c60ff6004604051936103278561138c565b8054855260018101546020860152600180871b036002820154166040860152600381015460608601520154166080830161149d565b610369604051809261130a565bf35b3461018857602036600319011261018857600435600781101561018857600090815b60078110156103d357600581146103cb576103a881836116e9565b6103b7575b6001905b0161038d565b916103c3600191611835565b9290506103ad565b6001906103b1565b506103f66103e0836113e0565b926103ee60405194856113be565b8084526113e0565b602083019190601f190136833760009060005b6007811015610462576005811461045a5761042481836116e9565b610433575b6001905b01610409565b916104528161044d856104486001958a611473565b61149d565b611835565b929050610429565b60019061042d565b505050906040519182916020830190602084525180915260408301919060005b818110610490575050500390f35b91935091602080826104a560019488516112fd565b019401910191849392610482565b3461018857600036600319011261018857602060405160008152f35b34610188576020366003190112610188576001600160a01b036104f06112d1565b16600052600560205260406000206040518082602082945493848152019060005260206000209260005b8181106105cc57505061052f925003826113be565b80519061053e6103e0836113e0565b602083019190601f190136833760005b8151811015610586578061056460019284611473565b516000526003602052816040600020015461057f8287611473565b520161054e565b5050906040519182916020830190602084525180915260408301919060005b8181106105b3575050500390f35b82518452859450602093840193909201916001016105a5565b845483526001948501948694506020909301920161051a565b34610188576040366003190112610188576105fe6112e7565b600435600052600060205260406000209060018060a01b0316600052602052602060ff604060002054166040519015158152f35b346101885760203660031901126101885760043560005260046020526020604060002054604051908152f35b346101885760403660031901126101885760043560078110156101885760243590600782101561018857602091610694916116e9565b6040519015158152f35b34610188576020366003190112610188576106b76112d1565b6106bf611903565b6001600160a01b031680156106e6576001600160601b0360a01b6002541617600255600080f35b60405162461bcd60e51b815260206004820152600f60248201526e496e76616c6964206164647265737360881b6044820152606490fd5b346101885760203660031901126101885760043560078110156101885761074390611613565b6040518082602082945493848152019060005260206000209260005b8181106107d6575050610774925003826113be565b61077e8151611423565b9060005b8151811015610275578061079860019284611473565b51600052600360205260406000206107ba60ff6004604051936102258561138c565b6107c48286611473565b526107cf8185611473565b5001610782565b845483526001948501948694506020909301920161075f565b34610188576040366003190112610188576024356004356007821015610188576002546001600160a01b03169182151580610b11575b15610ac25781600052600360205260406000209082825403610a7d5760018060a01b03600154166000600184015460246040518094819363f729cf0d60e01b835260048301525afa8015610a7157602091600091610a4e575b500180519094906001600160a01b031633036109f457600483019060ff825416936108a984866116e9565b156109af5760009660068514610925575b50505091610921826108ef6040947ffbef694e44aec9b9844d0368a46501ef828f200040d71a8837d9e5f2a3e17669966115a2565b6108f9838761185a565b61090b8661090683611613565b6115d2565b610917845180946112fd565b60208301906112fd565ba280f35b516002909101546040516373f8f3cf60e01b81526001600160a01b0392831660048201529116602482015290602090829060449082908a905af180156109a457610971575b80806108ba565b602090819492943d831161099d575b61098a81836113be565b8101031261099957918561096a565b8480fd5b503d610980565b6040513d88823e3d90fd5b60405162461bcd60e51b815260206004820152601960248201527f496e76616c696420737461747573207472616e736974696f6e000000000000006044820152606490fd5b60405162461bcd60e51b815260206004820152602c60248201527f4f6e6c79207265637275697465722063616e20757064617465206170706c696360448201526b6174696f6e2073746174757360a01b6064820152608490fd5b610a6b91503d806000833e610a6381836113be565b8101906114a9565b8661087e565b6040513d6000823e3d90fd5b60405162461bcd60e51b815260206004820152601a60248201527f4170706c69636174696f6e20646f6573206e6f742065786973740000000000006044820152606490fd5b60405162461bcd60e51b815260206004820152602160248201527f5265637275697465722068617320696e73756666696369656e742062756467656044820152601d60fa1b6064820152608490fd5b506040516321cf7ecb60e21b8152336004820152602081602481875afa908115610a7157600091610b43575b50610825565b6020813d602011610b7d575b81610b5c602093836113be565b81010312610b795751908115158203610b76575084610b3d565b80fd5b5080fd5b3d9150610b4f565b3461018857604036600319011261018857610b9e6112e7565b336001600160a01b03821603610bba576102e590600435611a15565b63334bd91960e11b60005260046000fd5b34610188576040366003190112610188576102e5600435610bea6112e7565b90610c066102db82600052600060205260016040600020015490565b611991565b34610188576020366003190112610188576004356000818152600360205260409020600201546001600160a01b03163303610d2557806000526003602052600460406000200160ff81541690610c608261162c565b15610ccb57805460ff191660051790557ffbef694e44aec9b9844d0368a46501ef828f200040d71a8837d9e5f2a3e1766990604090610c9f818561185a565b610cb584836000600581526006602052206115d2565b610cc1825180926112fd565b60056020820152a2005b60405162461bcd60e51b815260206004820152602c60248201527f43616e6e6f74207769746864726177206170706c69636174696f6e20696e206360448201526b757272656e7420737461746560a01b6064820152608490fd5b60405162461bcd60e51b815260206004820152601960248201527f4e6f7420746865206170706c69636174696f6e206f776e6572000000000000006044820152606490fd5b34610188576020366003190112610188576020610d97600435600052600060205260016040600020015490565b604051908152f35b346101885760203660031901126101885760043560018060a01b03600154169060405163f729cf0d60e01b8152816004820152600081602481865afa8015610a7157608091600091611188575b5001519160068310156111725760016000930361112e57826024916040519283809263f729cf0d60e01b82528660048301525afa908115611123578391611109575b50602001516001600160a01b031633146110b257338252600560205260408220916040518084602082965493848152019084526020842092845b818110611099575050610e7d925003846113be565b805b8351811015610f4057610e928185611473565b51825260036020528260408320610eed604051610eae8161138c565b8254815260018301546020820190815260028401546001600160a01b031660408301526003840154606083015260049093015460ff169060800161149d565b5114610efb57600101610e7f565b60405162461bcd60e51b815260206004820152601b60248201527f416c7265616479206170706c69656420746f2074686973206a6f6200000000006044820152606490fd5b509060405160208101903360601b825282603482015242605482015260548152610f6b6074826113be565b5190206103e842024281046103e814421517156110855760405190610f8f8261138c565b82825260208201908482526040830133815260608401918252608084019287845285885260036020526040882094518555516001850155600284019060018060a01b039051166001600160601b0360a01b825416179055516003830155519060078210156110715760209491600461100792016115a2565b8281526004845261101b82604083206115d2565b3381526005845261102f82604083206115d2565b8080526006845261104382604083206115d2565b60405192827fa1e59e5998de8156750dd856247d14c1222f3a198cc2d74eeef50113c8686d5a339380a48152f35b634e487b7160e01b85526021600452602485fd5b634e487b7160e01b84526011600452602484fd5b8454835260019485019488945060209093019201610e68565b60405162461bcd60e51b815260206004820152602960248201527f526563727569746572732063616e6e6f74206170706c7920746f207468656972604482015268206f776e206a6f627360b81b6064820152608490fd5b61111d91503d8085833e610a6381836113be565b83610e2e565b6040513d85823e3d90fd5b606460405162461bcd60e51b815260206004820152602060248201527f4a6f62206973206e6f74206f70656e20666f72206170706c69636174696f6e736044820152fd5b634e487b7160e01b600052602160045260246000fd5b61119d91503d806000833e610a6381836113be565b84610dec565b34610188576020366003190112610188576001600160a01b036111c46112d1565b16600052600560205260406000206040518082602082945493848152019060005260206000209260005b818110611265575050611203925003826113be565b61120d8151611423565b9060005b8151811015610275578061122760019284611473565b516000526003602052604060002061124960ff6004604051936102258561138c565b6112538286611473565b5261125e8185611473565b5001611211565b84548352600194850194869450602090930192016111ee565b34610188576020366003190112610188576004359063ffffffff60e01b821680920361018857602091637965db0b60e01b81149081156112c0575b5015158152f35b6301ffc9a760e01b149050836112b9565b600435906001600160a01b038216820361018857565b602435906001600160a01b038216820361018857565b9060078210156111725752565b9060808061134693805184526020810151602085015260018060a01b0360408201511660408501526060810151606085015201519101906112fd565b565b602060408183019282815284518094520192019060005b81811061136c5750505090565b909192602060a082611381600194885161130a565b01940192910161135f565b60a0810190811067ffffffffffffffff8211176113a857604052565b634e487b7160e01b600052604160045260246000fd5b90601f8019910116810190811067ffffffffffffffff8211176113a857604052565b67ffffffffffffffff81116113a85760051b60200190565b604051906114058261138c565b60006080838281528260208201528260408201528260608201520152565b9061142d826113e0565b61143a60405191826113be565b828152809261144b601f19916113e0565b019060005b82811061145c57505050565b6020906114676113f8565b82828501015201611450565b80518210156114875760209160051b010190565b634e487b7160e01b600052603260045260246000fd5b60078210156111725752565b6020818303126101885780519067ffffffffffffffff8211610188570160a08183031261018857604051916114dd8361138c565b8151835260208201516001600160a01b0381168103610188576020840152604082015167ffffffffffffffff811161018857820181601f820112156101885780519067ffffffffffffffff82116113a85760405192611546601f8401601f1916602001856113be565b828452602083830101116101885760005b82811061158d57505060009082016020015260408301526060808201519083015260800151600681101561018857608082015290565b80602080928401015182828701015201611557565b9060078110156111725760ff80198354169116179055565b80548210156114875760005260206000200190600090565b90815491680100000000000000008310156113a857826115fa916001611346950181556115ba565b90919082549060031b91821b91600019901b1916179055565b6007811015611172576000526006602052604060002090565b600090600781101561117257600581146116e25781906000816116695750506116555750600190565b634e487b7160e01b81526021600452602490fd5b506001810361167d57506116555750600190565b6000600282036116935750506116555750600190565b509050600381036116a5575050600190565b6000600682149182156116d7575b5081156116c9575b506116c35790565b50600090565b9050611172576000386116bb565b6004149150386116b3565b5050600090565b90600781101591826111725760078110156111725781811461182d5760008161172a575050906111725760018114908115611722575090565b600591501490565b5082906001810361176c5750611172576002811491821561175e575b821561175157505090565b9091506111725760051490565b506004811491506000611746565b90506000600282036117bb5750508161117257600381149182156117ad575b821561179c57821561175157505090565b809250611172576004811491611746565b50600681149150600061178b565b50909150600381036117eb57506006811490600082156117e057821561175157505090565b600482149250611746565b60068114915060008215611822575b8215611811575b505061180c57600090565b600090565b909150611172576005143880611801565b6004821492506117fa565b505050600090565b60001981146118445760010190565b634e487b7160e01b600052601160045260246000fd5b9061186490611613565b60005b8154808210156118fd578361187c83856115ba565b90549060031b1c146118915750600101611867565b9192506000198201918211611844576115fa6118b06118be93856115ba565b90549060031b1c91846115ba565b805480156118e75760001901906118d582826115ba565b8154906000199060031b1b1916905555565b634e487b7160e01b600052603160045260246000fd5b50505050565b3360009081527fad3228b676f7d3cd4284a5443f17f1962b36e491b30a40b2405849e597ba5fb5602052604090205460ff161561193c57565b63e2517d3f60e01b60005233600452600060245260446000fd5b60008181526020818152604080832033845290915290205460ff16156119795750565b63e2517d3f60e01b6000523360045260245260446000fd5b6000818152602081815260408083206001600160a01b038616845290915290205460ff166116e2576000818152602081815260408083206001600160a01b0395909516808452949091528120805460ff19166001179055339291907f2f8788117e7eff1d82e926ec794901d17c78024a50270940304540a733656f0d9080a4600190565b6000818152602081815260408083206001600160a01b038616845290915290205460ff16156116e2576000818152602081815260408083206001600160a01b0395909516808452949091528120805460ff19169055339291907ff6391f5c32d9c69d2a47ea670b442974b53935d1edc7fd64eb21e047a839171b9080a460019056fea2646970667358221220cb541d8d5958e2613ee23669a1725e67823f35ea4bc5de5955fd937d0f22def064736f6c634300081c0033ad3228b676f7d3cd4284a5443f17f1962b36e491b30a40b2405849e597ba5fb5",
  "linkReferences": {},
  "deployedLinkReferences": {}
}