{
  "_format": "hh-sol-artifact-1",
  "contractName": "JobManager",
  "sourceName": "contracts/JobManager.sol",
  "abi": [
    {
      "inputs": [],
      "stateMutability": "nonpayable",
      "type": "constructor"
    },
    {
      "inputs": [],
      "name": "AccessControlBadConfirmation",
      "type": "error"
    },
    {
      "inputs": [
        {
          "internalType": "address",
          "name": "account",
          "type": "address"
        },
        {
          "internalType": "bytes32",
          "name": "neededRole",
          "type": "bytes32"
        }
      ],
      "name": "AccessControlUnauthorizedAccount",
      "type": "error"
    },
    {
      "anonymous": false,
      "inputs": [
        {
          "indexed": true,
          "internalType": "bytes32",
          "name": "id",
          "type": "bytes32"
        },
        {
          "indexed": true,
          "internalType": "address",
          "name": "recruiter",
          "type": "address"
        },
        {
          "indexed": false,
          "internalType": "string",
          "name": "content_id",
          "type": "string"
        }
      ],
      "name": "JobArchived",
      "type": "event"
    },
    {
      "anonymous": false,
      "inputs": [
        {
          "indexed": true,
          "internalType": "bytes32",
          "name": "id",
          "type": "bytes32"
        },
        {
          "indexed": true,
          "internalType": "address",
          "name": "recruiter",
          "type": "address"
        },
        {
          "indexed": false,
          "internalType": "string",
          "name": "content_id",
          "type": "string"
        }
      ],
      "name": "JobClosed",
      "type": "event"
    },
    {
      "anonymous": false,
      "inputs": [
        {
          "indexed": true,
          "internalType": "bytes32",
          "name": "id",
          "type": "bytes32"
        },
        {
          "indexed": true,
          "internalType": "address",
          "name": "recruiter",
          "type": "address"
        },
        {
          "indexed": false,
          "internalType": "string",
          "name": "content_id",
          "type": "string"
        }
      ],
      "name": "JobCreated",
      "type": "event"
    },
    {
      "anonymous": false,
      "inputs": [
        {
          "indexed": true,
          "internalType": "bytes32",
          "name": "id",
          "type": "bytes32"
        },
        {
          "indexed": true,
          "internalType": "address",
          "name": "recruiter",
          "type": "address"
        },
        {
          "indexed": false,
          "internalType": "string",
          "name": "content_id",
          "type": "string"
        }
      ],
      "name": "JobFilled",
      "type": "event"
    },
    {
      "anonymous": false,
      "inputs": [
        {
          "indexed": true,
          "internalType": "bytes32",
          "name": "id",
          "type": "bytes32"
        },
        {
          "indexed": true,
          "internalType": "address",
          "name": "recruiter",
          "type": "address"
        },
        {
          "indexed": false,
          "internalType": "string",
          "name": "content_id",
          "type": "string"
        }
      ],
      "name": "JobPaused",
      "type": "event"
    },
    {
      "anonymous": false,
      "inputs": [
        {
          "indexed": true,
          "internalType": "bytes32",
          "name": "id",
          "type": "bytes32"
        },
        {
          "indexed": true,
          "internalType": "address",
          "name": "recruiter",
          "type": "address"
        },
        {
          "indexed": false,
          "internalType": "string",
          "name": "content_id",
          "type": "string"
        }
      ],
      "name": "JobPublished",
      "type": "event"
    },
    {
      "anonymous": false,
      "inputs": [
        {
          "indexed": true,
          "internalType": "bytes32",
          "name": "id",
          "type": "bytes32"
        },
        {
          "indexed": true,
          "internalType": "address",
          "name": "recruiter",
          "type": "address"
        },
        {
          "indexed": false,
          "internalType": "string",
          "name": "content_id",
          "type": "string"
        }
      ],
      "name": "JobResumed",
      "type": "event"
    },
    {
      "anonymous": false,
      "inputs": [
        {
          "indexed": true,
          "internalType": "bytes32",
          "name": "role",
          "type": "bytes32"
        },
        {
          "indexed": true,
          "internalType": "bytes32",
          "name": "previousAdminRole",
          "type": "bytes32"
        },
        {
          "indexed": true,
          "internalType": "bytes32",
          "name": "newAdminRole",
          "type": "bytes32"
        }
      ],
      "name": "RoleAdminChanged",
      "type": "event"
    },
    {
      "anonymous": false,
      "inputs": [
        {
          "indexed": true,
          "internalType": "bytes32",
          "name": "role",
          "type": "bytes32"
        },
        {
          "indexed": true,
          "internalType": "address",
          "name": "account",
          "type": "address"
        },
        {
          "indexed": true,
          "internalType": "address",
          "name": "sender",
          "type": "address"
        }
      ],
      "name": "RoleGranted",
      "type": "event"
    },
    {
      "anonymous": false,
      "inputs": [
        {
          "indexed": true,
          "internalType": "bytes32",
          "name": "role",
          "type": "bytes32"
        },
        {
          "indexed": true,
          "internalType": "address",
          "name": "account",
          "type": "address"
        },
        {
          "indexed": true,
          "internalType": "address",
          "name": "sender",
          "type": "address"
        }
      ],
      "name": "RoleRevoked",
      "type": "event"
    },
    {
      "inputs": [],
      "name": "DEFAULT_ADMIN_ROLE",
      "outputs": [
        {
          "internalType": "bytes32",
          "name": "",
          "type": "bytes32"
        }
      ],
      "stateMutability": "view",
      "type": "function"
    },
    {
      "inputs": [
        {
          "internalType": "bytes32",
          "name": "id",
          "type": "bytes32"
        }
      ],
      "name": "archiveJob",
      "outputs": [],
      "stateMutability": "nonpayable",
      "type": "function"
    },
    {
      "inputs": [
        {
          "internalType": "bytes32",
          "name": "id",
          "type": "bytes32"
        }
      ],
      "name": "closeJob",
      "outputs": [],
      "stateMutability": "nonpayable",
      "type": "function"
    },
    {
      "inputs": [
        {
          "internalType": "string",
          "name": "content_id",
          "type": "string"
        }
      ],
      "name": "createJob",
      "outputs": [
        {
          "internalType": "bytes32",
          "name": "id",
          "type": "bytes32"
        }
      ],
      "stateMutability": "nonpayable",
      "type": "function"
    },
    {
      "inputs": [
        {
          "internalType": "bytes32",
          "name": "id",
          "type": "bytes32"
        }
      ],
      "name": "fillJob",
      "outputs": [],
      "stateMutability": "nonpayable",
      "type": "function"
    },
    {
      "inputs": [],
      "name": "getAllOpenJobs",
      "outputs": [
        {
          "components": [
            {
              "internalType": "bytes32",
              "name": "id",
              "type": "bytes32"
            },
            {
              "internalType": "address",
              "name": "recruiter",
              "type": "address"
            },
            {
              "internalType": "string",
              "name": "content_id",
              "type": "string"
            },
            {
              "internalType": "uint256",
              "name": "created_at",
              "type": "uint256"
            },
            {
              "internalType": "enum SystemEnums.JobStatus",
              "name": "status",
              "type": "uint8"
            }
          ],
          "internalType": "struct JobManager.Job[]",
          "name": "",
          "type": "tuple[]"
        }
      ],
      "stateMutability": "view",
      "type": "function"
    },
    {
      "inputs": [
        {
          "internalType": "bytes32",
          "name": "id",
          "type": "bytes32"
        }
      ],
      "name": "getJob",
      "outputs": [
        {
          "components": [
            {
              "internalType": "bytes32",
              "name": "id",
              "type": "bytes32"
            },
            {
              "internalType": "address",
              "name": "recruiter",
              "type": "address"
            },
            {
              "internalType": "string",
              "name": "content_id",
              "type": "string"
            },
            {
              "internalType": "uint256",
              "name": "created_at",
              "type": "uint256"
            },
            {
              "internalType": "enum SystemEnums.JobStatus",
              "name": "status",
              "type": "uint8"
            }
          ],
          "internalType": "struct JobManager.Job",
          "name": "",
          "type": "tuple"
        }
      ],
      "stateMutability": "view",
      "type": "function"
    },
    {
      "inputs": [
        {
          "internalType": "bytes32",
          "name": "id",
          "type": "bytes32"
        }
      ],
      "name": "getJobContentID",
      "outputs": [
        {
          "internalType": "string",
          "name": "",
          "type": "string"
        }
      ],
      "stateMutability": "view",
      "type": "function"
    },
    {
      "inputs": [
        {
          "internalType": "address",
          "name": "recruiter",
          "type": "address"
        }
      ],
      "name": "getJobsByRecruiter",
      "outputs": [
        {
          "components": [
            {
              "internalType": "bytes32",
              "name": "id",
              "type": "bytes32"
            },
            {
              "internalType": "address",
              "name": "recruiter",
              "type": "address"
            },
            {
              "internalType": "string",
              "name": "content_id",
              "type": "string"
            },
            {
              "internalType": "uint256",
              "name": "created_at",
              "type": "uint256"
            },
            {
              "internalType": "enum SystemEnums.JobStatus",
              "name": "status",
              "type": "uint8"
            }
          ],
          "internalType": "struct JobManager.Job[]",
          "name": "",
          "type": "tuple[]"
        }
      ],
      "stateMutability": "view",
      "type": "function"
    },
    {
      "inputs": [
        {
          "internalType": "enum SystemEnums.JobStatus",
          "name": "status",
          "type": "uint8"
        }
      ],
      "name": "getJobsByStatus",
      "outputs": [
        {
          "components": [
            {
              "internalType": "bytes32",
              "name": "id",
              "type": "bytes32"
            },
            {
              "internalType": "address",
              "name": "recruiter",
              "type": "address"
            },
            {
              "internalType": "string",
              "name": "content_id",
              "type": "string"
            },
            {
              "internalType": "uint256",
              "name": "created_at",
              "type": "uint256"
            },
            {
              "internalType": "enum SystemEnums.JobStatus",
              "name": "status",
              "type": "uint8"
            }
          ],
          "internalType": "struct JobManager.Job[]",
          "name": "",
          "type": "tuple[]"
        }
      ],
      "stateMutability": "view",
      "type": "function"
    },
    {
      "inputs": [
        {
          "internalType": "enum SystemEnums.JobStatus",
          "name": "status",
          "type": "uint8"
        }
      ],
      "name": "getPossibleStatusTransitions",
      "outputs": [
        {
          "internalType": "enum SystemEnums.JobStatus[]",
          "name": "",
          "type": "uint8[]"
        }
      ],
      "stateMutability": "pure",
      "type": "function"
    },
    {
      "inputs": [
        {
          "internalType": "bytes32",
          "name": "role",
          "type": "bytes32"
        }
      ],
      "name": "getRoleAdmin",
      "outputs": [
        {
          "internalType": "bytes32",
          "name": "",
          "type": "bytes32"
        }
      ],
      "stateMutability": "view",
      "type": "function"
    },
    {
      "inputs": [
        {
          "internalType": "bytes32",
          "name": "role",
          "type": "bytes32"
        },
        {
          "internalType": "address",
          "name": "account",
          "type": "address"
        }
      ],
      "name": "grantRole",
      "outputs": [],
      "stateMutability": "nonpayable",
      "type": "function"
    },
    {
      "inputs": [
        {
          "internalType": "bytes32",
          "name": "role",
          "type": "bytes32"
        },
        {
          "internalType": "address",
          "name": "account",
          "type": "address"
        }
      ],
      "name": "hasRole",
      "outputs": [
        {
          "internalType": "bool",
          "name": "",
          "type": "bool"
        }
      ],
      "stateMutability": "view",
      "type": "function"
    },
    {
      "inputs": [
        {
          "internalType": "bytes32",
          "name": "id",
          "type": "bytes32"
        }
      ],
      "name": "pauseJob",
      "outputs": [],
      "stateMutability": "nonpayable",
      "type": "function"
    },
    {
      "inputs": [
        {
          "internalType": "bytes32",
          "name": "id",
          "type": "bytes32"
        }
      ],
      "name": "publishJob",
      "outputs": [],
      "stateMutability": "nonpayable",
      "type": "function"
    },
    {
      "inputs": [
        {
          "internalType": "bytes32",
          "name": "role",
          "type": "bytes32"
        },
        {
          "internalType": "address",
          "name": "callerConfirmation",
          "type": "address"
        }
      ],
      "name": "renounceRole",
      "outputs": [],
      "stateMutability": "nonpayable",
      "type": "function"
    },
    {
      "inputs": [
        {
          "internalType": "bytes32",
          "name": "id",
          "type": "bytes32"
        }
      ],
      "name": "resumeJob",
      "outputs": [],
      "stateMutability": "nonpayable",
      "type": "function"
    },
    {
      "inputs": [
        {
          "internalType": "bytes32",
          "name": "role",
          "type": "bytes32"
        },
        {
          "internalType": "address",
          "name": "account",
          "type": "address"
        }
      ],
      "name": "revokeRole",
      "outputs": [],
      "stateMutability": "nonpayable",
      "type": "function"
    },
    {
      "inputs": [
        {
          "internalType": "address",
          "name": "addr",
          "type": "address"
        }
      ],
      "name": "setRecruiterSubscriptionAddress",
      "outputs": [],
      "stateMutability": "nonpayable",
      "type": "function"
    },
    {
      "inputs": [
        {
          "internalType": "bytes4",
          "name": "interfaceId",
          "type": "bytes4"
        }
      ],
      "name": "supportsInterface",
      "outputs": [
        {
          "internalType": "bool",
          "name": "",
          "type": "bool"
        }
      ],
      "stateMutability": "view",
      "type": "function"
    }
  ],
  "bytecode": "0x608060405234601f57600f336024565b5060405161206d90816100b28239f35b600080fd5b6001600160a01b038116600090815260008051602061211f833981519152602052604090205460ff1660ab576001600160a01b0316600081815260008051602061211f83398151915260205260408120805460ff191660011790553391907f2f8788117e7eff1d82e926ec794901d17c78024a50270940304540a733656f0d8180a4600190565b5060009056fe608080604052600436101561001357600080fd5b60003560e01c90816301ffc9a7146117a8575080630f84729314611639578063248a9ca3146116045780632ae6aaca146114175780632f2ff15d146113d757806336568abe1461139157806362289fd31461118a5780636502d488146110bd5780637156e7d714610e8d578063881ede2614610e4057806391d1485414610df3578063980e35ce14610ba25780639b8261aa14610ac8578063a217fddf14610aac578063aafa944e14610617578063c9287ec514610474578063d547741f1461042d578063dd8f7d1b1461035c578063f42a37b314610226578063f729cf0d146101805763ff20bd011461010657600080fd5b3461017b57602036600319011261017b57600435600681101561017b5761012c90611cbc565b60405180916020820160208352815180915260206040840192019060005b818110610158575050500390f35b919350916020808261016d6001948851611868565b01940191019184939261014a565b600080fd5b3461017b57602036600319011261017b57610199611bbc565b506004356000526001602052610222604060002061020e60ff6004604051936101c185611924565b8054855260018101546001600160a01b031660208601526040516101f3816101ec8160028601611b21565b0382611940565b60408601526003810154606086015201541660808301611c69565b604051918291602083526020830190611875565b0390f35b3461017b57600036600319011261017b57600360209081526040517fa15bc60c955c405d20d9149c709e2460f1c2d9a497496a7f46004d1772c3054c8054808352600091825291927f2c644dcf44e265ba93879b2da89e1b16ab48fc5eb8e31bc16b0612d6da8463f1928492918301915b8181106103435750506102ac92500382611940565b6102b68151611be8565b9060005b815181101561033557806102d060019284611c55565b5160005281602052604060002061031960ff6004604051936102f185611924565b80548552868060a01b03878201541660208601526040516101f3816101ec8160028601611b21565b6103238286611c55565b5261032e8185611c55565b50016102ba565b6040518061022285826118c4565b8454835260019485019486945060209093019201610297565b3461017b57602036600319011261017b57600435600681101561017b5761038290611a7a565b6040518082602082945493848152019060005260206000209260005b8181106104145750506103b392500382611940565b6103bd8151611be8565b9060005b815181101561033557806103d760019284611c55565b516000528160205260406000206103f860ff6004604051936102f185611924565b6104028286611c55565b5261040d8185611c55565b50016103c1565b845483526001948501948694506020909301920161039e565b3461017b57604036600319011261017b5761047260043561044c6117fb565b9061046d61046882600052600060205260016040600020015490565b611eef565b611fb5565b005b3461017b57602036600319011261017b57600554600435906001600160a01b0316801515806105a5575b6104a8915061197a565b8060005260016020526104cc60018060a01b036001604060002001541633146119d0565b80600052600160205260ff60046040600020015416600681101561058f5760016104f69114611a2e565b80600052600160205260406000209061050e81611e30565b6004828101805460ff191682179055600052600360205261054f817f83ec6a1f0257b830b5e016457c9cf1435391bf56cc98f369a58a54fe93772465611ac1565b7f09744b31325856fca9371facaa451837683c499cf125e48d2312fc3046d81616604051602081528061058a33956002602084019101611b21565b0390a3005b634e487b7160e01b600052602160045260246000fd5b506020602491604051928380926321cf7ecb60e21b82523360048301525afa801561060b576104a8916000916105dc575b5061049e565b6105fe915060203d602011610604575b6105f68183611940565b810190611962565b836105d6565b503d6105ec565b6040513d6000823e3d90fd5b3461017b57602036600319011261017b5760043567ffffffffffffffff811161017b573660238201121561017b57806004013567ffffffffffffffff811161017b576024820191602482369201011161017b576005546001600160a01b031680151580610a56575b610689915061197a565b6040600080825161069a8482611940565b601e81527f4372656174696e67206a6f62207769746820636f6e74656e742055524c3a0000602082015261070e61071c6106d536888a611c75565b86519283916106fc6020840196634b5c427760e01b88528a60248601526064850190611827565b83810360231901604485015290611827565b03601f198101835282611940565b51906a636f6e736f6c652e6c6f675afa508115610a1357805160208101903360601b825242603482015260348152610755605482611940565b519020916103e84202934285046103e814421517156109fd57825161077981611924565b848152602081019533875261078f368585611c75565b858301908152606083019182526080830197600089528760005260016020528660002093518455600184019060018060a01b039051166bffffffffffffffffffffffff60a01b82541617905560028301905180519067ffffffffffffffff82116109e7576107fd8354611ae7565b601f811161099f575b50602090601f8311600114610933576004959493929160009183610928575b50508160011b916000199060031b1c19161790555b51600382015501945194600686101561058f5760009560ff80198354169116179055600454600160401b811015610914578491602096836108be6108a78560017f8d7830e91b86e44ee5b5c72bb054fac71ec74f76e3b2094ba22f8dedfb3e900997016004556004611a93565b819391549060031b91821b91600019901b19161790565b9055338152600288526108d384878320611ac1565b808052600388526108e684878320611ac1565b84865192898452818a850152878401378185018601523393601f01601f19168101819003850190a351908152f35b634e487b7160e01b86526041600452602486fd5b015190508b80610825565b90601f1983169184600052816000209260005b8181106109875750916001939185600499989796941061096e575b505050811b01905561083a565b015160001960f88460031b161c191690558b8080610961565b92936020600181928786015181550195019301610946565b836000526020600020601f840160051c810191602085106109dd575b601f0160051c01905b8181106109d15750610806565b600081556001016109c4565b90915081906109bb565b634e487b7160e01b600052604160045260246000fd5b634e487b7160e01b600052601160045260246000fd5b5162461bcd60e51b815260206004820152601a60248201527f436f6e74656e742049442063616e6e6f7420626520656d7074790000000000006044820152606490fd5b506020602491604051928380926321cf7ecb60e21b82523360048301525afa801561060b5761068991600091610a8d575b5061067f565b610aa6915060203d602011610604576105f68183611940565b84610a87565b3461017b57600036600319011261017b57602060405160008152f35b3461017b57602036600319011261017b576001600160a01b03610ae9611811565b16600052600260205260406000206040518082602082945493848152019060005260206000209260005b818110610b89575050610b2892500382611940565b610b328151611be8565b9060005b81518110156103355780610b4c60019284611c55565b51600052816020526040600020610b6d60ff6004604051936102f185611924565b610b778286611c55565b52610b828185611c55565b5001610b36565b8454835260019485019486945060209093019201610b13565b3461017b57602036600319011261017b57600554600435906001600160a01b031680151580610d9d575b610bd6915061197a565b806000526001602052610bfa60018060a01b036001604060002001541633146119d0565b80600052600160205260ff60046040600020015416600681101561058f57610d5857806000526001602052604060002090610c356000611a7a565b9060005b825480821015610d4f5782610c4e8386611a93565b90549060031b1c14610c635750600101610c39565b91929160001981019081116109fd576108a7610c82610c909285611a93565b90549060031b1c9284611a93565b905580548015610d39576000190190610ca98282611a93565b8154906000199060031b1b19169055555b60048201805460ff191660019081179091556000526003602052610cfe817fa15bc60c955c405d20d9149c709e2460f1c2d9a497496a7f46004d1772c3054c611ac1565b7f6e656c363dda1a6432a3ffc5e4433e77b6e0ad921e30534feb8e43863d5fa489604051602081528061058a33956002602084019101611b21565b634e487b7160e01b600052603160045260246000fd5b50509050610cba565b60405162461bcd60e51b815260206004820152601a60248201527f4a6f62206973206e6f7420696e204452414654207374617475730000000000006044820152606490fd5b506020602491604051928380926321cf7ecb60e21b82523360048301525afa801561060b57610bd691600091610dd4575b50610bcc565b610ded915060203d602011610604576105f68183611940565b83610dce565b3461017b57604036600319011261017b57610e0c6117fb565b600435600052600060205260406000209060018060a01b0316600052602052602060ff604060002054166040519015158152f35b3461017b57602036600319011261017b5760043560005260016020526102226101ec610e79600260406000200160405192838092611b21565b604051918291602083526020830190611827565b3461017b57602036600319011261017b57600554600435906001600160a01b031680151580611067575b610ec1915061197a565b806000526001602052610ee560018060a01b036001604060002001541633146119d0565b80600052600160205260ff60046040600020015416600681101561058f5760020361102257806000526001602052604060002090610f236002611a7a565b9060005b8254808210156110195782610f3c8386611a93565b90549060031b1c14610f515750600101610f27565b91929160001981019081116109fd576108a7610c82610f709285611a93565b905580548015610d39576000190190610f898282611a93565b8154906000199060031b1b19169055555b60048201805460ff191660019081179091556000526003602052610fde817fa15bc60c955c405d20d9149c709e2460f1c2d9a497496a7f46004d1772c3054c611ac1565b7f66b1ef235a3c47312140590e5e6c4fe32a05f95367c9c993b6c095618d544223604051602081528061058a33956002602084019101611b21565b50509050610f9a565b60405162461bcd60e51b815260206004820152601b60248201527f4a6f62206973206e6f7420696e205041555345442073746174757300000000006044820152606490fd5b506020602491604051928380926321cf7ecb60e21b82523360048301525afa801561060b57610ec19160009161109e575b50610eb7565b6110b7915060203d602011610604576105f68183611940565b83611098565b3461017b57602036600319011261017b576110d6611811565b3360009081527fad3228b676f7d3cd4284a5443f17f1962b36e491b30a40b2405849e597ba5fb5602052604090205460ff1615611170576001600160a01b03168015611139576bffffffffffffffffffffffff60a01b6005541617600555600080f35b60405162461bcd60e51b815260206004820152600f60248201526e496e76616c6964206164647265737360881b6044820152606490fd5b63e2517d3f60e01b60005233600452600060245260446000fd5b3461017b57602036600319011261017b57600554600435906001600160a01b03168015158061133b575b6111be915061197a565b8060005260016020526111e260018060a01b036001604060002001541633146119d0565b80600052600160205260ff60046040600020015416600681101561058f576001148015611314575b80156112ed575b15611294578060005260016020526040600020906004820161123760ff82541683611eb8565b600360ff19825416179055611259816040600060038152600360205220611ac1565b7fa095f81cef87a6ee45d8b02cb703181a1718baeb4750b5a423f0748f9c781165604051602081528061058a33956002602084019101611b21565b60405162461bcd60e51b815260206004820152602b60248201527f4a6f62206973206e6f7420696e204f50454e2c20504155534544206f7220464960448201526a4c4c45442073746174757360a81b6064820152608490fd5b5080600052600160205260ff60046040600020015416600681101561058f57600414611211565b5080600052600160205260ff60046040600020015416600681101561058f5760021461120a565b506020602491604051928380926321cf7ecb60e21b82523360048301525afa801561060b576111be91600091611372575b506111b4565b61138b915060203d602011610604576105f68183611940565b8361136c565b3461017b57604036600319011261017b576113aa6117fb565b336001600160a01b038216036113c65761047290600435611fb5565b63334bd91960e11b60005260046000fd5b3461017b57604036600319011261017b576104726004356113f66117fb565b9061141261046882600052600060205260016040600020015490565b611f2a565b3461017b57602036600319011261017b57600554600435906001600160a01b0316801515806115ae575b61144b915061197a565b80600052600160205261146f60018060a01b036001604060002001541633146119d0565b80600052600160205260ff60046040600020015416600681101561058f576003148015611589575b1561153857806000526001602052604060002090600482016114bd60ff82541683611eb8565b805460ff1916600590811790915560005260036020526114fd817f405aad32e1adbac89bb7f176e338b8fc6e994ca210c9bb7bdca249b465942250611ac1565b7f5ae9a8ee0005f6ccd7fdb517aa501c1596a90793f573ddd8520936c0ecd2bbd0604051602081528061058a33956002602084019101611b21565b60405162461bcd60e51b8152602060048201526024808201527f4a6f62206973206e6f7420696e20434c4f534544206f722044524146542073746044820152636174757360e01b6064820152608490fd5b5080600052600160205260ff60046040600020015416600681101561058f5715611497565b506020602491604051928380926321cf7ecb60e21b82523360048301525afa801561060b5761144b916000916115e5575b50611441565b6115fe915060203d602011610604576105f68183611940565b836115df565b3461017b57602036600319011261017b576020611631600435600052600060205260016040600020015490565b604051908152f35b3461017b57602036600319011261017b57600554600435906001600160a01b031680151580611752575b61166d915061197a565b80600052600160205261169160018060a01b036001604060002001541633146119d0565b80600052600160205260ff60046040600020015416600681101561058f5760016116bb9114611a2e565b8060005260016020526040600020906116d381611e30565b60048201805460ff191660029081179091556000526003602052611717817fc3a24b0501bd2c13a7e57f2db4369ec4c223447539fc0724a9d55ac4a06ebd4d611ac1565b7f762c3e023877e28c5db607c22a33fa39c90e6789fa9e8695339c1d7bf3ab8934604051602081528061058a33956002602084019101611b21565b506020602491604051928380926321cf7ecb60e21b82523360048301525afa801561060b5761166d91600091611789575b50611663565b6117a2915060203d602011610604576105f68183611940565b83611783565b3461017b57602036600319011261017b576004359063ffffffff60e01b821680920361017b57602091637965db0b60e01b81149081156117ea575b5015158152f35b6301ffc9a760e01b149050836117e3565b602435906001600160a01b038216820361017b57565b600435906001600160a01b038216820361017b57565b919082519283825260005b848110611853575050826000602080949584010152601f8019910116010190565b80602080928401015182828601015201611832565b90600682101561058f5752565b906118c1908251815260018060a01b0360208401511660208201526080806118ac604086015160a0604086015260a0850190611827565b94606081015160608501520151910190611868565b90565b602081016020825282518091526040820191602060408360051b8301019401926000915b8383106118f757505050505090565b9091929394602080611915600193603f198682030187528951611875565b970193019301919392906118e8565b60a0810190811067ffffffffffffffff8211176109e757604052565b90601f8019910116810190811067ffffffffffffffff8211176109e757604052565b9081602091031261017b5751801515810361017b5790565b1561198157565b60405162461bcd60e51b815260206004820152602160248201527f5265637275697465722068617320696e73756666696369656e742062756467656044820152601d60fa1b6064820152608490fd5b156119d757565b60405162461bcd60e51b815260206004820152602960248201527f596f7520617265206e6f7420746865206f776e6572206f662074686973206a6f6044820152686220706f7374696e6760b81b6064820152608490fd5b15611a3557565b60405162461bcd60e51b815260206004820152601960248201527f4a6f62206973206e6f7420696e204f50454e20737461747573000000000000006044820152606490fd5b600681101561058f576000526003602052604060002090565b8054821015611aab5760005260206000200190600090565b634e487b7160e01b600052603260045260246000fd5b805490600160401b8210156109e757816108a7916001611ae394018155611a93565b9055565b90600182811c92168015611b17575b6020831014611b0157565b634e487b7160e01b600052602260045260246000fd5b91607f1691611af6565b60009291815491611b3183611ae7565b8083529260018116908115611b875750600114611b4d57505050565b60009081526020812093945091925b838310611b6d575060209250010190565b600181602092949394548385870101520191019190611b5c565b915050602093945060ff929192191683830152151560051b010190565b67ffffffffffffffff81116109e75760051b60200190565b60405190611bc982611924565b6000608083828152826020820152606060408201528260608201520152565b90611bf282611ba4565b611bff6040519182611940565b8281528092611c10601f1991611ba4565b019060005b828110611c2157505050565b602090611c2c611bbc565b82828501015201611c15565b805115611aab5760200190565b805160011015611aab5760400190565b8051821015611aab5760209160051b010190565b600682101561058f5752565b92919267ffffffffffffffff82116109e75760405191611c9f601f8201601f191660200184611940565b82948184528183011161017b578281602093846000960137010152565b600681101561058f5780611d005750604051611cd9606082611940565b6002815260403660208301376001611cf082611c38565b526005611cfc82611c45565b5290565b600060018203611d52575050604051611d1a608082611940565b6003815260603660208301376002611d3182611c38565b526003611d3d82611c45565b52805160021015611aab576004606082015290565b5060028103611d8d5750604051611d6a606082611940565b6002815260403660208301376001611d8182611c38565b526003611cfc82611c45565b600060048203611dc15750506040805190611da88183611940565b60018252601f19013660208301376003611cfc82611c38565b5060038103611df357506040805190611dda8183611940565b60018252601f19013660208301376005611cfc82611c38565b600560009114611e185750604051611e0c602082611940565b60008152600036813790565b60405190611e27602083611940565b80825236813790565b611e3a6001611a7a565b60005b815480821015611eb25783611e528385611a93565b90549060031b1c14611e675750600101611e3d565b9192509060001981019081116109fd576108a7610c82611e879285611a93565b905580548015610d39576000190190611ea08282611a93565b8154906000199060031b1b1916905555565b50505050565b90611ec290611a7a565b60005b815480821015611eb25783611eda8385611a93565b90549060031b1c14611e675750600101611ec5565b60008181526020818152604080832033845290915290205460ff1615611f125750565b63e2517d3f60e01b6000523360045260245260446000fd5b6000818152602081815260408083206001600160a01b038616845290915290205460ff16611fae576000818152602081815260408083206001600160a01b0395909516808452949091528120805460ff19166001179055339291907f2f8788117e7eff1d82e926ec794901d17c78024a50270940304540a733656f0d9080a4600190565b5050600090565b6000818152602081815260408083206001600160a01b038616845290915290205460ff1615611fae576000818152602081815260408083206001600160a01b0395909516808452949091528120805460ff19169055339291907ff6391f5c32d9c69d2a47ea670b442974b53935d1edc7fd64eb21e047a839171b9080a460019056fea2646970667358221220ca78aa3de5546b45465734c9a5d685730c477d27aacaeafedea6e638d465a9a864736f6c634300081c0033ad3228b676f7d3cd4284a5443f17f1962b36e491b30a40b2405849e597ba5fb5",
  "linkReferences": {},
  "deployedLinkReferences": {}
}