{
  "_format": "hh-sol-artifact-1",
  "contractName": "ModerationEscrow",
  "sourceName": "contracts/ModerationEscrow.sol",
  "abi": [
    {
      "inputs": [],
      "stateMutability": "nonpayable",
      "type": "constructor"
    },
    {
      "inputs": [],
      "name": "AccessControlBadConfirmation",
      "type": "error"
    },
    {
      "inputs": [
        {
          "internalType": "address",
          "name": "account",
          "type": "address"
        },
        {
          "internalType": "bytes32",
          "name": "neededRole",
          "type": "bytes32"
        }
      ],
      "name": "AccessControlUnauthorizedAccount",
      "type": "error"
    },
    {
      "anonymous": false,
      "inputs": [
        {
          "indexed": true,
          "internalType": "uint256",
          "name": "challenge_id",
          "type": "uint256"
        },
        {
          "indexed": false,
          "internalType": "address",
          "name": "contributor",
          "type": "address"
        },
        {
          "indexed": false,
          "internalType": "uint256",
          "name": "amount",
          "type": "uint256"
        }
      ],
      "name": "BountyDeposited",
      "type": "event"
    },
    {
      "anonymous": false,
      "inputs": [
        {
          "indexed": true,
          "internalType": "uint256",
          "name": "challenge_id",
          "type": "uint256"
        },
        {
          "indexed": false,
          "internalType": "uint256",
          "name": "total_reward",
          "type": "uint256"
        }
      ],
      "name": "RewardsDistributed",
      "type": "event"
    },
    {
      "anonymous": false,
      "inputs": [
        {
          "indexed": true,
          "internalType": "bytes32",
          "name": "role",
          "type": "bytes32"
        },
        {
          "indexed": true,
          "internalType": "bytes32",
          "name": "previousAdminRole",
          "type": "bytes32"
        },
        {
          "indexed": true,
          "internalType": "bytes32",
          "name": "newAdminRole",
          "type": "bytes32"
        }
      ],
      "name": "RoleAdminChanged",
      "type": "event"
    },
    {
      "anonymous": false,
      "inputs": [
        {
          "indexed": true,
          "internalType": "bytes32",
          "name": "role",
          "type": "bytes32"
        },
        {
          "indexed": true,
          "internalType": "address",
          "name": "account",
          "type": "address"
        },
        {
          "indexed": true,
          "internalType": "address",
          "name": "sender",
          "type": "address"
        }
      ],
      "name": "RoleGranted",
      "type": "event"
    },
    {
      "anonymous": false,
      "inputs": [
        {
          "indexed": true,
          "internalType": "bytes32",
          "name": "role",
          "type": "bytes32"
        },
        {
          "indexed": true,
          "internalType": "address",
          "name": "account",
          "type": "address"
        },
        {
          "indexed": true,
          "internalType": "address",
          "name": "sender",
          "type": "address"
        }
      ],
      "name": "RoleRevoked",
      "type": "event"
    },
    {
      "inputs": [],
      "name": "CHALLENGE_MANAGER_ROLE",
      "outputs": [
        {
          "internalType": "bytes32",
          "name": "",
          "type": "bytes32"
        }
      ],
      "stateMutability": "view",
      "type": "function"
    },
    {
      "inputs": [],
      "name": "DEFAULT_ADMIN_ROLE",
      "outputs": [
        {
          "internalType": "bytes32",
          "name": "",
          "type": "bytes32"
        }
      ],
      "stateMutability": "view",
      "type": "function"
    },
    {
      "inputs": [
        {
          "internalType": "uint256",
          "name": "_challenge_id",
          "type": "uint256"
        },
        {
          "internalType": "address",
          "name": "_contributor",
          "type": "address"
        }
      ],
      "name": "depositBounty",
      "outputs": [],
      "stateMutability": "payable",
      "type": "function"
    },
    {
      "inputs": [
        {
          "internalType": "uint256",
          "name": "_challenge_id",
          "type": "uint256"
        }
      ],
      "name": "finalizeChallengePot",
      "outputs": [],
      "stateMutability": "nonpayable",
      "type": "function"
    },
    {
      "inputs": [
        {
          "internalType": "uint256",
          "name": "_challenge_id",
          "type": "uint256"
        }
      ],
      "name": "getBounty",
      "outputs": [
        {
          "internalType": "uint256",
          "name": "",
          "type": "uint256"
        }
      ],
      "stateMutability": "view",
      "type": "function"
    },
    {
      "inputs": [
        {
          "internalType": "uint256",
          "name": "_challenge_id",
          "type": "uint256"
        }
      ],
      "name": "getFailedModerators",
      "outputs": [
        {
          "internalType": "address[]",
          "name": "",
          "type": "address[]"
        }
      ],
      "stateMutability": "view",
      "type": "function"
    },
    {
      "inputs": [
        {
          "internalType": "uint256",
          "name": "_challenge_id",
          "type": "uint256"
        },
        {
          "internalType": "address",
          "name": "moderator",
          "type": "address"
        }
      ],
      "name": "getModeratorReward",
      "outputs": [
        {
          "internalType": "uint256",
          "name": "",
          "type": "uint256"
        }
      ],
      "stateMutability": "view",
      "type": "function"
    },
    {
      "inputs": [
        {
          "internalType": "uint256",
          "name": "_challenge_id",
          "type": "uint256"
        }
      ],
      "name": "getModerators",
      "outputs": [
        {
          "internalType": "address[]",
          "name": "",
          "type": "address[]"
        }
      ],
      "stateMutability": "view",
      "type": "function"
    },
    {
      "inputs": [
        {
          "internalType": "uint256",
          "name": "_challenge_id",
          "type": "uint256"
        }
      ],
      "name": "getPassedModerators",
      "outputs": [
        {
          "internalType": "address[]",
          "name": "",
          "type": "address[]"
        }
      ],
      "stateMutability": "view",
      "type": "function"
    },
    {
      "inputs": [
        {
          "internalType": "bytes32",
          "name": "role",
          "type": "bytes32"
        }
      ],
      "name": "getRoleAdmin",
      "outputs": [
        {
          "internalType": "bytes32",
          "name": "",
          "type": "bytes32"
        }
      ],
      "stateMutability": "view",
      "type": "function"
    },
    {
      "inputs": [
        {
          "internalType": "uint256",
          "name": "_challenge_id",
          "type": "uint256"
        }
      ],
      "name": "getTotalReward",
      "outputs": [
        {
          "internalType": "uint256",
          "name": "",
          "type": "uint256"
        }
      ],
      "stateMutability": "view",
      "type": "function"
    },
    {
      "inputs": [
        {
          "internalType": "address",
          "name": "account",
          "type": "address"
        }
      ],
      "name": "grantChallengeManagerRole",
      "outputs": [],
      "stateMutability": "nonpayable",
      "type": "function"
    },
    {
      "inputs": [
        {
          "internalType": "bytes32",
          "name": "role",
          "type": "bytes32"
        },
        {
          "internalType": "address",
          "name": "account",
          "type": "address"
        }
      ],
      "name": "grantRole",
      "outputs": [],
      "stateMutability": "nonpayable",
      "type": "function"
    },
    {
      "inputs": [
        {
          "internalType": "bytes32",
          "name": "role",
          "type": "bytes32"
        },
        {
          "internalType": "address",
          "name": "account",
          "type": "address"
        }
      ],
      "name": "hasRole",
      "outputs": [
        {
          "internalType": "bool",
          "name": "",
          "type": "bool"
        }
      ],
      "stateMutability": "view",
      "type": "function"
    },
    {
      "inputs": [
        {
          "internalType": "uint256",
          "name": "_challenge_id",
          "type": "uint256"
        }
      ],
      "name": "isDistributed",
      "outputs": [
        {
          "internalType": "bool",
          "name": "",
          "type": "bool"
        }
      ],
      "stateMutability": "view",
      "type": "function"
    },
    {
      "inputs": [
        {
          "internalType": "bytes32",
          "name": "role",
          "type": "bytes32"
        },
        {
          "internalType": "address",
          "name": "callerConfirmation",
          "type": "address"
        }
      ],
      "name": "renounceRole",
      "outputs": [],
      "stateMutability": "nonpayable",
      "type": "function"
    },
    {
      "inputs": [
        {
          "internalType": "address",
          "name": "account",
          "type": "address"
        }
      ],
      "name": "revokeChallengeManagerRole",
      "outputs": [],
      "stateMutability": "nonpayable",
      "type": "function"
    },
    {
      "inputs": [
        {
          "internalType": "bytes32",
          "name": "role",
          "type": "bytes32"
        },
        {
          "internalType": "address",
          "name": "account",
          "type": "address"
        }
      ],
      "name": "revokeRole",
      "outputs": [],
      "stateMutability": "nonpayable",
      "type": "function"
    },
    {
      "inputs": [
        {
          "internalType": "address",
          "name": "_address",
          "type": "address"
        }
      ],
      "name": "setChallengeManagerAddress",
      "outputs": [],
      "stateMutability": "nonpayable",
      "type": "function"
    },
    {
      "inputs": [
        {
          "internalType": "address",
          "name": "_address",
          "type": "address"
        }
      ],
      "name": "setReputationManagerAddress",
      "outputs": [],
      "stateMutability": "nonpayable",
      "type": "function"
    },
    {
      "inputs": [
        {
          "internalType": "bytes4",
          "name": "interfaceId",
          "type": "bytes4"
        }
      ],
      "name": "supportsInterface",
      "outputs": [
        {
          "internalType": "bool",
          "name": "",
          "type": "bool"
        }
      ],
      "stateMutability": "view",
      "type": "function"
    },
    {
      "inputs": [
        {
          "internalType": "uint256",
          "name": "_challenge_id",
          "type": "uint256"
        }
      ],
      "name": "syncModeratorsFromReviewPool",
      "outputs": [],
      "stateMutability": "nonpayable",
      "type": "function"
    }
  ],
  "bytecode": "0x608060405234601f57600f336024565b506040516114a890816100b28239f35b600080fd5b6001600160a01b038116600090815260008051602061155a833981519152602052604090205460ff1660ab576001600160a01b0316600081815260008051602061155a83398151915260205260408120805460ff191660011790553391907f2f8788117e7eff1d82e926ec794901d17c78024a50270940304540a733656f0d8180a4600190565b5060009056fe608080604052600436101561001357600080fd5b60003560e01c90816301ffc9a714610f405750806313e1243d14610f115780631eb6159b14610ee25780631fb2a02814610ea3578063248a9ca314610e6e5780632bf9e78914610e235780632dd4183e14610dfa5780632f2ff15d14610dba57806336568abe14610d7457806353c7cd29146107035780636f62c3a6146106cf5780637b0ee4cd146104bf57806391d14854146104725780639ce0c10814610449578063a217fddf1461042d578063a77d941e14610323578063bdf89204146102f4578063c361e8cf14610253578063d547741f1461020e578063e1176203146101e3578063ee01d8e6146101425763ee8c4bbf1461011157600080fd5b3461013d57602036600319011261013d5760043560005260016020526020604060002054604051908152f35b600080fd5b3461013d57602036600319011261013d5761015b610fec565b6101636110e0565b6001600160a01b0316801561019e57806001600160601b0360a01b60035416176003556001600160601b0360a01b6002541617600255600080f35b60405162461bcd60e51b815260206004820152601e60248201527f496e76616c69644368616c6c656e67654d616e616765724164647265737300006044820152606490fd5b3461013d57602036600319011261013d5761020c6101ff610fec565b6102076110e0565b61116e565b005b3461013d57604036600319011261013d5761020c60043561022d610fd6565b9061024e61024982600052600060205260016040600020015490565b611133565b61132d565b3461013d57602036600319011261013d5761026c610fec565b6102746110e0565b6001600160a01b031680156102af57806001600160601b0360a01b60055416176005556001600160601b0360a01b6004541617600455600080f35b60405162461bcd60e51b815260206004820152601f60248201527f496e76616c696452657075746174696f6e4d616e6167657241646472657373006044820152606490fd5b3461013d57602036600319011261013d5760043560005260016020526020600260406000200154604051908152f35b604036600319011261013d5760043561033a610fd6565b610342611092565b34156103fc57816000526001602052604060002080546103b7577fb1d5d5e7bd3f095106c77c1574721fffe610c6e6421a2604e93dbc81d634c65c916001604092348155346002820155019060018060a01b031690816001600160601b0360a01b8254161790558151908152346020820152a2005b60405162461bcd60e51b815260206004820152601860248201527f436f6e7472696275746f72416c726561647946756e64656400000000000000006044820152606490fd5b60405162461bcd60e51b81526020600482015260096024820152685a65726f56616c756560b81b6044820152606490fd5b3461013d57600036600319011261013d57602060405160008152f35b3461013d57602036600319011261013d5761020c610465610fec565b61046d6110e0565b611297565b3461013d57604036600319011261013d5761048b610fd6565b600435600052600060205260406000209060018060a01b0316600052602052602060ff604060002054166040519015158152f35b3461013d57602036600319011261013d576004356104db611092565b6003546001600160a01b031615610691578060005260016020526040600020600060018060a01b03600254169260246040518095819363dedfe86d60e01b835260048301525afa918215610685576000926105d6575b506005019080519067ffffffffffffffff82116105c057600160401b82116105c0578254828455808310610597575b506020019160005260206000209160005b82811061057a57005b81516001600160a01b031681850155602090910190600101610571565b8360005282602060002091820191015b8181106105b45750610560565b600081556001016105a7565b634e487b7160e01b600052604160045260246000fd5b90913d8082843e6105e78184611002565b8201916020818403126106815780519067ffffffffffffffff821161067d57019180601f840112156106815782519161061f8361107a565b9361062d6040519586611002565b83855260208086019460051b82010192831161068157602001925b82841061065d57505050506005909190610531565b83516001600160a01b038116810361067d57815260209384019301610648565b8280fd5b5080fd5b6040513d6000823e3d90fd5b60405162461bcd60e51b815260206004820152601660248201527510da185b1b195b99d953585b9859d95c939bdd14d95d60521b6044820152606490fd5b3461013d57602036600319011261013d576004356000526001602052602060ff600860406000200154166040519015158152f35b3461013d57602036600319011261013d5760043561071f611092565b806000526001602052600160ff60086040600020015416151514610d3a576003546001600160a01b031615610691576000818152600160205260408120600481019260058201925b83548110156108485761077a81856113af565b60018060a01b0391549060031b1c166044602060018060a01b03600254166040519283809263b94bc00f60e01b82528860048301528660248301525afa90811561068557600091610813575b506001600160a01b03821660009081526020889052604090208190556001929190604610610801576107fb90600686016113dd565b01610767565b61080e90600786016113dd565b6107fb565b906020823d8211610840575b8161082c60209383611002565b8101031261083d57505160466107c6565b80fd5b3d915061081f565b5060008181526001602052604090206005546001600160a01b0316158015610d27575b610ce2576006810180548015610ca5578061088760249261107a565b936108956040519586611002565b818552601f196108a48361107a565b0136602087013760025460405163e2e6825360e01b8152600481018890529360009291602091869182906001600160a01b03165afa938415610c9a578294610c5d575b508194929473__$1eb2b8967d584e5ea7e64aefcb3a5905f8$__9460048301905b878310610af5575050506000926003600283019201935b868110610a40578880600052600160205260406000209060088201600160ff19825416179055600090600683019060038401925b8254811015610a0e57600080808061096b85886113af565b905460039190911b1c6001600160a01b031680825260208990526040822054905af13d15610a09573d67ffffffffffffffff81116105c057604051906109bb601f8201601f191660200183611002565b8152600060203d92013e5b156109d357600101610953565b60405162461bcd60e51b815260206004820152600e60248201526d151c985b9cd9995c91985a5b195960921b6044820152606490fd5b6109c6565b507f29e98ba00d07f171959c4ddcd2f3020debc7c52cf537a034d7e664340d098c6c60206002860154604051908152a2005b610a4a81836113af565b905460039190911b1c6001600160a01b0316610a66828a61141e565b519084546040519263a8e62b9760e01b8452600484015286602484015260448301526020826064818b5af491821561068557600092610ac1575b506001600160a01b031660009081526020879052604090205560010161091f565b90916020823d8211610aed575b81610adb60209383611002565b8101031261083d575051906040610aa0565b3d9150610ace565b909193610b04858799976113af565b90546001600160a01b0360039290921b1c81166000818152602086905260409081902054600480549251630cf571c160e11b8152908101939093529216600e851015610c4757816044816020938860248301525afa90811561068557600091610c16575b506000811215610c11575060005b604051916304cf39e760e31b8352600483015260248201526020816044818b5af490811561068557600091610be0575b5080610bb2878c61141e565b528101809111610bca57949694936001019190610908565b634e487b7160e01b600052601160045260246000fd5b906020823d8211610c09575b81610bf960209383611002565b8101031261083d5750518b610ba6565b3d9150610bec565b610b76565b906020823d8211610c3f575b81610c2f60209383611002565b8101031261083d5750518c610b68565b3d9150610c22565b634e487b7160e01b600052602160045260246000fd5b9093506020813d602011610c92575b81610c7960209383611002565b810103126106815751600e8110156106815792876108e7565b3d9150610c6c565b6040513d84823e3d90fd5b60405162461bcd60e51b81526020600482015260156024820152744e6f7420456e6f756768204d6f64657261746f727360581b6044820152606490fd5b60405162461bcd60e51b815260206004820152601a60248201527f52657075746174696f6e204d616e61676572204e6f74205365740000000000006044820152606490fd5b506003546001600160a01b03161561086b565b60405162461bcd60e51b8152602060048201526012602482015271105b1c9958591e511a5cdd1c9a589d5d195960721b6044820152606490fd5b3461013d57604036600319011261013d57610d8d610fd6565b336001600160a01b03821603610da95761020c9060043561132d565b63334bd91960e11b60005260046000fd5b3461013d57604036600319011261013d5761020c600435610dd9610fd6565b90610df561024982600052600060205260016040600020015490565b61120c565b3461013d57600036600319011261013d5760206040516000805160206114338339815191528152f35b3461013d57604036600319011261013d57610e3c610fd6565b600435600052600160205260036040600020019060018060a01b03166000526020526020604060002054604051908152f35b3461013d57602036600319011261013d576020610e9b600435600052600060205260016040600020015490565b604051908152f35b3461013d57602036600319011261013d576004356000526001602052610ede610ed26005604060002001611024565b60405191829182610f93565b0390f35b3461013d57602036600319011261013d576004356000526001602052610ede610ed26006604060002001611024565b3461013d57602036600319011261013d576004356000526001602052610ede610ed26007604060002001611024565b3461013d57602036600319011261013d576004359063ffffffff60e01b821680920361013d57602091637965db0b60e01b8114908115610f82575b5015158152f35b6301ffc9a760e01b14905083610f7b565b602060408183019282815284518094520192019060005b818110610fb75750505090565b82516001600160a01b0316845260209384019390920191600101610faa565b602435906001600160a01b038216820361013d57565b600435906001600160a01b038216820361013d57565b90601f8019910116810190811067ffffffffffffffff8211176105c057604052565b906040519182815491828252602082019060005260206000209260005b81811061105857505061105692500383611002565b565b84546001600160a01b0316835260019485019487945060209093019201611041565b67ffffffffffffffff81116105c05760051b60200190565b336000908152600080516020611453833981519152602052604090205460ff16156110b957565b63e2517d3f60e01b6000523360045260008051602061143383398151915260245260446000fd5b3360009081527fad3228b676f7d3cd4284a5443f17f1962b36e491b30a40b2405849e597ba5fb5602052604090205460ff161561111957565b63e2517d3f60e01b60005233600452600060245260446000fd5b60008181526020818152604080832033845290915290205460ff16156111565750565b63e2517d3f60e01b6000523360045260245260446000fd5b6001600160a01b0381166000908152600080516020611453833981519152602052604090205460ff16611206576001600160a01b0316600081815260008051602061145383398151915260205260408120805460ff19166001179055339190600080516020611433833981519152907f2f8788117e7eff1d82e926ec794901d17c78024a50270940304540a733656f0d9080a4600190565b50600090565b6000818152602081815260408083206001600160a01b038616845290915290205460ff16611290576000818152602081815260408083206001600160a01b0395909516808452949091528120805460ff19166001179055339291907f2f8788117e7eff1d82e926ec794901d17c78024a50270940304540a733656f0d9080a4600190565b5050600090565b6001600160a01b0381166000908152600080516020611453833981519152602052604090205460ff1615611206576001600160a01b0316600081815260008051602061145383398151915260205260408120805460ff19169055339190600080516020611433833981519152907ff6391f5c32d9c69d2a47ea670b442974b53935d1edc7fd64eb21e047a839171b9080a4600190565b6000818152602081815260408083206001600160a01b038616845290915290205460ff1615611290576000818152602081815260408083206001600160a01b0395909516808452949091528120805460ff19169055339291907ff6391f5c32d9c69d2a47ea670b442974b53935d1edc7fd64eb21e047a839171b9080a4600190565b80548210156113c75760005260206000200190600090565b634e487b7160e01b600052603260045260246000fd5b8054600160401b8110156105c0576113fa916001820181556113af565b81546001600160a01b0393841660039290921b91821b9390911b1916919091179055565b80518210156113c75760209160051b01019056fedf00d3af90ab30df537a66d1500cb39094b378b2e2f0cb96f486cb799624db519b171f6d2bd3797f3e503ef7470f8c0decd863054fdfa00c8bd800c00d3c325da264697066735822122053d07a072cbffe7dd0053f22de25199b160193c4f8bbd0f621b3ff3d5f04104a64736f6c634300081c0033ad3228b676f7d3cd4284a5443f17f1962b36e491b30a40b2405849e597ba5fb5",
  "linkReferences": {
    "contracts/Formulas.sol": {
      "RewardTokenFormulas": [
        {
          "length": 20,
          "start": 2464
        }
      ]
    }
  },
  "deployedLinkReferences": {
    "contracts/Formulas.sol": {
      "RewardTokenFormulas": [
        {
          "length": 20,
          "start": 2286
        }
      ]
    }
  }
}