{
  "_format": "hh-sol-artifact-1",
  "contractName": "ModerationEscrow",
  "sourceName": "contracts/ModerationEscrow.sol",
  "abi": [
    {
      "inputs": [],
      "stateMutability": "nonpayable",
      "type": "constructor"
    },
    {
      "inputs": [],
      "name": "AccessControlBadConfirmation",
      "type": "error"
    },
    {
      "inputs": [
        {
          "internalType": "address",
          "name": "account",
          "type": "address"
        },
        {
          "internalType": "bytes32",
          "name": "neededRole",
          "type": "bytes32"
        }
      ],
      "name": "AccessControlUnauthorizedAccount",
      "type": "error"
    },
    {
      "anonymous": false,
      "inputs": [
        {
          "indexed": true,
          "internalType": "bytes32",
          "name": "challenge_id",
          "type": "bytes32"
        },
        {
          "indexed": false,
          "internalType": "address",
          "name": "contributor",
          "type": "address"
        },
        {
          "indexed": false,
          "internalType": "uint256",
          "name": "amount",
          "type": "uint256"
        }
      ],
      "name": "BountyDeposited",
      "type": "event"
    },
    {
      "anonymous": false,
      "inputs": [
        {
          "indexed": true,
          "internalType": "bytes32",
          "name": "challenge_id",
          "type": "bytes32"
        },
        {
          "indexed": false,
          "internalType": "uint256",
          "name": "total_reward",
          "type": "uint256"
        }
      ],
      "name": "RewardsDistributed",
      "type": "event"
    },
    {
      "anonymous": false,
      "inputs": [
        {
          "indexed": true,
          "internalType": "bytes32",
          "name": "role",
          "type": "bytes32"
        },
        {
          "indexed": true,
          "internalType": "bytes32",
          "name": "previousAdminRole",
          "type": "bytes32"
        },
        {
          "indexed": true,
          "internalType": "bytes32",
          "name": "newAdminRole",
          "type": "bytes32"
        }
      ],
      "name": "RoleAdminChanged",
      "type": "event"
    },
    {
      "anonymous": false,
      "inputs": [
        {
          "indexed": true,
          "internalType": "bytes32",
          "name": "role",
          "type": "bytes32"
        },
        {
          "indexed": true,
          "internalType": "address",
          "name": "account",
          "type": "address"
        },
        {
          "indexed": true,
          "internalType": "address",
          "name": "sender",
          "type": "address"
        }
      ],
      "name": "RoleGranted",
      "type": "event"
    },
    {
      "anonymous": false,
      "inputs": [
        {
          "indexed": true,
          "internalType": "bytes32",
          "name": "role",
          "type": "bytes32"
        },
        {
          "indexed": true,
          "internalType": "address",
          "name": "account",
          "type": "address"
        },
        {
          "indexed": true,
          "internalType": "address",
          "name": "sender",
          "type": "address"
        }
      ],
      "name": "RoleRevoked",
      "type": "event"
    },
    {
      "inputs": [],
      "name": "CHALLENGE_MANAGER_ROLE",
      "outputs": [
        {
          "internalType": "bytes32",
          "name": "",
          "type": "bytes32"
        }
      ],
      "stateMutability": "view",
      "type": "function"
    },
    {
      "inputs": [],
      "name": "DEFAULT_ADMIN_ROLE",
      "outputs": [
        {
          "internalType": "bytes32",
          "name": "",
          "type": "bytes32"
        }
      ],
      "stateMutability": "view",
      "type": "function"
    },
    {
      "inputs": [
        {
          "internalType": "bytes32",
          "name": "_challenge_id",
          "type": "bytes32"
        },
        {
          "internalType": "address",
          "name": "_contributor",
          "type": "address"
        }
      ],
      "name": "depositBounty",
      "outputs": [],
      "stateMutability": "payable",
      "type": "function"
    },
    {
      "inputs": [
        {
          "internalType": "bytes32",
          "name": "_challenge_id",
          "type": "bytes32"
        }
      ],
      "name": "finalizeChallengePot",
      "outputs": [],
      "stateMutability": "nonpayable",
      "type": "function"
    },
    {
      "inputs": [
        {
          "internalType": "bytes32",
          "name": "_challenge_id",
          "type": "bytes32"
        }
      ],
      "name": "getBounty",
      "outputs": [
        {
          "internalType": "uint256",
          "name": "",
          "type": "uint256"
        }
      ],
      "stateMutability": "view",
      "type": "function"
    },
    {
      "inputs": [
        {
          "internalType": "bytes32",
          "name": "_challenge_id",
          "type": "bytes32"
        }
      ],
      "name": "getFailedModerators",
      "outputs": [
        {
          "internalType": "address[]",
          "name": "",
          "type": "address[]"
        }
      ],
      "stateMutability": "view",
      "type": "function"
    },
    {
      "inputs": [
        {
          "internalType": "bytes32",
          "name": "_challenge_id",
          "type": "bytes32"
        },
        {
          "internalType": "address",
          "name": "moderator",
          "type": "address"
        }
      ],
      "name": "getModeratorReward",
      "outputs": [
        {
          "internalType": "uint256",
          "name": "",
          "type": "uint256"
        }
      ],
      "stateMutability": "view",
      "type": "function"
    },
    {
      "inputs": [
        {
          "internalType": "bytes32",
          "name": "_challenge_id",
          "type": "bytes32"
        }
      ],
      "name": "getModerators",
      "outputs": [
        {
          "internalType": "address[]",
          "name": "",
          "type": "address[]"
        }
      ],
      "stateMutability": "view",
      "type": "function"
    },
    {
      "inputs": [
        {
          "internalType": "bytes32",
          "name": "_challenge_id",
          "type": "bytes32"
        }
      ],
      "name": "getPassedModerators",
      "outputs": [
        {
          "internalType": "address[]",
          "name": "",
          "type": "address[]"
        }
      ],
      "stateMutability": "view",
      "type": "function"
    },
    {
      "inputs": [
        {
          "internalType": "bytes32",
          "name": "role",
          "type": "bytes32"
        }
      ],
      "name": "getRoleAdmin",
      "outputs": [
        {
          "internalType": "bytes32",
          "name": "",
          "type": "bytes32"
        }
      ],
      "stateMutability": "view",
      "type": "function"
    },
    {
      "inputs": [
        {
          "internalType": "bytes32",
          "name": "_challenge_id",
          "type": "bytes32"
        }
      ],
      "name": "getTotalReward",
      "outputs": [
        {
          "internalType": "uint256",
          "name": "",
          "type": "uint256"
        }
      ],
      "stateMutability": "view",
      "type": "function"
    },
    {
      "inputs": [
        {
          "internalType": "address",
          "name": "account",
          "type": "address"
        }
      ],
      "name": "grantChallengeManagerRole",
      "outputs": [],
      "stateMutability": "nonpayable",
      "type": "function"
    },
    {
      "inputs": [
        {
          "internalType": "bytes32",
          "name": "role",
          "type": "bytes32"
        },
        {
          "internalType": "address",
          "name": "account",
          "type": "address"
        }
      ],
      "name": "grantRole",
      "outputs": [],
      "stateMutability": "nonpayable",
      "type": "function"
    },
    {
      "inputs": [
        {
          "internalType": "bytes32",
          "name": "role",
          "type": "bytes32"
        },
        {
          "internalType": "address",
          "name": "account",
          "type": "address"
        }
      ],
      "name": "hasRole",
      "outputs": [
        {
          "internalType": "bool",
          "name": "",
          "type": "bool"
        }
      ],
      "stateMutability": "view",
      "type": "function"
    },
    {
      "inputs": [
        {
          "internalType": "bytes32",
          "name": "_challenge_id",
          "type": "bytes32"
        }
      ],
      "name": "isDistributed",
      "outputs": [
        {
          "internalType": "bool",
          "name": "",
          "type": "bool"
        }
      ],
      "stateMutability": "view",
      "type": "function"
    },
    {
      "inputs": [
        {
          "internalType": "bytes32",
          "name": "role",
          "type": "bytes32"
        },
        {
          "internalType": "address",
          "name": "callerConfirmation",
          "type": "address"
        }
      ],
      "name": "renounceRole",
      "outputs": [],
      "stateMutability": "nonpayable",
      "type": "function"
    },
    {
      "inputs": [
        {
          "internalType": "address",
          "name": "account",
          "type": "address"
        }
      ],
      "name": "revokeChallengeManagerRole",
      "outputs": [],
      "stateMutability": "nonpayable",
      "type": "function"
    },
    {
      "inputs": [
        {
          "internalType": "bytes32",
          "name": "role",
          "type": "bytes32"
        },
        {
          "internalType": "address",
          "name": "account",
          "type": "address"
        }
      ],
      "name": "revokeRole",
      "outputs": [],
      "stateMutability": "nonpayable",
      "type": "function"
    },
    {
      "inputs": [
        {
          "internalType": "address",
          "name": "_address",
          "type": "address"
        }
      ],
      "name": "setChallengeManagerAddress",
      "outputs": [],
      "stateMutability": "nonpayable",
      "type": "function"
    },
    {
      "inputs": [
        {
          "internalType": "address",
          "name": "_address",
          "type": "address"
        }
      ],
      "name": "setReputationManagerAddress",
      "outputs": [],
      "stateMutability": "nonpayable",
      "type": "function"
    },
    {
      "inputs": [
        {
          "internalType": "bytes4",
          "name": "interfaceId",
          "type": "bytes4"
        }
      ],
      "name": "supportsInterface",
      "outputs": [
        {
          "internalType": "bool",
          "name": "",
          "type": "bool"
        }
      ],
      "stateMutability": "view",
      "type": "function"
    },
    {
      "inputs": [
        {
          "internalType": "bytes32",
          "name": "_challenge_id",
          "type": "bytes32"
        }
      ],
      "name": "syncModeratorsFromReviewPool",
      "outputs": [],
      "stateMutability": "nonpayable",
      "type": "function"
    }
  ],
  "bytecode": "0x608060405234601f57600f336024565b506040516114a890816100b28239f35b600080fd5b6001600160a01b038116600090815260008051602061155a833981519152602052604090205460ff1660ab576001600160a01b0316600081815260008051602061155a83398151915260205260408120805460ff191660011790553391907f2f8788117e7eff1d82e926ec794901d17c78024a50270940304540a733656f0d8180a4600190565b5060009056fe608080604052600436101561001357600080fd5b60003560e01c90816301ffc9a714610f40575080630d00472e14610f0c5780632417395c14610ee0578063248a9ca314610eab5780632dd4183e14610e825780632f2ff15d14610e4257806336568abe14610dfc5780633c3ba4701461078b5780633da8a0311461075c578063461bcb821461072d578063780c45ed146106e257806391d14854146106955780639ce0c1081461066c578063a217fddf14610650578063adfbddc414610621578063c1c8a772146105e2578063c361e8cf14610541578063d547741f146104fc578063e1176203146104d1578063e6b497e8146102c1578063ee01d8e6146102205763f8fb6abb1461011157600080fd5b604036600319011261021b57600435610128610f93565b610130611092565b34156101ea57816000526001602052604060002080546101a5577f3419d66719ccb5dd772a581bc665799f7a00a4fea024de62c6a11ce3f0c5a349916001604092348155346002820155019060018060a01b031690816001600160601b0360a01b8254161790558151908152346020820152a2005b60405162461bcd60e51b815260206004820152601860248201527f436f6e7472696275746f72416c726561647946756e64656400000000000000006044820152606490fd5b60405162461bcd60e51b81526020600482015260096024820152685a65726f56616c756560b81b6044820152606490fd5b600080fd5b3461021b57602036600319011261021b57610239610fa9565b6102416110e0565b6001600160a01b0316801561027c57806001600160601b0360a01b60035416176003556001600160601b0360a01b6002541617600255600080f35b60405162461bcd60e51b815260206004820152601e60248201527f496e76616c69644368616c6c656e67654d616e616765724164647265737300006044820152606490fd5b3461021b57602036600319011261021b576004356102dd611092565b6003546001600160a01b031615610493578060005260016020526040600020600060018060a01b03600254169260246040518095819363343ad3bf60e11b835260048301525afa918215610487576000926103d8575b506005019080519067ffffffffffffffff82116103c257600160401b82116103c2578254828455808310610399575b506020019160005260206000209160005b82811061037c57005b81516001600160a01b031681850155602090910190600101610373565b8360005282602060002091820191015b8181106103b65750610362565b600081556001016103a9565b634e487b7160e01b600052604160045260246000fd5b90913d8082843e6103e98184611002565b8201916020818403126104835780519067ffffffffffffffff821161047f57019180601f84011215610483578251916104218361107a565b9361042f6040519586611002565b83855260208086019460051b82010192831161048357602001925b82841061045f57505050506005909190610333565b83516001600160a01b038116810361047f5781526020938401930161044a565b8280fd5b5080fd5b6040513d6000823e3d90fd5b60405162461bcd60e51b815260206004820152601660248201527510da185b1b195b99d953585b9859d95c939bdd14d95d60521b6044820152606490fd5b3461021b57602036600319011261021b576104fa6104ed610fa9565b6104f56110e0565b61116e565b005b3461021b57604036600319011261021b576104fa60043561051b610f93565b9061053c61053782600052600060205260016040600020015490565b611133565b61132d565b3461021b57602036600319011261021b5761055a610fa9565b6105626110e0565b6001600160a01b0316801561059d57806001600160601b0360a01b60055416176005556001600160601b0360a01b6004541617600455600080f35b60405162461bcd60e51b815260206004820152601f60248201527f496e76616c696452657075746174696f6e4d616e6167657241646472657373006044820152606490fd5b3461021b57602036600319011261021b57600435600052600160205261061d6106116007604060002001611024565b60405191829182610fbf565b0390f35b3461021b57602036600319011261021b5760043560005260016020526020600260406000200154604051908152f35b3461021b57600036600319011261021b57602060405160008152f35b3461021b57602036600319011261021b576104fa610688610fa9565b6106906110e0565b611297565b3461021b57604036600319011261021b576106ae610f93565b600435600052600060205260406000209060018060a01b0316600052602052602060ff604060002054166040519015158152f35b3461021b57604036600319011261021b576106fb610f93565b600435600052600160205260036040600020019060018060a01b03166000526020526020604060002054604051908152f35b3461021b57602036600319011261021b57600435600052600160205261061d6106116005604060002001611024565b3461021b57602036600319011261021b57600435600052600160205261061d6106116006604060002001611024565b3461021b57602036600319011261021b576004356107a7611092565b806000526001602052600160ff60086040600020015416151514610dc2576003546001600160a01b031615610493576000818152600160205260408120600481019260058201925b83548110156108d05761080281856113af565b60018060a01b0391549060031b1c166044602060018060a01b036002541660405192838092637e741b2b60e11b82528860048301528660248301525afa9081156104875760009161089b575b506001600160a01b038216600090815260208890526040902081905560019291906046106108895761088390600686016113dd565b016107ef565b61089690600786016113dd565b610883565b906020823d82116108c8575b816108b460209383611002565b810103126108c5575051604661084e565b80fd5b3d91506108a7565b5060008181526001602052604090206005546001600160a01b0316158015610daf575b610d6a576006810180548015610d2d578061090f60249261107a565b9361091d6040519586611002565b818552601f1961092c8361107a565b01366020870137600254604051632e34e4df60e01b8152600481018890529360009291602091869182906001600160a01b03165afa938415610d22578294610ce5575b508194929473__$1eb2b8967d584e5ea7e64aefcb3a5905f8$__9460048301905b878310610b7d575050506000926003600283019201935b868110610ac8578880600052600160205260406000209060088201600160ff19825416179055600090600683019060038401925b8254811015610a965760008080806109f385886113af565b905460039190911b1c6001600160a01b031680825260208990526040822054905af13d15610a91573d67ffffffffffffffff81116103c25760405190610a43601f8201601f191660200183611002565b8152600060203d92013e5b15610a5b576001016109db565b60405162461bcd60e51b815260206004820152600e60248201526d151c985b9cd9995c91985a5b195960921b6044820152606490fd5b610a4e565b507f603c893fe5a7abb065fd37be5d74b7570a708f31c5b02b409779f57f8ab5978860206002860154604051908152a2005b610ad281836113af565b905460039190911b1c6001600160a01b0316610aee828a61141e565b519084546040519263a8e62b9760e01b8452600484015286602484015260448301526020826064818b5af491821561048757600092610b49575b506001600160a01b03166000908152602087905260409020556001016109a7565b90916020823d8211610b75575b81610b6360209383611002565b810103126108c5575051906040610b28565b3d9150610b56565b909193610b8c858799976113af565b90546001600160a01b0360039290921b1c81166000818152602086905260409081902054600480549251630cf571c160e11b8152908101939093529216600e851015610ccf57816044816020938860248301525afa90811561048757600091610c9e575b506000811215610c99575060005b604051916304cf39e760e31b8352600483015260248201526020816044818b5af490811561048757600091610c68575b5080610c3a878c61141e565b528101809111610c5257949694936001019190610990565b634e487b7160e01b600052601160045260246000fd5b906020823d8211610c91575b81610c8160209383611002565b810103126108c55750518b610c2e565b3d9150610c74565b610bfe565b906020823d8211610cc7575b81610cb760209383611002565b810103126108c55750518c610bf0565b3d9150610caa565b634e487b7160e01b600052602160045260246000fd5b9093506020813d602011610d1a575b81610d0160209383611002565b810103126104835751600e81101561048357928761096f565b3d9150610cf4565b6040513d84823e3d90fd5b60405162461bcd60e51b81526020600482015260156024820152744e6f7420456e6f756768204d6f64657261746f727360581b6044820152606490fd5b60405162461bcd60e51b815260206004820152601a60248201527f52657075746174696f6e204d616e61676572204e6f74205365740000000000006044820152606490fd5b506003546001600160a01b0316156108f3565b60405162461bcd60e51b8152602060048201526012602482015271105b1c9958591e511a5cdd1c9a589d5d195960721b6044820152606490fd5b3461021b57604036600319011261021b57610e15610f93565b336001600160a01b03821603610e31576104fa9060043561132d565b63334bd91960e11b60005260046000fd5b3461021b57604036600319011261021b576104fa600435610e61610f93565b90610e7d61053782600052600060205260016040600020015490565b61120c565b3461021b57600036600319011261021b5760206040516000805160206114338339815191528152f35b3461021b57602036600319011261021b576020610ed8600435600052600060205260016040600020015490565b604051908152f35b3461021b57602036600319011261021b5760043560005260016020526020604060002054604051908152f35b3461021b57602036600319011261021b576004356000526001602052602060ff600860406000200154166040519015158152f35b3461021b57602036600319011261021b576004359063ffffffff60e01b821680920361021b57602091637965db0b60e01b8114908115610f82575b5015158152f35b6301ffc9a760e01b14905083610f7b565b602435906001600160a01b038216820361021b57565b600435906001600160a01b038216820361021b57565b602060408183019282815284518094520192019060005b818110610fe35750505090565b82516001600160a01b0316845260209384019390920191600101610fd6565b90601f8019910116810190811067ffffffffffffffff8211176103c257604052565b906040519182815491828252602082019060005260206000209260005b81811061105857505061105692500383611002565b565b84546001600160a01b0316835260019485019487945060209093019201611041565b67ffffffffffffffff81116103c25760051b60200190565b336000908152600080516020611453833981519152602052604090205460ff16156110b957565b63e2517d3f60e01b6000523360045260008051602061143383398151915260245260446000fd5b3360009081527fad3228b676f7d3cd4284a5443f17f1962b36e491b30a40b2405849e597ba5fb5602052604090205460ff161561111957565b63e2517d3f60e01b60005233600452600060245260446000fd5b60008181526020818152604080832033845290915290205460ff16156111565750565b63e2517d3f60e01b6000523360045260245260446000fd5b6001600160a01b0381166000908152600080516020611453833981519152602052604090205460ff16611206576001600160a01b0316600081815260008051602061145383398151915260205260408120805460ff19166001179055339190600080516020611433833981519152907f2f8788117e7eff1d82e926ec794901d17c78024a50270940304540a733656f0d9080a4600190565b50600090565b6000818152602081815260408083206001600160a01b038616845290915290205460ff16611290576000818152602081815260408083206001600160a01b0395909516808452949091528120805460ff19166001179055339291907f2f8788117e7eff1d82e926ec794901d17c78024a50270940304540a733656f0d9080a4600190565b5050600090565b6001600160a01b0381166000908152600080516020611453833981519152602052604090205460ff1615611206576001600160a01b0316600081815260008051602061145383398151915260205260408120805460ff19169055339190600080516020611433833981519152907ff6391f5c32d9c69d2a47ea670b442974b53935d1edc7fd64eb21e047a839171b9080a4600190565b6000818152602081815260408083206001600160a01b038616845290915290205460ff1615611290576000818152602081815260408083206001600160a01b0395909516808452949091528120805460ff19169055339291907ff6391f5c32d9c69d2a47ea670b442974b53935d1edc7fd64eb21e047a839171b9080a4600190565b80548210156113c75760005260206000200190600090565b634e487b7160e01b600052603260045260246000fd5b8054600160401b8110156103c2576113fa916001820181556113af565b81546001600160a01b0393841660039290921b91821b9390911b1916919091179055565b80518210156113c75760209160051b01019056fedf00d3af90ab30df537a66d1500cb39094b378b2e2f0cb96f486cb799624db519b171f6d2bd3797f3e503ef7470f8c0decd863054fdfa00c8bd800c00d3c325da26469706673582212205315795f36e0b0efe19eaab27d7923354f0706de640512963d59823280a192ca64736f6c634300081a0033ad3228b676f7d3cd4284a5443f17f1962b36e491b30a40b2405849e597ba5fb5",
  "linkReferences": {
    "contracts/Formulas.sol": {
      "RewardTokenFormulas": [
        {
          "length": 20,
          "start": 2600
        }
      ]
    }
  },
  "deployedLinkReferences": {
    "contracts/Formulas.sol": {
      "RewardTokenFormulas": [
        {
          "length": 20,
          "start": 2422
        }
      ]
    }
  }
}