{
  "_format": "hh-sol-artifact-1",
  "contractName": "RecruiterSubscription",
  "sourceName": "contracts/RecruiterSubscription.sol",
  "abi": [
    {
      "inputs": [],
      "stateMutability": "nonpayable",
      "type": "constructor"
    },
    {
      "inputs": [],
      "name": "AccessControlBadConfirmation",
      "type": "error"
    },
    {
      "inputs": [
        {
          "internalType": "address",
          "name": "account",
          "type": "address"
        },
        {
          "internalType": "bytes32",
          "name": "neededRole",
          "type": "bytes32"
        }
      ],
      "name": "AccessControlUnauthorizedAccount",
      "type": "error"
    },
    {
      "anonymous": false,
      "inputs": [
        {
          "indexed": true,
          "internalType": "bytes32",
          "name": "recordId",
          "type": "bytes32"
        },
        {
          "indexed": true,
          "internalType": "address",
          "name": "recruiter",
          "type": "address"
        },
        {
          "indexed": true,
          "internalType": "address",
          "name": "applicant",
          "type": "address"
        },
        {
          "indexed": false,
          "internalType": "uint256",
          "name": "amount",
          "type": "uint256"
        },
        {
          "indexed": false,
          "internalType": "uint256",
          "name": "timestamp",
          "type": "uint256"
        }
      ],
      "name": "PaymentMade",
      "type": "event"
    },
    {
      "anonymous": false,
      "inputs": [
        {
          "indexed": true,
          "internalType": "bytes32",
          "name": "role",
          "type": "bytes32"
        },
        {
          "indexed": true,
          "internalType": "bytes32",
          "name": "previousAdminRole",
          "type": "bytes32"
        },
        {
          "indexed": true,
          "internalType": "bytes32",
          "name": "newAdminRole",
          "type": "bytes32"
        }
      ],
      "name": "RoleAdminChanged",
      "type": "event"
    },
    {
      "anonymous": false,
      "inputs": [
        {
          "indexed": true,
          "internalType": "bytes32",
          "name": "role",
          "type": "bytes32"
        },
        {
          "indexed": true,
          "internalType": "address",
          "name": "account",
          "type": "address"
        },
        {
          "indexed": true,
          "internalType": "address",
          "name": "sender",
          "type": "address"
        }
      ],
      "name": "RoleGranted",
      "type": "event"
    },
    {
      "anonymous": false,
      "inputs": [
        {
          "indexed": true,
          "internalType": "bytes32",
          "name": "role",
          "type": "bytes32"
        },
        {
          "indexed": true,
          "internalType": "address",
          "name": "account",
          "type": "address"
        },
        {
          "indexed": true,
          "internalType": "address",
          "name": "sender",
          "type": "address"
        }
      ],
      "name": "RoleRevoked",
      "type": "event"
    },
    {
      "inputs": [],
      "name": "DEFAULT_ADMIN_ROLE",
      "outputs": [
        {
          "internalType": "bytes32",
          "name": "",
          "type": "bytes32"
        }
      ],
      "stateMutability": "view",
      "type": "function"
    },
    {
      "inputs": [],
      "name": "JOB_APPLICATION_MANAGER_ROLE",
      "outputs": [
        {
          "internalType": "bytes32",
          "name": "",
          "type": "bytes32"
        }
      ],
      "stateMutability": "view",
      "type": "function"
    },
    {
      "inputs": [],
      "name": "RECRUITER_ROLE",
      "outputs": [
        {
          "internalType": "bytes32",
          "name": "",
          "type": "bytes32"
        }
      ],
      "stateMutability": "view",
      "type": "function"
    },
    {
      "inputs": [],
      "name": "adminWallet",
      "outputs": [
        {
          "internalType": "address payable",
          "name": "",
          "type": "address"
        }
      ],
      "stateMutability": "view",
      "type": "function"
    },
    {
      "inputs": [],
      "name": "deposit",
      "outputs": [],
      "stateMutability": "payable",
      "type": "function"
    },
    {
      "inputs": [
        {
          "internalType": "address",
          "name": "recruiter",
          "type": "address"
        }
      ],
      "name": "getBudget",
      "outputs": [
        {
          "internalType": "uint256",
          "name": "",
          "type": "uint256"
        }
      ],
      "stateMutability": "view",
      "type": "function"
    },
    {
      "inputs": [],
      "name": "getMinimumBudget",
      "outputs": [
        {
          "internalType": "uint256",
          "name": "",
          "type": "uint256"
        }
      ],
      "stateMutability": "pure",
      "type": "function"
    },
    {
      "inputs": [
        {
          "internalType": "address",
          "name": "recruiter",
          "type": "address"
        }
      ],
      "name": "getPaymentCount",
      "outputs": [
        {
          "internalType": "uint256",
          "name": "",
          "type": "uint256"
        }
      ],
      "stateMutability": "view",
      "type": "function"
    },
    {
      "inputs": [
        {
          "internalType": "address",
          "name": "recruiter",
          "type": "address"
        }
      ],
      "name": "getPaymentHistory",
      "outputs": [
        {
          "components": [
            {
              "internalType": "uint256",
              "name": "timestamp",
              "type": "uint256"
            },
            {
              "internalType": "address",
              "name": "recruiter",
              "type": "address"
            },
            {
              "internalType": "address",
              "name": "applicant",
              "type": "address"
            },
            {
              "internalType": "uint256",
              "name": "amount",
              "type": "uint256"
            },
            {
              "internalType": "bytes32",
              "name": "recordId",
              "type": "bytes32"
            }
          ],
          "internalType": "struct IRecruiterSubscription.PaymentRecord[]",
          "name": "",
          "type": "tuple[]"
        }
      ],
      "stateMutability": "view",
      "type": "function"
    },
    {
      "inputs": [
        {
          "internalType": "bytes32",
          "name": "recordId",
          "type": "bytes32"
        }
      ],
      "name": "getPaymentRecord",
      "outputs": [
        {
          "components": [
            {
              "internalType": "uint256",
              "name": "timestamp",
              "type": "uint256"
            },
            {
              "internalType": "address",
              "name": "recruiter",
              "type": "address"
            },
            {
              "internalType": "address",
              "name": "applicant",
              "type": "address"
            },
            {
              "internalType": "uint256",
              "name": "amount",
              "type": "uint256"
            },
            {
              "internalType": "bytes32",
              "name": "recordId",
              "type": "bytes32"
            }
          ],
          "internalType": "struct IRecruiterSubscription.PaymentRecord",
          "name": "",
          "type": "tuple"
        }
      ],
      "stateMutability": "view",
      "type": "function"
    },
    {
      "inputs": [
        {
          "internalType": "bytes32",
          "name": "role",
          "type": "bytes32"
        }
      ],
      "name": "getRoleAdmin",
      "outputs": [
        {
          "internalType": "bytes32",
          "name": "",
          "type": "bytes32"
        }
      ],
      "stateMutability": "view",
      "type": "function"
    },
    {
      "inputs": [
        {
          "internalType": "address",
          "name": "recruiter",
          "type": "address"
        }
      ],
      "name": "getTotalPaymentsByRecruiter",
      "outputs": [
        {
          "internalType": "uint256",
          "name": "",
          "type": "uint256"
        }
      ],
      "stateMutability": "view",
      "type": "function"
    },
    {
      "inputs": [
        {
          "internalType": "address",
          "name": "account",
          "type": "address"
        }
      ],
      "name": "grantJobApplicationManagerRole",
      "outputs": [],
      "stateMutability": "nonpayable",
      "type": "function"
    },
    {
      "inputs": [
        {
          "internalType": "bytes32",
          "name": "role",
          "type": "bytes32"
        },
        {
          "internalType": "address",
          "name": "account",
          "type": "address"
        }
      ],
      "name": "grantRole",
      "outputs": [],
      "stateMutability": "nonpayable",
      "type": "function"
    },
    {
      "inputs": [
        {
          "internalType": "bytes32",
          "name": "role",
          "type": "bytes32"
        },
        {
          "internalType": "address",
          "name": "account",
          "type": "address"
        }
      ],
      "name": "hasRole",
      "outputs": [
        {
          "internalType": "bool",
          "name": "",
          "type": "bool"
        }
      ],
      "stateMutability": "view",
      "type": "function"
    },
    {
      "inputs": [
        {
          "internalType": "address",
          "name": "account",
          "type": "address"
        }
      ],
      "name": "isRecruiter",
      "outputs": [
        {
          "internalType": "bool",
          "name": "",
          "type": "bool"
        }
      ],
      "stateMutability": "view",
      "type": "function"
    },
    {
      "inputs": [
        {
          "internalType": "address",
          "name": "recruiter",
          "type": "address"
        },
        {
          "internalType": "address",
          "name": "applicant",
          "type": "address"
        }
      ],
      "name": "payHiringFee",
      "outputs": [
        {
          "internalType": "uint256",
          "name": "fee",
          "type": "uint256"
        }
      ],
      "stateMutability": "nonpayable",
      "type": "function"
    },
    {
      "inputs": [
        {
          "internalType": "bytes32",
          "name": "role",
          "type": "bytes32"
        },
        {
          "internalType": "address",
          "name": "callerConfirmation",
          "type": "address"
        }
      ],
      "name": "renounceRole",
      "outputs": [],
      "stateMutability": "nonpayable",
      "type": "function"
    },
    {
      "inputs": [
        {
          "internalType": "bytes32",
          "name": "role",
          "type": "bytes32"
        },
        {
          "internalType": "address",
          "name": "account",
          "type": "address"
        }
      ],
      "name": "revokeRole",
      "outputs": [],
      "stateMutability": "nonpayable",
      "type": "function"
    },
    {
      "inputs": [
        {
          "internalType": "address",
          "name": "_reputationManager",
          "type": "address"
        }
      ],
      "name": "setReputationManagerAddress",
      "outputs": [],
      "stateMutability": "nonpayable",
      "type": "function"
    },
    {
      "inputs": [
        {
          "internalType": "bytes4",
          "name": "interfaceId",
          "type": "bytes4"
        }
      ],
      "name": "supportsInterface",
      "outputs": [
        {
          "internalType": "bool",
          "name": "",
          "type": "bool"
        }
      ],
      "stateMutability": "view",
      "type": "function"
    }
  ],
  "bytecode": "0x608060405234603157600f336036565b50600280546001600160a01b0319163317905560405161131890816100c48239f35b600080fd5b6001600160a01b03811660009081526000805160206113dc833981519152602052604090205460ff1660bd576001600160a01b031660008181526000805160206113dc83398151915260205260408120805460ff191660011790553391907f2f8788117e7eff1d82e926ec794901d17c78024a50270940304540a733656f0d8180a4600190565b5060009056fe608080604052600436101561001357600080fd5b60003560e01c90816301ffc9a714610d4057508063021e62d914610c8757806319b7d7bd14610c4d578063248a9ca314610c185780632f2ff15d14610bd857806336568abe14610b9257806336b19cd714610b695780634feb20ff14610b2f5780636dd96a0014610b0657806373f8f3cf1461064b5780637da2ba7c14610476578063801e950a1461043b578063873dfb2c146103eb57806391d148541461039e578063a217fddf14610382578063a6e08afc146102c0578063b3f2fd421461029d578063c361e8cf14610205578063d0e30db01461018d578063d547741f146101465763ee071e821461010657600080fd5b346101415760003660031901126101415760206040517f0ef9e72606280366540332ef664deb25abbb54efc0127f4f1af67bdd52f2d8d18152f35b600080fd5b346101415760403660031901126101415761018b600435610165610da9565b9061018661018182600052600060205260016040600020015490565b610eb4565b6111a0565b005b60003660031901126101415734156101c05733600052600160205261018b6101ba34604060002054610e54565b33611222565b60405162461bcd60e51b815260206004820152601e60248201527f4465706f736974206d7573742062652067726561746572207468616e203000006044820152606490fd5b346101415760203660031901126101415761021e610d93565b610226610e61565b6001600160a01b0316801561024d576001600160601b0360a01b6003541617600355600080f35b60405162461bcd60e51b815260206004820152602260248201527f496e76616c69642072657075746174696f6e206d616e61676572206164647265604482015261737360f01b6064820152608490fd5b34610141576000366003190112610141576020604051678ac7230489e800008152f35b34610141576020366003190112610141576001600160a01b036102e1610d93565b16600052600460205260406000206040518082602082945493848152019060005260206000209260005b81811061036957505061032092500382610ddb565b600090815b815183101561035e5761035660019161033e8585610e40565b51600052600560205260036040600020015490610e54565b920191610325565b602090604051908152f35b845483526001948501948694506020909301920161030b565b3461014157600036600319011261014157602060405160008152f35b34610141576040366003190112610141576103b7610da9565b600435600052600060205260406000209060018060a01b0316600052602052602060ff604060002054166040519015158152f35b3461014157602036600319011261014157610404610d93565b6001600160a01b031660009081526000805160206112c3833981519152602090815260409182902054915160ff9092161515825290f35b346101415760003660031901126101415760206040517fb1b16d536f5488d1a045c3ffa7d99d7477ff1355fd7f5bf6d50b8cc4332912aa8152f35b34610141576020366003190112610141576001600160a01b03610497610d93565b16600052600460205260406000206040518082602082945493848152019060005260206000209260005b8181106106325750506104d692500382610ddb565b8051906104e282610e28565b916104f06040519384610ddb565b8083526104ff601f1991610e28565b0160005b81811061061b57505060005b8151811015610592578061052560019284610e40565b516000526005602052604060002060046040519161054283610dbf565b805483528481015460a086901b8690039081166020850152600282015416604084015260038101546060840152015460808201526105808286610e40565b5261058b8185610e40565b500161050f565b8260405180916020820160208352815180915260206040840192019060005b8181106105bf575050500390f35b91935091602060a08261060d6001948851608080918051845260018060a01b03602082015116602085015260018060a01b036040820151166040850152606081015160608501520151910152565b0194019101918493926105b1565b602090610626610dfd565b82828701015201610503565b84548352600194850194869450602090930192016104c1565b3461014157604036600319011261014157610664610d93565b61066c610da9565b3360009081527fb532cb2962e3c56aa9c7b2346a6e366f804f5efc1fcd89d1ed7cfdfd1d114cee602052604090205490919060ff1615610acd576001600160a01b0381168015610a88576001600160a01b038316918215610a43576003546001600160a01b031680156109fe57602060249160405192838092630592073360e51b82528860048301525afa9081156108fd576000916109cc575b5060008112156109c657506000935b604051946346d954dd60e11b8652600486015260208560248173__$b44fca5c85fe2ca738e96c7d4b5127b0ca$__5af49485156108fd5760009561098f575b5082600052600160205284604060002054106109545782600052600160205260406000205485810390811161093e5761078d9083611222565b6040519060208201926001600160601b03199060601b1683526001600160601b03199060601b166034820152846048820152426068820152436088820152608881526107da60a882610ddb565b5190206040516107e981610dbf565b42815260208101838152604082018581526060830187815260808401918583528660005260046020526040600020938454946801000000000000000086101561092857600186018082558610156109125760009081526020808220909601889055878152600586526040908190209651875590516001870180546001600160a01b03199081166001600160a01b0393841617909155925160028801805490941691161790915590516003850155905160049390930192909255815186815242918101919091527f5ab54aff60797840e5915e70e7f000cd3e5ac84a1af35ef9a8cfd4484968be469190a460008080808460018060a01b0360025416828215610909575bf1156108fd57602090604051908152f35b6040513d6000823e3d90fd5b506108fc6108ec565b634e487b7160e01b600052603260045260246000fd5b634e487b7160e01b600052604160045260246000fd5b634e487b7160e01b600052601160045260246000fd5b60405162461bcd60e51b8152602060048201526013602482015272125b9cdd59999a58da595b9d08189d5919d95d606a1b6044820152606490fd5b90946020823d6020116109be575b816109aa60209383610ddb565b810103126109bb5750519385610754565b80fd5b3d915061099d565b93610715565b90506020813d6020116109f6575b816109e760209383610ddb565b81010312610141575185610706565b3d91506109da565b60405162461bcd60e51b815260206004820152601a60248201527f52657075746174696f6e206d616e61676572206e6f74207365740000000000006044820152606490fd5b60405162461bcd60e51b815260206004820152601960248201527f496e76616c6964206170706c6963616e742061646472657373000000000000006044820152606490fd5b60405162461bcd60e51b815260206004820152601960248201527f496e76616c6964207265637275697465722061646472657373000000000000006044820152606490fd5b63e2517d3f60e01b600052336004527f0ef9e72606280366540332ef664deb25abbb54efc0127f4f1af67bdd52f2d8d160245260446000fd5b346101415760203660031901126101415761018b610b22610d93565b610b2a610e61565b610eef565b34610141576020366003190112610141576001600160a01b03610b50610d93565b1660005260046020526020604060002054604051908152f35b34610141576000366003190112610141576002546040516001600160a01b039091168152602090f35b3461014157604036600319011261014157610bab610da9565b336001600160a01b03821603610bc75761018b906004356111a0565b63334bd91960e11b60005260046000fd5b346101415760403660031901126101415761018b600435610bf7610da9565b90610c1361018182600052600060205260016040600020015490565b61106d565b34610141576020366003190112610141576020610c45600435600052600060205260016040600020015490565b604051908152f35b34610141576020366003190112610141576001600160a01b03610c6e610d93565b1660005260016020526020604060002054604051908152f35b3461014157602036600319011261014157610ca0610dfd565b50600435600052600560205260a06040600020600460405191610cc283610dbf565b80548352600180851b036001820154166020840152600180851b0360028201541660408401526003810154606084015201546080820152610d3e6040518092608080918051845260018060a01b03602082015116602085015260018060a01b036040820151166040850152606081015160608501520151910152565bf35b34610141576020366003190112610141576004359063ffffffff60e01b821680920361014157602091637965db0b60e01b8114908115610d82575b5015158152f35b6301ffc9a760e01b14905083610d7b565b600435906001600160a01b038216820361014157565b602435906001600160a01b038216820361014157565b60a0810190811067ffffffffffffffff82111761092857604052565b90601f8019910116810190811067ffffffffffffffff82111761092857604052565b60405190610e0a82610dbf565b60006080838281528260208201528260408201528260608201520152565b67ffffffffffffffff81116109285760051b60200190565b80518210156109125760209160051b010190565b9190820180921161093e57565b3360009081527fad3228b676f7d3cd4284a5443f17f1962b36e491b30a40b2405849e597ba5fb5602052604090205460ff1615610e9a57565b63e2517d3f60e01b60005233600452600060245260446000fd5b60008181526020818152604080832033845290915290205460ff1615610ed75750565b63e2517d3f60e01b6000523360045260245260446000fd5b6001600160a01b03811660009081527fb532cb2962e3c56aa9c7b2346a6e366f804f5efc1fcd89d1ed7cfdfd1d114cee602052604090205460ff16610fbd576001600160a01b031660008181527fb532cb2962e3c56aa9c7b2346a6e366f804f5efc1fcd89d1ed7cfdfd1d114cee60205260408120805460ff191660011790553391907f0ef9e72606280366540332ef664deb25abbb54efc0127f4f1af67bdd52f2d8d1907f2f8788117e7eff1d82e926ec794901d17c78024a50270940304540a733656f0d9080a4600190565b50600090565b6001600160a01b03811660009081526000805160206112c3833981519152602052604090205460ff16610fbd576001600160a01b031660008181526000805160206112c383398151915260205260408120805460ff191660011790553391907fb1b16d536f5488d1a045c3ffa7d99d7477ff1355fd7f5bf6d50b8cc4332912aa907f2f8788117e7eff1d82e926ec794901d17c78024a50270940304540a733656f0d9080a4600190565b6000818152602081815260408083206001600160a01b038616845290915290205460ff166110f1576000818152602081815260408083206001600160a01b0395909516808452949091528120805460ff19166001179055339291907f2f8788117e7eff1d82e926ec794901d17c78024a50270940304540a733656f0d9080a4600190565b5050600090565b6001600160a01b03811660009081526000805160206112c3833981519152602052604090205460ff1615610fbd576001600160a01b031660008181526000805160206112c383398151915260205260408120805460ff191690553391907fb1b16d536f5488d1a045c3ffa7d99d7477ff1355fd7f5bf6d50b8cc4332912aa907ff6391f5c32d9c69d2a47ea670b442974b53935d1edc7fd64eb21e047a839171b9080a4600190565b6000818152602081815260408083206001600160a01b038616845290915290205460ff16156110f1576000818152602081815260408083206001600160a01b0395909516808452949091528120805460ff19169055339291907ff6391f5c32d9c69d2a47ea670b442974b53935d1edc7fd64eb21e047a839171b9080a4600190565b6001600160a01b038116600090815260016020526040902082905590678ac7230489e8000011611289576001600160a01b03811660009081526000805160206112c3833981519152602052604090205460ff161561127d5750565b61128690610fc3565b50565b6001600160a01b03811660009081526000805160206112c3833981519152602052604090205460ff166112b95750565b611286906110f856fe9a6b0598dcd46362005abb1299b5e09c2960675bda598b3c0257eeb6d377e76ea264697066735822122027d12a663b2592611965efa5f341bbdedfb821fadabde6010463e83db6779ae864736f6c634300081c0033ad3228b676f7d3cd4284a5443f17f1962b36e491b30a40b2405849e597ba5fb5",
  "linkReferences": {
    "contracts/Formulas.sol": {
      "RecruitmentFeeFormulas": [
        {
          "length": 20,
          "start": 2036
        }
      ]
    }
  },
  "deployedLinkReferences": {
    "contracts/Formulas.sol": {
      "RecruitmentFeeFormulas": [
        {
          "length": 20,
          "start": 1840
        }
      ]
    }
  }
}