{
  "_format": "hh-sol-artifact-1",
  "contractName": "RecruiterDataManager",
  "sourceName": "contracts/RecruiterDataManager.sol",
  "abi": [
    {
      "inputs": [],
      "stateMutability": "nonpayable",
      "type": "constructor"
    },
    {
      "inputs": [],
      "name": "AccessControlBadConfirmation",
      "type": "error"
    },
    {
      "inputs": [
        {
          "internalType": "address",
          "name": "account",
          "type": "address"
        },
        {
          "internalType": "bytes32",
          "name": "neededRole",
          "type": "bytes32"
        }
      ],
      "name": "AccessControlUnauthorizedAccount",
      "type": "error"
    },
    {
      "anonymous": false,
      "inputs": [
        {
          "indexed": true,
          "internalType": "address",
          "name": "recruiter_address",
          "type": "address"
        },
        {
          "indexed": false,
          "internalType": "string",
          "name": "data_id",
          "type": "string"
        }
      ],
      "name": "RecruiterProfileCreated",
      "type": "event"
    },
    {
      "anonymous": false,
      "inputs": [
        {
          "indexed": true,
          "internalType": "bytes32",
          "name": "role",
          "type": "bytes32"
        },
        {
          "indexed": true,
          "internalType": "bytes32",
          "name": "previousAdminRole",
          "type": "bytes32"
        },
        {
          "indexed": true,
          "internalType": "bytes32",
          "name": "newAdminRole",
          "type": "bytes32"
        }
      ],
      "name": "RoleAdminChanged",
      "type": "event"
    },
    {
      "anonymous": false,
      "inputs": [
        {
          "indexed": true,
          "internalType": "bytes32",
          "name": "role",
          "type": "bytes32"
        },
        {
          "indexed": true,
          "internalType": "address",
          "name": "account",
          "type": "address"
        },
        {
          "indexed": true,
          "internalType": "address",
          "name": "sender",
          "type": "address"
        }
      ],
      "name": "RoleGranted",
      "type": "event"
    },
    {
      "anonymous": false,
      "inputs": [
        {
          "indexed": true,
          "internalType": "bytes32",
          "name": "role",
          "type": "bytes32"
        },
        {
          "indexed": true,
          "internalType": "address",
          "name": "account",
          "type": "address"
        },
        {
          "indexed": true,
          "internalType": "address",
          "name": "sender",
          "type": "address"
        }
      ],
      "name": "RoleRevoked",
      "type": "event"
    },
    {
      "inputs": [],
      "name": "DEFAULT_ADMIN_ROLE",
      "outputs": [
        {
          "internalType": "bytes32",
          "name": "",
          "type": "bytes32"
        }
      ],
      "stateMutability": "view",
      "type": "function"
    },
    {
      "inputs": [
        {
          "internalType": "string",
          "name": "_data_id",
          "type": "string"
        }
      ],
      "name": "createRecruiterProfile",
      "outputs": [],
      "stateMutability": "nonpayable",
      "type": "function"
    },
    {
      "inputs": [
        {
          "internalType": "address",
          "name": "_recruiter_address",
          "type": "address"
        }
      ],
      "name": "getRecruiter",
      "outputs": [
        {
          "components": [
            {
              "internalType": "address",
              "name": "recruiter_address",
              "type": "address"
            },
            {
              "internalType": "string",
              "name": "data_id",
              "type": "string"
            }
          ],
          "internalType": "struct RecruiterDataManager.RecruiterProfile",
          "name": "",
          "type": "tuple"
        }
      ],
      "stateMutability": "view",
      "type": "function"
    },
    {
      "inputs": [
        {
          "internalType": "address",
          "name": "_recruiter_address",
          "type": "address"
        }
      ],
      "name": "getRecruiterDataId",
      "outputs": [
        {
          "internalType": "string",
          "name": "",
          "type": "string"
        }
      ],
      "stateMutability": "view",
      "type": "function"
    },
    {
      "inputs": [
        {
          "internalType": "bytes32",
          "name": "role",
          "type": "bytes32"
        }
      ],
      "name": "getRoleAdmin",
      "outputs": [
        {
          "internalType": "bytes32",
          "name": "",
          "type": "bytes32"
        }
      ],
      "stateMutability": "view",
      "type": "function"
    },
    {
      "inputs": [
        {
          "internalType": "bytes32",
          "name": "role",
          "type": "bytes32"
        },
        {
          "internalType": "address",
          "name": "account",
          "type": "address"
        }
      ],
      "name": "grantRole",
      "outputs": [],
      "stateMutability": "nonpayable",
      "type": "function"
    },
    {
      "inputs": [
        {
          "internalType": "address",
          "name": "_recruiter_address",
          "type": "address"
        }
      ],
      "name": "hasRecruiterProfile",
      "outputs": [
        {
          "internalType": "bool",
          "name": "",
          "type": "bool"
        }
      ],
      "stateMutability": "view",
      "type": "function"
    },
    {
      "inputs": [
        {
          "internalType": "bytes32",
          "name": "role",
          "type": "bytes32"
        },
        {
          "internalType": "address",
          "name": "account",
          "type": "address"
        }
      ],
      "name": "hasRole",
      "outputs": [
        {
          "internalType": "bool",
          "name": "",
          "type": "bool"
        }
      ],
      "stateMutability": "view",
      "type": "function"
    },
    {
      "inputs": [
        {
          "internalType": "bytes32",
          "name": "role",
          "type": "bytes32"
        },
        {
          "internalType": "address",
          "name": "callerConfirmation",
          "type": "address"
        }
      ],
      "name": "renounceRole",
      "outputs": [],
      "stateMutability": "nonpayable",
      "type": "function"
    },
    {
      "inputs": [
        {
          "internalType": "bytes32",
          "name": "role",
          "type": "bytes32"
        },
        {
          "internalType": "address",
          "name": "account",
          "type": "address"
        }
      ],
      "name": "revokeRole",
      "outputs": [],
      "stateMutability": "nonpayable",
      "type": "function"
    },
    {
      "inputs": [
        {
          "internalType": "address",
          "name": "addr",
          "type": "address"
        }
      ],
      "name": "setRecruiterSubscriptionAddress",
      "outputs": [],
      "stateMutability": "nonpayable",
      "type": "function"
    },
    {
      "inputs": [
        {
          "internalType": "bytes4",
          "name": "interfaceId",
          "type": "bytes4"
        }
      ],
      "name": "supportsInterface",
      "outputs": [
        {
          "internalType": "bool",
          "name": "",
          "type": "bool"
        }
      ],
      "stateMutability": "view",
      "type": "function"
    }
  ],
  "bytecode": "0x608060405234601f57600f336024565b50604051610b9e90816100b28239f35b600080fd5b6001600160a01b0381166000908152600080516020610c50833981519152602052604090205460ff1660ab576001600160a01b03166000818152600080516020610c5083398151915260205260408120805460ff191660011790553391907f2f8788117e7eff1d82e926ec794901d17c78024a50270940304540a733656f0d8180a4600190565b5060009056fe608080604052600436101561001357600080fd5b60003560e01c90816301ffc9a71461082e575080630fb14f27146107dd5780631627d2461461079e578063248a9ca3146107695780632f2ff15d1461072957806336568abe146106e35780636502d4881461061657806391d14854146105c9578063a217fddf146105ad578063a84d97761461050d578063d547741f146104c65763fc0c0d98146100a357600080fd5b346104c15760203660031901126104c15760043567ffffffffffffffff81116104c157366023820112156104c157806004013567ffffffffffffffff81116104c157602482019160248236920101116104c1576003546001600160a01b0316801515908161043c575b50156103ed5733600052600260205260ff6040600020541661039e5780156103595760405161013a81610928565b338152600092601f19601f8401169260016040519361015c602087018661095a565b82855282846020870137866020848701015260208101948552338752816020526040872090828060a01b039051166bffffffffffffffffffffffff60a01b82541617815501925180519067ffffffffffffffff821161034557908692916101c386546108ee565b601f81116102f3575b50602090601f83116001146102655791807f31b93b5acaa3532d0ae25f666b73112329929a90492a877b44b52376273ee7da979260409594879261025a575b50508160011b916000199060031b1c19161790555b3383526002602052818320600160ff198254161790558082519460208652816020870152838601378301015260408133948101030190a280f35b01519050388061020b565b8685528185209196929190601f198316865b8181106102d85750917f31b93b5acaa3532d0ae25f666b73112329929a90492a877b44b52376273ee7da9884926040979695600195106102bf575b505050811b019055610220565b015160001960f88460031b161c191690553880806102b2565b828a015184556020998a01998c985060019094019301610277565b9091929386905260208820601f840160051c8101916020851061033b575b90601f8a96959493920160051c01905b81811061032e57506101cc565b9485558894600101610321565b9091508190610311565b634e487b7160e01b87526041600452602487fd5b60405162461bcd60e51b815260206004820152601760248201527f446174612049442063616e6e6f7420626520656d7074790000000000000000006044820152606490fd5b60405162461bcd60e51b815260206004820152602160248201527f5265637275697465722070726f66696c6520616c7265616479206372656174656044820152601960fa1b6064820152608490fd5b60405162461bcd60e51b815260206004820152602160248201527f5265637275697465722068617320696e73756666696369656e742062756467656044820152601d60fa1b6064820152608490fd5b6040516321cf7ecb60e21b81523360048201529150602090829060249082905afa9081156104b557600091610473575b503861010c565b6020813d6020116104ad575b8161048c6020938361095a565b810103126104a957519081151582036104a657503861046c565b80fd5b5080fd5b3d915061047f565b6040513d6000823e3d90fd5b600080fd5b346104c15760403660031901126104c15761050b6004356104e5610897565b9061050661050182600052600060205260016040600020015490565b610a20565b610ae6565b005b346104c15760203660031901126104c157610526610881565b6060602060405161053681610928565b60008152015260018060a01b03166000526001602052604060002061057460016040519261056384610928565b818060a01b0381541684520161097c565b90602081019182526105a96040519283926020845260018060a01b0390511660208401525160408084015260608301906108ad565b0390f35b346104c15760003660031901126104c157602060405160008152f35b346104c15760403660031901126104c1576105e2610897565b600435600052600060205260406000209060018060a01b0316600052602052602060ff604060002054166040519015158152f35b346104c15760203660031901126104c15761062f610881565b3360009081527fad3228b676f7d3cd4284a5443f17f1962b36e491b30a40b2405849e597ba5fb5602052604090205460ff16156106c9576001600160a01b03168015610692576bffffffffffffffffffffffff60a01b6003541617600355600080f35b60405162461bcd60e51b815260206004820152600f60248201526e496e76616c6964206164647265737360881b6044820152606490fd5b63e2517d3f60e01b60005233600452600060245260446000fd5b346104c15760403660031901126104c1576106fc610897565b336001600160a01b038216036107185761050b90600435610ae6565b63334bd91960e11b60005260046000fd5b346104c15760403660031901126104c15761050b600435610748610897565b9061076461050182600052600060205260016040600020015490565b610a5b565b346104c15760203660031901126104c1576020610796600435600052600060205260016040600020015490565b604051908152f35b346104c15760203660031901126104c1576001600160a01b036107bf610881565b166000526002602052602060ff604060002054166040519015158152f35b346104c15760203660031901126104c1576001600160a01b036107fe610881565b1660005260016020526105a961081a600160406000200161097c565b6040519182916020835260208301906108ad565b346104c15760203660031901126104c1576004359063ffffffff60e01b82168092036104c157602091637965db0b60e01b8114908115610870575b5015158152f35b6301ffc9a760e01b14905083610869565b600435906001600160a01b03821682036104c157565b602435906001600160a01b03821682036104c157565b919082519283825260005b8481106108d9575050826000602080949584010152601f8019910116010190565b806020809284010151828286010152016108b8565b90600182811c9216801561091e575b602083101461090857565b634e487b7160e01b600052602260045260246000fd5b91607f16916108fd565b6040810190811067ffffffffffffffff82111761094457604052565b634e487b7160e01b600052604160045260246000fd5b90601f8019910116810190811067ffffffffffffffff82111761094457604052565b9060405191826000825492610990846108ee565b80845293600181169081156109fe57506001146109b7575b506109b59250038361095a565b565b90506000929192526020600020906000915b8183106109e25750509060206109b592820101386109a8565b60209193508060019154838589010152019101909184926109c9565b9050602092506109b594915060ff191682840152151560051b820101386109a8565b60008181526020818152604080832033845290915290205460ff1615610a435750565b63e2517d3f60e01b6000523360045260245260446000fd5b6000818152602081815260408083206001600160a01b038616845290915290205460ff16610adf576000818152602081815260408083206001600160a01b0395909516808452949091528120805460ff19166001179055339291907f2f8788117e7eff1d82e926ec794901d17c78024a50270940304540a733656f0d9080a4600190565b5050600090565b6000818152602081815260408083206001600160a01b038616845290915290205460ff1615610adf576000818152602081815260408083206001600160a01b0395909516808452949091528120805460ff19169055339291907ff6391f5c32d9c69d2a47ea670b442974b53935d1edc7fd64eb21e047a839171b9080a460019056fea2646970667358221220e77d78ede7f9ab9b73a6866df157e8900872f7336d99b03616a7a42c7a502fa164736f6c634300081a0033ad3228b676f7d3cd4284a5443f17f1962b36e491b30a40b2405849e597ba5fb5",
  "linkReferences": {},
  "deployedLinkReferences": {}
}