{
  "_format": "hh-sol-artifact-1",
  "contractName": "ReputationManager",
  "sourceName": "contracts/ReputationManager.sol",
  "abi": [
    {
      "anonymous": false,
      "inputs": [
        {
          "indexed": false,
          "internalType": "string",
          "name": "_module_type",
          "type": "string"
        },
        {
          "indexed": false,
          "internalType": "address",
          "name": "_module_address",
          "type": "address"
        }
      ],
      "name": "ModuleUpdated",
      "type": "event"
    },
    {
      "anonymous": false,
      "inputs": [
        {
          "indexed": true,
          "internalType": "address",
          "name": "_user",
          "type": "address"
        },
        {
          "indexed": true,
          "internalType": "enum SystemEnums.Domain",
          "name": "_domain",
          "type": "uint8"
        },
        {
          "indexed": false,
          "internalType": "int256",
          "name": "_delta",
          "type": "int256"
        },
        {
          "indexed": false,
          "internalType": "int256",
          "name": "_new_domain_score",
          "type": "int256"
        },
        {
          "indexed": false,
          "internalType": "int256",
          "name": "_new_global_score",
          "type": "int256"
        }
      ],
      "name": "ReputationChanged",
      "type": "event"
    },
    {
      "inputs": [],
      "name": "N_DOMAIN",
      "outputs": [
        {
          "internalType": "uint256",
          "name": "",
          "type": "uint256"
        }
      ],
      "stateMutability": "view",
      "type": "function"
    },
    {
      "inputs": [
        {
          "internalType": "address",
          "name": "",
          "type": "address"
        },
        {
          "internalType": "enum SystemEnums.Domain",
          "name": "",
          "type": "uint8"
        }
      ],
      "name": "domain_reputation",
      "outputs": [
        {
          "internalType": "int256",
          "name": "",
          "type": "int256"
        }
      ],
      "stateMutability": "view",
      "type": "function"
    },
    {
      "inputs": [
        {
          "internalType": "address",
          "name": "_user",
          "type": "address"
        }
      ],
      "name": "getAllDomainReputation",
      "outputs": [
        {
          "internalType": "int256[14]",
          "name": "",
          "type": "int256[14]"
        }
      ],
      "stateMutability": "view",
      "type": "function"
    },
    {
      "inputs": [
        {
          "internalType": "address",
          "name": "_user",
          "type": "address"
        },
        {
          "internalType": "enum SystemEnums.Domain",
          "name": "_domain",
          "type": "uint8"
        }
      ],
      "name": "getDomainReputation",
      "outputs": [
        {
          "internalType": "int256",
          "name": "",
          "type": "int256"
        }
      ],
      "stateMutability": "view",
      "type": "function"
    },
    {
      "inputs": [
        {
          "internalType": "address",
          "name": "_user",
          "type": "address"
        }
      ],
      "name": "getGlobalReputation",
      "outputs": [
        {
          "internalType": "int256",
          "name": "",
          "type": "int256"
        }
      ],
      "stateMutability": "view",
      "type": "function"
    },
    {
      "inputs": [
        {
          "internalType": "address",
          "name": "",
          "type": "address"
        }
      ],
      "name": "global_reputation",
      "outputs": [
        {
          "internalType": "int256",
          "name": "",
          "type": "int256"
        }
      ],
      "stateMutability": "view",
      "type": "function"
    },
    {
      "inputs": [
        {
          "internalType": "address",
          "name": "_contributor",
          "type": "address"
        },
        {
          "internalType": "enum SystemEnums.Domain",
          "name": "_domain",
          "type": "uint8"
        },
        {
          "internalType": "uint256",
          "name": "_quality_score",
          "type": "uint256"
        },
        {
          "internalType": "uint256",
          "name": "_threshold",
          "type": "uint256"
        },
        {
          "internalType": "uint256",
          "name": "_scaling_constant",
          "type": "uint256"
        },
        {
          "internalType": "enum SystemEnums.DifficultyLevel",
          "name": "_difficulty",
          "type": "uint8"
        }
      ],
      "name": "updateContributionReputation",
      "outputs": [],
      "stateMutability": "nonpayable",
      "type": "function"
    },
    {
      "inputs": [
        {
          "internalType": "address",
          "name": "_reviewer",
          "type": "address"
        },
        {
          "internalType": "enum SystemEnums.Domain",
          "name": "_domain",
          "type": "uint8"
        },
        {
          "internalType": "uint256",
          "name": "_final_score",
          "type": "uint256"
        },
        {
          "internalType": "uint256",
          "name": "_evaluate_score",
          "type": "uint256"
        },
        {
          "internalType": "uint256",
          "name": "_threshold",
          "type": "uint256"
        },
        {
          "internalType": "uint256",
          "name": "_scaling_constant",
          "type": "uint256"
        }
      ],
      "name": "updateEvaluateSolutionReputation",
      "outputs": [],
      "stateMutability": "nonpayable",
      "type": "function"
    },
    {
      "inputs": [
        {
          "internalType": "address",
          "name": "_moderator",
          "type": "address"
        },
        {
          "internalType": "enum SystemEnums.Domain",
          "name": "_domain",
          "type": "uint8"
        },
        {
          "internalType": "uint256",
          "name": "_quality_score",
          "type": "uint256"
        },
        {
          "internalType": "uint256",
          "name": "_review_score",
          "type": "uint256"
        },
        {
          "internalType": "uint256",
          "name": "_threshold",
          "type": "uint256"
        },
        {
          "internalType": "uint256",
          "name": "_scaling_constant",
          "type": "uint256"
        }
      ],
      "name": "updateModerationReputation",
      "outputs": [],
      "stateMutability": "nonpayable",
      "type": "function"
    },
    {
      "inputs": [
        {
          "internalType": "address",
          "name": "_user",
          "type": "address"
        },
        {
          "internalType": "enum SystemEnums.Domain",
          "name": "_domain",
          "type": "uint8"
        },
        {
          "internalType": "uint256",
          "name": "_final_score",
          "type": "uint256"
        },
        {
          "internalType": "uint256",
          "name": "_threshold",
          "type": "uint256"
        },
        {
          "internalType": "uint256",
          "name": "_scaling_constant",
          "type": "uint256"
        },
        {
          "internalType": "enum SystemEnums.DifficultyLevel",
          "name": "_difficulty",
          "type": "uint8"
        }
      ],
      "name": "updateSolvingProblemReputation",
      "outputs": [],
      "stateMutability": "nonpayable",
      "type": "function"
    }
  ],
  "bytecode": "0x60808060405234601557610a8b908161001b8239f35b600080fdfe6080604052600436101561001257600080fd5b60003560e01c8063164ac6501461020857806319eae382146100c95780633d8665d4146102085780636ec304dc1461008a578063b240e6601461011d578063be776b3b14610157578063dc1aa5eb1461011d578063e412d62714610101578063e5471d95146100c95763f28cdc131461008a57600080fd5b346100c4576100b861009b366102cd565b948194919392931515806100ba575b6100b39061033a565b610690565b005b50606485106100aa565b600080fd5b346100c45760206100f86100dc3661029e565b6001600160a01b0390911660009081528084526040902061030c565b54604051908152f35b346100c45760003660031901126100c4576020604051600e8152f35b346100c45760203660031901126100c4576001600160a01b0361013e610240565b1660005260016020526020604060002054604051908152f35b346100c45760203660031901126100c457610170610240565b6101c0908160405161018282826107c4565b36903760405161019283826107c4565b823682376001600160a01b039091169060005b600e8110156101db5760019083600052600060205260406000206101cb8260009261030c565b5490508160051b840152016101a5565b6040518490836000825b600e82106101f257505050f35b60208060019285518152019301910190916101e5565b346100c4576100b861021936610256565b94829392949194151580610236575b6102319061033a565b610386565b5060648410610228565b600435906001600160a01b03821682036100c457565b60c09060031901126100c4576004356001600160a01b03811681036100c45790602435600e8110156100c4579060443590606435906084359060a43560038110156100c45790565b60409060031901126100c4576004356001600160a01b03811681036100c45790602435600e8110156100c45790565b60c09060031901126100c4576004356001600160a01b03811681036100c45790602435600e8110156100c4579060443590606435906084359060a43590565b90600e81101561032457600052602052604060002090565b634e487b7160e01b600052602160045260246000fd5b1561034157565b60405162461bcd60e51b815260206004820152601760248201527f496e76616c6964207468726573686f6c642076616c75650000000000000000006044820152606490fd5b93909294916040519263d0fc464160e01b8452600381101561032457600484015260208360248173__$48601fc9adbcb559808749f77bbebf5782$__5af49283156104c35760009361064c575b508581101561051a5773__$28b976773c0745686fe3e36366c7e8621a$__958160640291606483040361050457610409916107fc565b606403606481116105045760405192634ea77b2b60e11b845260048401526024830152602082604481885af49182156104c3576000926104cf575b509060446020926040519687938492634ea77b2b60e11b8452600484015260248301525af49283156104c35760009361048d575b5061048561048b9361081c565b91610849565b565b92506020833d6020116104bb575b816104a8602093836107c4565b810103126100c457915191610485610478565b3d915061049b565b6040513d6000823e3d90fd5b91506020823d6020116104fc575b816104ea602093836107c4565b810103126100c4579051906044610444565b3d91506104dd565b634e487b7160e01b600052601160045260246000fd5b948086111561063c576105428173__$28b976773c0745686fe3e36366c7e8621a$__97610683565b9081606402916064830403610504576064036064811161050457610565916107fc565b60405192634ea77b2b60e11b845260048401526024830152602082604481885af49182156104c357600092610607575b509060446020926040519687938492634ea77b2b60e11b8452600484015260248301525af480156104c3576000906105d3575b61048b935091610849565b506020833d6020116105ff575b816105ed602093836107c4565b810103126100c45761048b92516105c8565b3d91506105e0565b91506020823d602011610634575b81610622602093836107c4565b810103126100c4579051906044610595565b3d9150610615565b50505061048b9250600091610849565b90926020823d60201161067b575b81610667602093836107c4565b8101031261067857505191386103d3565b80fd5b3d915061065a565b9190820391821161050457565b9390929091818111156107b557906106a791610683565b905b808210156107205781606402916064830403610504576106c8916107fc565b606403606481116105045760405193634ea77b2b60e11b85526004850152602484015260208360448173__$28b976773c0745686fe3e36366c7e8621a$__5af480156104c3576000906105d35761048b935091610849565b90818111156107a6578161073391610683565b9081606402916064830403610504576064036064811161050457610756916107fc565b60405193634ea77b2b60e11b85526004850152602484015260208360448173__$28b976773c0745686fe3e36366c7e8621a$__5af49283156104c35760009361048d575061048561048b9361081c565b505061048b9250600091610849565b6107be91610683565b906106a9565b90601f8019910116810190811067ffffffffffffffff8211176107e657604052565b634e487b7160e01b600052604160045260246000fd5b8115610806570490565b634e487b7160e01b600052601260045260246000fd5b600160ff1b81146105045760000390565b9190916000838201938412911290801582169115161761050457565b9091801561097f5760018060a01b0382169283600052600060205261087c8261087683604060002061030c565b5461082d565b928460005260006020528361089583604060002061030c565b558460005260016020526108ae8360406000205461082d565b9185600052600160205282604060002055600e811015610324576000957fa33ca6d77de6f10863cd3417d7d4d9341ec39c957c34908fba80e03794d0f2a760608897610943966040519189835260208301526040820152a36040516109146040826107c4565b601e81527f52657075746174696f6e206368616e67656420666f722075736572202573000060208201526109d6565b60405190632d5b6cb960e01b60208301526024820152602481526109686044826107c4565b6020815191016a636f6e736f6c652e6c6f675afa50565b5061048b91506040516109936060826107c4565b602f81527f4e6f206368616e676520696e2072657075746174696f6e202864656c7461203d60208201526e20302920666f72207573657220257360881b60408201525b91906040519063319af33360e01b60208301526040602483015283519081606484015260005b828110610a3f57506000939450608483836109689387848497829901015260018060a01b03166044830152601f801991011681010301601f1981018352826107c4565b80602080928801015160848287010152016109fc56fea26469706673582212205dd280a2b43ec39a2ec6b9aef0974987d4532bad998d118a9992ccaf24aba58864736f6c634300081c0033",
  "linkReferences": {
    "contracts/Constants.sol": {
      "MathUtils": [
        {
          "length": 20,
          "start": 1017
        },
        {
          "length": 20,
          "start": 1348
        },
        {
          "length": 20,
          "start": 1806
        },
        {
          "length": 20,
          "start": 1937
        }
      ],
      "Weights": [
        {
          "length": 20,
          "start": 970
        }
      ]
    }
  },
  "deployedLinkReferences": {
    "contracts/Constants.sol": {
      "MathUtils": [
        {
          "length": 20,
          "start": 990
        },
        {
          "length": 20,
          "start": 1321
        },
        {
          "length": 20,
          "start": 1779
        },
        {
          "length": 20,
          "start": 1910
        }
      ],
      "Weights": [
        {
          "length": 20,
          "start": 943
        }
      ]
    }
  }
}