{
  "_format": "hh-sol-artifact-1",
  "contractName": "ReputationManager",
  "sourceName": "contracts/ReputationManager.sol",
  "abi": [
    {
      "inputs": [],
      "stateMutability": "nonpayable",
      "type": "constructor"
    },
    {
      "inputs": [],
      "name": "AccessControlBadConfirmation",
      "type": "error"
    },
    {
      "inputs": [
        {
          "internalType": "address",
          "name": "account",
          "type": "address"
        },
        {
          "internalType": "bytes32",
          "name": "neededRole",
          "type": "bytes32"
        }
      ],
      "name": "AccessControlUnauthorizedAccount",
      "type": "error"
    },
    {
      "anonymous": false,
      "inputs": [
        {
          "indexed": false,
          "internalType": "string",
          "name": "_module_type",
          "type": "string"
        },
        {
          "indexed": false,
          "internalType": "address",
          "name": "_module_address",
          "type": "address"
        }
      ],
      "name": "ModuleUpdated",
      "type": "event"
    },
    {
      "anonymous": false,
      "inputs": [
        {
          "indexed": true,
          "internalType": "address",
          "name": "_user",
          "type": "address"
        },
        {
          "indexed": true,
          "internalType": "enum SystemEnums.Domain",
          "name": "_domain",
          "type": "uint8"
        },
        {
          "indexed": false,
          "internalType": "int256",
          "name": "_delta",
          "type": "int256"
        },
        {
          "indexed": false,
          "internalType": "int256",
          "name": "_new_domain_score",
          "type": "int256"
        },
        {
          "indexed": false,
          "internalType": "int256",
          "name": "_new_global_score",
          "type": "int256"
        }
      ],
      "name": "ReputationChanged",
      "type": "event"
    },
    {
      "anonymous": false,
      "inputs": [
        {
          "indexed": true,
          "internalType": "bytes32",
          "name": "role",
          "type": "bytes32"
        },
        {
          "indexed": true,
          "internalType": "bytes32",
          "name": "previousAdminRole",
          "type": "bytes32"
        },
        {
          "indexed": true,
          "internalType": "bytes32",
          "name": "newAdminRole",
          "type": "bytes32"
        }
      ],
      "name": "RoleAdminChanged",
      "type": "event"
    },
    {
      "anonymous": false,
      "inputs": [
        {
          "indexed": true,
          "internalType": "bytes32",
          "name": "role",
          "type": "bytes32"
        },
        {
          "indexed": true,
          "internalType": "address",
          "name": "account",
          "type": "address"
        },
        {
          "indexed": true,
          "internalType": "address",
          "name": "sender",
          "type": "address"
        }
      ],
      "name": "RoleGranted",
      "type": "event"
    },
    {
      "anonymous": false,
      "inputs": [
        {
          "indexed": true,
          "internalType": "bytes32",
          "name": "role",
          "type": "bytes32"
        },
        {
          "indexed": true,
          "internalType": "address",
          "name": "account",
          "type": "address"
        },
        {
          "indexed": true,
          "internalType": "address",
          "name": "sender",
          "type": "address"
        }
      ],
      "name": "RoleRevoked",
      "type": "event"
    },
    {
      "inputs": [],
      "name": "DEFAULT_ADMIN_ROLE",
      "outputs": [
        {
          "internalType": "bytes32",
          "name": "",
          "type": "bytes32"
        }
      ],
      "stateMutability": "view",
      "type": "function"
    },
    {
      "inputs": [],
      "name": "N_DOMAIN",
      "outputs": [
        {
          "internalType": "uint256",
          "name": "",
          "type": "uint256"
        }
      ],
      "stateMutability": "view",
      "type": "function"
    },
    {
      "inputs": [],
      "name": "REPUTATION_UPDATER_ROLE",
      "outputs": [
        {
          "internalType": "bytes32",
          "name": "",
          "type": "bytes32"
        }
      ],
      "stateMutability": "view",
      "type": "function"
    },
    {
      "inputs": [
        {
          "internalType": "address",
          "name": "",
          "type": "address"
        },
        {
          "internalType": "enum SystemEnums.Domain",
          "name": "",
          "type": "uint8"
        }
      ],
      "name": "domain_reputation",
      "outputs": [
        {
          "internalType": "int256",
          "name": "",
          "type": "int256"
        }
      ],
      "stateMutability": "view",
      "type": "function"
    },
    {
      "inputs": [
        {
          "internalType": "address",
          "name": "_user",
          "type": "address"
        },
        {
          "internalType": "enum SystemEnums.Domain",
          "name": "_domain",
          "type": "uint8"
        },
        {
          "internalType": "int256",
          "name": "_delta",
          "type": "int256"
        }
      ],
      "name": "emergencyAdjustReputation",
      "outputs": [],
      "stateMutability": "nonpayable",
      "type": "function"
    },
    {
      "inputs": [
        {
          "internalType": "address",
          "name": "_user",
          "type": "address"
        }
      ],
      "name": "getAllDomainReputation",
      "outputs": [
        {
          "internalType": "int256[14]",
          "name": "",
          "type": "int256[14]"
        }
      ],
      "stateMutability": "view",
      "type": "function"
    },
    {
      "inputs": [
        {
          "internalType": "address",
          "name": "_user",
          "type": "address"
        },
        {
          "internalType": "enum SystemEnums.Domain",
          "name": "_domain",
          "type": "uint8"
        }
      ],
      "name": "getDomainReputation",
      "outputs": [
        {
          "internalType": "int256",
          "name": "",
          "type": "int256"
        }
      ],
      "stateMutability": "view",
      "type": "function"
    },
    {
      "inputs": [
        {
          "internalType": "address",
          "name": "_user",
          "type": "address"
        }
      ],
      "name": "getGlobalReputation",
      "outputs": [
        {
          "internalType": "int256",
          "name": "",
          "type": "int256"
        }
      ],
      "stateMutability": "view",
      "type": "function"
    },
    {
      "inputs": [
        {
          "internalType": "bytes32",
          "name": "role",
          "type": "bytes32"
        }
      ],
      "name": "getRoleAdmin",
      "outputs": [
        {
          "internalType": "bytes32",
          "name": "",
          "type": "bytes32"
        }
      ],
      "stateMutability": "view",
      "type": "function"
    },
    {
      "inputs": [
        {
          "internalType": "address",
          "name": "",
          "type": "address"
        }
      ],
      "name": "global_reputation",
      "outputs": [
        {
          "internalType": "int256",
          "name": "",
          "type": "int256"
        }
      ],
      "stateMutability": "view",
      "type": "function"
    },
    {
      "inputs": [
        {
          "internalType": "address",
          "name": "_contractAddress",
          "type": "address"
        }
      ],
      "name": "grantReputationUpdaterRole",
      "outputs": [],
      "stateMutability": "nonpayable",
      "type": "function"
    },
    {
      "inputs": [
        {
          "internalType": "bytes32",
          "name": "role",
          "type": "bytes32"
        },
        {
          "internalType": "address",
          "name": "account",
          "type": "address"
        }
      ],
      "name": "grantRole",
      "outputs": [],
      "stateMutability": "nonpayable",
      "type": "function"
    },
    {
      "inputs": [
        {
          "internalType": "bytes32",
          "name": "role",
          "type": "bytes32"
        },
        {
          "internalType": "address",
          "name": "account",
          "type": "address"
        }
      ],
      "name": "hasRole",
      "outputs": [
        {
          "internalType": "bool",
          "name": "",
          "type": "bool"
        }
      ],
      "stateMutability": "view",
      "type": "function"
    },
    {
      "inputs": [
        {
          "internalType": "bytes32",
          "name": "role",
          "type": "bytes32"
        },
        {
          "internalType": "address",
          "name": "callerConfirmation",
          "type": "address"
        }
      ],
      "name": "renounceRole",
      "outputs": [],
      "stateMutability": "nonpayable",
      "type": "function"
    },
    {
      "inputs": [
        {
          "internalType": "bytes32",
          "name": "role",
          "type": "bytes32"
        },
        {
          "internalType": "address",
          "name": "account",
          "type": "address"
        }
      ],
      "name": "revokeRole",
      "outputs": [],
      "stateMutability": "nonpayable",
      "type": "function"
    },
    {
      "inputs": [
        {
          "internalType": "address",
          "name": "_role_manager",
          "type": "address"
        }
      ],
      "name": "setRoleManagerAddress",
      "outputs": [],
      "stateMutability": "nonpayable",
      "type": "function"
    },
    {
      "inputs": [
        {
          "internalType": "bytes4",
          "name": "interfaceId",
          "type": "bytes4"
        }
      ],
      "name": "supportsInterface",
      "outputs": [
        {
          "internalType": "bool",
          "name": "",
          "type": "bool"
        }
      ],
      "stateMutability": "view",
      "type": "function"
    },
    {
      "inputs": [
        {
          "internalType": "address",
          "name": "_contributor",
          "type": "address"
        },
        {
          "internalType": "enum SystemEnums.Domain",
          "name": "_domain",
          "type": "uint8"
        },
        {
          "internalType": "uint256",
          "name": "_quality_score",
          "type": "uint256"
        },
        {
          "internalType": "uint256",
          "name": "_threshold",
          "type": "uint256"
        },
        {
          "internalType": "uint256",
          "name": "_scaling_constant",
          "type": "uint256"
        },
        {
          "internalType": "enum SystemEnums.DifficultyLevel",
          "name": "_difficulty",
          "type": "uint8"
        }
      ],
      "name": "updateContributionReputation",
      "outputs": [],
      "stateMutability": "nonpayable",
      "type": "function"
    },
    {
      "inputs": [
        {
          "internalType": "address",
          "name": "_reviewer",
          "type": "address"
        },
        {
          "internalType": "enum SystemEnums.Domain",
          "name": "_domain",
          "type": "uint8"
        },
        {
          "internalType": "uint256",
          "name": "_final_score",
          "type": "uint256"
        },
        {
          "internalType": "uint256",
          "name": "_evaluate_score",
          "type": "uint256"
        },
        {
          "internalType": "uint256",
          "name": "_threshold",
          "type": "uint256"
        },
        {
          "internalType": "uint256",
          "name": "_scaling_constant",
          "type": "uint256"
        }
      ],
      "name": "updateEvaluateSolutionReputation",
      "outputs": [],
      "stateMutability": "nonpayable",
      "type": "function"
    },
    {
      "inputs": [
        {
          "internalType": "address",
          "name": "_moderator",
          "type": "address"
        },
        {
          "internalType": "enum SystemEnums.Domain",
          "name": "_domain",
          "type": "uint8"
        },
        {
          "internalType": "uint256",
          "name": "_quality_score",
          "type": "uint256"
        },
        {
          "internalType": "uint256",
          "name": "_review_score",
          "type": "uint256"
        },
        {
          "internalType": "uint256",
          "name": "_threshold",
          "type": "uint256"
        },
        {
          "internalType": "uint256",
          "name": "_scaling_constant",
          "type": "uint256"
        }
      ],
      "name": "updateModerationReputation",
      "outputs": [],
      "stateMutability": "nonpayable",
      "type": "function"
    },
    {
      "inputs": [
        {
          "internalType": "address",
          "name": "_user",
          "type": "address"
        },
        {
          "internalType": "enum SystemEnums.Domain",
          "name": "_domain",
          "type": "uint8"
        },
        {
          "internalType": "uint256",
          "name": "_final_score",
          "type": "uint256"
        },
        {
          "internalType": "uint256",
          "name": "_threshold",
          "type": "uint256"
        },
        {
          "internalType": "uint256",
          "name": "_scaling_constant",
          "type": "uint256"
        },
        {
          "internalType": "enum SystemEnums.DifficultyLevel",
          "name": "_difficulty",
          "type": "uint8"
        }
      ],
      "name": "updateSolvingProblemReputation",
      "outputs": [],
      "stateMutability": "nonpayable",
      "type": "function"
    }
  ],
  "bytecode": "0x608060405234601f57600f336024565b5060405161125c90816100b28239f35b600080fd5b6001600160a01b038116600090815260008051602061130e833981519152602052604090205460ff1660ab576001600160a01b0316600081815260008051602061130e83398151915260205260408120805460ff191660011790553391907f2f8788117e7eff1d82e926ec794901d17c78024a50270940304540a733656f0d8180a4600190565b5060009056fe608080604052600436101561001357600080fd5b60003560e01c90816301ffc9a7146106f157508063164ac650146105bb57806319eae382146101cb578063248a9ca3146106bc5780632f2ff15d1461067c57806336568abe1461063657806338e68979146105fb5780633d8665d4146105bb5780636ec304dc1461010657806391d148541461056e578063927cab5b14610491578063a217fddf14610475578063b240e66014610220578063be776b3b146103c5578063d32bf2841461029f578063d547741f1461025a578063dc1aa5eb14610220578063e412d62714610204578063e5471d95146101cb578063f172dde21461014d5763f28cdc131461010657600080fd5b346101485761013c610117366107e7565b9481949193929315158061013e575b61012f90610854565b610137610a3d565b6109b4565b005b5060648510610126565b600080fd5b346101485760203660031901126101485761016661075a565b61016e610aaf565b6001600160a01b038116156101865761013c90610f86565b60405162461bcd60e51b815260206004820152601860248201527f496e76616c696420636f6e7472616374206164647265737300000000000000006044820152606490fd5b346101485760206101fb6101de366107b8565b6001600160a01b0390911660009081526001845260409020610826565b54604051908152f35b34610148576000366003190112610148576020604051600e8152f35b34610148576020366003190112610148576001600160a01b0361024161075a565b1660005260026020526020604060002054604051908152f35b346101485760403660031901126101485761013c600435610279610744565b9061029a61029582600052600060205260016040600020015490565b610b02565b6110e5565b34610148576060366003190112610148576102b861075a565b602435600e81101561014857604435906102d0610aaf565b6001600160a01b0383161561038957811561034d57826102f7836103489361013c96610bab565b6040516103056060826108a0565b602b81527f456d657267656e63792072657075746174696f6e2061646a7573746d656e742060208201526a666f72207573657220257360a81b6040820152611167565b6111fd565b60405162461bcd60e51b815260206004820152601460248201527344656c74612063616e6e6f74206265207a65726f60601b6044820152606490fd5b60405162461bcd60e51b8152602060048201526014602482015273496e76616c69642075736572206164647265737360601b6044820152606490fd5b34610148576020366003190112610148576103de61075a565b6101c090816040516103f082826108a0565b36903760405161040083826108a0565b823682376001600160a01b039091169060005b600e811015610448576001908360005281602052604060002061043882600092610826565b5490508160051b84015201610413565b6040518490836000825b600e821061045f57505050f35b6020806001928551815201930191019091610452565b3461014857600036600319011261014857602060405160008152f35b34610148576020366003190112610148576104aa61075a565b6104b2610aaf565b6001600160a01b03168015610529576080817f9a65d3ab497a14ced7d0123f7db0415db7b263e28d7b16267d6f3497224a9054926bffffffffffffffffffffffff60a01b60035416176003556040519060408252600b60408301526a2937b632a6b0b730b3b2b960a91b60608301526020820152a1005b60405162461bcd60e51b815260206004820152601c60248201527f496e76616c696420726f6c65206d616e616765722061646472657373000000006044820152606490fd5b3461014857604036600319011261014857610587610744565b600435600052600060205260406000209060018060a01b0316600052602052602060ff604060002054166040519015158152f35b346101485761013c6105cc36610770565b948293929491941515806105f1575b6105e490610854565b6105ec610a3d565b6108d8565b50606484106105db565b346101485760003660031901126101485760206040517ff291841473a74a165070591654d814ac4c3cf5400bd666c7a6107a65e2849a7f8152f35b346101485760403660031901126101485761064f610744565b336001600160a01b0382160361066b5761013c906004356110e5565b63334bd91960e11b60005260046000fd5b346101485760403660031901126101485761013c60043561069b610744565b906106b761029582600052600060205260016040600020015490565b61105a565b346101485760203660031901126101485760206106e9600435600052600060205260016040600020015490565b604051908152f35b34610148576020366003190112610148576004359063ffffffff60e01b821680920361014857602091637965db0b60e01b8114908115610733575b5015158152f35b6301ffc9a760e01b1490508361072c565b602435906001600160a01b038216820361014857565b600435906001600160a01b038216820361014857565b60c0906003190112610148576004356001600160a01b03811681036101485790602435600e811015610148579060443590606435906084359060a43560038110156101485790565b6040906003190112610148576004356001600160a01b03811681036101485790602435600e8110156101485790565b60c0906003190112610148576004356001600160a01b03811681036101485790602435600e811015610148579060443590606435906084359060a43590565b90600e81101561083e57600052602052604060002090565b634e487b7160e01b600052602160045260246000fd5b1561085b57565b60405162461bcd60e51b815260206004820152601760248201527f496e76616c6964207468726573686f6c642076616c75650000000000000000006044820152606490fd5b90601f8019910116810190811067ffffffffffffffff8211176108c257604052565b634e487b7160e01b600052604160045260246000fd5b93909294919460405195630168304360e31b8752600487015260248601526044850152600381101561083e576064840152600a6084840152600a60a484015260208360c48173__$54e3c4657b57c5c994f80a6afa1f2790ea$__5af49182156109855760009261094f575b61094d9350610bab565b565b91506020833d60201161097d575b8161096a602093836108a0565b810103126101485761094d925191610943565b3d915061095d565b6040513d6000823e3d90fd5b9190820391821161099e57565b634e487b7160e01b600052601160045260246000fd5b93949092909181811115610a2e57906109cc91610991565b935b60405194637cb11b0d60e01b8652600486015260248501526044840152600a6064840152600a608484015260208360a48173__$54e3c4657b57c5c994f80a6afa1f2790ea$__5af49182156109855760009261094f5761094d9350610bab565b610a3791610991565b936109ce565b3360009081527fe3994c8c7a6539ba60d44a53d1460f677e2baaf41a55da4e896e1048937fdb0d602052604090205460ff1615610a7657565b63e2517d3f60e01b600052336004527ff291841473a74a165070591654d814ac4c3cf5400bd666c7a6107a65e2849a7f60245260446000fd5b3360009081527fad3228b676f7d3cd4284a5443f17f1962b36e491b30a40b2405849e597ba5fb5602052604090205460ff1615610ae857565b63e2517d3f60e01b60005233600452600060245260446000fd5b60008181526020818152604080832033845290915290205460ff1615610b255750565b63e2517d3f60e01b6000523360045260245260446000fd5b9190916000838201938412911290801582169115161761099e57565b906003811015610b6a5760051b0190565b634e487b7160e01b600052603260045260246000fd5b6001600160a01b039091168152602081019190915260608101929190600e82101561083e5760400152565b918015610f2b5760018060a01b03831690816000526001602052610bdd81610bd7856040600020610826565b54610b3d565b9160008312610f22575b80600052600160205282610bff856040600020610826565b55806000526002602052610c1882604060002054610b3d565b9060008212610f19575b80600052600260205281604060002055600e85101561083e577fa33ca6d77de6f10863cd3417d7d4d9341ec39c957c34908fba80e03794d0f2a76060610cb79587946040519187835260208301526040820152a361034884604051610c886040826108a0565b601e81527f52657075746174696f6e206368616e67656420666f72207573657220257300006020820152611167565b6003546001600160a01b03169182610cce57505050565b604051926060840184811067ffffffffffffffff8211176108c257604081905263757dbcf160e11b8152602081600481855afa90811561098557600091610ee7575b5084526040516330d0ea3160e01b8152602081600481855afa90811561098557600091610eb4575b50600491602091828701526040519283809263797669c960e01b82525afa90811561098557600091610e82575b50604084015260005b60038110610d7c5750505050565b600354610dbb9060209085906001600160a01b0316610d9b8589610b59565b516000604051809681958294633a83c66160e01b84528b60048501610b80565b03925af190811561098557600091610e41575b50506003546001600160a01b031690610de78186610b59565b5191803b156101485784600091610e16948360405180978195829463470ff5dd60e01b84528b60048501610b80565b03925af191821561098557600192610e30575b5001610d6e565b6000610e3b916108a0565b38610e29565b6020813d8211610e7a575b81610e59602093836108a0565b81010312610e765751908115158203610e73575038610dce565b80fd5b5080fd5b3d9150610e4c565b90506020813d602011610eac575b81610e9d602093836108a0565b81010312610148575138610d65565b3d9150610e90565b90506020813d602011610edf575b81610ecf602093836108a0565b8101031261014857516004610d38565b3d9150610ec2565b90506020813d602011610f11575b81610f02602093836108a0565b81010312610148575138610d10565b3d9150610ef5565b60009150610c22565b60009250610be7565b505061094d90604051610f3f6060826108a0565b602f81527f4e6f206368616e676520696e2072657075746174696f6e202864656c7461203d60208201526e20302920666f72207573657220257360881b6040820152611167565b6001600160a01b03811660009081527fe3994c8c7a6539ba60d44a53d1460f677e2baaf41a55da4e896e1048937fdb0d602052604090205460ff16611054576001600160a01b031660008181527fe3994c8c7a6539ba60d44a53d1460f677e2baaf41a55da4e896e1048937fdb0d60205260408120805460ff191660011790553391907ff291841473a74a165070591654d814ac4c3cf5400bd666c7a6107a65e2849a7f907f2f8788117e7eff1d82e926ec794901d17c78024a50270940304540a733656f0d9080a4600190565b50600090565b6000818152602081815260408083206001600160a01b038616845290915290205460ff166110de576000818152602081815260408083206001600160a01b0395909516808452949091528120805460ff19166001179055339291907f2f8788117e7eff1d82e926ec794901d17c78024a50270940304540a733656f0d9080a4600190565b5050600090565b6000818152602081815260408083206001600160a01b038616845290915290205460ff16156110de576000818152602081815260408083206001600160a01b0395909516808452949091528120805460ff19169055339291907ff6391f5c32d9c69d2a47ea670b442974b53935d1edc7fd64eb21e047a839171b9080a4600190565b91906040519063319af33360e01b60208301526040602483015283519081606484015260005b8281106111e757506000939450608483836111d09387848497829901015260018060a01b03166044830152601f801991011681010301601f1981018352826108a0565b6020815191016a636f6e736f6c652e6c6f675afa50565b806020809288010151608482870101520161118d565b6000809160405190632d5b6cb960e01b60208301526024820152602481526111d06044826108a056fea26469706673582212202821a58248a945cb09daed534129e06c95f4e7ec0b6cb7f7e4423e83a8d687be64736f6c634300081a0033ad3228b676f7d3cd4284a5443f17f1962b36e491b30a40b2405849e597ba5fb5",
  "linkReferences": {
    "contracts/Formulas.sol": {
      "ReputationFormulas": [
        {
          "length": 20,
          "start": 2513
        },
        {
          "length": 20,
          "start": 2739
        }
      ]
    }
  },
  "deployedLinkReferences": {
    "contracts/Formulas.sol": {
      "ReputationFormulas": [
        {
          "length": 20,
          "start": 2335
        },
        {
          "length": 20,
          "start": 2561
        }
      ]
    }
  }
}