{
  "_format": "hh-sol-artifact-1",
  "contractName": "RoleManager",
  "sourceName": "contracts/RoleManager.sol",
  "abi": [
    {
      "inputs": [],
      "stateMutability": "nonpayable",
      "type": "constructor"
    },
    {
      "inputs": [],
      "name": "AccessControlBadConfirmation",
      "type": "error"
    },
    {
      "inputs": [
        {
          "internalType": "address",
          "name": "account",
          "type": "address"
        },
        {
          "internalType": "bytes32",
          "name": "neededRole",
          "type": "bytes32"
        }
      ],
      "name": "AccessControlUnauthorizedAccount",
      "type": "error"
    },
    {
      "anonymous": false,
      "inputs": [
        {
          "indexed": true,
          "internalType": "address",
          "name": "old_manager",
          "type": "address"
        },
        {
          "indexed": true,
          "internalType": "address",
          "name": "new_manager",
          "type": "address"
        }
      ],
      "name": "ReputationManagerUpdated",
      "type": "event"
    },
    {
      "anonymous": false,
      "inputs": [
        {
          "indexed": true,
          "internalType": "bytes32",
          "name": "role",
          "type": "bytes32"
        },
        {
          "indexed": true,
          "internalType": "bytes32",
          "name": "previousAdminRole",
          "type": "bytes32"
        },
        {
          "indexed": true,
          "internalType": "bytes32",
          "name": "newAdminRole",
          "type": "bytes32"
        }
      ],
      "name": "RoleAdminChanged",
      "type": "event"
    },
    {
      "anonymous": false,
      "inputs": [
        {
          "indexed": true,
          "internalType": "bytes32",
          "name": "role",
          "type": "bytes32"
        },
        {
          "indexed": true,
          "internalType": "address",
          "name": "account",
          "type": "address"
        },
        {
          "indexed": true,
          "internalType": "address",
          "name": "sender",
          "type": "address"
        }
      ],
      "name": "RoleGranted",
      "type": "event"
    },
    {
      "anonymous": false,
      "inputs": [
        {
          "indexed": true,
          "internalType": "bytes32",
          "name": "role",
          "type": "bytes32"
        },
        {
          "indexed": true,
          "internalType": "address",
          "name": "account",
          "type": "address"
        },
        {
          "indexed": false,
          "internalType": "int256",
          "name": "reputation",
          "type": "int256"
        }
      ],
      "name": "RoleGrantedWithReputation",
      "type": "event"
    },
    {
      "anonymous": false,
      "inputs": [
        {
          "indexed": true,
          "internalType": "bytes32",
          "name": "role",
          "type": "bytes32"
        },
        {
          "indexed": false,
          "internalType": "int256",
          "name": "oldRequirement",
          "type": "int256"
        },
        {
          "indexed": false,
          "internalType": "int256",
          "name": "newRequirement",
          "type": "int256"
        }
      ],
      "name": "RoleRequirementUpdated",
      "type": "event"
    },
    {
      "anonymous": false,
      "inputs": [
        {
          "indexed": true,
          "internalType": "bytes32",
          "name": "role",
          "type": "bytes32"
        },
        {
          "indexed": true,
          "internalType": "address",
          "name": "account",
          "type": "address"
        },
        {
          "indexed": true,
          "internalType": "address",
          "name": "sender",
          "type": "address"
        }
      ],
      "name": "RoleRevoked",
      "type": "event"
    },
    {
      "anonymous": false,
      "inputs": [
        {
          "indexed": true,
          "internalType": "bytes32",
          "name": "role",
          "type": "bytes32"
        },
        {
          "indexed": true,
          "internalType": "address",
          "name": "account",
          "type": "address"
        },
        {
          "indexed": false,
          "internalType": "int256",
          "name": "reputation",
          "type": "int256"
        }
      ],
      "name": "RoleRevokedDueToReputation",
      "type": "event"
    },
    {
      "inputs": [],
      "name": "CONTRIBUTOR_ROLE",
      "outputs": [
        {
          "internalType": "bytes32",
          "name": "",
          "type": "bytes32"
        }
      ],
      "stateMutability": "view",
      "type": "function"
    },
    {
      "inputs": [],
      "name": "DEFAULT_ADMIN_ROLE",
      "outputs": [
        {
          "internalType": "bytes32",
          "name": "",
          "type": "bytes32"
        }
      ],
      "stateMutability": "view",
      "type": "function"
    },
    {
      "inputs": [],
      "name": "EVALUATOR_ROLE",
      "outputs": [
        {
          "internalType": "bytes32",
          "name": "",
          "type": "bytes32"
        }
      ],
      "stateMutability": "view",
      "type": "function"
    },
    {
      "inputs": [],
      "name": "MODERATOR_ROLE",
      "outputs": [
        {
          "internalType": "bytes32",
          "name": "",
          "type": "bytes32"
        }
      ],
      "stateMutability": "view",
      "type": "function"
    },
    {
      "inputs": [
        {
          "internalType": "bytes32",
          "name": "role",
          "type": "bytes32"
        },
        {
          "internalType": "address",
          "name": "account",
          "type": "address"
        }
      ],
      "name": "canGrantRole",
      "outputs": [
        {
          "internalType": "bool",
          "name": "can_grant",
          "type": "bool"
        },
        {
          "internalType": "int256",
          "name": "current_reputation",
          "type": "int256"
        },
        {
          "internalType": "int256",
          "name": "required_reputation",
          "type": "int256"
        }
      ],
      "stateMutability": "view",
      "type": "function"
    },
    {
      "inputs": [
        {
          "internalType": "address",
          "name": "account",
          "type": "address"
        },
        {
          "internalType": "bytes32",
          "name": "role",
          "type": "bytes32"
        }
      ],
      "name": "checkAndGrantRole",
      "outputs": [
        {
          "internalType": "bool",
          "name": "granted",
          "type": "bool"
        }
      ],
      "stateMutability": "nonpayable",
      "type": "function"
    },
    {
      "inputs": [
        {
          "internalType": "address",
          "name": "account",
          "type": "address"
        },
        {
          "internalType": "bytes32",
          "name": "role",
          "type": "bytes32"
        }
      ],
      "name": "checkAndRevokeRole",
      "outputs": [],
      "stateMutability": "nonpayable",
      "type": "function"
    },
    {
      "inputs": [
        {
          "internalType": "bytes32",
          "name": "role",
          "type": "bytes32"
        },
        {
          "internalType": "address",
          "name": "account",
          "type": "address"
        }
      ],
      "name": "emergencyGrantRole",
      "outputs": [],
      "stateMutability": "nonpayable",
      "type": "function"
    },
    {
      "inputs": [],
      "name": "getAllRoleRequirements",
      "outputs": [
        {
          "internalType": "int256",
          "name": "contributor_requirement",
          "type": "int256"
        },
        {
          "internalType": "int256",
          "name": "evaluator_requirement",
          "type": "int256"
        },
        {
          "internalType": "int256",
          "name": "moderator_requirement",
          "type": "int256"
        }
      ],
      "stateMutability": "view",
      "type": "function"
    },
    {
      "inputs": [
        {
          "internalType": "bytes32",
          "name": "role",
          "type": "bytes32"
        }
      ],
      "name": "getRoleAdmin",
      "outputs": [
        {
          "internalType": "bytes32",
          "name": "",
          "type": "bytes32"
        }
      ],
      "stateMutability": "view",
      "type": "function"
    },
    {
      "inputs": [
        {
          "internalType": "bytes32",
          "name": "role",
          "type": "bytes32"
        }
      ],
      "name": "getRoleRequirement",
      "outputs": [
        {
          "internalType": "int256",
          "name": "requirement",
          "type": "int256"
        }
      ],
      "stateMutability": "view",
      "type": "function"
    },
    {
      "inputs": [
        {
          "internalType": "address",
          "name": "account",
          "type": "address"
        }
      ],
      "name": "getUserStatus",
      "outputs": [
        {
          "internalType": "int256",
          "name": "reputation",
          "type": "int256"
        },
        {
          "internalType": "bool",
          "name": "can_be_contributor",
          "type": "bool"
        },
        {
          "internalType": "bool",
          "name": "can_be_evaluator",
          "type": "bool"
        },
        {
          "internalType": "bool",
          "name": "can_be_moderator",
          "type": "bool"
        },
        {
          "internalType": "bool",
          "name": "is_contributor",
          "type": "bool"
        },
        {
          "internalType": "bool",
          "name": "is_evaluator",
          "type": "bool"
        },
        {
          "internalType": "bool",
          "name": "is_moderator",
          "type": "bool"
        }
      ],
      "stateMutability": "view",
      "type": "function"
    },
    {
      "inputs": [
        {
          "internalType": "bytes32",
          "name": "role",
          "type": "bytes32"
        },
        {
          "internalType": "address",
          "name": "account",
          "type": "address"
        }
      ],
      "name": "grantRole",
      "outputs": [],
      "stateMutability": "nonpayable",
      "type": "function"
    },
    {
      "inputs": [
        {
          "internalType": "bytes32",
          "name": "role",
          "type": "bytes32"
        },
        {
          "internalType": "address",
          "name": "account",
          "type": "address"
        }
      ],
      "name": "hasRole",
      "outputs": [
        {
          "internalType": "bool",
          "name": "",
          "type": "bool"
        }
      ],
      "stateMutability": "view",
      "type": "function"
    },
    {
      "inputs": [
        {
          "internalType": "address",
          "name": "account",
          "type": "address"
        }
      ],
      "name": "isAdmin",
      "outputs": [
        {
          "internalType": "bool",
          "name": "",
          "type": "bool"
        }
      ],
      "stateMutability": "view",
      "type": "function"
    },
    {
      "inputs": [
        {
          "internalType": "address",
          "name": "account",
          "type": "address"
        }
      ],
      "name": "isContributor",
      "outputs": [
        {
          "internalType": "bool",
          "name": "",
          "type": "bool"
        }
      ],
      "stateMutability": "view",
      "type": "function"
    },
    {
      "inputs": [
        {
          "internalType": "address",
          "name": "account",
          "type": "address"
        }
      ],
      "name": "isEvaluator",
      "outputs": [
        {
          "internalType": "bool",
          "name": "",
          "type": "bool"
        }
      ],
      "stateMutability": "view",
      "type": "function"
    },
    {
      "inputs": [
        {
          "internalType": "address",
          "name": "account",
          "type": "address"
        }
      ],
      "name": "isModerator",
      "outputs": [
        {
          "internalType": "bool",
          "name": "",
          "type": "bool"
        }
      ],
      "stateMutability": "view",
      "type": "function"
    },
    {
      "inputs": [
        {
          "internalType": "bytes32",
          "name": "role",
          "type": "bytes32"
        },
        {
          "internalType": "address",
          "name": "callerConfirmation",
          "type": "address"
        }
      ],
      "name": "renounceRole",
      "outputs": [],
      "stateMutability": "nonpayable",
      "type": "function"
    },
    {
      "inputs": [],
      "name": "reputation_manager",
      "outputs": [
        {
          "internalType": "contract IReputationManager",
          "name": "",
          "type": "address"
        }
      ],
      "stateMutability": "view",
      "type": "function"
    },
    {
      "inputs": [
        {
          "internalType": "bytes32",
          "name": "role",
          "type": "bytes32"
        }
      ],
      "name": "requestRole",
      "outputs": [],
      "stateMutability": "nonpayable",
      "type": "function"
    },
    {
      "inputs": [
        {
          "internalType": "bytes32",
          "name": "role",
          "type": "bytes32"
        },
        {
          "internalType": "address",
          "name": "account",
          "type": "address"
        }
      ],
      "name": "revokeRole",
      "outputs": [],
      "stateMutability": "nonpayable",
      "type": "function"
    },
    {
      "inputs": [
        {
          "internalType": "bytes32",
          "name": "",
          "type": "bytes32"
        }
      ],
      "name": "role_reputation_requirements",
      "outputs": [
        {
          "internalType": "int256",
          "name": "",
          "type": "int256"
        }
      ],
      "stateMutability": "view",
      "type": "function"
    },
    {
      "inputs": [
        {
          "internalType": "address",
          "name": "_reputation_manager",
          "type": "address"
        }
      ],
      "name": "setReputationManagerAddress",
      "outputs": [],
      "stateMutability": "nonpayable",
      "type": "function"
    },
    {
      "inputs": [
        {
          "internalType": "address",
          "name": "account",
          "type": "address"
        },
        {
          "internalType": "bytes32",
          "name": "role",
          "type": "bytes32"
        }
      ],
      "name": "shouldRevokeRole",
      "outputs": [
        {
          "internalType": "bool",
          "name": "should_revoke",
          "type": "bool"
        }
      ],
      "stateMutability": "view",
      "type": "function"
    },
    {
      "inputs": [
        {
          "internalType": "bytes4",
          "name": "interfaceId",
          "type": "bytes4"
        }
      ],
      "name": "supportsInterface",
      "outputs": [
        {
          "internalType": "bool",
          "name": "",
          "type": "bool"
        }
      ],
      "stateMutability": "view",
      "type": "function"
    },
    {
      "inputs": [
        {
          "internalType": "bytes32",
          "name": "role",
          "type": "bytes32"
        },
        {
          "internalType": "int256",
          "name": "_new_requirement",
          "type": "int256"
        }
      ],
      "name": "updateRoleRequirement",
      "outputs": [],
      "stateMutability": "nonpayable",
      "type": "function"
    }
  ],
  "bytecode": "0x6080604052346100b757600260205260327fd1a218b4c0e25e08850b7d5ebfa950641867cddd37c1d08e62803a94a8b5e9435560647f55a70f5a6fe08ecb6334559b4af3437347c745d84a90e117f662047173535d7b557f71f3d55856e4058ed06ee057d79ada615f65cdf5f9ee88181b914225088f834f60005260c87fb1ef985877d50d34e95c2aaf1c996731c63181754cd1cb73eef00b96d479196e556100a7336100bc565b5060405161130b908161014b8239f35b600080fd5b6001600160a01b0381166000908152600080516020611456833981519152602052604090205460ff16610144576001600160a01b0316600081815260008051602061145683398151915260205260408120805460ff191660011790553391907f2f8788117e7eff1d82e926ec794901d17c78024a50270940304540a733656f0d8180a4600190565b5060009056fe608080604052600436101561001357600080fd5b60003560e01c90816301ffc9a714610c9a575080630b05da3814610c715780631b561cf914610c0f5780631cd6177614610b4c5780631d0d35f514610aea578063248a9ca314610ab557806324d7806c14610a53578063278f0590146109a95780632f2ff15d1461096e57806330d0ea311461094557806336568abe146108ff57806359b68053146108c15780635d3ebe061461083e5780636b1c9cf714610148578063797669c91461081557806391d14854146107c8578063a217fddf146107ac578063a21c6395146106e1578063b6836d8c146106a5578063c361e8cf146105ec578063d547741f146105a5578063e668ad0514610429578063ea0d5dcd1461024c578063eafb79e214610223578063f3ea1040146101db578063fa6f3936146101795763fb939fe01461014857600080fd5b346101745760203660031901126101745760043560005260026020526020604060002054604051908152f35b600080fd5b3461017457602036600319011261017457610192610ced565b6001600160a01b031660009081527ff179aafcc4ff8137fca1ef3b9ec4d165f87016ba123e7973fba770bc55e240e3602090815260409182902054915160ff9092161515825290f35b346101745760403660031901126101745760206102196101f9610ced565b600154610210906001600160a01b03161515610d54565b60243590611031565b6040519015158152f35b346101745760003660031901126101745760206040516000805160206112968339815191528152f35b34610174576020366003190112610174576024610267610ced565b6001546020906001600160a01b0316610281811515610d54565b604051630592073360e51b81526001600160a01b038416600482015293849182905afa91821561041d576000926103e6575b7fd1a218b4c0e25e08850b7d5ebfa950641867cddd37c1d08e62803a94a8b5e943547f55a70f5a6fe08ecb6334559b4af3437347c745d84a90e117f662047173535d7b547fb1ef985877d50d34e95c2aaf1c996731c63181754cd1cb73eef00b96d479196e546001600160a01b03851660009081527f28e45274deb3d6d36958bbdbc096db64d6ae3abe997afccb9e0e247e78b0ea4f60209081526040808320547f57eab3851ed836b4167edca507d53fd4a8df100270628b0b5280b859aab149318352818420547ff179aafcc4ff8137fca1ef3b9ec4d165f87016ba123e7973fba770bc55e240e38452938290205482518b8152978b121593880193909352948912159086015291871215606085015260ff928316151560808501528216151560a084015216151560c082015260e090f35b6020813d602011610415575b816103ff60209383610da0565b810103126104115751915060e06102b3565b8280fd5b3d91506103f2565b6040513d6000823e3d90fd5b3461017457602036600319011261017457600154602490600435906020906001600160a01b031661045b811515610d54565b6000805160206112968339815191528314801561058e575b8015610577575b61048390610d19565b604051630592073360e51b815233600482015293849182905afa91821561041d57600092610540575b5080600052600260205260406000205482126104fb576104cc338261116f565b506040519182527f0f7f9f8d2d5576652602b3081daafb56fce69a3041a94e675824bda2ac0969a660203393a3005b60405162461bcd60e51b815260206004820152601d60248201527f496e73756666696369656e742072657075746174696f6e2073636f72650000006044820152606490fd5b90916020823d60201161056f575b8161055b60209383610da0565b8101031261056c57505190826104ac565b80fd5b3d915061054e565b506000805160206112b6833981519152831461047a565b506000805160206112768339815191528314610473565b34610174576040366003190112610174576105ea6004356105c4610d03565b906105e56105e082600052600060205260016040600020015490565b611134565b6111f3565b005b3461017457602036600319011261017457610605610ced565b61060d6110e1565b6001600160a01b0316801561066057600180546001600160a01b0319811683179091556001600160a01b03167f2b6c121197ae3f65cdc980fcd16585027e5bdb688bd312fc044da5c0eb5ebb94600080a3005b60405162461bcd60e51b815260206004820152601a60248201527f496e76616c69642072657075746174696f6e206d616e616765720000000000006044820152606490fd5b34610174576040366003190112610174576105ea6106c1610ced565b6001546106d8906001600160a01b03161515610d54565b60243590610f30565b34610174576040366003190112610174576106fa610d03565b6001546001600160a01b031690602090610715831515610d54565b604051630592073360e51b81526001600160a01b03909116600482015291829060249082905afa90811561041d57600091610775575b60608260043560005260026020526040600020546040519181811215835260208301526040820152f35b6020813d6020116107a4575b8161078e60209383610da0565b810103126107a057519050606061074b565b5080fd5b3d9150610781565b3461017457600036600319011261017457602060405160008152f35b34610174576040366003190112610174576107e1610d03565b600435600052600060205260406000209060018060a01b0316600052602052602060ff604060002054166040519015158152f35b346101745760003660031901126101745760206040516000805160206112b68339815191528152f35b34610174576040366003190112610174576105ea60043561085d610d03565b906108666110e1565b600080516020611296833981519152811480156108aa575b8015610893575b61088e90610d19565b61116f565b506000805160206112b68339815191528114610885565b50600080516020611276833981519152811461087e565b346101745760403660031901126101745760206102196108df610ced565b6001546108f6906001600160a01b03161515610d54565b60243590610dd8565b3461017457604036600319011261017457610918610d03565b336001600160a01b03821603610934576105ea906004356111f3565b63334bd91960e11b60005260046000fd5b346101745760003660031901126101745760206040516000805160206112768339815191528152f35b34610174576040366003190112610174576105ea60043561098d610d03565b9061088e6105e082600052600060205260016040600020015490565b3461017457600036600319011261017457600260209081527fd1a218b4c0e25e08850b7d5ebfa950641867cddd37c1d08e62803a94a8b5e943547f55a70f5a6fe08ecb6334559b4af3437347c745d84a90e117f662047173535d7b546000805160206112b68339815191526000527fb1ef985877d50d34e95c2aaf1c996731c63181754cd1cb73eef00b96d479196e54604080519384529383019190915291810191909152606090f35b3461017457602036600319011261017457610a6c610ced565b6001600160a01b031660009081527fad3228b676f7d3cd4284a5443f17f1962b36e491b30a40b2405849e597ba5fb5602090815260409182902054915160ff9092161515825290f35b34610174576020366003190112610174576020610ae2600435600052600060205260016040600020015490565b604051908152f35b3461017457602036600319011261017457610b03610ced565b6001600160a01b031660009081527f28e45274deb3d6d36958bbdbc096db64d6ae3abe997afccb9e0e247e78b0ea4f602090815260409182902054915160ff9092161515825290f35b34610174576040366003190112610174576004357fa586cb6d8d9b156f7f110b47c38550311a898cbc65b5beb53932ddab809f239f6040602435610b8e6110e1565b60008051602061129683398151915284148015610bf8575b8015610be1575b610bb690610d19565b83600052600260205281600020549084600052600260205280836000205582519182526020820152a2005b506000805160206112b68339815191528414610bad565b506000805160206112768339815191528414610ba6565b3461017457602036600319011261017457610c28610ced565b6001600160a01b031660009081527f57eab3851ed836b4167edca507d53fd4a8df100270628b0b5280b859aab14931602090815260409182902054915160ff9092161515825290f35b34610174576000366003190112610174576001546040516001600160a01b039091168152602090f35b34610174576020366003190112610174576004359063ffffffff60e01b821680920361017457602091637965db0b60e01b8114908115610cdc575b5015158152f35b6301ffc9a760e01b14905083610cd5565b600435906001600160a01b038216820361017457565b602435906001600160a01b038216820361017457565b15610d2057565b60405162461bcd60e51b815260206004820152600c60248201526b496e76616c696420726f6c6560a01b6044820152606490fd5b15610d5b57565b60405162461bcd60e51b815260206004820152601a60248201527f52657075746174696f6e206d616e61676572206e6f74207365740000000000006044820152606490fd5b90601f8019910116810190811067ffffffffffffffff821117610dc257604052565b634e487b7160e01b600052604160045260246000fd5b90806000526000602052604060002060018060a01b03831660005260205260ff60406000205416610f295760008051602061129683398151915281148015610f12575b8015610efb575b610e2b90610d19565b600154604051630592073360e51b81526001600160a01b038481166004830181905294919260209184916024918391165afa91821561041d57600092610ec7575b50826000526002602052604060002054821215610e8c5750505050600090565b7f0f7f9f8d2d5576652602b3081daafb56fce69a3041a94e675824bda2ac0969a691610eba6020928561116f565b50604051908152a3600190565b90916020823d602011610ef3575b81610ee260209383610da0565b8101031261056c5750519038610e6c565b3d9150610ed5565b506000805160206112b68339815191528114610e22565b506000805160206112768339815191528114610e1b565b5050600090565b90806000526000602052604060002060018060a01b03831660005260205260ff604060002054161561102d57600154604051630592073360e51b81526001600160a01b038481166004830181905294919260209184916024918391165afa91821561041d57600092610ff9575b508260005260026020526040600020548212610fba575b50505050565b7f68f017765e3d04b5e5a3babd5b094ebfb68cc89a8d1f56247a0a05ca50223c0591610fe8602092856111f3565b50604051908152a338808080610fb4565b90916020823d602011611025575b8161101460209383610da0565b8101031261056c5750519038610f9d565b3d9150611007565b5050565b90806000526000602052604060002060018060a01b03831660005260205260ff6040600020541615610f2957600154604051630592073360e51b81526001600160a01b0393841660048201529260209184916024918391165afa91821561041d576000926110ad575b5060005260026020526040600020541390565b9091506020813d6020116110d9575b816110c960209383610da0565b810103126101745751903861109a565b3d91506110bc565b3360009081527fad3228b676f7d3cd4284a5443f17f1962b36e491b30a40b2405849e597ba5fb5602052604090205460ff161561111a57565b63e2517d3f60e01b60005233600452600060245260446000fd5b60008181526020818152604080832033845290915290205460ff16156111575750565b63e2517d3f60e01b6000523360045260245260446000fd5b6000818152602081815260408083206001600160a01b038616845290915290205460ff16610f29576000818152602081815260408083206001600160a01b0395909516808452949091528120805460ff19166001179055339291907f2f8788117e7eff1d82e926ec794901d17c78024a50270940304540a733656f0d9080a4600190565b6000818152602081815260408083206001600160a01b038616845290915290205460ff1615610f29576000818152602081815260408083206001600160a01b0395909516808452949091528120805460ff19169055339291907ff6391f5c32d9c69d2a47ea670b442974b53935d1edc7fd64eb21e047a839171b9080a460019056fe4848aa3d2c0568bab3ca9720f91818ee0957e95426fa0627cc4809e2e5ed8be0e2889e7308860b3fe8df0daa86fccfea4d71e43776719a57be28cf90b6db81e971f3d55856e4058ed06ee057d79ada615f65cdf5f9ee88181b914225088f834fa2646970667358221220815e59eb4aed87f42e631ef9398bafee433964b4d95ac2b96a32b99784ac81e564736f6c634300081c0033ad3228b676f7d3cd4284a5443f17f1962b36e491b30a40b2405849e597ba5fb5",
  "linkReferences": {},
  "deployedLinkReferences": {}
}