{
  "_format": "hh-sol-artifact-1",
  "contractName": "SolutionManager",
  "sourceName": "contracts/SolutionManager.sol",
  "abi": [
    {
      "inputs": [],
      "stateMutability": "nonpayable",
      "type": "constructor"
    },
    {
      "inputs": [],
      "name": "AccessControlBadConfirmation",
      "type": "error"
    },
    {
      "inputs": [
        {
          "internalType": "address",
          "name": "account",
          "type": "address"
        },
        {
          "internalType": "bytes32",
          "name": "neededRole",
          "type": "bytes32"
        }
      ],
      "name": "AccessControlUnauthorizedAccount",
      "type": "error"
    },
    {
      "anonymous": false,
      "inputs": [
        {
          "indexed": true,
          "internalType": "bytes32",
          "name": "role",
          "type": "bytes32"
        },
        {
          "indexed": true,
          "internalType": "bytes32",
          "name": "previousAdminRole",
          "type": "bytes32"
        },
        {
          "indexed": true,
          "internalType": "bytes32",
          "name": "newAdminRole",
          "type": "bytes32"
        }
      ],
      "name": "RoleAdminChanged",
      "type": "event"
    },
    {
      "anonymous": false,
      "inputs": [
        {
          "indexed": true,
          "internalType": "bytes32",
          "name": "role",
          "type": "bytes32"
        },
        {
          "indexed": true,
          "internalType": "address",
          "name": "account",
          "type": "address"
        },
        {
          "indexed": true,
          "internalType": "address",
          "name": "sender",
          "type": "address"
        }
      ],
      "name": "RoleGranted",
      "type": "event"
    },
    {
      "anonymous": false,
      "inputs": [
        {
          "indexed": true,
          "internalType": "bytes32",
          "name": "role",
          "type": "bytes32"
        },
        {
          "indexed": true,
          "internalType": "address",
          "name": "account",
          "type": "address"
        },
        {
          "indexed": true,
          "internalType": "address",
          "name": "sender",
          "type": "address"
        }
      ],
      "name": "RoleRevoked",
      "type": "event"
    },
    {
      "anonymous": false,
      "inputs": [
        {
          "indexed": true,
          "internalType": "address",
          "name": "user_address",
          "type": "address"
        },
        {
          "indexed": true,
          "internalType": "bytes32",
          "name": "challenge_id",
          "type": "bytes32"
        },
        {
          "indexed": false,
          "internalType": "string",
          "name": "solution_base_txid",
          "type": "string"
        },
        {
          "indexed": false,
          "internalType": "uint256",
          "name": "created_at",
          "type": "uint256"
        }
      ],
      "name": "SolutionBaseCreated",
      "type": "event"
    },
    {
      "anonymous": false,
      "inputs": [
        {
          "indexed": true,
          "internalType": "bytes32",
          "name": "solution_id",
          "type": "bytes32"
        },
        {
          "indexed": false,
          "internalType": "uint256",
          "name": "score",
          "type": "uint256"
        },
        {
          "indexed": false,
          "internalType": "uint256",
          "name": "finalized_at",
          "type": "uint256"
        }
      ],
      "name": "SolutionEvaluationFinalized",
      "type": "event"
    },
    {
      "anonymous": false,
      "inputs": [
        {
          "indexed": true,
          "internalType": "address",
          "name": "evaluator",
          "type": "address"
        },
        {
          "indexed": true,
          "internalType": "bytes32",
          "name": "solution_id",
          "type": "bytes32"
        },
        {
          "indexed": false,
          "internalType": "uint256",
          "name": "joined_at",
          "type": "uint256"
        }
      ],
      "name": "SolutionJoinedByEvaluator",
      "type": "event"
    },
    {
      "anonymous": false,
      "inputs": [
        {
          "indexed": true,
          "internalType": "bytes32",
          "name": "solution_id",
          "type": "bytes32"
        },
        {
          "indexed": false,
          "internalType": "uint256",
          "name": "initialized_at",
          "type": "uint256"
        }
      ],
      "name": "SolutionPoolInitialized",
      "type": "event"
    },
    {
      "anonymous": false,
      "inputs": [
        {
          "indexed": true,
          "internalType": "address",
          "name": "evaluator",
          "type": "address"
        },
        {
          "indexed": true,
          "internalType": "bytes32",
          "name": "solution_id",
          "type": "bytes32"
        },
        {
          "indexed": false,
          "internalType": "uint256",
          "name": "score",
          "type": "uint256"
        },
        {
          "indexed": false,
          "internalType": "uint256",
          "name": "submitted_at",
          "type": "uint256"
        }
      ],
      "name": "SolutionScoreSubmittedByEvaluator",
      "type": "event"
    },
    {
      "anonymous": false,
      "inputs": [
        {
          "indexed": true,
          "internalType": "bytes32",
          "name": "solution_id",
          "type": "bytes32"
        },
        {
          "indexed": false,
          "internalType": "uint256",
          "name": "submitted_at",
          "type": "uint256"
        }
      ],
      "name": "SolutionSubmitted",
      "type": "event"
    },
    {
      "inputs": [],
      "name": "DEFAULT_ADMIN_ROLE",
      "outputs": [
        {
          "internalType": "bytes32",
          "name": "",
          "type": "bytes32"
        }
      ],
      "stateMutability": "view",
      "type": "function"
    },
    {
      "inputs": [
        {
          "internalType": "address",
          "name": "_evaluator_address",
          "type": "address"
        },
        {
          "internalType": "bytes32",
          "name": "_solution_id",
          "type": "bytes32"
        }
      ],
      "name": "checkEvaluatorJoinedSolution",
      "outputs": [
        {
          "internalType": "bool",
          "name": "",
          "type": "bool"
        }
      ],
      "stateMutability": "view",
      "type": "function"
    },
    {
      "inputs": [
        {
          "internalType": "address",
          "name": "_evaluator_address",
          "type": "address"
        },
        {
          "internalType": "bytes32",
          "name": "_solution_id",
          "type": "bytes32"
        }
      ],
      "name": "checkEvalutorSubmittedScore",
      "outputs": [
        {
          "internalType": "bool",
          "name": "",
          "type": "bool"
        }
      ],
      "stateMutability": "view",
      "type": "function"
    },
    {
      "inputs": [
        {
          "internalType": "address",
          "name": "_user_address",
          "type": "address"
        },
        {
          "internalType": "bytes32",
          "name": "_challenge_id",
          "type": "bytes32"
        }
      ],
      "name": "checkUserJoinedChallenge",
      "outputs": [
        {
          "internalType": "bool",
          "name": "",
          "type": "bool"
        }
      ],
      "stateMutability": "view",
      "type": "function"
    },
    {
      "inputs": [
        {
          "internalType": "address",
          "name": "_user_address",
          "type": "address"
        },
        {
          "internalType": "bytes32",
          "name": "_challenge_id",
          "type": "bytes32"
        },
        {
          "internalType": "string",
          "name": "_solution_base_txid",
          "type": "string"
        },
        {
          "internalType": "uint256",
          "name": "_created_at",
          "type": "uint256"
        }
      ],
      "name": "createSolutionBase",
      "outputs": [
        {
          "internalType": "bytes32",
          "name": "id",
          "type": "bytes32"
        }
      ],
      "stateMutability": "nonpayable",
      "type": "function"
    },
    {
      "inputs": [
        {
          "internalType": "bytes32",
          "name": "_solution_id",
          "type": "bytes32"
        }
      ],
      "name": "evaluatorJoinSolution",
      "outputs": [],
      "stateMutability": "nonpayable",
      "type": "function"
    },
    {
      "inputs": [
        {
          "internalType": "bytes32",
          "name": "_solution_id",
          "type": "bytes32"
        },
        {
          "internalType": "uint256",
          "name": "_score",
          "type": "uint256"
        }
      ],
      "name": "evaluatorSubmitScore",
      "outputs": [],
      "stateMutability": "nonpayable",
      "type": "function"
    },
    {
      "inputs": [
        {
          "internalType": "address",
          "name": "_user_address",
          "type": "address"
        },
        {
          "internalType": "bytes32",
          "name": "_challenge_id",
          "type": "bytes32"
        }
      ],
      "name": "getBriefSolutionInfo",
      "outputs": [
        {
          "internalType": "enum SystemEnums.SolutionProgress",
          "name": "",
          "type": "uint8"
        },
        {
          "internalType": "uint256",
          "name": "",
          "type": "uint256"
        },
        {
          "internalType": "uint256",
          "name": "",
          "type": "uint256"
        }
      ],
      "stateMutability": "view",
      "type": "function"
    },
    {
      "inputs": [
        {
          "internalType": "address",
          "name": "_evaluator_address",
          "type": "address"
        },
        {
          "internalType": "bytes32",
          "name": "_solution_id",
          "type": "bytes32"
        }
      ],
      "name": "getEvaluationByEvaluator",
      "outputs": [
        {
          "components": [
            {
              "internalType": "address",
              "name": "evaluator",
              "type": "address"
            },
            {
              "internalType": "uint256",
              "name": "evaluation_score",
              "type": "uint256"
            },
            {
              "internalType": "uint256",
              "name": "submitted_at",
              "type": "uint256"
            }
          ],
          "internalType": "struct SolutionManager.Evaluation",
          "name": "",
          "type": "tuple"
        }
      ],
      "stateMutability": "view",
      "type": "function"
    },
    {
      "inputs": [
        {
          "internalType": "address",
          "name": "_evaluator_address",
          "type": "address"
        },
        {
          "internalType": "bytes32",
          "name": "_solution_id",
          "type": "bytes32"
        }
      ],
      "name": "getEvaluationDeviation",
      "outputs": [
        {
          "internalType": "uint256",
          "name": "",
          "type": "uint256"
        }
      ],
      "stateMutability": "view",
      "type": "function"
    },
    {
      "inputs": [
        {
          "internalType": "bytes32",
          "name": "_solution_id",
          "type": "bytes32"
        }
      ],
      "name": "getMaxEvaluatorsForSolution",
      "outputs": [
        {
          "internalType": "uint256",
          "name": "",
          "type": "uint256"
        }
      ],
      "stateMutability": "view",
      "type": "function"
    },
    {
      "inputs": [
        {
          "internalType": "bytes32",
          "name": "_solution_id",
          "type": "bytes32"
        }
      ],
      "name": "getNumberOfJoinedEvaluators",
      "outputs": [
        {
          "internalType": "uint256",
          "name": "",
          "type": "uint256"
        }
      ],
      "stateMutability": "view",
      "type": "function"
    },
    {
      "inputs": [
        {
          "internalType": "bytes32",
          "name": "_solution_id",
          "type": "bytes32"
        }
      ],
      "name": "getNumberOfSubmittedEvaluations",
      "outputs": [
        {
          "internalType": "uint256",
          "name": "",
          "type": "uint256"
        }
      ],
      "stateMutability": "view",
      "type": "function"
    },
    {
      "inputs": [
        {
          "internalType": "bytes32",
          "name": "role",
          "type": "bytes32"
        }
      ],
      "name": "getRoleAdmin",
      "outputs": [
        {
          "internalType": "bytes32",
          "name": "",
          "type": "bytes32"
        }
      ],
      "stateMutability": "view",
      "type": "function"
    },
    {
      "inputs": [
        {
          "internalType": "address",
          "name": "_evaluator_address",
          "type": "address"
        },
        {
          "internalType": "bytes32",
          "name": "_solution_id",
          "type": "bytes32"
        }
      ],
      "name": "getScoreSubmittedByEvaluator",
      "outputs": [
        {
          "internalType": "uint256",
          "name": "",
          "type": "uint256"
        }
      ],
      "stateMutability": "view",
      "type": "function"
    },
    {
      "inputs": [
        {
          "internalType": "address",
          "name": "_evaluator_address",
          "type": "address"
        }
      ],
      "name": "getSolutionByEvaluator",
      "outputs": [
        {
          "components": [
            {
              "internalType": "bytes32",
              "name": "id",
              "type": "bytes32"
            },
            {
              "internalType": "address",
              "name": "user",
              "type": "address"
            },
            {
              "internalType": "bytes32",
              "name": "challenge_id",
              "type": "bytes32"
            },
            {
              "internalType": "string",
              "name": "solution_txid",
              "type": "string"
            },
            {
              "internalType": "uint256",
              "name": "created_at",
              "type": "uint256"
            },
            {
              "internalType": "uint256",
              "name": "submitted_at",
              "type": "uint256"
            },
            {
              "internalType": "enum SystemEnums.SolutionProgress",
              "name": "progress",
              "type": "uint8"
            },
            {
              "internalType": "uint256",
              "name": "score",
              "type": "uint256"
            }
          ],
          "internalType": "struct SolutionManager.Solution[]",
          "name": "",
          "type": "tuple[]"
        }
      ],
      "stateMutability": "view",
      "type": "function"
    },
    {
      "inputs": [
        {
          "internalType": "bytes32",
          "name": "_solution_id",
          "type": "bytes32"
        }
      ],
      "name": "getSolutionById",
      "outputs": [
        {
          "components": [
            {
              "internalType": "bytes32",
              "name": "id",
              "type": "bytes32"
            },
            {
              "internalType": "address",
              "name": "user",
              "type": "address"
            },
            {
              "internalType": "bytes32",
              "name": "challenge_id",
              "type": "bytes32"
            },
            {
              "internalType": "string",
              "name": "solution_txid",
              "type": "string"
            },
            {
              "internalType": "uint256",
              "name": "created_at",
              "type": "uint256"
            },
            {
              "internalType": "uint256",
              "name": "submitted_at",
              "type": "uint256"
            },
            {
              "internalType": "enum SystemEnums.SolutionProgress",
              "name": "progress",
              "type": "uint8"
            },
            {
              "internalType": "uint256",
              "name": "score",
              "type": "uint256"
            }
          ],
          "internalType": "struct SolutionManager.Solution",
          "name": "",
          "type": "tuple"
        }
      ],
      "stateMutability": "view",
      "type": "function"
    },
    {
      "inputs": [
        {
          "internalType": "address",
          "name": "_user_address",
          "type": "address"
        },
        {
          "internalType": "bytes32",
          "name": "_challenge_id",
          "type": "bytes32"
        }
      ],
      "name": "getSolutionByUserAndChallengeId",
      "outputs": [
        {
          "components": [
            {
              "internalType": "bytes32",
              "name": "id",
              "type": "bytes32"
            },
            {
              "internalType": "address",
              "name": "user",
              "type": "address"
            },
            {
              "internalType": "bytes32",
              "name": "challenge_id",
              "type": "bytes32"
            },
            {
              "internalType": "string",
              "name": "solution_txid",
              "type": "string"
            },
            {
              "internalType": "uint256",
              "name": "created_at",
              "type": "uint256"
            },
            {
              "internalType": "uint256",
              "name": "submitted_at",
              "type": "uint256"
            },
            {
              "internalType": "enum SystemEnums.SolutionProgress",
              "name": "progress",
              "type": "uint8"
            },
            {
              "internalType": "uint256",
              "name": "score",
              "type": "uint256"
            }
          ],
          "internalType": "struct SolutionManager.Solution",
          "name": "",
          "type": "tuple"
        }
      ],
      "stateMutability": "view",
      "type": "function"
    },
    {
      "inputs": [
        {
          "internalType": "bytes32",
          "name": "_solution_id",
          "type": "bytes32"
        }
      ],
      "name": "getSolutionTxIdById",
      "outputs": [
        {
          "internalType": "string",
          "name": "",
          "type": "string"
        }
      ],
      "stateMutability": "view",
      "type": "function"
    },
    {
      "inputs": [
        {
          "internalType": "address",
          "name": "_user_address",
          "type": "address"
        },
        {
          "internalType": "bytes32",
          "name": "_challenge_id",
          "type": "bytes32"
        }
      ],
      "name": "getSolutionTxIdByUserAndChallengeId",
      "outputs": [
        {
          "internalType": "string",
          "name": "",
          "type": "string"
        }
      ],
      "stateMutability": "view",
      "type": "function"
    },
    {
      "inputs": [
        {
          "internalType": "bytes32",
          "name": "_solution_id",
          "type": "bytes32"
        }
      ],
      "name": "getSubmittedEvaluators",
      "outputs": [
        {
          "internalType": "address[]",
          "name": "",
          "type": "address[]"
        }
      ],
      "stateMutability": "view",
      "type": "function"
    },
    {
      "inputs": [
        {
          "internalType": "bytes32",
          "name": "_solution_id",
          "type": "bytes32"
        }
      ],
      "name": "getTimestampEvaluationCompleted",
      "outputs": [
        {
          "internalType": "uint256",
          "name": "",
          "type": "uint256"
        }
      ],
      "stateMutability": "view",
      "type": "function"
    },
    {
      "inputs": [
        {
          "internalType": "address",
          "name": "_evaluator_address",
          "type": "address"
        },
        {
          "internalType": "bytes32",
          "name": "_solution_id",
          "type": "bytes32"
        }
      ],
      "name": "getTimestampScoreSubmittedByEvaluator",
      "outputs": [
        {
          "internalType": "uint256",
          "name": "",
          "type": "uint256"
        }
      ],
      "stateMutability": "view",
      "type": "function"
    },
    {
      "inputs": [],
      "name": "getUnderReviewSolution",
      "outputs": [
        {
          "components": [
            {
              "internalType": "bytes32",
              "name": "id",
              "type": "bytes32"
            },
            {
              "internalType": "address",
              "name": "user",
              "type": "address"
            },
            {
              "internalType": "bytes32",
              "name": "challenge_id",
              "type": "bytes32"
            },
            {
              "internalType": "string",
              "name": "solution_txid",
              "type": "string"
            },
            {
              "internalType": "uint256",
              "name": "created_at",
              "type": "uint256"
            },
            {
              "internalType": "uint256",
              "name": "submitted_at",
              "type": "uint256"
            },
            {
              "internalType": "enum SystemEnums.SolutionProgress",
              "name": "progress",
              "type": "uint8"
            },
            {
              "internalType": "uint256",
              "name": "score",
              "type": "uint256"
            }
          ],
          "internalType": "struct SolutionManager.Solution[]",
          "name": "",
          "type": "tuple[]"
        }
      ],
      "stateMutability": "view",
      "type": "function"
    },
    {
      "inputs": [
        {
          "internalType": "bytes32",
          "name": "role",
          "type": "bytes32"
        },
        {
          "internalType": "address",
          "name": "account",
          "type": "address"
        }
      ],
      "name": "grantRole",
      "outputs": [],
      "stateMutability": "nonpayable",
      "type": "function"
    },
    {
      "inputs": [
        {
          "internalType": "bytes32",
          "name": "role",
          "type": "bytes32"
        },
        {
          "internalType": "address",
          "name": "account",
          "type": "address"
        }
      ],
      "name": "hasRole",
      "outputs": [
        {
          "internalType": "bool",
          "name": "",
          "type": "bool"
        }
      ],
      "stateMutability": "view",
      "type": "function"
    },
    {
      "inputs": [
        {
          "internalType": "bytes32",
          "name": "_challenge_id",
          "type": "bytes32"
        }
      ],
      "name": "putSolutionUnderReview",
      "outputs": [],
      "stateMutability": "nonpayable",
      "type": "function"
    },
    {
      "inputs": [
        {
          "internalType": "bytes32",
          "name": "role",
          "type": "bytes32"
        },
        {
          "internalType": "address",
          "name": "callerConfirmation",
          "type": "address"
        }
      ],
      "name": "renounceRole",
      "outputs": [],
      "stateMutability": "nonpayable",
      "type": "function"
    },
    {
      "inputs": [
        {
          "internalType": "bytes32",
          "name": "role",
          "type": "bytes32"
        },
        {
          "internalType": "address",
          "name": "account",
          "type": "address"
        }
      ],
      "name": "revokeRole",
      "outputs": [],
      "stateMutability": "nonpayable",
      "type": "function"
    },
    {
      "inputs": [
        {
          "internalType": "address",
          "name": "_address",
          "type": "address"
        }
      ],
      "name": "setChallengeManagerAddress",
      "outputs": [],
      "stateMutability": "nonpayable",
      "type": "function"
    },
    {
      "inputs": [
        {
          "internalType": "address",
          "name": "_address",
          "type": "address"
        }
      ],
      "name": "setReputationManagerAddress",
      "outputs": [],
      "stateMutability": "nonpayable",
      "type": "function"
    },
    {
      "inputs": [
        {
          "internalType": "address",
          "name": "_address",
          "type": "address"
        }
      ],
      "name": "setRoleManagerAddress",
      "outputs": [],
      "stateMutability": "nonpayable",
      "type": "function"
    },
    {
      "inputs": [
        {
          "internalType": "bytes32",
          "name": "_challenge_id",
          "type": "bytes32"
        }
      ],
      "name": "submitSolution",
      "outputs": [],
      "stateMutability": "nonpayable",
      "type": "function"
    },
    {
      "inputs": [
        {
          "internalType": "bytes4",
          "name": "interfaceId",
          "type": "bytes4"
        }
      ],
      "name": "supportsInterface",
      "outputs": [
        {
          "internalType": "bool",
          "name": "",
          "type": "bool"
        }
      ],
      "stateMutability": "view",
      "type": "function"
    },
    {
      "inputs": [
        {
          "internalType": "address",
          "name": "",
          "type": "address"
        },
        {
          "internalType": "bytes32",
          "name": "",
          "type": "bytes32"
        }
      ],
      "name": "user_challenge_to_solution",
      "outputs": [
        {
          "internalType": "bytes32",
          "name": "",
          "type": "bytes32"
        }
      ],
      "stateMutability": "view",
      "type": "function"
    }
  ],
  "bytecode": "0x6080604052346024576000600e556014336029565b5060405161281b90816100b78239f35b600080fd5b6001600160a01b03811660009081526000805160206128d2833981519152602052604090205460ff1660b0576001600160a01b031660008181526000805160206128d283398151915260205260408120805460ff191660011790553391907f2f8788117e7eff1d82e926ec794901d17c78024a50270940304540a733656f0d8180a4600190565b5060009056fe608080604052600436101561001357600080fd5b600090813560e01c90816301ffc9a714611fdb57508063159d736414611ef75780631bd7fcc314611ec9578063248a9ca314611e9b57806325d7253c14611e6e5780632f2ff15d14611e2d5780633271c42e14611b6a57806336568abe14611b255780633cdfd3c914611adc57806342b27bff14611a515780634c5efc9214611a275780637c0d66e0146119965780637ec859b71461194a5780638793331b146118fe5780638c708dd31461184857806391d1485414611800578063927cab5b146117a05780639606e6301461165f578063a217fddf14611643578063a3fcd25414611561578063b16b5ff1146112c5578063b450a99d146111b4578063bbb06a4814611071578063bc8e0b6f14610feb578063c361e8cf14610f8b578063c80404c214610f54578063cf9da4ec14610f11578063d2626c1e14610df9578063d31ce508146105dc578063d547741f14610592578063dc1743fa1461049e578063e4592e4a14610471578063eb3cd29f1461037e578063ee01d8e61461031e5763fd1eb1bf146101a257600080fd5b3461031b57602036600319011261031b576004353382526003602052604082208183526020526101d860ff6040842054166125f1565b338252600260205260408220908252602052604081205480825260016020526006604083200160ff8154166004811015610307576001036102c957600260ff19825416179055808252600560205281600160408220600381550155808252600660205260408220600160ff19825416179055600754600160401b8110156102b55761028661026f82600185940160075560076124b0565b819391549060031b91821b91600019901b19161790565b90557fef12b7b2a9579593470047f90fe49ebef92efaeac7893264cb78568a064bb36a6020604051428152a280f35b634e487b7160e01b83526041600452602483fd5b60405162461bcd60e51b815260206004820152601660248201527514dbdb1d5d1a5bdb881b9bdd081cdd589b5a5d1d195960521b6044820152606490fd5b634e487b7160e01b84526021600452602484fd5b80fd5b503461031b57602036600319011261031b57610338612038565b61034061263d565b6001600160a01b03166103548115156124c8565b806001600160601b0360a01b60095416176009556001600160601b0360a01b600854161760085580f35b503461031b57604036600319011261031b576001600160a01b036103a0612038565b1681526002602052604081206024358252602052604081205481526001602052604081206040516103d0816121cd565b8154815260018201546001600160a01b03166020820152600282015460408201526103fd60038301612292565b6060820152600482015460808201908152600583015460a083015260ff60068401541692600484101561045d579360e060076060968660c087015201549301928352505190519061045160405180946120aa565b60208301526040820152f35b634e487b7160e01b85526021600452602485fd5b503461031b57602036600319011261031b5760016040602092600435815260058452200154604051908152f35b503461031b57602036600319011261031b576004353382526003602052604082208183526020526104d560ff6040842054166125f1565b3382526002602052604082209082526020526040812054808252600160205260408220600681019060ff825416600481101561045d5761054d57600542910155600160ff198254161790557f234631bf65ecf24a0fcd36950f8397f833936716b5980cb707b11c047bca58ee6020604051428152a280f35b60405162461bcd60e51b815260206004820152601860248201527f536f6c7574696f6e206e6f7420696e2070726f677265737300000000000000006044820152606490fd5b503461031b57604036600319011261031b576105d86004356105b2612053565b906105d36105ce82600052600060205260016040600020015490565b612690565b612756565b5080f35b503461031b57604036600319011261031b57600435602435818352600660205261060c60ff604085205416612336565b600c546001600160a01b0316610623811515612382565b60018060a01b0360085416838552600160205260206002604087200154602460405180948193632e34e4df60e01b835260048301525afa8015610b275761068b926020928792610dda575b50604051808095819463b669a8ad60e01b83523360048401612402565b03915afa8015610d1e576106a6918591610dab575b50612422565b8183526005602090815260408085203386526003810190925284205460ff1615610d6e57338452600481016020819052604085205460ff16610d29576040516106ee8161219b565b338082526020808301868152426040808601918252848b52600588018452808b20955186546001600160a01b0319166001600160a01b0391909116178655915160018681019190915590516002959095019490945591885292909252908520805460ff1916821790558101805490928491610768906125bf565b8094556040519081524260208201527f453d512811718b8c5c5e5fc79ef916ec02f21f1ae9d393d476ac17b81a141f9460403392a354146107a7575080f35b80825260066020526107bf60ff604084205416612336565b8082526001602052604082209181815260056020526040812060018060a01b036008541690600285019160208354602460405180948193632e34e4df60e01b835260048301525afa908115610d1e578491610cef575b50600282018054600a549094600585019492918790819081906001600160a01b03165b88888c8c8510610bee5750505050508115610bda5704928360078b015560068a01600360ff1982541617905560064291015587875260066020526040872060ff198154169055865b60075480821015610bcc57896108958361247f565b90549060031b1c146108aa5750600101610880565b6000999293949596979899198101908111610bb85761026f6108ce6108db9261247f565b90549060031b1c9261247f565b90556007548015610ba457600019016108f38161247f565b8154906000199060031b1b191690556007555b7ffa281b2a20644ea0a8b5457a0634e97a401849fea0b4b7c51640e8a0e653e43360408051868152426020820152a260018060a01b03600854168154813b15610ba0578891602483926040519485938492637b3b6a2560e11b845260048401525af18015610b8157610b8c575b50600a54600198909801546008549154604051631293980360e11b815260048101919091526001600160a01b03998a169991821692909160209183916024918391165afa908115610b81578891610b46575b50883b15610b0a5760405191630f61997560e21b835260048301526109ed60248301866123f5565b836044830152601e6064830152670de0b6b3a764000060848301526003811015610b3257968160c48183809c819a9b9c60a48401525af1908115610b27578591610b0e575b505b868110610a45575050505050505080f35b610a4f81836124b0565b90546001600160a01b0360039290921b1c81166000818152602089905260409020600a54600190910154921691823b15610b0a5760c4889283604051958694859363f28cdc1360e01b85526004850152610aac602485018d6123f5565b8a60448501526064840152603c6084840152670de0b6b3a764000060a48401525af1908115610aff578691610ae6575b5050600101610a34565b81610af0916121ea565b610afb578438610adc565b8480fd5b6040513d88823e3d90fd5b8780fd5b81610b18916121ea565b610b23578338610a32565b8380fd5b6040513d87823e3d90fd5b634e487b7160e01b88526021600452602488fd5b90506020813d602011610b79575b81610b61602093836121ea565b81010312610b0a57516003811015610b0a57386109c5565b3d9150610b54565b6040513d8a823e3d90fd5b87610b99919892986121ea565b9538610973565b8880fd5b634e487b7160e01b89526031600452602489fd5b634e487b7160e01b8a52601160045260248afd5b505090919293949596610906565b634e487b7160e01b89526012600452602489fd5b610c3e916040602092610c07888d9b9a9798999b6124b0565b905460039190911b1c6001600160a01b031680825296845220604051630cf571c160e11b8152909590938492839260048401612402565b0381875afa908115610ce4578d91610caf575b508c811215610ca6575060018c925b01549082820291808304841490151715610c925791610c84610c8a926001946127d8565b946127d8565b930190610838565b634e487b7160e01b8d52601160045260248dfd5b60019092610c60565b90506020813d8211610cdc575b81610cc9602093836121ea565b81010312610cd8575138610c51565b8c80fd5b3d9150610cbc565b6040513d8f823e3d90fd5b610d11915060203d602011610d17575b610d0981836121ea565b8101906123c5565b38610815565b503d610cff565b6040513d86823e3d90fd5b60405162461bcd60e51b815260206004820152601760248201527f416c7265616479207375626d69747465642073636f72650000000000000000006044820152606490fd5b60405162461bcd60e51b81526020600482015260156024820152742737ba103537b4b732b21032bb30b63ab0ba34b7b760591b6044820152606490fd5b610dcd915060203d602011610dd3575b610dc581836121ea565b8101906123dd565b386106a0565b503d610dbb565b610df2919250833d8511610d1757610d0981836121ea565b903861066e565b503461031b57604036600319011261031b57610e13612038565b60243590610e1f61251e565b5060018060a01b0316808352600360205260408320828452602052610e4a60ff6040852054166125f1565b8252600260205260408220908252602052604081205481526001602052604081209060405190610e79826121cd565b8254825260018301546001600160a01b0316602083015260028301546040830152610ea660038401612292565b606083015260048301546080830152600583015460a083015260ff600684015416906004821015610efd5750610ef99260079160c0840152015460e08201526040519182916020835260208301906120cd565b0390f35b634e487b7160e01b81526021600452602490fd5b503461031b57604036600319011261031b576020906040906001600160a01b03610f39612038565b16815260028352818120602435825283522054604051908152f35b503461031b57602036600319011261031b57610f6e61251e565b5060043581526001602052604081209060405190610e79826121cd565b503461031b57602036600319011261031b57610fa5612038565b610fad61263d565b6001600160a01b0316610fc18115156124c8565b806001600160601b0360a01b600b541617600b556001600160601b0360a01b600a541617600a5580f35b503461031b57604036600319011261031b5761105d60036040610ef993611010612038565b6024359060018060a01b03168083528460205283832082845260205261103b60ff85852054166125f1565b8252600260205282822090825260205281812054815260016020522001612292565b604051918291602083526020830190612069565b503461031b57604036600319011261031b5761108b612038565b90602435808252600160205260ff60066040842001541660048110156111a05760030361115b578082526005602081815260408085206001600160a01b0387168652600381018352908520549195909160ff168061113b575b6110ed9061220c565b6001600160a01b031684520183526040808320600190810154928452845290912060070154908181111561112d5790611125916125e4565b604051908152f35b611136916125e4565b611125565b506001600160a01b0381168552600482018652604085205460ff166110e4565b60405162461bcd60e51b815260206004820152601a60248201527f536f6c7574696f6e206e6f7420796574206576616c75617465640000000000006044820152606490fd5b634e487b7160e01b83526021600452602483fd5b503461031b57602036600319011261031b5760043581526005602052604081206002810180546001830154916112026111ec84612506565b936111fa60405195866121ea565b808552612506565b602084019490601f190136863785916004879201915b84811061126c57878688604051928392602084019060208552518091526040840192915b81811061124a575050500390f35b82516001600160a01b031684528594506020938401939092019160010161123c565b61127681836124b0565b905460039190911b1c6001600160a01b03168089526020849052604089205460ff166112a6575b50600101611218565b846112be916112b8600194978a6125ab565b526125bf565b939061129d565b503461031b57608036600319011261031b576112df612038565b6024356044359167ffffffffffffffff8311610b235736602384011215610b235782600401359267ffffffffffffffff8411610afb573660248583010111610afb5760643593604051602081019060018060a01b038516946001600160601b03199060601b168252856034820152866054820152605481526113626074826121ea565b519020948587526001602052604087209686885560018801856001600160601b0360a01b82541617905585600289015560038801976113a18954612258565b601f811161151c575b5060209882601f861160011461148a579260068693606096936024987fe7c6470942bc399a7954dd58842739ae92fff350250781d776aa1efa5f5c65e89a97859161147d575b508660011b906000198860031b1c19161790555b8360048201550160ff19815416905587815260028b52604081208982528b5289604082205587815260038b52604081208982528b5260408120600160ff198254161790558260405196879560408752826040880152018686013783830185015289830152601f01601f19168101030190a3604051908152f35b8a915088010135386113f0565b8184528a842090601f198716855b818110611502575093606096937fe7c6470942bc399a7954dd58842739ae92fff350250781d776aa1efa5f5c65e89996936006938a60249b98106114e6575b5050600186811b019055611404565b88018a0135600019600389901b60f8161c1916905538806114d7565b91928d600181926024878e01013581550194019201611498565b89835260208320601f860160051c81019160208710611557575b601f0160051c01905b81811061154c57506113aa565b83815560010161153f565b9091508190611536565b503461031b578060031936011261031b5760075461157e8161255b565b91805b8281106115965760405180610ef9868261213b565b61159f8161247f565b90549060031b1c8252600160205260408220604051906115be826121cd565b8054825260018101546001600160a01b03166020830152600281015460408301526115eb60038201612292565b606083015260048101546080830152600581015460a083015260ff600682015416600481101561045d5760c08301526007015460e08201526001919061163182876125ab565b5261163c81866125ab565b5001611581565b503461031b578060031936011261031b57602090604051908152f35b503461031b57602036600319011261031b576001600160a01b03611681612038565b1681526004602052604081206040518082602082945493848152019085526020852092855b8181106117875750506116bb925003826121ea565b6116c5815161255b565b91805b8251811015611779576116db81846125ab565b518252600160205260408220604051906116f4826121cd565b8054825260018101546001600160a01b031660208301526002810154604083015261172160038201612292565b606083015260048101546080830152600581015460a083015260ff600682015416600481101561045d5760c08301526007015460e08201526001919061176782876125ab565b5261177281866125ab565b50016116c8565b60405180610ef9868261213b565b84548352600194850194869450602090930192016116a6565b503461031b57602036600319011261031b576117ba612038565b6117c261263d565b6001600160a01b03166117d68115156124c8565b806001600160601b0360a01b600d541617600d556001600160601b0360a01b600c541617600c5580f35b503461031b57604036600319011261031b5760ff6040602092611821612053565b60043582528185528282206001600160a01b03909116825284522054604051911615158152f35b503461031b57602036600319011261031b5760043590818152600160205260ff60066040832001541660048110156118ea5760030361189a576040816020936006935260058452200154604051908152f35b60405162461bcd60e51b815260206004820152602260248201527f536f6c7574696f6e206861736e2774206265656e206576616c75617465642079604482015261195d60f21b6064820152608490fd5b634e487b7160e01b82526021600452602482fd5b503461031b57604036600319011261031b5760ff604060209261191f612038565b6024358252600585528282206001600160a01b03909116825260030184522054604051911615158152f35b503461031b57604036600319011261031b5760ff604060209261196b612038565b6024358252600585528282206001600160a01b03909116825260040184522054604051911615158152f35b503461031b57604036600319011261031b576002604060209260056119b9612038565b60243583528186528383206001600160a01b03821684526003810187528484205490919060ff1680611a08575b6119ef9061220c565b6001600160a01b03168352018452200154604051908152f35b506001600160a01b03811684526004820187528484205460ff166119e6565b503461031b57602036600319011261031b5760406020916004358152600583522054604051908152f35b503461031b57604036600319011261031b57600160406020926005611a74612038565b602435835281865283832090858060a01b038116845260038201875260ff858520541680611abd575b611aa69061220c565b858060a01b03168352018452200154604051908152f35b5060a086901b869003811684526004820187528484205460ff16611a9d565b503461031b57604036600319011261031b5760209060ff906040906001600160a01b03611b07612038565b16815260038452818120602435825284522054166040519015158152f35b503461031b57604036600319011261031b57611b3f612053565b336001600160a01b03821603611b5b576105d890600435612756565b63334bd91960e11b8252600482fd5b503461031b57602036600319011261031b576004358082526006602052611b9760ff604084205416612336565b600c546001600160a01b0316611bae811515612382565b60018060a01b0360085416828452600160205260206002604086200154602460405180948193632e34e4df60e01b835260048301525afa8015610d1e57611c15926020928692610dda5750604051808095819463b669a8ad60e01b83523360048401612402565b03915afa8015611e2257611c2f918491610dab5750612422565b808252600160208190526040832001546001600160a01b03163314611ddd5780825260056020908152604080842033855260038101928390529084205460ff16611d98576002810190815490541115611d5c57338452600460205260408420805490600160401b821015611d485761026f82611cb192600188950181556124b0565b9055805490600160401b821015611d345790611cd2916001820181556124b0565b81546001600160a01b0360039290921b91821b1916339182901b1790915580845260209182526040808520805460ff191660011790555142815290917f617ef2e1779b9097b1936bb1d4c9b068575eefd947525aa9c61d477329c08ed891a380f35b634e487b7160e01b85526041600452602485fd5b634e487b7160e01b86526041600452602486fd5b60405162461bcd60e51b8152602060048201526014602482015273115d985b1d585d1a5bdb881c1bdbdb08199d5b1b60621b6044820152606490fd5b60405162461bcd60e51b815260206004820152601960248201527f416c7265616479206a6f696e6564206576616c756174696f6e000000000000006044820152606490fd5b60405162461bcd60e51b815260206004820152601c60248201527f43616e6e6f74206576616c75617465206f776e20736f6c7574696f6e000000006044820152606490fd5b6040513d85823e3d90fd5b503461031b57604036600319011261031b576105d8600435611e4d612053565b90611e696105ce82600052600060205260016040600020015490565b6126cb565b503461031b57602036600319011261031b5760026040602092600435815260058452200154604051908152f35b503461031b57602036600319011261031b576020611125600435600052600060205260016040600020015490565b503461031b57602036600319011261031b5761105d60036040610ef993600435815260016020522001612292565b503461031b57604036600319011261031b5760406060916005611f18612038565b82848051611f258161219b565b82815282602082015201526024358352816020528383209060018060a01b03811684526003820160205260ff858520541680611fbb575b611f659061220c565b6001600160a01b031683520160205220604051611f818161219b565b60018060a01b0382541691828252604060026001830154926020850193845201549201918252604051928352516020830152516040820152f35b506001600160a01b0381168452600482016020528484205460ff16611f5c565b9050346120345760203660031901126120345760043563ffffffff60e01b81168091036120305760209250637965db0b60e01b811490811561201f575b5015158152f35b6301ffc9a760e01b14905038612018565b8280fd5b5080fd5b600435906001600160a01b038216820361204e57565b600080fd5b602435906001600160a01b038216820361204e57565b919082519283825260005b848110612095575050826000602080949584010152601f8019910116010190565b80602080928401015182828601015201612074565b9060048210156120b75752565b634e487b7160e01b600052602160045260246000fd5b908151815260018060a01b0360208301511660208201526040820151604082015260e08061210c60608501516101006060860152610100850190612069565b936080810151608085015260a081015160a085015261213360c082015160c08601906120aa565b015191015290565b602081016020825282518091526040820191602060408360051b8301019401926000915b83831061216e57505050505090565b909192939460208061218c600193603f1986820301875289516120cd565b9701930193019193929061215f565b6060810190811067ffffffffffffffff8211176121b757604052565b634e487b7160e01b600052604160045260246000fd5b610100810190811067ffffffffffffffff8211176121b757604052565b90601f8019910116810190811067ffffffffffffffff8211176121b757604052565b1561221357565b60405162461bcd60e51b815260206004820152601d60248201527f4576616c7561746f72206e6f74207375626d69747465642073636f72650000006044820152606490fd5b90600182811c92168015612288575b602083101461227257565b634e487b7160e01b600052602260045260246000fd5b91607f1691612267565b90604051918260008254926122a684612258565b808452936001811690811561231457506001146122cd575b506122cb925003836121ea565b565b90506000929192526020600020906000915b8183106122f85750509060206122cb92820101386122be565b60209193508060019154838589010152019101909184926122df565b9050602092506122cb94915060ff191682840152151560051b820101386122be565b1561233d57565b60405162461bcd60e51b815260206004820152601960248201527f536f6c7574696f6e206e6f7420756e64657220726576696577000000000000006044820152606490fd5b1561238957565b60405162461bcd60e51b8152602060048201526014602482015273149bdb19481b585b9859d95c881b9bdd081cd95d60621b6044820152606490fd5b9081602091031261204e5751600e81101561204e5790565b9081602091031261204e5751801515810361204e5790565b90600e8210156120b75752565b6001600160a01b0390911681526040810192916122cb91602001906123f5565b1561242957565b60405162461bcd60e51b815260206004820152602860248201527f596f7520617265206e6f7420616e206576616c7561746f7220666f722074686960448201526739903237b6b0b4b760c11b6064820152608490fd5b60075481101561249a57600760005260206000200190600090565b634e487b7160e01b600052603260045260246000fd5b805482101561249a5760005260206000200190600090565b156124cf57565b60405162461bcd60e51b815260206004820152600f60248201526e496e76616c6964206164647265737360881b6044820152606490fd5b67ffffffffffffffff81116121b75760051b60200190565b6040519061252b826121cd565b600060e0838281528260208201528260408201526060808201528260808201528260a08201528260c08201520152565b9061256582612506565b61257260405191826121ea565b8281528092612583601f1991612506565b019060005b82811061259457505050565b60209061259f61251e565b82828501015201612588565b805182101561249a5760209160051b010190565b60001981146125ce5760010190565b634e487b7160e01b600052601160045260246000fd5b919082039182116125ce57565b156125f857565b60405162461bcd60e51b815260206004820152601960248201527f55736572206e6f74206a6f696e6564206368616c6c656e6765000000000000006044820152606490fd5b3360009081527fad3228b676f7d3cd4284a5443f17f1962b36e491b30a40b2405849e597ba5fb5602052604090205460ff161561267657565b63e2517d3f60e01b60005233600452600060245260446000fd5b60008181526020818152604080832033845290915290205460ff16156126b35750565b63e2517d3f60e01b6000523360045260245260446000fd5b6000818152602081815260408083206001600160a01b038616845290915290205460ff1661274f576000818152602081815260408083206001600160a01b0395909516808452949091528120805460ff19166001179055339291907f2f8788117e7eff1d82e926ec794901d17c78024a50270940304540a733656f0d9080a4600190565b5050600090565b6000818152602081815260408083206001600160a01b038616845290915290205460ff161561274f576000818152602081815260408083206001600160a01b0395909516808452949091528120805460ff19169055339291907ff6391f5c32d9c69d2a47ea670b442974b53935d1edc7fd64eb21e047a839171b9080a4600190565b919082018092116125ce5756fea26469706673582212202d37c4c66fb24d5b64646fb9b90bf3d61925b55a0638bba2766f8ad76ac2dd0064736f6c634300081a0033ad3228b676f7d3cd4284a5443f17f1962b36e491b30a40b2405849e597ba5fb5",
  "linkReferences": {},
  "deployedLinkReferences": {}
}