{
  "_format": "hh-sol-artifact-1",
  "contractName": "SolutionManager",
  "sourceName": "contracts/SolutionManager.sol",
  "abi": [
    {
      "inputs": [],
      "stateMutability": "nonpayable",
      "type": "constructor"
    },
    {
      "inputs": [],
      "name": "AccessControlBadConfirmation",
      "type": "error"
    },
    {
      "inputs": [
        {
          "internalType": "address",
          "name": "account",
          "type": "address"
        },
        {
          "internalType": "bytes32",
          "name": "neededRole",
          "type": "bytes32"
        }
      ],
      "name": "AccessControlUnauthorizedAccount",
      "type": "error"
    },
    {
      "anonymous": false,
      "inputs": [
        {
          "indexed": true,
          "internalType": "bytes32",
          "name": "role",
          "type": "bytes32"
        },
        {
          "indexed": true,
          "internalType": "bytes32",
          "name": "previousAdminRole",
          "type": "bytes32"
        },
        {
          "indexed": true,
          "internalType": "bytes32",
          "name": "newAdminRole",
          "type": "bytes32"
        }
      ],
      "name": "RoleAdminChanged",
      "type": "event"
    },
    {
      "anonymous": false,
      "inputs": [
        {
          "indexed": true,
          "internalType": "bytes32",
          "name": "role",
          "type": "bytes32"
        },
        {
          "indexed": true,
          "internalType": "address",
          "name": "account",
          "type": "address"
        },
        {
          "indexed": true,
          "internalType": "address",
          "name": "sender",
          "type": "address"
        }
      ],
      "name": "RoleGranted",
      "type": "event"
    },
    {
      "anonymous": false,
      "inputs": [
        {
          "indexed": true,
          "internalType": "bytes32",
          "name": "role",
          "type": "bytes32"
        },
        {
          "indexed": true,
          "internalType": "address",
          "name": "account",
          "type": "address"
        },
        {
          "indexed": true,
          "internalType": "address",
          "name": "sender",
          "type": "address"
        }
      ],
      "name": "RoleRevoked",
      "type": "event"
    },
    {
      "anonymous": false,
      "inputs": [
        {
          "indexed": true,
          "internalType": "address",
          "name": "user_address",
          "type": "address"
        },
        {
          "indexed": true,
          "internalType": "uint256",
          "name": "challenge_id",
          "type": "uint256"
        },
        {
          "indexed": false,
          "internalType": "string",
          "name": "solution_base_txid",
          "type": "string"
        },
        {
          "indexed": false,
          "internalType": "uint256",
          "name": "created_at",
          "type": "uint256"
        }
      ],
      "name": "SolutionBaseCreated",
      "type": "event"
    },
    {
      "anonymous": false,
      "inputs": [
        {
          "indexed": true,
          "internalType": "uint256",
          "name": "solution_id",
          "type": "uint256"
        },
        {
          "indexed": false,
          "internalType": "uint256",
          "name": "score",
          "type": "uint256"
        },
        {
          "indexed": false,
          "internalType": "uint256",
          "name": "finalized_at",
          "type": "uint256"
        }
      ],
      "name": "SolutionEvaluationFinalized",
      "type": "event"
    },
    {
      "anonymous": false,
      "inputs": [
        {
          "indexed": true,
          "internalType": "address",
          "name": "evaluator",
          "type": "address"
        },
        {
          "indexed": true,
          "internalType": "uint256",
          "name": "solution_id",
          "type": "uint256"
        },
        {
          "indexed": false,
          "internalType": "uint256",
          "name": "joined_at",
          "type": "uint256"
        }
      ],
      "name": "SolutionJoinedByEvaluator",
      "type": "event"
    },
    {
      "anonymous": false,
      "inputs": [
        {
          "indexed": true,
          "internalType": "uint256",
          "name": "solution_id",
          "type": "uint256"
        },
        {
          "indexed": false,
          "internalType": "uint256",
          "name": "initialized_at",
          "type": "uint256"
        }
      ],
      "name": "SolutionPoolInitialized",
      "type": "event"
    },
    {
      "anonymous": false,
      "inputs": [
        {
          "indexed": true,
          "internalType": "address",
          "name": "evaluator",
          "type": "address"
        },
        {
          "indexed": true,
          "internalType": "uint256",
          "name": "solution_id",
          "type": "uint256"
        },
        {
          "indexed": false,
          "internalType": "uint256",
          "name": "score",
          "type": "uint256"
        },
        {
          "indexed": false,
          "internalType": "uint256",
          "name": "submitted_at",
          "type": "uint256"
        }
      ],
      "name": "SolutionScoreSubmittedByEvaluator",
      "type": "event"
    },
    {
      "anonymous": false,
      "inputs": [
        {
          "indexed": true,
          "internalType": "uint256",
          "name": "solution_id",
          "type": "uint256"
        },
        {
          "indexed": false,
          "internalType": "uint256",
          "name": "submitted_at",
          "type": "uint256"
        }
      ],
      "name": "SolutionSubmitted",
      "type": "event"
    },
    {
      "inputs": [],
      "name": "DEFAULT_ADMIN_ROLE",
      "outputs": [
        {
          "internalType": "bytes32",
          "name": "",
          "type": "bytes32"
        }
      ],
      "stateMutability": "view",
      "type": "function"
    },
    {
      "inputs": [
        {
          "internalType": "address",
          "name": "_evaluator_address",
          "type": "address"
        },
        {
          "internalType": "uint256",
          "name": "_solution_id",
          "type": "uint256"
        }
      ],
      "name": "checkEvaluatorJoinedSolution",
      "outputs": [
        {
          "internalType": "bool",
          "name": "",
          "type": "bool"
        }
      ],
      "stateMutability": "view",
      "type": "function"
    },
    {
      "inputs": [
        {
          "internalType": "address",
          "name": "_evaluator_address",
          "type": "address"
        },
        {
          "internalType": "uint256",
          "name": "_solution_id",
          "type": "uint256"
        }
      ],
      "name": "checkEvalutorSubmittedScore",
      "outputs": [
        {
          "internalType": "bool",
          "name": "",
          "type": "bool"
        }
      ],
      "stateMutability": "view",
      "type": "function"
    },
    {
      "inputs": [
        {
          "internalType": "address",
          "name": "_user_address",
          "type": "address"
        },
        {
          "internalType": "uint256",
          "name": "_challenge_id",
          "type": "uint256"
        }
      ],
      "name": "checkUserJoinedChallenge",
      "outputs": [
        {
          "internalType": "bool",
          "name": "",
          "type": "bool"
        }
      ],
      "stateMutability": "view",
      "type": "function"
    },
    {
      "inputs": [
        {
          "internalType": "address",
          "name": "_user_address",
          "type": "address"
        },
        {
          "internalType": "uint256",
          "name": "_challenge_id",
          "type": "uint256"
        },
        {
          "internalType": "string",
          "name": "_solution_base_txid",
          "type": "string"
        },
        {
          "internalType": "uint256",
          "name": "_created_at",
          "type": "uint256"
        }
      ],
      "name": "createSolutionBase",
      "outputs": [],
      "stateMutability": "nonpayable",
      "type": "function"
    },
    {
      "inputs": [
        {
          "internalType": "uint256",
          "name": "_solution_id",
          "type": "uint256"
        }
      ],
      "name": "evaluatorJoinSolution",
      "outputs": [],
      "stateMutability": "nonpayable",
      "type": "function"
    },
    {
      "inputs": [
        {
          "internalType": "uint256",
          "name": "_solution_id",
          "type": "uint256"
        },
        {
          "internalType": "uint256",
          "name": "_score",
          "type": "uint256"
        }
      ],
      "name": "evaluatorSubmitScore",
      "outputs": [],
      "stateMutability": "nonpayable",
      "type": "function"
    },
    {
      "inputs": [
        {
          "internalType": "address",
          "name": "_evaluator_address",
          "type": "address"
        },
        {
          "internalType": "uint256",
          "name": "_solution_id",
          "type": "uint256"
        }
      ],
      "name": "getEvaluationDeviation",
      "outputs": [
        {
          "internalType": "uint256",
          "name": "",
          "type": "uint256"
        }
      ],
      "stateMutability": "view",
      "type": "function"
    },
    {
      "inputs": [
        {
          "internalType": "uint256",
          "name": "_solution_id",
          "type": "uint256"
        }
      ],
      "name": "getMaxEvaluatorsForSolution",
      "outputs": [
        {
          "internalType": "uint256",
          "name": "",
          "type": "uint256"
        }
      ],
      "stateMutability": "view",
      "type": "function"
    },
    {
      "inputs": [
        {
          "internalType": "uint256",
          "name": "_solution_id",
          "type": "uint256"
        }
      ],
      "name": "getNumberOfJoinedEvaluators",
      "outputs": [
        {
          "internalType": "uint256",
          "name": "",
          "type": "uint256"
        }
      ],
      "stateMutability": "view",
      "type": "function"
    },
    {
      "inputs": [
        {
          "internalType": "uint256",
          "name": "_solution_id",
          "type": "uint256"
        }
      ],
      "name": "getNumberOfSubmittedEvaluations",
      "outputs": [
        {
          "internalType": "uint256",
          "name": "",
          "type": "uint256"
        }
      ],
      "stateMutability": "view",
      "type": "function"
    },
    {
      "inputs": [
        {
          "internalType": "bytes32",
          "name": "role",
          "type": "bytes32"
        }
      ],
      "name": "getRoleAdmin",
      "outputs": [
        {
          "internalType": "bytes32",
          "name": "",
          "type": "bytes32"
        }
      ],
      "stateMutability": "view",
      "type": "function"
    },
    {
      "inputs": [
        {
          "internalType": "address",
          "name": "_evaluator_address",
          "type": "address"
        },
        {
          "internalType": "uint256",
          "name": "_solution_id",
          "type": "uint256"
        }
      ],
      "name": "getScoreSubmittedByEvaluator",
      "outputs": [
        {
          "internalType": "uint256",
          "name": "",
          "type": "uint256"
        }
      ],
      "stateMutability": "view",
      "type": "function"
    },
    {
      "inputs": [
        {
          "internalType": "address",
          "name": "_evaluator_address",
          "type": "address"
        }
      ],
      "name": "getSolutionByEvaluator",
      "outputs": [
        {
          "components": [
            {
              "internalType": "uint256",
              "name": "id",
              "type": "uint256"
            },
            {
              "internalType": "address",
              "name": "submitter",
              "type": "address"
            },
            {
              "internalType": "string",
              "name": "challenge_title_url",
              "type": "string"
            },
            {
              "internalType": "enum SystemEnums.Domain",
              "name": "domain",
              "type": "uint8"
            },
            {
              "internalType": "string",
              "name": "solution_txid",
              "type": "string"
            },
            {
              "internalType": "uint256",
              "name": "submitted_at",
              "type": "uint256"
            },
            {
              "internalType": "enum SystemEnums.SolutionProgress",
              "name": "progress",
              "type": "uint8"
            },
            {
              "internalType": "uint256",
              "name": "number_of_joined_evaluators",
              "type": "uint256"
            },
            {
              "internalType": "uint256",
              "name": "total_evaluators",
              "type": "uint256"
            }
          ],
          "internalType": "struct SolutionManager.UnderReviewSolutionPreview[]",
          "name": "",
          "type": "tuple[]"
        }
      ],
      "stateMutability": "view",
      "type": "function"
    },
    {
      "inputs": [
        {
          "internalType": "uint256",
          "name": "_solution_id",
          "type": "uint256"
        }
      ],
      "name": "getSolutionById",
      "outputs": [
        {
          "components": [
            {
              "internalType": "uint256",
              "name": "id",
              "type": "uint256"
            },
            {
              "internalType": "address",
              "name": "user",
              "type": "address"
            },
            {
              "internalType": "uint256",
              "name": "challenge_id",
              "type": "uint256"
            },
            {
              "internalType": "string",
              "name": "solution_txid",
              "type": "string"
            },
            {
              "internalType": "uint256",
              "name": "created_at",
              "type": "uint256"
            },
            {
              "internalType": "uint256",
              "name": "submitted_at",
              "type": "uint256"
            },
            {
              "internalType": "enum SystemEnums.SolutionProgress",
              "name": "progress",
              "type": "uint8"
            },
            {
              "internalType": "uint256",
              "name": "score",
              "type": "uint256"
            }
          ],
          "internalType": "struct SolutionManager.Solution",
          "name": "",
          "type": "tuple"
        }
      ],
      "stateMutability": "view",
      "type": "function"
    },
    {
      "inputs": [
        {
          "internalType": "address",
          "name": "_user_address",
          "type": "address"
        },
        {
          "internalType": "uint256",
          "name": "_challenge_id",
          "type": "uint256"
        }
      ],
      "name": "getSolutionByUserAndChallengeId",
      "outputs": [
        {
          "components": [
            {
              "internalType": "uint256",
              "name": "id",
              "type": "uint256"
            },
            {
              "internalType": "address",
              "name": "user",
              "type": "address"
            },
            {
              "internalType": "uint256",
              "name": "challenge_id",
              "type": "uint256"
            },
            {
              "internalType": "string",
              "name": "solution_txid",
              "type": "string"
            },
            {
              "internalType": "uint256",
              "name": "created_at",
              "type": "uint256"
            },
            {
              "internalType": "uint256",
              "name": "submitted_at",
              "type": "uint256"
            },
            {
              "internalType": "enum SystemEnums.SolutionProgress",
              "name": "progress",
              "type": "uint8"
            },
            {
              "internalType": "uint256",
              "name": "score",
              "type": "uint256"
            }
          ],
          "internalType": "struct SolutionManager.Solution",
          "name": "",
          "type": "tuple"
        }
      ],
      "stateMutability": "view",
      "type": "function"
    },
    {
      "inputs": [
        {
          "internalType": "address",
          "name": "_user_address",
          "type": "address"
        },
        {
          "internalType": "uint256",
          "name": "_challenge_id",
          "type": "uint256"
        }
      ],
      "name": "getSolutionPreviewByUserAndChallengeId",
      "outputs": [
        {
          "internalType": "uint256",
          "name": "created_at",
          "type": "uint256"
        },
        {
          "internalType": "enum SystemEnums.SolutionProgress",
          "name": "progress",
          "type": "uint8"
        },
        {
          "internalType": "uint256",
          "name": "score",
          "type": "uint256"
        }
      ],
      "stateMutability": "view",
      "type": "function"
    },
    {
      "inputs": [
        {
          "internalType": "address",
          "name": "_user_address",
          "type": "address"
        },
        {
          "internalType": "uint256",
          "name": "_challenge_id",
          "type": "uint256"
        }
      ],
      "name": "getSolutionTxId",
      "outputs": [
        {
          "internalType": "string",
          "name": "",
          "type": "string"
        }
      ],
      "stateMutability": "view",
      "type": "function"
    },
    {
      "inputs": [
        {
          "internalType": "uint256",
          "name": "_solution_id",
          "type": "uint256"
        }
      ],
      "name": "getTimestampEvaluationCompleted",
      "outputs": [
        {
          "internalType": "uint256",
          "name": "",
          "type": "uint256"
        }
      ],
      "stateMutability": "view",
      "type": "function"
    },
    {
      "inputs": [
        {
          "internalType": "address",
          "name": "_evaluator_address",
          "type": "address"
        },
        {
          "internalType": "uint256",
          "name": "_solution_id",
          "type": "uint256"
        }
      ],
      "name": "getTimestampScoreSubmittedByEvaluator",
      "outputs": [
        {
          "internalType": "uint256",
          "name": "",
          "type": "uint256"
        }
      ],
      "stateMutability": "view",
      "type": "function"
    },
    {
      "inputs": [],
      "name": "getUnderReviewSolutionPreview",
      "outputs": [
        {
          "components": [
            {
              "internalType": "uint256",
              "name": "id",
              "type": "uint256"
            },
            {
              "internalType": "address",
              "name": "submitter",
              "type": "address"
            },
            {
              "internalType": "string",
              "name": "challenge_title_url",
              "type": "string"
            },
            {
              "internalType": "enum SystemEnums.Domain",
              "name": "domain",
              "type": "uint8"
            },
            {
              "internalType": "string",
              "name": "solution_txid",
              "type": "string"
            },
            {
              "internalType": "uint256",
              "name": "submitted_at",
              "type": "uint256"
            },
            {
              "internalType": "enum SystemEnums.SolutionProgress",
              "name": "progress",
              "type": "uint8"
            },
            {
              "internalType": "uint256",
              "name": "number_of_joined_evaluators",
              "type": "uint256"
            },
            {
              "internalType": "uint256",
              "name": "total_evaluators",
              "type": "uint256"
            }
          ],
          "internalType": "struct SolutionManager.UnderReviewSolutionPreview[]",
          "name": "",
          "type": "tuple[]"
        }
      ],
      "stateMutability": "view",
      "type": "function"
    },
    {
      "inputs": [
        {
          "internalType": "bytes32",
          "name": "role",
          "type": "bytes32"
        },
        {
          "internalType": "address",
          "name": "account",
          "type": "address"
        }
      ],
      "name": "grantRole",
      "outputs": [],
      "stateMutability": "nonpayable",
      "type": "function"
    },
    {
      "inputs": [
        {
          "internalType": "bytes32",
          "name": "role",
          "type": "bytes32"
        },
        {
          "internalType": "address",
          "name": "account",
          "type": "address"
        }
      ],
      "name": "hasRole",
      "outputs": [
        {
          "internalType": "bool",
          "name": "",
          "type": "bool"
        }
      ],
      "stateMutability": "view",
      "type": "function"
    },
    {
      "inputs": [
        {
          "internalType": "uint256",
          "name": "_challenge_id",
          "type": "uint256"
        }
      ],
      "name": "putSolutionUnderReview",
      "outputs": [],
      "stateMutability": "nonpayable",
      "type": "function"
    },
    {
      "inputs": [
        {
          "internalType": "bytes32",
          "name": "role",
          "type": "bytes32"
        },
        {
          "internalType": "address",
          "name": "callerConfirmation",
          "type": "address"
        }
      ],
      "name": "renounceRole",
      "outputs": [],
      "stateMutability": "nonpayable",
      "type": "function"
    },
    {
      "inputs": [
        {
          "internalType": "bytes32",
          "name": "role",
          "type": "bytes32"
        },
        {
          "internalType": "address",
          "name": "account",
          "type": "address"
        }
      ],
      "name": "revokeRole",
      "outputs": [],
      "stateMutability": "nonpayable",
      "type": "function"
    },
    {
      "inputs": [
        {
          "internalType": "address",
          "name": "_address",
          "type": "address"
        }
      ],
      "name": "setChallengeManagerAddress",
      "outputs": [],
      "stateMutability": "nonpayable",
      "type": "function"
    },
    {
      "inputs": [
        {
          "internalType": "address",
          "name": "_address",
          "type": "address"
        }
      ],
      "name": "setReputationManagerAddress",
      "outputs": [],
      "stateMutability": "nonpayable",
      "type": "function"
    },
    {
      "inputs": [
        {
          "internalType": "address",
          "name": "_address",
          "type": "address"
        }
      ],
      "name": "setRoleManagerAddress",
      "outputs": [],
      "stateMutability": "nonpayable",
      "type": "function"
    },
    {
      "inputs": [
        {
          "internalType": "uint256",
          "name": "_challenge_id",
          "type": "uint256"
        }
      ],
      "name": "submitSolution",
      "outputs": [],
      "stateMutability": "nonpayable",
      "type": "function"
    },
    {
      "inputs": [
        {
          "internalType": "bytes4",
          "name": "interfaceId",
          "type": "bytes4"
        }
      ],
      "name": "supportsInterface",
      "outputs": [
        {
          "internalType": "bool",
          "name": "",
          "type": "bool"
        }
      ],
      "stateMutability": "view",
      "type": "function"
    }
  ],
  "bytecode": "0x6080604052346024576000600e556014336029565b5060405161292390816100b78239f35b600080fd5b6001600160a01b03811660009081526000805160206129da833981519152602052604090205460ff1660b0576001600160a01b031660008181526000805160206129da83398151915260205260408120805460ff191660011790553391907f2f8788117e7eff1d82e926ec794901d17c78024a50270940304540a733656f0d8180a4600190565b5060009056fe608080604052600436101561001357600080fd5b600090813560e01c90816301ffc9a714611fa757508063048cf21714611e6c5780630bf9451214611d3a5780631346c95c14611cab578063248a9ca314611c755780632f2ff15d14611c3457806336568abe14611bef578063419fd69e14611b7b57806347f1640c14611af757806354d6592114611a4157806360332385146119f557806379be3c4c146118ab5780637e1366a71461162c5780637e427fae146115a1578063846900cf1461155857806391d1485414611510578063927cab5b146114b05780639606e630146112aa5780639d4144df1461125e578063a217fddf14611242578063af5b0873146110b8578063b42421d114611027578063bb96dd3814610ffa578063bf22309d14610fd0578063c195433414610ed5578063c361e8cf14610e75578063d0330881146105ce578063d547741f14610584578063d82ff2e914610205578063e1ce7f4f146101d85763ee01d8e61461017657600080fd5b346101d55760203660031901126101d55761018f612000565b610197612745565b6001600160a01b03166101ab8115156126f8565b806001600160601b0360a01b60095416176009556001600160601b0360a01b600854161760085580f35b80fd5b50346101d55760203660031901126101d55760026040602092600435815260058452200154604051908152f35b50346101d55760803660031901126101d55761021f612000565b60443567ffffffffffffffff811161058057366023820112156105805767ffffffffffffffff8160040135116105805736602482600401358301011161058057600e5461026b81612736565b600e556040519061027b826122ef565b8082526001600160a01b0384166020830190815260243560408401908152926102a7600486013561253f565b6102b4604051918261233f565b6004860135808252600095906024880160208401378860208860040135840101526060830191825260643560808401528860a08401528860c08401528860e0840152848952600160205260408920938351855560018060a01b03905116600185019060018060a01b03166001600160601b0360a01b8254161790555160028401555180519067ffffffffffffffff821161056c57819061035760038601546122b5565b601f811161051c575b50602090601f83116001146104b3578a926104a8575b50508160011b916000199060031b1c19161760038301555b6080810151600483015560a081015160058301556006820160c08201516004811015610494578594939260079260e0926040985060ff8019835416911617905501519101556024358652600260205282862060018060a01b0386168352602052828220556024358552600360205281852060018060a01b038516825260205220600160ff198254161790557f3e16aed6ce2e15a2439e36880dec86acc56d4004624545f0f4121f1624804f966040516040815282600401356040820152826004013560248401606083013760049092013582810160609081018690526064356020850152602435946001600160a01b031693601f909201601f191682018290030190a380f35b634e487b7160e01b89526021600452602489fd5b015190503880610376565b600386018b52818b209250601f1984168b5b81811061050457509084600195949392106104eb575b505050811b01600383015561038e565b015160001960f88460031b161c191690553880806104db565b929360206001819287860151815501950193016104c5565b909150600385018a5260208a20601f840160051c810160208510610565575b90849392915b601f830160051c82018110610557575050610360565b8c8155859450600101610541565b508061053b565b634e487b7160e01b89526041600452602489fd5b8280fd5b50346101d55760403660031901126101d5576105ca6004356105a461201b565b906105c56105c082600052600060205260016040600020015490565b612798565b61285e565b5080f35b50346101d55760403660031901126101d55760043560243581835260066020526105fe60ff6040852054166125f5565b600c546024906020906001600160a01b031661061b811515612641565b604051631b561cf960e01b815233600482015292839182905afa8015610e6a5761064c918591610e3b575b5061269c565b8183526005602090815260408085203386526003810190925284205490919060ff1615610dfe57338452600482016020819052604085205490929060ff16610db9576103e84202924284046103e81442151715610da5576040516060810181811067ffffffffffffffff821117610d91576040908152338083526020808401878152848401898152838c52600588018352848c20955186546001600160a01b0319166001600160a01b0391909116178655905160018681019190915590516002959095019490945590895292909252908620805460ff191682179055810180549092859161073990612736565b8094556040519081528460208201527f148023844b157f8e751820371d187fe4211e0710d53a604eca5840dcfa0ff43160403392a35414610778578280f35b9091828152600660205261079260ff6040832054166125f5565b8281526001602052604081209280825260056020526040822060018060a01b036008541660028601916020835460246040518095819363e2e6825360e01b835260048301525afa918215610b01578592610d60575b508492859460028301928354968896600583019760018060a01b03600a54165b8a8210610bed5750508115610bd9576007959493928c8c93600693049788910155818d01600360ff19825416179055015580885260066020526040882060ff198154169055875b60075480821015610ba65782610863836124f6565b90549060031b1c14610878575060010161084e565b60009a92939495969798999a198101908111610b9257906108ab61089e6108c4936124f6565b90549060031b1c916124f6565b90919082549060031b91821b91600019901b1916179055565b6007548015610b7e577f8bee63f0a9f0ea07cbdc4a0a5447e6a74fe06d3717fad513f8f9ebd9b985c19891604091600019016108ff816124f6565b8154906000199060031b1b191690556007555b8151908782526020820152a260018060a01b03600854168154813b15610b7a5788916024839260405194859384926319e74b6f60e11b845260048401525af18015610b5b57610b66575b50600a5460019890980154600854915460405163024e6e0560e21b815260048101919091526001600160a01b03998a169991821692909160209183916024918391165afa908115610b5b578891610b20575b50883b15610ae45760405191630f61997560e21b835260048301526109d6602483018661210f565b836044830152601e6064830152600a60848301526003811015610b0c57968160c48183809c819a9b9c60a48401525af1908115610b01578591610ae8575b505b868110610a265750505050508280f35b610a308183612527565b90546001600160a01b0360039290921b1c81166000818152602089905260409020600a54600190910154921691823b15610ae45760c4889283604051958694859363f28cdc1360e01b85526004850152610a8d602485018d61210f565b8a60448501526064840152603c6084840152600a60a48401525af1908115610ad9578691610ac0575b5050600101610a16565b81610aca9161233f565b610ad5578438610ab6565b8480fd5b6040513d88823e3d90fd5b8780fd5b81610af29161233f565b610afd578338610a14565b8380fd5b6040513d87823e3d90fd5b634e487b7160e01b88526021600452602488fd5b90506020813d602011610b53575b81610b3b6020938361233f565b81010312610ae457516003811015610ae457386109ae565b3d9150610b2e565b6040513d8a823e3d90fd5b87610b739198929861233f565b953861095c565b8880fd5b634e487b7160e01b8a52603160045260248afd5b634e487b7160e01b8b52601160045260248bfd5b5050909192939495969760407f8bee63f0a9f0ea07cbdc4a0a5447e6a74fe06d3717fad513f8f9ebd9b985c19891610912565b634e487b7160e01b8a52601260045260248afd5b909291610bfa8489612527565b905460039190911b1c6001600160a01b0316808d5260208b90526040808e209051630cf571c160e11b815260048101929092529190610c3c602482018c61210f565b602081604481875afa908115610d53578e91610d1e575b5060010180600111610d0a576fffffffffffffffffffffffffffffffff811160071b67ffffffffffffffff82821c1160061b1763ffffffff82821c1160051b1761ffff82821c1160041b1760ff82821c1160031b17600f82821c1160021b17906d010102020202030303030303030360801b90821c1a176001019182600111610d0a57600101549082820291808304841490151715610d0a5791610cfc610d02926001946128e0565b946128e0565b930190610807565b634e487b7160e01b8e52601160045260248efd5b90506020813d8211610d4b575b81610d386020938361233f565b81010312610d47575138610c53565b8d80fd5b3d9150610d2b565b8e604051903d90823e3d90fd5b610d8391925060203d602011610d8a575b610d7b818361233f565b8101906125bd565b90386107e7565b503d610d71565b634e487b7160e01b88526041600452602488fd5b634e487b7160e01b86526011600452602486fd5b60405162461bcd60e51b815260206004820152601760248201527f416c7265616479207375626d69747465642073636f72650000000000000000006044820152606490fd5b60405162461bcd60e51b81526020600482015260156024820152742737ba103537b4b732b21032bb30b63ab0ba34b7b760591b6044820152606490fd5b610e5d915060203d602011610e63575b610e55818361233f565b810190612684565b38610646565b503d610e4b565b6040513d86823e3d90fd5b50346101d55760203660031901126101d557610e8f612000565b610e97612745565b6001600160a01b0316610eab8115156126f8565b806001600160601b0360a01b600b541617600b556001600160601b0360a01b600a541617600a5580f35b50346101d55760403660031901126101d5576040610fcc91610ef5612000565b602435610f00612405565b50808352600360209081528484206001600160a01b0384168552905283832054610f2c9060ff16612269565b825260026020528282209060018060a01b03168252602052818120548152600160205220600760405191610f5f836122ef565b8054835260018101546001600160a01b0316602084015260028101546040840152610f8c60038201612361565b606084015260048101546080840152600581015460a0840152610fb960ff60068301541660c08501612442565b015460e08201526040519182918261209c565b0390f35b50346101d55760203660031901126101d55760406020916004358152600583522054604051908152f35b50346101d55760203660031901126101d55760016040602092600435815260058452200154604051908152f35b50346101d55760403660031901126101d55760026040602092600561104a612000565b60243583528186528383206001600160a01b03821684526003810187528484205490919060ff1680611099575b611080906121fa565b6001600160a01b03168352018452200154604051908152f35b506001600160a01b03811684526004820187528484205460ff16611077565b50346101d55760203660031901126101d5576004358082526003602090815260408084203385529091528220546110f19060ff16612269565b815260026020908152604080832033845282528083205480845260019092528220600601805460ff16600481101561122e576001036111f057600260ff19825416179055808252600560205281600160408220600381550155808252600660205260408220600160ff19825416179055600754600160401b8110156111dc57816108ab82600161118694016007556007612527565b6103e842024281046103e814421517156111c85760207f5d3f96fa44923951be188e5f845549999c2ab981c3ea34e0274943af92fc274491604051908152a280f35b634e487b7160e01b83526011600452602483fd5b634e487b7160e01b83526041600452602483fd5b60405162461bcd60e51b815260206004820152601660248201527514dbdb1d5d1a5bdb881b9bdd081cdd589b5a5d1d195960521b6044820152606490fd5b634e487b7160e01b84526021600452602484fd5b50346101d557806003193601126101d557602090604051908152f35b50346101d55760403660031901126101d55760ff604060209261127f612000565b6024358252600585528282206001600160a01b03909116825260030184522054604051911615158152f35b50346101d55760203660031901126101d5576001600160a01b036112cc612000565b1681526004602052604081206040518082602082945493848152019085526020852092855b8181106114975750506113069250038261233f565b6113108151612466565b6008546001600160a01b0316835b83518110156114895761133181856125e1565b51908186526001602052604086208287526005602052604087209260018060a01b03600183015416938860028401549560405163f55dd32b60e01b815287600482015282816024818c5afa90811561145c578391611467575b506040519763e2e6825360e01b895260048901526020886024818c5afa801561145c5760036113e9976113fe6114049360019c611417989161143e575b5060058301549560ff6006850154169760028b01549a549b6040519d8e612322565b8d5260208d015260408c015260608b016125d5565b01612361565b608087015260a086015260c08501612442565b60e083015261010082015261142c82866125e1565b5261143781856125e1565b500161131e565b611456915060203d8111610d8a57610d7b818361233f565b386113c7565b6040513d85823e3d90fd5b61148391503d8085833e61147b818361233f565b81019061255b565b3861138a565b60405180610fcc858261211c565b84548352600194850194869450602090930192016112f1565b50346101d55760203660031901126101d5576114ca612000565b6114d2612745565b6001600160a01b03166114e68115156126f8565b806001600160601b0360a01b600d541617600d556001600160601b0360a01b600c541617600c5580f35b50346101d55760403660031901126101d55760ff604060209261153161201b565b60043582528185528282206001600160a01b03909116825284522054604051911615158152f35b50346101d55760403660031901126101d55760ff6040602092611579612000565b6024358252600385528282206001600160a01b03909116825284522054604051911615158152f35b50346101d55760403660031901126101d5576001604060209260056115c4612000565b602435835281865283832090858060a01b038116845260038201875260ff85852054168061160d575b6115f6906121fa565b858060a01b03168352018452200154604051908152f35b5060a086901b869003811684526004820187528484205460ff166115ed565b50346101d55760203660031901126101d557600435808252600660205261165960ff6040842054166125f5565b600c546024906020906001600160a01b0316611676811515612641565b604051631b561cf960e01b815233600482015292839182905afa801561145c576116a6918491610e3b575061269c565b808252600160208190526040832001546001600160a01b031633146118665780825260056020908152604080842033855260038101928390529084205460ff166118215760028101908154905411156117e557338452600460205260408420805490600160401b8210156117d1576108ab828692600161172895018155612527565b805490600160401b8210156117bd579061174791600182018155612527565b81543360039290921b82811b6001600160a01b0390911b1990911617909155835260205260408220805460ff191660011790556103e8428181029181830414901517156111c8576040519081527f1a53c00e06bde8e51ef080ab86b5efd98264968d07701c264f9ae606f3cb79a360203392a380f35b634e487b7160e01b85526041600452602485fd5b634e487b7160e01b86526041600452602486fd5b60405162461bcd60e51b8152602060048201526014602482015273115d985b1d585d1a5bdb881c1bdbdb08199d5b1b60621b6044820152606490fd5b60405162461bcd60e51b815260206004820152601960248201527f416c7265616479206a6f696e6564206576616c756174696f6e000000000000006044820152606490fd5b60405162461bcd60e51b815260206004820152601c60248201527f43616e6e6f74206576616c75617465206f776e20736f6c7574696f6e000000006044820152606490fd5b50346101d557806003193601126101d5576007546118c881612466565b6008549091906001600160a01b0316835b8281106118ee5760405180610fcc868261211c565b6118f7816124f6565b90549060031b1c908186526001602052604086208287526005602052604087209260018060a01b03600183015416938860028401549560405163f55dd32b60e01b815287600482015282816024818c5afa90811561145c5783916119db575b506040519763e2e6825360e01b895260048901526020886024818c5afa801561145c5760036113e9976113fe6114049360019c6119b4989161143e575060058301549560ff6006850154169760028b01549a549b6040519d8e612322565b60e08301526101008201526119c982876125e1565b526119d481866125e1565b50016118d9565b6119ef91503d8085833e61147b818361233f565b38611956565b50346101d55760403660031901126101d55760ff6040602092611a16612000565b6024358252600585528282206001600160a01b03909116825260040184522054604051911615158152f35b50346101d55760203660031901126101d55760043590818152600160205260ff6006604083200154166004811015611ae357600303611a93576040816020936006935260058452200154604051908152f35b60405162461bcd60e51b815260206004820152602260248201527f536f6c7574696f6e206861736e2774206265656e206576616c75617465642079604482015261195d60f21b6064820152608490fd5b634e487b7160e01b82526021600452602482fd5b50346101d55760203660031901126101d557600435611b14612405565b50600e54811015611b3d5781604091610fcc9352600160205220600760405191610f5f836122ef565b60405162461bcd60e51b815260206004820152601660248201527514dbdb1d5d1a5bdb88191bd95cdb89dd08195e1a5cdd60521b6044820152606490fd5b50346101d55760403660031901126101d5576040606091611b9a612000565b602435825260026020528282209060018060a01b03168252602052818120548152600160205220600481015490611be8600760ff600684015416920154916040519384526020840190612079565b6040820152f35b50346101d55760403660031901126101d557611c0961201b565b336001600160a01b03821603611c25576105ca9060043561285e565b63334bd91960e11b8252600482fd5b50346101d55760403660031901126101d5576105ca600435611c5461201b565b90611c706105c082600052600060205260016040600020015490565b6127d3565b50346101d55760203660031901126101d5576020611ca3600435600052600060205260016040600020015490565b604051908152f35b50346101d55760403660031901126101d557611d2660036040610fcc93611cd0612000565b60243580835260208581528484206001600160a01b0384168552905283832054611cfc9060ff16612269565b825260026020528282209060018060a01b0316825260205281812054815260016020522001612361565b604051918291602083526020830190612054565b50346101d55760203660031901126101d557600435808252600360209081526040808420338552909152822054611d739060ff16612269565b81526002602090815260408083203384528252808320548084526001909252822060068101805460ff166004811015611e5857611e13576103e84202914283046103e81442151715611dff57600501829055805460ff191660011790556040519081527f345d4b6c73b8d56ad5e2d99d672af9008394bf64006f1ff2ef29e527b96babbb90602090a280f35b634e487b7160e01b85526011600452602485fd5b60405162461bcd60e51b815260206004820152601860248201527f536f6c7574696f6e206e6f7420696e2070726f677265737300000000000000006044820152606490fd5b634e487b7160e01b85526021600452602485fd5b50346101d55760403660031901126101d557611e86612000565b90602435808252600160205260ff6006604084200154166004811015611f9357600303611f4e578082526005602081815260408085206001600160a01b0387168652600381018352908520549195909160ff1680611f2e575b611ee8906121fa565b6001600160a01b0316845201835260408083206001908101549284528452909120600701549081811115611f205790611ca391612246565b611f2991612246565b611ca3565b506001600160a01b0381168552600482018652604085205460ff16611edf565b60405162461bcd60e51b815260206004820152601a60248201527f536f6c7574696f6e206e6f7420796574206576616c75617465640000000000006044820152606490fd5b634e487b7160e01b83526021600452602483fd5b905034611ffc576020366003190112611ffc5760043563ffffffff60e01b81168091036105805760209250637965db0b60e01b8114908115611feb575b5015158152f35b6301ffc9a760e01b14905038611fe4565b5080fd5b600435906001600160a01b038216820361201657565b600080fd5b602435906001600160a01b038216820361201657565b60005b8381106120445750506000910152565b8181015183820152602001612034565b9060209161206d81518092818552858086019101612031565b601f01601f1916010190565b9060048210156120865752565b634e487b7160e01b600052602160045260246000fd5b602081528151602082015260018060a01b0360208301511660408201526040820151606082015261010060e06120e16060850151836080860152610120850190612054565b93608081015160a085015260a081015160c085015261210760c082015183860190612079565b015191015290565b90600e8210156120865752565b602081016020825282518091526040820191602060408360051b8301019401926000915b83831061214f57505050505090565b9091929394602080600192603f1985820301865288519081518152848060a01b03838301511683820152610100806121bf61219b60408601516101206040870152610120860190612054565b6121ad6060870151606087019061210f565b60808601518582036080870152612054565b9360a081015160a08501526121dc60c082015160c0860190612079565b60e081015160e0850152015191015297019301930191939290612140565b1561220157565b60405162461bcd60e51b815260206004820152601d60248201527f4576616c7561746f72206e6f74207375626d69747465642073636f72650000006044820152606490fd5b9190820391821161225357565b634e487b7160e01b600052601160045260246000fd5b1561227057565b60405162461bcd60e51b815260206004820152601960248201527f55736572206e6f74206a6f696e6564206368616c6c656e6765000000000000006044820152606490fd5b90600182811c921680156122e5575b60208310146122cf57565b634e487b7160e01b600052602260045260246000fd5b91607f16916122c4565b610100810190811067ffffffffffffffff82111761230c57604052565b634e487b7160e01b600052604160045260246000fd5b610120810190811067ffffffffffffffff82111761230c57604052565b90601f8019910116810190811067ffffffffffffffff82111761230c57604052565b9060405191826000825492612375846122b5565b80845293600181169081156123e3575060011461239c575b5061239a9250038361233f565b565b90506000929192526020600020906000915b8183106123c757505090602061239a928201013861238d565b60209193508060019154838589010152019101909184926123ae565b90506020925061239a94915060ff191682840152151560051b8201013861238d565b60405190612412826122ef565b600060e0838281528260208201528260408201526060808201528260808201528260a08201528260c08201520152565b60048210156120865752565b67ffffffffffffffff811161230c5760051b60200190565b906124708261244e565b61247d604051918261233f565b828152809261248e601f199161244e565b019060005b82811061249f57505050565b6020906040516124ae81612322565b60008152600083820152606060408201526000606082015260606080820152600060a0820152600060c0820152600060e0820152600061010082015282828501015201612493565b60075481101561251157600760005260206000200190600090565b634e487b7160e01b600052603260045260246000fd5b80548210156125115760005260206000200190600090565b67ffffffffffffffff811161230c57601f01601f191660200190565b6020818303126120165780519067ffffffffffffffff8211612016570181601f8201121561201657805161258e8161253f565b9261259c604051948561233f565b81845260208284010111612016576125ba9160208085019101612031565b90565b908160209103126120165751600e8110156120165790565b600e8210156120865752565b80518210156125115760209160051b010190565b156125fc57565b60405162461bcd60e51b815260206004820152601960248201527f536f6c7574696f6e206e6f7420756e64657220726576696577000000000000006044820152606490fd5b1561264857565b60405162461bcd60e51b8152602060048201526014602482015273149bdb19481b585b9859d95c881b9bdd081cd95d60621b6044820152606490fd5b90816020910312612016575180151581036120165790565b156126a357565b60405162461bcd60e51b815260206004820152602760248201527f4f6e6c79206576616c7561746f72732063616e20706572666f726d20746869736044820152661030b1ba34b7b760c91b6064820152608490fd5b156126ff57565b60405162461bcd60e51b815260206004820152600f60248201526e496e76616c6964206164647265737360881b6044820152606490fd5b60001981146122535760010190565b3360009081527fad3228b676f7d3cd4284a5443f17f1962b36e491b30a40b2405849e597ba5fb5602052604090205460ff161561277e57565b63e2517d3f60e01b60005233600452600060245260446000fd5b60008181526020818152604080832033845290915290205460ff16156127bb5750565b63e2517d3f60e01b6000523360045260245260446000fd5b6000818152602081815260408083206001600160a01b038616845290915290205460ff16612857576000818152602081815260408083206001600160a01b0395909516808452949091528120805460ff19166001179055339291907f2f8788117e7eff1d82e926ec794901d17c78024a50270940304540a733656f0d9080a4600190565b5050600090565b6000818152602081815260408083206001600160a01b038616845290915290205460ff1615612857576000818152602081815260408083206001600160a01b0395909516808452949091528120805460ff19169055339291907ff6391f5c32d9c69d2a47ea670b442974b53935d1edc7fd64eb21e047a839171b9080a4600190565b919082018092116122535756fea264697066735822122011af5afe880d9ef0415f28f4e8dff428caaaceeecd0d6688b0a25511111a907564736f6c634300081c0033ad3228b676f7d3cd4284a5443f17f1962b36e491b30a40b2405849e597ba5fb5",
  "linkReferences": {},
  "deployedLinkReferences": {}
}