{
  "_format": "hh-sol-artifact-1",
  "contractName": "SolutionManager",
  "sourceName": "contracts/SolutionManager.sol",
  "abi": [
    {
      "anonymous": false,
      "inputs": [
        {
          "indexed": false,
          "internalType": "address",
          "name": "user_address",
          "type": "address"
        },
        {
          "indexed": false,
          "internalType": "uint256",
          "name": "challenge_id",
          "type": "uint256"
        },
        {
          "indexed": false,
          "internalType": "string",
          "name": "solution_base_txid",
          "type": "string"
        },
        {
          "indexed": false,
          "internalType": "uint256",
          "name": "created_at",
          "type": "uint256"
        }
      ],
      "name": "SolutionBaseCreated",
      "type": "event"
    },
    {
      "anonymous": false,
      "inputs": [
        {
          "indexed": false,
          "internalType": "uint256",
          "name": "submitted_at",
          "type": "uint256"
        }
      ],
      "name": "SolutionSubmitted",
      "type": "event"
    },
    {
      "inputs": [
        {
          "internalType": "address",
          "name": "_user_address",
          "type": "address"
        },
        {
          "internalType": "uint256",
          "name": "_challenge_id",
          "type": "uint256"
        }
      ],
      "name": "checkUserJoinedChallenge",
      "outputs": [
        {
          "internalType": "bool",
          "name": "",
          "type": "bool"
        }
      ],
      "stateMutability": "view",
      "type": "function"
    },
    {
      "inputs": [
        {
          "internalType": "address",
          "name": "_user_address",
          "type": "address"
        },
        {
          "internalType": "uint256",
          "name": "_challenge_id",
          "type": "uint256"
        },
        {
          "internalType": "string",
          "name": "_solution_base_txid",
          "type": "string"
        },
        {
          "internalType": "uint256",
          "name": "_created_at",
          "type": "uint256"
        }
      ],
      "name": "createSolutionBase",
      "outputs": [],
      "stateMutability": "nonpayable",
      "type": "function"
    },
    {
      "inputs": [
        {
          "internalType": "address",
          "name": "_user_address",
          "type": "address"
        },
        {
          "internalType": "uint256",
          "name": "_challenge_id",
          "type": "uint256"
        }
      ],
      "name": "getSolutionByUserAndChallengeId",
      "outputs": [
        {
          "components": [
            {
              "internalType": "address",
              "name": "user",
              "type": "address"
            },
            {
              "internalType": "uint256",
              "name": "challenge_id",
              "type": "uint256"
            },
            {
              "internalType": "string",
              "name": "solution_txid",
              "type": "string"
            },
            {
              "internalType": "uint256",
              "name": "created_at",
              "type": "uint256"
            },
            {
              "internalType": "uint256",
              "name": "submitted_at",
              "type": "uint256"
            },
            {
              "internalType": "enum SystemEnums.SolutionProgress",
              "name": "progress",
              "type": "uint8"
            },
            {
              "internalType": "uint256",
              "name": "score",
              "type": "uint256"
            }
          ],
          "internalType": "struct SolutionManager.Solution",
          "name": "",
          "type": "tuple"
        }
      ],
      "stateMutability": "view",
      "type": "function"
    },
    {
      "inputs": [
        {
          "internalType": "address",
          "name": "_user_address",
          "type": "address"
        },
        {
          "internalType": "uint256",
          "name": "_challenge_id",
          "type": "uint256"
        }
      ],
      "name": "getSolutionPreviewByUserAndChallengeId",
      "outputs": [
        {
          "internalType": "uint256",
          "name": "created_at",
          "type": "uint256"
        },
        {
          "internalType": "enum SystemEnums.SolutionProgress",
          "name": "progress",
          "type": "uint8"
        },
        {
          "internalType": "uint256",
          "name": "score",
          "type": "uint256"
        }
      ],
      "stateMutability": "view",
      "type": "function"
    },
    {
      "inputs": [
        {
          "internalType": "address",
          "name": "_user_address",
          "type": "address"
        },
        {
          "internalType": "uint256",
          "name": "_challenge_id",
          "type": "uint256"
        }
      ],
      "name": "getSolutionTxId",
      "outputs": [
        {
          "internalType": "string",
          "name": "",
          "type": "string"
        }
      ],
      "stateMutability": "view",
      "type": "function"
    },
    {
      "inputs": [
        {
          "internalType": "uint256",
          "name": "_challenge_id",
          "type": "uint256"
        }
      ],
      "name": "submitSolution",
      "outputs": [],
      "stateMutability": "nonpayable",
      "type": "function"
    }
  ],
  "bytecode": "0x60808060405234601a576000600355610c3390816100208239f35b600080fdfe6080604052600436101561001257600080fd5b60003560e01c80630bf945121461082e5780631346c95c14610792578063419fd69e14610717578063846900cf146106ca578063c1954334146104695763d82ff2e91461005e57600080fd5b3461046457608036600319011261046457610077610a36565b6044359060243567ffffffffffffffff831161046457366023840112156104645782600401359267ffffffffffffffff841161046457602481019060248536920101116104645760643560035494600019861461044e5760018601600355604051946100e286610a9a565b6001600160a01b031680865260208601858152909290610103368487610bb6565b94604088019586526060880183815260808901906000825260a08a01976000895260c08b0194600086528c600052600060205260406000209b60018060a01b039051166bffffffffffffffffffffffff60a01b8d5416178c555160018c015560028b01905180519067ffffffffffffffff82116104385781906101868454610ad8565b601f81116103e5575b50602090601f831160011461038057600092610375575b50508160011b916000199060031b1c19161790555b5160038a01555160048901556005880195519860048a101561035f577f3e16aed6ce2e15a2439e36880dec86acc56d4004624545f0f4121f1624804f96986006869460a09960009d60ff8019835416911617905551910155878a52600160205260408a20868b5260205260408a2055868952600260205260408920858a5260205260408920600160ff1982541617905588806102e361030f604051610261606082610ab6565b603e81527f4372656174656420736f6c7574696f6e2062617365207769746820747869642060208201527f2573206f66206368616c6c656e676520257320666f722075736572202573000060408201526102f56102bf368989610bb6565b604051630811fbd960e11b60208201526080602482015294859360a4850190610a4c565b83810360231901604485015290610a4c565b8c60648301528a608483015203601f198101835282610ab6565b6020815191016a636f6e736f6c652e6c6f675afa5060405196879586526020860152608060408601528160808601528585013782820184018790526060830152601f01601f19168101030190a180f35b634e487b7160e01b600052602160045260246000fd5b0151905038806101a6565b60008581528281209350601f198516905b8181106103cd57509084600195949392106103b4575b505050811b0190556101bb565b015160001960f88460031b161c191690553880806103a7565b92936020600181928786015181550195019301610391565b909150836000526020600020601f840160051c8101916020851061042e575b90601f859493920160051c01905b81811061041f575061018f565b60008155849350600101610412565b9091508190610404565b634e487b7160e01b600052604160045260246000fd5b634e487b7160e01b600052601160045260246000fd5b600080fd5b3461046457604036600319011261046457610482610a36565b60243590600060c060405161049681610a9a565b828152826020820152606060408201528260608201528260808201528260a08201520152816000526002602052604060002060018060a01b03821660005260205260ff604060002054161561046457816000526001602052604060002060018060a01b038216600052602052604060002054916000806105876105b3606096604051906105238983610ab6565b602d82527f55736572202573206665746368656420736f6c7574696f6e20232573206f662060208301526c6368616c6c656e67652023257360981b6040830152604051938492637c7a8d8f60e11b60208501526080602485015260a4840190610a4c565b6001600160a01b038916604484015260648301919091526084820187905203601f198101835282610ab6565b6020815191016a636f6e736f6c652e6c6f675afa50600052600160205260406000209060018060a01b031660005260205260406000205460005260006020526040600020906040519061060582610a9a565b82546001600160a01b031682526001830154602083019081529261062b60028201610b12565b906040840191825260038101549280850193845260048201546080860190815260ff60058401541660a0870192600482101561035f5760e060066106c0966106a894875201549660c08a019788526040519a8b9a60208c5260018060a01b0390511660208c01525160408b01525191890152610100880190610a4c565b945160808701525160a08601525160c0850190610a8d565b5160e08301520390f35b34610464576040366003190112610464576106e3610a36565b602435600052600260205260406000209060018060a01b0316600052602052602060ff604060002054166040519015158152f35b3461046457604036600319011261046457610730610a36565b602435600052600160205260406000209060018060a01b031660005260205260406000205460005260006020526060604060002060038101549061078b600660ff600584015416920154916040519384526020840190610a8d565b6040820152f35b34610464576040366003190112610464576107ab610a36565b602435806000526002602052604060002060018060a01b03831660005260205260ff604060002054161561046457600052600160205260406000209060018060a01b0316600052602052604060002054600052600060205261082a6108166002604060002001610b12565b604051918291602083526020830190610a4c565b0390f35b3461046457602036600319011261046457600435600081815260026020908152604080832033845290915290205460ff161561046457806000526001602052604060002060018060a01b03331660005260205260406000205460005260006020526040600020906103e842024281046103e8144215171561044e5760008061097c6109a88660209660047ff38c6faaf640ac2f1a7d534cf0dac8c674be916eaa83e674e78322eb0c27ca63990196875560058201600160ff19825416179055610994610959600260405194610904606087610ab6565b603a86527f55736572202573207375626d6d697474656420736f6c7574696f6e20776974688c8701527f207478696420257320666f72206368616c6c656e676520232573000000000000604087015201610b12565b6040516348e8889760e11b8b8201526080602482015295869460a4860190610a4c565b33604486015284810360231901606486015290610a4c565b90608483015203601f198101835282610ab6565b84815191016a636f6e736f6c652e6c6f675afa50546040600080610a07610a1b84516109d48682610ab6565b6005815264617420257360d81b888201528551632d839cb360e21b818a0152602481018790529283916064830190610a4c565b87604483015203601f198101835282610ab6565b85815191016a636f6e736f6c652e6c6f675afa5051908152a1005b600435906001600160a01b038216820361046457565b919082519283825260005b848110610a78575050826000602080949584010152601f8019910116010190565b80602080928401015182828601015201610a57565b90600482101561035f5752565b60e0810190811067ffffffffffffffff82111761043857604052565b90601f8019910116810190811067ffffffffffffffff82111761043857604052565b90600182811c92168015610b08575b6020831014610af257565b634e487b7160e01b600052602260045260246000fd5b91607f1691610ae7565b9060405191826000825492610b2684610ad8565b8084529360018116908115610b945750600114610b4d575b50610b4b92500383610ab6565b565b90506000929192526020600020906000915b818310610b78575050906020610b4b9282010138610b3e565b6020919350806001915483858901015201910190918492610b5f565b905060209250610b4b94915060ff191682840152151560051b82010138610b3e565b92919267ffffffffffffffff82116104385760405191610be0601f8201601f191660200184610ab6565b82948184528183011161046457828160209384600096013701015256fea2646970667358221220295cd9adf9349b07ae87cf647ec5f080dcce469216b49c3a445927ade2faf79064736f6c634300081c0033",
  "linkReferences": {},
  "deployedLinkReferences": {}
}