{
  "_format": "hh-sol-artifact-1",
  "contractName": "SolutionManager",
  "sourceName": "contracts/SolutionManager.sol",
  "abi": [
    {
      "anonymous": false,
      "inputs": [
        {
          "indexed": true,
          "internalType": "address",
          "name": "user_address",
          "type": "address"
        },
        {
          "indexed": true,
          "internalType": "uint256",
          "name": "challenge_id",
          "type": "uint256"
        },
        {
          "indexed": false,
          "internalType": "string",
          "name": "solution_base_txid",
          "type": "string"
        },
        {
          "indexed": false,
          "internalType": "uint256",
          "name": "created_at",
          "type": "uint256"
        }
      ],
      "name": "SolutionBaseCreated",
      "type": "event"
    },
    {
      "anonymous": false,
      "inputs": [
        {
          "indexed": true,
          "internalType": "uint256",
          "name": "solution_id",
          "type": "uint256"
        },
        {
          "indexed": false,
          "internalType": "uint256",
          "name": "score",
          "type": "uint256"
        },
        {
          "indexed": false,
          "internalType": "uint256",
          "name": "finalized_at",
          "type": "uint256"
        }
      ],
      "name": "SolutionEvaluationFinalized",
      "type": "event"
    },
    {
      "anonymous": false,
      "inputs": [
        {
          "indexed": true,
          "internalType": "address",
          "name": "evaluator",
          "type": "address"
        },
        {
          "indexed": true,
          "internalType": "uint256",
          "name": "solution_id",
          "type": "uint256"
        },
        {
          "indexed": false,
          "internalType": "uint256",
          "name": "joined_at",
          "type": "uint256"
        }
      ],
      "name": "SolutionJoinedByEvaluator",
      "type": "event"
    },
    {
      "anonymous": false,
      "inputs": [
        {
          "indexed": true,
          "internalType": "uint256",
          "name": "solution_id",
          "type": "uint256"
        },
        {
          "indexed": false,
          "internalType": "uint256",
          "name": "initialized_at",
          "type": "uint256"
        }
      ],
      "name": "SolutionPoolInitialized",
      "type": "event"
    },
    {
      "anonymous": false,
      "inputs": [
        {
          "indexed": true,
          "internalType": "address",
          "name": "evaluator",
          "type": "address"
        },
        {
          "indexed": true,
          "internalType": "uint256",
          "name": "solution_id",
          "type": "uint256"
        },
        {
          "indexed": false,
          "internalType": "uint256",
          "name": "score",
          "type": "uint256"
        },
        {
          "indexed": false,
          "internalType": "uint256",
          "name": "submitted_at",
          "type": "uint256"
        }
      ],
      "name": "SolutionScoreSubmittedByEvaluator",
      "type": "event"
    },
    {
      "anonymous": false,
      "inputs": [
        {
          "indexed": true,
          "internalType": "uint256",
          "name": "solution_id",
          "type": "uint256"
        },
        {
          "indexed": false,
          "internalType": "uint256",
          "name": "submitted_at",
          "type": "uint256"
        }
      ],
      "name": "SolutionSubmitted",
      "type": "event"
    },
    {
      "inputs": [
        {
          "internalType": "address",
          "name": "_evaluator_address",
          "type": "address"
        },
        {
          "internalType": "uint256",
          "name": "_solution_id",
          "type": "uint256"
        }
      ],
      "name": "checkEvaluatorJoinedSolution",
      "outputs": [
        {
          "internalType": "bool",
          "name": "",
          "type": "bool"
        }
      ],
      "stateMutability": "view",
      "type": "function"
    },
    {
      "inputs": [
        {
          "internalType": "address",
          "name": "_evaluator_address",
          "type": "address"
        },
        {
          "internalType": "uint256",
          "name": "_solution_id",
          "type": "uint256"
        }
      ],
      "name": "checkEvalutorSubmittedScore",
      "outputs": [
        {
          "internalType": "bool",
          "name": "",
          "type": "bool"
        }
      ],
      "stateMutability": "view",
      "type": "function"
    },
    {
      "inputs": [
        {
          "internalType": "address",
          "name": "_user_address",
          "type": "address"
        },
        {
          "internalType": "uint256",
          "name": "_challenge_id",
          "type": "uint256"
        }
      ],
      "name": "checkUserJoinedChallenge",
      "outputs": [
        {
          "internalType": "bool",
          "name": "",
          "type": "bool"
        }
      ],
      "stateMutability": "view",
      "type": "function"
    },
    {
      "inputs": [
        {
          "internalType": "address",
          "name": "_user_address",
          "type": "address"
        },
        {
          "internalType": "uint256",
          "name": "_challenge_id",
          "type": "uint256"
        },
        {
          "internalType": "string",
          "name": "_solution_base_txid",
          "type": "string"
        },
        {
          "internalType": "uint256",
          "name": "_created_at",
          "type": "uint256"
        }
      ],
      "name": "createSolutionBase",
      "outputs": [],
      "stateMutability": "nonpayable",
      "type": "function"
    },
    {
      "inputs": [
        {
          "internalType": "uint256",
          "name": "_solution_id",
          "type": "uint256"
        }
      ],
      "name": "evaluatorJoinSolution",
      "outputs": [],
      "stateMutability": "nonpayable",
      "type": "function"
    },
    {
      "inputs": [
        {
          "internalType": "uint256",
          "name": "_solution_id",
          "type": "uint256"
        },
        {
          "internalType": "uint256",
          "name": "_score",
          "type": "uint256"
        }
      ],
      "name": "evaluatorSubmitScore",
      "outputs": [],
      "stateMutability": "nonpayable",
      "type": "function"
    },
    {
      "inputs": [
        {
          "internalType": "uint256",
          "name": "_solution_id",
          "type": "uint256"
        }
      ],
      "name": "getMaxEvaluatorsForSolution",
      "outputs": [
        {
          "internalType": "uint256",
          "name": "",
          "type": "uint256"
        }
      ],
      "stateMutability": "view",
      "type": "function"
    },
    {
      "inputs": [
        {
          "internalType": "uint256",
          "name": "_solution_id",
          "type": "uint256"
        }
      ],
      "name": "getNumberOfJoinedEvaluators",
      "outputs": [
        {
          "internalType": "uint256",
          "name": "",
          "type": "uint256"
        }
      ],
      "stateMutability": "view",
      "type": "function"
    },
    {
      "inputs": [
        {
          "internalType": "uint256",
          "name": "_solution_id",
          "type": "uint256"
        }
      ],
      "name": "getNumberOfSubmittedEvaluations",
      "outputs": [
        {
          "internalType": "uint256",
          "name": "",
          "type": "uint256"
        }
      ],
      "stateMutability": "view",
      "type": "function"
    },
    {
      "inputs": [
        {
          "internalType": "address",
          "name": "_evaluator_address",
          "type": "address"
        },
        {
          "internalType": "uint256",
          "name": "_solution_id",
          "type": "uint256"
        }
      ],
      "name": "getScoreSubmittedByEvaluator",
      "outputs": [
        {
          "internalType": "uint256",
          "name": "",
          "type": "uint256"
        }
      ],
      "stateMutability": "view",
      "type": "function"
    },
    {
      "inputs": [
        {
          "internalType": "address",
          "name": "_evaluator_address",
          "type": "address"
        }
      ],
      "name": "getSolutionByEvaluator",
      "outputs": [
        {
          "components": [
            {
              "internalType": "uint256",
              "name": "id",
              "type": "uint256"
            },
            {
              "internalType": "address",
              "name": "submitter",
              "type": "address"
            },
            {
              "internalType": "string",
              "name": "challenge_title_url",
              "type": "string"
            },
            {
              "internalType": "enum SystemEnums.Domain",
              "name": "domain",
              "type": "uint8"
            },
            {
              "internalType": "string",
              "name": "solution_txid",
              "type": "string"
            },
            {
              "internalType": "uint256",
              "name": "submitted_at",
              "type": "uint256"
            },
            {
              "internalType": "enum SystemEnums.SolutionProgress",
              "name": "progress",
              "type": "uint8"
            },
            {
              "internalType": "uint256",
              "name": "number_of_joined_evaluators",
              "type": "uint256"
            },
            {
              "internalType": "uint256",
              "name": "total_evaluators",
              "type": "uint256"
            }
          ],
          "internalType": "struct SolutionManager.UnderReviewSolutionPreview[]",
          "name": "",
          "type": "tuple[]"
        }
      ],
      "stateMutability": "view",
      "type": "function"
    },
    {
      "inputs": [
        {
          "internalType": "uint256",
          "name": "_solution_id",
          "type": "uint256"
        }
      ],
      "name": "getSolutionById",
      "outputs": [
        {
          "components": [
            {
              "internalType": "uint256",
              "name": "id",
              "type": "uint256"
            },
            {
              "internalType": "address",
              "name": "user",
              "type": "address"
            },
            {
              "internalType": "uint256",
              "name": "challenge_id",
              "type": "uint256"
            },
            {
              "internalType": "string",
              "name": "solution_txid",
              "type": "string"
            },
            {
              "internalType": "uint256",
              "name": "created_at",
              "type": "uint256"
            },
            {
              "internalType": "uint256",
              "name": "submitted_at",
              "type": "uint256"
            },
            {
              "internalType": "enum SystemEnums.SolutionProgress",
              "name": "progress",
              "type": "uint8"
            },
            {
              "internalType": "uint256",
              "name": "score",
              "type": "uint256"
            }
          ],
          "internalType": "struct SolutionManager.Solution",
          "name": "",
          "type": "tuple"
        }
      ],
      "stateMutability": "view",
      "type": "function"
    },
    {
      "inputs": [
        {
          "internalType": "address",
          "name": "_user_address",
          "type": "address"
        },
        {
          "internalType": "uint256",
          "name": "_challenge_id",
          "type": "uint256"
        }
      ],
      "name": "getSolutionByUserAndChallengeId",
      "outputs": [
        {
          "components": [
            {
              "internalType": "uint256",
              "name": "id",
              "type": "uint256"
            },
            {
              "internalType": "address",
              "name": "user",
              "type": "address"
            },
            {
              "internalType": "uint256",
              "name": "challenge_id",
              "type": "uint256"
            },
            {
              "internalType": "string",
              "name": "solution_txid",
              "type": "string"
            },
            {
              "internalType": "uint256",
              "name": "created_at",
              "type": "uint256"
            },
            {
              "internalType": "uint256",
              "name": "submitted_at",
              "type": "uint256"
            },
            {
              "internalType": "enum SystemEnums.SolutionProgress",
              "name": "progress",
              "type": "uint8"
            },
            {
              "internalType": "uint256",
              "name": "score",
              "type": "uint256"
            }
          ],
          "internalType": "struct SolutionManager.Solution",
          "name": "",
          "type": "tuple"
        }
      ],
      "stateMutability": "view",
      "type": "function"
    },
    {
      "inputs": [
        {
          "internalType": "address",
          "name": "_user_address",
          "type": "address"
        },
        {
          "internalType": "uint256",
          "name": "_challenge_id",
          "type": "uint256"
        }
      ],
      "name": "getSolutionPreviewByUserAndChallengeId",
      "outputs": [
        {
          "internalType": "uint256",
          "name": "created_at",
          "type": "uint256"
        },
        {
          "internalType": "enum SystemEnums.SolutionProgress",
          "name": "progress",
          "type": "uint8"
        },
        {
          "internalType": "uint256",
          "name": "score",
          "type": "uint256"
        }
      ],
      "stateMutability": "view",
      "type": "function"
    },
    {
      "inputs": [
        {
          "internalType": "address",
          "name": "_user_address",
          "type": "address"
        },
        {
          "internalType": "uint256",
          "name": "_challenge_id",
          "type": "uint256"
        }
      ],
      "name": "getSolutionTxId",
      "outputs": [
        {
          "internalType": "string",
          "name": "",
          "type": "string"
        }
      ],
      "stateMutability": "view",
      "type": "function"
    },
    {
      "inputs": [],
      "name": "getUnderReviewSolutionPreview",
      "outputs": [
        {
          "components": [
            {
              "internalType": "uint256",
              "name": "id",
              "type": "uint256"
            },
            {
              "internalType": "address",
              "name": "submitter",
              "type": "address"
            },
            {
              "internalType": "string",
              "name": "challenge_title_url",
              "type": "string"
            },
            {
              "internalType": "enum SystemEnums.Domain",
              "name": "domain",
              "type": "uint8"
            },
            {
              "internalType": "string",
              "name": "solution_txid",
              "type": "string"
            },
            {
              "internalType": "uint256",
              "name": "submitted_at",
              "type": "uint256"
            },
            {
              "internalType": "enum SystemEnums.SolutionProgress",
              "name": "progress",
              "type": "uint8"
            },
            {
              "internalType": "uint256",
              "name": "number_of_joined_evaluators",
              "type": "uint256"
            },
            {
              "internalType": "uint256",
              "name": "total_evaluators",
              "type": "uint256"
            }
          ],
          "internalType": "struct SolutionManager.UnderReviewSolutionPreview[]",
          "name": "",
          "type": "tuple[]"
        }
      ],
      "stateMutability": "view",
      "type": "function"
    },
    {
      "inputs": [
        {
          "internalType": "uint256",
          "name": "_challenge_id",
          "type": "uint256"
        }
      ],
      "name": "putSolutionUnderReview",
      "outputs": [],
      "stateMutability": "nonpayable",
      "type": "function"
    },
    {
      "inputs": [
        {
          "internalType": "address",
          "name": "_address",
          "type": "address"
        }
      ],
      "name": "setChallengeManagerAddress",
      "outputs": [],
      "stateMutability": "nonpayable",
      "type": "function"
    },
    {
      "inputs": [
        {
          "internalType": "address",
          "name": "_address",
          "type": "address"
        }
      ],
      "name": "setReputationManagerAddress",
      "outputs": [],
      "stateMutability": "nonpayable",
      "type": "function"
    },
    {
      "inputs": [
        {
          "internalType": "uint256",
          "name": "_challenge_id",
          "type": "uint256"
        }
      ],
      "name": "submitSolution",
      "outputs": [],
      "stateMutability": "nonpayable",
      "type": "function"
    }
  ],
  "bytecode": "0x60808060405234601a576000600b5561210390816100208239f35b600080fdfe6080604052600436101561001257600080fd5b6000803560e01c80630bf94512146119705780631346c95c146118e0578063419fd69e1461186d57806347f1640c146117ea578063603323851461179f57806379be3c4c146116565780637e1366a7146114265780637e427fae1461134a578063846900cf146113015780639606e630146110fc5780639d4144df146110b0578063af5b087314610f27578063bb96dd3814610efa578063bf22309d14610ed0578063c195433414610dd6578063c361e8cf14610d7e578063d0330881146104fe578063d82ff2e914610180578063e1ce7f4f146101535763ee01d8e6146100f957600080fd5b34610150576020366003190112610150576001600160a01b0361011a611aa1565b1661012681151561205d565b806001600160601b0360a01b60085416176008556001600160601b0360a01b600754161760075580f35b80fd5b50346101505760203660031901126101505760026040602092600435815260048452200154604051908152f35b50346101505760803660031901126101505761019a611aa1565b60443567ffffffffffffffff81116104fa57366023820112156104fa5767ffffffffffffffff8160040135116104fa573660248260040135830101116104fa57600b546101e68161209b565b600b55604051906101f682611d0b565b8082526001600160a01b0384166020830190815260243560408401908152926102226004860135611f5b565b61022f6040519182611d5b565b6004860135808252600095906024880160208401376004870135820160209081018a905260608401928352606435608085015260a084018a905260c084018a905260e084018a9052858a52899052604089208351815593516001850180546001600160a01b0319166001600160a01b03929092169190911790555160028401555180519067ffffffffffffffff82116104e65781906102d16003860154611cd1565b601f8111610496575b50602090601f831160011461042d578a92610422575b50508160011b916000199060031b1c19161760038301555b6080810151600483015560a081015160058301556006820160c0820151600481101561040e578594939260079260e0926040985060ff8019835416911617905501519101556024358652600160205282862060018060a01b0386168352602052828220556024358552600260205281852060018060a01b038516825260205220600160ff198254161790557f3e16aed6ce2e15a2439e36880dec86acc56d4004624545f0f4121f1624804f966040516040815282600401356040820152826004013560248401606083013760049092013582810160609081018690526064356020850152602435946001600160a01b031693601f909201601f191682018290030190a380f35b634e487b7160e01b89526021600452602489fd5b0151905038806102f0565b600386018b52818b209250601f1984168b5b81811061047e5750908460019594939210610465575b505050811b016003830155610308565b015160001960f88460031b161c19169055388080610455565b9293602060018192878601518155019501930161043f565b909150600385018a5260208a20601f840160051c8101602085106104df575b90849392915b601f830160051c820181106104d15750506102da565b8c81558594506001016104bb565b50806104b5565b634e487b7160e01b89526041600452602489fd5b8280fd5b503461015057604036600319011261015057600435602435818352600560205261052e60ff604085205416612011565b8183526004602090815260408085203386526003810190925284205490919060ff1615610d4157338452600482016020819052604085205490929060ff16610cfc576103e84202924284046103e81442151715610ce8576040516060810181811067ffffffffffffffff821117610cd4576040908152338083526020808401878152848401898152838c52600588018352848c20955186546001600160a01b0319166001600160a01b0391909116178655905160018681019190915590516002959095019490945590895292909252908620805460ff191682179055810180549092859161061b9061209b565b8094556040519081528460208201527f148023844b157f8e751820371d187fe4211e0710d53a604eca5840dcfa0ff43160403392a3541461065a578280f35b9091828152600560205261067460ff604083205416612011565b82815280602052604081209280825260046020526040822060018060a01b036007541660028601926020845460246040518095819363e2e6825360e01b835260048301525afa918215610cc9578592610c98575b506002830180546009549095600590950194908790819081906001600160a01b03165b898210610b9d5750508115610b895704928360078b015560068a01600360ff1982541617905580885260056020526040882060ff198154169055875b60065480821015610b56578261073c83611f12565b90549060031b1c146107515750600101610727565b60009a92939495969798999a198101908111610b42579061078461077761079d93611f12565b90549060031b1c91611f12565b90919082549060031b91821b91600019901b1916179055565b6006548015610b2e577f8bee63f0a9f0ea07cbdc4a0a5447e6a74fe06d3717fad513f8f9ebd9b985c19891604091600019016107d881611f12565b8154906000199060031b1b191690556006555b8151908782526020820152a260018060a01b03600754168154813b15610b2a5788916024839260405194859384926319e74b6f60e11b845260048401525af18015610b1f57610b0b575b50600954600189018054600754935460405163024e6e0560e21b815260048101919091526001600160a01b039384169b9184169492939192909160209183916024918391165afa908115610b00578a91610ac5575b508a3b15610ac15760405193630f61997560e21b855260048501526108b26024850188611b9a565b856044850152601e6064850152600a60848501526003811015610aad57988360c48183809e819c9d9e60a48401525af1918215610aa2578792610a85575b5490546040519293508392916001600160a01b0316906109a090610915606085611d5b565b603684527f557064617465642072657075746174696f6e20666f72207573657220257320666020850152756f7220736f6c76696e6720736f6c7574696f6e20257360501b60408501526040519283916109876020840196630d26b92560e01b8852606060248601526084850190611adf565b916044840152606483015203601f198101835282611d5b565b51906a636f6e736f6c652e6c6f675afa50835b8681106109c35750505050508280f35b6109cd8183611f43565b90546001600160a01b0360039290921b1c81166000818152602089905260409020600954600190910154921691823b15610a815760c4889283604051958694859363f28cdc1360e01b85526004850152610a2a602485018d611b9a565b8a60448501526064840152603c6084840152600a60a48401525af1908115610a76578691610a5d575b50506001016109b3565b81610a6791611d5b565b610a72578438610a53565b8480fd5b6040513d88823e3d90fd5b8780fd5b91909281610a9291611d5b565b610a9e578186916108f0565b8580fd5b6040513d89823e3d90fd5b634e487b7160e01b8a52602160045260248afd5b8980fd5b90506020813d602011610af8575b81610ae060209383611d5b565b81010312610ac157516003811015610ac1573861088a565b3d9150610ad3565b6040513d8c823e3d90fd5b87610b1891989298611d5b565b9538610835565b6040513d8a823e3d90fd5b8880fd5b634e487b7160e01b8a52603160045260248afd5b634e487b7160e01b8b52601160045260248bfd5b5050909192939495969760407f8bee63f0a9f0ea07cbdc4a0a5447e6a74fe06d3717fad513f8f9ebd9b985c198916107eb565b634e487b7160e01b89526012600452602489fd5b909291610baa8487611f43565b905460039190911b1c6001600160a01b0316808c5260208a90526040808d209051630cf571c160e11b815260048101929092529190610bec602482018b611b9a565b602081604481875afa908115610c8d578d91610c58575b506001019182600111610c4457600101549082820291808304841490151715610c445791610c36610c3c926001946120c0565b946120c0565b9301906106eb565b634e487b7160e01b8d52601160045260248dfd5b90506020813d8211610c85575b81610c7260209383611d5b565b81010312610c81575138610c03565b8c80fd5b3d9150610c65565b6040513d8f823e3d90fd5b610cbb91925060203d602011610cc2575b610cb38183611d5b565b810190611fd9565b90386106c8565b503d610ca9565b6040513d87823e3d90fd5b634e487b7160e01b88526041600452602488fd5b634e487b7160e01b86526011600452602486fd5b60405162461bcd60e51b815260206004820152601760248201527f416c7265616479207375626d69747465642073636f72650000000000000000006044820152606490fd5b60405162461bcd60e51b81526020600482015260156024820152742737ba103537b4b732b21032bb30b63ab0ba34b7b760591b6044820152606490fd5b5034610150576020366003190112610150576001600160a01b03610da0611aa1565b16610dac81151561205d565b806001600160601b0360a01b600a541617600a556001600160601b0360a01b600954161760095580f35b5034610150576040366003190112610150576040610ecc91610df6611aa1565b602435610e01611e21565b50808352600260209081528484206001600160a01b0384168552905283832054610e2d9060ff16611c85565b825260016020528282209060018060a01b031682526020528181205481528060205220600760405191610e5f83611d0b565b8054835260018101546001600160a01b0316602084015260028101546040840152610e8c60038201611d7d565b606084015260048101546080840152600581015460a0840152610eb960ff60068301541660c08501611e5e565b015460e082015260405191829182611b27565b0390f35b50346101505760203660031901126101505760406020916004358152600483522054604051908152f35b50346101505760203660031901126101505760016040602092600435815260048452200154604051908152f35b503461015057602036600319011261015057600435808252600260209081526040808420338552909152822054610f609060ff16611c85565b8152600160209081526040808320338452825280832054808452918390528220600601805460ff16600481101561109c5760010361105e57600260ff19825416179055808252600460205281600160408220600381550155808252600560205260408220600160ff19825416179055600654600160401b81101561104a5781610784826001610ff494016006556006611f43565b6103e842024281046103e814421517156110365760207f5d3f96fa44923951be188e5f845549999c2ab981c3ea34e0274943af92fc274491604051908152a280f35b634e487b7160e01b83526011600452602483fd5b634e487b7160e01b83526041600452602483fd5b60405162461bcd60e51b815260206004820152601660248201527514dbdb1d5d1a5bdb881b9bdd081cdd589b5a5d1d195960521b6044820152606490fd5b634e487b7160e01b84526021600452602484fd5b50346101505760403660031901126101505760ff60406020926110d1611aa1565b6024358252600485528282206001600160a01b03909116825260030184522054604051911615158152f35b5034610150576020366003190112610150576001600160a01b0361111e611aa1565b1681526003602052604081206040518082602082945493848152019085526020852092855b8181106112e857505061115892500382611d5b565b6111628151611e82565b6007546001600160a01b0316835b83518110156112da576111838185611ffd565b519081865285602052604086208287526004602052604087209260018060a01b03600183015416938860028401549560405163f55dd32b60e01b815287600482015282816024818c5afa9081156112ad5783916112b8575b506040519763e2e6825360e01b895260048901526020886024818c5afa80156112ad57600361123a9761124f6112559360019c611268989161128f575b5060058301549560ff6006850154169760028b01549a549b6040519d8e611d3e565b8d5260208d015260408c015260608b01611ff1565b01611d7d565b608087015260a086015260c08501611e5e565b60e083015261010082015261127d8286611ffd565b526112888185611ffd565b5001611170565b6112a7915060203d8111610cc257610cb38183611d5b565b38611218565b6040513d85823e3d90fd5b6112d491503d8085833e6112cc8183611d5b565b810190611f77565b386111db565b60405180610ecc8582611ba7565b8454835260019485019486945060209093019201611143565b50346101505760403660031901126101505760ff6040602092611322611aa1565b6024358252600285528282206001600160a01b03909116825284522054604051911615158152f35b503461015057604036600319011261015057611364611aa1565b60243582526004602090815260408084206001600160a01b03841685526003810190925283205460ff1680611405575b156113c0576001600160a01b039091168252600501602090815260409182902060010154915191825290f35b60405162461bcd60e51b815260206004820152601d60248201527f4576616c7561746f72206e6f74207375626d69747465642073636f72650000006044820152606490fd5b506001600160a01b038216835260048101602052604083205460ff16611394565b503461015057602036600319011261015057600435808252600560205261145360ff604084205416612011565b8082528160205260018060a01b0360016040842001541633146116115780825260046020908152604080842033855260038101928390529084205460ff166115cc57600281019081549054111561159057338452600360205260408420805490600160401b82101561157c5761078482869260016114d395018155611f43565b805490600160401b82101561156857906114f291600182018155611f43565b81543360039290921b82811b6001600160a01b0390911b1990911617909155835260205260408220805460ff191660011790556103e842818102918183041490151715611036576040519081527f1a53c00e06bde8e51ef080ab86b5efd98264968d07701c264f9ae606f3cb79a360203392a380f35b634e487b7160e01b85526041600452602485fd5b634e487b7160e01b86526041600452602486fd5b60405162461bcd60e51b8152602060048201526014602482015273115d985b1d585d1a5bdb881c1bdbdb08199d5b1b60621b6044820152606490fd5b60405162461bcd60e51b815260206004820152601960248201527f416c7265616479206a6f696e6564206576616c756174696f6e000000000000006044820152606490fd5b60405162461bcd60e51b815260206004820152601c60248201527f43616e6e6f74206576616c75617465206f776e20736f6c7574696f6e000000006044820152606490fd5b503461015057806003193601126101505760065461167381611e82565b6007549091906001600160a01b0316835b8281106116995760405180610ecc8682611ba7565b6116a281611f12565b90549060031b1c9081865285602052604086208287526004602052604087209260018060a01b03600183015416938860028401549560405163f55dd32b60e01b815287600482015282816024818c5afa9081156112ad578391611785575b506040519763e2e6825360e01b895260048901526020886024818c5afa80156112ad57600361123a9761124f6112559360019c61175e989161128f575060058301549560ff6006850154169760028b01549a549b6040519d8e611d3e565b60e08301526101008201526117738287611ffd565b5261177e8186611ffd565b5001611684565b61179991503d8085833e6112cc8183611d5b565b38611700565b50346101505760403660031901126101505760ff60406020926117c0611aa1565b602435825260048086528383206001600160a01b0390921683520184522054604051911615158152f35b503461015057602036600319011261015057600435611807611e21565b50600b5481101561182f5781604091610ecc93528060205220600760405191610e5f83611d0b565b60405162461bcd60e51b815260206004820152601660248201527514dbdb1d5d1a5bdb88191bd95cdb89dd08195e1a5cdd60521b6044820152606490fd5b503461015057604036600319011261015057604060609161188c611aa1565b602435825260016020528282209060018060a01b0316825260205281812054815280602052206004810154906118d9600760ff600684015416920154916040519384526020840190611b04565b6040820152f35b50346101505760403660031901126101505761195c60036040610ecc93611905611aa1565b602435808352600260209081528484206001600160a01b03841685529052838320546119339060ff16611c85565b825260016020528282209060018060a01b03168252602052818120548152806020522001611d7d565b604051918291602083526020830190611adf565b5034610150576020366003190112610150576004358082526002602090815260408084203385529091528220546119a99060ff16611c85565b815260016020908152604080832033845282528083205480845291839052822060068101805460ff166004811015611a8d57611a48576103e84202914283046103e81442151715611a3457600501829055805460ff191660011790556040519081527f345d4b6c73b8d56ad5e2d99d672af9008394bf64006f1ff2ef29e527b96babbb90602090a280f35b634e487b7160e01b85526011600452602485fd5b60405162461bcd60e51b815260206004820152601860248201527f536f6c7574696f6e206e6f7420696e2070726f677265737300000000000000006044820152606490fd5b634e487b7160e01b85526021600452602485fd5b600435906001600160a01b0382168203611ab757565b600080fd5b60005b838110611acf5750506000910152565b8181015183820152602001611abf565b90602091611af881518092818552858086019101611abc565b601f01601f1916010190565b906004821015611b115752565b634e487b7160e01b600052602160045260246000fd5b602081528151602082015260018060a01b0360208301511660408201526040820151606082015261010060e0611b6c6060850151836080860152610120850190611adf565b93608081015160a085015260a081015160c0850152611b9260c082015183860190611b04565b015191015290565b90600e821015611b115752565b602081016020825282518091526040820191602060408360051b8301019401926000915b838310611bda57505050505090565b9091929394602080600192603f1985820301865288519081518152848060a01b0383830151168382015261010080611c4a611c2660408601516101206040870152610120860190611adf565b611c3860608701516060870190611b9a565b60808601518582036080870152611adf565b9360a081015160a0850152611c6760c082015160c0860190611b04565b60e081015160e0850152015191015297019301930191939290611bcb565b15611c8c57565b60405162461bcd60e51b815260206004820152601960248201527f55736572206e6f74206a6f696e6564206368616c6c656e6765000000000000006044820152606490fd5b90600182811c92168015611d01575b6020831014611ceb57565b634e487b7160e01b600052602260045260246000fd5b91607f1691611ce0565b610100810190811067ffffffffffffffff821117611d2857604052565b634e487b7160e01b600052604160045260246000fd5b610120810190811067ffffffffffffffff821117611d2857604052565b90601f8019910116810190811067ffffffffffffffff821117611d2857604052565b9060405191826000825492611d9184611cd1565b8084529360018116908115611dff5750600114611db8575b50611db692500383611d5b565b565b90506000929192526020600020906000915b818310611de3575050906020611db69282010138611da9565b6020919350806001915483858901015201910190918492611dca565b905060209250611db694915060ff191682840152151560051b82010138611da9565b60405190611e2e82611d0b565b600060e0838281528260208201528260408201526060808201528260808201528260a08201528260c08201520152565b6004821015611b115752565b67ffffffffffffffff8111611d285760051b60200190565b90611e8c82611e6a565b611e996040519182611d5b565b8281528092611eaa601f1991611e6a565b019060005b828110611ebb57505050565b602090604051611eca81611d3e565b60008152600083820152606060408201526000606082015260606080820152600060a0820152600060c0820152600060e0820152600061010082015282828501015201611eaf565b600654811015611f2d57600660005260206000200190600090565b634e487b7160e01b600052603260045260246000fd5b8054821015611f2d5760005260206000200190600090565b67ffffffffffffffff8111611d2857601f01601f191660200190565b602081830312611ab75780519067ffffffffffffffff8211611ab7570181601f82011215611ab7578051611faa81611f5b565b92611fb86040519485611d5b565b81845260208284010111611ab757611fd69160208085019101611abc565b90565b90816020910312611ab75751600e811015611ab75790565b600e821015611b115752565b8051821015611f2d5760209160051b010190565b1561201857565b60405162461bcd60e51b815260206004820152601960248201527f536f6c7574696f6e206e6f7420756e64657220726576696577000000000000006044820152606490fd5b1561206457565b60405162461bcd60e51b815260206004820152600f60248201526e496e76616c6964206164647265737360881b6044820152606490fd5b60001981146120aa5760010190565b634e487b7160e01b600052601160045260246000fd5b919082018092116120aa5756fea2646970667358221220418eebe31dcc28dafdcf42ad4f4cc9fa84cd991b3a68cecc14a18e35a7b25a6e64736f6c634300081c0033",
  "linkReferences": {},
  "deployedLinkReferences": {}
}