{
  "_format": "hh-sol-artifact-1",
  "contractName": "SolutionManager",
  "sourceName": "contracts/SolutionManager.sol",
  "abi": [
    {
      "anonymous": false,
      "inputs": [
        {
          "indexed": false,
          "internalType": "address",
          "name": "user_address",
          "type": "address"
        },
        {
          "indexed": false,
          "internalType": "uint256",
          "name": "challenge_id",
          "type": "uint256"
        },
        {
          "indexed": false,
          "internalType": "uint256",
          "name": "created_at",
          "type": "uint256"
        }
      ],
      "name": "SolutionBaseCreated",
      "type": "event"
    },
    {
      "anonymous": false,
      "inputs": [
        {
          "indexed": false,
          "internalType": "string",
          "name": "solution_url",
          "type": "string"
        },
        {
          "indexed": false,
          "internalType": "uint256",
          "name": "submitted_at",
          "type": "uint256"
        }
      ],
      "name": "SolutionSubmitted",
      "type": "event"
    },
    {
      "inputs": [
        {
          "internalType": "address",
          "name": "_user_address",
          "type": "address"
        },
        {
          "internalType": "uint256",
          "name": "_challenge_id",
          "type": "uint256"
        }
      ],
      "name": "checkUserJoinedChallenge",
      "outputs": [
        {
          "internalType": "bool",
          "name": "",
          "type": "bool"
        }
      ],
      "stateMutability": "view",
      "type": "function"
    },
    {
      "inputs": [
        {
          "internalType": "address",
          "name": "_user_address",
          "type": "address"
        },
        {
          "internalType": "uint256",
          "name": "_challenge_id",
          "type": "uint256"
        },
        {
          "internalType": "uint256",
          "name": "_created_at",
          "type": "uint256"
        }
      ],
      "name": "createSolutionBase",
      "outputs": [],
      "stateMutability": "nonpayable",
      "type": "function"
    },
    {
      "inputs": [
        {
          "internalType": "address",
          "name": "_user_address",
          "type": "address"
        },
        {
          "internalType": "uint256",
          "name": "_challenge_id",
          "type": "uint256"
        }
      ],
      "name": "getSolutionByUserAndChallengeId",
      "outputs": [
        {
          "components": [
            {
              "internalType": "address",
              "name": "user",
              "type": "address"
            },
            {
              "internalType": "uint256",
              "name": "challenge_id",
              "type": "uint256"
            },
            {
              "internalType": "string",
              "name": "solution_url",
              "type": "string"
            },
            {
              "internalType": "uint256",
              "name": "created_at",
              "type": "uint256"
            },
            {
              "internalType": "uint256",
              "name": "submitted_at",
              "type": "uint256"
            },
            {
              "internalType": "enum SolutionProgress",
              "name": "progress",
              "type": "uint8"
            },
            {
              "internalType": "uint256",
              "name": "score",
              "type": "uint256"
            }
          ],
          "internalType": "struct SolutionManager.Solution",
          "name": "",
          "type": "tuple"
        }
      ],
      "stateMutability": "view",
      "type": "function"
    },
    {
      "inputs": [
        {
          "internalType": "address",
          "name": "_user_address",
          "type": "address"
        },
        {
          "internalType": "uint256",
          "name": "_challenge_id",
          "type": "uint256"
        }
      ],
      "name": "getSolutionPreviewByUserAndChallengeId",
      "outputs": [
        {
          "internalType": "uint256",
          "name": "created_at",
          "type": "uint256"
        },
        {
          "internalType": "enum SolutionProgress",
          "name": "progress",
          "type": "uint8"
        },
        {
          "internalType": "uint256",
          "name": "score",
          "type": "uint256"
        }
      ],
      "stateMutability": "view",
      "type": "function"
    },
    {
      "inputs": [
        {
          "internalType": "uint256",
          "name": "_challenge_id",
          "type": "uint256"
        },
        {
          "internalType": "string",
          "name": "_solution_url",
          "type": "string"
        }
      ],
      "name": "submitSolution",
      "outputs": [],
      "stateMutability": "nonpayable",
      "type": "function"
    }
  ],
  "bytecode": "0x60806040526000600355348015601457600080fd5b5061189e806100246000396000f3fe608060405234801561001057600080fd5b50600436106100575760003560e01c8063419fd69e1461005c5780637d2c111f1461008e578063846900cf146100aa578063c1954334146100da578063d3b5c0161461010a575b600080fd5b61007660048036038101906100719190610d1e565b610126565b60405161008593929190610de4565b60405180910390f35b6100a860048036038101906100a39190610e1b565b6101ba565b005b6100c460048036038101906100bf9190610d1e565b61042f565b6040516100d19190610e89565b60405180910390f35b6100f460048036038101906100ef9190610d1e565b610497565b6040516101019190610ffd565b60405180910390f35b610124600480360381019061011f9190611084565b61073a565b005b6000806000806000806001600088815260200190815260200160002060008973ffffffffffffffffffffffffffffffffffffffff1673ffffffffffffffffffffffffffffffffffffffff168152602001908152602001600020548152602001908152602001600020905080600301548160050160009054906101000a900460ff168260060154935093509350509250925092565b6000600360008154809291906101cf90611113565b9190505590506040518060e001604052808573ffffffffffffffffffffffffffffffffffffffff168152602001848152602001604051806020016040528060008152508152602001838152602001600081526020016000600381111561023857610237610d6d565b5b8152602001600081525060008083815260200190815260200160002060008201518160000160006101000a81548173ffffffffffffffffffffffffffffffffffffffff021916908373ffffffffffffffffffffffffffffffffffffffff1602179055506020820151816001015560408201518160020190816102ba9190611396565b50606082015181600301556080820151816004015560a08201518160050160006101000a81548160ff021916908360038111156102fa576102f9610d6d565b5b021790555060c08201518160060155905050806001600085815260200190815260200160002060008673ffffffffffffffffffffffffffffffffffffffff1673ffffffffffffffffffffffffffffffffffffffff1681526020019081526020016000208190555060016002600085815260200190815260200160002060008673ffffffffffffffffffffffffffffffffffffffff1673ffffffffffffffffffffffffffffffffffffffff16815260200190815260200160002060006101000a81548160ff0219169083151502179055506103ee604051806060016040528060358152602001611834603591398285876109e8565b7fd231c82f4da926ff6a30268b19257c0397a59fb60bd781005f6ac17783ecfd1584848460405161042193929190611477565b60405180910390a150505050565b60006002600083815260200190815260200160002060008473ffffffffffffffffffffffffffffffffffffffff1673ffffffffffffffffffffffffffffffffffffffff16815260200190815260200160002060009054906101000a900460ff16905092915050565b61049f610c11565b6002600083815260200190815260200160002060008473ffffffffffffffffffffffffffffffffffffffff1673ffffffffffffffffffffffffffffffffffffffff16815260200190815260200160002060009054906101000a900460ff1661050657600080fd5b61057a6040518060600160405280602d8152602001611807602d9139846001600086815260200190815260200160002060008773ffffffffffffffffffffffffffffffffffffffff1673ffffffffffffffffffffffffffffffffffffffff1681526020019081526020016000205485610a8a565b6000806001600085815260200190815260200160002060008673ffffffffffffffffffffffffffffffffffffffff1673ffffffffffffffffffffffffffffffffffffffff1681526020019081526020016000205481526020019081526020016000206040518060e00160405290816000820160009054906101000a900473ffffffffffffffffffffffffffffffffffffffff1673ffffffffffffffffffffffffffffffffffffffff1673ffffffffffffffffffffffffffffffffffffffff16815260200160018201548152602001600282018054610657906111b9565b80601f0160208091040260200160405190810160405280929190818152602001828054610683906111b9565b80156106d05780601f106106a5576101008083540402835291602001916106d0565b820191906000526020600020905b8154815290600101906020018083116106b357829003601f168201915b5050505050815260200160038201548152602001600482015481526020016005820160009054906101000a900460ff16600381111561071257610711610d6d565b5b600381111561072457610723610d6d565b5b8152602001600682015481525050905092915050565b6002600084815260200190815260200160002060003373ffffffffffffffffffffffffffffffffffffffff1673ffffffffffffffffffffffffffffffffffffffff16815260200190815260200160002060009054906101000a900460ff166107a157600080fd5b60008060006001600087815260200190815260200160002060003373ffffffffffffffffffffffffffffffffffffffff1673ffffffffffffffffffffffffffffffffffffffff1681526020019081526020016000205481526020019081526020016000209050828282600201918261081a9291906114b9565b506103e8426108299190611589565b816004018190555060018160050160006101000a81548160ff0219169083600381111561085957610858610d6d565b5b02179055506108d26040518060600160405280603181526020016117d660319139336001600088815260200190815260200160002060003373ffffffffffffffffffffffffffffffffffffffff1673ffffffffffffffffffffffffffffffffffffffff1681526020019081526020016000205487610a8a565b6109a26040518060400160405280601b81526020017f6174202573207769746820736f6c7574696f6e2055524c3a2025730000000000815250826004015483600201805461091f906111b9565b80601f016020809104026020016040519081016040528092919081815260200182805461094b906111b9565b80156109985780601f1061096d57610100808354040283529160200191610998565b820191906000526020600020905b81548152906001019060200180831161097b57829003601f168201915b5050505050610b2c565b7f2aa34a1de4c10214d3cfaba633359f6355fd23ccb60ca39e986dbf129cc427f38160020182600401546040516109da929190611660565b60405180910390a150505050565b610a8484848484604051602401610a0294939291906116c9565b6040516020818303038152906040527fe21de278000000000000000000000000000000000000000000000000000000007bffffffffffffffffffffffffffffffffffffffffffffffffffffffff19166020820180517bffffffffffffffffffffffffffffffffffffffffffffffffffffffff8381831617835250505050610bcb565b50505050565b610b2684848484604051602401610aa49493929190611715565b6040516020818303038152906040527ff8f51b1e000000000000000000000000000000000000000000000000000000007bffffffffffffffffffffffffffffffffffffffffffffffffffffffff19166020820180517bffffffffffffffffffffffffffffffffffffffffffffffffffffffff8381831617835250505050610bcb565b50505050565b610bc6838383604051602401610b4493929190611761565b6040516020818303038152906040527f5970e089000000000000000000000000000000000000000000000000000000007bffffffffffffffffffffffffffffffffffffffffffffffffffffffff19166020820180517bffffffffffffffffffffffffffffffffffffffffffffffffffffffff8381831617835250505050610bcb565b505050565b610be281610bda610be5610c06565b63ffffffff16565b50565b60006a636f6e736f6c652e6c6f679050600080835160208501845afa505050565b610c76819050919050565b6040518060e00160405280600073ffffffffffffffffffffffffffffffffffffffff1681526020016000815260200160608152602001600081526020016000815260200160006003811115610c6957610c68610d6d565b5b8152602001600081525090565b610c7e6117a6565b565b600080fd5b600080fd5b600073ffffffffffffffffffffffffffffffffffffffff82169050919050565b6000610cb582610c8a565b9050919050565b610cc581610caa565b8114610cd057600080fd5b50565b600081359050610ce281610cbc565b92915050565b6000819050919050565b610cfb81610ce8565b8114610d0657600080fd5b50565b600081359050610d1881610cf2565b92915050565b60008060408385031215610d3557610d34610c80565b5b6000610d4385828601610cd3565b9250506020610d5485828601610d09565b9150509250929050565b610d6781610ce8565b82525050565b7f4e487b7100000000000000000000000000000000000000000000000000000000600052602160045260246000fd5b60048110610dad57610dac610d6d565b5b50565b6000819050610dbe82610d9c565b919050565b6000610dce82610db0565b9050919050565b610dde81610dc3565b82525050565b6000606082019050610df96000830186610d5e565b610e066020830185610dd5565b610e136040830184610d5e565b949350505050565b600080600060608486031215610e3457610e33610c80565b5b6000610e4286828701610cd3565b9350506020610e5386828701610d09565b9250506040610e6486828701610d09565b9150509250925092565b60008115159050919050565b610e8381610e6e565b82525050565b6000602082019050610e9e6000830184610e7a565b92915050565b610ead81610caa565b82525050565b610ebc81610ce8565b82525050565b600081519050919050565b600082825260208201905092915050565b60005b83811015610efc578082015181840152602081019050610ee1565b60008484015250505050565b6000601f19601f8301169050919050565b6000610f2482610ec2565b610f2e8185610ecd565b9350610f3e818560208601610ede565b610f4781610f08565b840191505092915050565b610f5b81610dc3565b82525050565b600060e083016000830151610f796000860182610ea4565b506020830151610f8c6020860182610eb3565b5060408301518482036040860152610fa48282610f19565b9150506060830151610fb96060860182610eb3565b506080830151610fcc6080860182610eb3565b5060a0830151610fdf60a0860182610f52565b5060c0830151610ff260c0860182610eb3565b508091505092915050565b600060208201905081810360008301526110178184610f61565b905092915050565b600080fd5b600080fd5b600080fd5b60008083601f8401126110445761104361101f565b5b8235905067ffffffffffffffff81111561106157611060611024565b5b60208301915083600182028301111561107d5761107c611029565b5b9250929050565b60008060006040848603121561109d5761109c610c80565b5b60006110ab86828701610d09565b935050602084013567ffffffffffffffff8111156110cc576110cb610c85565b5b6110d88682870161102e565b92509250509250925092565b7f4e487b7100000000000000000000000000000000000000000000000000000000600052601160045260246000fd5b600061111e82610ce8565b91507fffffffffffffffffffffffffffffffffffffffffffffffffffffffffffffffff82036111505761114f6110e4565b5b600182019050919050565b7f4e487b7100000000000000000000000000000000000000000000000000000000600052604160045260246000fd5b7f4e487b7100000000000000000000000000000000000000000000000000000000600052602260045260246000fd5b600060028204905060018216806111d157607f821691505b6020821081036111e4576111e361118a565b5b50919050565b60008190508160005260206000209050919050565b60006020601f8301049050919050565b600082821b905092915050565b60006008830261124c7fffffffffffffffffffffffffffffffffffffffffffffffffffffffffffffffff8261120f565b611256868361120f565b95508019841693508086168417925050509392505050565b6000819050919050565b600061129361128e61128984610ce8565b61126e565b610ce8565b9050919050565b6000819050919050565b6112ad83611278565b6112c16112b98261129a565b84845461121c565b825550505050565b600090565b6112d66112c9565b6112e18184846112a4565b505050565b5b81811015611305576112fa6000826112ce565b6001810190506112e7565b5050565b601f82111561134a5761131b816111ea565b611324846111ff565b81016020851015611333578190505b61134761133f856111ff565b8301826112e6565b50505b505050565b600082821c905092915050565b600061136d6000198460080261134f565b1980831691505092915050565b6000611386838361135c565b9150826002028217905092915050565b61139f82610ec2565b67ffffffffffffffff8111156113b8576113b761115b565b5b6113c282546111b9565b6113cd828285611309565b600060209050601f83116001811461140057600084156113ee578287015190505b6113f8858261137a565b865550611460565b601f19841661140e866111ea565b60005b8281101561143657848901518255600182019150602085019450602081019050611411565b86831015611453578489015161144f601f89168261135c565b8355505b6001600288020188555050505b505050505050565b61147181610caa565b82525050565b600060608201905061148c6000830186611468565b6114996020830185610d5e565b6114a66040830184610d5e565b949350505050565b600082905092915050565b6114c383836114ae565b67ffffffffffffffff8111156114dc576114db61115b565b5b6114e682546111b9565b6114f1828285611309565b6000601f831160018114611520576000841561150e578287013590505b611518858261137a565b865550611580565b601f19841661152e866111ea565b60005b8281101561155657848901358255600182019150602085019450602081019050611531565b86831015611573578489013561156f601f89168261135c565b8355505b6001600288020188555050505b50505050505050565b600061159482610ce8565b915061159f83610ce8565b92508282026115ad81610ce8565b915082820484148315176115c4576115c36110e4565b5b5092915050565b600082825260208201905092915050565b600081546115e9816111b9565b6115f381866115cb565b9450600182166000811461160e576001811461162457611657565b60ff198316865281151560200286019350611657565b61162d856111ea565b60005b8381101561164f57815481890152600182019150602081019050611630565b808801955050505b50505092915050565b6000604082019050818103600083015261167a81856115dc565b90506116896020830184610d5e565b9392505050565b600061169b82610ec2565b6116a581856115cb565b93506116b5818560208601610ede565b6116be81610f08565b840191505092915050565b600060808201905081810360008301526116e38187611690565b90506116f26020830186610d5e565b6116ff6040830185610d5e565b61170c6060830184611468565b95945050505050565b6000608082019050818103600083015261172f8187611690565b905061173e6020830186611468565b61174b6040830185610d5e565b6117586060830184610d5e565b95945050505050565b6000606082019050818103600083015261177b8186611690565b905061178a6020830185610d5e565b818103604083015261179c8184611690565b9050949350505050565b7f4e487b7100000000000000000000000000000000000000000000000000000000600052605160045260246000fdfe55736572202573207375626d6d697474656420736f6c7574696f6e2023257320666f72206368616c6c656e67652023257355736572202573206665746368656420736f6c7574696f6e20232573206f66206368616c6c656e6765202325734372656174656420736f6c7574696f6e206261736520232573206f66206368616c6c656e676520257320666f722075736572202573a2646970667358221220f683c366e57c92956f87a9bf8a4c1050fcb345baaeb1e900dab8df8bcd16e4c464736f6c634300081c0033",
  "linkReferences": {},
  "deployedLinkReferences": {}
}