{
  "_format": "hh-sol-artifact-1",
  "contractName": "SolutionManager",
  "sourceName": "contracts/SolutionManager.sol",
  "abi": [
    {
      "anonymous": false,
      "inputs": [
        {
          "indexed": false,
          "internalType": "address",
          "name": "user_address",
          "type": "address"
        },
        {
          "indexed": false,
          "internalType": "uint256",
          "name": "challenge_id",
          "type": "uint256"
        },
        {
          "indexed": false,
          "internalType": "string",
          "name": "solution_base_txid",
          "type": "string"
        },
        {
          "indexed": false,
          "internalType": "uint256",
          "name": "created_at",
          "type": "uint256"
        }
      ],
      "name": "SolutionBaseCreated",
      "type": "event"
    },
    {
      "anonymous": false,
      "inputs": [
        {
          "indexed": false,
          "internalType": "uint256",
          "name": "submitted_at",
          "type": "uint256"
        }
      ],
      "name": "SolutionSubmitted",
      "type": "event"
    },
    {
      "inputs": [
        {
          "internalType": "address",
          "name": "_user_address",
          "type": "address"
        },
        {
          "internalType": "uint256",
          "name": "_challenge_id",
          "type": "uint256"
        }
      ],
      "name": "checkUserJoinedChallenge",
      "outputs": [
        {
          "internalType": "bool",
          "name": "",
          "type": "bool"
        }
      ],
      "stateMutability": "view",
      "type": "function"
    },
    {
      "inputs": [
        {
          "internalType": "address",
          "name": "_user_address",
          "type": "address"
        },
        {
          "internalType": "uint256",
          "name": "_challenge_id",
          "type": "uint256"
        },
        {
          "internalType": "string",
          "name": "_solution_base_txid",
          "type": "string"
        },
        {
          "internalType": "uint256",
          "name": "_created_at",
          "type": "uint256"
        }
      ],
      "name": "createSolutionBase",
      "outputs": [],
      "stateMutability": "nonpayable",
      "type": "function"
    },
    {
      "inputs": [
        {
          "internalType": "address",
          "name": "_user_address",
          "type": "address"
        },
        {
          "internalType": "uint256",
          "name": "_challenge_id",
          "type": "uint256"
        }
      ],
      "name": "getSolutionByUserAndChallengeId",
      "outputs": [
        {
          "components": [
            {
              "internalType": "address",
              "name": "user",
              "type": "address"
            },
            {
              "internalType": "uint256",
              "name": "challenge_id",
              "type": "uint256"
            },
            {
              "internalType": "string",
              "name": "solution_txid",
              "type": "string"
            },
            {
              "internalType": "uint256",
              "name": "created_at",
              "type": "uint256"
            },
            {
              "internalType": "uint256",
              "name": "submitted_at",
              "type": "uint256"
            },
            {
              "internalType": "enum SolutionProgress",
              "name": "progress",
              "type": "uint8"
            },
            {
              "internalType": "uint256",
              "name": "score",
              "type": "uint256"
            }
          ],
          "internalType": "struct SolutionManager.Solution",
          "name": "",
          "type": "tuple"
        }
      ],
      "stateMutability": "view",
      "type": "function"
    },
    {
      "inputs": [
        {
          "internalType": "address",
          "name": "_user_address",
          "type": "address"
        },
        {
          "internalType": "uint256",
          "name": "_challenge_id",
          "type": "uint256"
        }
      ],
      "name": "getSolutionPreviewByUserAndChallengeId",
      "outputs": [
        {
          "internalType": "uint256",
          "name": "created_at",
          "type": "uint256"
        },
        {
          "internalType": "enum SolutionProgress",
          "name": "progress",
          "type": "uint8"
        },
        {
          "internalType": "uint256",
          "name": "score",
          "type": "uint256"
        }
      ],
      "stateMutability": "view",
      "type": "function"
    },
    {
      "inputs": [
        {
          "internalType": "address",
          "name": "_user_address",
          "type": "address"
        },
        {
          "internalType": "uint256",
          "name": "_challenge_id",
          "type": "uint256"
        }
      ],
      "name": "getSolutionTxId",
      "outputs": [
        {
          "internalType": "string",
          "name": "",
          "type": "string"
        }
      ],
      "stateMutability": "view",
      "type": "function"
    },
    {
      "inputs": [
        {
          "internalType": "uint256",
          "name": "_challenge_id",
          "type": "uint256"
        }
      ],
      "name": "submitSolution",
      "outputs": [],
      "stateMutability": "nonpayable",
      "type": "function"
    }
  ],
  "bytecode": "0x60806040526000600355348015601457600080fd5b50611a44806100246000396000f3fe608060405234801561001057600080fd5b50600436106100625760003560e01c80630bf94512146100675780631346c95c14610083578063419fd69e146100b3578063846900cf146100e5578063c195433414610115578063d82ff2e914610145575b600080fd5b610081600480360381019061007c9190610f0c565b610161565b005b61009d60048036038101906100989190610f97565b6103a3565b6040516100aa9190611067565b60405180910390f35b6100cd60048036038101906100c89190610f97565b610502565b6040516100dc9392919061110f565b60405180910390f35b6100ff60048036038101906100fa9190610f97565b610596565b60405161010c9190611161565b60405180910390f35b61012f600480360381019061012a9190610f97565b6105fe565b60405161013c919061128f565b60405180910390f35b61015f600480360381019061015a9190611316565b6108a1565b005b6002600082815260200190815260200160002060003373ffffffffffffffffffffffffffffffffffffffff1673ffffffffffffffffffffffffffffffffffffffff16815260200190815260200160002060009054906101000a900460ff166101c857600080fd5b60008060006001600085815260200190815260200160002060003373ffffffffffffffffffffffffffffffffffffffff1673ffffffffffffffffffffffffffffffffffffffff16815260200190815260200160002054815260200190815260200160002090506103e84261023c91906113cd565b816004018190555060018160050160006101000a81548160ff0219169083600381111561026c5761026b611098565b5b02179055506103216040518060600160405280603a8152602001611997603a91393383600201805461029d9061143e565b80601f01602080910402602001604051908101604052809291908181526020018280546102c99061143e565b80156103165780601f106102eb57610100808354040283529160200191610316565b820191906000526020600020905b8154815290600101906020018083116102f957829003601f168201915b505050505085610b95565b6103646040518060400160405280600581526020017f61742025730000000000000000000000000000000000000000000000000000008152508260040154610c37565b7ff38c6faaf640ac2f1a7d534cf0dac8c674be916eaa83e674e78322eb0c27ca638160040154604051610397919061146f565b60405180910390a15050565b60606002600083815260200190815260200160002060008473ffffffffffffffffffffffffffffffffffffffff1673ffffffffffffffffffffffffffffffffffffffff16815260200190815260200160002060009054906101000a900460ff1661040c57600080fd5b6000806001600085815260200190815260200160002060008673ffffffffffffffffffffffffffffffffffffffff1673ffffffffffffffffffffffffffffffffffffffff168152602001908152602001600020548152602001908152602001600020600201805461047c9061143e565b80601f01602080910402602001604051908101604052809291908181526020018280546104a89061143e565b80156104f55780601f106104ca576101008083540402835291602001916104f5565b820191906000526020600020905b8154815290600101906020018083116104d857829003601f168201915b5050505050905092915050565b6000806000806000806001600088815260200190815260200160002060008973ffffffffffffffffffffffffffffffffffffffff1673ffffffffffffffffffffffffffffffffffffffff168152602001908152602001600020548152602001908152602001600020905080600301548160050160009054906101000a900460ff168260060154935093509350509250925092565b60006002600083815260200190815260200160002060008473ffffffffffffffffffffffffffffffffffffffff1673ffffffffffffffffffffffffffffffffffffffff16815260200190815260200160002060009054906101000a900460ff16905092915050565b610606610e5d565b6002600083815260200190815260200160002060008473ffffffffffffffffffffffffffffffffffffffff1673ffffffffffffffffffffffffffffffffffffffff16815260200190815260200160002060009054906101000a900460ff1661066d57600080fd5b6106e16040518060600160405280602d815260200161196a602d9139846001600086815260200190815260200160002060008773ffffffffffffffffffffffffffffffffffffffff1673ffffffffffffffffffffffffffffffffffffffff1681526020019081526020016000205485610cd3565b6000806001600085815260200190815260200160002060008673ffffffffffffffffffffffffffffffffffffffff1673ffffffffffffffffffffffffffffffffffffffff1681526020019081526020016000205481526020019081526020016000206040518060e00160405290816000820160009054906101000a900473ffffffffffffffffffffffffffffffffffffffff1673ffffffffffffffffffffffffffffffffffffffff1673ffffffffffffffffffffffffffffffffffffffff168152602001600182015481526020016002820180546107be9061143e565b80601f01602080910402602001604051908101604052809291908181526020018280546107ea9061143e565b80156108375780601f1061080c57610100808354040283529160200191610837565b820191906000526020600020905b81548152906001019060200180831161081a57829003601f168201915b5050505050815260200160038201548152602001600482015481526020016005820160009054906101000a900460ff16600381111561087957610878611098565b5b600381111561088b5761088a611098565b5b8152602001600682015481525050905092915050565b6000600360008154809291906108b69061148a565b9190505590506040518060e001604052808773ffffffffffffffffffffffffffffffffffffffff16815260200186815260200185858080601f016020809104026020016040519081016040528093929190818152602001838380828437600081840152601f19601f820116905080830192505050505050508152602001838152602001600081526020016000600381111561095457610953611098565b5b8152602001600081525060008083815260200190815260200160002060008201518160000160006101000a81548173ffffffffffffffffffffffffffffffffffffffff021916908373ffffffffffffffffffffffffffffffffffffffff1602179055506020820151816001015560408201518160020190816109d691906116ad565b50606082015181600301556080820151816004015560a08201518160050160006101000a81548160ff02191690836003811115610a1657610a15611098565b5b021790555060c08201518160060155905050806001600087815260200190815260200160002060008873ffffffffffffffffffffffffffffffffffffffff1673ffffffffffffffffffffffffffffffffffffffff1681526020019081526020016000208190555060016002600087815260200190815260200160002060008873ffffffffffffffffffffffffffffffffffffffff1673ffffffffffffffffffffffffffffffffffffffff16815260200190815260200160002060006101000a81548160ff021916908315150217905550610b4e6040518060600160405280603e81526020016119d1603e913985858080601f016020809104026020016040519081016040528093929190818152602001838380828437600081840152601f19601f820116905080830192505050505050508789610d75565b7f3e16aed6ce2e15a2439e36880dec86acc56d4004624545f0f4121f1624804f968686868686604051610b859594939291906117ca565b60405180910390a1505050505050565b610c3184848484604051602401610baf9493929190611818565b6040516020818303038152906040527f91d1112e000000000000000000000000000000000000000000000000000000007bffffffffffffffffffffffffffffffffffffffffffffffffffffffff19166020820180517bffffffffffffffffffffffffffffffffffffffffffffffffffffffff8381831617835250505050610e17565b50505050565b610ccf8282604051602401610c4d92919061186b565b6040516020818303038152906040527fb60e72cc000000000000000000000000000000000000000000000000000000007bffffffffffffffffffffffffffffffffffffffffffffffffffffffff19166020820180517bffffffffffffffffffffffffffffffffffffffffffffffffffffffff8381831617835250505050610e17565b5050565b610d6f84848484604051602401610ced949392919061189b565b6040516020818303038152906040527ff8f51b1e000000000000000000000000000000000000000000000000000000007bffffffffffffffffffffffffffffffffffffffffffffffffffffffff19166020820180517bffffffffffffffffffffffffffffffffffffffffffffffffffffffff8381831617835250505050610e17565b50505050565b610e1184848484604051602401610d8f94939291906118e7565b6040516020818303038152906040527f1023f7b2000000000000000000000000000000000000000000000000000000007bffffffffffffffffffffffffffffffffffffffffffffffffffffffff19166020820180517bffffffffffffffffffffffffffffffffffffffffffffffffffffffff8381831617835250505050610e17565b50505050565b610e2e81610e26610e31610e52565b63ffffffff16565b50565b60006a636f6e736f6c652e6c6f679050600080835160208501845afa505050565b610ec2819050919050565b6040518060e00160405280600073ffffffffffffffffffffffffffffffffffffffff1681526020016000815260200160608152602001600081526020016000815260200160006003811115610eb557610eb4611098565b5b8152602001600081525090565b610eca61193a565b565b600080fd5b600080fd5b6000819050919050565b610ee981610ed6565b8114610ef457600080fd5b50565b600081359050610f0681610ee0565b92915050565b600060208284031215610f2257610f21610ecc565b5b6000610f3084828501610ef7565b91505092915050565b600073ffffffffffffffffffffffffffffffffffffffff82169050919050565b6000610f6482610f39565b9050919050565b610f7481610f59565b8114610f7f57600080fd5b50565b600081359050610f9181610f6b565b92915050565b60008060408385031215610fae57610fad610ecc565b5b6000610fbc85828601610f82565b9250506020610fcd85828601610ef7565b9150509250929050565b600081519050919050565b600082825260208201905092915050565b60005b83811015611011578082015181840152602081019050610ff6565b60008484015250505050565b6000601f19601f8301169050919050565b600061103982610fd7565b6110438185610fe2565b9350611053818560208601610ff3565b61105c8161101d565b840191505092915050565b60006020820190508181036000830152611081818461102e565b905092915050565b61109281610ed6565b82525050565b7f4e487b7100000000000000000000000000000000000000000000000000000000600052602160045260246000fd5b600481106110d8576110d7611098565b5b50565b60008190506110e9826110c7565b919050565b60006110f9826110db565b9050919050565b611109816110ee565b82525050565b60006060820190506111246000830186611089565b6111316020830185611100565b61113e6040830184611089565b949350505050565b60008115159050919050565b61115b81611146565b82525050565b60006020820190506111766000830184611152565b92915050565b61118581610f59565b82525050565b61119481610ed6565b82525050565b600082825260208201905092915050565b60006111b682610fd7565b6111c0818561119a565b93506111d0818560208601610ff3565b6111d98161101d565b840191505092915050565b6111ed816110ee565b82525050565b600060e08301600083015161120b600086018261117c565b50602083015161121e602086018261118b565b506040830151848203604086015261123682826111ab565b915050606083015161124b606086018261118b565b50608083015161125e608086018261118b565b5060a083015161127160a08601826111e4565b5060c083015161128460c086018261118b565b508091505092915050565b600060208201905081810360008301526112a981846111f3565b905092915050565b600080fd5b600080fd5b600080fd5b60008083601f8401126112d6576112d56112b1565b5b8235905067ffffffffffffffff8111156112f3576112f26112b6565b5b60208301915083600182028301111561130f5761130e6112bb565b5b9250929050565b60008060008060006080868803121561133257611331610ecc565b5b600061134088828901610f82565b955050602061135188828901610ef7565b945050604086013567ffffffffffffffff81111561137257611371610ed1565b5b61137e888289016112c0565b9350935050606061139188828901610ef7565b9150509295509295909350565b7f4e487b7100000000000000000000000000000000000000000000000000000000600052601160045260246000fd5b60006113d882610ed6565b91506113e383610ed6565b92508282026113f181610ed6565b915082820484148315176114085761140761139e565b5b5092915050565b7f4e487b7100000000000000000000000000000000000000000000000000000000600052602260045260246000fd5b6000600282049050600182168061145657607f821691505b6020821081036114695761146861140f565b5b50919050565b60006020820190506114846000830184611089565b92915050565b600061149582610ed6565b91507fffffffffffffffffffffffffffffffffffffffffffffffffffffffffffffffff82036114c7576114c661139e565b5b600182019050919050565b7f4e487b7100000000000000000000000000000000000000000000000000000000600052604160045260246000fd5b60008190508160005260206000209050919050565b60006020601f8301049050919050565b600082821b905092915050565b6000600883026115637fffffffffffffffffffffffffffffffffffffffffffffffffffffffffffffffff82611526565b61156d8683611526565b95508019841693508086168417925050509392505050565b6000819050919050565b60006115aa6115a56115a084610ed6565b611585565b610ed6565b9050919050565b6000819050919050565b6115c48361158f565b6115d86115d0826115b1565b848454611533565b825550505050565b600090565b6115ed6115e0565b6115f88184846115bb565b505050565b5b8181101561161c576116116000826115e5565b6001810190506115fe565b5050565b601f8211156116615761163281611501565b61163b84611516565b8101602085101561164a578190505b61165e61165685611516565b8301826115fd565b50505b505050565b600082821c905092915050565b600061168460001984600802611666565b1980831691505092915050565b600061169d8383611673565b9150826002028217905092915050565b6116b682610fd7565b67ffffffffffffffff8111156116cf576116ce6114d2565b5b6116d9825461143e565b6116e4828285611620565b600060209050601f8311600181146117175760008415611705578287015190505b61170f8582611691565b865550611777565b601f19841661172586611501565b60005b8281101561174d57848901518255600182019150602085019450602081019050611728565b8683101561176a5784890151611766601f891682611673565b8355505b6001600288020188555050505b505050505050565b61178881610f59565b82525050565b82818337600083830152505050565b60006117a98385610fe2565b93506117b683858461178e565b6117bf8361101d565b840190509392505050565b60006080820190506117df600083018861177f565b6117ec6020830187611089565b81810360408301526117ff81858761179d565b905061180e6060830184611089565b9695505050505050565b60006080820190508181036000830152611832818761102e565b9050611841602083018661177f565b8181036040830152611853818561102e565b90506118626060830184611089565b95945050505050565b60006040820190508181036000830152611885818561102e565b90506118946020830184611089565b9392505050565b600060808201905081810360008301526118b5818761102e565b90506118c4602083018661177f565b6118d16040830185611089565b6118de6060830184611089565b95945050505050565b60006080820190508181036000830152611901818761102e565b90508181036020830152611915818661102e565b90506119246040830185611089565b611931606083018461177f565b95945050505050565b7f4e487b7100000000000000000000000000000000000000000000000000000000600052605160045260246000fdfe55736572202573206665746368656420736f6c7574696f6e20232573206f66206368616c6c656e67652023257355736572202573207375626d6d697474656420736f6c7574696f6e2077697468207478696420257320666f72206368616c6c656e6765202325734372656174656420736f6c7574696f6e206261736520776974682074786964202573206f66206368616c6c656e676520257320666f722075736572202573a26469706673582212205d97bae3a9dfb0f087fea4f8786a8f5e54b895f2915b35f3ade4110051fc995c64736f6c634300081c0033",
  "linkReferences": {},
  "deployedLinkReferences": {}
}