{
  "_format": "hh-sol-artifact-1",
  "contractName": "SolutionManager",
  "sourceName": "contracts/SolutionManager.sol",
  "abi": [
    {
      "inputs": [],
      "stateMutability": "nonpayable",
      "type": "constructor"
    },
    {
      "inputs": [],
      "name": "AccessControlBadConfirmation",
      "type": "error"
    },
    {
      "inputs": [
        {
          "internalType": "address",
          "name": "account",
          "type": "address"
        },
        {
          "internalType": "bytes32",
          "name": "neededRole",
          "type": "bytes32"
        }
      ],
      "name": "AccessControlUnauthorizedAccount",
      "type": "error"
    },
    {
      "anonymous": false,
      "inputs": [
        {
          "indexed": true,
          "internalType": "bytes32",
          "name": "role",
          "type": "bytes32"
        },
        {
          "indexed": true,
          "internalType": "bytes32",
          "name": "previousAdminRole",
          "type": "bytes32"
        },
        {
          "indexed": true,
          "internalType": "bytes32",
          "name": "newAdminRole",
          "type": "bytes32"
        }
      ],
      "name": "RoleAdminChanged",
      "type": "event"
    },
    {
      "anonymous": false,
      "inputs": [
        {
          "indexed": true,
          "internalType": "bytes32",
          "name": "role",
          "type": "bytes32"
        },
        {
          "indexed": true,
          "internalType": "address",
          "name": "account",
          "type": "address"
        },
        {
          "indexed": true,
          "internalType": "address",
          "name": "sender",
          "type": "address"
        }
      ],
      "name": "RoleGranted",
      "type": "event"
    },
    {
      "anonymous": false,
      "inputs": [
        {
          "indexed": true,
          "internalType": "bytes32",
          "name": "role",
          "type": "bytes32"
        },
        {
          "indexed": true,
          "internalType": "address",
          "name": "account",
          "type": "address"
        },
        {
          "indexed": true,
          "internalType": "address",
          "name": "sender",
          "type": "address"
        }
      ],
      "name": "RoleRevoked",
      "type": "event"
    },
    {
      "anonymous": false,
      "inputs": [
        {
          "indexed": true,
          "internalType": "address",
          "name": "user_address",
          "type": "address"
        },
        {
          "indexed": true,
          "internalType": "bytes32",
          "name": "challenge_id",
          "type": "bytes32"
        },
        {
          "indexed": false,
          "internalType": "string",
          "name": "solution_base_txid",
          "type": "string"
        },
        {
          "indexed": false,
          "internalType": "uint256",
          "name": "created_at",
          "type": "uint256"
        }
      ],
      "name": "SolutionBaseCreated",
      "type": "event"
    },
    {
      "anonymous": false,
      "inputs": [
        {
          "indexed": true,
          "internalType": "bytes32",
          "name": "solution_id",
          "type": "bytes32"
        },
        {
          "indexed": false,
          "internalType": "uint256",
          "name": "score",
          "type": "uint256"
        },
        {
          "indexed": false,
          "internalType": "uint256",
          "name": "finalized_at",
          "type": "uint256"
        }
      ],
      "name": "SolutionEvaluationFinalized",
      "type": "event"
    },
    {
      "anonymous": false,
      "inputs": [
        {
          "indexed": true,
          "internalType": "address",
          "name": "evaluator",
          "type": "address"
        },
        {
          "indexed": true,
          "internalType": "bytes32",
          "name": "solution_id",
          "type": "bytes32"
        },
        {
          "indexed": false,
          "internalType": "uint256",
          "name": "joined_at",
          "type": "uint256"
        }
      ],
      "name": "SolutionJoinedByEvaluator",
      "type": "event"
    },
    {
      "anonymous": false,
      "inputs": [
        {
          "indexed": true,
          "internalType": "bytes32",
          "name": "solution_id",
          "type": "bytes32"
        },
        {
          "indexed": false,
          "internalType": "uint256",
          "name": "initialized_at",
          "type": "uint256"
        }
      ],
      "name": "SolutionPoolInitialized",
      "type": "event"
    },
    {
      "anonymous": false,
      "inputs": [
        {
          "indexed": true,
          "internalType": "address",
          "name": "evaluator",
          "type": "address"
        },
        {
          "indexed": true,
          "internalType": "bytes32",
          "name": "solution_id",
          "type": "bytes32"
        },
        {
          "indexed": false,
          "internalType": "uint256",
          "name": "score",
          "type": "uint256"
        },
        {
          "indexed": false,
          "internalType": "uint256",
          "name": "submitted_at",
          "type": "uint256"
        }
      ],
      "name": "SolutionScoreSubmittedByEvaluator",
      "type": "event"
    },
    {
      "anonymous": false,
      "inputs": [
        {
          "indexed": true,
          "internalType": "bytes32",
          "name": "solution_id",
          "type": "bytes32"
        },
        {
          "indexed": false,
          "internalType": "uint256",
          "name": "submitted_at",
          "type": "uint256"
        }
      ],
      "name": "SolutionSubmitted",
      "type": "event"
    },
    {
      "inputs": [],
      "name": "DEFAULT_ADMIN_ROLE",
      "outputs": [
        {
          "internalType": "bytes32",
          "name": "",
          "type": "bytes32"
        }
      ],
      "stateMutability": "view",
      "type": "function"
    },
    {
      "inputs": [
        {
          "internalType": "address",
          "name": "_evaluator_address",
          "type": "address"
        },
        {
          "internalType": "bytes32",
          "name": "_solution_id",
          "type": "bytes32"
        }
      ],
      "name": "checkEvaluatorJoinedSolution",
      "outputs": [
        {
          "internalType": "bool",
          "name": "",
          "type": "bool"
        }
      ],
      "stateMutability": "view",
      "type": "function"
    },
    {
      "inputs": [
        {
          "internalType": "address",
          "name": "_evaluator_address",
          "type": "address"
        },
        {
          "internalType": "bytes32",
          "name": "_solution_id",
          "type": "bytes32"
        }
      ],
      "name": "checkEvalutorSubmittedScore",
      "outputs": [
        {
          "internalType": "bool",
          "name": "",
          "type": "bool"
        }
      ],
      "stateMutability": "view",
      "type": "function"
    },
    {
      "inputs": [
        {
          "internalType": "address",
          "name": "_user_address",
          "type": "address"
        },
        {
          "internalType": "bytes32",
          "name": "_challenge_id",
          "type": "bytes32"
        }
      ],
      "name": "checkUserJoinedChallenge",
      "outputs": [
        {
          "internalType": "bool",
          "name": "",
          "type": "bool"
        }
      ],
      "stateMutability": "view",
      "type": "function"
    },
    {
      "inputs": [
        {
          "internalType": "address",
          "name": "_user_address",
          "type": "address"
        },
        {
          "internalType": "bytes32",
          "name": "_challenge_id",
          "type": "bytes32"
        },
        {
          "internalType": "string",
          "name": "_solution_base_txid",
          "type": "string"
        },
        {
          "internalType": "uint256",
          "name": "_created_at",
          "type": "uint256"
        }
      ],
      "name": "createSolutionBase",
      "outputs": [
        {
          "internalType": "bytes32",
          "name": "id",
          "type": "bytes32"
        }
      ],
      "stateMutability": "nonpayable",
      "type": "function"
    },
    {
      "inputs": [
        {
          "internalType": "bytes32",
          "name": "_solution_id",
          "type": "bytes32"
        }
      ],
      "name": "evaluatorJoinSolution",
      "outputs": [],
      "stateMutability": "nonpayable",
      "type": "function"
    },
    {
      "inputs": [
        {
          "internalType": "bytes32",
          "name": "_solution_id",
          "type": "bytes32"
        },
        {
          "internalType": "uint256",
          "name": "_score",
          "type": "uint256"
        }
      ],
      "name": "evaluatorSubmitScore",
      "outputs": [],
      "stateMutability": "nonpayable",
      "type": "function"
    },
    {
      "inputs": [
        {
          "internalType": "address",
          "name": "_user_address",
          "type": "address"
        },
        {
          "internalType": "bytes32",
          "name": "_challenge_id",
          "type": "bytes32"
        }
      ],
      "name": "getBriefSolutionInfo",
      "outputs": [
        {
          "internalType": "enum SystemEnums.SolutionProgress",
          "name": "",
          "type": "uint8"
        },
        {
          "internalType": "uint256",
          "name": "",
          "type": "uint256"
        },
        {
          "internalType": "uint256",
          "name": "",
          "type": "uint256"
        }
      ],
      "stateMutability": "view",
      "type": "function"
    },
    {
      "inputs": [
        {
          "internalType": "address",
          "name": "_evaluator_address",
          "type": "address"
        },
        {
          "internalType": "bytes32",
          "name": "_solution_id",
          "type": "bytes32"
        }
      ],
      "name": "getEvaluationDeviation",
      "outputs": [
        {
          "internalType": "uint256",
          "name": "",
          "type": "uint256"
        }
      ],
      "stateMutability": "view",
      "type": "function"
    },
    {
      "inputs": [
        {
          "internalType": "bytes32",
          "name": "_solution_id",
          "type": "bytes32"
        }
      ],
      "name": "getMaxEvaluatorsForSolution",
      "outputs": [
        {
          "internalType": "uint256",
          "name": "",
          "type": "uint256"
        }
      ],
      "stateMutability": "view",
      "type": "function"
    },
    {
      "inputs": [
        {
          "internalType": "bytes32",
          "name": "_solution_id",
          "type": "bytes32"
        }
      ],
      "name": "getNumberOfJoinedEvaluators",
      "outputs": [
        {
          "internalType": "uint256",
          "name": "",
          "type": "uint256"
        }
      ],
      "stateMutability": "view",
      "type": "function"
    },
    {
      "inputs": [
        {
          "internalType": "bytes32",
          "name": "_solution_id",
          "type": "bytes32"
        }
      ],
      "name": "getNumberOfSubmittedEvaluations",
      "outputs": [
        {
          "internalType": "uint256",
          "name": "",
          "type": "uint256"
        }
      ],
      "stateMutability": "view",
      "type": "function"
    },
    {
      "inputs": [
        {
          "internalType": "bytes32",
          "name": "role",
          "type": "bytes32"
        }
      ],
      "name": "getRoleAdmin",
      "outputs": [
        {
          "internalType": "bytes32",
          "name": "",
          "type": "bytes32"
        }
      ],
      "stateMutability": "view",
      "type": "function"
    },
    {
      "inputs": [
        {
          "internalType": "address",
          "name": "_evaluator_address",
          "type": "address"
        },
        {
          "internalType": "bytes32",
          "name": "_solution_id",
          "type": "bytes32"
        }
      ],
      "name": "getScoreSubmittedByEvaluator",
      "outputs": [
        {
          "internalType": "uint256",
          "name": "",
          "type": "uint256"
        }
      ],
      "stateMutability": "view",
      "type": "function"
    },
    {
      "inputs": [
        {
          "internalType": "address",
          "name": "_evaluator_address",
          "type": "address"
        }
      ],
      "name": "getSolutionByEvaluator",
      "outputs": [
        {
          "components": [
            {
              "internalType": "bytes32",
              "name": "id",
              "type": "bytes32"
            },
            {
              "internalType": "address",
              "name": "user",
              "type": "address"
            },
            {
              "internalType": "bytes32",
              "name": "challenge_id",
              "type": "bytes32"
            },
            {
              "internalType": "string",
              "name": "solution_txid",
              "type": "string"
            },
            {
              "internalType": "uint256",
              "name": "created_at",
              "type": "uint256"
            },
            {
              "internalType": "uint256",
              "name": "submitted_at",
              "type": "uint256"
            },
            {
              "internalType": "enum SystemEnums.SolutionProgress",
              "name": "progress",
              "type": "uint8"
            },
            {
              "internalType": "uint256",
              "name": "score",
              "type": "uint256"
            }
          ],
          "internalType": "struct SolutionManager.Solution[]",
          "name": "",
          "type": "tuple[]"
        }
      ],
      "stateMutability": "view",
      "type": "function"
    },
    {
      "inputs": [
        {
          "internalType": "bytes32",
          "name": "_solution_id",
          "type": "bytes32"
        }
      ],
      "name": "getSolutionById",
      "outputs": [
        {
          "components": [
            {
              "internalType": "bytes32",
              "name": "id",
              "type": "bytes32"
            },
            {
              "internalType": "address",
              "name": "user",
              "type": "address"
            },
            {
              "internalType": "bytes32",
              "name": "challenge_id",
              "type": "bytes32"
            },
            {
              "internalType": "string",
              "name": "solution_txid",
              "type": "string"
            },
            {
              "internalType": "uint256",
              "name": "created_at",
              "type": "uint256"
            },
            {
              "internalType": "uint256",
              "name": "submitted_at",
              "type": "uint256"
            },
            {
              "internalType": "enum SystemEnums.SolutionProgress",
              "name": "progress",
              "type": "uint8"
            },
            {
              "internalType": "uint256",
              "name": "score",
              "type": "uint256"
            }
          ],
          "internalType": "struct SolutionManager.Solution",
          "name": "",
          "type": "tuple"
        }
      ],
      "stateMutability": "view",
      "type": "function"
    },
    {
      "inputs": [
        {
          "internalType": "address",
          "name": "_user_address",
          "type": "address"
        },
        {
          "internalType": "bytes32",
          "name": "_challenge_id",
          "type": "bytes32"
        }
      ],
      "name": "getSolutionByUserAndChallengeId",
      "outputs": [
        {
          "components": [
            {
              "internalType": "bytes32",
              "name": "id",
              "type": "bytes32"
            },
            {
              "internalType": "address",
              "name": "user",
              "type": "address"
            },
            {
              "internalType": "bytes32",
              "name": "challenge_id",
              "type": "bytes32"
            },
            {
              "internalType": "string",
              "name": "solution_txid",
              "type": "string"
            },
            {
              "internalType": "uint256",
              "name": "created_at",
              "type": "uint256"
            },
            {
              "internalType": "uint256",
              "name": "submitted_at",
              "type": "uint256"
            },
            {
              "internalType": "enum SystemEnums.SolutionProgress",
              "name": "progress",
              "type": "uint8"
            },
            {
              "internalType": "uint256",
              "name": "score",
              "type": "uint256"
            }
          ],
          "internalType": "struct SolutionManager.Solution",
          "name": "",
          "type": "tuple"
        }
      ],
      "stateMutability": "view",
      "type": "function"
    },
    {
      "inputs": [
        {
          "internalType": "bytes32",
          "name": "_solution_id",
          "type": "bytes32"
        }
      ],
      "name": "getSolutionTxIdById",
      "outputs": [
        {
          "internalType": "string",
          "name": "",
          "type": "string"
        }
      ],
      "stateMutability": "view",
      "type": "function"
    },
    {
      "inputs": [
        {
          "internalType": "address",
          "name": "_user_address",
          "type": "address"
        },
        {
          "internalType": "bytes32",
          "name": "_challenge_id",
          "type": "bytes32"
        }
      ],
      "name": "getSolutionTxIdByUserAndChallengeId",
      "outputs": [
        {
          "internalType": "string",
          "name": "",
          "type": "string"
        }
      ],
      "stateMutability": "view",
      "type": "function"
    },
    {
      "inputs": [
        {
          "internalType": "bytes32",
          "name": "_solution_id",
          "type": "bytes32"
        }
      ],
      "name": "getTimestampEvaluationCompleted",
      "outputs": [
        {
          "internalType": "uint256",
          "name": "",
          "type": "uint256"
        }
      ],
      "stateMutability": "view",
      "type": "function"
    },
    {
      "inputs": [
        {
          "internalType": "address",
          "name": "_evaluator_address",
          "type": "address"
        },
        {
          "internalType": "bytes32",
          "name": "_solution_id",
          "type": "bytes32"
        }
      ],
      "name": "getTimestampScoreSubmittedByEvaluator",
      "outputs": [
        {
          "internalType": "uint256",
          "name": "",
          "type": "uint256"
        }
      ],
      "stateMutability": "view",
      "type": "function"
    },
    {
      "inputs": [],
      "name": "getUnderReviewSolution",
      "outputs": [
        {
          "components": [
            {
              "internalType": "bytes32",
              "name": "id",
              "type": "bytes32"
            },
            {
              "internalType": "address",
              "name": "user",
              "type": "address"
            },
            {
              "internalType": "bytes32",
              "name": "challenge_id",
              "type": "bytes32"
            },
            {
              "internalType": "string",
              "name": "solution_txid",
              "type": "string"
            },
            {
              "internalType": "uint256",
              "name": "created_at",
              "type": "uint256"
            },
            {
              "internalType": "uint256",
              "name": "submitted_at",
              "type": "uint256"
            },
            {
              "internalType": "enum SystemEnums.SolutionProgress",
              "name": "progress",
              "type": "uint8"
            },
            {
              "internalType": "uint256",
              "name": "score",
              "type": "uint256"
            }
          ],
          "internalType": "struct SolutionManager.Solution[]",
          "name": "",
          "type": "tuple[]"
        }
      ],
      "stateMutability": "view",
      "type": "function"
    },
    {
      "inputs": [
        {
          "internalType": "bytes32",
          "name": "role",
          "type": "bytes32"
        },
        {
          "internalType": "address",
          "name": "account",
          "type": "address"
        }
      ],
      "name": "grantRole",
      "outputs": [],
      "stateMutability": "nonpayable",
      "type": "function"
    },
    {
      "inputs": [
        {
          "internalType": "bytes32",
          "name": "role",
          "type": "bytes32"
        },
        {
          "internalType": "address",
          "name": "account",
          "type": "address"
        }
      ],
      "name": "hasRole",
      "outputs": [
        {
          "internalType": "bool",
          "name": "",
          "type": "bool"
        }
      ],
      "stateMutability": "view",
      "type": "function"
    },
    {
      "inputs": [
        {
          "internalType": "bytes32",
          "name": "_challenge_id",
          "type": "bytes32"
        }
      ],
      "name": "putSolutionUnderReview",
      "outputs": [],
      "stateMutability": "nonpayable",
      "type": "function"
    },
    {
      "inputs": [
        {
          "internalType": "bytes32",
          "name": "role",
          "type": "bytes32"
        },
        {
          "internalType": "address",
          "name": "callerConfirmation",
          "type": "address"
        }
      ],
      "name": "renounceRole",
      "outputs": [],
      "stateMutability": "nonpayable",
      "type": "function"
    },
    {
      "inputs": [
        {
          "internalType": "bytes32",
          "name": "role",
          "type": "bytes32"
        },
        {
          "internalType": "address",
          "name": "account",
          "type": "address"
        }
      ],
      "name": "revokeRole",
      "outputs": [],
      "stateMutability": "nonpayable",
      "type": "function"
    },
    {
      "inputs": [
        {
          "internalType": "address",
          "name": "_address",
          "type": "address"
        }
      ],
      "name": "setChallengeManagerAddress",
      "outputs": [],
      "stateMutability": "nonpayable",
      "type": "function"
    },
    {
      "inputs": [
        {
          "internalType": "address",
          "name": "_address",
          "type": "address"
        }
      ],
      "name": "setReputationManagerAddress",
      "outputs": [],
      "stateMutability": "nonpayable",
      "type": "function"
    },
    {
      "inputs": [
        {
          "internalType": "address",
          "name": "_address",
          "type": "address"
        }
      ],
      "name": "setRoleManagerAddress",
      "outputs": [],
      "stateMutability": "nonpayable",
      "type": "function"
    },
    {
      "inputs": [
        {
          "internalType": "bytes32",
          "name": "_challenge_id",
          "type": "bytes32"
        }
      ],
      "name": "submitSolution",
      "outputs": [],
      "stateMutability": "nonpayable",
      "type": "function"
    },
    {
      "inputs": [
        {
          "internalType": "bytes4",
          "name": "interfaceId",
          "type": "bytes4"
        }
      ],
      "name": "supportsInterface",
      "outputs": [
        {
          "internalType": "bool",
          "name": "",
          "type": "bool"
        }
      ],
      "stateMutability": "view",
      "type": "function"
    },
    {
      "inputs": [
        {
          "internalType": "address",
          "name": "",
          "type": "address"
        },
        {
          "internalType": "bytes32",
          "name": "",
          "type": "bytes32"
        }
      ],
      "name": "user_challenge_to_solution",
      "outputs": [
        {
          "internalType": "bytes32",
          "name": "",
          "type": "bytes32"
        }
      ],
      "stateMutability": "view",
      "type": "function"
    }
  ],
  "bytecode": "0x6080604052346024576000600e556014336029565b5060405161262390816100b78239f35b600080fd5b6001600160a01b03811660009081526000805160206126da833981519152602052604090205460ff1660b0576001600160a01b031660008181526000805160206126da83398151915260205260408120805460ff191660011790553391907f2f8788117e7eff1d82e926ec794901d17c78024a50270940304540a733656f0d8180a4600190565b5060009056fe608080604052600436101561001357600080fd5b600090813560e01c90816301ffc9a714611e0e575080631bd7fcc314611de0578063248a9ca314611db257806325d7253c14611d855780632f2ff15d14611d445780633271c42e14611a8157806336568abe14611a3c5780633cdfd3c9146119f357806342b27bff146119685780634c5efc921461193e5780637c0d66e0146118ad5780637ec859b7146118615780638793331b146118155780638c708dd31461175f57806391d1485414611717578063927cab5b146116b75780639606e63014611576578063a217fddf1461155a578063a3fcd25414611478578063b16b5ff1146111dc578063bbb06a4814611099578063bc8e0b6f14611013578063c361e8cf14610fb3578063c80404c214610f7c578063cf9da4ec14610f39578063d2626c1e14610e21578063d31ce508146105c6578063d547741f1461057c578063dc1743fa14610488578063e4592e4a1461045b578063eb3cd29f14610368578063ee01d8e6146103085763fd1eb1bf1461018c57600080fd5b34610305576020366003190112610305576004353382526003602052604082208183526020526101c260ff6040842054166123f9565b338252600260205260408220908252602052604081205480825260016020526006604083200160ff81541660048110156102f1576001036102b357600260ff19825416179055808252600560205281600160408220600381550155808252600660205260408220600160ff19825416179055600754600160401b81101561029f57610270610259826001859401600755600761227b565b819391549060031b91821b91600019901b19161790565b90557fef12b7b2a9579593470047f90fe49ebef92efaeac7893264cb78568a064bb36a6020604051428152a280f35b634e487b7160e01b83526041600452602483fd5b60405162461bcd60e51b815260206004820152601660248201527514dbdb1d5d1a5bdb881b9bdd081cdd589b5a5d1d195960521b6044820152606490fd5b634e487b7160e01b84526021600452602484fd5b80fd5b503461030557602036600319011261030557610322611ec7565b61032a612445565b6001600160a01b031661033e8115156122df565b806001600160601b0360a01b60095416176009556001600160601b0360a01b600854161760085580f35b5034610305576040366003190112610305576001600160a01b0361038a611ec7565b1681526002602052604081206024358252602052604081205481526001602052604081206040516103ba81612008565b8154815260018201546001600160a01b03166020820152600282015460408201526103e76003830161205d565b6060820152600482015460808201908152600583015460a083015260ff600684015416926004841015610447579360e060076060968660c087015201549301928352505190519061043b6040518094611edd565b60208301526040820152f35b634e487b7160e01b85526021600452602485fd5b50346103055760203660031901126103055760016040602092600435815260058452200154604051908152f35b5034610305576020366003190112610305576004353382526003602052604082208183526020526104bf60ff6040842054166123f9565b3382526002602052604082209082526020526040812054808252600160205260408220600681019060ff82541660048110156104475761053757600542910155600160ff198254161790557f234631bf65ecf24a0fcd36950f8397f833936716b5980cb707b11c047bca58ee6020604051428152a280f35b60405162461bcd60e51b815260206004820152601860248201527f536f6c7574696f6e206e6f7420696e2070726f677265737300000000000000006044820152606490fd5b5034610305576040366003190112610305576105c260043561059c611eac565b906105bd6105b882600052600060205260016040600020015490565b612498565b61255e565b5080f35b50346103055760403660031901126103055760043560243581835260066020526105f660ff604085205416612101565b600c546001600160a01b031661060d81151561214d565b60018060a01b0360085416838552600160205260206002604087200154602460405180948193632e34e4df60e01b835260048301525afa8015610b2757610675926020928792610e02575b50604051808095819463b669a8ad60e01b835233600484016121cd565b03915afa8015610d1e57610690918591610dd3575b506121ed565b8183526005602090815260408085203386526003810190925284205460ff1615610d9657338452600481016020819052604085205460ff16610d51576040516060810181811067ffffffffffffffff821117610d3d57604090815233808352602080840187815242858501908152838b52600588018352848b20955186546001600160a01b0319166001600160a01b0391909116178655905160018681019190915590516002959095019490945590885292909252908520805460ff191682179055810180549092906000198114610d29579060018592018094556040519081524260208201527f453d512811718b8c5c5e5fc79ef916ec02f21f1ae9d393d476ac17b81a141f9460403392a354146107a7575080f35b80825260066020526107bf60ff604084205416612101565b8082526001602052604082209181815260056020526040812060018060a01b036008541690600285019160208354602460405180948193632e34e4df60e01b835260048301525afa908115610d1e578491610cef575b50600282018054600a549094600585019492918790819081906001600160a01b03165b88888c8c8510610bee5750505050508115610bda5704928360078b015560068a01600360ff1982541617905560064291015587875260066020526040872060ff198154169055865b60075480821015610bcc57896108958361224a565b90549060031b1c146108aa5750600101610880565b6000999293949596979899198101908111610bb8576102596108ce6108db9261224a565b90549060031b1c9261224a565b90556007548015610ba457600019016108f38161224a565b8154906000199060031b1b191690556007555b7ffa281b2a20644ea0a8b5457a0634e97a401849fea0b4b7c51640e8a0e653e43360408051868152426020820152a260018060a01b03600854168154813b15610ba0578891602483926040519485938492637b3b6a2560e11b845260048401525af18015610b8157610b8c575b50600a54600198909801546008549154604051631293980360e11b815260048101919091526001600160a01b03998a169991821692909160209183916024918391165afa908115610b81578891610b46575b50883b15610b0a5760405191630f61997560e21b835260048301526109ed60248301866121c0565b836044830152601e6064830152670de0b6b3a764000060848301526003811015610b3257968160c48183809c819a9b9c60a48401525af1908115610b27578591610b0e575b505b868110610a45575050505050505080f35b610a4f818361227b565b90546001600160a01b0360039290921b1c81166000818152602089905260409020600a54600190910154921691823b15610b0a5760c4889283604051958694859363f28cdc1360e01b85526004850152610aac602485018d6121c0565b8a60448501526064840152603c6084840152670de0b6b3a764000060a48401525af1908115610aff578691610ae6575b5050600101610a34565b81610af09161203b565b610afb578438610adc565b8480fd5b6040513d88823e3d90fd5b8780fd5b81610b189161203b565b610b23578338610a32565b8380fd5b6040513d87823e3d90fd5b634e487b7160e01b88526021600452602488fd5b90506020813d602011610b79575b81610b616020938361203b565b81010312610b0a57516003811015610b0a57386109c5565b3d9150610b54565b6040513d8a823e3d90fd5b87610b999198929861203b565b9538610973565b8880fd5b634e487b7160e01b89526031600452602489fd5b634e487b7160e01b8a52601160045260248afd5b505090919293949596610906565b634e487b7160e01b89526012600452602489fd5b610c3e916040602092610c07888d9b9a9798999b61227b565b905460039190911b1c6001600160a01b031680825296845220604051630cf571c160e11b81529095909384928392600484016121cd565b0381875afa908115610ce4578d91610caf575b508c811215610ca6575060018c925b01549082820291808304841490151715610c925791610c84610c8a926001946125e0565b946125e0565b930190610838565b634e487b7160e01b8d52601160045260248dfd5b60019092610c60565b90506020813d8211610cdc575b81610cc96020938361203b565b81010312610cd8575138610c51565b8c80fd5b3d9150610cbc565b6040513d8f823e3d90fd5b610d11915060203d602011610d17575b610d09818361203b565b810190612190565b38610815565b503d610cff565b6040513d86823e3d90fd5b634e487b7160e01b86526011600452602486fd5b634e487b7160e01b87526041600452602487fd5b60405162461bcd60e51b815260206004820152601760248201527f416c7265616479207375626d69747465642073636f72650000000000000000006044820152606490fd5b60405162461bcd60e51b81526020600482015260156024820152742737ba103537b4b732b21032bb30b63ab0ba34b7b760591b6044820152606490fd5b610df5915060203d602011610dfb575b610ded818361203b565b8101906121a8565b3861068a565b503d610de3565b610e1a919250833d8511610d1757610d09818361203b565b9038610658565b503461030557604036600319011261030557610e3b611ec7565b60243590610e47612335565b5060018060a01b0316808352600360205260408320828452602052610e7260ff6040852054166123f9565b8252600260205260408220908252602052604081205481526001602052604081209060405190610ea182612008565b8254825260018301546001600160a01b0316602083015260028301546040830152610ece6003840161205d565b606083015260048301546080830152600583015460a083015260ff600684015416906004821015610f255750610f219260079160c0840152015460e0820152604051918291602083526020830190611f00565b0390f35b634e487b7160e01b81526021600452602490fd5b5034610305576040366003190112610305576020906040906001600160a01b03610f61611ec7565b16815260028352818120602435825283522054604051908152f35b503461030557602036600319011261030557610f96612335565b5060043581526001602052604081209060405190610ea182612008565b503461030557602036600319011261030557610fcd611ec7565b610fd5612445565b6001600160a01b0316610fe98115156122df565b806001600160601b0360a01b600b541617600b556001600160601b0360a01b600a541617600a5580f35b50346103055760403660031901126103055761108560036040610f2193611038611ec7565b6024359060018060a01b03168083528460205283832082845260205261106360ff85852054166123f9565b825260026020528282209082526020528181205481526001602052200161205d565b604051918291602083526020830190611e6b565b5034610305576040366003190112610305576110b3611ec7565b90602435808252600160205260ff60066040842001541660048110156111c857600303611183578082526005602081815260408085206001600160a01b0387168652600381018352908520549195909160ff1680611163575b61111590612293565b6001600160a01b0316845201835260408083206001908101549284528452909120600701549081811115611155579061114d916123d6565b604051908152f35b61115e916123d6565b61114d565b506001600160a01b0381168552600482018652604085205460ff1661110c565b60405162461bcd60e51b815260206004820152601a60248201527f536f6c7574696f6e206e6f7420796574206576616c75617465640000000000006044820152606490fd5b634e487b7160e01b83526021600452602483fd5b5034610305576080366003190112610305576111f6611ec7565b6024356044359167ffffffffffffffff8311610b235736602384011215610b235782600401359267ffffffffffffffff8411610afb573660248583010111610afb5760643593604051602081019060018060a01b038516946001600160601b03199060601b1682528560348201528660548201526054815261127960748261203b565b519020948587526001602052604087209686885560018801856001600160601b0360a01b82541617905585600289015560038801976112b88954611fce565b601f8111611433575b5060209882601f86116001146113a1579260068693606096936024987fe7c6470942bc399a7954dd58842739ae92fff350250781d776aa1efa5f5c65e89a978591611394575b508660011b906000198860031b1c19161790555b8360048201550160ff19815416905587815260028b52604081208982528b5289604082205587815260038b52604081208982528b5260408120600160ff198254161790558260405196879560408752826040880152018686013783830185015289830152601f01601f19168101030190a3604051908152f35b8a91508801013538611307565b8184528a842090601f198716855b818110611419575093606096937fe7c6470942bc399a7954dd58842739ae92fff350250781d776aa1efa5f5c65e89996936006938a60249b98106113fd575b5050600186811b01905561131b565b88018a0135600019600389901b60f8161c1916905538806113ee565b91928d600181926024878e010135815501940192016113af565b89835260208320601f860160051c8101916020871061146e575b601f0160051c01905b81811061146357506112c1565b838155600101611456565b909150819061144d565b503461030557806003193601126103055760075461149581612372565b91805b8281106114ad5760405180610f218682611f6e565b6114b68161224a565b90549060031b1c8252600160205260408220604051906114d582612008565b8054825260018101546001600160a01b03166020830152600281015460408301526115026003820161205d565b606083015260048101546080830152600581015460a083015260ff60068201541660048110156104475760c08301526007015460e08201526001919061154882876123c2565b5261155381866123c2565b5001611498565b5034610305578060031936011261030557602090604051908152f35b5034610305576020366003190112610305576001600160a01b03611598611ec7565b1681526004602052604081206040518082602082945493848152019085526020852092855b81811061169e5750506115d29250038261203b565b6115dc8151612372565b91805b8251811015611690576115f281846123c2565b5182526001602052604082206040519061160b82612008565b8054825260018101546001600160a01b03166020830152600281015460408301526116386003820161205d565b606083015260048101546080830152600581015460a083015260ff60068201541660048110156104475760c08301526007015460e08201526001919061167e82876123c2565b5261168981866123c2565b50016115df565b60405180610f218682611f6e565b84548352600194850194869450602090930192016115bd565b5034610305576020366003190112610305576116d1611ec7565b6116d9612445565b6001600160a01b03166116ed8115156122df565b806001600160601b0360a01b600d541617600d556001600160601b0360a01b600c541617600c5580f35b50346103055760403660031901126103055760ff6040602092611738611eac565b60043582528185528282206001600160a01b03909116825284522054604051911615158152f35b50346103055760203660031901126103055760043590818152600160205260ff6006604083200154166004811015611801576003036117b1576040816020936006935260058452200154604051908152f35b60405162461bcd60e51b815260206004820152602260248201527f536f6c7574696f6e206861736e2774206265656e206576616c75617465642079604482015261195d60f21b6064820152608490fd5b634e487b7160e01b82526021600452602482fd5b50346103055760403660031901126103055760ff6040602092611836611ec7565b6024358252600585528282206001600160a01b03909116825260030184522054604051911615158152f35b50346103055760403660031901126103055760ff6040602092611882611ec7565b6024358252600585528282206001600160a01b03909116825260040184522054604051911615158152f35b5034610305576040366003190112610305576002604060209260056118d0611ec7565b60243583528186528383206001600160a01b03821684526003810187528484205490919060ff168061191f575b61190690612293565b6001600160a01b03168352018452200154604051908152f35b506001600160a01b03811684526004820187528484205460ff166118fd565b50346103055760203660031901126103055760406020916004358152600583522054604051908152f35b50346103055760403660031901126103055760016040602092600561198b611ec7565b602435835281865283832090858060a01b038116845260038201875260ff8585205416806119d4575b6119bd90612293565b858060a01b03168352018452200154604051908152f35b5060a086901b869003811684526004820187528484205460ff166119b4565b50346103055760403660031901126103055760209060ff906040906001600160a01b03611a1e611ec7565b16815260038452818120602435825284522054166040519015158152f35b503461030557604036600319011261030557611a56611eac565b336001600160a01b03821603611a72576105c29060043561255e565b63334bd91960e11b8252600482fd5b5034610305576020366003190112610305576004358082526006602052611aae60ff604084205416612101565b600c546001600160a01b0316611ac581151561214d565b60018060a01b0360085416828452600160205260206002604086200154602460405180948193632e34e4df60e01b835260048301525afa8015610d1e57611b2c926020928692610e025750604051808095819463b669a8ad60e01b835233600484016121cd565b03915afa8015611d3957611b46918491610dd357506121ed565b808252600160208190526040832001546001600160a01b03163314611cf45780825260056020908152604080842033855260038101928390529084205460ff16611caf576002810190815490541115611c7357338452600460205260408420805490600160401b821015611c5f5761025982611bc8926001889501815561227b565b9055805490600160401b821015611c4b5790611be99160018201815561227b565b81546001600160a01b0360039290921b91821b1916339182901b1790915580845260209182526040808520805460ff191660011790555142815290917f617ef2e1779b9097b1936bb1d4c9b068575eefd947525aa9c61d477329c08ed891a380f35b634e487b7160e01b85526041600452602485fd5b634e487b7160e01b86526041600452602486fd5b60405162461bcd60e51b8152602060048201526014602482015273115d985b1d585d1a5bdb881c1bdbdb08199d5b1b60621b6044820152606490fd5b60405162461bcd60e51b815260206004820152601960248201527f416c7265616479206a6f696e6564206576616c756174696f6e000000000000006044820152606490fd5b60405162461bcd60e51b815260206004820152601c60248201527f43616e6e6f74206576616c75617465206f776e20736f6c7574696f6e000000006044820152606490fd5b6040513d85823e3d90fd5b5034610305576040366003190112610305576105c2600435611d64611eac565b90611d806105b882600052600060205260016040600020015490565b6124d3565b50346103055760203660031901126103055760026040602092600435815260058452200154604051908152f35b503461030557602036600319011261030557602061114d600435600052600060205260016040600020015490565b50346103055760203660031901126103055761108560036040610f219360043581526001602052200161205d565b905034611e67576020366003190112611e675760043563ffffffff60e01b8116809103611e635760209250637965db0b60e01b8114908115611e52575b5015158152f35b6301ffc9a760e01b14905038611e4b565b8280fd5b5080fd5b919082519283825260005b848110611e97575050826000602080949584010152601f8019910116010190565b80602080928401015182828601015201611e76565b602435906001600160a01b0382168203611ec257565b600080fd5b600435906001600160a01b0382168203611ec257565b906004821015611eea5752565b634e487b7160e01b600052602160045260246000fd5b908151815260018060a01b0360208301511660208201526040820151604082015260e080611f3f60608501516101006060860152610100850190611e6b565b936080810151608085015260a081015160a0850152611f6660c082015160c0860190611edd565b015191015290565b602081016020825282518091526040820191602060408360051b8301019401926000915b838310611fa157505050505090565b9091929394602080611fbf600193603f198682030187528951611f00565b97019301930191939290611f92565b90600182811c92168015611ffe575b6020831014611fe857565b634e487b7160e01b600052602260045260246000fd5b91607f1691611fdd565b610100810190811067ffffffffffffffff82111761202557604052565b634e487b7160e01b600052604160045260246000fd5b90601f8019910116810190811067ffffffffffffffff82111761202557604052565b906040519182600082549261207184611fce565b80845293600181169081156120df5750600114612098575b506120969250038361203b565b565b90506000929192526020600020906000915b8183106120c35750509060206120969282010138612089565b60209193508060019154838589010152019101909184926120aa565b90506020925061209694915060ff191682840152151560051b82010138612089565b1561210857565b60405162461bcd60e51b815260206004820152601960248201527f536f6c7574696f6e206e6f7420756e64657220726576696577000000000000006044820152606490fd5b1561215457565b60405162461bcd60e51b8152602060048201526014602482015273149bdb19481b585b9859d95c881b9bdd081cd95d60621b6044820152606490fd5b90816020910312611ec25751600e811015611ec25790565b90816020910312611ec257518015158103611ec25790565b90600e821015611eea5752565b6001600160a01b03909116815260408101929161209691602001906121c0565b156121f457565b60405162461bcd60e51b815260206004820152602860248201527f596f7520617265206e6f7420616e206576616c7561746f7220666f722074686960448201526739903237b6b0b4b760c11b6064820152608490fd5b60075481101561226557600760005260206000200190600090565b634e487b7160e01b600052603260045260246000fd5b80548210156122655760005260206000200190600090565b1561229a57565b60405162461bcd60e51b815260206004820152601d60248201527f4576616c7561746f72206e6f74207375626d69747465642073636f72650000006044820152606490fd5b156122e657565b60405162461bcd60e51b815260206004820152600f60248201526e496e76616c6964206164647265737360881b6044820152606490fd5b67ffffffffffffffff81116120255760051b60200190565b6040519061234282612008565b600060e0838281528260208201528260408201526060808201528260808201528260a08201528260c08201520152565b9061237c8261231d565b612389604051918261203b565b828152809261239a601f199161231d565b019060005b8281106123ab57505050565b6020906123b6612335565b8282850101520161239f565b80518210156122655760209160051b010190565b919082039182116123e357565b634e487b7160e01b600052601160045260246000fd5b1561240057565b60405162461bcd60e51b815260206004820152601960248201527f55736572206e6f74206a6f696e6564206368616c6c656e6765000000000000006044820152606490fd5b3360009081527fad3228b676f7d3cd4284a5443f17f1962b36e491b30a40b2405849e597ba5fb5602052604090205460ff161561247e57565b63e2517d3f60e01b60005233600452600060245260446000fd5b60008181526020818152604080832033845290915290205460ff16156124bb5750565b63e2517d3f60e01b6000523360045260245260446000fd5b6000818152602081815260408083206001600160a01b038616845290915290205460ff16612557576000818152602081815260408083206001600160a01b0395909516808452949091528120805460ff19166001179055339291907f2f8788117e7eff1d82e926ec794901d17c78024a50270940304540a733656f0d9080a4600190565b5050600090565b6000818152602081815260408083206001600160a01b038616845290915290205460ff1615612557576000818152602081815260408083206001600160a01b0395909516808452949091528120805460ff19169055339291907ff6391f5c32d9c69d2a47ea670b442974b53935d1edc7fd64eb21e047a839171b9080a4600190565b919082018092116123e35756fea264697066735822122042dbd24d4c53645da0ac0b39529f3ac2da5b6988c9991e1b81e9a962d22fe55964736f6c634300081a0033ad3228b676f7d3cd4284a5443f17f1962b36e491b30a40b2405849e597ba5fb5",
  "linkReferences": {},
  "deployedLinkReferences": {}
}