{
  "_format": "hh-sol-artifact-1",
  "contractName": "SolutionManager",
  "sourceName": "contracts/SolutionManager.sol",
  "abi": [
    {
      "anonymous": false,
      "inputs": [
        {
          "indexed": false,
          "internalType": "address",
          "name": "user_address",
          "type": "address"
        },
        {
          "indexed": false,
          "internalType": "uint256",
          "name": "challenge_id",
          "type": "uint256"
        },
        {
          "indexed": false,
          "internalType": "uint256",
          "name": "created_at",
          "type": "uint256"
        }
      ],
      "name": "SolutionBaseCreated",
      "type": "event"
    },
    {
      "anonymous": false,
      "inputs": [
        {
          "indexed": false,
          "internalType": "string",
          "name": "solution_url",
          "type": "string"
        },
        {
          "indexed": false,
          "internalType": "uint256",
          "name": "submitted_at",
          "type": "uint256"
        }
      ],
      "name": "SolutionSubmitted",
      "type": "event"
    },
    {
      "inputs": [
        {
          "internalType": "address",
          "name": "_user_address",
          "type": "address"
        },
        {
          "internalType": "uint256",
          "name": "_challenge_id",
          "type": "uint256"
        }
      ],
      "name": "checkUserJoinedChallenge",
      "outputs": [
        {
          "internalType": "bool",
          "name": "",
          "type": "bool"
        }
      ],
      "stateMutability": "view",
      "type": "function"
    },
    {
      "inputs": [
        {
          "internalType": "address",
          "name": "_user_address",
          "type": "address"
        },
        {
          "internalType": "uint256",
          "name": "_challenge_id",
          "type": "uint256"
        },
        {
          "internalType": "uint256",
          "name": "_created_at",
          "type": "uint256"
        }
      ],
      "name": "createSolutionBase",
      "outputs": [],
      "stateMutability": "nonpayable",
      "type": "function"
    },
    {
      "inputs": [
        {
          "internalType": "address",
          "name": "_user_address",
          "type": "address"
        },
        {
          "internalType": "uint256",
          "name": "_challenge_id",
          "type": "uint256"
        }
      ],
      "name": "getSolutionByUserAndChallengeId",
      "outputs": [
        {
          "components": [
            {
              "internalType": "address",
              "name": "user",
              "type": "address"
            },
            {
              "internalType": "uint256",
              "name": "challenge_id",
              "type": "uint256"
            },
            {
              "internalType": "string",
              "name": "solution_url",
              "type": "string"
            },
            {
              "internalType": "uint256",
              "name": "created_at",
              "type": "uint256"
            },
            {
              "internalType": "uint256",
              "name": "submitted_at",
              "type": "uint256"
            },
            {
              "internalType": "enum SolutionProgress",
              "name": "progress",
              "type": "uint8"
            },
            {
              "internalType": "uint256",
              "name": "score",
              "type": "uint256"
            }
          ],
          "internalType": "struct SolutionManager.Solution",
          "name": "",
          "type": "tuple"
        }
      ],
      "stateMutability": "view",
      "type": "function"
    },
    {
      "inputs": [
        {
          "internalType": "address",
          "name": "_user_address",
          "type": "address"
        },
        {
          "internalType": "uint256",
          "name": "_challenge_id",
          "type": "uint256"
        }
      ],
      "name": "getSolutionPreviewByUserAndChallengeId",
      "outputs": [
        {
          "internalType": "uint256",
          "name": "created_at",
          "type": "uint256"
        },
        {
          "internalType": "enum SolutionProgress",
          "name": "progress",
          "type": "uint8"
        },
        {
          "internalType": "uint256",
          "name": "score",
          "type": "uint256"
        }
      ],
      "stateMutability": "view",
      "type": "function"
    },
    {
      "inputs": [
        {
          "internalType": "address",
          "name": "_user_address",
          "type": "address"
        },
        {
          "internalType": "uint256",
          "name": "_challenge_id",
          "type": "uint256"
        },
        {
          "internalType": "string",
          "name": "_solution_url",
          "type": "string"
        }
      ],
      "name": "submitSolution",
      "outputs": [],
      "stateMutability": "nonpayable",
      "type": "function"
    }
  ],
  "bytecode": "0x60806040526000600355348015601457600080fd5b506118af806100246000396000f3fe608060405234801561001057600080fd5b50600436106100575760003560e01c8063419fd69e1461005c5780637d2c111f1461008e578063846900cf146100aa578063c0d4b1c6146100da578063c1954334146100f6575b600080fd5b61007660048036038101906100719190610d1f565b610126565b60405161008593929190610de5565b60405180910390f35b6100a860048036038101906100a39190610e1c565b6101ba565b005b6100c460048036038101906100bf9190610d1f565b61042f565b6040516100d19190610e8a565b60405180910390f35b6100f460048036038101906100ef9190610f0a565b610497565b005b610110600480360381019061010b9190610d1f565b610746565b60405161011d91906110d7565b60405180910390f35b6000806000806000806001600088815260200190815260200160002060008973ffffffffffffffffffffffffffffffffffffffff1673ffffffffffffffffffffffffffffffffffffffff168152602001908152602001600020548152602001908152602001600020905080600301548160050160009054906101000a900460ff168260060154935093509350509250925092565b6000600360008154809291906101cf90611128565b9190505590506040518060e001604052808573ffffffffffffffffffffffffffffffffffffffff168152602001848152602001604051806020016040528060008152508152602001838152602001600081526020016000600381111561023857610237610d6e565b5b8152602001600081525060008083815260200190815260200160002060008201518160000160006101000a81548173ffffffffffffffffffffffffffffffffffffffff021916908373ffffffffffffffffffffffffffffffffffffffff1602179055506020820151816001015560408201518160020190816102ba91906113ab565b50606082015181600301556080820151816004015560a08201518160050160006101000a81548160ff021916908360038111156102fa576102f9610d6e565b5b021790555060c08201518160060155905050806001600085815260200190815260200160002060008673ffffffffffffffffffffffffffffffffffffffff1673ffffffffffffffffffffffffffffffffffffffff1681526020019081526020016000208190555060016002600085815260200190815260200160002060008673ffffffffffffffffffffffffffffffffffffffff1673ffffffffffffffffffffffffffffffffffffffff16815260200190815260200160002060006101000a81548160ff0219169083151502179055506103ee604051806060016040528060358152602001611845603591398285876109e9565b7fd231c82f4da926ff6a30268b19257c0397a59fb60bd781005f6ac17783ecfd158484846040516104219392919061148c565b60405180910390a150505050565b60006002600083815260200190815260200160002060008473ffffffffffffffffffffffffffffffffffffffff1673ffffffffffffffffffffffffffffffffffffffff16815260200190815260200160002060009054906101000a900460ff16905092915050565b6002600084815260200190815260200160002060008573ffffffffffffffffffffffffffffffffffffffff1673ffffffffffffffffffffffffffffffffffffffff16815260200190815260200160002060009054906101000a900460ff166104fe57600080fd5b60008060006001600087815260200190815260200160002060008873ffffffffffffffffffffffffffffffffffffffff1673ffffffffffffffffffffffffffffffffffffffff168152602001908152602001600020548152602001908152602001600020905082828260020191826105779291906114ce565b506103e842610586919061159e565b816004018190555060018160050160006101000a81548160ff021916908360038111156105b6576105b5610d6e565b5b021790555061062f60405180606001604052806031815260200161181460319139866001600088815260200190815260200160002060008973ffffffffffffffffffffffffffffffffffffffff1673ffffffffffffffffffffffffffffffffffffffff1681526020019081526020016000205487610a8b565b6106ff6040518060400160405280601b81526020017f6174202573207769746820736f6c7574696f6e2055524c3a2025730000000000815250826004015483600201805461067c906111ce565b80601f01602080910402602001604051908101604052809291908181526020018280546106a8906111ce565b80156106f55780601f106106ca576101008083540402835291602001916106f5565b820191906000526020600020905b8154815290600101906020018083116106d857829003601f168201915b5050505050610b2d565b7f2aa34a1de4c10214d3cfaba633359f6355fd23ccb60ca39e986dbf129cc427f3816002018260040154604051610737929190611675565b60405180910390a15050505050565b61074e610c12565b6002600083815260200190815260200160002060008473ffffffffffffffffffffffffffffffffffffffff1673ffffffffffffffffffffffffffffffffffffffff16815260200190815260200160002060009054906101000a900460ff166107b557600080fd5b6108296040518060600160405280602981526020016117eb60299139846001600086815260200190815260200160002060008773ffffffffffffffffffffffffffffffffffffffff1673ffffffffffffffffffffffffffffffffffffffff1681526020019081526020016000205485610a8b565b6000806001600085815260200190815260200160002060008673ffffffffffffffffffffffffffffffffffffffff1673ffffffffffffffffffffffffffffffffffffffff1681526020019081526020016000205481526020019081526020016000206040518060e00160405290816000820160009054906101000a900473ffffffffffffffffffffffffffffffffffffffff1673ffffffffffffffffffffffffffffffffffffffff1673ffffffffffffffffffffffffffffffffffffffff16815260200160018201548152602001600282018054610906906111ce565b80601f0160208091040260200160405190810160405280929190818152602001828054610932906111ce565b801561097f5780601f106109545761010080835404028352916020019161097f565b820191906000526020600020905b81548152906001019060200180831161096257829003601f168201915b5050505050815260200160038201548152602001600482015481526020016005820160009054906101000a900460ff1660038111156109c1576109c0610d6e565b5b60038111156109d3576109d2610d6e565b5b8152602001600682015481525050905092915050565b610a8584848484604051602401610a0394939291906116de565b6040516020818303038152906040527fe21de278000000000000000000000000000000000000000000000000000000007bffffffffffffffffffffffffffffffffffffffffffffffffffffffff19166020820180517bffffffffffffffffffffffffffffffffffffffffffffffffffffffff8381831617835250505050610bcc565b50505050565b610b2784848484604051602401610aa5949392919061172a565b6040516020818303038152906040527ff8f51b1e000000000000000000000000000000000000000000000000000000007bffffffffffffffffffffffffffffffffffffffffffffffffffffffff19166020820180517bffffffffffffffffffffffffffffffffffffffffffffffffffffffff8381831617835250505050610bcc565b50505050565b610bc7838383604051602401610b4593929190611776565b6040516020818303038152906040527f5970e089000000000000000000000000000000000000000000000000000000007bffffffffffffffffffffffffffffffffffffffffffffffffffffffff19166020820180517bffffffffffffffffffffffffffffffffffffffffffffffffffffffff8381831617835250505050610bcc565b505050565b610be381610bdb610be6610c07565b63ffffffff16565b50565b60006a636f6e736f6c652e6c6f679050600080835160208501845afa505050565b610c77819050919050565b6040518060e00160405280600073ffffffffffffffffffffffffffffffffffffffff1681526020016000815260200160608152602001600081526020016000815260200160006003811115610c6a57610c69610d6e565b5b8152602001600081525090565b610c7f6117bb565b565b600080fd5b600080fd5b600073ffffffffffffffffffffffffffffffffffffffff82169050919050565b6000610cb682610c8b565b9050919050565b610cc681610cab565b8114610cd157600080fd5b50565b600081359050610ce381610cbd565b92915050565b6000819050919050565b610cfc81610ce9565b8114610d0757600080fd5b50565b600081359050610d1981610cf3565b92915050565b60008060408385031215610d3657610d35610c81565b5b6000610d4485828601610cd4565b9250506020610d5585828601610d0a565b9150509250929050565b610d6881610ce9565b82525050565b7f4e487b7100000000000000000000000000000000000000000000000000000000600052602160045260246000fd5b60048110610dae57610dad610d6e565b5b50565b6000819050610dbf82610d9d565b919050565b6000610dcf82610db1565b9050919050565b610ddf81610dc4565b82525050565b6000606082019050610dfa6000830186610d5f565b610e076020830185610dd6565b610e146040830184610d5f565b949350505050565b600080600060608486031215610e3557610e34610c81565b5b6000610e4386828701610cd4565b9350506020610e5486828701610d0a565b9250506040610e6586828701610d0a565b9150509250925092565b60008115159050919050565b610e8481610e6f565b82525050565b6000602082019050610e9f6000830184610e7b565b92915050565b600080fd5b600080fd5b600080fd5b60008083601f840112610eca57610ec9610ea5565b5b8235905067ffffffffffffffff811115610ee757610ee6610eaa565b5b602083019150836001820283011115610f0357610f02610eaf565b5b9250929050565b60008060008060608587031215610f2457610f23610c81565b5b6000610f3287828801610cd4565b9450506020610f4387828801610d0a565b935050604085013567ffffffffffffffff811115610f6457610f63610c86565b5b610f7087828801610eb4565b925092505092959194509250565b610f8781610cab565b82525050565b610f9681610ce9565b82525050565b600081519050919050565b600082825260208201905092915050565b60005b83811015610fd6578082015181840152602081019050610fbb565b60008484015250505050565b6000601f19601f8301169050919050565b6000610ffe82610f9c565b6110088185610fa7565b9350611018818560208601610fb8565b61102181610fe2565b840191505092915050565b61103581610dc4565b82525050565b600060e0830160008301516110536000860182610f7e565b5060208301516110666020860182610f8d565b506040830151848203604086015261107e8282610ff3565b91505060608301516110936060860182610f8d565b5060808301516110a66080860182610f8d565b5060a08301516110b960a086018261102c565b5060c08301516110cc60c0860182610f8d565b508091505092915050565b600060208201905081810360008301526110f1818461103b565b905092915050565b7f4e487b7100000000000000000000000000000000000000000000000000000000600052601160045260246000fd5b600061113382610ce9565b91507fffffffffffffffffffffffffffffffffffffffffffffffffffffffffffffffff8203611165576111646110f9565b5b600182019050919050565b7f4e487b7100000000000000000000000000000000000000000000000000000000600052604160045260246000fd5b7f4e487b7100000000000000000000000000000000000000000000000000000000600052602260045260246000fd5b600060028204905060018216806111e657607f821691505b6020821081036111f9576111f861119f565b5b50919050565b60008190508160005260206000209050919050565b60006020601f8301049050919050565b600082821b905092915050565b6000600883026112617fffffffffffffffffffffffffffffffffffffffffffffffffffffffffffffffff82611224565b61126b8683611224565b95508019841693508086168417925050509392505050565b6000819050919050565b60006112a86112a361129e84610ce9565b611283565b610ce9565b9050919050565b6000819050919050565b6112c28361128d565b6112d66112ce826112af565b848454611231565b825550505050565b600090565b6112eb6112de565b6112f68184846112b9565b505050565b5b8181101561131a5761130f6000826112e3565b6001810190506112fc565b5050565b601f82111561135f57611330816111ff565b61133984611214565b81016020851015611348578190505b61135c61135485611214565b8301826112fb565b50505b505050565b600082821c905092915050565b600061138260001984600802611364565b1980831691505092915050565b600061139b8383611371565b9150826002028217905092915050565b6113b482610f9c565b67ffffffffffffffff8111156113cd576113cc611170565b5b6113d782546111ce565b6113e282828561131e565b600060209050601f8311600181146114155760008415611403578287015190505b61140d858261138f565b865550611475565b601f198416611423866111ff565b60005b8281101561144b57848901518255600182019150602085019450602081019050611426565b868310156114685784890151611464601f891682611371565b8355505b6001600288020188555050505b505050505050565b61148681610cab565b82525050565b60006060820190506114a1600083018661147d565b6114ae6020830185610d5f565b6114bb6040830184610d5f565b949350505050565b600082905092915050565b6114d883836114c3565b67ffffffffffffffff8111156114f1576114f0611170565b5b6114fb82546111ce565b61150682828561131e565b6000601f8311600181146115355760008415611523578287013590505b61152d858261138f565b865550611595565b601f198416611543866111ff565b60005b8281101561156b57848901358255600182019150602085019450602081019050611546565b868310156115885784890135611584601f891682611371565b8355505b6001600288020188555050505b50505050505050565b60006115a982610ce9565b91506115b483610ce9565b92508282026115c281610ce9565b915082820484148315176115d9576115d86110f9565b5b5092915050565b600082825260208201905092915050565b600081546115fe816111ce565b61160881866115e0565b9450600182166000811461162357600181146116395761166c565b60ff19831686528115156020028601935061166c565b611642856111ff565b60005b8381101561166457815481890152600182019150602081019050611645565b808801955050505b50505092915050565b6000604082019050818103600083015261168f81856115f1565b905061169e6020830184610d5f565b9392505050565b60006116b082610f9c565b6116ba81856115e0565b93506116ca818560208601610fb8565b6116d381610fe2565b840191505092915050565b600060808201905081810360008301526116f881876116a5565b90506117076020830186610d5f565b6117146040830185610d5f565b611721606083018461147d565b95945050505050565b6000608082019050818103600083015261174481876116a5565b9050611753602083018661147d565b6117606040830185610d5f565b61176d6060830184610d5f565b95945050505050565b6000606082019050818103600083015261179081866116a5565b905061179f6020830185610d5f565b81810360408301526117b181846116a5565b9050949350505050565b7f4e487b7100000000000000000000000000000000000000000000000000000000600052605160045260246000fdfe55736572202573206665746368656420736f6c7574696f6e206f66206368616c6c656e67652023257355736572202573207375626d6d697474656420736f6c7574696f6e2023257320666f72206368616c6c656e6765202325734372656174656420736f6c7574696f6e206261736520232573206f66206368616c6c656e676520257320666f722075736572202573a2646970667358221220696a734ace0edbb68f91de0ad25b33621e7ae7f5781c60bbfede351cb8eecb4a64736f6c634300081c0033",
  "linkReferences": {},
  "deployedLinkReferences": {}
}