{
  "_format": "hh-sol-artifact-1",
  "contractName": "SolutionManager",
  "sourceName": "contracts/SolutionManager.sol",
  "abi": [
    {
      "anonymous": false,
      "inputs": [
        {
          "indexed": true,
          "internalType": "address",
          "name": "user_address",
          "type": "address"
        },
        {
          "indexed": true,
          "internalType": "uint256",
          "name": "challenge_id",
          "type": "uint256"
        },
        {
          "indexed": false,
          "internalType": "string",
          "name": "solution_base_txid",
          "type": "string"
        },
        {
          "indexed": false,
          "internalType": "uint256",
          "name": "created_at",
          "type": "uint256"
        }
      ],
      "name": "SolutionBaseCreated",
      "type": "event"
    },
    {
      "anonymous": false,
      "inputs": [
        {
          "indexed": true,
          "internalType": "uint256",
          "name": "solution_id",
          "type": "uint256"
        },
        {
          "indexed": false,
          "internalType": "uint256",
          "name": "score",
          "type": "uint256"
        },
        {
          "indexed": false,
          "internalType": "uint256",
          "name": "finalized_at",
          "type": "uint256"
        }
      ],
      "name": "SolutionEvaluationFinalized",
      "type": "event"
    },
    {
      "anonymous": false,
      "inputs": [
        {
          "indexed": true,
          "internalType": "address",
          "name": "evaluator",
          "type": "address"
        },
        {
          "indexed": true,
          "internalType": "uint256",
          "name": "solution_id",
          "type": "uint256"
        },
        {
          "indexed": false,
          "internalType": "uint256",
          "name": "joined_at",
          "type": "uint256"
        }
      ],
      "name": "SolutionJoinedByEvaluator",
      "type": "event"
    },
    {
      "anonymous": false,
      "inputs": [
        {
          "indexed": true,
          "internalType": "uint256",
          "name": "solution_id",
          "type": "uint256"
        },
        {
          "indexed": false,
          "internalType": "uint256",
          "name": "initialized_at",
          "type": "uint256"
        }
      ],
      "name": "SolutionPoolInitialized",
      "type": "event"
    },
    {
      "anonymous": false,
      "inputs": [
        {
          "indexed": true,
          "internalType": "address",
          "name": "evaluator",
          "type": "address"
        },
        {
          "indexed": true,
          "internalType": "uint256",
          "name": "solution_id",
          "type": "uint256"
        },
        {
          "indexed": false,
          "internalType": "uint256",
          "name": "score",
          "type": "uint256"
        },
        {
          "indexed": false,
          "internalType": "uint256",
          "name": "submitted_at",
          "type": "uint256"
        }
      ],
      "name": "SolutionScoreSubmittedByEvaluator",
      "type": "event"
    },
    {
      "anonymous": false,
      "inputs": [
        {
          "indexed": true,
          "internalType": "uint256",
          "name": "solution_id",
          "type": "uint256"
        },
        {
          "indexed": false,
          "internalType": "uint256",
          "name": "submitted_at",
          "type": "uint256"
        }
      ],
      "name": "SolutionSubmitted",
      "type": "event"
    },
    {
      "inputs": [
        {
          "internalType": "address",
          "name": "_evaluator_address",
          "type": "address"
        },
        {
          "internalType": "uint256",
          "name": "_solution_id",
          "type": "uint256"
        }
      ],
      "name": "checkEvaluatorJoinedSolution",
      "outputs": [
        {
          "internalType": "bool",
          "name": "",
          "type": "bool"
        }
      ],
      "stateMutability": "view",
      "type": "function"
    },
    {
      "inputs": [
        {
          "internalType": "address",
          "name": "_evaluator_address",
          "type": "address"
        },
        {
          "internalType": "uint256",
          "name": "_solution_id",
          "type": "uint256"
        }
      ],
      "name": "checkEvalutorSubmittedScore",
      "outputs": [
        {
          "internalType": "bool",
          "name": "",
          "type": "bool"
        }
      ],
      "stateMutability": "view",
      "type": "function"
    },
    {
      "inputs": [
        {
          "internalType": "address",
          "name": "_user_address",
          "type": "address"
        },
        {
          "internalType": "uint256",
          "name": "_challenge_id",
          "type": "uint256"
        }
      ],
      "name": "checkUserJoinedChallenge",
      "outputs": [
        {
          "internalType": "bool",
          "name": "",
          "type": "bool"
        }
      ],
      "stateMutability": "view",
      "type": "function"
    },
    {
      "inputs": [
        {
          "internalType": "address",
          "name": "_user_address",
          "type": "address"
        },
        {
          "internalType": "uint256",
          "name": "_challenge_id",
          "type": "uint256"
        },
        {
          "internalType": "string",
          "name": "_solution_base_txid",
          "type": "string"
        },
        {
          "internalType": "uint256",
          "name": "_created_at",
          "type": "uint256"
        }
      ],
      "name": "createSolutionBase",
      "outputs": [],
      "stateMutability": "nonpayable",
      "type": "function"
    },
    {
      "inputs": [
        {
          "internalType": "uint256",
          "name": "_solution_id",
          "type": "uint256"
        }
      ],
      "name": "evaluatorJoinSolution",
      "outputs": [],
      "stateMutability": "nonpayable",
      "type": "function"
    },
    {
      "inputs": [
        {
          "internalType": "uint256",
          "name": "_solution_id",
          "type": "uint256"
        },
        {
          "internalType": "uint256",
          "name": "_score",
          "type": "uint256"
        }
      ],
      "name": "evaluatorSubmitScore",
      "outputs": [],
      "stateMutability": "nonpayable",
      "type": "function"
    },
    {
      "inputs": [
        {
          "internalType": "uint256",
          "name": "_solution_id",
          "type": "uint256"
        }
      ],
      "name": "getMaxEvaluatorsForSolution",
      "outputs": [
        {
          "internalType": "uint256",
          "name": "",
          "type": "uint256"
        }
      ],
      "stateMutability": "view",
      "type": "function"
    },
    {
      "inputs": [
        {
          "internalType": "uint256",
          "name": "_solution_id",
          "type": "uint256"
        }
      ],
      "name": "getNumberOfJoinedEvaluators",
      "outputs": [
        {
          "internalType": "uint256",
          "name": "",
          "type": "uint256"
        }
      ],
      "stateMutability": "view",
      "type": "function"
    },
    {
      "inputs": [
        {
          "internalType": "uint256",
          "name": "_solution_id",
          "type": "uint256"
        }
      ],
      "name": "getNumberOfSubmittedEvaluations",
      "outputs": [
        {
          "internalType": "uint256",
          "name": "",
          "type": "uint256"
        }
      ],
      "stateMutability": "view",
      "type": "function"
    },
    {
      "inputs": [
        {
          "internalType": "address",
          "name": "_evaluator_address",
          "type": "address"
        },
        {
          "internalType": "uint256",
          "name": "_solution_id",
          "type": "uint256"
        }
      ],
      "name": "getScoreSubmittedByEvaluator",
      "outputs": [
        {
          "internalType": "uint256",
          "name": "",
          "type": "uint256"
        }
      ],
      "stateMutability": "view",
      "type": "function"
    },
    {
      "inputs": [
        {
          "internalType": "address",
          "name": "_evaluator_address",
          "type": "address"
        }
      ],
      "name": "getSolutionByEvaluator",
      "outputs": [
        {
          "components": [
            {
              "internalType": "uint256",
              "name": "id",
              "type": "uint256"
            },
            {
              "internalType": "address",
              "name": "submitter",
              "type": "address"
            },
            {
              "internalType": "string",
              "name": "challenge_title_url",
              "type": "string"
            },
            {
              "internalType": "enum SystemEnums.Domain",
              "name": "domain",
              "type": "uint8"
            },
            {
              "internalType": "string",
              "name": "solution_txid",
              "type": "string"
            },
            {
              "internalType": "uint256",
              "name": "submitted_at",
              "type": "uint256"
            },
            {
              "internalType": "enum SystemEnums.SolutionProgress",
              "name": "progress",
              "type": "uint8"
            },
            {
              "internalType": "uint256",
              "name": "number_of_joined_evaluators",
              "type": "uint256"
            },
            {
              "internalType": "uint256",
              "name": "total_evaluators",
              "type": "uint256"
            }
          ],
          "internalType": "struct SolutionManager.UnderReviewSolutionPreview[]",
          "name": "",
          "type": "tuple[]"
        }
      ],
      "stateMutability": "view",
      "type": "function"
    },
    {
      "inputs": [
        {
          "internalType": "uint256",
          "name": "_solution_id",
          "type": "uint256"
        }
      ],
      "name": "getSolutionById",
      "outputs": [
        {
          "components": [
            {
              "internalType": "uint256",
              "name": "id",
              "type": "uint256"
            },
            {
              "internalType": "address",
              "name": "user",
              "type": "address"
            },
            {
              "internalType": "uint256",
              "name": "challenge_id",
              "type": "uint256"
            },
            {
              "internalType": "string",
              "name": "solution_txid",
              "type": "string"
            },
            {
              "internalType": "uint256",
              "name": "created_at",
              "type": "uint256"
            },
            {
              "internalType": "uint256",
              "name": "submitted_at",
              "type": "uint256"
            },
            {
              "internalType": "enum SystemEnums.SolutionProgress",
              "name": "progress",
              "type": "uint8"
            },
            {
              "internalType": "uint256",
              "name": "score",
              "type": "uint256"
            }
          ],
          "internalType": "struct SolutionManager.Solution",
          "name": "",
          "type": "tuple"
        }
      ],
      "stateMutability": "view",
      "type": "function"
    },
    {
      "inputs": [
        {
          "internalType": "address",
          "name": "_user_address",
          "type": "address"
        },
        {
          "internalType": "uint256",
          "name": "_challenge_id",
          "type": "uint256"
        }
      ],
      "name": "getSolutionByUserAndChallengeId",
      "outputs": [
        {
          "components": [
            {
              "internalType": "uint256",
              "name": "id",
              "type": "uint256"
            },
            {
              "internalType": "address",
              "name": "user",
              "type": "address"
            },
            {
              "internalType": "uint256",
              "name": "challenge_id",
              "type": "uint256"
            },
            {
              "internalType": "string",
              "name": "solution_txid",
              "type": "string"
            },
            {
              "internalType": "uint256",
              "name": "created_at",
              "type": "uint256"
            },
            {
              "internalType": "uint256",
              "name": "submitted_at",
              "type": "uint256"
            },
            {
              "internalType": "enum SystemEnums.SolutionProgress",
              "name": "progress",
              "type": "uint8"
            },
            {
              "internalType": "uint256",
              "name": "score",
              "type": "uint256"
            }
          ],
          "internalType": "struct SolutionManager.Solution",
          "name": "",
          "type": "tuple"
        }
      ],
      "stateMutability": "view",
      "type": "function"
    },
    {
      "inputs": [
        {
          "internalType": "address",
          "name": "_user_address",
          "type": "address"
        },
        {
          "internalType": "uint256",
          "name": "_challenge_id",
          "type": "uint256"
        }
      ],
      "name": "getSolutionPreviewByUserAndChallengeId",
      "outputs": [
        {
          "internalType": "uint256",
          "name": "created_at",
          "type": "uint256"
        },
        {
          "internalType": "enum SystemEnums.SolutionProgress",
          "name": "progress",
          "type": "uint8"
        },
        {
          "internalType": "uint256",
          "name": "score",
          "type": "uint256"
        }
      ],
      "stateMutability": "view",
      "type": "function"
    },
    {
      "inputs": [
        {
          "internalType": "address",
          "name": "_user_address",
          "type": "address"
        },
        {
          "internalType": "uint256",
          "name": "_challenge_id",
          "type": "uint256"
        }
      ],
      "name": "getSolutionTxId",
      "outputs": [
        {
          "internalType": "string",
          "name": "",
          "type": "string"
        }
      ],
      "stateMutability": "view",
      "type": "function"
    },
    {
      "inputs": [],
      "name": "getUnderReviewSolutionPreview",
      "outputs": [
        {
          "components": [
            {
              "internalType": "uint256",
              "name": "id",
              "type": "uint256"
            },
            {
              "internalType": "address",
              "name": "submitter",
              "type": "address"
            },
            {
              "internalType": "string",
              "name": "challenge_title_url",
              "type": "string"
            },
            {
              "internalType": "enum SystemEnums.Domain",
              "name": "domain",
              "type": "uint8"
            },
            {
              "internalType": "string",
              "name": "solution_txid",
              "type": "string"
            },
            {
              "internalType": "uint256",
              "name": "submitted_at",
              "type": "uint256"
            },
            {
              "internalType": "enum SystemEnums.SolutionProgress",
              "name": "progress",
              "type": "uint8"
            },
            {
              "internalType": "uint256",
              "name": "number_of_joined_evaluators",
              "type": "uint256"
            },
            {
              "internalType": "uint256",
              "name": "total_evaluators",
              "type": "uint256"
            }
          ],
          "internalType": "struct SolutionManager.UnderReviewSolutionPreview[]",
          "name": "",
          "type": "tuple[]"
        }
      ],
      "stateMutability": "view",
      "type": "function"
    },
    {
      "inputs": [
        {
          "internalType": "uint256",
          "name": "_challenge_id",
          "type": "uint256"
        }
      ],
      "name": "putSolutionUnderReview",
      "outputs": [],
      "stateMutability": "nonpayable",
      "type": "function"
    },
    {
      "inputs": [
        {
          "internalType": "address",
          "name": "_address",
          "type": "address"
        }
      ],
      "name": "setChallengeManagerAddress",
      "outputs": [],
      "stateMutability": "nonpayable",
      "type": "function"
    },
    {
      "inputs": [
        {
          "internalType": "address",
          "name": "_address",
          "type": "address"
        }
      ],
      "name": "setReputationManagerAddress",
      "outputs": [],
      "stateMutability": "nonpayable",
      "type": "function"
    },
    {
      "inputs": [
        {
          "internalType": "uint256",
          "name": "_challenge_id",
          "type": "uint256"
        }
      ],
      "name": "submitSolution",
      "outputs": [],
      "stateMutability": "nonpayable",
      "type": "function"
    }
  ],
  "bytecode": "0x60808060405234601a576000600b5561202190816100208239f35b600080fdfe6080604052600436101561001257600080fd5b6000803560e01c80630bf945121461188e5780631346c95c146117fe578063419fd69e1461178b57806347f1640c1461170857806360332385146116bd57806379be3c4c146115745780637e1366a7146113445780637e427fae14611268578063846900cf1461121f5780639606e6301461101a5780639d4144df14610fce578063af5b087314610e45578063bb96dd3814610e18578063bf22309d14610dee578063c195433414610cf4578063c361e8cf14610c9c578063d0330881146104fe578063d82ff2e914610180578063e1ce7f4f146101535763ee01d8e6146100f957600080fd5b34610150576020366003190112610150576001600160a01b0361011a6119bf565b16610126811515611f7b565b806001600160601b0360a01b60085416176008556001600160601b0360a01b600754161760075580f35b80fd5b50346101505760203660031901126101505760026040602092600435815260048452200154604051908152f35b50346101505760803660031901126101505761019a6119bf565b60443567ffffffffffffffff81116104fa57366023820112156104fa5767ffffffffffffffff8160040135116104fa573660248260040135830101116104fa57600b546101e681611fb9565b600b55604051906101f682611c29565b8082526001600160a01b0384166020830190815260243560408401908152926102226004860135611e79565b61022f6040519182611c79565b6004860135808252600095906024880160208401376004870135820160209081018a905260608401928352606435608085015260a084018a905260c084018a905260e084018a9052858a52899052604089208351815593516001850180546001600160a01b0319166001600160a01b03929092169190911790555160028401555180519067ffffffffffffffff82116104e65781906102d16003860154611bef565b601f8111610496575b50602090601f831160011461042d578a92610422575b50508160011b916000199060031b1c19161760038301555b6080810151600483015560a081015160058301556006820160c0820151600481101561040e578594939260079260e0926040985060ff8019835416911617905501519101556024358652600160205282862060018060a01b0386168352602052828220556024358552600260205281852060018060a01b038516825260205220600160ff198254161790557f3e16aed6ce2e15a2439e36880dec86acc56d4004624545f0f4121f1624804f966040516040815282600401356040820152826004013560248401606083013760049092013582810160609081018690526064356020850152602435946001600160a01b031693601f909201601f191682018290030190a380f35b634e487b7160e01b89526021600452602489fd5b0151905038806102f0565b600386018b52818b209250601f1984168b5b81811061047e5750908460019594939210610465575b505050811b016003830155610308565b015160001960f88460031b161c19169055388080610455565b9293602060018192878601518155019501930161043f565b909150600385018a5260208a20601f840160051c8101602085106104df575b90849392915b601f830160051c820181106104d15750506102da565b8c81558594506001016104bb565b50806104b5565b634e487b7160e01b89526041600452602489fd5b8280fd5b503461015057604036600319011261015057600435602435818352600560205261052e60ff604085205416611f2f565b8183526004602090815260408085203386526003810190925284205490919060ff1615610c5f57338452600482016020819052604085205490929060ff16610c1a576103e84202924284046103e81442151715610c06576040516060810181811067ffffffffffffffff821117610bf2576040908152338083526020808401878152848401898152838c52600588018352848c20955186546001600160a01b0319166001600160a01b0391909116178655905160018681019190915590516002959095019490945590895292909252908620805460ff191682179055810180549092859161061b90611fb9565b8094556040519081528460208201527f148023844b157f8e751820371d187fe4211e0710d53a604eca5840dcfa0ff43160403392a3541461065a578280f35b9091828152600560205261067460ff604083205416611f2f565b82815280602052604081209280825260046020526040822060018060a01b036007541660028601926020845460246040518095819363e2e6825360e01b835260048301525afa9182156109da578592610bc1575b506002830180546009549095600590950194908790819081906001600160a01b03165b898210610ac65750508115610ab25704928360078b015560068a01600360ff1982541617905580885260056020526040882060ff198154169055875b60065480821015610a7f578261073c83611e30565b90549060031b1c146107515750600101610727565b60009a92939495969798999a198101908111610a6b579061078461077761079d93611e30565b90549060031b1c91611e30565b90919082549060031b91821b91600019901b1916179055565b6006548015610a57577f8bee63f0a9f0ea07cbdc4a0a5447e6a74fe06d3717fad513f8f9ebd9b985c19891604091600019016107d881611e30565b8154906000199060031b1b191690556006555b8151908782526020820152a260018060a01b03600754168154813b15610a535788916024839260405194859384926319e74b6f60e11b845260048401525af18015610a3457610a3f575b5060095460019890980154600754915460405163024e6e0560e21b815260048101919091526001600160a01b03998a169991821692909160209183916024918391165afa908115610a345788916109f9575b50883b156109bd5760405191630f61997560e21b835260048301526108af6024830186611ab8565b836044830152601e6064830152600a608483015260038110156109e557968160c48183809c819a9b9c60a48401525af19081156109da5785916109c1575b505b8681106108ff5750505050508280f35b6109098183611e61565b90546001600160a01b0360039290921b1c81166000818152602089905260409020600954600190910154921691823b156109bd5760c4889283604051958694859363f28cdc1360e01b85526004850152610966602485018d611ab8565b8a60448501526064840152603c6084840152600a60a48401525af19081156109b2578691610999575b50506001016108ef565b816109a391611c79565b6109ae57843861098f565b8480fd5b6040513d88823e3d90fd5b8780fd5b816109cb91611c79565b6109d65783386108ed565b8380fd5b6040513d87823e3d90fd5b634e487b7160e01b88526021600452602488fd5b90506020813d602011610a2c575b81610a1460209383611c79565b810103126109bd575160038110156109bd5738610887565b3d9150610a07565b6040513d8a823e3d90fd5b87610a4c91989298611c79565b9538610835565b8880fd5b634e487b7160e01b8a52603160045260248afd5b634e487b7160e01b8b52601160045260248bfd5b5050909192939495969760407f8bee63f0a9f0ea07cbdc4a0a5447e6a74fe06d3717fad513f8f9ebd9b985c198916107eb565b634e487b7160e01b89526012600452602489fd5b909291610ad38487611e61565b905460039190911b1c6001600160a01b0316808c5260208a90526040808d209051630cf571c160e11b815260048101929092529190610b15602482018b611ab8565b602081604481875afa908115610bb6578d91610b81575b506001019182600111610b6d57600101549082820291808304841490151715610b6d5791610b5f610b6592600194611fde565b94611fde565b9301906106eb565b634e487b7160e01b8d52601160045260248dfd5b90506020813d8211610bae575b81610b9b60209383611c79565b81010312610baa575138610b2c565b8c80fd5b3d9150610b8e565b6040513d8f823e3d90fd5b610be491925060203d602011610beb575b610bdc8183611c79565b810190611ef7565b90386106c8565b503d610bd2565b634e487b7160e01b88526041600452602488fd5b634e487b7160e01b86526011600452602486fd5b60405162461bcd60e51b815260206004820152601760248201527f416c7265616479207375626d69747465642073636f72650000000000000000006044820152606490fd5b60405162461bcd60e51b81526020600482015260156024820152742737ba103537b4b732b21032bb30b63ab0ba34b7b760591b6044820152606490fd5b5034610150576020366003190112610150576001600160a01b03610cbe6119bf565b16610cca811515611f7b565b806001600160601b0360a01b600a541617600a556001600160601b0360a01b600954161760095580f35b5034610150576040366003190112610150576040610dea91610d146119bf565b602435610d1f611d3f565b50808352600260209081528484206001600160a01b0384168552905283832054610d4b9060ff16611ba3565b825260016020528282209060018060a01b031682526020528181205481528060205220600760405191610d7d83611c29565b8054835260018101546001600160a01b0316602084015260028101546040840152610daa60038201611c9b565b606084015260048101546080840152600581015460a0840152610dd760ff60068301541660c08501611d7c565b015460e082015260405191829182611a45565b0390f35b50346101505760203660031901126101505760406020916004358152600483522054604051908152f35b50346101505760203660031901126101505760016040602092600435815260048452200154604051908152f35b503461015057602036600319011261015057600435808252600260209081526040808420338552909152822054610e7e9060ff16611ba3565b8152600160209081526040808320338452825280832054808452918390528220600601805460ff166004811015610fba57600103610f7c57600260ff19825416179055808252600460205281600160408220600381550155808252600560205260408220600160ff19825416179055600654600160401b811015610f685781610784826001610f1294016006556006611e61565b6103e842024281046103e81442151715610f545760207f5d3f96fa44923951be188e5f845549999c2ab981c3ea34e0274943af92fc274491604051908152a280f35b634e487b7160e01b83526011600452602483fd5b634e487b7160e01b83526041600452602483fd5b60405162461bcd60e51b815260206004820152601660248201527514dbdb1d5d1a5bdb881b9bdd081cdd589b5a5d1d195960521b6044820152606490fd5b634e487b7160e01b84526021600452602484fd5b50346101505760403660031901126101505760ff6040602092610fef6119bf565b6024358252600485528282206001600160a01b03909116825260030184522054604051911615158152f35b5034610150576020366003190112610150576001600160a01b0361103c6119bf565b1681526003602052604081206040518082602082945493848152019085526020852092855b81811061120657505061107692500382611c79565b6110808151611da0565b6007546001600160a01b0316835b83518110156111f8576110a18185611f1b565b519081865285602052604086208287526004602052604087209260018060a01b03600183015416938860028401549560405163f55dd32b60e01b815287600482015282816024818c5afa9081156111cb5783916111d6575b506040519763e2e6825360e01b895260048901526020886024818c5afa80156111cb5760036111589761116d6111739360019c61118698916111ad575b5060058301549560ff6006850154169760028b01549a549b6040519d8e611c5c565b8d5260208d015260408c015260608b01611f0f565b01611c9b565b608087015260a086015260c08501611d7c565b60e083015261010082015261119b8286611f1b565b526111a68185611f1b565b500161108e565b6111c5915060203d8111610beb57610bdc8183611c79565b38611136565b6040513d85823e3d90fd5b6111f291503d8085833e6111ea8183611c79565b810190611e95565b386110f9565b60405180610dea8582611ac5565b8454835260019485019486945060209093019201611061565b50346101505760403660031901126101505760ff60406020926112406119bf565b6024358252600285528282206001600160a01b03909116825284522054604051911615158152f35b5034610150576040366003190112610150576112826119bf565b60243582526004602090815260408084206001600160a01b03841685526003810190925283205460ff1680611323575b156112de576001600160a01b039091168252600501602090815260409182902060010154915191825290f35b60405162461bcd60e51b815260206004820152601d60248201527f4576616c7561746f72206e6f74207375626d69747465642073636f72650000006044820152606490fd5b506001600160a01b038216835260048101602052604083205460ff166112b2565b503461015057602036600319011261015057600435808252600560205261137160ff604084205416611f2f565b8082528160205260018060a01b03600160408420015416331461152f5780825260046020908152604080842033855260038101928390529084205460ff166114ea5760028101908154905411156114ae57338452600360205260408420805490600160401b82101561149a5761078482869260016113f195018155611e61565b805490600160401b821015611486579061141091600182018155611e61565b81543360039290921b82811b6001600160a01b0390911b1990911617909155835260205260408220805460ff191660011790556103e842818102918183041490151715610f54576040519081527f1a53c00e06bde8e51ef080ab86b5efd98264968d07701c264f9ae606f3cb79a360203392a380f35b634e487b7160e01b85526041600452602485fd5b634e487b7160e01b86526041600452602486fd5b60405162461bcd60e51b8152602060048201526014602482015273115d985b1d585d1a5bdb881c1bdbdb08199d5b1b60621b6044820152606490fd5b60405162461bcd60e51b815260206004820152601960248201527f416c7265616479206a6f696e6564206576616c756174696f6e000000000000006044820152606490fd5b60405162461bcd60e51b815260206004820152601c60248201527f43616e6e6f74206576616c75617465206f776e20736f6c7574696f6e000000006044820152606490fd5b503461015057806003193601126101505760065461159181611da0565b6007549091906001600160a01b0316835b8281106115b75760405180610dea8682611ac5565b6115c081611e30565b90549060031b1c9081865285602052604086208287526004602052604087209260018060a01b03600183015416938860028401549560405163f55dd32b60e01b815287600482015282816024818c5afa9081156111cb5783916116a3575b506040519763e2e6825360e01b895260048901526020886024818c5afa80156111cb5760036111589761116d6111739360019c61167c98916111ad575060058301549560ff6006850154169760028b01549a549b6040519d8e611c5c565b60e08301526101008201526116918287611f1b565b5261169c8186611f1b565b50016115a2565b6116b791503d8085833e6111ea8183611c79565b3861161e565b50346101505760403660031901126101505760ff60406020926116de6119bf565b602435825260048086528383206001600160a01b0390921683520184522054604051911615158152f35b503461015057602036600319011261015057600435611725611d3f565b50600b5481101561174d5781604091610dea93528060205220600760405191610d7d83611c29565b60405162461bcd60e51b815260206004820152601660248201527514dbdb1d5d1a5bdb88191bd95cdb89dd08195e1a5cdd60521b6044820152606490fd5b50346101505760403660031901126101505760406060916117aa6119bf565b602435825260016020528282209060018060a01b0316825260205281812054815280602052206004810154906117f7600760ff600684015416920154916040519384526020840190611a22565b6040820152f35b50346101505760403660031901126101505761187a60036040610dea936118236119bf565b602435808352600260209081528484206001600160a01b03841685529052838320546118519060ff16611ba3565b825260016020528282209060018060a01b03168252602052818120548152806020522001611c9b565b6040519182916020835260208301906119fd565b5034610150576020366003190112610150576004358082526002602090815260408084203385529091528220546118c79060ff16611ba3565b815260016020908152604080832033845282528083205480845291839052822060068101805460ff1660048110156119ab57611966576103e84202914283046103e8144215171561195257600501829055805460ff191660011790556040519081527f345d4b6c73b8d56ad5e2d99d672af9008394bf64006f1ff2ef29e527b96babbb90602090a280f35b634e487b7160e01b85526011600452602485fd5b60405162461bcd60e51b815260206004820152601860248201527f536f6c7574696f6e206e6f7420696e2070726f677265737300000000000000006044820152606490fd5b634e487b7160e01b85526021600452602485fd5b600435906001600160a01b03821682036119d557565b600080fd5b60005b8381106119ed5750506000910152565b81810151838201526020016119dd565b90602091611a16815180928185528580860191016119da565b601f01601f1916010190565b906004821015611a2f5752565b634e487b7160e01b600052602160045260246000fd5b602081528151602082015260018060a01b0360208301511660408201526040820151606082015261010060e0611a8a60608501518360808601526101208501906119fd565b93608081015160a085015260a081015160c0850152611ab060c082015183860190611a22565b015191015290565b90600e821015611a2f5752565b602081016020825282518091526040820191602060408360051b8301019401926000915b838310611af857505050505090565b9091929394602080600192603f1985820301865288519081518152848060a01b0383830151168382015261010080611b68611b44604086015161012060408701526101208601906119fd565b611b5660608701516060870190611ab8565b608086015185820360808701526119fd565b9360a081015160a0850152611b8560c082015160c0860190611a22565b60e081015160e0850152015191015297019301930191939290611ae9565b15611baa57565b60405162461bcd60e51b815260206004820152601960248201527f55736572206e6f74206a6f696e6564206368616c6c656e6765000000000000006044820152606490fd5b90600182811c92168015611c1f575b6020831014611c0957565b634e487b7160e01b600052602260045260246000fd5b91607f1691611bfe565b610100810190811067ffffffffffffffff821117611c4657604052565b634e487b7160e01b600052604160045260246000fd5b610120810190811067ffffffffffffffff821117611c4657604052565b90601f8019910116810190811067ffffffffffffffff821117611c4657604052565b9060405191826000825492611caf84611bef565b8084529360018116908115611d1d5750600114611cd6575b50611cd492500383611c79565b565b90506000929192526020600020906000915b818310611d01575050906020611cd49282010138611cc7565b6020919350806001915483858901015201910190918492611ce8565b905060209250611cd494915060ff191682840152151560051b82010138611cc7565b60405190611d4c82611c29565b600060e0838281528260208201528260408201526060808201528260808201528260a08201528260c08201520152565b6004821015611a2f5752565b67ffffffffffffffff8111611c465760051b60200190565b90611daa82611d88565b611db76040519182611c79565b8281528092611dc8601f1991611d88565b019060005b828110611dd957505050565b602090604051611de881611c5c565b60008152600083820152606060408201526000606082015260606080820152600060a0820152600060c0820152600060e0820152600061010082015282828501015201611dcd565b600654811015611e4b57600660005260206000200190600090565b634e487b7160e01b600052603260045260246000fd5b8054821015611e4b5760005260206000200190600090565b67ffffffffffffffff8111611c4657601f01601f191660200190565b6020818303126119d55780519067ffffffffffffffff82116119d5570181601f820112156119d5578051611ec881611e79565b92611ed66040519485611c79565b818452602082840101116119d557611ef491602080850191016119da565b90565b908160209103126119d55751600e8110156119d55790565b600e821015611a2f5752565b8051821015611e4b5760209160051b010190565b15611f3657565b60405162461bcd60e51b815260206004820152601960248201527f536f6c7574696f6e206e6f7420756e64657220726576696577000000000000006044820152606490fd5b15611f8257565b60405162461bcd60e51b815260206004820152600f60248201526e496e76616c6964206164647265737360881b6044820152606490fd5b6000198114611fc85760010190565b634e487b7160e01b600052601160045260246000fd5b91908201809211611fc85756fea26469706673582212203d9e41ccaf9319213c39a22998baa32b430e8291c243f7d6006912fef5a6ce9264736f6c634300081c0033",
  "linkReferences": {},
  "deployedLinkReferences": {}
}