{
  "_format": "hh-sol-artifact-1",
  "contractName": "SolutionManager",
  "sourceName": "contracts/SolutionManager.sol",
  "abi": [
    {
      "anonymous": false,
      "inputs": [
        {
          "indexed": true,
          "internalType": "address",
          "name": "user_address",
          "type": "address"
        },
        {
          "indexed": true,
          "internalType": "uint256",
          "name": "challenge_id",
          "type": "uint256"
        },
        {
          "indexed": false,
          "internalType": "string",
          "name": "solution_base_txid",
          "type": "string"
        },
        {
          "indexed": false,
          "internalType": "uint256",
          "name": "created_at",
          "type": "uint256"
        }
      ],
      "name": "SolutionBaseCreated",
      "type": "event"
    },
    {
      "anonymous": false,
      "inputs": [
        {
          "indexed": true,
          "internalType": "uint256",
          "name": "solution_id",
          "type": "uint256"
        },
        {
          "indexed": false,
          "internalType": "uint256",
          "name": "score",
          "type": "uint256"
        },
        {
          "indexed": false,
          "internalType": "uint256",
          "name": "finalized_at",
          "type": "uint256"
        }
      ],
      "name": "SolutionEvaluationFinalized",
      "type": "event"
    },
    {
      "anonymous": false,
      "inputs": [
        {
          "indexed": true,
          "internalType": "address",
          "name": "evaluator",
          "type": "address"
        },
        {
          "indexed": true,
          "internalType": "uint256",
          "name": "solution_id",
          "type": "uint256"
        },
        {
          "indexed": false,
          "internalType": "uint256",
          "name": "joined_at",
          "type": "uint256"
        }
      ],
      "name": "SolutionJoinedByEvaluator",
      "type": "event"
    },
    {
      "anonymous": false,
      "inputs": [
        {
          "indexed": true,
          "internalType": "uint256",
          "name": "solution_id",
          "type": "uint256"
        },
        {
          "indexed": false,
          "internalType": "uint256",
          "name": "initialized_at",
          "type": "uint256"
        }
      ],
      "name": "SolutionPoolInitialized",
      "type": "event"
    },
    {
      "anonymous": false,
      "inputs": [
        {
          "indexed": true,
          "internalType": "address",
          "name": "evaluator",
          "type": "address"
        },
        {
          "indexed": true,
          "internalType": "uint256",
          "name": "solution_id",
          "type": "uint256"
        },
        {
          "indexed": false,
          "internalType": "uint256",
          "name": "score",
          "type": "uint256"
        },
        {
          "indexed": false,
          "internalType": "uint256",
          "name": "submitted_at",
          "type": "uint256"
        }
      ],
      "name": "SolutionScoreSubmittedByEvaluator",
      "type": "event"
    },
    {
      "anonymous": false,
      "inputs": [
        {
          "indexed": true,
          "internalType": "uint256",
          "name": "solution_id",
          "type": "uint256"
        },
        {
          "indexed": false,
          "internalType": "uint256",
          "name": "submitted_at",
          "type": "uint256"
        }
      ],
      "name": "SolutionSubmitted",
      "type": "event"
    },
    {
      "inputs": [
        {
          "internalType": "address",
          "name": "_evaluator_address",
          "type": "address"
        },
        {
          "internalType": "uint256",
          "name": "_solution_id",
          "type": "uint256"
        }
      ],
      "name": "checkEvaluatorJoinedSolution",
      "outputs": [
        {
          "internalType": "bool",
          "name": "",
          "type": "bool"
        }
      ],
      "stateMutability": "view",
      "type": "function"
    },
    {
      "inputs": [
        {
          "internalType": "address",
          "name": "_evaluator_address",
          "type": "address"
        },
        {
          "internalType": "uint256",
          "name": "_solution_id",
          "type": "uint256"
        }
      ],
      "name": "checkEvalutorSubmittedScore",
      "outputs": [
        {
          "internalType": "bool",
          "name": "",
          "type": "bool"
        }
      ],
      "stateMutability": "view",
      "type": "function"
    },
    {
      "inputs": [
        {
          "internalType": "address",
          "name": "_user_address",
          "type": "address"
        },
        {
          "internalType": "uint256",
          "name": "_challenge_id",
          "type": "uint256"
        }
      ],
      "name": "checkUserJoinedChallenge",
      "outputs": [
        {
          "internalType": "bool",
          "name": "",
          "type": "bool"
        }
      ],
      "stateMutability": "view",
      "type": "function"
    },
    {
      "inputs": [
        {
          "internalType": "address",
          "name": "_user_address",
          "type": "address"
        },
        {
          "internalType": "uint256",
          "name": "_challenge_id",
          "type": "uint256"
        },
        {
          "internalType": "string",
          "name": "_solution_base_txid",
          "type": "string"
        },
        {
          "internalType": "uint256",
          "name": "_created_at",
          "type": "uint256"
        }
      ],
      "name": "createSolutionBase",
      "outputs": [],
      "stateMutability": "nonpayable",
      "type": "function"
    },
    {
      "inputs": [
        {
          "internalType": "uint256",
          "name": "_solution_id",
          "type": "uint256"
        }
      ],
      "name": "evaluatorJoinSolution",
      "outputs": [],
      "stateMutability": "nonpayable",
      "type": "function"
    },
    {
      "inputs": [
        {
          "internalType": "uint256",
          "name": "_solution_id",
          "type": "uint256"
        },
        {
          "internalType": "uint256",
          "name": "_score",
          "type": "uint256"
        }
      ],
      "name": "evaluatorSubmitScore",
      "outputs": [],
      "stateMutability": "nonpayable",
      "type": "function"
    },
    {
      "inputs": [
        {
          "internalType": "uint256",
          "name": "_solution_id",
          "type": "uint256"
        }
      ],
      "name": "getMaxEvaluatorsForSolution",
      "outputs": [
        {
          "internalType": "uint256",
          "name": "",
          "type": "uint256"
        }
      ],
      "stateMutability": "view",
      "type": "function"
    },
    {
      "inputs": [
        {
          "internalType": "uint256",
          "name": "_solution_id",
          "type": "uint256"
        }
      ],
      "name": "getNumberOfJoinedEvaluators",
      "outputs": [
        {
          "internalType": "uint256",
          "name": "",
          "type": "uint256"
        }
      ],
      "stateMutability": "view",
      "type": "function"
    },
    {
      "inputs": [
        {
          "internalType": "uint256",
          "name": "_solution_id",
          "type": "uint256"
        }
      ],
      "name": "getNumberOfSubmittedEvaluations",
      "outputs": [
        {
          "internalType": "uint256",
          "name": "",
          "type": "uint256"
        }
      ],
      "stateMutability": "view",
      "type": "function"
    },
    {
      "inputs": [
        {
          "internalType": "address",
          "name": "_evaluator_address",
          "type": "address"
        },
        {
          "internalType": "uint256",
          "name": "_solution_id",
          "type": "uint256"
        }
      ],
      "name": "getScoreSubmittedByEvaluator",
      "outputs": [
        {
          "internalType": "uint256",
          "name": "",
          "type": "uint256"
        }
      ],
      "stateMutability": "view",
      "type": "function"
    },
    {
      "inputs": [
        {
          "internalType": "address",
          "name": "_evaluator_address",
          "type": "address"
        }
      ],
      "name": "getSolutionByEvaluator",
      "outputs": [
        {
          "components": [
            {
              "internalType": "uint256",
              "name": "id",
              "type": "uint256"
            },
            {
              "internalType": "address",
              "name": "submitter",
              "type": "address"
            },
            {
              "internalType": "string",
              "name": "challenge_title_url",
              "type": "string"
            },
            {
              "internalType": "enum SystemEnums.Domain",
              "name": "domain",
              "type": "uint8"
            },
            {
              "internalType": "string",
              "name": "solution_txid",
              "type": "string"
            },
            {
              "internalType": "uint256",
              "name": "submitted_at",
              "type": "uint256"
            },
            {
              "internalType": "enum SystemEnums.SolutionProgress",
              "name": "progress",
              "type": "uint8"
            },
            {
              "internalType": "uint256",
              "name": "number_of_joined_evaluators",
              "type": "uint256"
            },
            {
              "internalType": "uint256",
              "name": "total_evaluators",
              "type": "uint256"
            }
          ],
          "internalType": "struct SolutionManager.UnderReviewSolutionPreview[]",
          "name": "",
          "type": "tuple[]"
        }
      ],
      "stateMutability": "view",
      "type": "function"
    },
    {
      "inputs": [
        {
          "internalType": "uint256",
          "name": "_solution_id",
          "type": "uint256"
        }
      ],
      "name": "getSolutionById",
      "outputs": [
        {
          "components": [
            {
              "internalType": "uint256",
              "name": "id",
              "type": "uint256"
            },
            {
              "internalType": "address",
              "name": "user",
              "type": "address"
            },
            {
              "internalType": "uint256",
              "name": "challenge_id",
              "type": "uint256"
            },
            {
              "internalType": "string",
              "name": "solution_txid",
              "type": "string"
            },
            {
              "internalType": "uint256",
              "name": "created_at",
              "type": "uint256"
            },
            {
              "internalType": "uint256",
              "name": "submitted_at",
              "type": "uint256"
            },
            {
              "internalType": "enum SystemEnums.SolutionProgress",
              "name": "progress",
              "type": "uint8"
            },
            {
              "internalType": "uint256",
              "name": "score",
              "type": "uint256"
            }
          ],
          "internalType": "struct SolutionManager.Solution",
          "name": "",
          "type": "tuple"
        }
      ],
      "stateMutability": "view",
      "type": "function"
    },
    {
      "inputs": [
        {
          "internalType": "address",
          "name": "_user_address",
          "type": "address"
        },
        {
          "internalType": "uint256",
          "name": "_challenge_id",
          "type": "uint256"
        }
      ],
      "name": "getSolutionByUserAndChallengeId",
      "outputs": [
        {
          "components": [
            {
              "internalType": "uint256",
              "name": "id",
              "type": "uint256"
            },
            {
              "internalType": "address",
              "name": "user",
              "type": "address"
            },
            {
              "internalType": "uint256",
              "name": "challenge_id",
              "type": "uint256"
            },
            {
              "internalType": "string",
              "name": "solution_txid",
              "type": "string"
            },
            {
              "internalType": "uint256",
              "name": "created_at",
              "type": "uint256"
            },
            {
              "internalType": "uint256",
              "name": "submitted_at",
              "type": "uint256"
            },
            {
              "internalType": "enum SystemEnums.SolutionProgress",
              "name": "progress",
              "type": "uint8"
            },
            {
              "internalType": "uint256",
              "name": "score",
              "type": "uint256"
            }
          ],
          "internalType": "struct SolutionManager.Solution",
          "name": "",
          "type": "tuple"
        }
      ],
      "stateMutability": "view",
      "type": "function"
    },
    {
      "inputs": [
        {
          "internalType": "address",
          "name": "_user_address",
          "type": "address"
        },
        {
          "internalType": "uint256",
          "name": "_challenge_id",
          "type": "uint256"
        }
      ],
      "name": "getSolutionPreviewByUserAndChallengeId",
      "outputs": [
        {
          "internalType": "uint256",
          "name": "created_at",
          "type": "uint256"
        },
        {
          "internalType": "enum SystemEnums.SolutionProgress",
          "name": "progress",
          "type": "uint8"
        },
        {
          "internalType": "uint256",
          "name": "score",
          "type": "uint256"
        }
      ],
      "stateMutability": "view",
      "type": "function"
    },
    {
      "inputs": [
        {
          "internalType": "address",
          "name": "_user_address",
          "type": "address"
        },
        {
          "internalType": "uint256",
          "name": "_challenge_id",
          "type": "uint256"
        }
      ],
      "name": "getSolutionTxId",
      "outputs": [
        {
          "internalType": "string",
          "name": "",
          "type": "string"
        }
      ],
      "stateMutability": "view",
      "type": "function"
    },
    {
      "inputs": [
        {
          "internalType": "uint256",
          "name": "_solution_id",
          "type": "uint256"
        }
      ],
      "name": "getTimestampEvaluationCompleted",
      "outputs": [
        {
          "internalType": "uint256",
          "name": "",
          "type": "uint256"
        }
      ],
      "stateMutability": "view",
      "type": "function"
    },
    {
      "inputs": [
        {
          "internalType": "address",
          "name": "_evaluator_address",
          "type": "address"
        },
        {
          "internalType": "uint256",
          "name": "_solution_id",
          "type": "uint256"
        }
      ],
      "name": "getTimestampScoreSubmittedByEvaluator",
      "outputs": [
        {
          "internalType": "uint256",
          "name": "",
          "type": "uint256"
        }
      ],
      "stateMutability": "view",
      "type": "function"
    },
    {
      "inputs": [],
      "name": "getUnderReviewSolutionPreview",
      "outputs": [
        {
          "components": [
            {
              "internalType": "uint256",
              "name": "id",
              "type": "uint256"
            },
            {
              "internalType": "address",
              "name": "submitter",
              "type": "address"
            },
            {
              "internalType": "string",
              "name": "challenge_title_url",
              "type": "string"
            },
            {
              "internalType": "enum SystemEnums.Domain",
              "name": "domain",
              "type": "uint8"
            },
            {
              "internalType": "string",
              "name": "solution_txid",
              "type": "string"
            },
            {
              "internalType": "uint256",
              "name": "submitted_at",
              "type": "uint256"
            },
            {
              "internalType": "enum SystemEnums.SolutionProgress",
              "name": "progress",
              "type": "uint8"
            },
            {
              "internalType": "uint256",
              "name": "number_of_joined_evaluators",
              "type": "uint256"
            },
            {
              "internalType": "uint256",
              "name": "total_evaluators",
              "type": "uint256"
            }
          ],
          "internalType": "struct SolutionManager.UnderReviewSolutionPreview[]",
          "name": "",
          "type": "tuple[]"
        }
      ],
      "stateMutability": "view",
      "type": "function"
    },
    {
      "inputs": [
        {
          "internalType": "uint256",
          "name": "_challenge_id",
          "type": "uint256"
        }
      ],
      "name": "putSolutionUnderReview",
      "outputs": [],
      "stateMutability": "nonpayable",
      "type": "function"
    },
    {
      "inputs": [
        {
          "internalType": "address",
          "name": "_address",
          "type": "address"
        }
      ],
      "name": "setChallengeManagerAddress",
      "outputs": [],
      "stateMutability": "nonpayable",
      "type": "function"
    },
    {
      "inputs": [
        {
          "internalType": "address",
          "name": "_address",
          "type": "address"
        }
      ],
      "name": "setReputationManagerAddress",
      "outputs": [],
      "stateMutability": "nonpayable",
      "type": "function"
    },
    {
      "inputs": [
        {
          "internalType": "uint256",
          "name": "_challenge_id",
          "type": "uint256"
        }
      ],
      "name": "submitSolution",
      "outputs": [],
      "stateMutability": "nonpayable",
      "type": "function"
    }
  ],
  "bytecode": "0x60808060405234601a576000600b5561218490816100208239f35b600080fdfe6080604052600436101561001257600080fd5b6000803560e01c80630bf94512146119a55780631346c95c14611915578063419fd69e146118a257806347f1640c1461181f57806354d659211461176a578063603323851461171f57806379be3c4c146115d65780637e1366a7146113a65780637e427fae1461131a578063846900cf146112d15780639606e630146110cc5780639d4144df14611080578063af5b087314610ef7578063b42421d114610e65578063bb96dd3814610e38578063bf22309d14610e0e578063c195433414610d14578063c361e8cf14610cbc578063d033088114610514578063d82ff2e914610196578063e1ce7f4f146101695763ee01d8e61461010f57600080fd5b34610166576020366003190112610166576001600160a01b03610130611ad6565b1661013c8115156120de565b806001600160601b0360a01b60085416176008556001600160601b0360a01b600754161760075580f35b80fd5b50346101665760203660031901126101665760026040602092600435815260048452200154604051908152f35b5034610166576080366003190112610166576101b0611ad6565b60443567ffffffffffffffff811161051057366023820112156105105767ffffffffffffffff8160040135116105105736602482600401358301011161051057600b546101fc8161211c565b600b556040519061020c82611d40565b8082526001600160a01b0384166020830190815260243560408401908152926102386004860135611f90565b6102456040519182611d90565b6004860135808252600095906024880160208401376004870135820160209081018a905260608401928352606435608085015260a084018a905260c084018a905260e084018a9052858a52899052604089208351815593516001850180546001600160a01b0319166001600160a01b03929092169190911790555160028401555180519067ffffffffffffffff82116104fc5781906102e76003860154611d06565b601f81116104ac575b50602090601f8311600114610443578a92610438575b50508160011b916000199060031b1c19161760038301555b6080810151600483015560a081015160058301556006820160c08201516004811015610424578594939260079260e0926040985060ff8019835416911617905501519101556024358652600160205282862060018060a01b0386168352602052828220556024358552600260205281852060018060a01b038516825260205220600160ff198254161790557f3e16aed6ce2e15a2439e36880dec86acc56d4004624545f0f4121f1624804f966040516040815282600401356040820152826004013560248401606083013760049092013582810160609081018690526064356020850152602435946001600160a01b031693601f909201601f191682018290030190a380f35b634e487b7160e01b89526021600452602489fd5b015190503880610306565b600386018b52818b209250601f1984168b5b818110610494575090846001959493921061047b575b505050811b01600383015561031e565b015160001960f88460031b161c1916905538808061046b565b92936020600181928786015181550195019301610455565b909150600385018a5260208a20601f840160051c8101602085106104f5575b90849392915b601f830160051c820181106104e75750506102f0565b8c81558594506001016104d1565b50806104cb565b634e487b7160e01b89526041600452602489fd5b8280fd5b503461016657604036600319011261016657600435602435818352600560205261054460ff604085205416612046565b8183526004602090815260408085203386526003810190925284205490919060ff1615610c7f57338452600482016020819052604085205490929060ff16610c3a576103e84202924284046103e81442151715610c26576040516060810181811067ffffffffffffffff821117610c12576040908152338083526020808401878152848401898152838c52600588018352848c20955186546001600160a01b0319166001600160a01b0391909116178655905160018681019190915590516002959095019490945590895292909252908620805460ff19168217905581018054909285916106319061211c565b8094556040519081528460208201527f148023844b157f8e751820371d187fe4211e0710d53a604eca5840dcfa0ff43160403392a35414610670578280f35b9091828152600560205261068a60ff604083205416612046565b82815280602052604081209280825260046020526040822060018060a01b036007541660028601916020835460246040518095819363e2e6825360e01b835260048301525afa9182156109f8578592610be1575b508492859460028301928354968896600583019760018060a01b03600954165b8a8210610ae45750508115610ad0576007959493928c8c93600693049788910155818d01600360ff19825416179055015580885260056020526040882060ff198154169055875b60065480821015610a9d578261075a83611f47565b90549060031b1c1461076f5750600101610745565b60009a92939495969798999a198101908111610a8957906107a26107956107bb93611f47565b90549060031b1c91611f47565b90919082549060031b91821b91600019901b1916179055565b6006548015610a75577f8bee63f0a9f0ea07cbdc4a0a5447e6a74fe06d3717fad513f8f9ebd9b985c19891604091600019016107f681611f47565b8154906000199060031b1b191690556006555b8151908782526020820152a260018060a01b03600754168154813b15610a715788916024839260405194859384926319e74b6f60e11b845260048401525af18015610a5257610a5d575b5060095460019890980154600754915460405163024e6e0560e21b815260048101919091526001600160a01b03998a169991821692909160209183916024918391165afa908115610a52578891610a17575b50883b156109db5760405191630f61997560e21b835260048301526108cd6024830186611bcf565b836044830152601e6064830152600a60848301526003811015610a0357968160c48183809c819a9b9c60a48401525af19081156109f85785916109df575b505b86811061091d5750505050508280f35b6109278183611f78565b90546001600160a01b0360039290921b1c81166000818152602089905260409020600954600190910154921691823b156109db5760c4889283604051958694859363f28cdc1360e01b85526004850152610984602485018d611bcf565b8a60448501526064840152603c6084840152600a60a48401525af19081156109d05786916109b7575b505060010161090d565b816109c191611d90565b6109cc5784386109ad565b8480fd5b6040513d88823e3d90fd5b8780fd5b816109e991611d90565b6109f457833861090b565b8380fd5b6040513d87823e3d90fd5b634e487b7160e01b88526021600452602488fd5b90506020813d602011610a4a575b81610a3260209383611d90565b810103126109db575160038110156109db57386108a5565b3d9150610a25565b6040513d8a823e3d90fd5b87610a6a91989298611d90565b9538610853565b8880fd5b634e487b7160e01b8a52603160045260248afd5b634e487b7160e01b8b52601160045260248bfd5b5050909192939495969760407f8bee63f0a9f0ea07cbdc4a0a5447e6a74fe06d3717fad513f8f9ebd9b985c19891610809565b634e487b7160e01b8a52601260045260248afd5b909291610af18489611f78565b905460039190911b1c6001600160a01b0316808d5260208b90526040808e209051630cf571c160e11b815260048101929092529190610b33602482018c611bcf565b602081604481875afa908115610bd4578e91610b9f575b506001019182600111610b8b57600101549082820291808304841490151715610b8b5791610b7d610b8392600194612141565b94612141565b9301906106fe565b634e487b7160e01b8e52601160045260248efd5b90506020813d8211610bcc575b81610bb960209383611d90565b81010312610bc8575138610b4a565b8d80fd5b3d9150610bac565b8e604051903d90823e3d90fd5b610c0491925060203d602011610c0b575b610bfc8183611d90565b81019061200e565b90386106de565b503d610bf2565b634e487b7160e01b88526041600452602488fd5b634e487b7160e01b86526011600452602486fd5b60405162461bcd60e51b815260206004820152601760248201527f416c7265616479207375626d69747465642073636f72650000000000000000006044820152606490fd5b60405162461bcd60e51b81526020600482015260156024820152742737ba103537b4b732b21032bb30b63ab0ba34b7b760591b6044820152606490fd5b5034610166576020366003190112610166576001600160a01b03610cde611ad6565b16610cea8115156120de565b806001600160601b0360a01b600a541617600a556001600160601b0360a01b600954161760095580f35b5034610166576040366003190112610166576040610e0a91610d34611ad6565b602435610d3f611e56565b50808352600260209081528484206001600160a01b0384168552905283832054610d6b9060ff16611cba565b825260016020528282209060018060a01b031682526020528181205481528060205220600760405191610d9d83611d40565b8054835260018101546001600160a01b0316602084015260028101546040840152610dca60038201611db2565b606084015260048101546080840152600581015460a0840152610df760ff60068301541660c08501611e93565b015460e082015260405191829182611b5c565b0390f35b50346101665760203660031901126101665760406020916004358152600483522054604051908152f35b50346101665760203660031901126101665760016040602092600435815260048452200154604051908152f35b503461016657604036600319011261016657600260406020926005610e88611ad6565b6024358352600486528383206001600160a01b03821684526003810187528484205490919060ff1680610ed8575b610ebf90612092565b6001600160a01b03168352018452200154604051908152f35b506001600160a01b03811684526004820187528484205460ff16610eb6565b503461016657602036600319011261016657600435808252600260209081526040808420338552909152822054610f309060ff16611cba565b8152600160209081526040808320338452825280832054808452918390528220600601805460ff16600481101561106c5760010361102e57600260ff19825416179055808252600460205281600160408220600381550155808252600560205260408220600160ff19825416179055600654600160401b81101561101a57816107a2826001610fc494016006556006611f78565b6103e842024281046103e814421517156110065760207f5d3f96fa44923951be188e5f845549999c2ab981c3ea34e0274943af92fc274491604051908152a280f35b634e487b7160e01b83526011600452602483fd5b634e487b7160e01b83526041600452602483fd5b60405162461bcd60e51b815260206004820152601660248201527514dbdb1d5d1a5bdb881b9bdd081cdd589b5a5d1d195960521b6044820152606490fd5b634e487b7160e01b84526021600452602484fd5b50346101665760403660031901126101665760ff60406020926110a1611ad6565b6024358252600485528282206001600160a01b03909116825260030184522054604051911615158152f35b5034610166576020366003190112610166576001600160a01b036110ee611ad6565b1681526003602052604081206040518082602082945493848152019085526020852092855b8181106112b857505061112892500382611d90565b6111328151611eb7565b6007546001600160a01b0316835b83518110156112aa576111538185612032565b519081865285602052604086208287526004602052604087209260018060a01b03600183015416938860028401549560405163f55dd32b60e01b815287600482015282816024818c5afa90811561127d578391611288575b506040519763e2e6825360e01b895260048901526020886024818c5afa801561127d57600361120a9761121f6112259360019c611238989161125f575b5060058301549560ff6006850154169760028b01549a549b6040519d8e611d73565b8d5260208d015260408c015260608b01612026565b01611db2565b608087015260a086015260c08501611e93565b60e083015261010082015261124d8286612032565b526112588185612032565b5001611140565b611277915060203d8111610c0b57610bfc8183611d90565b386111e8565b6040513d85823e3d90fd5b6112a491503d8085833e61129c8183611d90565b810190611fac565b386111ab565b60405180610e0a8582611bdc565b8454835260019485019486945060209093019201611113565b50346101665760403660031901126101665760ff60406020926112f2611ad6565b6024358252600285528282206001600160a01b03909116825284522054604051911615158152f35b50346101665760403660031901126101665760016040602092600561133d611ad6565b60243583526004865283832090858060a01b038116845260038201875260ff858520541680611387575b61137090612092565b858060a01b03168352018452200154604051908152f35b5060a086901b869003811684526004820187528484205460ff16611367565b50346101665760203660031901126101665760043580825260056020526113d360ff604084205416612046565b8082528160205260018060a01b0360016040842001541633146115915780825260046020908152604080842033855260038101928390529084205460ff1661154c57600281019081549054111561151057338452600360205260408420805490600160401b8210156114fc576107a2828692600161145395018155611f78565b805490600160401b8210156114e8579061147291600182018155611f78565b81543360039290921b82811b6001600160a01b0390911b1990911617909155835260205260408220805460ff191660011790556103e842818102918183041490151715611006576040519081527f1a53c00e06bde8e51ef080ab86b5efd98264968d07701c264f9ae606f3cb79a360203392a380f35b634e487b7160e01b85526041600452602485fd5b634e487b7160e01b86526041600452602486fd5b60405162461bcd60e51b8152602060048201526014602482015273115d985b1d585d1a5bdb881c1bdbdb08199d5b1b60621b6044820152606490fd5b60405162461bcd60e51b815260206004820152601960248201527f416c7265616479206a6f696e6564206576616c756174696f6e000000000000006044820152606490fd5b60405162461bcd60e51b815260206004820152601c60248201527f43616e6e6f74206576616c75617465206f776e20736f6c7574696f6e000000006044820152606490fd5b50346101665780600319360112610166576006546115f381611eb7565b6007549091906001600160a01b0316835b8281106116195760405180610e0a8682611bdc565b61162281611f47565b90549060031b1c9081865285602052604086208287526004602052604087209260018060a01b03600183015416938860028401549560405163f55dd32b60e01b815287600482015282816024818c5afa90811561127d578391611705575b506040519763e2e6825360e01b895260048901526020886024818c5afa801561127d57600361120a9761121f6112259360019c6116de989161125f575060058301549560ff6006850154169760028b01549a549b6040519d8e611d73565b60e08301526101008201526116f38287612032565b526116fe8186612032565b5001611604565b61171991503d8085833e61129c8183611d90565b38611680565b50346101665760403660031901126101665760ff6040602092611740611ad6565b602435825260048086528383206001600160a01b0390921683520184522054604051911615158152f35b503461016657602036600319011261016657600435908181528060205260ff600660408320015416600481101561180b576003036117bb576040816020936006935260048452200154604051908152f35b60405162461bcd60e51b815260206004820152602260248201527f536f6c7574696f6e206861736e2774206265656e206576616c75617465642079604482015261195d60f21b6064820152608490fd5b634e487b7160e01b82526021600452602482fd5b50346101665760203660031901126101665760043561183c611e56565b50600b548110156118645781604091610e0a93528060205220600760405191610d9d83611d40565b60405162461bcd60e51b815260206004820152601660248201527514dbdb1d5d1a5bdb88191bd95cdb89dd08195e1a5cdd60521b6044820152606490fd5b50346101665760403660031901126101665760406060916118c1611ad6565b602435825260016020528282209060018060a01b03168252602052818120548152806020522060048101549061190e600760ff600684015416920154916040519384526020840190611b39565b6040820152f35b50346101665760403660031901126101665761199160036040610e0a9361193a611ad6565b602435808352600260209081528484206001600160a01b03841685529052838320546119689060ff16611cba565b825260016020528282209060018060a01b03168252602052818120548152806020522001611db2565b604051918291602083526020830190611b14565b5034610166576020366003190112610166576004358082526002602090815260408084203385529091528220546119de9060ff16611cba565b815260016020908152604080832033845282528083205480845291839052822060068101805460ff166004811015611ac257611a7d576103e84202914283046103e81442151715611a6957600501829055805460ff191660011790556040519081527f345d4b6c73b8d56ad5e2d99d672af9008394bf64006f1ff2ef29e527b96babbb90602090a280f35b634e487b7160e01b85526011600452602485fd5b60405162461bcd60e51b815260206004820152601860248201527f536f6c7574696f6e206e6f7420696e2070726f677265737300000000000000006044820152606490fd5b634e487b7160e01b85526021600452602485fd5b600435906001600160a01b0382168203611aec57565b600080fd5b60005b838110611b045750506000910152565b8181015183820152602001611af4565b90602091611b2d81518092818552858086019101611af1565b601f01601f1916010190565b906004821015611b465752565b634e487b7160e01b600052602160045260246000fd5b602081528151602082015260018060a01b0360208301511660408201526040820151606082015261010060e0611ba16060850151836080860152610120850190611b14565b93608081015160a085015260a081015160c0850152611bc760c082015183860190611b39565b015191015290565b90600e821015611b465752565b602081016020825282518091526040820191602060408360051b8301019401926000915b838310611c0f57505050505090565b9091929394602080600192603f1985820301865288519081518152848060a01b0383830151168382015261010080611c7f611c5b60408601516101206040870152610120860190611b14565b611c6d60608701516060870190611bcf565b60808601518582036080870152611b14565b9360a081015160a0850152611c9c60c082015160c0860190611b39565b60e081015160e0850152015191015297019301930191939290611c00565b15611cc157565b60405162461bcd60e51b815260206004820152601960248201527f55736572206e6f74206a6f696e6564206368616c6c656e6765000000000000006044820152606490fd5b90600182811c92168015611d36575b6020831014611d2057565b634e487b7160e01b600052602260045260246000fd5b91607f1691611d15565b610100810190811067ffffffffffffffff821117611d5d57604052565b634e487b7160e01b600052604160045260246000fd5b610120810190811067ffffffffffffffff821117611d5d57604052565b90601f8019910116810190811067ffffffffffffffff821117611d5d57604052565b9060405191826000825492611dc684611d06565b8084529360018116908115611e345750600114611ded575b50611deb92500383611d90565b565b90506000929192526020600020906000915b818310611e18575050906020611deb9282010138611dde565b6020919350806001915483858901015201910190918492611dff565b905060209250611deb94915060ff191682840152151560051b82010138611dde565b60405190611e6382611d40565b600060e0838281528260208201528260408201526060808201528260808201528260a08201528260c08201520152565b6004821015611b465752565b67ffffffffffffffff8111611d5d5760051b60200190565b90611ec182611e9f565b611ece6040519182611d90565b8281528092611edf601f1991611e9f565b019060005b828110611ef057505050565b602090604051611eff81611d73565b60008152600083820152606060408201526000606082015260606080820152600060a0820152600060c0820152600060e0820152600061010082015282828501015201611ee4565b600654811015611f6257600660005260206000200190600090565b634e487b7160e01b600052603260045260246000fd5b8054821015611f625760005260206000200190600090565b67ffffffffffffffff8111611d5d57601f01601f191660200190565b602081830312611aec5780519067ffffffffffffffff8211611aec570181601f82011215611aec578051611fdf81611f90565b92611fed6040519485611d90565b81845260208284010111611aec5761200b9160208085019101611af1565b90565b90816020910312611aec5751600e811015611aec5790565b600e821015611b465752565b8051821015611f625760209160051b010190565b1561204d57565b60405162461bcd60e51b815260206004820152601960248201527f536f6c7574696f6e206e6f7420756e64657220726576696577000000000000006044820152606490fd5b1561209957565b60405162461bcd60e51b815260206004820152601d60248201527f4576616c7561746f72206e6f74207375626d69747465642073636f72650000006044820152606490fd5b156120e557565b60405162461bcd60e51b815260206004820152600f60248201526e496e76616c6964206164647265737360881b6044820152606490fd5b600019811461212b5760010190565b634e487b7160e01b600052601160045260246000fd5b9190820180921161212b5756fea2646970667358221220bd0d246f582cc46041cb7e881f9509417b4edd1cce4f615b65aa1932bbdbb45a64736f6c634300081c0033",
  "linkReferences": {},
  "deployedLinkReferences": {}
}