{
  "_format": "hh-sol-artifact-1",
  "contractName": "SolutionManager",
  "sourceName": "contracts/SolutionManager.sol",
  "abi": [
    {
      "inputs": [],
      "stateMutability": "nonpayable",
      "type": "constructor"
    },
    {
      "inputs": [],
      "name": "AccessControlBadConfirmation",
      "type": "error"
    },
    {
      "inputs": [
        {
          "internalType": "address",
          "name": "account",
          "type": "address"
        },
        {
          "internalType": "bytes32",
          "name": "neededRole",
          "type": "bytes32"
        }
      ],
      "name": "AccessControlUnauthorizedAccount",
      "type": "error"
    },
    {
      "anonymous": false,
      "inputs": [
        {
          "indexed": true,
          "internalType": "bytes32",
          "name": "role",
          "type": "bytes32"
        },
        {
          "indexed": true,
          "internalType": "bytes32",
          "name": "previousAdminRole",
          "type": "bytes32"
        },
        {
          "indexed": true,
          "internalType": "bytes32",
          "name": "newAdminRole",
          "type": "bytes32"
        }
      ],
      "name": "RoleAdminChanged",
      "type": "event"
    },
    {
      "anonymous": false,
      "inputs": [
        {
          "indexed": true,
          "internalType": "bytes32",
          "name": "role",
          "type": "bytes32"
        },
        {
          "indexed": true,
          "internalType": "address",
          "name": "account",
          "type": "address"
        },
        {
          "indexed": true,
          "internalType": "address",
          "name": "sender",
          "type": "address"
        }
      ],
      "name": "RoleGranted",
      "type": "event"
    },
    {
      "anonymous": false,
      "inputs": [
        {
          "indexed": true,
          "internalType": "bytes32",
          "name": "role",
          "type": "bytes32"
        },
        {
          "indexed": true,
          "internalType": "address",
          "name": "account",
          "type": "address"
        },
        {
          "indexed": true,
          "internalType": "address",
          "name": "sender",
          "type": "address"
        }
      ],
      "name": "RoleRevoked",
      "type": "event"
    },
    {
      "anonymous": false,
      "inputs": [
        {
          "indexed": true,
          "internalType": "address",
          "name": "user_address",
          "type": "address"
        },
        {
          "indexed": true,
          "internalType": "bytes32",
          "name": "challenge_id",
          "type": "bytes32"
        },
        {
          "indexed": false,
          "internalType": "string",
          "name": "solution_base_txid",
          "type": "string"
        },
        {
          "indexed": false,
          "internalType": "uint256",
          "name": "created_at",
          "type": "uint256"
        }
      ],
      "name": "SolutionBaseCreated",
      "type": "event"
    },
    {
      "anonymous": false,
      "inputs": [
        {
          "indexed": true,
          "internalType": "bytes32",
          "name": "solution_id",
          "type": "bytes32"
        },
        {
          "indexed": false,
          "internalType": "uint256",
          "name": "score",
          "type": "uint256"
        },
        {
          "indexed": false,
          "internalType": "uint256",
          "name": "finalized_at",
          "type": "uint256"
        }
      ],
      "name": "SolutionEvaluationFinalized",
      "type": "event"
    },
    {
      "anonymous": false,
      "inputs": [
        {
          "indexed": true,
          "internalType": "address",
          "name": "evaluator",
          "type": "address"
        },
        {
          "indexed": true,
          "internalType": "bytes32",
          "name": "solution_id",
          "type": "bytes32"
        },
        {
          "indexed": false,
          "internalType": "uint256",
          "name": "joined_at",
          "type": "uint256"
        }
      ],
      "name": "SolutionJoinedByEvaluator",
      "type": "event"
    },
    {
      "anonymous": false,
      "inputs": [
        {
          "indexed": true,
          "internalType": "bytes32",
          "name": "solution_id",
          "type": "bytes32"
        },
        {
          "indexed": false,
          "internalType": "uint256",
          "name": "initialized_at",
          "type": "uint256"
        }
      ],
      "name": "SolutionPoolInitialized",
      "type": "event"
    },
    {
      "anonymous": false,
      "inputs": [
        {
          "indexed": true,
          "internalType": "address",
          "name": "evaluator",
          "type": "address"
        },
        {
          "indexed": true,
          "internalType": "bytes32",
          "name": "solution_id",
          "type": "bytes32"
        },
        {
          "indexed": false,
          "internalType": "uint256",
          "name": "score",
          "type": "uint256"
        },
        {
          "indexed": false,
          "internalType": "uint256",
          "name": "submitted_at",
          "type": "uint256"
        }
      ],
      "name": "SolutionScoreSubmittedByEvaluator",
      "type": "event"
    },
    {
      "anonymous": false,
      "inputs": [
        {
          "indexed": true,
          "internalType": "bytes32",
          "name": "solution_id",
          "type": "bytes32"
        },
        {
          "indexed": false,
          "internalType": "uint256",
          "name": "submitted_at",
          "type": "uint256"
        }
      ],
      "name": "SolutionSubmitted",
      "type": "event"
    },
    {
      "inputs": [],
      "name": "DEFAULT_ADMIN_ROLE",
      "outputs": [
        {
          "internalType": "bytes32",
          "name": "",
          "type": "bytes32"
        }
      ],
      "stateMutability": "view",
      "type": "function"
    },
    {
      "inputs": [
        {
          "internalType": "address",
          "name": "_evaluator_address",
          "type": "address"
        },
        {
          "internalType": "bytes32",
          "name": "_solution_id",
          "type": "bytes32"
        }
      ],
      "name": "checkEvaluatorJoinedSolution",
      "outputs": [
        {
          "internalType": "bool",
          "name": "",
          "type": "bool"
        }
      ],
      "stateMutability": "view",
      "type": "function"
    },
    {
      "inputs": [
        {
          "internalType": "address",
          "name": "_evaluator_address",
          "type": "address"
        },
        {
          "internalType": "bytes32",
          "name": "_solution_id",
          "type": "bytes32"
        }
      ],
      "name": "checkEvalutorSubmittedScore",
      "outputs": [
        {
          "internalType": "bool",
          "name": "",
          "type": "bool"
        }
      ],
      "stateMutability": "view",
      "type": "function"
    },
    {
      "inputs": [
        {
          "internalType": "address",
          "name": "_user_address",
          "type": "address"
        },
        {
          "internalType": "bytes32",
          "name": "_challenge_id",
          "type": "bytes32"
        }
      ],
      "name": "checkUserJoinedChallenge",
      "outputs": [
        {
          "internalType": "bool",
          "name": "",
          "type": "bool"
        }
      ],
      "stateMutability": "view",
      "type": "function"
    },
    {
      "inputs": [
        {
          "internalType": "address",
          "name": "_user_address",
          "type": "address"
        },
        {
          "internalType": "bytes32",
          "name": "_challenge_id",
          "type": "bytes32"
        },
        {
          "internalType": "string",
          "name": "_solution_base_txid",
          "type": "string"
        },
        {
          "internalType": "uint256",
          "name": "_created_at",
          "type": "uint256"
        }
      ],
      "name": "createSolutionBase",
      "outputs": [
        {
          "internalType": "bytes32",
          "name": "id",
          "type": "bytes32"
        }
      ],
      "stateMutability": "nonpayable",
      "type": "function"
    },
    {
      "inputs": [
        {
          "internalType": "bytes32",
          "name": "_solution_id",
          "type": "bytes32"
        }
      ],
      "name": "evaluatorJoinSolution",
      "outputs": [],
      "stateMutability": "nonpayable",
      "type": "function"
    },
    {
      "inputs": [
        {
          "internalType": "bytes32",
          "name": "_solution_id",
          "type": "bytes32"
        },
        {
          "internalType": "uint256",
          "name": "_score",
          "type": "uint256"
        }
      ],
      "name": "evaluatorSubmitScore",
      "outputs": [],
      "stateMutability": "nonpayable",
      "type": "function"
    },
    {
      "inputs": [
        {
          "internalType": "address",
          "name": "_user_address",
          "type": "address"
        },
        {
          "internalType": "bytes32",
          "name": "_challenge_id",
          "type": "bytes32"
        }
      ],
      "name": "getBriefSolutionInfo",
      "outputs": [
        {
          "internalType": "enum SystemEnums.SolutionProgress",
          "name": "",
          "type": "uint8"
        },
        {
          "internalType": "uint256",
          "name": "",
          "type": "uint256"
        },
        {
          "internalType": "uint256",
          "name": "",
          "type": "uint256"
        }
      ],
      "stateMutability": "view",
      "type": "function"
    },
    {
      "inputs": [
        {
          "internalType": "address",
          "name": "_evaluator_address",
          "type": "address"
        },
        {
          "internalType": "bytes32",
          "name": "_solution_id",
          "type": "bytes32"
        }
      ],
      "name": "getEvaluationDeviation",
      "outputs": [
        {
          "internalType": "uint256",
          "name": "",
          "type": "uint256"
        }
      ],
      "stateMutability": "view",
      "type": "function"
    },
    {
      "inputs": [
        {
          "internalType": "bytes32",
          "name": "_solution_id",
          "type": "bytes32"
        }
      ],
      "name": "getMaxEvaluatorsForSolution",
      "outputs": [
        {
          "internalType": "uint256",
          "name": "",
          "type": "uint256"
        }
      ],
      "stateMutability": "view",
      "type": "function"
    },
    {
      "inputs": [
        {
          "internalType": "bytes32",
          "name": "_solution_id",
          "type": "bytes32"
        }
      ],
      "name": "getNumberOfJoinedEvaluators",
      "outputs": [
        {
          "internalType": "uint256",
          "name": "",
          "type": "uint256"
        }
      ],
      "stateMutability": "view",
      "type": "function"
    },
    {
      "inputs": [
        {
          "internalType": "bytes32",
          "name": "_solution_id",
          "type": "bytes32"
        }
      ],
      "name": "getNumberOfSubmittedEvaluations",
      "outputs": [
        {
          "internalType": "uint256",
          "name": "",
          "type": "uint256"
        }
      ],
      "stateMutability": "view",
      "type": "function"
    },
    {
      "inputs": [
        {
          "internalType": "bytes32",
          "name": "role",
          "type": "bytes32"
        }
      ],
      "name": "getRoleAdmin",
      "outputs": [
        {
          "internalType": "bytes32",
          "name": "",
          "type": "bytes32"
        }
      ],
      "stateMutability": "view",
      "type": "function"
    },
    {
      "inputs": [
        {
          "internalType": "address",
          "name": "_evaluator_address",
          "type": "address"
        },
        {
          "internalType": "bytes32",
          "name": "_solution_id",
          "type": "bytes32"
        }
      ],
      "name": "getScoreSubmittedByEvaluator",
      "outputs": [
        {
          "internalType": "uint256",
          "name": "",
          "type": "uint256"
        }
      ],
      "stateMutability": "view",
      "type": "function"
    },
    {
      "inputs": [
        {
          "internalType": "address",
          "name": "_evaluator_address",
          "type": "address"
        }
      ],
      "name": "getSolutionByEvaluator",
      "outputs": [
        {
          "components": [
            {
              "internalType": "bytes32",
              "name": "id",
              "type": "bytes32"
            },
            {
              "internalType": "address",
              "name": "user",
              "type": "address"
            },
            {
              "internalType": "bytes32",
              "name": "challenge_id",
              "type": "bytes32"
            },
            {
              "internalType": "string",
              "name": "solution_txid",
              "type": "string"
            },
            {
              "internalType": "uint256",
              "name": "created_at",
              "type": "uint256"
            },
            {
              "internalType": "uint256",
              "name": "submitted_at",
              "type": "uint256"
            },
            {
              "internalType": "enum SystemEnums.SolutionProgress",
              "name": "progress",
              "type": "uint8"
            },
            {
              "internalType": "uint256",
              "name": "score",
              "type": "uint256"
            }
          ],
          "internalType": "struct SolutionManager.Solution[]",
          "name": "",
          "type": "tuple[]"
        }
      ],
      "stateMutability": "view",
      "type": "function"
    },
    {
      "inputs": [
        {
          "internalType": "bytes32",
          "name": "_solution_id",
          "type": "bytes32"
        }
      ],
      "name": "getSolutionById",
      "outputs": [
        {
          "components": [
            {
              "internalType": "bytes32",
              "name": "id",
              "type": "bytes32"
            },
            {
              "internalType": "address",
              "name": "user",
              "type": "address"
            },
            {
              "internalType": "bytes32",
              "name": "challenge_id",
              "type": "bytes32"
            },
            {
              "internalType": "string",
              "name": "solution_txid",
              "type": "string"
            },
            {
              "internalType": "uint256",
              "name": "created_at",
              "type": "uint256"
            },
            {
              "internalType": "uint256",
              "name": "submitted_at",
              "type": "uint256"
            },
            {
              "internalType": "enum SystemEnums.SolutionProgress",
              "name": "progress",
              "type": "uint8"
            },
            {
              "internalType": "uint256",
              "name": "score",
              "type": "uint256"
            }
          ],
          "internalType": "struct SolutionManager.Solution",
          "name": "",
          "type": "tuple"
        }
      ],
      "stateMutability": "view",
      "type": "function"
    },
    {
      "inputs": [
        {
          "internalType": "address",
          "name": "_user_address",
          "type": "address"
        },
        {
          "internalType": "bytes32",
          "name": "_challenge_id",
          "type": "bytes32"
        }
      ],
      "name": "getSolutionByUserAndChallengeId",
      "outputs": [
        {
          "components": [
            {
              "internalType": "bytes32",
              "name": "id",
              "type": "bytes32"
            },
            {
              "internalType": "address",
              "name": "user",
              "type": "address"
            },
            {
              "internalType": "bytes32",
              "name": "challenge_id",
              "type": "bytes32"
            },
            {
              "internalType": "string",
              "name": "solution_txid",
              "type": "string"
            },
            {
              "internalType": "uint256",
              "name": "created_at",
              "type": "uint256"
            },
            {
              "internalType": "uint256",
              "name": "submitted_at",
              "type": "uint256"
            },
            {
              "internalType": "enum SystemEnums.SolutionProgress",
              "name": "progress",
              "type": "uint8"
            },
            {
              "internalType": "uint256",
              "name": "score",
              "type": "uint256"
            }
          ],
          "internalType": "struct SolutionManager.Solution",
          "name": "",
          "type": "tuple"
        }
      ],
      "stateMutability": "view",
      "type": "function"
    },
    {
      "inputs": [
        {
          "internalType": "bytes32",
          "name": "_solution_id",
          "type": "bytes32"
        }
      ],
      "name": "getSolutionTxIdById",
      "outputs": [
        {
          "internalType": "string",
          "name": "",
          "type": "string"
        }
      ],
      "stateMutability": "view",
      "type": "function"
    },
    {
      "inputs": [
        {
          "internalType": "address",
          "name": "_user_address",
          "type": "address"
        },
        {
          "internalType": "bytes32",
          "name": "_challenge_id",
          "type": "bytes32"
        }
      ],
      "name": "getSolutionTxIdByUserAndChallengeId",
      "outputs": [
        {
          "internalType": "string",
          "name": "",
          "type": "string"
        }
      ],
      "stateMutability": "view",
      "type": "function"
    },
    {
      "inputs": [
        {
          "internalType": "bytes32",
          "name": "_solution_id",
          "type": "bytes32"
        }
      ],
      "name": "getTimestampEvaluationCompleted",
      "outputs": [
        {
          "internalType": "uint256",
          "name": "",
          "type": "uint256"
        }
      ],
      "stateMutability": "view",
      "type": "function"
    },
    {
      "inputs": [
        {
          "internalType": "address",
          "name": "_evaluator_address",
          "type": "address"
        },
        {
          "internalType": "bytes32",
          "name": "_solution_id",
          "type": "bytes32"
        }
      ],
      "name": "getTimestampScoreSubmittedByEvaluator",
      "outputs": [
        {
          "internalType": "uint256",
          "name": "",
          "type": "uint256"
        }
      ],
      "stateMutability": "view",
      "type": "function"
    },
    {
      "inputs": [],
      "name": "getUnderReviewSolution",
      "outputs": [
        {
          "components": [
            {
              "internalType": "bytes32",
              "name": "id",
              "type": "bytes32"
            },
            {
              "internalType": "address",
              "name": "user",
              "type": "address"
            },
            {
              "internalType": "bytes32",
              "name": "challenge_id",
              "type": "bytes32"
            },
            {
              "internalType": "string",
              "name": "solution_txid",
              "type": "string"
            },
            {
              "internalType": "uint256",
              "name": "created_at",
              "type": "uint256"
            },
            {
              "internalType": "uint256",
              "name": "submitted_at",
              "type": "uint256"
            },
            {
              "internalType": "enum SystemEnums.SolutionProgress",
              "name": "progress",
              "type": "uint8"
            },
            {
              "internalType": "uint256",
              "name": "score",
              "type": "uint256"
            }
          ],
          "internalType": "struct SolutionManager.Solution[]",
          "name": "",
          "type": "tuple[]"
        }
      ],
      "stateMutability": "view",
      "type": "function"
    },
    {
      "inputs": [
        {
          "internalType": "bytes32",
          "name": "role",
          "type": "bytes32"
        },
        {
          "internalType": "address",
          "name": "account",
          "type": "address"
        }
      ],
      "name": "grantRole",
      "outputs": [],
      "stateMutability": "nonpayable",
      "type": "function"
    },
    {
      "inputs": [
        {
          "internalType": "bytes32",
          "name": "role",
          "type": "bytes32"
        },
        {
          "internalType": "address",
          "name": "account",
          "type": "address"
        }
      ],
      "name": "hasRole",
      "outputs": [
        {
          "internalType": "bool",
          "name": "",
          "type": "bool"
        }
      ],
      "stateMutability": "view",
      "type": "function"
    },
    {
      "inputs": [
        {
          "internalType": "bytes32",
          "name": "_challenge_id",
          "type": "bytes32"
        }
      ],
      "name": "putSolutionUnderReview",
      "outputs": [],
      "stateMutability": "nonpayable",
      "type": "function"
    },
    {
      "inputs": [
        {
          "internalType": "bytes32",
          "name": "role",
          "type": "bytes32"
        },
        {
          "internalType": "address",
          "name": "callerConfirmation",
          "type": "address"
        }
      ],
      "name": "renounceRole",
      "outputs": [],
      "stateMutability": "nonpayable",
      "type": "function"
    },
    {
      "inputs": [
        {
          "internalType": "bytes32",
          "name": "role",
          "type": "bytes32"
        },
        {
          "internalType": "address",
          "name": "account",
          "type": "address"
        }
      ],
      "name": "revokeRole",
      "outputs": [],
      "stateMutability": "nonpayable",
      "type": "function"
    },
    {
      "inputs": [
        {
          "internalType": "address",
          "name": "_address",
          "type": "address"
        }
      ],
      "name": "setChallengeManagerAddress",
      "outputs": [],
      "stateMutability": "nonpayable",
      "type": "function"
    },
    {
      "inputs": [
        {
          "internalType": "address",
          "name": "_address",
          "type": "address"
        }
      ],
      "name": "setReputationManagerAddress",
      "outputs": [],
      "stateMutability": "nonpayable",
      "type": "function"
    },
    {
      "inputs": [
        {
          "internalType": "address",
          "name": "_address",
          "type": "address"
        }
      ],
      "name": "setRoleManagerAddress",
      "outputs": [],
      "stateMutability": "nonpayable",
      "type": "function"
    },
    {
      "inputs": [
        {
          "internalType": "bytes32",
          "name": "_challenge_id",
          "type": "bytes32"
        }
      ],
      "name": "submitSolution",
      "outputs": [],
      "stateMutability": "nonpayable",
      "type": "function"
    },
    {
      "inputs": [
        {
          "internalType": "bytes4",
          "name": "interfaceId",
          "type": "bytes4"
        }
      ],
      "name": "supportsInterface",
      "outputs": [
        {
          "internalType": "bool",
          "name": "",
          "type": "bool"
        }
      ],
      "stateMutability": "view",
      "type": "function"
    },
    {
      "inputs": [
        {
          "internalType": "address",
          "name": "",
          "type": "address"
        },
        {
          "internalType": "bytes32",
          "name": "",
          "type": "bytes32"
        }
      ],
      "name": "user_challenge_to_solution",
      "outputs": [
        {
          "internalType": "bytes32",
          "name": "",
          "type": "bytes32"
        }
      ],
      "stateMutability": "view",
      "type": "function"
    }
  ],
  "bytecode": "0x6080604052346024576000600e556014336029565b506040516126b890816100b78239f35b600080fd5b6001600160a01b038116600090815260008051602061276f833981519152602052604090205460ff1660b0576001600160a01b0316600081815260008051602061276f83398151915260205260408120805460ff191660011790553391907f2f8788117e7eff1d82e926ec794901d17c78024a50270940304540a733656f0d8180a4600190565b5060009056fe608080604052600436101561001357600080fd5b600090813560e01c90816301ffc9a714611ea3575080631bd7fcc314611e75578063248a9ca314611e4757806325d7253c14611e1a5780632f2ff15d14611dd95780633271c42e14611b1657806336568abe14611ad15780633cdfd3c914611a8857806342b27bff146119fd5780634c5efc92146119d35780637c0d66e0146119425780637ec859b7146118f65780638793331b146118aa5780638c708dd3146117f457806391d14854146117ac578063927cab5b1461174c5780639606e6301461160b578063a217fddf146115ef578063a3fcd2541461150d578063b16b5ff114611271578063bbb06a481461112e578063bc8e0b6f146110a8578063c361e8cf14611048578063c80404c214611011578063cf9da4ec14610fce578063d2626c1e14610eb6578063d31ce508146105ef578063d547741f146105a5578063dc1743fa146104b1578063e4592e4a14610484578063eb3cd29f14610391578063ee01d8e6146103315763fd1eb1bf1461018c57600080fd5b3461032e57602036600319011261032e576004353382526003602052604082208183526020526101c260ff60408420541661248e565b338252600260205260408220908252602052604081205480825260016020526006604083200160ff815416600481101561031a576001036102dc57600260ff19825416179055808252600560205281600160408220600381550155808252600660205260408220600160ff19825416179055600754600160401b8110156102c8576102706102598260018594016007556007612310565b819391549060031b91821b91600019901b19161790565b90556103e842024281046103e814421517156102b45760207fef12b7b2a9579593470047f90fe49ebef92efaeac7893264cb78568a064bb36a91604051908152a280f35b634e487b7160e01b83526011600452602483fd5b634e487b7160e01b83526041600452602483fd5b60405162461bcd60e51b815260206004820152601660248201527514dbdb1d5d1a5bdb881b9bdd081cdd589b5a5d1d195960521b6044820152606490fd5b634e487b7160e01b84526021600452602484fd5b80fd5b503461032e57602036600319011261032e5761034b611f5c565b6103536124da565b6001600160a01b0316610367811515612374565b806001600160601b0360a01b60095416176009556001600160601b0360a01b600854161760085580f35b503461032e57604036600319011261032e576001600160a01b036103b3611f5c565b1681526002602052604081206024358252602052604081205481526001602052604081206040516103e38161209d565b8154815260018201546001600160a01b0316602082015260028201546040820152610410600383016120f2565b6060820152600482015460808201908152600583015460a083015260ff600684015416926004841015610470579360e060076060968660c08701520154930192835250519051906104646040518094611f72565b60208301526040820152f35b634e487b7160e01b85526021600452602485fd5b503461032e57602036600319011261032e5760016040602092600435815260058452200154604051908152f35b503461032e57602036600319011261032e576004353382526003602052604082208183526020526104e860ff60408420541661248e565b3382526002602052604082209082526020526040812054808252600160205260408220600681019060ff82541660048110156104705761056057600542910155600160ff198254161790557f234631bf65ecf24a0fcd36950f8397f833936716b5980cb707b11c047bca58ee6020604051428152a280f35b60405162461bcd60e51b815260206004820152601860248201527f536f6c7574696f6e206e6f7420696e2070726f677265737300000000000000006044820152606490fd5b503461032e57604036600319011261032e576105eb6004356105c5611f41565b906105e66105e182600052600060205260016040600020015490565b61252d565b6125f3565b5080f35b503461032e57604036600319011261032e57600435602435818352600660205261061f60ff604085205416612196565b600c546001600160a01b03166106368115156121e2565b60018060a01b0360085416838552600160205260206002604087200154602460405180948193632e34e4df60e01b835260048301525afa8015610b7a5761069e926020928792610e97575b50604051808095819463b669a8ad60e01b83523360048401612262565b03915afa8015610e8c576106b9918591610e5d575b50612282565b8183526005602090815260408085203386526003810190925284205490919060ff1615610e2057338452600482016020819052604085205490929060ff16610ddb576103e84202924284046103e81442151715610dc7576040516060810181811067ffffffffffffffff821117610db3576040908152338083526020808401878152848401898152838c52600588018352848c20955186546001600160a01b0319166001600160a01b0391909116178655905160018681019190915590516002959095019490945590895292909252908620805460ff191682179055810180549092906000198114610d9f579060018692018094556040519081528460208201527f453d512811718b8c5c5e5fc79ef916ec02f21f1ae9d393d476ac17b81a141f9460403392a354146107ea578280f35b9091828152600660205261080460ff604083205416612196565b8281526001602052604081209280825260056020526040822060018060a01b0360085416600286019160208354602460405180958193632e34e4df60e01b835260048301525afa918215610b7a578592610d6e575b50600281018054600a5490956005840195929390918890819081906001600160a01b03168989838a8e5b8610610c66575050505050508115610c52576007959493928c8c93600693049788910155818d01600360ff19825416179055015580885260066020526040882060ff198154169055875b60075480821015610c1f57826108e2836122df565b90549060031b1c146108f757506001016108cd565b60009a92939495969798999a198101908111610c0b5761025961091c610929926122df565b90549060031b1c926122df565b90556007548015610bf7577ffa281b2a20644ea0a8b5457a0634e97a401849fea0b4b7c51640e8a0e653e43391604091600019018b610967826122df565b8192915491506000199060031b1b191690556007555b8151908782526020820152a260018060a01b03600854168154813b15610bf3578891602483926040519485938492637b3b6a2560e11b845260048401525af18015610bd457610bdf575b50600a54600198909801546008549154604051631293980360e11b815260048101919091526001600160a01b03998a169991821692909160209183916024918391165afa908115610bd4578891610b99575b50883b15610b5d5760405191630f61997560e21b83526004830152610a416024830186612255565b836044830152601e6064830152670de0b6b3a764000060848301526003811015610b8557968160c48183809c819a9b9c60a48401525af1908115610b7a578591610b61575b505b868110610a985750505050508280f35b610aa28183612310565b90546001600160a01b0360039290921b1c81166000818152602089905260409020600a54600190910154921691823b15610b5d5760c4889283604051958694859363f28cdc1360e01b85526004850152610aff602485018d612255565b8a60448501526064840152603c6084840152670de0b6b3a764000060a48401525af1908115610b52578691610b39575b5050600101610a88565b81610b43916120d0565b610b4e578438610b2f565b8480fd5b6040513d88823e3d90fd5b8780fd5b81610b6b916120d0565b610b76578338610a86565b8380fd5b6040513d87823e3d90fd5b634e487b7160e01b88526021600452602488fd5b90506020813d602011610bcc575b81610bb4602093836120d0565b81010312610b5d57516003811015610b5d5738610a19565b3d9150610ba7565b6040513d8a823e3d90fd5b87610bec919892986120d0565b95386109c7565b8880fd5b634e487b7160e01b8a52603160045260248afd5b634e487b7160e01b8b52601160045260248bfd5b5050909192939495969760407ffa281b2a20644ea0a8b5457a0634e97a401849fea0b4b7c51640e8a0e653e4339161097d565b634e487b7160e01b8a52601260045260248afd5b916040602092610c7f88610cb6969b9a9798999b612310565b905460039190911b1c6001600160a01b031680825296845220604051630cf571c160e11b8152909590938492839260048401612262565b0381875afa908115610d61578e91610d2c575b508d811215610d23575060018d925b01549082820291808304841490151715610d0f5791610cfc610d0292600194612675565b94612675565b93019089898d8a8e610883565b634e487b7160e01b8e52601160045260248efd5b60019092610cd8565b90506020813d8211610d59575b81610d46602093836120d0565b81010312610d55575138610cc9565b8d80fd5b3d9150610d39565b8e604051903d90823e3d90fd5b610d9191925060203d602011610d98575b610d8981836120d0565b810190612225565b9038610859565b503d610d7f565b634e487b7160e01b87526011600452602487fd5b634e487b7160e01b88526041600452602488fd5b634e487b7160e01b86526011600452602486fd5b60405162461bcd60e51b815260206004820152601760248201527f416c7265616479207375626d69747465642073636f72650000000000000000006044820152606490fd5b60405162461bcd60e51b81526020600482015260156024820152742737ba103537b4b732b21032bb30b63ab0ba34b7b760591b6044820152606490fd5b610e7f915060203d602011610e85575b610e7781836120d0565b81019061223d565b386106b3565b503d610e6d565b6040513d86823e3d90fd5b610eaf919250833d8511610d9857610d8981836120d0565b9038610681565b503461032e57604036600319011261032e57610ed0611f5c565b60243590610edc6123ca565b5060018060a01b0316808352600360205260408320828452602052610f0760ff60408520541661248e565b8252600260205260408220908252602052604081205481526001602052604081209060405190610f368261209d565b8254825260018301546001600160a01b0316602083015260028301546040830152610f63600384016120f2565b606083015260048301546080830152600583015460a083015260ff600684015416906004821015610fba5750610fb69260079160c0840152015460e0820152604051918291602083526020830190611f95565b0390f35b634e487b7160e01b81526021600452602490fd5b503461032e57604036600319011261032e576020906040906001600160a01b03610ff6611f5c565b16815260028352818120602435825283522054604051908152f35b503461032e57602036600319011261032e5761102b6123ca565b5060043581526001602052604081209060405190610f368261209d565b503461032e57602036600319011261032e57611062611f5c565b61106a6124da565b6001600160a01b031661107e811515612374565b806001600160601b0360a01b600b541617600b556001600160601b0360a01b600a541617600a5580f35b503461032e57604036600319011261032e5761111a60036040610fb6936110cd611f5c565b6024359060018060a01b0316808352846020528383208284526020526110f860ff858520541661248e565b82526002602052828220908252602052818120548152600160205220016120f2565b604051918291602083526020830190611f00565b503461032e57604036600319011261032e57611148611f5c565b90602435808252600160205260ff600660408420015416600481101561125d57600303611218578082526005602081815260408085206001600160a01b0387168652600381018352908520549195909160ff16806111f8575b6111aa90612328565b6001600160a01b03168452018352604080832060019081015492845284529091206007015490818111156111ea57906111e29161246b565b604051908152f35b6111f39161246b565b6111e2565b506001600160a01b0381168552600482018652604085205460ff166111a1565b60405162461bcd60e51b815260206004820152601a60248201527f536f6c7574696f6e206e6f7420796574206576616c75617465640000000000006044820152606490fd5b634e487b7160e01b83526021600452602483fd5b503461032e57608036600319011261032e5761128b611f5c565b6024356044359167ffffffffffffffff8311610b765736602384011215610b765782600401359267ffffffffffffffff8411610b4e573660248583010111610b4e5760643593604051602081019060018060a01b038516946001600160601b03199060601b1682528560348201528660548201526054815261130e6074826120d0565b519020948587526001602052604087209686885560018801856001600160601b0360a01b825416179055856002890155600388019761134d8954612063565b601f81116114c8575b5060209882601f8611600114611436579260068693606096936024987fe7c6470942bc399a7954dd58842739ae92fff350250781d776aa1efa5f5c65e89a978591611429575b508660011b906000198860031b1c19161790555b8360048201550160ff19815416905587815260028b52604081208982528b5289604082205587815260038b52604081208982528b5260408120600160ff198254161790558260405196879560408752826040880152018686013783830185015289830152601f01601f19168101030190a3604051908152f35b8a9150880101353861139c565b8184528a842090601f198716855b8181106114ae575093606096937fe7c6470942bc399a7954dd58842739ae92fff350250781d776aa1efa5f5c65e89996936006938a60249b9810611492575b5050600186811b0190556113b0565b88018a0135600019600389901b60f8161c191690553880611483565b91928d600181926024878e01013581550194019201611444565b89835260208320601f860160051c81019160208710611503575b601f0160051c01905b8181106114f85750611356565b8381556001016114eb565b90915081906114e2565b503461032e578060031936011261032e5760075461152a81612407565b91805b8281106115425760405180610fb68682612003565b61154b816122df565b90549060031b1c82526001602052604082206040519061156a8261209d565b8054825260018101546001600160a01b0316602083015260028101546040830152611597600382016120f2565b606083015260048101546080830152600581015460a083015260ff60068201541660048110156104705760c08301526007015460e0820152600191906115dd8287612457565b526115e88186612457565b500161152d565b503461032e578060031936011261032e57602090604051908152f35b503461032e57602036600319011261032e576001600160a01b0361162d611f5c565b1681526004602052604081206040518082602082945493848152019085526020852092855b818110611733575050611667925003826120d0565b6116718151612407565b91805b8251811015611725576116878184612457565b518252600160205260408220604051906116a08261209d565b8054825260018101546001600160a01b03166020830152600281015460408301526116cd600382016120f2565b606083015260048101546080830152600581015460a083015260ff60068201541660048110156104705760c08301526007015460e0820152600191906117138287612457565b5261171e8186612457565b5001611674565b60405180610fb68682612003565b8454835260019485019486945060209093019201611652565b503461032e57602036600319011261032e57611766611f5c565b61176e6124da565b6001600160a01b0316611782811515612374565b806001600160601b0360a01b600d541617600d556001600160601b0360a01b600c541617600c5580f35b503461032e57604036600319011261032e5760ff60406020926117cd611f41565b60043582528185528282206001600160a01b03909116825284522054604051911615158152f35b503461032e57602036600319011261032e5760043590818152600160205260ff600660408320015416600481101561189657600303611846576040816020936006935260058452200154604051908152f35b60405162461bcd60e51b815260206004820152602260248201527f536f6c7574696f6e206861736e2774206265656e206576616c75617465642079604482015261195d60f21b6064820152608490fd5b634e487b7160e01b82526021600452602482fd5b503461032e57604036600319011261032e5760ff60406020926118cb611f5c565b6024358252600585528282206001600160a01b03909116825260030184522054604051911615158152f35b503461032e57604036600319011261032e5760ff6040602092611917611f5c565b6024358252600585528282206001600160a01b03909116825260040184522054604051911615158152f35b503461032e57604036600319011261032e57600260406020926005611965611f5c565b60243583528186528383206001600160a01b03821684526003810187528484205490919060ff16806119b4575b61199b90612328565b6001600160a01b03168352018452200154604051908152f35b506001600160a01b03811684526004820187528484205460ff16611992565b503461032e57602036600319011261032e5760406020916004358152600583522054604051908152f35b503461032e57604036600319011261032e57600160406020926005611a20611f5c565b602435835281865283832090858060a01b038116845260038201875260ff858520541680611a69575b611a5290612328565b858060a01b03168352018452200154604051908152f35b5060a086901b869003811684526004820187528484205460ff16611a49565b503461032e57604036600319011261032e5760209060ff906040906001600160a01b03611ab3611f5c565b16815260038452818120602435825284522054166040519015158152f35b503461032e57604036600319011261032e57611aeb611f41565b336001600160a01b03821603611b07576105eb906004356125f3565b63334bd91960e11b8252600482fd5b503461032e57602036600319011261032e576004358082526006602052611b4360ff604084205416612196565b600c546001600160a01b0316611b5a8115156121e2565b60018060a01b0360085416828452600160205260206002604086200154602460405180948193632e34e4df60e01b835260048301525afa8015610e8c57611bc1926020928692610e975750604051808095819463b669a8ad60e01b83523360048401612262565b03915afa8015611dce57611bdb918491610e5d5750612282565b808252600160208190526040832001546001600160a01b03163314611d895780825260056020908152604080842033855260038101928390529084205460ff16611d44576002810190815490541115611d0857338452600460205260408420805490600160401b821015611cf45761025982611c5d9260018895018155612310565b9055805490600160401b821015611ce05790611c7e91600182018155612310565b81546001600160a01b0360039290921b91821b1916339182901b1790915580845260209182526040808520805460ff191660011790555142815290917f617ef2e1779b9097b1936bb1d4c9b068575eefd947525aa9c61d477329c08ed891a380f35b634e487b7160e01b85526041600452602485fd5b634e487b7160e01b86526041600452602486fd5b60405162461bcd60e51b8152602060048201526014602482015273115d985b1d585d1a5bdb881c1bdbdb08199d5b1b60621b6044820152606490fd5b60405162461bcd60e51b815260206004820152601960248201527f416c7265616479206a6f696e6564206576616c756174696f6e000000000000006044820152606490fd5b60405162461bcd60e51b815260206004820152601c60248201527f43616e6e6f74206576616c75617465206f776e20736f6c7574696f6e000000006044820152606490fd5b6040513d85823e3d90fd5b503461032e57604036600319011261032e576105eb600435611df9611f41565b90611e156105e182600052600060205260016040600020015490565b612568565b503461032e57602036600319011261032e5760026040602092600435815260058452200154604051908152f35b503461032e57602036600319011261032e5760206111e2600435600052600060205260016040600020015490565b503461032e57602036600319011261032e5761111a60036040610fb6936004358152600160205220016120f2565b905034611efc576020366003190112611efc5760043563ffffffff60e01b8116809103611ef85760209250637965db0b60e01b8114908115611ee7575b5015158152f35b6301ffc9a760e01b14905038611ee0565b8280fd5b5080fd5b919082519283825260005b848110611f2c575050826000602080949584010152601f8019910116010190565b80602080928401015182828601015201611f0b565b602435906001600160a01b0382168203611f5757565b600080fd5b600435906001600160a01b0382168203611f5757565b906004821015611f7f5752565b634e487b7160e01b600052602160045260246000fd5b908151815260018060a01b0360208301511660208201526040820151604082015260e080611fd460608501516101006060860152610100850190611f00565b936080810151608085015260a081015160a0850152611ffb60c082015160c0860190611f72565b015191015290565b602081016020825282518091526040820191602060408360051b8301019401926000915b83831061203657505050505090565b9091929394602080612054600193603f198682030187528951611f95565b97019301930191939290612027565b90600182811c92168015612093575b602083101461207d57565b634e487b7160e01b600052602260045260246000fd5b91607f1691612072565b610100810190811067ffffffffffffffff8211176120ba57604052565b634e487b7160e01b600052604160045260246000fd5b90601f8019910116810190811067ffffffffffffffff8211176120ba57604052565b906040519182600082549261210684612063565b8084529360018116908115612174575060011461212d575b5061212b925003836120d0565b565b90506000929192526020600020906000915b81831061215857505090602061212b928201013861211e565b602091935080600191548385890101520191019091849261213f565b90506020925061212b94915060ff191682840152151560051b8201013861211e565b1561219d57565b60405162461bcd60e51b815260206004820152601960248201527f536f6c7574696f6e206e6f7420756e64657220726576696577000000000000006044820152606490fd5b156121e957565b60405162461bcd60e51b8152602060048201526014602482015273149bdb19481b585b9859d95c881b9bdd081cd95d60621b6044820152606490fd5b90816020910312611f575751600e811015611f575790565b90816020910312611f5757518015158103611f575790565b90600e821015611f7f5752565b6001600160a01b03909116815260408101929161212b9160200190612255565b1561228957565b60405162461bcd60e51b815260206004820152602860248201527f596f7520617265206e6f7420616e206576616c7561746f7220666f722074686960448201526739903237b6b0b4b760c11b6064820152608490fd5b6007548110156122fa57600760005260206000200190600090565b634e487b7160e01b600052603260045260246000fd5b80548210156122fa5760005260206000200190600090565b1561232f57565b60405162461bcd60e51b815260206004820152601d60248201527f4576616c7561746f72206e6f74207375626d69747465642073636f72650000006044820152606490fd5b1561237b57565b60405162461bcd60e51b815260206004820152600f60248201526e496e76616c6964206164647265737360881b6044820152606490fd5b67ffffffffffffffff81116120ba5760051b60200190565b604051906123d78261209d565b600060e0838281528260208201528260408201526060808201528260808201528260a08201528260c08201520152565b90612411826123b2565b61241e60405191826120d0565b828152809261242f601f19916123b2565b019060005b82811061244057505050565b60209061244b6123ca565b82828501015201612434565b80518210156122fa5760209160051b010190565b9190820391821161247857565b634e487b7160e01b600052601160045260246000fd5b1561249557565b60405162461bcd60e51b815260206004820152601960248201527f55736572206e6f74206a6f696e6564206368616c6c656e6765000000000000006044820152606490fd5b3360009081527fad3228b676f7d3cd4284a5443f17f1962b36e491b30a40b2405849e597ba5fb5602052604090205460ff161561251357565b63e2517d3f60e01b60005233600452600060245260446000fd5b60008181526020818152604080832033845290915290205460ff16156125505750565b63e2517d3f60e01b6000523360045260245260446000fd5b6000818152602081815260408083206001600160a01b038616845290915290205460ff166125ec576000818152602081815260408083206001600160a01b0395909516808452949091528120805460ff19166001179055339291907f2f8788117e7eff1d82e926ec794901d17c78024a50270940304540a733656f0d9080a4600190565b5050600090565b6000818152602081815260408083206001600160a01b038616845290915290205460ff16156125ec576000818152602081815260408083206001600160a01b0395909516808452949091528120805460ff19169055339291907ff6391f5c32d9c69d2a47ea670b442974b53935d1edc7fd64eb21e047a839171b9080a4600190565b919082018092116124785756fea26469706673582212202888a53c1eecd3cdc1a6404f0d80412d29e5b25d2114bbe5b2c0f4ac9bae602464736f6c634300081a0033ad3228b676f7d3cd4284a5443f17f1962b36e491b30a40b2405849e597ba5fb5",
  "linkReferences": {},
  "deployedLinkReferences": {}
}