{
  "_format": "hh-sol-artifact-1",
  "contractName": "UserDataManager",
  "sourceName": "contracts/UserDataManager.sol",
  "abi": [
    {
      "anonymous": false,
      "inputs": [
        {
          "indexed": true,
          "internalType": "address",
          "name": "user_address",
          "type": "address"
        },
        {
          "indexed": false,
          "internalType": "string",
          "name": "avatar_url",
          "type": "string"
        }
      ],
      "name": "AvatarUpdated",
      "type": "event"
    },
    {
      "anonymous": false,
      "inputs": [
        {
          "indexed": true,
          "internalType": "address",
          "name": "user_address",
          "type": "address"
        },
        {
          "indexed": false,
          "internalType": "string",
          "name": "bio_url",
          "type": "string"
        }
      ],
      "name": "BioUpdated",
      "type": "event"
    },
    {
      "anonymous": false,
      "inputs": [
        {
          "indexed": true,
          "internalType": "address",
          "name": "user_address",
          "type": "address"
        }
      ],
      "name": "NoDataUpdated",
      "type": "event"
    },
    {
      "anonymous": false,
      "inputs": [
        {
          "indexed": true,
          "internalType": "address",
          "name": "user_address",
          "type": "address"
        },
        {
          "indexed": false,
          "internalType": "string",
          "name": "username",
          "type": "string"
        }
      ],
      "name": "UsernameUpdated",
      "type": "event"
    },
    {
      "inputs": [
        {
          "internalType": "string",
          "name": "_username",
          "type": "string"
        }
      ],
      "name": "checkUsernameAvailable",
      "outputs": [
        {
          "internalType": "bool",
          "name": "",
          "type": "bool"
        }
      ],
      "stateMutability": "view",
      "type": "function"
    },
    {
      "inputs": [
        {
          "internalType": "address",
          "name": "user_address",
          "type": "address"
        }
      ],
      "name": "getAvatar",
      "outputs": [
        {
          "internalType": "string",
          "name": "",
          "type": "string"
        }
      ],
      "stateMutability": "view",
      "type": "function"
    },
    {
      "inputs": [
        {
          "internalType": "address",
          "name": "user_address",
          "type": "address"
        }
      ],
      "name": "getBio",
      "outputs": [
        {
          "internalType": "string",
          "name": "",
          "type": "string"
        }
      ],
      "stateMutability": "view",
      "type": "function"
    },
    {
      "inputs": [
        {
          "internalType": "address",
          "name": "user_address",
          "type": "address"
        }
      ],
      "name": "getUsername",
      "outputs": [
        {
          "internalType": "string",
          "name": "",
          "type": "string"
        }
      ],
      "stateMutability": "view",
      "type": "function"
    },
    {
      "inputs": [
        {
          "internalType": "string",
          "name": "_avatar_url",
          "type": "string"
        }
      ],
      "name": "setAvatar",
      "outputs": [],
      "stateMutability": "nonpayable",
      "type": "function"
    },
    {
      "inputs": [
        {
          "internalType": "string",
          "name": "_bio_url",
          "type": "string"
        }
      ],
      "name": "setBio",
      "outputs": [],
      "stateMutability": "nonpayable",
      "type": "function"
    },
    {
      "inputs": [
        {
          "internalType": "string",
          "name": "_username",
          "type": "string"
        },
        {
          "internalType": "string",
          "name": "_avatar_url",
          "type": "string"
        },
        {
          "internalType": "string",
          "name": "_bio_url",
          "type": "string"
        }
      ],
      "name": "setUserPersonalData",
      "outputs": [],
      "stateMutability": "nonpayable",
      "type": "function"
    },
    {
      "inputs": [
        {
          "internalType": "string",
          "name": "_username",
          "type": "string"
        }
      ],
      "name": "setUsername",
      "outputs": [],
      "stateMutability": "nonpayable",
      "type": "function"
    }
  ],
  "bytecode": "0x60808060405234601557610cba908161001b8239f35b600080fdfe6080604052600436101561001257600080fd5b60003560e01c80632044fd111461023e5780633fd0bf17146101fd5780636ec5239f146101c4578063ce43c03214610186578063ce8ac03314610135578063ed59313a146100fc578063fb7e06d8146100c15763fddda6821461007457600080fd5b346100bc5760203660031901126100bc576004356001600160401b0381116100bc5760ff6100b16100ab6020933690600401610497565b9061080a565b541615604051908152f35b600080fd5b346100bc5760203660031901126100bc576004356001600160401b0381116100bc576100f46100fa913690600401610497565b90610b0a565b005b346100bc5760203660031901126100bc576004356001600160401b0381116100bc5761012f6100fa913690600401610497565b90610823565b346100bc5760203660031901126100bc576004356001600160a01b038116908190036100bc576000526000602052610182610176600160406000200161057e565b604051918291826104c4565b0390f35b346100bc5760203660031901126100bc576004356001600160a01b038116908190036100bc576000526000602052610182610176604060002061057e565b346100bc5760203660031901126100bc576004356001600160401b0381116100bc576101f76100fa913690600401610497565b90610690565b346100bc5760203660031901126100bc576004356001600160a01b038116908190036100bc576000526000602052610182610176600260406000200161057e565b346100bc5760603660031901126100bc576004356001600160401b0381116100bc5761026e903690600401610497565b906024356001600160401b0381116100bc5761028e903690600401610497565b9290916044356001600160401b0381116100bc576102b0903690600401610497565b939094831593868515946102c4838261080a565b5460ff1615928415968715948a159081159a33600052600060205260406000206102ed9061057e565b6102f8368789610622565b61030191610c57565b15923360005260006020528d604060002060010161031e9061057e565b610329368d8f610622565b61033291610c57565b1598336000526000602052604060002060020161034e9061057e565b91369061035a92610622565b61036391610c57565b159b8261048e575b82610486575b508161047e575b5080610476575b8061046e575b80610466575b6104085782610400575b50816103f8575b506103e8575b5050816103e0575b506103d0575b5050816103c8575b506103bf57005b6100fa91610b0a565b9050836103b8565b6103d991610690565b84806103b0565b9050876103aa565b6103f191610823565b88806103a2565b90508b61039c565b91508c610395565b6064604051337fea42970379fa5ff2f3fd098fc5f987b7244411cbbe59c81d98b37122ff7fc80d600080a262461bcd60e51b81526020600482015260116024820152704e6f206461746120746f2075706461746560781b6044820152fd5b50891561038b565b508515610385565b50811561037f565b90508e610378565b91508f610371565b8315925061036b565b9181601f840112156100bc578235916001600160401b0383116100bc57602083818601950101116100bc57565b91909160208152825180602083015260005b8181106104f7575060409293506000838284010152601f8019910116010190565b80602080928701015160408286010152016104d6565b90600182811c9216801561053d575b602083101461052757565b634e487b7160e01b600052602260045260246000fd5b91607f169161051c565b90601f801991011681019081106001600160401b0382111761056857604052565b634e487b7160e01b600052604160045260246000fd5b90604051918260008254926105928461050d565b808452936001811690811561060057506001146105b9575b506105b792500383610547565b565b90506000929192526020600020906000915b8183106105e45750509060206105b792820101386105aa565b60209193508060019154838589010152019101909184926105cb565b9050602092506105b794915060ff191682840152151560051b820101386105aa565b9291926001600160401b038211610568576040519161064b601f8201601f191660200184610547565b8294818452818301116100bc578281602093846000960137010152565b90918060409360208452816020850152848401376000828201840152601f01601f1916010190565b9190913360005260006020526001604060002001926001600160401b038111610568576106bd845461050d565b601f81116107c2575b50600093601f8211600114610739579061072991817fed6fbee54fb754678a908527ed51cf00840e56cca6b00760c99382dccf6866f994959660009161072e575b508260011b906000198460031b1c19161790555b604051918291339583610668565b0390a2565b905085013538610707565b80855260208520601f198316865b8181106107aa5750907fed6fbee54fb754678a908527ed51cf00840e56cca6b00760c99382dccf6866f99495968461072995949310610790575b5050600182811b01905561071b565b860135600019600385901b60f8161c191690553880610781565b85880135835560209788019760019093019201610747565b846000526020600020601f830160051c81019160208410610800575b601f0160051c01905b8181106107f457506106c6565b600081556001016107e7565b90915081906107de565b6020908260405193849283378101600181520301902090565b91903360005260006020526040600020604051908160008254926108468461050d565b9360018116908115610af05750600114610ab4575b5060209250600181520301902060ff1981541690553360005260006020526040600020926001600160401b03821161056857610897845461050d565b601f8111610a6c575b50600093601f8311600114610a08578260209394956000916109fd575b508460011b906000198660031b1c19161790555b82604051938492833781016001815203019020600160ff198254161790553360005260006020526040600020604051602081526000918054906109138261050d565b918260208501526001811690816000146109ba575060011461095c575b5050807f1af4cc3acb57f067d1d582e3932be6692a4c9a31d8b3a8567dfc1c340a02d5349133930390a2565b9091925060005260206000206000905b8282106109a3575082016040019190507f1af4cc3acb57f067d1d582e3932be6692a4c9a31d8b3a8567dfc1c340a02d53438610930565b60018160209254604085880101520191019061096c565b90507f1af4cc3acb57f067d1d582e3932be6692a4c9a31d8b3a8567dfc1c340a02d534939450604092915060ff191682850152151560051b830101919038610930565b9050820135386108bd565b80855260208520601f19841695805b878110610a54575084602095969710610a3a575b5050600184811b0190556108d1565b830135600019600387901b60f8161c191690553880610a2b565b90916020600181928588013581550193019101610a17565b846000526020600020601f840160051c81019160208510610aaa575b601f0160051c01905b818110610a9e57506108a0565b60008155600101610a91565b9091508190610a88565b9150506000528160206000206000905b838210610ad857505060209181013861085b565b60209192508060019154848701520191018391610ac4565b60ff1916845250602093801515028301915038905061085b565b9190913360005260006020526002604060002001926001600160401b03811161056857610b37845461050d565b601f8111610c0f575b50600093601f8211600114610ba1579061072991817f3f838a7d0889a59b2445af5389196b3948170278848eb90d8d256ab14aaf4cf094959660009161072e57508260011b906000198460031b1c1916179055604051918291339583610668565b80855260208520601f198316865b818110610bf75750907f3f838a7d0889a59b2445af5389196b3948170278848eb90d8d256ab14aaf4cf09495968461072995949310610790575050600182811b01905561071b565b85880135835560209788019760019093019201610baf565b846000526020600020601f830160051c81019160208410610c4d575b601f0160051c01905b818110610c415750610b40565b60008155600101610c34565b9091508190610c2b565b9081518151908181149384610c6e575b5050505090565b6020929394508201209201201438808080610c6756fea264697066735822122013855bd7998b9ff0195393b8515b5216d5f13004febd2cea2c0c0935b00c651064736f6c634300081c0033",
  "linkReferences": {},
  "deployedLinkReferences": {}
}