{
  "_format": "hh-sol-artifact-1",
  "contractName": "UserDataManager",
  "sourceName": "contracts/UserDataManager.sol",
  "abi": [
    {
      "anonymous": false,
      "inputs": [
        {
          "indexed": true,
          "internalType": "address",
          "name": "user_address",
          "type": "address"
        },
        {
          "indexed": false,
          "internalType": "string",
          "name": "avatar_url",
          "type": "string"
        }
      ],
      "name": "AvatarUpdated",
      "type": "event"
    },
    {
      "anonymous": false,
      "inputs": [
        {
          "indexed": true,
          "internalType": "address",
          "name": "user_address",
          "type": "address"
        },
        {
          "indexed": false,
          "internalType": "string",
          "name": "bio_url",
          "type": "string"
        }
      ],
      "name": "BioUpdated",
      "type": "event"
    },
    {
      "anonymous": false,
      "inputs": [
        {
          "indexed": true,
          "internalType": "address",
          "name": "user_address",
          "type": "address"
        }
      ],
      "name": "NoDataUpdated",
      "type": "event"
    },
    {
      "anonymous": false,
      "inputs": [
        {
          "indexed": true,
          "internalType": "address",
          "name": "user_address",
          "type": "address"
        },
        {
          "indexed": false,
          "internalType": "string",
          "name": "username",
          "type": "string"
        }
      ],
      "name": "UsernameUpdated",
      "type": "event"
    },
    {
      "inputs": [
        {
          "internalType": "string",
          "name": "_username",
          "type": "string"
        }
      ],
      "name": "checkUsernameAvailable",
      "outputs": [
        {
          "internalType": "bool",
          "name": "",
          "type": "bool"
        }
      ],
      "stateMutability": "view",
      "type": "function"
    },
    {
      "inputs": [
        {
          "internalType": "address",
          "name": "user_address",
          "type": "address"
        }
      ],
      "name": "getAvatar",
      "outputs": [
        {
          "internalType": "string",
          "name": "",
          "type": "string"
        }
      ],
      "stateMutability": "view",
      "type": "function"
    },
    {
      "inputs": [
        {
          "internalType": "address",
          "name": "user_address",
          "type": "address"
        }
      ],
      "name": "getBio",
      "outputs": [
        {
          "internalType": "string",
          "name": "",
          "type": "string"
        }
      ],
      "stateMutability": "view",
      "type": "function"
    },
    {
      "inputs": [
        {
          "internalType": "address",
          "name": "user_address",
          "type": "address"
        }
      ],
      "name": "getUsername",
      "outputs": [
        {
          "internalType": "string",
          "name": "",
          "type": "string"
        }
      ],
      "stateMutability": "view",
      "type": "function"
    },
    {
      "inputs": [
        {
          "internalType": "string",
          "name": "_avatar_url",
          "type": "string"
        }
      ],
      "name": "setAvatar",
      "outputs": [],
      "stateMutability": "nonpayable",
      "type": "function"
    },
    {
      "inputs": [
        {
          "internalType": "string",
          "name": "_bio_url",
          "type": "string"
        }
      ],
      "name": "setBio",
      "outputs": [],
      "stateMutability": "nonpayable",
      "type": "function"
    },
    {
      "inputs": [
        {
          "internalType": "string",
          "name": "_username",
          "type": "string"
        },
        {
          "internalType": "string",
          "name": "_avatar_url",
          "type": "string"
        },
        {
          "internalType": "string",
          "name": "_bio_url",
          "type": "string"
        }
      ],
      "name": "setUserPersonalData",
      "outputs": [],
      "stateMutability": "nonpayable",
      "type": "function"
    },
    {
      "inputs": [
        {
          "internalType": "string",
          "name": "_username",
          "type": "string"
        }
      ],
      "name": "setUsername",
      "outputs": [],
      "stateMutability": "nonpayable",
      "type": "function"
    }
  ],
  "bytecode": "0x60808060405234601557611335908161001b8239f35b600080fdfe6080604052600436101561001257600080fd5b60003560e01c80632044fd11146103345780633fd0bf17146102a85780636ec5239f1461026f578063ce43c032146101de578063ce8ac03314610132578063ed59313a146100f9578063fb7e06d8146100be5763fddda6821461007457600080fd5b346100b95760203660031901126100b9576004356001600160401b0381116100b9576100af6100a96020923690600401610842565b906110fa565b6040519015158152f35b600080fd5b346100b95760203660031901126100b9576004356001600160401b0381116100b9576100f16100f7913690600401610842565b90610f3d565b005b346100b95760203660031901126100b9576004356001600160401b0381116100b95761012c6100f7913690600401610842565b90610c09565b346100b95760203660031901126100b9576004356001600160a01b038116908181036100b957816101da9260005260006020526101b060016040600020016040936101aa85519261018387856108ea565b6015845274417661746172206f6620282573292069733a20257360581b6020850152610921565b916112aa565b60005260006020526101c760018260002001610921565b905191829160208352602083019061086f565b0390f35b346100b95760203660031901126100b9576004356001600160a01b038116908181036100b957816101da92600052600060205261025b60406000206040936101aa85519261022c87856108ea565b601784527f557365726e616d65206f6620282573292069733a2025730000000000000000006020850152610921565b60005260006020526101c781600020610921565b346100b95760203660031901126100b9576004356001600160401b0381116100b9576102a26100f7913690600401610842565b90610a33565b346100b95760203660031901126100b9576004356001600160a01b038116908181036100b957816101da92600052600060205261031d60026040600020016040936101aa8551926102f987856108ea565b601284527142696f206f6620282573292069733a20257360701b6020850152610921565b60005260006020526101c760028260002001610921565b346100b95760603660031901126100b9576004356001600160401b0381116100b957610364903690600401610842565b6024356001600160401b0381116100b957610383903690600401610842565b91906044356001600160401b0381116100b9576103a4903690600401610842565b9390946103b184826110fa565b903360005260006020526103dc6103cb6040600020610921565b6103d63688856109c5565b906111db565b15943360005260006020526104056103fa6001604060002001610921565b6103d63687896109c5565b159233600052600060205261042e6104236002604060002001610921565b6103d6368b8d6109c5565b1596604060008061048161048f845161044786826108ea565b600a815269496e707574206461746160b01b6020820152855192839163104c13eb60e21b602084015260206024840152604483019061086f565b03601f1981018352826108ea565b6020815191016a636f6e736f6c652e6c6f675afa506104dd81516104b383826108ea565b600c81526b757365726e616d653a20257360a01b60208201526104d73687896109c5565b90611208565b61051281516104ec83826108ea565b600e81526d617661746172204349443a20257360901b60208201526104d7368a8c6109c5565b610540815161052183826108ea565b600781526662696f3a20257360c81b60208201526104d7368d8f6109c5565b61058e81516105506060826108ea565b602381527f69735f757365726e616d655f7265717565737465645f6e6f745f656d7074793a60208201526220257360e81b8382015285151590611264565b6105cd83825161059e84826108ea565b601981527f69735f757365726e616d655f617661696c61626c653a202573000000000000006020820152611264565b61060f81516105dc83826108ea565b601c81527f69735f617661727461725f6369645f6e6f745f656d7074793a20257300000000602082015288151590611264565b610648815161061e83826108ea565b601481527369735f62696f5f6e6f745f656d7074793a20257360601b60208201528b151590611264565b61068782825161065884826108ea565b601e81527f69735f757365726e616d655f6e6f745f6475706c6963617465643a20257300006020820152611264565b6106c686825161069784826108ea565b602081527f69735f6176617461725f75726c5f6e6f745f6475706c6963617465643a2025736020820152611264565b6107058982516106d684826108ea565b601d81527f69735f62696f5f75726c5f6e6f745f6475706c6963617465643a2025730000006020820152611264565b83158061083a575b80610832575b8061082a575b80610822575b8061081a575b80610812575b6107b5575082151591836107ad575b50816107a5575b50610795575b5050811515908261078d575b5061077d575b50508115159082610775575b5061076c57005b6100f791610f3d565b905083610765565b61078691610a33565b8380610759565b905086610753565b61079e91610c09565b8680610747565b905089610741565b91508a61073a565b60649051337fea42970379fa5ff2f3fd098fc5f987b7244411cbbe59c81d98b37122ff7fc80d600080a262461bcd60e51b81526020600482015260116024820152704e6f206461746120746f2075706461746560781b6044820152fd5b50881561072b565b508515610725565b50811561071f565b508915610719565b508615610713565b50821561070d565b9181601f840112156100b9578235916001600160401b0383116100b957602083818601950101116100b957565b919082519283825260005b84811061089b575050826000602080949584010152601f8019910116010190565b8060208092840101518282860101520161087a565b90600182811c921680156108e0575b60208310146108ca57565b634e487b7160e01b600052602260045260246000fd5b91607f16916108bf565b90601f801991011681019081106001600160401b0382111761090b57604052565b634e487b7160e01b600052604160045260246000fd5b9060405191826000825492610935846108b0565b80845293600181169081156109a3575060011461095c575b5061095a925003836108ea565b565b90506000929192526020600020906000915b81831061098757505090602061095a928201013861094d565b602091935080600191548385890101520191019091849261096e565b90506020925061095a94915060ff191682840152151560051b8201013861094d565b9291926001600160401b03821161090b57604051916109ee601f8201601f1916602001846108ea565b8294818452818301116100b9578281602093846000960137010152565b90918060409360208452816020850152848401376000828201840152601f01601f1916010190565b9190913360005260006020526001604060002001926001600160401b03811161090b57610a6084546108b0565b601f8111610bc1575b50600093601f8211600114610b385790610b2891817fed6fbee54fb754678a908527ed51cf00840e56cca6b00760c99382dccf6866f9949596600091610b2d575b508260011b906000198460031b1c19161790555b3360005260006020526001604060002001610b1c604091610b14835191610ae585846108ea565b601d83527f417661746172206f662028257329207570646174656420746f3a2025730000006020840152610921565b9033906112aa565b51918291339583610a0b565b0390a2565b905085013538610aaa565b80855260208520601f198316865b818110610ba95750907fed6fbee54fb754678a908527ed51cf00840e56cca6b00760c99382dccf6866f994959684610b2895949310610b8f575b5050600182811b019055610abe565b860135600019600385901b60f8161c191690553880610b80565b85880135835560209788019760019093019201610b46565b846000526020600020601f830160051c81019160208410610bff575b601f0160051c01905b818110610bf35750610a69565b60008155600101610be6565b9091508190610bdd565b9190336000526000602052604060002060405190816000825492610c2c846108b0565b9360018116908115610f235750600114610ee7575b5060209250600181520301902060ff1981541690553360005260006020526040600020926001600160401b03821161090b57610c7d84546108b0565b601f8111610e9f575b50600093601f8311600114610e3b57826020939495600091610e30575b508460011b906000198660031b1c19161790555b82604051938492833781016001815203019020600160ff198254161790553360005260006020526040600020610d28604091610b14835191610cf985846108ea565b601f83527f557365726e616d65206f662028257329207570646174656420746f3a202573006020840152610921565b336000526000602052806000209080519060208252600092805490610d4c826108b0565b91826020860152600181169081600014610df45750600114610d96575b505050807f1af4cc3acb57f067d1d582e3932be6692a4c9a31d8b3a8567dfc1c340a02d5349133930390a2565b600090815260208120939450905b808210610dda57508301019190507f1af4cc3acb57f067d1d582e3932be6692a4c9a31d8b3a8567dfc1c340a02d5343880610d69565b919260018160209254868589010152019101909291610da4565b60ff1916848601525050151560051b82010191507f1af4cc3acb57f067d1d582e3932be6692a4c9a31d8b3a8567dfc1c340a02d5343880610d69565b905082013538610ca3565b80855260208520601f19841695805b878110610e87575084602095969710610e6d575b5050600184811b019055610cb7565b830135600019600387901b60f8161c191690553880610e5e565b90916020600181928588013581550193019101610e4a565b846000526020600020601f840160051c81019160208510610edd575b601f0160051c01905b818110610ed15750610c86565b60008155600101610ec4565b9091508190610ebb565b9150506000528160206000206000905b838210610f0b575050602091810138610c41565b60209192508060019154848701520191018391610ef7565b60ff19168452506020938015150283019150389050610c41565b9190913360005260006020526002604060002001926001600160401b03811161090b57610f6a84546108b0565b601f81116110b2575b50600093601f82116001146110295790610b2891817f3f838a7d0889a59b2445af5389196b3948170278848eb90d8d256ab14aaf4cf094959660009161101e575b508260011b906000198460031b1c19161790555b3360005260006020526002604060002001610b1c604091610b14835191610fef85846108ea565b601a83527f42696f206f662028257329207570646174656420746f3a2025730000000000006020840152610921565b905085013538610fb4565b80855260208520601f198316865b81811061109a5750907f3f838a7d0889a59b2445af5389196b3948170278848eb90d8d256ab14aaf4cf094959684610b2895949310611080575b5050600182811b019055610fc8565b860135600019600385901b60f8161c191690553880611071565b85880135835560209788019760019093019201611037565b846000526020600020601f830160051c810191602084106110f0575b601f0160051c01905b8181106110e45750610f73565b600081556001016110d7565b90915081906110ce565b90602060ff928284604051828482378481848101600181520301902054161560008061118b6111b160409485519061113287836108ea565b601d82527f5573656e616d65202825732920697320617661696c61626c653a2025730000008a83015261119d611169368a8c6109c5565b885163b0e0f9b560e01b8d82015260606024820152958694608486019061086f565b8481036023190160448601529061086f565b90606483015203601f1981018352826108ea565b86815191016a636f6e736f6c652e6c6f675afa505193849283378101600181520301902054161590565b90815181519081811493846111f2575b5050505090565b60209293945082012092012014388080806111eb565b61123b61124d600093926104818594604051948593634b5c427760e01b602086015260406024860152606485019061086f565b8381036023190160448501529061086f565b6020815191016a636f6e736f6c652e6c6f675afa50565b61129461124d60009392849360405193849263c3b5563560e01b602085015260406024850152606484019061086f565b901515604483015203601f1981018352826108ea565b61124d6112de9161048160009594869560405195869463e0e9ad4f60e01b602087015260606024870152608486019061086f565b6001600160a01b03909216604485015283820360231901606485015261086f56fea2646970667358221220fd1ab24e287848f0f27712242e985c539c6892499183dd039764941d10aded6b64736f6c634300081c0033",
  "linkReferences": {},
  "deployedLinkReferences": {}
}