{
  "_format": "hh-sol-artifact-1",
  "contractName": "UserDataManager",
  "sourceName": "contracts/UserDataManager.sol",
  "abi": [
    {
      "anonymous": false,
      "inputs": [
        {
          "indexed": true,
          "internalType": "address",
          "name": "user_address",
          "type": "address"
        },
        {
          "indexed": false,
          "internalType": "string",
          "name": "data_id",
          "type": "string"
        }
      ],
      "name": "UserDataUpdated",
      "type": "event"
    },
    {
      "inputs": [
        {
          "internalType": "address",
          "name": "_user_address",
          "type": "address"
        }
      ],
      "name": "getUser",
      "outputs": [
        {
          "components": [
            {
              "internalType": "address",
              "name": "user_address",
              "type": "address"
            },
            {
              "internalType": "string",
              "name": "data_id",
              "type": "string"
            }
          ],
          "internalType": "struct UserDataManager.User",
          "name": "",
          "type": "tuple"
        }
      ],
      "stateMutability": "view",
      "type": "function"
    },
    {
      "inputs": [
        {
          "internalType": "address",
          "name": "_user_address",
          "type": "address"
        }
      ],
      "name": "getUserDataId",
      "outputs": [
        {
          "internalType": "string",
          "name": "",
          "type": "string"
        }
      ],
      "stateMutability": "view",
      "type": "function"
    },
    {
      "inputs": [
        {
          "internalType": "address",
          "name": "_user_address",
          "type": "address"
        }
      ],
      "name": "isUserRegistered",
      "outputs": [
        {
          "internalType": "bool",
          "name": "",
          "type": "bool"
        }
      ],
      "stateMutability": "view",
      "type": "function"
    },
    {
      "inputs": [
        {
          "internalType": "string",
          "name": "_data_id",
          "type": "string"
        }
      ],
      "name": "registerNewUser",
      "outputs": [],
      "stateMutability": "nonpayable",
      "type": "function"
    }
  ],
  "bytecode": "0x60808060405234601557610657908161001b8239f35b600080fdfe608080604052600436101561001357600080fd5b60003560e01c908163163f75221461046e575080636f77926b146103cd578063995ac4fd146100a95763e54af1c41461004b57600080fd5b346100a45760203660031901126100a4576004356001600160a01b038116908190036100a45760005260006020526100a061008c600160406000200161057d565b6040519182916020835260208301906104ae565b0390f35b600080fd5b346100a45760203660031901126100a45760043567ffffffffffffffff81116100a457366023820112156100a457806004013567ffffffffffffffff81116100a457602482019160248236920101116100a45733600052600160205260ff6040600020541661038857801561034357604051610124816104ef565b338152600092601f19601f840116926001604051936101466020870186610521565b82855282846020870137866020848701015260208101948552338752866020526040872090828060a01b039051166bffffffffffffffffffffffff60a01b82541617815501925180519067ffffffffffffffff821161032f57908692916101ad8654610543565b601f81116102dd575b50602090601f831160011461024f5791807fc7857cb441635f0ed48b7f63af55142a15005f6b29e24414c3b4a20b2859b08f9792604095948792610244575b50508160011b916000199060031b1c19161790555b3383526001602052818320600160ff198254161790558082519460208652816020870152838601378301015260408133948101030190a280f35b015190508a806101f5565b8685528185209196929190601f198316865b8181106102c25750917fc7857cb441635f0ed48b7f63af55142a15005f6b29e24414c3b4a20b2859b08f9884926040979695600195106102a9575b505050811b01905561020a565b015160001960f88460031b161c191690558a808061029c565b828a015184556020998a01998c985060019094019301610261565b9091929386905260208820601f840160051c81019160208510610325575b90601f8a96959493920160051c01905b81811061031857506101b6565b948555889460010161030b565b90915081906102fb565b634e487b7160e01b87526041600452602487fd5b60405162461bcd60e51b815260206004820152601760248201527f446174612049442063616e6e6f7420626520656d7074790000000000000000006044820152606490fd5b60405162461bcd60e51b815260206004820152601760248201527f5573657220616c726561647920726567697374657265640000000000000000006044820152606490fd5b346100a45760203660031901126100a4576004356001600160a01b038116908190036100a45760606020604051610403816104ef565b60008152015260005260006020526040600020610439600160405192610428846104ef565b818060a01b0381541684520161057d565b90602081019182526100a06040519283926020845260018060a01b0390511660208401525160408084015260608301906104ae565b346100a45760203660031901126100a4576004356001600160a01b03811691908290036100a4576020916000526001825260ff6040600020541615158152f35b919082519283825260005b8481106104da575050826000602080949584010152601f8019910116010190565b806020809284010151828286010152016104b9565b6040810190811067ffffffffffffffff82111761050b57604052565b634e487b7160e01b600052604160045260246000fd5b90601f8019910116810190811067ffffffffffffffff82111761050b57604052565b90600182811c92168015610573575b602083101461055d57565b634e487b7160e01b600052602260045260246000fd5b91607f1691610552565b906040519182600082549261059184610543565b80845293600181169081156105ff57506001146105b8575b506105b692500383610521565b565b90506000929192526020600020906000915b8183106105e35750509060206105b692820101386105a9565b60209193508060019154838589010152019101909184926105ca565b9050602092506105b694915060ff191682840152151560051b820101386105a956fea2646970667358221220f48a68c60f2bce65f0cf9db341637e94f6f549917c5a80e25a861a4429a7cc4464736f6c634300081c0033",
  "linkReferences": {},
  "deployedLinkReferences": {}
}